{
  "_format": "hh-sol-artifact-1",
  "contractName": "MaliciousContract",
  "sourceName": "contracts/MaliciousContract.sol",
  "abi": [
    {
      "inputs": [
        {
          "internalType": "contract ConstellationDerivative",
          "name": "_target",
          "type": "address"
        }
      ],
      "stateMutability": "nonpayable",
      "type": "constructor"
    },
    {
      "inputs": [],
      "name": "attack",
      "outputs": [],
      "stateMutability": "payable",
      "type": "function"
    },
    {
      "inputs": [
        {
          "internalType": "address",
          "name": "",
          "type": "address"
        }
      ],
      "name": "balances",
      "outputs": [
        {
          "internalType": "uint256",
          "name": "",
          "type": "uint256"
        }
      ],
      "stateMutability": "view",
      "type": "function"
    },
    {
      "inputs": [],
      "name": "target",
      "outputs": [
        {
          "internalType": "contract ConstellationDerivative",
          "name": "",
          "type": "address"
        }
      ],
      "stateMutability": "view",
      "type": "function"
    },
    {
      "inputs": [],
      "name": "withdrawFunds",
      "outputs": [],
      "stateMutability": "nonpayable",
      "type": "function"
    },
    {
      "stateMutability": "payable",
      "type": "receive"
    }
  ],
  "bytecode": "0x608060405234801561001057600080fd5b506040516103833803806103838339818101604052602081101561003357600080fd5b5051600080546001600160a01b039092166001600160a01b031990921691909117905561031e806100656000396000f3fe6080604052600436106100435760003560e01c806324600fc3146100f357806327e235e31461010a5780639e5faafc1461014f578063d4b8399214610157576100ee565b366100ee57600080546040516001600160a01b039091169034908381818185875af1925050503d8060008114610095576040519150601f19603f3d011682016040523d82523d6000602084013e61009a565b606091505b50509050806100eb576040805162461bcd60e51b81526020600482015260186024820152771499595b9d1c985b98de48185d1d1858dac819985a5b195960421b604482015290519081900360640190fd5b50005b600080fd5b3480156100ff57600080fd5b50610108610188565b005b34801561011657600080fd5b5061013d6004803603602081101561012d57600080fd5b50356001600160a01b0316610222565b60408051918252519081900360200190f35b610108610234565b34801561016357600080fd5b5061016c6102d7565b604080516001600160a01b039092168252519081900360200190f35b33600090815260016020526040902054806101e1576040805162461bcd60e51b81526020600482015260146024820152734e6f2066756e647320746f20776974686472617760601b604482015290519081900360640190fd5b604051339082156108fc029083906000818181858888f1935050505015801561020e573d6000803e3d6000fd5b505033600090815260016020526040812055565b60016020526000908152604090205481565b604051600090309034908381818185875af1925050503d8060008114610276576040519150601f19603f3d011682016040523d82523d6000602084013e61027b565b606091505b50509050806102cc576040805162461bcd60e51b81526020600482015260186024820152771499595b9d1c985b98de48185d1d1858dac819985a5b195960421b604482015290519081900360640190fd5b6102d46102e6565b50565b6000546001600160a01b031681565b56fea26469706673582212202ae1113e598adcd193c7d9d225fb3f169283d226e5502a5eab8ff0944d30fec864736f6c63430006080033",
  "linkReferences": {},
  "deployedLinkReferences": {}
}