{
  "_format": "hh-sol-artifact-1",
  "contractName": "ConstellationDerivative",
  "sourceName": "contracts/ConstellationDerivative.sol",
  "abi": [
    {
      "anonymous": false,
      "inputs": [
        {
          "indexed": true,
          "internalType": "uint256",
          "name": "id",
          "type": "uint256"
        },
        {
          "indexed": false,
          "internalType": "uint256",
          "name": "result",
          "type": "uint256"
        }
      ],
      "name": "AnalyzeActivity",
      "type": "event"
    },
    {
      "anonymous": false,
      "inputs": [
        {
          "indexed": true,
          "internalType": "uint256",
          "name": "id",
          "type": "uint256"
        },
        {
          "indexed": false,
          "internalType": "uint256",
          "name": "duration",
          "type": "uint256"
        }
      ],
      "name": "BaseExpirationSet",
      "type": "event"
    },
    {
      "anonymous": false,
      "inputs": [
        {
          "indexed": true,
          "internalType": "uint256",
          "name": "id",
          "type": "uint256"
        },
        {
          "indexed": false,
          "internalType": "uint256",
          "name": "additionalDuration",
          "type": "uint256"
        }
      ],
      "name": "BidDurationExtended",
      "type": "event"
    },
    {
      "anonymous": false,
      "inputs": [
        {
          "indexed": false,
          "internalType": "uint256",
          "name": "id",
          "type": "uint256"
        },
        {
          "indexed": true,
          "internalType": "address",
          "name": "bidder",
          "type": "address"
        },
        {
          "indexed": false,
          "internalType": "uint256[]",
          "name": "offer",
          "type": "uint256[]"
        }
      ],
      "name": "BidPlaced",
      "type": "event"
    },
    {
      "anonymous": false,
      "inputs": [
        {
          "indexed": true,
          "internalType": "uint256",
          "name": "id",
          "type": "uint256"
        }
      ],
      "name": "BidReset",
      "type": "event"
    },
    {
      "anonymous": false,
      "inputs": [
        {
          "indexed": true,
          "internalType": "uint256",
          "name": "id",
          "type": "uint256"
        },
        {
          "indexed": false,
          "internalType": "uint256",
          "name": "fee",
          "type": "uint256"
        }
      ],
      "name": "BidResetFeeSet",
      "type": "event"
    },
    {
      "anonymous": false,
      "inputs": [
        {
          "indexed": true,
          "internalType": "uint256",
          "name": "id",
          "type": "uint256"
        },
        {
          "indexed": false,
          "internalType": "address",
          "name": "bidder",
          "type": "address"
        },
        {
          "indexed": false,
          "internalType": "uint256",
          "name": "amount",
          "type": "uint256"
        }
      ],
      "name": "BidWithdrawn",
      "type": "event"
    },
    {
      "anonymous": false,
      "inputs": [
        {
          "indexed": true,
          "internalType": "uint256",
          "name": "id",
          "type": "uint256"
        }
      ],
      "name": "BidsReset",
      "type": "event"
    },
    {
      "anonymous": false,
      "inputs": [
        {
          "indexed": false,
          "internalType": "uint256",
          "name": "id",
          "type": "uint256"
        },
        {
          "indexed": true,
          "internalType": "address",
          "name": "withdrawer",
          "type": "address"
        }
      ],
      "name": "CollateralWithdrawn",
      "type": "event"
    },
    {
      "anonymous": false,
      "inputs": [
        {
          "indexed": true,
          "internalType": "uint256",
          "name": "id",
          "type": "uint256"
        },
        {
          "indexed": false,
          "internalType": "uint256",
          "name": "factor",
          "type": "uint256"
        }
      ],
      "name": "ExpirationIncreaseFactorSet",
      "type": "event"
    },
    {
      "anonymous": false,
      "inputs": [
        {
          "indexed": true,
          "internalType": "uint256",
          "name": "id",
          "type": "uint256"
        },
        {
          "indexed": false,
          "internalType": "uint256",
          "name": "newExpiration",
          "type": "uint256"
        }
      ],
      "name": "ExtendBidDuration",
      "type": "event"
    },
    {
      "anonymous": false,
      "inputs": [
        {
          "indexed": true,
          "internalType": "uint256",
          "name": "id",
          "type": "uint256"
        },
        {
          "indexed": false,
          "internalType": "uint256",
          "name": "newExpiration",
          "type": "uint256"
        }
      ],
      "name": "ExtendOfferDuration",
      "type": "event"
    },
    {
      "anonymous": false,
      "inputs": [
        {
          "indexed": true,
          "internalType": "address",
          "name": "sender",
          "type": "address"
        },
        {
          "indexed": true,
          "internalType": "uint256",
          "name": "id",
          "type": "uint256"
        }
      ],
      "name": "FunctionWithEventCalled",
      "type": "event"
    },
    {
      "anonymous": false,
      "inputs": [
        {
          "indexed": true,
          "internalType": "address",
          "name": "caller",
          "type": "address"
        }
      ],
      "name": "FunctionWithOnlyCreatorCalled",
      "type": "event"
    },
    {
      "anonymous": false,
      "inputs": [
        {
          "indexed": true,
          "internalType": "address",
          "name": "caller",
          "type": "address"
        }
      ],
      "name": "FunctionWithOnlyOwnerCalled",
      "type": "event"
    },
    {
      "anonymous": false,
      "inputs": [
        {
          "indexed": true,
          "internalType": "uint256",
          "name": "id",
          "type": "uint256"
        },
        {
          "indexed": false,
          "internalType": "uint256",
          "name": "period",
          "type": "uint256"
        }
      ],
      "name": "GracePeriodSet",
      "type": "event"
    },
    {
      "anonymous": false,
      "inputs": [
        {
          "indexed": true,
          "internalType": "uint256",
          "name": "id",
          "type": "uint256"
        },
        {
          "indexed": false,
          "internalType": "uint256",
          "name": "maxBids",
          "type": "uint256"
        }
      ],
      "name": "MaxBidsPerUserSet",
      "type": "event"
    },
    {
      "anonymous": false,
      "inputs": [
        {
          "indexed": true,
          "internalType": "uint256",
          "name": "id",
          "type": "uint256"
        },
        {
          "indexed": false,
          "internalType": "uint256",
          "name": "duration",
          "type": "uint256"
        }
      ],
      "name": "MinBidDurationSet",
      "type": "event"
    },
    {
      "anonymous": false,
      "inputs": [
        {
          "indexed": true,
          "internalType": "uint256",
          "name": "id",
          "type": "uint256"
        },
        {
          "indexed": false,
          "internalType": "uint256",
          "name": "duration",
          "type": "uint256"
        }
      ],
      "name": "MinOfferDurationSet",
      "type": "event"
    },
    {
      "anonymous": false,
      "inputs": [
        {
          "indexed": false,
          "internalType": "uint256",
          "name": "id",
          "type": "uint256"
        },
        {
          "indexed": true,
          "internalType": "address",
          "name": "bidder",
          "type": "address"
        },
        {
          "indexed": false,
          "internalType": "uint256[]",
          "name": "offer",
          "type": "uint256[]"
        },
        {
          "indexed": false,
          "internalType": "uint256[]",
          "name": "oracleData",
          "type": "uint256[]"
        }
      ],
      "name": "NewBid",
      "type": "event"
    },
    {
      "anonymous": false,
      "inputs": [
        {
          "indexed": true,
          "internalType": "uint256",
          "name": "id",
          "type": "uint256"
        }
      ],
      "name": "NewResetBids",
      "type": "event"
    },
    {
      "anonymous": false,
      "inputs": [
        {
          "indexed": true,
          "internalType": "uint256",
          "name": "id",
          "type": "uint256"
        },
        {
          "indexed": false,
          "internalType": "uint256",
          "name": "additionalDuration",
          "type": "uint256"
        }
      ],
      "name": "OfferDurationExtended",
      "type": "event"
    },
    {
      "anonymous": false,
      "inputs": [
        {
          "indexed": false,
          "internalType": "uint256",
          "name": "id",
          "type": "uint256"
        },
        {
          "indexed": true,
          "internalType": "address",
          "name": "offerer",
          "type": "address"
        },
        {
          "indexed": false,
          "internalType": "uint256[]",
          "name": "offer",
          "type": "uint256[]"
        }
      ],
      "name": "OfferPlaced",
      "type": "event"
    },
    {
      "anonymous": false,
      "inputs": [
        {
          "indexed": true,
          "internalType": "uint256",
          "name": "id",
          "type": "uint256"
        }
      ],
      "name": "OfferReset",
      "type": "event"
    },
    {
      "anonymous": false,
      "inputs": [
        {
          "indexed": true,
          "internalType": "uint256",
          "name": "id",
          "type": "uint256"
        },
        {
          "indexed": false,
          "internalType": "uint256",
          "name": "fee",
          "type": "uint256"
        }
      ],
      "name": "OfferResetFeeSet",
      "type": "event"
    },
    {
      "anonymous": false,
      "inputs": [
        {
          "indexed": true,
          "internalType": "uint256",
          "name": "id",
          "type": "uint256"
        },
        {
          "indexed": false,
          "internalType": "address",
          "name": "offerer",
          "type": "address"
        },
        {
          "indexed": false,
          "internalType": "uint256",
          "name": "amount",
          "type": "uint256"
        }
      ],
      "name": "OfferWithdrawn",
      "type": "event"
    },
    {
      "anonymous": false,
      "inputs": [
        {
          "indexed": true,
          "internalType": "uint256",
          "name": "id",
          "type": "uint256"
        }
      ],
      "name": "OffersReset",
      "type": "event"
    },
    {
      "anonymous": false,
      "inputs": [
        {
          "indexed": false,
          "internalType": "uint256",
          "name": "id",
          "type": "uint256"
        },
        {
          "indexed": true,
          "internalType": "address",
          "name": "buyer",
          "type": "address"
        },
        {
          "indexed": false,
          "internalType": "uint256",
          "name": "totalPrice",
          "type": "uint256"
        }
      ],
      "name": "OptionBought",
      "type": "event"
    },
    {
      "anonymous": false,
      "inputs": [
        {
          "indexed": false,
          "internalType": "uint256",
          "name": "id",
          "type": "uint256"
        },
        {
          "indexed": true,
          "internalType": "address",
          "name": "burner",
          "type": "address"
        }
      ],
      "name": "OptionBurned",
      "type": "event"
    },
    {
      "anonymous": false,
      "inputs": [
        {
          "indexed": false,
          "internalType": "uint256",
          "name": "id",
          "type": "uint256"
        },
        {
          "indexed": true,
          "internalType": "address",
          "name": "canceller",
          "type": "address"
        }
      ],
      "name": "OptionCancelled",
      "type": "event"
    },
    {
      "anonymous": false,
      "inputs": [
        {
          "indexed": false,
          "internalType": "uint256",
          "name": "id",
          "type": "uint256"
        },
        {
          "indexed": true,
          "internalType": "address",
          "name": "claimer",
          "type": "address"
        }
      ],
      "name": "OptionClaimed",
      "type": "event"
    },
    {
      "anonymous": false,
      "inputs": [
        {
          "indexed": false,
          "internalType": "uint256",
          "name": "id",
          "type": "uint256"
        },
        {
          "indexed": true,
          "internalType": "address",
          "name": "owner",
          "type": "address"
        },
        {
          "indexed": false,
          "internalType": "address",
          "name": "creator",
          "type": "address"
        },
        {
          "indexed": false,
          "internalType": "address",
          "name": "collateralToken",
          "type": "address"
        },
        {
          "indexed": false,
          "internalType": "uint256",
          "name": "collateralAmount",
          "type": "uint256"
        },
        {
          "indexed": false,
          "internalType": "uint256",
          "name": "counterOffer",
          "type": "uint256"
        },
        {
          "indexed": false,
          "internalType": "uint256",
          "name": "expires",
          "type": "uint256"
        },
        {
          "indexed": false,
          "internalType": "uint256",
          "name": "maxUnits",
          "type": "uint256"
        }
      ],
      "name": "OptionCreated",
      "type": "event"
    },
    {
      "anonymous": false,
      "inputs": [
        {
          "indexed": false,
          "internalType": "uint256",
          "name": "id",
          "type": "uint256"
        },
        {
          "indexed": true,
          "internalType": "address",
          "name": "delister",
          "type": "address"
        }
      ],
      "name": "OptionDelisted",
      "type": "event"
    },
    {
      "anonymous": false,
      "inputs": [
        {
          "indexed": false,
          "internalType": "uint256",
          "name": "id",
          "type": "uint256"
        },
        {
          "indexed": true,
          "internalType": "address",
          "name": "executor",
          "type": "address"
        },
        {
          "indexed": false,
          "internalType": "uint256",
          "name": "optionPrice",
          "type": "uint256"
        },
        {
          "indexed": false,
          "internalType": "uint256",
          "name": "totalPrice",
          "type": "uint256"
        }
      ],
      "name": "OptionExecuted",
      "type": "event"
    },
    {
      "anonymous": false,
      "inputs": [
        {
          "indexed": true,
          "internalType": "bytes32",
          "name": "requestId",
          "type": "bytes32"
        },
        {
          "indexed": false,
          "internalType": "uint256",
          "name": "randomNumber",
          "type": "uint256"
        }
      ],
      "name": "OptionExecuted",
      "type": "event"
    },
    {
      "anonymous": false,
      "inputs": [
        {
          "indexed": true,
          "internalType": "uint256",
          "name": "id",
          "type": "uint256"
        }
      ],
      "name": "OptionExpired",
      "type": "event"
    },
    {
      "anonymous": false,
      "inputs": [
        {
          "indexed": false,
          "internalType": "uint256",
          "name": "id",
          "type": "uint256"
        },
        {
          "indexed": true,
          "internalType": "address",
          "name": "lister",
          "type": "address"
        },
        {
          "indexed": false,
          "internalType": "uint256[]",
          "name": "price",
          "type": "uint256[]"
        }
      ],
      "name": "OptionListed",
      "type": "event"
    },
    {
      "anonymous": false,
      "inputs": [
        {
          "indexed": false,
          "internalType": "uint256",
          "name": "id",
          "type": "uint256"
        },
        {
          "indexed": true,
          "internalType": "address",
          "name": "from",
          "type": "address"
        },
        {
          "indexed": true,
          "internalType": "address",
          "name": "to",
          "type": "address"
        }
      ],
      "name": "OptionTransferred",
      "type": "event"
    },
    {
      "anonymous": false,
      "inputs": [
        {
          "indexed": true,
          "internalType": "address",
          "name": "previousOwner",
          "type": "address"
        },
        {
          "indexed": true,
          "internalType": "address",
          "name": "newOwner",
          "type": "address"
        }
      ],
      "name": "OwnershipTransferred",
      "type": "event"
    },
    {
      "anonymous": false,
      "inputs": [
        {
          "indexed": false,
          "internalType": "uint256",
          "name": "id",
          "type": "uint256"
        },
        {
          "indexed": true,
          "internalType": "address",
          "name": "withdrawer",
          "type": "address"
        },
        {
          "indexed": false,
          "internalType": "uint256",
          "name": "partialAmount",
          "type": "uint256"
        }
      ],
      "name": "PartialBidWithdrawn",
      "type": "event"
    },
    {
      "anonymous": false,
      "inputs": [
        {
          "indexed": true,
          "internalType": "uint256",
          "name": "id",
          "type": "uint256"
        },
        {
          "indexed": false,
          "internalType": "string",
          "name": "denom",
          "type": "string"
        },
        {
          "indexed": false,
          "internalType": "uint256",
          "name": "expirationTime",
          "type": "uint256"
        },
        {
          "indexed": false,
          "internalType": "bytes32",
          "name": "requestId",
          "type": "bytes32"
        }
      ],
      "name": "PriceDataRequested",
      "type": "event"
    },
    {
      "anonymous": false,
      "inputs": [
        {
          "indexed": false,
          "internalType": "address",
          "name": "bidder",
          "type": "address"
        },
        {
          "indexed": false,
          "internalType": "uint256",
          "name": "value",
          "type": "uint256"
        }
      ],
      "name": "ReceivedEther",
      "type": "event"
    },
    {
      "anonymous": false,
      "inputs": [
        {
          "indexed": true,
          "internalType": "uint256",
          "name": "id",
          "type": "uint256"
        },
        {
          "indexed": false,
          "internalType": "uint256",
          "name": "threshold",
          "type": "uint256"
        }
      ],
      "name": "StaleBidRemoveThresholdSet",
      "type": "event"
    },
    {
      "anonymous": false,
      "inputs": [
        {
          "indexed": true,
          "internalType": "uint256",
          "name": "id",
          "type": "uint256"
        },
        {
          "indexed": false,
          "internalType": "uint256",
          "name": "buffer",
          "type": "uint256"
        }
      ],
      "name": "TimeBufferSet",
      "type": "event"
    },
    {
      "anonymous": false,
      "inputs": [
        {
          "indexed": true,
          "internalType": "uint256",
          "name": "id",
          "type": "uint256"
        },
        {
          "indexed": true,
          "internalType": "address",
          "name": "bidder",
          "type": "address"
        },
        {
          "indexed": false,
          "internalType": "uint256",
          "name": "refundedAmount",
          "type": "uint256"
        }
      ],
      "name": "WithdrawBid",
      "type": "event"
    },
    {
      "inputs": [
        {
          "internalType": "uint256",
          "name": "id",
          "type": "uint256"
        }
      ],
      "name": "acceptBid",
      "outputs": [],
      "stateMutability": "nonpayable",
      "type": "function"
    },
    {
      "inputs": [
        {
          "internalType": "uint256",
          "name": "id",
          "type": "uint256"
        }
      ],
      "name": "acceptOffer",
      "outputs": [],
      "stateMutability": "nonpayable",
      "type": "function"
    },
    {
      "inputs": [
        {
          "internalType": "uint256",
          "name": "id",
          "type": "uint256"
        },
        {
          "internalType": "uint256[]",
          "name": "toAddPrice",
          "type": "uint256[]"
        }
      ],
      "name": "addToMarket",
      "outputs": [],
      "stateMutability": "nonpayable",
      "type": "function"
    },
    {
      "inputs": [
        {
          "internalType": "uint256",
          "name": "id",
          "type": "uint256"
        }
      ],
      "name": "analyzeActivity",
      "outputs": [],
      "stateMutability": "nonpayable",
      "type": "function"
    },
    {
      "inputs": [],
      "name": "baseExpiration",
      "outputs": [
        {
          "internalType": "uint256",
          "name": "",
          "type": "uint256"
        }
      ],
      "stateMutability": "view",
      "type": "function"
    },
    {
      "inputs": [
        {
          "internalType": "uint256",
          "name": "id",
          "type": "uint256"
        },
        {
          "internalType": "uint256[]",
          "name": "offer",
          "type": "uint256[]"
        }
      ],
      "name": "bid",
      "outputs": [],
      "stateMutability": "payable",
      "type": "function"
    },
    {
      "inputs": [],
      "name": "bidDuration",
      "outputs": [
        {
          "internalType": "uint256",
          "name": "",
          "type": "uint256"
        }
      ],
      "stateMutability": "view",
      "type": "function"
    },
    {
      "inputs": [],
      "name": "bidResetFee",
      "outputs": [
        {
          "internalType": "uint256",
          "name": "",
          "type": "uint256"
        }
      ],
      "stateMutability": "view",
      "type": "function"
    },
    {
      "inputs": [
        {
          "internalType": "uint256",
          "name": "",
          "type": "uint256"
        },
        {
          "internalType": "address",
          "name": "",
          "type": "address"
        }
      ],
      "name": "bids",
      "outputs": [
        {
          "internalType": "uint256",
          "name": "",
          "type": "uint256"
        }
      ],
      "stateMutability": "view",
      "type": "function"
    },
    {
      "inputs": [],
      "name": "bufferTime",
      "outputs": [
        {
          "internalType": "uint256",
          "name": "",
          "type": "uint256"
        }
      ],
      "stateMutability": "view",
      "type": "function"
    },
    {
      "inputs": [
        {
          "internalType": "uint256",
          "name": "id",
          "type": "uint256"
        }
      ],
      "name": "burnOption",
      "outputs": [],
      "stateMutability": "nonpayable",
      "type": "function"
    },
    {
      "inputs": [
        {
          "internalType": "uint256",
          "name": "id",
          "type": "uint256"
        }
      ],
      "name": "buyOption",
      "outputs": [],
      "stateMutability": "payable",
      "type": "function"
    },
    {
      "inputs": [
        {
          "internalType": "uint256",
          "name": "id",
          "type": "uint256"
        },
        {
          "internalType": "uint256",
          "name": "units",
          "type": "uint256"
        }
      ],
      "name": "buyOptionChainlink",
      "outputs": [],
      "stateMutability": "payable",
      "type": "function"
    },
    {
      "inputs": [
        {
          "internalType": "uint256",
          "name": "id",
          "type": "uint256"
        }
      ],
      "name": "cancelOption",
      "outputs": [],
      "stateMutability": "nonpayable",
      "type": "function"
    },
    {
      "inputs": [],
      "name": "chainlinkMock",
      "outputs": [
        {
          "internalType": "contract ChainlinkMock",
          "name": "",
          "type": "address"
        }
      ],
      "stateMutability": "view",
      "type": "function"
    },
    {
      "inputs": [],
      "name": "chainlinkOracle",
      "outputs": [
        {
          "internalType": "address",
          "name": "",
          "type": "address"
        }
      ],
      "stateMutability": "view",
      "type": "function"
    },
    {
      "inputs": [
        {
          "internalType": "uint256",
          "name": "id",
          "type": "uint256"
        }
      ],
      "name": "checkOnlyIfNotActive",
      "outputs": [],
      "stateMutability": "view",
      "type": "function"
    },
    {
      "inputs": [
        {
          "internalType": "uint256",
          "name": "id",
          "type": "uint256"
        }
      ],
      "name": "checkOnlyIfNotStale",
      "outputs": [],
      "stateMutability": "view",
      "type": "function"
    },
    {
      "inputs": [
        {
          "internalType": "uint256",
          "name": "id",
          "type": "uint256"
        }
      ],
      "name": "claimOption",
      "outputs": [],
      "stateMutability": "nonpayable",
      "type": "function"
    },
    {
      "inputs": [
        {
          "internalType": "uint256",
          "name": "",
          "type": "uint256"
        }
      ],
      "name": "collateralLimit",
      "outputs": [
        {
          "internalType": "uint256",
          "name": "",
          "type": "uint256"
        }
      ],
      "stateMutability": "view",
      "type": "function"
    },
    {
      "inputs": [
        {
          "internalType": "uint256",
          "name": "",
          "type": "uint256"
        }
      ],
      "name": "collateralList",
      "outputs": [
        {
          "internalType": "uint256",
          "name": "totalCollateral",
          "type": "uint256"
        },
        {
          "internalType": "uint256",
          "name": "totalPremium",
          "type": "uint256"
        },
        {
          "internalType": "uint256",
          "name": "units",
          "type": "uint256"
        }
      ],
      "stateMutability": "view",
      "type": "function"
    },
    {
      "inputs": [],
      "name": "config",
      "outputs": [
        {
          "internalType": "address",
          "name": "creator",
          "type": "address"
        },
        {
          "internalType": "uint256",
          "name": "totalOptionsNum",
          "type": "uint256"
        }
      ],
      "stateMutability": "view",
      "type": "function"
    },
    {
      "inputs": [
        {
          "internalType": "uint256[]",
          "name": "counterOffer",
          "type": "uint256[]"
        },
        {
          "internalType": "uint256",
          "name": "expires",
          "type": "uint256"
        },
        {
          "internalType": "address",
          "name": "collateralToken",
          "type": "address"
        },
        {
          "internalType": "uint256",
          "name": "collateralAmount",
          "type": "uint256"
        },
        {
          "internalType": "uint256",
          "name": "maxUnits",
          "type": "uint256"
        }
      ],
      "name": "createOption",
      "outputs": [
        {
          "internalType": "uint256",
          "name": "",
          "type": "uint256"
        }
      ],
      "stateMutability": "nonpayable",
      "type": "function"
    },
    {
      "inputs": [
        {
          "internalType": "address",
          "name": "",
          "type": "address"
        },
        {
          "internalType": "uint256",
          "name": "",
          "type": "uint256"
        }
      ],
      "name": "creatorList",
      "outputs": [
        {
          "internalType": "address",
          "name": "creator",
          "type": "address"
        },
        {
          "internalType": "address",
          "name": "owner",
          "type": "address"
        },
        {
          "internalType": "address",
          "name": "collateralToken",
          "type": "address"
        },
        {
          "internalType": "uint256",
          "name": "collateralAmount",
          "type": "uint256"
        },
        {
          "internalType": "enum ConstellationDerivativeState.OptionStatus",
          "name": "status",
          "type": "uint8"
        },
        {
          "internalType": "uint256",
          "name": "expires",
          "type": "uint256"
        },
        {
          "internalType": "uint256",
          "name": "units",
          "type": "uint256"
        }
      ],
      "stateMutability": "view",
      "type": "function"
    },
    {
      "inputs": [],
      "name": "data",
      "outputs": [
        {
          "internalType": "address",
          "name": "creator",
          "type": "address"
        },
        {
          "internalType": "address",
          "name": "owner",
          "type": "address"
        },
        {
          "internalType": "address",
          "name": "collateralToken",
          "type": "address"
        },
        {
          "internalType": "uint256",
          "name": "collateralAmount",
          "type": "uint256"
        },
        {
          "internalType": "enum ConstellationDerivativeState.OptionStatus",
          "name": "status",
          "type": "uint8"
        },
        {
          "internalType": "uint256",
          "name": "expires",
          "type": "uint256"
        },
        {
          "internalType": "uint256",
          "name": "units",
          "type": "uint256"
        }
      ],
      "stateMutability": "view",
      "type": "function"
    },
    {
      "inputs": [
        {
          "internalType": "uint256",
          "name": "id",
          "type": "uint256"
        }
      ],
      "name": "executeOption",
      "outputs": [],
      "stateMutability": "nonpayable",
      "type": "function"
    },
    {
      "inputs": [
        {
          "internalType": "bytes32",
          "name": "requestId",
          "type": "bytes32"
        }
      ],
      "name": "executeOptionWithRandomness",
      "outputs": [],
      "stateMutability": "nonpayable",
      "type": "function"
    },
    {
      "inputs": [],
      "name": "expirationIncreaseFactor",
      "outputs": [
        {
          "internalType": "uint256",
          "name": "",
          "type": "uint256"
        }
      ],
      "stateMutability": "view",
      "type": "function"
    },
    {
      "inputs": [
        {
          "internalType": "uint256",
          "name": "id",
          "type": "uint256"
        },
        {
          "internalType": "uint256",
          "name": "additionalDuration",
          "type": "uint256"
        }
      ],
      "name": "extendBidDuration",
      "outputs": [],
      "stateMutability": "nonpayable",
      "type": "function"
    },
    {
      "inputs": [
        {
          "internalType": "uint256",
          "name": "id",
          "type": "uint256"
        },
        {
          "internalType": "uint256",
          "name": "additionalDuration",
          "type": "uint256"
        }
      ],
      "name": "extendOfferDuration",
      "outputs": [],
      "stateMutability": "nonpayable",
      "type": "function"
    },
    {
      "inputs": [
        {
          "internalType": "bytes32",
          "name": "requestId",
          "type": "bytes32"
        },
        {
          "internalType": "uint256",
          "name": "price",
          "type": "uint256"
        }
      ],
      "name": "fulfillPrice",
      "outputs": [],
      "stateMutability": "nonpayable",
      "type": "function"
    },
    {
      "inputs": [],
      "name": "functionExceedingGasLimit",
      "outputs": [],
      "stateMutability": "view",
      "type": "function"
    },
    {
      "inputs": [
        {
          "internalType": "uint256[]",
          "name": "functionData",
          "type": "uint256[]"
        }
      ],
      "name": "functionWithEmptyArray",
      "outputs": [],
      "stateMutability": "pure",
      "type": "function"
    },
    {
      "inputs": [
        {
          "internalType": "uint256",
          "name": "optionId",
          "type": "uint256"
        }
      ],
      "name": "functionWithEvent",
      "outputs": [],
      "stateMutability": "nonpayable",
      "type": "function"
    },
    {
      "inputs": [],
      "name": "functionWithOnlyCreator",
      "outputs": [],
      "stateMutability": "nonpayable",
      "type": "function"
    },
    {
      "inputs": [],
      "name": "functionWithOverflow",
      "outputs": [],
      "stateMutability": "payable",
      "type": "function"
    },
    {
      "inputs": [],
      "name": "functionWithZeroAddress",
      "outputs": [],
      "stateMutability": "view",
      "type": "function"
    },
    {
      "inputs": [],
      "name": "functionWithZeroAmount",
      "outputs": [],
      "stateMutability": "payable",
      "type": "function"
    },
    {
      "inputs": [
        {
          "internalType": "uint256",
          "name": "id",
          "type": "uint256"
        }
      ],
      "name": "functionWithonlyOptionOwner",
      "outputs": [],
      "stateMutability": "nonpayable",
      "type": "function"
    },
    {
      "inputs": [],
      "name": "gasLimit",
      "outputs": [
        {
          "internalType": "uint256",
          "name": "",
          "type": "uint256"
        }
      ],
      "stateMutability": "view",
      "type": "function"
    },
    {
      "inputs": [],
      "name": "getCreator",
      "outputs": [
        {
          "internalType": "address",
          "name": "",
          "type": "address"
        }
      ],
      "stateMutability": "view",
      "type": "function"
    },
    {
      "inputs": [],
      "name": "getTotalOptionsNum",
      "outputs": [
        {
          "internalType": "uint256",
          "name": "",
          "type": "uint256"
        }
      ],
      "stateMutability": "view",
      "type": "function"
    },
    {
      "inputs": [],
      "name": "gracePeriod",
      "outputs": [
        {
          "internalType": "uint256",
          "name": "",
          "type": "uint256"
        }
      ],
      "stateMutability": "view",
      "type": "function"
    },
    {
      "inputs": [],
      "name": "instantiate",
      "outputs": [],
      "stateMutability": "nonpayable",
      "type": "function"
    },
    {
      "inputs": [],
      "name": "latestPrice",
      "outputs": [
        {
          "internalType": "uint256",
          "name": "",
          "type": "uint256"
        }
      ],
      "stateMutability": "view",
      "type": "function"
    },
    {
      "inputs": [
        {
          "internalType": "uint256",
          "name": "",
          "type": "uint256"
        }
      ],
      "name": "marketList",
      "outputs": [
        {
          "internalType": "address",
          "name": "creator",
          "type": "address"
        },
        {
          "internalType": "address",
          "name": "owner",
          "type": "address"
        },
        {
          "internalType": "address",
          "name": "collateralToken",
          "type": "address"
        },
        {
          "internalType": "uint256",
          "name": "collateralAmount",
          "type": "uint256"
        },
        {
          "internalType": "enum ConstellationDerivativeState.OptionStatus",
          "name": "status",
          "type": "uint8"
        },
        {
          "internalType": "uint256",
          "name": "expires",
          "type": "uint256"
        },
        {
          "internalType": "uint256",
          "name": "units",
          "type": "uint256"
        }
      ],
      "stateMutability": "view",
      "type": "function"
    },
    {
      "inputs": [],
      "name": "maxBidsPerUser",
      "outputs": [
        {
          "internalType": "uint256",
          "name": "",
          "type": "uint256"
        }
      ],
      "stateMutability": "view",
      "type": "function"
    },
    {
      "inputs": [],
      "name": "minBidAmount",
      "outputs": [
        {
          "internalType": "uint256",
          "name": "",
          "type": "uint256"
        }
      ],
      "stateMutability": "view",
      "type": "function"
    },
    {
      "inputs": [],
      "name": "minBidDuration",
      "outputs": [
        {
          "internalType": "uint256",
          "name": "",
          "type": "uint256"
        }
      ],
      "stateMutability": "view",
      "type": "function"
    },
    {
      "inputs": [],
      "name": "minOfferDuration",
      "outputs": [
        {
          "internalType": "uint256",
          "name": "",
          "type": "uint256"
        }
      ],
      "stateMutability": "view",
      "type": "function"
    },
    {
      "inputs": [
        {
          "internalType": "uint256",
          "name": "id",
          "type": "uint256"
        },
        {
          "internalType": "uint256[]",
          "name": "bidOffer",
          "type": "uint256[]"
        },
        {
          "internalType": "uint256[]",
          "name": "oracleData",
          "type": "uint256[]"
        }
      ],
      "name": "newBid",
      "outputs": [],
      "stateMutability": "nonpayable",
      "type": "function"
    },
    {
      "inputs": [
        {
          "internalType": "uint256",
          "name": "id",
          "type": "uint256"
        }
      ],
      "name": "newResetBids",
      "outputs": [],
      "stateMutability": "nonpayable",
      "type": "function"
    },
    {
      "inputs": [
        {
          "internalType": "uint256",
          "name": "id",
          "type": "uint256"
        },
        {
          "internalType": "uint256[]",
          "name": "offerPrice",
          "type": "uint256[]"
        }
      ],
      "name": "offer",
      "outputs": [],
      "stateMutability": "nonpayable",
      "type": "function"
    },
    {
      "inputs": [
        {
          "internalType": "uint256",
          "name": "id",
          "type": "uint256"
        },
        {
          "internalType": "uint256",
          "name": "amount",
          "type": "uint256"
        }
      ],
      "name": "offerAmt",
      "outputs": [],
      "stateMutability": "nonpayable",
      "type": "function"
    },
    {
      "inputs": [],
      "name": "offerDuration",
      "outputs": [
        {
          "internalType": "uint256",
          "name": "",
          "type": "uint256"
        }
      ],
      "stateMutability": "view",
      "type": "function"
    },
    {
      "inputs": [],
      "name": "offerResetFee",
      "outputs": [
        {
          "internalType": "uint256",
          "name": "",
          "type": "uint256"
        }
      ],
      "stateMutability": "view",
      "type": "function"
    },
    {
      "inputs": [
        {
          "internalType": "uint256",
          "name": "",
          "type": "uint256"
        },
        {
          "internalType": "address",
          "name": "",
          "type": "address"
        }
      ],
      "name": "offers",
      "outputs": [
        {
          "internalType": "uint256",
          "name": "",
          "type": "uint256"
        }
      ],
      "stateMutability": "view",
      "type": "function"
    },
    {
      "inputs": [
        {
          "internalType": "uint256",
          "name": "",
          "type": "uint256"
        }
      ],
      "name": "optionList",
      "outputs": [
        {
          "internalType": "address",
          "name": "creator",
          "type": "address"
        },
        {
          "internalType": "address",
          "name": "owner",
          "type": "address"
        },
        {
          "internalType": "address",
          "name": "collateralToken",
          "type": "address"
        },
        {
          "internalType": "uint256",
          "name": "collateralAmount",
          "type": "uint256"
        },
        {
          "internalType": "enum ConstellationDerivativeState.OptionStatus",
          "name": "status",
          "type": "uint8"
        },
        {
          "internalType": "uint256",
          "name": "expires",
          "type": "uint256"
        },
        {
          "internalType": "uint256",
          "name": "units",
          "type": "uint256"
        }
      ],
      "stateMutability": "view",
      "type": "function"
    },
    {
      "inputs": [],
      "name": "owner",
      "outputs": [
        {
          "internalType": "address",
          "name": "",
          "type": "address"
        }
      ],
      "stateMutability": "view",
      "type": "function"
    },
    {
      "inputs": [
        {
          "internalType": "address",
          "name": "",
          "type": "address"
        },
        {
          "internalType": "uint256",
          "name": "",
          "type": "uint256"
        }
      ],
      "name": "ownerList",
      "outputs": [
        {
          "internalType": "address",
          "name": "creator",
          "type": "address"
        },
        {
          "internalType": "address",
          "name": "owner",
          "type": "address"
        },
        {
          "internalType": "address",
          "name": "collateralToken",
          "type": "address"
        },
        {
          "internalType": "uint256",
          "name": "collateralAmount",
          "type": "uint256"
        },
        {
          "internalType": "enum ConstellationDerivativeState.OptionStatus",
          "name": "status",
          "type": "uint8"
        },
        {
          "internalType": "uint256",
          "name": "expires",
          "type": "uint256"
        },
        {
          "internalType": "uint256",
          "name": "units",
          "type": "uint256"
        }
      ],
      "stateMutability": "view",
      "type": "function"
    },
    {
      "inputs": [],
      "name": "pause",
      "outputs": [],
      "stateMutability": "nonpayable",
      "type": "function"
    },
    {
      "inputs": [],
      "name": "paused",
      "outputs": [
        {
          "internalType": "bool",
          "name": "",
          "type": "bool"
        }
      ],
      "stateMutability": "view",
      "type": "function"
    },
    {
      "inputs": [
        {
          "internalType": "bytes32",
          "name": "",
          "type": "bytes32"
        }
      ],
      "name": "priceRequests",
      "outputs": [
        {
          "internalType": "uint256",
          "name": "",
          "type": "uint256"
        }
      ],
      "stateMutability": "view",
      "type": "function"
    },
    {
      "inputs": [
        {
          "internalType": "uint256",
          "name": "",
          "type": "uint256"
        },
        {
          "internalType": "uint256",
          "name": "",
          "type": "uint256"
        }
      ],
      "name": "priceToBidder",
      "outputs": [
        {
          "internalType": "address",
          "name": "",
          "type": "address"
        }
      ],
      "stateMutability": "view",
      "type": "function"
    },
    {
      "inputs": [
        {
          "internalType": "uint256",
          "name": "",
          "type": "uint256"
        },
        {
          "internalType": "uint256",
          "name": "",
          "type": "uint256"
        }
      ],
      "name": "priceToOfferer",
      "outputs": [
        {
          "internalType": "address",
          "name": "",
          "type": "address"
        }
      ],
      "stateMutability": "view",
      "type": "function"
    },
    {
      "inputs": [
        {
          "internalType": "uint256",
          "name": "id",
          "type": "uint256"
        }
      ],
      "name": "removeFromMarket",
      "outputs": [],
      "stateMutability": "nonpayable",
      "type": "function"
    },
    {
      "inputs": [],
      "name": "renounceOwnership",
      "outputs": [],
      "stateMutability": "nonpayable",
      "type": "function"
    },
    {
      "inputs": [
        {
          "internalType": "uint256",
          "name": "id",
          "type": "uint256"
        },
        {
          "internalType": "string",
          "name": "denom",
          "type": "string"
        },
        {
          "internalType": "uint256",
          "name": "expirationTime",
          "type": "uint256"
        }
      ],
      "name": "requestPriceData",
      "outputs": [],
      "stateMutability": "nonpayable",
      "type": "function"
    },
    {
      "inputs": [
        {
          "internalType": "uint256",
          "name": "id",
          "type": "uint256"
        }
      ],
      "name": "resetBids",
      "outputs": [],
      "stateMutability": "nonpayable",
      "type": "function"
    },
    {
      "inputs": [
        {
          "internalType": "uint256",
          "name": "id",
          "type": "uint256"
        }
      ],
      "name": "resetOffers",
      "outputs": [],
      "stateMutability": "nonpayable",
      "type": "function"
    },
    {
      "inputs": [
        {
          "internalType": "uint256",
          "name": "id",
          "type": "uint256"
        },
        {
          "internalType": "uint256",
          "name": "duration",
          "type": "uint256"
        }
      ],
      "name": "setBaseExpiration",
      "outputs": [],
      "stateMutability": "nonpayable",
      "type": "function"
    },
    {
      "inputs": [
        {
          "internalType": "uint256",
          "name": "id",
          "type": "uint256"
        },
        {
          "internalType": "uint256",
          "name": "fee",
          "type": "uint256"
        }
      ],
      "name": "setBidResetFee",
      "outputs": [],
      "stateMutability": "nonpayable",
      "type": "function"
    },
    {
      "inputs": [
        {
          "internalType": "address",
          "name": "_newCreator",
          "type": "address"
        }
      ],
      "name": "setCreator",
      "outputs": [],
      "stateMutability": "nonpayable",
      "type": "function"
    },
    {
      "inputs": [
        {
          "internalType": "uint256",
          "name": "id",
          "type": "uint256"
        },
        {
          "internalType": "uint256",
          "name": "factor",
          "type": "uint256"
        }
      ],
      "name": "setExpirationIncreaseFactor",
      "outputs": [],
      "stateMutability": "nonpayable",
      "type": "function"
    },
    {
      "inputs": [
        {
          "internalType": "uint256",
          "name": "id",
          "type": "uint256"
        },
        {
          "internalType": "uint256",
          "name": "period",
          "type": "uint256"
        }
      ],
      "name": "setGracePeriod",
      "outputs": [],
      "stateMutability": "nonpayable",
      "type": "function"
    },
    {
      "inputs": [
        {
          "internalType": "uint256",
          "name": "id",
          "type": "uint256"
        },
        {
          "internalType": "uint256",
          "name": "maxBids",
          "type": "uint256"
        }
      ],
      "name": "setMaxBidsPerUser",
      "outputs": [],
      "stateMutability": "nonpayable",
      "type": "function"
    },
    {
      "inputs": [
        {
          "internalType": "uint256",
          "name": "id",
          "type": "uint256"
        },
        {
          "internalType": "uint256",
          "name": "_minBidAmount",
          "type": "uint256"
        }
      ],
      "name": "setMinBidAmount",
      "outputs": [],
      "stateMutability": "nonpayable",
      "type": "function"
    },
    {
      "inputs": [
        {
          "internalType": "uint256",
          "name": "id",
          "type": "uint256"
        },
        {
          "internalType": "uint256",
          "name": "duration",
          "type": "uint256"
        }
      ],
      "name": "setMinBidDuration",
      "outputs": [],
      "stateMutability": "nonpayable",
      "type": "function"
    },
    {
      "inputs": [
        {
          "internalType": "uint256",
          "name": "id",
          "type": "uint256"
        },
        {
          "internalType": "uint256",
          "name": "duration",
          "type": "uint256"
        }
      ],
      "name": "setMinOfferDuration",
      "outputs": [],
      "stateMutability": "nonpayable",
      "type": "function"
    },
    {
      "inputs": [
        {
          "internalType": "uint256",
          "name": "id",
          "type": "uint256"
        },
        {
          "internalType": "uint256",
          "name": "fee",
          "type": "uint256"
        }
      ],
      "name": "setOfferResetFee",
      "outputs": [],
      "stateMutability": "nonpayable",
      "type": "function"
    },
    {
      "inputs": [
        {
          "internalType": "address",
          "name": "_newOwner",
          "type": "address"
        }
      ],
      "name": "setOwner",
      "outputs": [],
      "stateMutability": "nonpayable",
      "type": "function"
    },
    {
      "inputs": [
        {
          "internalType": "uint256",
          "name": "id",
          "type": "uint256"
        },
        {
          "internalType": "uint256",
          "name": "threshold",
          "type": "uint256"
        }
      ],
      "name": "setStaleBidRemoveThreshold",
      "outputs": [],
      "stateMutability": "nonpayable",
      "type": "function"
    },
    {
      "inputs": [
        {
          "internalType": "uint256",
          "name": "id",
          "type": "uint256"
        },
        {
          "internalType": "uint256",
          "name": "buffer",
          "type": "uint256"
        }
      ],
      "name": "setTimeBuffer",
      "outputs": [],
      "stateMutability": "nonpayable",
      "type": "function"
    },
    {
      "inputs": [
        {
          "internalType": "uint256",
          "name": "id",
          "type": "uint256"
        },
        {
          "internalType": "uint256",
          "name": "amount",
          "type": "uint256"
        }
      ],
      "name": "simpleBid",
      "outputs": [],
      "stateMutability": "payable",
      "type": "function"
    },
    {
      "inputs": [],
      "name": "staleBidRemoveThreshold",
      "outputs": [
        {
          "internalType": "uint256",
          "name": "",
          "type": "uint256"
        }
      ],
      "stateMutability": "view",
      "type": "function"
    },
    {
      "inputs": [
        {
          "internalType": "uint256",
          "name": "id",
          "type": "uint256"
        },
        {
          "internalType": "address",
          "name": "to",
          "type": "address"
        }
      ],
      "name": "transferOption",
      "outputs": [],
      "stateMutability": "nonpayable",
      "type": "function"
    },
    {
      "inputs": [
        {
          "internalType": "address",
          "name": "newOwner",
          "type": "address"
        }
      ],
      "name": "transferOwnership",
      "outputs": [],
      "stateMutability": "nonpayable",
      "type": "function"
    },
    {
      "inputs": [],
      "name": "unpause",
      "outputs": [],
      "stateMutability": "nonpayable",
      "type": "function"
    },
    {
      "inputs": [
        {
          "internalType": "uint256",
          "name": "id",
          "type": "uint256"
        }
      ],
      "name": "updatePrice",
      "outputs": [],
      "stateMutability": "nonpayable",
      "type": "function"
    },
    {
      "inputs": [
        {
          "internalType": "address",
          "name": "",
          "type": "address"
        }
      ],
      "name": "userBidCount",
      "outputs": [
        {
          "internalType": "uint256",
          "name": "",
          "type": "uint256"
        }
      ],
      "stateMutability": "view",
      "type": "function"
    },
    {
      "inputs": [
        {
          "internalType": "address",
          "name": "",
          "type": "address"
        }
      ],
      "name": "userBids",
      "outputs": [
        {
          "internalType": "uint256",
          "name": "",
          "type": "uint256"
        }
      ],
      "stateMutability": "view",
      "type": "function"
    },
    {
      "inputs": [
        {
          "internalType": "uint256",
          "name": "id",
          "type": "uint256"
        }
      ],
      "name": "withdrawBid",
      "outputs": [],
      "stateMutability": "nonpayable",
      "type": "function"
    },
    {
      "inputs": [
        {
          "internalType": "uint256",
          "name": "id",
          "type": "uint256"
        }
      ],
      "name": "withdrawCollateral",
      "outputs": [],
      "stateMutability": "nonpayable",
      "type": "function"
    },
    {
      "inputs": [
        {
          "internalType": "uint256",
          "name": "id",
          "type": "uint256"
        }
      ],
      "name": "withdrawOffer",
      "outputs": [],
      "stateMutability": "nonpayable",
      "type": "function"
    },
    {
      "inputs": [
        {
          "internalType": "uint256",
          "name": "id",
          "type": "uint256"
        },
        {
          "internalType": "uint256",
          "name": "percent",
          "type": "uint256"
        }
      ],
      "name": "withdrawPartialBid",
      "outputs": [],
      "stateMutability": "nonpayable",
      "type": "function"
    },
    {
      "stateMutability": "payable",
      "type": "receive"
    }
  ],
  "bytecode": "0x608060405262030d406028553480156200001857600080fd5b5060006200002e6001600160e01b036200007e16565b600080546001600160a01b0319166001600160a01b0383169081178255604051929350917f8be0079c531659141344cd1fd0a4f28419497f9722a3daafe3b4186f6b6457e0908290a35062000082565b3390565b61c60480620000926000396000f3fe60806040526004361061061b5760003560e01c806381ae634d11610322578063bd62869a116101a5578063e82af8e3116100ec578063f2467bd711610095578063f6b45eb71161006f578063f6b45eb71461180c578063f7c51f3c14611821578063fba225b91461184b5761065c565b8063f2467bd71461178d578063f2fde38b146117b7578063f68016b7146117f75761065c565b8063ebdfbce5116100c6578063ebdfbce5146116ec578063eeea02bf14611732578063ef06e72c146117785761065c565b8063e82af8e31461166e578063e87b2b9014611676578063ead8ccd1146116bc5761065c565b8063dc926afb1161014e578063e2576d4f11610128578063e2576d4f146115f9578063e522600c14611629578063e6ea8d2e146116595761065c565b8063dc926afb1461157b578063de6bf635146115a5578063de91e753146115cf5761065c565b8063c815729d1161017f578063c815729d14611512578063c99e0ffc1461153c578063d987f81e146115515761065c565b8063bd62869a146114a3578063bed40f6f146114b8578063bfaa97e4146114e25761065c565b8063942e15b411610269578063a8896f5011610212578063ab052d4d116101ec578063ab052d4d14611434578063b5bf6b0614611464578063ba7b67031461148e5761065c565b8063a8896f50146113bf578063a964f81f146113ef578063a9c0c401146114045761065c565b8063a1dc29cd11610243578063a1dc29cd1461136b578063a3e6ba9414611380578063a87e49c5146113955761065c565b8063942e15b4146112a25780639d6f563d146112d2578063a06db7dc146113565761065c565b806387ad6f13116102cb5780638da5cb5b116102a55780638da5cb5b146111a25780638f2fa71e146111b757806390de000b1461128d5761065c565b806387ad6f13146110a35780638d2a648d146111485780638d6cc56d146111785761065c565b8063851212d9116102fc578063851212d9146110245780638610f0451461106457806386d65d021461108e5761065c565b806381ae634d14610fd057806383534b9514610ffa5780638456cb591461100f5761065c565b806337fb409c116104aa578063573489a9116103f157806367d6a23f1161039a57806376f361551161037457806376f3615514610f4657806379502c5514610f765780637987feba14610fbb5761065c565b806367d6a23f14610ef2578063715018a614610f1c57806373d4a13a14610f315761065c565b80636112fe2e116103cb5780636112fe2e14610e895780636457bd0414610eb35780636511059514610edd5761065c565b8063573489a914610db25780635c975abb14610ddc5780635dc5eafe14610e055761065c565b806342f3fec611610453578063497517881161042d5780634975178814610d3a5780634c685cc514610d4f578063545b672714610d725761065c565b806342f3fec614610ced57806347f2ce8314610cf55780634905075014610d0a5761065c565b80633f4ba83a116104845780633f4ba83a14610c835780633f51601814610c9857806340e5c7f314610cd85761065c565b806337fb409c14610be35780633b647d0114610c0d5780633f1ffcec14610c3d5761065c565b806313af40351161056e5780632b1fd58a116105175780633024a912116104f15780633024a91214610b565780633271bd6014610b9e578063344ca8b414610bb35761065c565b80632b1fd58a14610ae75780632d6ff84c14610b11578063301bbc2414610b415761065c565b8063218f852e11610548578063218f852e146109aa578063232b956c146109da57806329feef8814610a705761065c565b806313af40351461093257806317a5266c146109725780631a2ef3e0146109875761065c565b80630d5047c7116105d05780630f5eb055116105aa5780630f5eb0551461083e5780631250b5ae1461086857806312a695ac146108ec5761065c565b80630d5047c7146107595780630eaaf4c8146107d65780630ee2cb10146108005761065c565b80630afe2cad116106015780630afe2cad146106c35780630c52f46d146106ff5780630c6de672146107295761065c565b806284ae96146106615780630a98eeb8146106935761065c565b3661065c576040805133815234602082015281517fa419615bc8fda4c87663805ee2a3597a6d71c1d476911d9892f340d965bc7bf1929181900390910190a1005b600080fd5b34801561066d57600080fd5b506106916004803603604081101561068457600080fd5b5080359060200135611868565b005b34801561069f57600080fd5b50610691600480360360408110156106b657600080fd5b5080359060200135611b5c565b3480156106cf57600080fd5b506106ed600480360360208110156106e657600080fd5b5035611c89565b60408051918252519081900360200190f35b34801561070b57600080fd5b506106916004803603602081101561072257600080fd5b5035611c9b565b34801561073557600080fd5b506106916004803603604081101561074c57600080fd5b5080359060200135611d95565b34801561076557600080fd5b506106916004803603602081101561077c57600080fd5b81019060208101813564010000000081111561079757600080fd5b8201836020820111156107a957600080fd5b803590602001918460208302840111640100000000831117156107cb57600080fd5b509092509050611ec2565b3480156107e257600080fd5b50610691600480360360208110156107f957600080fd5b5035611f32565b34801561080c57600080fd5b5061081561217d565b6040805173ffffffffffffffffffffffffffffffffffffffff9092168252519081900360200190f35b34801561084a57600080fd5b506106916004803603602081101561086157600080fd5b503561219a565b34801561087457600080fd5b506106916004803603604081101561088b57600080fd5b813591908101906040810160208201356401000000008111156108ad57600080fd5b8201836020820111156108bf57600080fd5b803590602001918460208302840111640100000000831117156108e157600080fd5b50909250905061222e565b3480156108f857600080fd5b506106916004803603604081101561090f57600080fd5b508035906020013573ffffffffffffffffffffffffffffffffffffffff166127af565b34801561093e57600080fd5b506106916004803603602081101561095557600080fd5b503573ffffffffffffffffffffffffffffffffffffffff16612bab565b34801561097e57600080fd5b506106ed612d1c565b6106916004803603604081101561099d57600080fd5b5080359060200135612d22565b3480156109b657600080fd5b50610691600480360360408110156109cd57600080fd5b5080359060200135612f08565b3480156109e657600080fd5b50610a04600480360360208110156109fd57600080fd5b5035613032565b6040805173ffffffffffffffffffffffffffffffffffffffff808a16825288811660208301528716918101919091526060810185905260808101846002811115610a4a57fe5b60ff16815260200183815260200182815260200197505050505050505060405180910390f35b61069160048036036040811015610a8657600080fd5b81359190810190604081016020820135640100000000811115610aa857600080fd5b820183602082011115610aba57600080fd5b80359060200191846020830284011164010000000083111715610adc57600080fd5b50909250905061308e565b348015610af357600080fd5b5061069160048036036020811015610b0a57600080fd5b50356138fa565b348015610b1d57600080fd5b5061069160048036036040811015610b3457600080fd5b5080359060200135613edc565b348015610b4d57600080fd5b506106ed613f65565b348015610b6257600080fd5b50610b8060048036036020811015610b7957600080fd5b5035613f6b565b60408051938452602084019290925282820152519081900360600190f35b348015610baa57600080fd5b50610691613f8c565b348015610bbf57600080fd5b5061069160048036036040811015610bd657600080fd5b5080359060200135614018565b348015610bef57600080fd5b5061069160048036036020811015610c0657600080fd5b5035614145565b348015610c1957600080fd5b5061069160048036036040811015610c3057600080fd5b5080359060200135614ade565b348015610c4957600080fd5b506106ed60048036036040811015610c6057600080fd5b508035906020013573ffffffffffffffffffffffffffffffffffffffff16614c3c565b348015610c8f57600080fd5b50610691614c59565b348015610ca457600080fd5b5061069160048036036020811015610cbb57600080fd5b503573ffffffffffffffffffffffffffffffffffffffff16614d64565b348015610ce457600080fd5b50610691614e9d565b610691614f0b565b348015610d0157600080fd5b50610691614f31565b348015610d1657600080fd5b5061069160048036036040811015610d2d57600080fd5b5080359060200135614fa1565b348015610d4657600080fd5b506106ed6150ce565b61069160048036036040811015610d6557600080fd5b50803590602001356150d4565b348015610d7e57600080fd5b506106ed60048036036020811015610d9557600080fd5b503573ffffffffffffffffffffffffffffffffffffffff1661596d565b348015610dbe57600080fd5b50610a0460048036036020811015610dd557600080fd5b503561597f565b348015610de857600080fd5b50610df16159dd565b604080519115158252519081900360200190f35b348015610e1157600080fd5b5061069160048036036060811015610e2857600080fd5b81359190810190604081016020820135640100000000811115610e4a57600080fd5b820183602082011115610e5c57600080fd5b80359060200191846001830284011164010000000083111715610e7e57600080fd5b9193509150356159e6565b348015610e9557600080fd5b5061069160048036036020811015610eac57600080fd5b5035615c7b565b348015610ebf57600080fd5b5061069160048036036020811015610ed657600080fd5b5035616173565b348015610ee957600080fd5b5061069161641c565b348015610efe57600080fd5b5061069160048036036020811015610f1557600080fd5b50356164b9565b348015610f2857600080fd5b50610691616716565b348015610f3d57600080fd5b50610a0461682d565b348015610f5257600080fd5b5061069160048036036040811015610f6957600080fd5b508035906020013561686c565b348015610f8257600080fd5b50610f8b616999565b6040805173ffffffffffffffffffffffffffffffffffffffff909316835260208301919091528051918290030190f35b348015610fc757600080fd5b506106ed6169bb565b348015610fdc57600080fd5b5061069160048036036020811015610ff357600080fd5b50356169c1565b34801561100657600080fd5b506106ed616f7a565b34801561101b57600080fd5b50610691616f80565b34801561103057600080fd5b506106ed6004803603602081101561104757600080fd5b503573ffffffffffffffffffffffffffffffffffffffff1661708f565b34801561107057600080fd5b506106916004803603602081101561108757600080fd5b50356170a1565b34801561109a57600080fd5b506106ed617373565b3480156110af57600080fd5b506106ed600480360360a08110156110c657600080fd5b8101906020810181356401000000008111156110e157600080fd5b8201836020820111156110f357600080fd5b8035906020019184602083028401116401000000008311171561111557600080fd5b919350915080359073ffffffffffffffffffffffffffffffffffffffff6020820135169060408101359060600135617379565b34801561115457600080fd5b506106916004803603604081101561116b57600080fd5b5080359060200135617478565b34801561118457600080fd5b506106916004803603602081101561119b57600080fd5b50356174fc565b3480156111ae57600080fd5b506108156176d1565b3480156111c357600080fd5b50610691600480360360608110156111da57600080fd5b813591908101906040810160208201356401000000008111156111fc57600080fd5b82018360208201111561120e57600080fd5b8035906020019184602083028401116401000000008311171561123057600080fd5b91939092909160208101903564010000000081111561124e57600080fd5b82018360208201111561126057600080fd5b8035906020019184602083028401116401000000008311171561128257600080fd5b5090925090506176ed565b34801561129957600080fd5b506106ed617cca565b3480156112ae57600080fd5b50610691600480360360408110156112c557600080fd5b5080359060200135617cd0565b3480156112de57600080fd5b50610691600480360360408110156112f557600080fd5b8135919081019060408101602082013564010000000081111561131757600080fd5b82018360208201111561132957600080fd5b8035906020019184602083028401116401000000008311171561134b57600080fd5b509092509050617dfd565b34801561136257600080fd5b506106ed61843a565b34801561137757600080fd5b506106ed618440565b34801561138c57600080fd5b506106ed618446565b3480156113a157600080fd5b50610691600480360360208110156113b857600080fd5b503561844c565b3480156113cb57600080fd5b50610815600480360360408110156113e257600080fd5b50803590602001356186a2565b3480156113fb57600080fd5b506108156186d5565b34801561141057600080fd5b506106916004803603604081101561142757600080fd5b50803590602001356186f6565b34801561144057600080fd5b506106916004803603604081101561145757600080fd5b50803590602001356188c4565b34801561147057600080fd5b506106916004803603602081101561148757600080fd5b5035618aff565b34801561149a57600080fd5b506106ed618b2f565b3480156114af57600080fd5b506106ed618b35565b3480156114c457600080fd5b506106ed600480360360208110156114db57600080fd5b5035618b3b565b3480156114ee57600080fd5b506106916004803603604081101561150557600080fd5b5080359060200135618b4d565b34801561151e57600080fd5b506106916004803603602081101561153557600080fd5b5035618db6565b34801561154857600080fd5b506106ed619394565b34801561155d57600080fd5b506106916004803603602081101561157457600080fd5b503561939a565b34801561158757600080fd5b506106916004803603602081101561159e57600080fd5b50356195f7565b3480156115b157600080fd5b50610691600480360360208110156115c857600080fd5b5035619cc9565b3480156115db57600080fd5b50610691600480360360208110156115f257600080fd5b503561a025565b34801561160557600080fd5b506106916004803603604081101561161c57600080fd5b508035906020013561a0a4565b34801561163557600080fd5b506106916004803603604081101561164c57600080fd5b508035906020013561a1d1565b34801561166557600080fd5b506106ed61a2fe565b61069161a304565b34801561168257600080fd5b50610a046004803603604081101561169957600080fd5b5073ffffffffffffffffffffffffffffffffffffffff813516906020013561a373565b3480156116c857600080fd5b50610815600480360360408110156116df57600080fd5b508035906020013561a3d8565b3480156116f857600080fd5b506106ed6004803603604081101561170f57600080fd5b508035906020013573ffffffffffffffffffffffffffffffffffffffff1661a40b565b34801561173e57600080fd5b50610a046004803603604081101561175557600080fd5b5073ffffffffffffffffffffffffffffffffffffffff813516906020013561a428565b34801561178457600080fd5b5061081561a48e565b34801561179957600080fd5b50610691600480360360208110156117b057600080fd5b503561a4aa565b3480156117c357600080fd5b50610691600480360360208110156117da57600080fd5b503573ffffffffffffffffffffffffffffffffffffffff1661a676565b34801561180357600080fd5b506106ed61a817565b34801561181857600080fd5b506106ed61a81d565b34801561182d57600080fd5b506106916004803603602081101561184457600080fd5b503561a823565b6106916004803603602081101561186157600080fd5b503561a8d4565b601c54600083815260016020526040902060070154839161188f919063ffffffff61b08b16565b42106118fc57604080517f08c379a000000000000000000000000000000000000000000000000000000000815260206004820152601060248201527f416374697665206269642f6f6666657200000000000000000000000000000000604482015290519081900360640190fd5b600083815260066020908152604080832033845290915290205461198157604080517f08c379a000000000000000000000000000000000000000000000000000000000815260206004820152601860248201527f4e6f2076616c69642062696420746f2077697468647261770000000000000000604482015290519081900360640190fd5b600082118015611992575060648211155b6119fd57604080517f08c379a000000000000000000000000000000000000000000000000000000000815260206004820152601260248201527f496e76616c69642070657263656e746167650000000000000000000000000000604482015290519081900360640190fd5b600083815260066020908152604080832033845290915281205490611a396064611a2d848763ffffffff61b10816565b9063ffffffff61b17b16565b601e54909150611a4f838363ffffffff61b1fc16565b1015611abc57604080517f08c379a000000000000000000000000000000000000000000000000000000000815260206004820152601b60248201527f52656d61696e696e67206269642062656c6f77206d696e696d756d0000000000604482015290519081900360640190fd5b33600090815260096020526040902054611adc908263ffffffff61b1fc16565b33600081815260096020526040808220939093559151909183156108fc02918491818181858888f19350505050158015611b1a573d6000803e3d6000fd5b506040805186815260208101839052815133927fd27c611a7685444d3c695d592cc9cc0c35e45402f9188162427685f68a090991928290030190a25050505050565b60008281526001602081905260409091200154829073ffffffffffffffffffffffffffffffffffffffff163314611bde576040517f08c379a000000000000000000000000000000000000000000000000000000000815260040180806020018281038252603681526020018061c3746036913960400191505060405180910390fd5b600083815260016020526040902060070154428111611c48576040517f08c379a000000000000000000000000000000000000000000000000000000000815260040180806020018281038252603a81526020018061c27b603a913960400191505060405180910390fd5b602383905560408051848152905185917fc7f388abb2270b17eb176e822b294649a0309ac03d013b680c7d4a20c185e67d919081900360200190a250505050565b600a6020526000908152604090205481565b60008181526001602052604090206007015481904210611d1c57604080517f08c379a000000000000000000000000000000000000000000000000000000000815260206004820152600e60248201527f4f7074696f6e2065787069726564000000000000000000000000000000000000604482015290519081900360640190fd5b6000611d278361b273565b90506000611d348461b322565b9050600080831180611d465750600082115b9050847f96b57ff66beeac6e8fd6b33b23f7d11be509931d1cd059f04036989848c6efe682611d76576000611d79565b60015b6040805160ff9092168252519081900360200190a25050505050565b60008281526001602081905260409091200154829073ffffffffffffffffffffffffffffffffffffffff163314611e17576040517f08c379a000000000000000000000000000000000000000000000000000000000815260040180806020018281038252603681526020018061c3746036913960400191505060405180910390fd5b600083815260016020526040902060070154428111611e81576040517f08c379a000000000000000000000000000000000000000000000000000000000815260040180806020018281038252603a81526020018061c27b603a913960400191505060405180910390fd5b602183905560408051848152905185917fbe95b51fb29523640d8d589c9eba58d8b9b3100df6b28caeb5549273622dbb1f919081900360200190a250505050565b80611f2e57604080517f08c379a000000000000000000000000000000000000000000000000000000000815260206004820152600d60248201527f496e76616c696420617272617900000000000000000000000000000000000000604482015290519081900360640190fd5b5050565b601c546000828152600160205260409020600701548291611f59919063ffffffff61b08b16565b4210611fc657604080517f08c379a000000000000000000000000000000000000000000000000000000000815260206004820152601060248201527f416374697665206269642f6f6666657200000000000000000000000000000000604482015290519081900360640190fd5b600082815260066020908152604080832033845290915290205461204b57604080517f08c379a000000000000000000000000000000000000000000000000000000000815260206004820152601860248201527f4e6f2076616c69642062696420746f2077697468647261770000000000000000604482015290519081900360640190fd5b600082815260066020908152604080832033845290915290205461206e8361b3ca565b81106120db57604080517f08c379a000000000000000000000000000000000000000000000000000000000815260206004820152601b60248201527f43616e6e6f742077697468647261772068696768657374206269640000000000604482015290519081900360640190fd5b600083815260066020908152604080832033808552925280832083905551909183156108fc02918491818181858888f19350505050158015612121573d6000803e3d6000fd5b506000838152600660209081526040808320338085529083529281902054815193845291830191909152805185927f8f8619524e8d462cead34604bd2247ede24175801481e4d0b8059ac8aa41c30192908290030190a2505050565b600e5473ffffffffffffffffffffffffffffffffffffffff165b90565b601c546000828152600160205260409020600701546121be9163ffffffff61b08b16565b421061222b57604080517f08c379a000000000000000000000000000000000000000000000000000000000815260206004820152601060248201527f416374697665206269642f6f6666657200000000000000000000000000000000604482015290519081900360640190fd5b50565b60008381526001602081905260409091200154839073ffffffffffffffffffffffffffffffffffffffff1633146122b0576040517f08c379a000000000000000000000000000000000000000000000000000000000815260040180806020018281038252603681526020018061c3746036913960400191505060405180910390fd5b60008481526001602052604090206007015442811161231a576040517f08c379a000000000000000000000000000000000000000000000000000000000815260040180806020018281038252603a81526020018061c27b603a913960400191505060405180910390fd5b84600160008281526001602052604090206005015460ff16600281111561233d57fe5b14156123aa57604080517f08c379a000000000000000000000000000000000000000000000000000000000815260206004820152601160248201527f4f7074696f6e206973206f6e2073616c65000000000000000000000000000000604482015290519081900360640190fd5b6000868152600160205260409020600701548690421061242b57604080517f08c379a000000000000000000000000000000000000000000000000000000000815260206004820152600e60248201527f4f7074696f6e2065787069726564000000000000000000000000000000000000604482015290519081900360640190fd5b858580806020026020016040519081016040528093929190818152602001838360200280828437600092019190915250508251151591506124b99050576040517f08c379a000000000000000000000000000000000000000000000000000000000815260040180806020018281038252602481526020018061c2316024913960400191505060405180910390fd5b62030d405a1161252a57604080517f08c379a000000000000000000000000000000000000000000000000000000000815260206004820152601260248201527f476173206c696d69742065786365656465640000000000000000000000000000604482015290519081900360640190fd5b60008881526001602081905260409091206005810180547fffffffffffffffffffffffffffffffffffffffffffffffffffffffffffffff001690921790915561257790600601888861c03e565b5060608667ffffffffffffffff8111801561259157600080fd5b506040519080825280602002602001820160405280156125bb578160200160208202803683370190505b50905060005b878110156125fb578888828181106125d557fe5b905060200201358282815181106125e857fe5b60209081029190910101526001016125c1565b5060008981526001602081815260408084206004928390529320835481547fffffffffffffffffffffffff000000000000000000000000000000000000000090811673ffffffffffffffffffffffffffffffffffffffff928316178355858501549483018054821695831695909517909455600280860154908301805490951691161790925560038084015490830155808301805461269d928401919061c089565b50600582810154908201805460ff909216917fffffffffffffffffffffffffffffffffffffffffffffffffffffffffffffff001660018360028111156126df57fe5b0217905550600682810180546126f8928401919061c089565b5060078201548160070155600882015481600801559050503373ffffffffffffffffffffffffffffffffffffffff167f9d4b6dff4c87b3afacb569dc9e0e4d482bbc9d40b0f7ef1a71c79339db3c70ff8a836040518083815260200180602001828103825283818151815260200191508051906020019060200280838360005b83811015612790578181015183820152602001612778565b50505050905001935050505060405180910390a2505050505050505050565b60008281526001602081905260409091200154829073ffffffffffffffffffffffffffffffffffffffff163314612831576040517f08c379a000000000000000000000000000000000000000000000000000000000815260040180806020018281038252603681526020018061c3746036913960400191505060405180910390fd5b60008381526001602052604090206007015442811161289b576040517f08c379a000000000000000000000000000000000000000000000000000000000815260040180806020018281038252603a81526020018061c27b603a913960400191505060405180910390fd5b8273ffffffffffffffffffffffffffffffffffffffff8116612908576040517f08c379a000000000000000000000000000000000000000000000000000000000815260040180806020018281038252602781526020018061c2b56027913960400191505060405180910390fd5b62030d405a1161297957604080517f08c379a000000000000000000000000000000000000000000000000000000000815260206004820152601260248201527f476173206c696d69742065786365656465640000000000000000000000000000604482015290519081900360640190fd5b336000908152600360208181526040808420898552909152822080547fffffffffffffffffffffffff00000000000000000000000000000000000000009081168255600182018054821690556002820180549091169055908101829055906129e4600483018261c0c9565b6005820180547fffffffffffffffffffffffffffffffffffffffffffffffffffffffffffffff00169055612a1c60068301600061c0c9565b506000600782018190556008909101819055858152600160208181526040808420808401805473ffffffffffffffffffffffffffffffffffffffff808c167fffffffffffffffffffffffff000000000000000000000000000000000000000092831681178455885260038087528589208e8a5290965293909620825481548816908516178155905494810180548716958416959095179094556002808201549085018054909616921691909117909355808301549082015560048083018054612ae8928401919061c089565b50600582810154908201805460ff909216917fffffffffffffffffffffffffffffffffffffffffffffffffffffffffffffff00166001836002811115612b2a57fe5b021790555060068281018054612b43928401919061c089565b506007828101549082015560089182015491015560408051868152905173ffffffffffffffffffffffffffffffffffffffff86169133917ff100b72ed4933b86cb6f8d98d405daf19f120fadc2edf1111c04b557bf30ef609181900360200190a35050505050565b612bb361b473565b73ffffffffffffffffffffffffffffffffffffffff16612bd16176d1565b73ffffffffffffffffffffffffffffffffffffffff1614612c5357604080517f08c379a000000000000000000000000000000000000000000000000000000000815260206004820181905260248201527f4f776e61626c653a2063616c6c6572206973206e6f7420746865206f776e6572604482015290519081900360640190fd5b73ffffffffffffffffffffffffffffffffffffffff8116612cd557604080517f08c379a000000000000000000000000000000000000000000000000000000000815260206004820152601560248201527f496e76616c6964206f776e657220616464726573730000000000000000000000604482015290519081900360640190fd5b601180547fffffffffffffffffffffffff00000000000000000000000000000000000000001673ffffffffffffffffffffffffffffffffffffffff92909216919091179055565b600f5490565b8060008111612d7c576040517f08c379a000000000000000000000000000000000000000000000000000000000815260040180806020018281038252603081526020018061c4ad6030913960400191505060405180910390fd5b600083815260016020526040902060070154428111612de6576040517f08c379a000000000000000000000000000000000000000000000000000000000815260040180806020018281038252603a81526020018061c27b603a913960400191505060405180910390fd5b60008481526001602052604090206007015484904210612e6757604080517f08c379a000000000000000000000000000000000000000000000000000000000815260206004820152600e60248201527f4f7074696f6e2065787069726564000000000000000000000000000000000000604482015290519081900360640190fd5b6000858152600160208190526040909120015473ffffffffffffffffffffffffffffffffffffffff16331415612ee8576040517f08c379a000000000000000000000000000000000000000000000000000000000815260040180806020018281038252602481526020018061c4896024913960400191505060405180910390fd5b505050600091825260066020908152604080842033855290915290912055565b60008281526001602081905260409091200154829073ffffffffffffffffffffffffffffffffffffffff163314612f8a576040517f08c379a000000000000000000000000000000000000000000000000000000000815260040180806020018281038252603681526020018061c3746036913960400191505060405180910390fd5b600083815260016020526040902060070154428111612ff4576040517f08c379a000000000000000000000000000000000000000000000000000000000815260040180806020018281038252603a81526020018061c27b603a913960400191505060405180910390fd5b602083815560408051858152905186927fd426195495073ec4a9d9805a3fa80f425c189f701de7c9426266b8c965acce31928290030190a250505050565b600460205260009081526040902080546001820154600283015460038401546005850154600786015460089096015473ffffffffffffffffffffffffffffffffffffffff958616969486169590931693919260ff909116919087565b6000838152600160208190526040909120015473ffffffffffffffffffffffffffffffffffffffff168061310d576040517f08c379a000000000000000000000000000000000000000000000000000000000815260040180806020018281038252602781526020018061c2b56027913960400191505060405180910390fd5b600084815260016020526040902060070154428111613177576040517f08c379a000000000000000000000000000000000000000000000000000000000815260040180806020018281038252603a81526020018061c27b603a913960400191505060405180910390fd5b600085815260016020526040902060070154859042106131f857604080517f08c379a000000000000000000000000000000000000000000000000000000000815260206004820152600e60248201527f4f7074696f6e2065787069726564000000000000000000000000000000000000604482015290519081900360640190fd5b8484600081811061320557fe5b9050602002013560008111613265576040517f08c379a000000000000000000000000000000000000000000000000000000000815260040180806020018281038252603081526020018061c4ad6030913960400191505060405180910390fd5b600087815260016020526040902060070154879042106132e657604080517f08c379a000000000000000000000000000000000000000000000000000000000815260206004820152600f60248201527f5374616c65206269642f6f666665720000000000000000000000000000000000604482015290519081900360640190fd5b868660018181106132f357fe5b9050602002013560008111613353576040517f08c379a000000000000000000000000000000000000000000000000000000000815260040180806020018281038252603e81526020018061c411603e913960400191505060405180910390fd5b8787600281811061336057fe5b90506020020135600560008b81526020019081526020016000206002015460008211801561338e5750808211155b6133e3576040517f08c379a000000000000000000000000000000000000000000000000000000000815260040180806020018281038252605481526020018061c3206054913960600191505060405180910390fd5b62030d405a1161345457604080517f08c379a000000000000000000000000000000000000000000000000000000000815260206004820152601260248201527f476173206c696d69742065786365656465640000000000000000000000000000604482015290519081900360640190fd5b60008b81526001602052604081206005015460ff16600281111561347457fe5b146134e057604080517f08c379a000000000000000000000000000000000000000000000000000000000815260206004820152601b60248201527f4f7074696f6e206e6f7420696e20637265617465642073746174650000000000604482015290519081900360640190fd5b60008b81526006602090815260408083203384529091529020541561356657604080517f08c379a000000000000000000000000000000000000000000000000000000000815260206004820152601e60248201527f596f7520616c7265616479206861766520616e20616374697665206269640000604482015290519081900360640190fd5b602354336000908152600b6020526040902054106135e557604080517f08c379a000000000000000000000000000000000000000000000000000000000815260206004820152601e60248201527f4d6178696d756d206e756d626572206f66206269647320726561636865640000604482015290519081900360640190fd5b60006136208b8b60018181106135f757fe5b905060200201358c8c600081811061360b57fe5b9050602002013561b08b90919063ffffffff16565b60008d8152600a602052604090205490915081111561368a576040517f08c379a000000000000000000000000000000000000000000000000000000000815260040180806020018281038252602681526020018061c5566026913960400191505060405180910390fd5b60008c81526001602090815260408083206002015481517f23b872dd00000000000000000000000000000000000000000000000000000000815233600482015230602482015260448101869052915173ffffffffffffffffffffffffffffffffffffffff909116936323b872dd93606480850194919392918390030190829087803b15801561371857600080fd5b505af115801561372c573d6000803e3d6000fd5b505050506040513d602081101561374257600080fd5b5051613799576040517f08c379a000000000000000000000000000000000000000000000000000000000815260040180806020018281038252602981526020018061c4dd6029913960400191505060405180910390fd5b60008c81526006602090815260408083203384528252808320849055600b8252808320805460010190558e83526004918290529091206137db91018c8c61c03e565b5060008c8152600c6020526040812033918d8d60038181106137f957fe5b90506020020135815260200190815260200160002060006101000a81548173ffffffffffffffffffffffffffffffffffffffff021916908373ffffffffffffffffffffffffffffffffffffffff1602179055503373ffffffffffffffffffffffffffffffffffffffff167f31f9a3ccd05dd54b3523cba1ae416ccf9842696d7295f62824dfacab1a957bf78d8d8d60405180848152602001806020018281038252848482818152602001925060200280828437600083820152604051601f9091017fffffffffffffffffffffffffffffffffffffffffffffffffffffffffffffffe016909201829003965090945050505050a2505050505050505050505050565b60008181526001602081905260409091200154819073ffffffffffffffffffffffffffffffffffffffff16331461397c576040517f08c379a000000000000000000000000000000000000000000000000000000000815260040180806020018281038252603681526020018061c3746036913960400191505060405180910390fd5b600082815260016020526040902060070154829042106139fd57604080517f08c379a000000000000000000000000000000000000000000000000000000000815260206004820152600e60248201527f4f7074696f6e2065787069726564000000000000000000000000000000000000604482015290519081900360640190fd5b600160008481526001602052604090206005015460ff166002811115613a1f57fe5b14613a8b57604080517f08c379a000000000000000000000000000000000000000000000000000000000815260206004820152601560248201527f4f7074696f6e206973206e6f74206f6e2073616c650000000000000000000000604482015290519081900360640190fd5b600080805b600086815260016020526040902060060154811015613b37576000868152600c6020908152604080832060019092528220600601805483919085908110613ad357fe5b600091825260208083209091015483528281019390935260409182018120548a82526006845282822073ffffffffffffffffffffffffffffffffffffffff9091168083529352205490915083811115613b2d578093508194505b5050600101613a90565b5060008111613ba757604080517f08c379a000000000000000000000000000000000000000000000000000000000815260206004820152600d60248201527f4e6f2076616c6964206269647300000000000000000000000000000000000000604482015290519081900360640190fd5b80613bb2868461b477565b1015613c1f57604080517f08c379a000000000000000000000000000000000000000000000000000000000815260206004820152601660248201527f4269646465722062616c616e636520746f6f206c6f7700000000000000000000604482015290519081900360640190fd5b6000858152600160209081526040808320600281015460039091015482517fa9059cbb0000000000000000000000000000000000000000000000000000000081523360048201526024810191909152915173ffffffffffffffffffffffffffffffffffffffff9091169363a9059cbb93604480850194919392918390030190829087803b158015613caf57600080fd5b505af1158015613cc3573d6000803e3d6000fd5b505050506040513d6020811015613cd957600080fd5b50506000858152600160208181526040808420600281015493015481517fa9059cbb00000000000000000000000000000000000000000000000000000000815273ffffffffffffffffffffffffffffffffffffffff918216600482015260248101879052915193169363a9059cbb93604480840194939192918390030190829087803b158015613d6857600080fd5b505af1158015613d7c573d6000803e3d6000fd5b505050506040513d6020811015613d9257600080fd5b50600090505b600086815260016020526040902060060154811015613e2d576000868152600c6020908152604080832060019092528220600601805483919085908110613ddb57fe5b600091825260208083209091015483528281019390935260409182018120548a82526006845282822073ffffffffffffffffffffffffffffffffffffffff909116825290925281205550600101613d98565b5060008581526001602052604081206005810180547fffffffffffffffffffffffffffffffffffffffffffffffffffffffffffffff00169055613e759160069091019061c0c9565b60008581526001602052604090206003015433907f23ad4783d95ee2d3730fae4843757e102bd28a58ef48e2c6f8fe93aef120f5fb908790613ebd908563ffffffff61b08b16565b6040805192835260208301919091528051918290030190a25050505050565b60008281526001602081905260409091200154829073ffffffffffffffffffffffffffffffffffffffff163314613f5e576040517f08c379a000000000000000000000000000000000000000000000000000000000815260040180806020018281038252603681526020018061c3746036913960400191505060405180910390fd5b50601e5550565b60225481565b60056020526000908152604090208054600182015460029092015490919083565b6001805b620186a08111613fa65790810290600101613f90565b50620186a05a1161222b57604080517f08c379a000000000000000000000000000000000000000000000000000000000815260206004820152601260248201527f476173206c696d69742065786365656465640000000000000000000000000000604482015290519081900360640190fd5b60008281526001602081905260409091200154829073ffffffffffffffffffffffffffffffffffffffff16331461409a576040517f08c379a000000000000000000000000000000000000000000000000000000000815260040180806020018281038252603681526020018061c3746036913960400191505060405180910390fd5b600083815260016020526040902060070154428111614104576040517f08c379a000000000000000000000000000000000000000000000000000000000815260040180806020018281038252603a81526020018061c27b603a913960400191505060405180910390fd5b601d83905560408051848152905185917fe16a6dd3c7a1a4a15a5d0e545e58617ec3b966456c5b63c9b2615cd01d677438919081900360200190a250505050565b6000818152600160205260409020600701544281116141af576040517f08c379a000000000000000000000000000000000000000000000000000000000815260040180806020018281038252603a81526020018061c27b603a913960400191505060405180910390fd5b6000828152600160205260409020600701548290421061423057604080517f08c379a000000000000000000000000000000000000000000000000000000000815260206004820152600e60248201527f4f7074696f6e2065787069726564000000000000000000000000000000000000604482015290519081900360640190fd5b600083815260016020526040902060070154839042106142b157604080517f08c379a000000000000000000000000000000000000000000000000000000000815260206004820152600f60248201527f5374616c65206269642f6f666665720000000000000000000000000000000000604482015290519081900360640190fd5b62030d405a1161432257604080517f08c379a000000000000000000000000000000000000000000000000000000000815260206004820152601260248201527f476173206c696d69742065786365656465640000000000000000000000000000604482015290519081900360640190fd5b600160008581526001602052604090206005015460ff16600281111561434457fe5b146143b057604080517f08c379a000000000000000000000000000000000000000000000000000000000815260206004820152601260248201527f4f7074696f6e206e6f74206f6e2073616c650000000000000000000000000000604482015290519081900360640190fd5b60006026541161442157604080517f08c379a000000000000000000000000000000000000000000000000000000000815260206004820152601a60248201527f4c6174657374207072696365206e6f7420617661696c61626c65000000000000604482015290519081900360640190fd5b600080805b600087815260016020526040902060060154811015614485576000878152600160205260409020600601805461447b91908390811061446157fe5b90600052602060002001548461b08b90919063ffffffff16565b9250600101614426565b5060005b6000878152600160205260409020600401548110156145085760008781526001602052604090206008810154600490910180546144fe926144f1929091611a2d9190869081106144d557fe5b906000526020600020015460265461b10890919063ffffffff16565b839063ffffffff61b08b16565b9150600101614489565b508181101561457857604080517f08c379a000000000000000000000000000000000000000000000000000000000815260206004820152601860248201527f4f7074696f6e206973206e6f742070726f66697461626c650000000000000000604482015290519081900360640190fd5b600086815260016020818152604080842060028101549381015460039091015482517fa9059cbb00000000000000000000000000000000000000000000000000000000815273ffffffffffffffffffffffffffffffffffffffff92831660048201526024810191909152915193169363a9059cbb93604480840194939192918390030190829087803b15801561460d57600080fd5b505af1158015614621573d6000803e3d6000fd5b505050506040513d602081101561463757600080fd5b505161468e576040517f08c379a000000000000000000000000000000000000000000000000000000000815260040180806020018281038252602381526020018061c2fd6023913960400191505060405180910390fd5b600086815260016020818152604080842060028101549054600584528286209094015482517fa9059cbb00000000000000000000000000000000000000000000000000000000815273ffffffffffffffffffffffffffffffffffffffff95861660048201526024810191909152915193169363a9059cbb93604480840194939192918390030190829087803b15801561472657600080fd5b505af115801561473a573d6000803e3d6000fd5b505050506040513d602081101561475057600080fd5b50516147bd57604080517f08c379a000000000000000000000000000000000000000000000000000000000815260206004820152601a60248201527f4661696c656420746f207472616e73666572207072656d69756d000000000000604482015290519081900360640190fd5b3360009081526003602081815260408084208a8552909152822080547fffffffffffffffffffffffff0000000000000000000000000000000000000000908116825560018201805482169055600282018054909116905590810182905590614828600483018261c0c9565b6005820180547fffffffffffffffffffffffffffffffffffffffffffffffffffffffffffffff0016905561486060068301600061c0c9565b5060006007820181905560089091018190553381526002602081815260408084208a8552909152822080547fffffffffffffffffffffffff0000000000000000000000000000000000000000908116825560018201805482169055918101805490921690915560038101829055906148db600483018261c0c9565b6005820180547fffffffffffffffffffffffffffffffffffffffffffffffffffffffffffffff0016905561491360068301600061c0c9565b506000600782018190556008909101819055868152600160208190526040822080547fffffffffffffffffffffffff000000000000000000000000000000000000000090811682559181018054831690556002810180549092169091556003810182905590614985600483018261c0c9565b6005820180547fffffffffffffffffffffffffffffffffffffffffffffffffffffffffffffff001690556149bd60068301600061c0c9565b5060006007820181905560089091018190558681526005602090815260408083208381556001808201859055600291820185905560049384905291842080547fffffffffffffffffffffffff000000000000000000000000000000000000000090811682559281018054841690559081018054909216909155600381018390559190614a4b9083018261c0c9565b6005820180547fffffffffffffffffffffffffffffffffffffffffffffffffffffffffffffff00169055614a8360068301600061c0c9565b506000600782018190556008909101556040805187815260208101839052808201849052905133917f72fc7139226e4349b3cf7baa2fd3aca128897923fea219a0d0d13ccec626f831919081900360600190a2505050505050565b60008281526001602081905260409091200154829073ffffffffffffffffffffffffffffffffffffffff163314614b60576040517f08c379a000000000000000000000000000000000000000000000000000000000815260040180806020018281038252603681526020018061c3746036913960400191505060405180910390fd5b600083815260016020526040902060070154428111614bca576040517f08c379a000000000000000000000000000000000000000000000000000000000815260040180806020018281038252603a81526020018061c27b603a913960400191505060405180910390fd5b600084815260016020526040902060070154614bec908463ffffffff61b08b16565b600085815260016020908152604091829020600701929092558051858152905186927f73693f148afc35383d1bc2d56ef315dfc19a9b9643aa2f3c1b5924cbab1ad08e928290030190a250505050565b600660209081526000928352604080842090915290825290205481565b600e5473ffffffffffffffffffffffffffffffffffffffff163314614cc9576040517f08c379a000000000000000000000000000000000000000000000000000000000815260040180806020018281038252603181526020018061c59e6031913960400191505060405180910390fd5b60295460ff16614d3a57604080517f08c379a000000000000000000000000000000000000000000000000000000000815260206004820152601660248201527f436f6e7472616374206973206e6f742070617573656400000000000000000000604482015290519081900360640190fd5b602980547fffffffffffffffffffffffffffffffffffffffffffffffffffffffffffffff00169055565b600e5473ffffffffffffffffffffffffffffffffffffffff163314614dd4576040517f08c379a000000000000000000000000000000000000000000000000000000000815260040180806020018281038252603181526020018061c59e6031913960400191505060405180910390fd5b73ffffffffffffffffffffffffffffffffffffffff8116614e5657604080517f08c379a000000000000000000000000000000000000000000000000000000000815260206004820152601760248201527f496e76616c69642063726561746f722061646472657373000000000000000000604482015290519081900360640190fd5b601080547fffffffffffffffffffffffff00000000000000000000000000000000000000001673ffffffffffffffffffffffffffffffffffffffff92909216919091179055565b33614f0957604080517f08c379a000000000000000000000000000000000000000000000000000000000815260206004820152600f60248201527f496e76616c696420616464726573730000000000000000000000000000000000604482015290519081900360640190fd5b565b7fffffffffffffffffffffffffffffffffffffffffffffffffffffffffffffffff61222b565b600e5473ffffffffffffffffffffffffffffffffffffffff163314614f09576040517f08c379a000000000000000000000000000000000000000000000000000000000815260040180806020018281038252603181526020018061c59e6031913960400191505060405180910390fd5b60008281526001602081905260409091200154829073ffffffffffffffffffffffffffffffffffffffff163314615023576040517f08c379a000000000000000000000000000000000000000000000000000000000815260040180806020018281038252603681526020018061c3746036913960400191505060405180910390fd5b60008381526001602052604090206007015442811161508d576040517f08c379a000000000000000000000000000000000000000000000000000000000815260040180806020018281038252603a81526020018061c27b603a913960400191505060405180910390fd5b602583905560408051848152905185917f739c545831ee1c004c8dc63dd2a25d90c684b3ad9b4e2b2a913d086cd8f95dde919081900360200190a250505050565b601e5481565b346000811161512e576040517f08c379a000000000000000000000000000000000000000000000000000000000815260040180806020018281038252603081526020018061c4ad6030913960400191505060405180910390fd5b600083815260016020526040902060070154428111615198576040517f08c379a000000000000000000000000000000000000000000000000000000000815260040180806020018281038252603a81526020018061c27b603a913960400191505060405180910390fd5b62030d405a1161520957604080517f08c379a000000000000000000000000000000000000000000000000000000000815260206004820152601260248201527f476173206c696d69742065786365656465640000000000000000000000000000604482015290519081900360640190fd5b6000848152600160205260409020600701548490421061528a57604080517f08c379a000000000000000000000000000000000000000000000000000000000815260206004820152600e60248201527f4f7074696f6e2065787069726564000000000000000000000000000000000000604482015290519081900360640190fd5b600085815260056020526040902060020154849081158015906152ad5750808211155b615302576040517f08c379a000000000000000000000000000000000000000000000000000000000815260040180806020018281038252605481526020018061c3206054913960600191505060405180910390fd5b60008781526005602052604090206002015460265461532c9190611a2d908963ffffffff61b10816565b341461539957604080517f08c379a000000000000000000000000000000000000000000000000000000000815260206004820152600e60248201527f5072696365206d69736d61746368000000000000000000000000000000000000604482015290519081900360640190fd5b6000805b6000898152600160205260409020600601548110156153fc57600089815260016020526040902060060180546153f29190839081106153d857fe5b90600052602060002001548361b08b90919063ffffffff16565b915060010161539d565b5080341461546b57604080517f08c379a000000000000000000000000000000000000000000000000000000000815260206004820152601860248201527f496e636f7272656374207061796d656e7420616d6f756e740000000000000000604482015290519081900360640190fd5b600088815260016020818152604080842060028101549381015460039091015482517fa9059cbb00000000000000000000000000000000000000000000000000000000815273ffffffffffffffffffffffffffffffffffffffff92831660048201526024810191909152915193169363a9059cbb93604480840194939192918390030190829087803b15801561550057600080fd5b505af1158015615514573d6000803e3d6000fd5b505050506040513d602081101561552a57600080fd5b5051615581576040517f08c379a000000000000000000000000000000000000000000000000000000000815260040180806020018281038252602381526020018061c2fd6023913960400191505060405180910390fd5b600088815260016020818152604080842060028101549054600584528286209094015482517fa9059cbb00000000000000000000000000000000000000000000000000000000815273ffffffffffffffffffffffffffffffffffffffff95861660048201526024810191909152915193169363a9059cbb93604480840194939192918390030190829087803b15801561561957600080fd5b505af115801561562d573d6000803e3d6000fd5b505050506040513d602081101561564357600080fd5b50516156b057604080517f08c379a000000000000000000000000000000000000000000000000000000000815260206004820152601a60248201527f4661696c656420746f207472616e73666572207072656d69756d000000000000604482015290519081900360640190fd5b3360009081526003602081815260408084208c8552909152822080547fffffffffffffffffffffffff000000000000000000000000000000000000000090811682556001820180548216905560028201805490911690559081018290559061571b600483018261c0c9565b6005820180547fffffffffffffffffffffffffffffffffffffffffffffffffffffffffffffff0016905561575360068301600061c0c9565b50600060078201819055600890910181905588815260016020818152604080842033855260038084528286208e87529093529320835481547fffffffffffffffffffffffff000000000000000000000000000000000000000090811673ffffffffffffffffffffffffffffffffffffffff928316178355858501549483018054821695831695909517909455600280860154908301805490951691161790925580830154908201556004808301805461580f928401919061c089565b50600582810154908201805460ff909216917fffffffffffffffffffffffffffffffffffffffffffffffffffffffffffffff0016600183600281111561585157fe5b02179055506006828101805461586a928401919061c089565b5060078281015490820155600891820154910155600088815260016020819052604090912090810180547fffffffffffffffffffffffff0000000000000000000000000000000000000000163317905560050180547fffffffffffffffffffffffffffffffffffffffffffffffffffffffffffffff001690553481101561592957336108fc6158ff348463ffffffff61b1fc16565b6040518115909202916000818181858888f19350505050158015615927573d6000803e3d6000fd5b505b6040805189815260208101839052815133927f23ad4783d95ee2d3730fae4843757e102bd28a58ef48e2c6f8fe93aef120f5fb928290030190a25050505050505050565b600b6020526000908152604090205481565b6001602081905260009182526040909120805491810154600282015460038301546005840154600785015460089095015473ffffffffffffffffffffffffffffffffffffffff96871696948516959390941693919260ff9091169187565b60295460ff1681565b60008481526001602081905260409091200154849073ffffffffffffffffffffffffffffffffffffffff163314615a68576040517f08c379a000000000000000000000000000000000000000000000000000000000815260040180806020018281038252603681526020018061c3746036913960400191505060405180910390fd5b60275473ffffffffffffffffffffffffffffffffffffffff16615aec57604080517f08c379a000000000000000000000000000000000000000000000000000000000815260206004820181905260248201527f436861696e6c696e6b206f7261636c652061646472657373206e6f7420736574604482015290519081900360640190fd5b602754604080516020810188815260009373ffffffffffffffffffffffffffffffffffffffff16926310835dbb928a928a928a920183838082843780830192505050935050505060405160208183030381529060405280519060200120670de0b6b3a76400006040518363ffffffff1660e01b81526004018083815260200182815260200192505050602060405180830381600087803b158015615b8f57600080fd5b505af1158015615ba3573d6000803e3d6000fd5b505050506040513d6020811015615bb957600080fd5b50519050615bcd428463ffffffff61b08b16565b6008600083815260200190815260200160002081905550857f45ca523dc8cc2788a2e6538f8b62e73851b5025a306ff66e3e587b081ca315308686868560405180806020018481526020018381526020018281038252868682818152602001925080828437600083820152604051601f9091017fffffffffffffffffffffffffffffffffffffffffffffffffffffffffffffffe01690920182900397509095505050505050a2505050505050565b60008181526001602081905260409091200154819073ffffffffffffffffffffffffffffffffffffffff163314615cfd576040517f08c379a000000000000000000000000000000000000000000000000000000000815260040180806020018281038252603681526020018061c3746036913960400191505060405180910390fd5b60008281526001602052604090206007015482904210615d7e57604080517f08c379a000000000000000000000000000000000000000000000000000000000815260206004820152600e60248201527f4f7074696f6e2065787069726564000000000000000000000000000000000000604482015290519081900360640190fd5b60008381526001602052604081206005015460ff166002811115615d9e57fe5b14615df4576040517f08c379a000000000000000000000000000000000000000000000000000000000815260040180806020018281038252602f81526020018061c527602f913960400191505060405180910390fd5b600083815260016020818152604080842060028101549381015460039091015482517fa9059cbb00000000000000000000000000000000000000000000000000000000815273ffffffffffffffffffffffffffffffffffffffff92831660048201526024810191909152915193169363a9059cbb93604480840194939192918390030190829087803b158015615e8957600080fd5b505af1158015615e9d573d6000803e3d6000fd5b505050506040513d6020811015615eb357600080fd5b5051615f0a576040517f08c379a000000000000000000000000000000000000000000000000000000000815260040180806020018281038252602381526020018061c2fd6023913960400191505060405180910390fd5b336000908152600360208181526040808420878552909152822080547fffffffffffffffffffffffff0000000000000000000000000000000000000000908116825560018201805482169055600282018054909116905590810182905590615f75600483018261c0c9565b6005820180547fffffffffffffffffffffffffffffffffffffffffffffffffffffffffffffff00169055615fad60068301600061c0c9565b506000600782018190556008909101819055338152600260208181526040808420878552909152822080547fffffffffffffffffffffffff000000000000000000000000000000000000000090811682556001820180548216905591810180549092169091556003810182905590616028600483018261c0c9565b6005820180547fffffffffffffffffffffffffffffffffffffffffffffffffffffffffffffff0016905561606060068301600061c0c9565b506000600782018190556008909101819055838152600160208190526040822080547fffffffffffffffffffffffff0000000000000000000000000000000000000000908116825591810180548316905560028101805490921690915560038101829055906160d2600483018261c0c9565b6005820180547fffffffffffffffffffffffffffffffffffffffffffffffffffffffffffffff0016905561610a60068301600061c0c9565b50600060078201819055600890910181905583815260056020908152604080832083815560018101849055600201929092558151858152915133927f2d428178e65c47bfb7d75b43e57e93851220995d8887d6826253c18d9b9fc99f92908290030190a2505050565b60008181526001602081905260409091200154819073ffffffffffffffffffffffffffffffffffffffff1633146161f5576040517f08c379a000000000000000000000000000000000000000000000000000000000815260040180806020018281038252603681526020018061c3746036913960400191505060405180910390fd5b6000828152600160205260409020600701548290421061627657604080517f08c379a000000000000000000000000000000000000000000000000000000000815260206004820152600e60248201527f4f7074696f6e2065787069726564000000000000000000000000000000000000604482015290519081900360640190fd5b600160008481526001602052604090206005015460ff16600281111561629857fe5b1461630457604080517f08c379a000000000000000000000000000000000000000000000000000000000815260206004820152601260248201527f4f7074696f6e206e6f74206f6e2073616c650000000000000000000000000000604482015290519081900360640190fd5b600083815260016020818152604080842060050180547fffffffffffffffffffffffffffffffffffffffffffffffffffffffffffffff00169055600491829052832080547fffffffffffffffffffffffff00000000000000000000000000000000000000009081168255928101805484169055600281018054909316909255600382018390559091906163999083018261c0c9565b6005820180547fffffffffffffffffffffffffffffffffffffffffffffffffffffffffffffff001690556163d160068301600061c0c9565b5060006007820181905560089091015560408051848152905133917f05226439292b7408157c7fb8a72a8ef4696205d78e3b985cee36978e1200f2df919081900360200190a2505050565b600e5473ffffffffffffffffffffffffffffffffffffffff16331461648c576040517f08c379a000000000000000000000000000000000000000000000000000000000815260040180806020018281038252603181526020018061c59e6031913960400191505060405180910390fd5b60405133907fe8bcf92c09a57affa54e786fab1f1d18ba61db48e96235e198b92080b7998f6390600090a2565b60008181526001602081905260409091200154819073ffffffffffffffffffffffffffffffffffffffff16331461653b576040517f08c379a000000000000000000000000000000000000000000000000000000000815260040180806020018281038252603681526020018061c3746036913960400191505060405180910390fd5b600082815260016020526040902060070154829042106165bc57604080517f08c379a000000000000000000000000000000000000000000000000000000000815260206004820152600e60248201527f4f7074696f6e2065787069726564000000000000000000000000000000000000604482015290519081900360640190fd5b601f546000848152600160205260409020600701546165e09163ffffffff61b08b16565b421161664d57604080517f08c379a000000000000000000000000000000000000000000000000000000000815260206004820152601a60248201527f4f66666572206475726174696f6e206e6f742065787069726564000000000000604482015290519081900360640190fd5b60005b6000848152600160205260409020600601548110156166e5576000848152600d602090815260408083206001909252822060060180548391908590811061669357fe5b600091825260208083209091015483528281019390935260409182018120548882526007845282822073ffffffffffffffffffffffffffffffffffffffff909116825290925281205550600101616650565b5060405183907f568aeda352153539d9813524dc5d57d37f459a2966a4092d7c00b12e8f23420d90600090a2505050565b61671e61b473565b73ffffffffffffffffffffffffffffffffffffffff1661673c6176d1565b73ffffffffffffffffffffffffffffffffffffffff16146167be57604080517f08c379a000000000000000000000000000000000000000000000000000000000815260206004820181905260248201527f4f776e61626c653a2063616c6c6572206973206e6f7420746865206f776e6572604482015290519081900360640190fd5b6000805460405173ffffffffffffffffffffffffffffffffffffffff909116907f8be0079c531659141344cd1fd0a4f28419497f9722a3daafe3b4186f6b6457e0908390a3600080547fffffffffffffffffffffffff0000000000000000000000000000000000000000169055565b60105460115460125460135460155460175460185473ffffffffffffffffffffffffffffffffffffffff96871696958616959094169360ff9092169187565b60008281526001602081905260409091200154829073ffffffffffffffffffffffffffffffffffffffff1633146168ee576040517f08c379a000000000000000000000000000000000000000000000000000000000815260040180806020018281038252603681526020018061c3746036913960400191505060405180910390fd5b600083815260016020526040902060070154428111616958576040517f08c379a000000000000000000000000000000000000000000000000000000000815260040180806020018281038252603a81526020018061c27b603a913960400191505060405180910390fd5b602483905560408051848152905185917f7bfac94b8f45c93697445d23eac75f25203c65fe9d9455b378ec00a954678459919081900360200190a250505050565b600e54600f5473ffffffffffffffffffffffffffffffffffffffff9091169082565b60245481565b60008181526001602081905260409091200154819073ffffffffffffffffffffffffffffffffffffffff163314616a43576040517f08c379a000000000000000000000000000000000000000000000000000000000815260040180806020018281038252603681526020018061c3746036913960400191505060405180910390fd5b60008281526001602052604090206007015482904210616ac457604080517f08c379a000000000000000000000000000000000000000000000000000000000815260206004820152600e60248201527f4f7074696f6e2065787069726564000000000000000000000000000000000000604482015290519081900360640190fd5b600160008481526001602052604090206005015460ff166002811115616ae657fe5b1415616b5357604080517f08c379a000000000000000000000000000000000000000000000000000000000815260206004820181905260248201527f43616e6e6f74206275726e206f7074696f6e207768696c65206f6e2073616c65604482015290519081900360640190fd5b600083815260016020818152604080842060028101549381015460039091015482517fa9059cbb00000000000000000000000000000000000000000000000000000000815273ffffffffffffffffffffffffffffffffffffffff92831660048201526024810191909152915193169363a9059cbb93604480840194939192918390030190829087803b158015616be857600080fd5b505af1158015616bfc573d6000803e3d6000fd5b505050506040513d6020811015616c1257600080fd5b5051616c69576040517f08c379a000000000000000000000000000000000000000000000000000000000815260040180806020018281038252602381526020018061c2fd6023913960400191505060405180910390fd5b336000908152600360208181526040808420878552909152822080547fffffffffffffffffffffffff0000000000000000000000000000000000000000908116825560018201805482169055600282018054909116905590810182905590616cd4600483018261c0c9565b6005820180547fffffffffffffffffffffffffffffffffffffffffffffffffffffffffffffff00169055616d0c60068301600061c0c9565b506000600782018190556008909101819055338152600260208181526040808420878552909152822080547fffffffffffffffffffffffff000000000000000000000000000000000000000090811682556001820180548216905591810180549092169091556003810182905590616d87600483018261c0c9565b6005820180547fffffffffffffffffffffffffffffffffffffffffffffffffffffffffffffff00169055616dbf60068301600061c0c9565b506000600782018190556008909101819055838152600160208190526040822080547fffffffffffffffffffffffff000000000000000000000000000000000000000090811682559181018054831690556002810180549092169091556003810182905590616e31600483018261c0c9565b6005820180547fffffffffffffffffffffffffffffffffffffffffffffffffffffffffffffff00169055616e6960068301600061c0c9565b5060006007820181905560089091018190558381526005602090815260408083208381556001808201859055600291820185905560049384905291842080547fffffffffffffffffffffffff000000000000000000000000000000000000000090811682559281018054841690559081018054909216909155600381018390559190616ef79083018261c0c9565b6005820180547fffffffffffffffffffffffffffffffffffffffffffffffffffffffffffffff00169055616f2f60068301600061c0c9565b5060006007820181905560089091015560408051848152905133917f5b5bdde384b3291bb09948b7b8e2fe72e964ad6835353f33165701f8d8b6311c919081900360200190a2505050565b60255481565b600e5473ffffffffffffffffffffffffffffffffffffffff163314616ff0576040517f08c379a000000000000000000000000000000000000000000000000000000000815260040180806020018281038252603181526020018061c59e6031913960400191505060405180910390fd5b60295460ff161561706257604080517f08c379a000000000000000000000000000000000000000000000000000000000815260206004820152601260248201527f436f6e7472616374206973207061757365640000000000000000000000000000604482015290519081900360640190fd5b602980547fffffffffffffffffffffffffffffffffffffffffffffffffffffffffffffff00166001179055565b60096020526000908152604090205481565b601c5460008281526001602052604090206007015482916170c8919063ffffffff61b08b16565b421061713557604080517f08c379a000000000000000000000000000000000000000000000000000000000815260206004820152601060248201527f416374697665206269642f6f6666657200000000000000000000000000000000604482015290519081900360640190fd5b60008281526007602090815260408083203384529091529020546171ba57604080517f08c379a000000000000000000000000000000000000000000000000000000000815260206004820152601a60248201527f4e6f2076616c6964206f6666657220746f207769746864726177000000000000604482015290519081900360640190fd5b60008281526007602090815260408083203384529091529020546171dd8361b576565b811061724a57604080517f08c379a000000000000000000000000000000000000000000000000000000000815260206004820152601c60248201527f43616e6e6f74207769746864726177206c6f77657374206f6666657200000000604482015290519081900360640190fd5b600083815260076020908152604080832033808552908352818420849055868452600183528184206002015482517fa9059cbb000000000000000000000000000000000000000000000000000000008152600481019290925260248201869052915173ffffffffffffffffffffffffffffffffffffffff9092169363a9059cbb9360448084019491939192918390030190829087803b1580156172ec57600080fd5b505af1158015617300573d6000803e3d6000fd5b505050506040513d602081101561731657600080fd5b50506000838152600760209081526040808320338085529083529281902054815193845291830191909152805185927f60c7613a8b8ce872a461e88b0f376098063e67e4df6d0aa6a55790fe81acdb5892908290030190a2505050565b601d5481565b600061738685858561b63f565b60195461739a90869063ffffffff61b08b16565b945060006173e08888808060200260200160405190810160405280939291908181526020018383602002808284376000920191909152508a92508991508890508761b6ff565b9050337f4e2e0c78f0a0cac440897c7e10ea9cceb356d457f46feac9da7a6392f5b6de67828288888d8d60008161741357fe5b6040805197885273ffffffffffffffffffffffffffffffffffffffff968716602089810191909152959096168787015260608701939093525091020135608083015260a082018a905260c08201879052519081900360e00190a2979650505050505050565b60275473ffffffffffffffffffffffffffffffffffffffff1633146174e8576040517f08c379a000000000000000000000000000000000000000000000000000000000815260040180806020018281038252603581526020018061c1fc6035913960400191505060405180910390fd5b602655600090815260086020526040812055565b60008181526001602081905260409091200154819073ffffffffffffffffffffffffffffffffffffffff16331461757e576040517f08c379a000000000000000000000000000000000000000000000000000000000815260040180806020018281038252603681526020018061c3746036913960400191505060405180910390fd5b602754604080517f10835dbb000000000000000000000000000000000000000000000000000000008152600060048201819052600160248301529151919273ffffffffffffffffffffffffffffffffffffffff16916310835dbb9160448082019260209290919082900301818787803b1580156175fa57600080fd5b505af115801561760e573d6000803e3d6000fd5b505050506040513d602081101561762457600080fd5b5051602754604080517f31d98b3f00000000000000000000000000000000000000000000000000000000815260048101849052905192935073ffffffffffffffffffffffffffffffffffffffff909116916331d98b3f916024808201926020929091908290030181600087803b15801561769d57600080fd5b505af11580156176b1573d6000803e3d6000fd5b505050506040513d60208110156176c757600080fd5b5051602655505050565b60005473ffffffffffffffffffffffffffffffffffffffff1690565b6000858152600160208190526040909120015473ffffffffffffffffffffffffffffffffffffffff168061776c576040517f08c379a000000000000000000000000000000000000000000000000000000000815260040180806020018281038252602781526020018061c2b56027913960400191505060405180910390fd5b6000868152600160205260409020600701544281116177d6576040517f08c379a000000000000000000000000000000000000000000000000000000000815260040180806020018281038252603a81526020018061c27b603a913960400191505060405180910390fd5b6000878152600160205260409020600701548790421061785757604080517f08c379a000000000000000000000000000000000000000000000000000000000815260206004820152600e60248201527f4f7074696f6e2065787069726564000000000000000000000000000000000000604482015290519081900360640190fd5b8686600081811061786457fe5b90506020020135600081116178c4576040517f08c379a000000000000000000000000000000000000000000000000000000000815260040180806020018281038252603081526020018061c4ad6030913960400191505060405180910390fd5b6000898152600160205260409020600701548990421061794557604080517f08c379a000000000000000000000000000000000000000000000000000000000815260206004820152600f60248201527f5374616c65206269642f6f666665720000000000000000000000000000000000604482015290519081900360640190fd5b8888600181811061795257fe5b90506020020135600081116179b2576040517f08c379a000000000000000000000000000000000000000000000000000000000815260040180806020018281038252603e81526020018061c411603e913960400191505060405180910390fd5b898960028181106179bf57fe5b90506020020135600560008d8152602001908152602001600020600201546000821180156179ed5750808211155b617a42576040517f08c379a000000000000000000000000000000000000000000000000000000000815260040180806020018281038252605481526020018061c3206054913960600191505060405180910390fd5b62030d405a11617ab357604080517f08c379a000000000000000000000000000000000000000000000000000000000815260206004820152601260248201527f476173206c696d69742065786365656465640000000000000000000000000000604482015290519081900360640190fd5b60008d81526001602052604081206005015460ff166002811115617ad357fe5b14617b3f57604080517f08c379a000000000000000000000000000000000000000000000000000000000815260206004820152601b60248201527f4f7074696f6e206e6f7420696e20637265617465642073746174650000000000604482015290519081900360640190fd5b6000617b658d8d6001818110617b5157fe5b905060200201358e8e600081811061360b57fe5b9050617b858e828f8f6003818110617b7957fe5b9050602002013561bb4d565b617b8f8e8261bbb0565b617bcc8e8e8e8080602002602001604051908101604052809392919081815260200183836020028082843760009201919091525061bbcd92505050565b3373ffffffffffffffffffffffffffffffffffffffff167fc045e6c23ebb61636a29c745f7926eff2761be77456e1b2f2e49e4aea492ab448f8f8f8f8f6040518086815260200180602001806020018381038352878782818152602001925060200280828437600083820152601f017fffffffffffffffffffffffffffffffffffffffffffffffffffffffffffffffe0169091018481038352858152602090810191508690860280828437600083820152604051601f9091017fffffffffffffffffffffffffffffffffffffffffffffffffffffffffffffffe016909201829003995090975050505050505050a25050505050505050505050505050565b60205481565b60008281526001602081905260409091200154829073ffffffffffffffffffffffffffffffffffffffff163314617d52576040517f08c379a000000000000000000000000000000000000000000000000000000000815260040180806020018281038252603681526020018061c3746036913960400191505060405180910390fd5b600083815260016020526040902060070154428111617dbc576040517f08c379a000000000000000000000000000000000000000000000000000000000815260040180806020018281038252603a81526020018061c27b603a913960400191505060405180910390fd5b601f83905560408051848152905185917ff5b670dfc12583e5b0164fca9fbbd0e6997013ca4b1a92457f1d3aead8dfd435919081900360200190a250505050565b600083815260016020526040902060070154428111617e67576040517f08c379a000000000000000000000000000000000000000000000000000000000815260040180806020018281038252603a81526020018061c27b603a913960400191505060405180910390fd5b60008481526001602052604090206007015484904210617ee857604080517f08c379a000000000000000000000000000000000000000000000000000000000815260206004820152600e60248201527f4f7074696f6e2065787069726564000000000000000000000000000000000000604482015290519081900360640190fd5b83836000818110617ef557fe5b9050602002013560008111617f55576040517f08c379a000000000000000000000000000000000000000000000000000000000815260040180806020018281038252603081526020018061c4ad6030913960400191505060405180910390fd5b60008681526001602052604090206007015486904210617fd657604080517f08c379a000000000000000000000000000000000000000000000000000000000815260206004820152600f60248201527f5374616c65206269642f6f666665720000000000000000000000000000000000604482015290519081900360640190fd5b85856001818110617fe357fe5b9050602002013560008111618043576040517f08c379a000000000000000000000000000000000000000000000000000000000815260040180806020018281038252603e81526020018061c411603e913960400191505060405180910390fd5b8686600281811061805057fe5b90506020020135600560008a81526020019081526020016000206002015460008211801561807e5750808211155b6180d3576040517f08c379a000000000000000000000000000000000000000000000000000000000815260040180806020018281038252605481526020018061c3206054913960600191505060405180910390fd5b62030d405a1161814457604080517f08c379a000000000000000000000000000000000000000000000000000000000815260206004820152601260248201527f476173206c696d69742065786365656465640000000000000000000000000000604482015290519081900360640190fd5b60008a81526001602052604081206005015460ff16600281111561816457fe5b146181d057604080517f08c379a000000000000000000000000000000000000000000000000000000000815260206004820152601b60248201527f4f7074696f6e206e6f7420696e20637265617465642073746174650000000000604482015290519081900360640190fd5b60006181f68a8a60018181106181e257fe5b905060200201358b8b600081811061360b57fe5b60008c81526001602090815260408083206002015481517f23b872dd00000000000000000000000000000000000000000000000000000000815233600482015230602482015260448101869052915194955073ffffffffffffffffffffffffffffffffffffffff16936323b872dd93606480840194938390030190829087803b15801561828257600080fd5b505af1158015618296573d6000803e3d6000fd5b505050506040513d60208110156182ac57600080fd5b5051618303576040517f08c379a000000000000000000000000000000000000000000000000000000000815260040180806020018281038252602981526020018061c4dd6029913960400191505060405180910390fd5b60008b8152600760209081526040808320338085529083528184208590558e8452600d909252822090918c8c600381811061833a57fe5b90506020020135815260200190815260200160002060006101000a81548173ffffffffffffffffffffffffffffffffffffffff021916908373ffffffffffffffffffffffffffffffffffffffff1602179055503373ffffffffffffffffffffffffffffffffffffffff167f86db197b0fed294a0788fddc051d1bdb1ec99dcfd155d9aecdd040a812a97ef28c8c8c60405180848152602001806020018281038252848482818152602001925060200280828437600083820152604051601f9091017fffffffffffffffffffffffffffffffffffffffffffffffffffffffffffffffe016909201829003965090945050505050a25050505050505050505050565b601c5481565b60215481565b60265481565b6000602960019054906101000a900473ffffffffffffffffffffffffffffffffffffffff1673ffffffffffffffffffffffffffffffffffffffff166316fe73ec6040518163ffffffff1660e01b815260040160206040518083038186803b1580156184b657600080fd5b505afa1580156184ca573d6000803e3d6000fd5b505050506040513d60208110156184e057600080fd5b50511161854e57604080517f08c379a000000000000000000000000000000000000000000000000000000000815260206004820152601f60248201527f52616e646f6d206e756d626572206e6f742066756c66696c6c65642079657400604482015290519081900360640190fd5b6000602960019054906101000a900473ffffffffffffffffffffffffffffffffffffffff1673ffffffffffffffffffffffffffffffffffffffff166316fe73ec6040518163ffffffff1660e01b815260040160206040518083038186803b1580156185b857600080fd5b505afa1580156185cc573d6000803e3d6000fd5b505050506040513d60208110156185e257600080fd5b505160408051828152905191925083917f1265ed0ee2224724954858bc12b94d9ec15e1a0f2f4b3aa8e2bba707945902089181900360200190a2602960019054906101000a900473ffffffffffffffffffffffffffffffffffffffff1673ffffffffffffffffffffffffffffffffffffffff1663f9e19fa56040518163ffffffff1660e01b8152600401600060405180830381600087803b15801561868657600080fd5b505af115801561869a573d6000803e3d6000fd5b505050505050565b600d60209081526000928352604080842090915290825290205473ffffffffffffffffffffffffffffffffffffffff1681565b602954610100900473ffffffffffffffffffffffffffffffffffffffff1681565b60008281526001602081905260409091200154829073ffffffffffffffffffffffffffffffffffffffff163314618778576040517f08c379a000000000000000000000000000000000000000000000000000000000815260040180806020018281038252603681526020018061c3746036913960400191505060405180910390fd5b600083815260016020526040902060070154839042106187f957604080517f08c379a000000000000000000000000000000000000000000000000000000000815260206004820152600e60248201527f4f7074696f6e2065787069726564000000000000000000000000000000000000604482015290519081900360640190fd5b60008311618852576040517f08c379a000000000000000000000000000000000000000000000000000000000815260040180806020018281038252602d81526020018061c1a9602d913960400191505060405180910390fd5b600084815260016020526040902060070154618874908463ffffffff61b08b16565b600085815260016020908152604091829020600701929092558051858152905186927fa1d21773f74894dc4c73f0fdf0d1aa24c0b027821d41e2ed9942b4a46132ee5a928290030190a250505050565b60008281526001602081905260409091200154829073ffffffffffffffffffffffffffffffffffffffff163314618946576040517f08c379a000000000000000000000000000000000000000000000000000000000815260040180806020018281038252603681526020018061c3746036913960400191505060405180910390fd5b600083815260016020526040902060070154839042106189c757604080517f08c379a000000000000000000000000000000000000000000000000000000000815260206004820152600e60248201527f4f7074696f6e2065787069726564000000000000000000000000000000000000604482015290519081900360640190fd5b60008311618a20576040517f08c379a000000000000000000000000000000000000000000000000000000000815260040180806020018281038252602d81526020018061c1a9602d913960400191505060405180910390fd5b600084815260016020526040812060070154618a42908563ffffffff61b08b16565b6000868152600160205260409020600701549091508111618aae576040517f08c379a000000000000000000000000000000000000000000000000000000000815260040180806020018281038252602281526020018061c57c6022913960400191505060405180910390fd5b6000858152600160209081526040918290206007018390558151868152915187927f85f8dc1c9620d5bfbc44ab7590babb99ca4e416de26d99b2610fe4179848ca3692908290030190a25050505050565b604051819033907ff12ee03c5c05f6339eb7067b918b1d65996cb0701660d3a0bfeb92f628b2d56890600090a350565b60195481565b601b5481565b60086020526000908152604090205481565b60008281526001602081905260409091200154829073ffffffffffffffffffffffffffffffffffffffff163314618bcf576040517f08c379a000000000000000000000000000000000000000000000000000000000815260040180806020018281038252603681526020018061c3746036913960400191505060405180910390fd5b8160008111618c29576040517f08c379a000000000000000000000000000000000000000000000000000000000815260040180806020018281038252603081526020018061c4ad6030913960400191505060405180910390fd5b600084815260016020526040902060070154428111618c93576040517f08c379a000000000000000000000000000000000000000000000000000000000815260040180806020018281038252603a81526020018061c27b603a913960400191505060405180910390fd5b60008581526001602052604090206007015485904210618d1457604080517f08c379a000000000000000000000000000000000000000000000000000000000815260206004820152600e60248201527f4f7074696f6e2065787069726564000000000000000000000000000000000000604482015290519081900360640190fd5b6000868152600160208190526040909120015473ffffffffffffffffffffffffffffffffffffffff16331415618d95576040517f08c379a000000000000000000000000000000000000000000000000000000000815260040180806020018281038252602681526020018061c1d66026913960400191505060405180910390fd5b50505060009283525060076020908152604080842033855290915290912055565b60008181526001602081905260409091200154819073ffffffffffffffffffffffffffffffffffffffff163314618e38576040517f08c379a000000000000000000000000000000000000000000000000000000000815260040180806020018281038252603681526020018061c3746036913960400191505060405180910390fd5b60008281526001602052604090206007015482904210618eb957604080517f08c379a000000000000000000000000000000000000000000000000000000000815260206004820152600e60248201527f4f7074696f6e2065787069726564000000000000000000000000000000000000604482015290519081900360640190fd5b600160008481526001602052604090206005015460ff166002811115618edb57fe5b14618f4757604080517f08c379a000000000000000000000000000000000000000000000000000000000815260206004820152601560248201527f4f7074696f6e206973206e6f74206f6e2073616c650000000000000000000000604482015290519081900360640190fd5b60007fffffffffffffffffffffffffffffffffffffffffffffffffffffffffffffffff815b600086815260016020526040902060060154811015619013576000868152600d6020908152604080832060019092528220600601805483919085908110618faf57fe5b600091825260208083209091015483528281019390935260409182018120548a82526007845282822073ffffffffffffffffffffffffffffffffffffffff9091168083529352205490915083811015619009578093508194505b5050600101618f6c565b507fffffffffffffffffffffffffffffffffffffffffffffffffffffffffffffffff81106190a257604080517f08c379a000000000000000000000000000000000000000000000000000000000815260206004820152600f60248201527f4e6f2076616c6964206f66666572730000000000000000000000000000000000604482015290519081900360640190fd5b806190ad868461b477565b101561911a57604080517f08c379a000000000000000000000000000000000000000000000000000000000815260206004820152601760248201527f4f6666657265722062616c616e636520746f6f206c6f77000000000000000000604482015290519081900360640190fd5b6000858152600160209081526040808320600281015460039091015482517fa9059cbb0000000000000000000000000000000000000000000000000000000081523360048201526024810191909152915173ffffffffffffffffffffffffffffffffffffffff9091169363a9059cbb93604480850194919392918390030190829087803b1580156191aa57600080fd5b505af11580156191be573d6000803e3d6000fd5b505050506040513d60208110156191d457600080fd5b505060008581526001602090815260408083206002015481517fa9059cbb00000000000000000000000000000000000000000000000000000000815273ffffffffffffffffffffffffffffffffffffffff8781166004830152602482018790529251929091169363a9059cbb9360448084019491939192918390030190829087803b15801561926257600080fd5b505af1158015619276573d6000803e3d6000fd5b505050506040513d602081101561928c57600080fd5b50600090505b600086815260016020526040902060060154811015619327576000868152600d60209081526040808320600190925282206006018054839190859081106192d557fe5b600091825260208083209091015483528281019390935260409182018120548a82526007845282822073ffffffffffffffffffffffffffffffffffffffff909116825290925281205550600101619292565b5060008581526001602052604090206005810180547fffffffffffffffffffffffffffffffffffffffffffffffffffffffffffffff001690556003015433907f23ad4783d95ee2d3730fae4843757e102bd28a58ef48e2c6f8fe93aef120f5fb908790613ebd908561b08b565b601f5481565b60008181526001602081905260409091200154819073ffffffffffffffffffffffffffffffffffffffff16331461941c576040517f08c379a000000000000000000000000000000000000000000000000000000000815260040180806020018281038252603681526020018061c3746036913960400191505060405180910390fd5b6000828152600160205260409020600701548290421061949d57604080517f08c379a000000000000000000000000000000000000000000000000000000000815260206004820152600e60248201527f4f7074696f6e2065787069726564000000000000000000000000000000000000604482015290519081900360640190fd5b601a546000848152600160205260409020600701546194c19163ffffffff61b1fc16565b421161952e57604080517f08c379a000000000000000000000000000000000000000000000000000000000815260206004820152601860248201527f426964206475726174696f6e206e6f7420657870697265640000000000000000604482015290519081900360640190fd5b60005b6000848152600160205260409020600601548110156195c6576000848152600c602090815260408083206001909252822060060180548391908590811061957457fe5b600091825260208083209091015483528281019390935260409182018120548882526006845282822073ffffffffffffffffffffffffffffffffffffffff909116825290925281205550600101619531565b5060405183907f7802cd593f5c917333e3eaa52e735224ba7d2af514a30cc7b8cb8b768b49cdbf90600090a2505050565b60008181526001602081905260409091200154819073ffffffffffffffffffffffffffffffffffffffff163314619679576040517f08c379a000000000000000000000000000000000000000000000000000000000815260040180806020018281038252603681526020018061c3746036913960400191505060405180910390fd5b600082815260016020526040902060070154829042106196fa57604080517f08c379a000000000000000000000000000000000000000000000000000000000815260206004820152600e60248201527f4f7074696f6e2065787069726564000000000000000000000000000000000000604482015290519081900360640190fd5b600160008481526001602052604090206005015460ff16600281111561971c57fe5b1415619773576040517f08c379a000000000000000000000000000000000000000000000000000000000815260040180806020018281038252602181526020018061c2dc6021913960400191505060405180910390fd5b600083815260016020818152604080842060028101549381015460039091015482517fa9059cbb00000000000000000000000000000000000000000000000000000000815273ffffffffffffffffffffffffffffffffffffffff92831660048201526024810191909152915193169363a9059cbb93604480840194939192918390030190829087803b15801561980857600080fd5b505af115801561981c573d6000803e3d6000fd5b505050506040513d602081101561983257600080fd5b5051619889576040517f08c379a000000000000000000000000000000000000000000000000000000000815260040180806020018281038252602381526020018061c2fd6023913960400191505060405180910390fd5b600083815260016020818152604080842060028101549054600584528286209094015482517fa9059cbb00000000000000000000000000000000000000000000000000000000815273ffffffffffffffffffffffffffffffffffffffff95861660048201526024810191909152915193169363a9059cbb93604480840194939192918390030190829087803b15801561992157600080fd5b505af1158015619935573d6000803e3d6000fd5b505050506040513d602081101561994b57600080fd5b50516199b857604080517f08c379a000000000000000000000000000000000000000000000000000000000815260206004820152601a60248201527f4661696c656420746f207472616e73666572207072656d69756d000000000000604482015290519081900360640190fd5b336000908152600360208181526040808420878552909152822080547fffffffffffffffffffffffff0000000000000000000000000000000000000000908116825560018201805482169055600282018054909116905590810182905590619a23600483018261c0c9565b6005820180547fffffffffffffffffffffffffffffffffffffffffffffffffffffffffffffff00169055619a5b60068301600061c0c9565b506000600782018190556008909101819055338152600260208181526040808420878552909152822080547fffffffffffffffffffffffff000000000000000000000000000000000000000090811682556001820180548216905591810180549092169091556003810182905590619ad6600483018261c0c9565b6005820180547fffffffffffffffffffffffffffffffffffffffffffffffffffffffffffffff00169055619b0e60068301600061c0c9565b506000600782018190556008909101819055838152600160208190526040822080547fffffffffffffffffffffffff000000000000000000000000000000000000000090811682559181018054831690556002810180549092169091556003810182905590619b80600483018261c0c9565b6005820180547fffffffffffffffffffffffffffffffffffffffffffffffffffffffffffffff00169055619bb860068301600061c0c9565b5060006007820181905560089091018190558381526005602090815260408083208381556001808201859055600291820185905560049384905291842080547fffffffffffffffffffffffff000000000000000000000000000000000000000090811682559281018054841690559081018054909216909155600381018390559190619c469083018261c0c9565b6005820180547fffffffffffffffffffffffffffffffffffffffffffffffffffffffffffffff00169055619c7e60068301600061c0c9565b5060006007820181905560089091015560408051848152905133917f99345787a609d8a93a34ac5c7c9c0a4b1691a4e49b40518f6d6e193c286432aa919081900360200190a2505050565b60008181526001602081905260409091200154819073ffffffffffffffffffffffffffffffffffffffff163314619d4b576040517f08c379a000000000000000000000000000000000000000000000000000000000815260040180806020018281038252603681526020018061c3746036913960400191505060405180910390fd5b60008281526001602052604090206007015482904210619dcc57604080517f08c379a000000000000000000000000000000000000000000000000000000000815260206004820152600e60248201527f4f7074696f6e2065787069726564000000000000000000000000000000000000604482015290519081900360640190fd5b600160008481526001602052604090206005015460ff166002811115619dee57fe5b14619e5a57604080517f08c379a000000000000000000000000000000000000000000000000000000000815260206004820152601260248201527f4f7074696f6e206e6f74206f6e2073616c650000000000000000000000000000604482015290519081900360640190fd5b336000908152600360208181526040808420878552909152822080547fffffffffffffffffffffffff0000000000000000000000000000000000000000908116825560018201805482169055600282018054909116905590810182905590619ec5600483018261c0c9565b6005820180547fffffffffffffffffffffffffffffffffffffffffffffffffffffffffffffff00169055619efd60068301600061c0c9565b50600060078201819055600890910181905583815260016020818152604080842060050180547fffffffffffffffffffffffffffffffffffffffffffffffffffffffffffffff00169055600491829052832080547fffffffffffffffffffffffff0000000000000000000000000000000000000000908116825592810180548416905560028101805490931690925560038201839055909190619fa29083018261c0c9565b6005820180547fffffffffffffffffffffffffffffffffffffffffffffffffffffffffffffff00169055619fda60068301600061c0c9565b5060006007820181905560089091015560408051848152905133917f89a43fd47467ad079e1a3e484f558948a678189908ca1b2055c4c3b63222b1af919081900360200190a2505050565b600081815260016020526040902060070154421061222b57604080517f08c379a000000000000000000000000000000000000000000000000000000000815260206004820152600f60248201527f5374616c65206269642f6f666665720000000000000000000000000000000000604482015290519081900360640190fd5b60008281526001602081905260409091200154829073ffffffffffffffffffffffffffffffffffffffff16331461a126576040517f08c379a000000000000000000000000000000000000000000000000000000000815260040180806020018281038252603681526020018061c3746036913960400191505060405180910390fd5b60008381526001602052604090206007015442811161a190576040517f08c379a000000000000000000000000000000000000000000000000000000000815260040180806020018281038252603a81526020018061c27b603a913960400191505060405180910390fd5b601c83905560408051848152905185917f8a7a5c9c34210b39b0dd6c746e4824f7af2a84c059d4dcbc168a2036d26df990919081900360200190a250505050565b60008281526001602081905260409091200154829073ffffffffffffffffffffffffffffffffffffffff16331461a253576040517f08c379a000000000000000000000000000000000000000000000000000000000815260040180806020018281038252603681526020018061c3746036913960400191505060405180910390fd5b60008381526001602052604090206007015442811161a2bd576040517f08c379a000000000000000000000000000000000000000000000000000000000815260040180806020018281038252603a81526020018061c27b603a913960400191505060405180910390fd5b602283905560408051848152905185917f436da186610be724d1e56abf3d34d2baf7374f4bc9b7e38002969d08393cf547919081900360200190a250505050565b60235481565b60003411614f0957604080517f08c379a000000000000000000000000000000000000000000000000000000000815260206004820152600e60248201527f496e76616c696420616d6f756e74000000000000000000000000000000000000604482015290519081900360640190fd5b60026020818152600093845260408085209091529183529120805460018201549282015460038301546005840154600785015460089095015473ffffffffffffffffffffffffffffffffffffffff948516968516959390941693919260ff9091169187565b600c60209081526000928352604080842090915290825290205473ffffffffffffffffffffffffffffffffffffffff1681565b600760209081526000928352604080842090915290825290205481565b60036020818152600093845260408085209091529183529120805460018201546002830154938301546005840154600785015460089095015473ffffffffffffffffffffffffffffffffffffffff94851696938516959390941693919260ff9091169187565b60275473ffffffffffffffffffffffffffffffffffffffff1681565b60008181526001602081905260409091200154819073ffffffffffffffffffffffffffffffffffffffff16331461a52c576040517f08c379a000000000000000000000000000000000000000000000000000000000815260040180806020018281038252603681526020018061c3746036913960400191505060405180910390fd5b6000828152600160205260409020600701548290421061a5ad57604080517f08c379a000000000000000000000000000000000000000000000000000000000815260206004820152600e60248201527f4f7074696f6e2065787069726564000000000000000000000000000000000000604482015290519081900360640190fd5b60005b60008481526001602052604090206006015481101561a645576000848152600c602090815260408083206001909252822060060180548391908590811061a5f357fe5b600091825260208083209091015483528281019390935260409182018120548882526006845282822073ffffffffffffffffffffffffffffffffffffffff90911682529092528120555060010161a5b0565b5060405183907f91239f1b1c69a78900cc0b21af84007275a0bdcfad50186f9c47f0e11b03c10990600090a2505050565b61a67e61b473565b73ffffffffffffffffffffffffffffffffffffffff1661a69c6176d1565b73ffffffffffffffffffffffffffffffffffffffff161461a71e57604080517f08c379a000000000000000000000000000000000000000000000000000000000815260206004820181905260248201527f4f776e61626c653a2063616c6c6572206973206e6f7420746865206f776e6572604482015290519081900360640190fd5b73ffffffffffffffffffffffffffffffffffffffff811661a78a576040517f08c379a000000000000000000000000000000000000000000000000000000000815260040180806020018281038252602681526020018061c2556026913960400191505060405180910390fd5b6000805460405173ffffffffffffffffffffffffffffffffffffffff808516939216917f8be0079c531659141344cd1fd0a4f28419497f9722a3daafe3b4186f6b6457e091a3600080547fffffffffffffffffffffffff00000000000000000000000000000000000000001673ffffffffffffffffffffffffffffffffffffffff92909216919091179055565b60285481565b601a5481565b60008181526001602081905260409091200154819073ffffffffffffffffffffffffffffffffffffffff16331461a8a5576040517f08c379a000000000000000000000000000000000000000000000000000000000815260040180806020018281038252603681526020018061c3746036913960400191505060405180910390fd5b60405133907f75ca8a47b85b0148770d016b113e0d6c397aab1cfc57a8dfc04b1afc46affb9190600090a25050565b6000818152600160205260409020600701548190421061a95557604080517f08c379a000000000000000000000000000000000000000000000000000000000815260206004820152600e60248201527f4f7074696f6e2065787069726564000000000000000000000000000000000000604482015290519081900360640190fd5b6000828152600160205260409020600701548290421061a9d657604080517f08c379a000000000000000000000000000000000000000000000000000000000815260206004820152600f60248201527f5374616c65206269642f6f666665720000000000000000000000000000000000604482015290519081900360640190fd5b62030d405a1161aa4757604080517f08c379a000000000000000000000000000000000000000000000000000000000815260206004820152601260248201527f476173206c696d69742065786365656465640000000000000000000000000000604482015290519081900360640190fd5b600160008481526001602052604090206005015460ff16600281111561aa6957fe5b1461aad557604080517f08c379a000000000000000000000000000000000000000000000000000000000815260206004820152601260248201527f4f7074696f6e206e6f74206f6e2073616c650000000000000000000000000000604482015290519081900360640190fd5b6000805b60008581526001602052604090206006015481101561ab1e576000858152600160205260409020600601805461ab149190839081106153d857fe5b915060010161aad9565b5080341461ab8d57604080517f08c379a000000000000000000000000000000000000000000000000000000000815260206004820152601860248201527f496e636f7272656374207061796d656e7420616d6f756e740000000000000000604482015290519081900360640190fd5b600084815260016020818152604080842060028101549381015460039091015482517fa9059cbb00000000000000000000000000000000000000000000000000000000815273ffffffffffffffffffffffffffffffffffffffff92831660048201526024810191909152915193169363a9059cbb93604480840194939192918390030190829087803b15801561ac2257600080fd5b505af115801561ac36573d6000803e3d6000fd5b505050506040513d602081101561ac4c57600080fd5b505161aca3576040517f08c379a000000000000000000000000000000000000000000000000000000000815260040180806020018281038252602381526020018061c2fd6023913960400191505060405180910390fd5b600084815260016020818152604080842060028101549054600584528286209094015482517fa9059cbb00000000000000000000000000000000000000000000000000000000815273ffffffffffffffffffffffffffffffffffffffff95861660048201526024810191909152915193169363a9059cbb93604480840194939192918390030190829087803b15801561ad3b57600080fd5b505af115801561ad4f573d6000803e3d6000fd5b505050506040513d602081101561ad6557600080fd5b505161add257604080517f08c379a000000000000000000000000000000000000000000000000000000000815260206004820152601a60248201527f4661696c656420746f207472616e73666572207072656d69756d000000000000604482015290519081900360640190fd5b336000908152600360208181526040808420888552909152822080547fffffffffffffffffffffffff000000000000000000000000000000000000000090811682556001820180548216905560028201805490911690559081018290559061ae3d600483018261c0c9565b6005820180547fffffffffffffffffffffffffffffffffffffffffffffffffffffffffffffff0016905561ae7560068301600061c0c9565b50600060078201819055600890910181905584815260016020818152604080842033855260038084528286208a87529093529320835481547fffffffffffffffffffffffff000000000000000000000000000000000000000090811673ffffffffffffffffffffffffffffffffffffffff928316178355858501549483018054821695831695909517909455600280860154908301805490951691161790925580830154908201556004808301805461af31928401919061c089565b50600582810154908201805460ff909216917fffffffffffffffffffffffffffffffffffffffffffffffffffffffffffffff0016600183600281111561af7357fe5b02179055506006828101805461af8c928401919061c089565b5060078281015490820155600891820154910155600084815260016020819052604090912090810180547fffffffffffffffffffffffff0000000000000000000000000000000000000000163317905560050180547fffffffffffffffffffffffffffffffffffffffffffffffffffffffffffffff001690553481101561b04b57336108fc61b021348463ffffffff61b1fc16565b6040518115909202916000818181858888f1935050505015801561b049573d6000803e3d6000fd5b505b6040805185815260208101839052815133927f23ad4783d95ee2d3730fae4843757e102bd28a58ef48e2c6f8fe93aef120f5fb928290030190a250505050565b60008282018381101561b0ff57604080517f08c379a000000000000000000000000000000000000000000000000000000000815260206004820152601b60248201527f536166654d6174683a206164646974696f6e206f766572666c6f770000000000604482015290519081900360640190fd5b90505b92915050565b60008261b1175750600061b102565b8282028284828161b12457fe5b041461b0ff576040517f08c379a000000000000000000000000000000000000000000000000000000000815260040180806020018281038252602181526020018061c3f06021913960400191505060405180910390fd5b600080821161b1eb57604080517f08c379a000000000000000000000000000000000000000000000000000000000815260206004820152601a60248201527f536166654d6174683a206469766973696f6e206279207a65726f000000000000604482015290519081900360640190fd5b81838161b1f457fe5b049392505050565b60008282111561b26d57604080517f08c379a000000000000000000000000000000000000000000000000000000000815260206004820152601e60248201527f536166654d6174683a207375627472616374696f6e206f766572666c6f770000604482015290519081900360640190fd5b50900390565b600080805b60008481526001602052604090206006015481101561b31b576000848152600c602090815260408083206001909252822060060180548391908590811061b2bb57fe5b600091825260208083209091015483528281019390935260409182018120548882526006845282822073ffffffffffffffffffffffffffffffffffffffff909116808352935220549091501561b312576001909201915b5060010161b278565b5092915050565b600080805b60008481526001602052604090206006015481101561b31b576000848152600d602090815260408083206001909252822060060180548391908590811061b36a57fe5b600091825260208083209091015483528281019390935260409182018120548882526007845282822073ffffffffffffffffffffffffffffffffffffffff909116808352935220549091501561b3c1576001909201915b5060010161b327565b600080805b60008481526001602052604090206006015481101561b31b576000848152600c602090815260408083206001909252822060060180548391908590811061b41257fe5b600091825260208083209091015483528281019390935260409182018120548882526006845282822073ffffffffffffffffffffffffffffffffffffffff909116808352935220549091508381111561b469578093505b505060010161b3cf565b3390565b60008281526001602052604081206002015473ffffffffffffffffffffffffffffffffffffffff1661b4c1575073ffffffffffffffffffffffffffffffffffffffff81163161b102565b6000838152600160209081526040918290206002015482517f70a0823100000000000000000000000000000000000000000000000000000000815273ffffffffffffffffffffffffffffffffffffffff8681166004830152935193909116926370a0823192602480840193919291829003018186803b15801561b54357600080fd5b505afa15801561b557573d6000803e3d6000fd5b505050506040513d602081101561b56d57600080fd5b5051905061b102565b60007fffffffffffffffffffffffffffffffffffffffffffffffffffffffffffffffff815b60008481526001602052604090206006015481101561b31b576000848152600d602090815260408083206001909252822060060180548391908590811061b5de57fe5b600091825260208083209091015483528281019390935260409182018120548882526007845282822073ffffffffffffffffffffffffffffffffffffffff909116808352935220549091508381101561b635578093505b505060010161b59b565b82421061b697576040517f08c379a000000000000000000000000000000000000000000000000000000000815260040180806020018281038252603a81526020018061c27b603a913960400191505060405180910390fd5b6000811161b6f0576040517f08c379a000000000000000000000000000000000000000000000000000000000815260040180806020018281038252604681526020018061c3aa6046913960600191505060405180910390fd5b61b6fa828261bbf2565b505050565b600f5461b70a61c0e7565b604080516101208101825233808252602082015273ffffffffffffffffffffffffffffffffffffffff871691810191909152606081018590526080810188905260a0810160008152602001600060405190808252806020026020018201604052801561b780578160200160208202803683370190505b508152602080820189905260409182018690526000858152600180835290839020845181547fffffffffffffffffffffffff000000000000000000000000000000000000000090811673ffffffffffffffffffffffffffffffffffffffff9283161783558685015193830180548216948316949094179093559385015160028201805490931694169390931790556060830151600383015560808301518051939450849361b834926004850192019061c132565b5060a08201516005820180547fffffffffffffffffffffffffffffffffffffffffffffffffffffffffffffff0016600183600281111561b87057fe5b021790555060c0820151805161b89091600684019160209091019061c132565b5060e0820151600782015561010090910151600890910155336000908152600260208181526040808420868552825292839020845181547fffffffffffffffffffffffff000000000000000000000000000000000000000090811673ffffffffffffffffffffffffffffffffffffffff9283161783558684015160018401805483169184169190911790559486015193820180549095169316929092179092556060830151600382015560808301518051849361b95492600485019291019061c132565b5060a08201516005820180547fffffffffffffffffffffffffffffffffffffffffffffffffffffffffffffff0016600183600281111561b99057fe5b021790555060c0820151805161b9b091600684019160209091019061c132565b5060e0820151600782015561010090910151600890910155336000908152600360208181526040808420868552825292839020845181547fffffffffffffffffffffffff000000000000000000000000000000000000000090811673ffffffffffffffffffffffffffffffffffffffff928316178355868401516001840180548316918416919091179055948601516002830180549096169116179093556060840151918301919091556080830151805184939261ba7592600485019291019061c132565b5060a08201516005820180547fffffffffffffffffffffffffffffffffffffffffffffffffffffffffffffff0016600183600281111561bab157fe5b021790555060c0820151805161bad191600684019160209091019061c132565b5060e082015160078201556101009091015160089091015561baf161c16d565b505060408051606081018252848152600060208083018281528385019687528583526005825284832093518455516001808501919091559551600290930192909255600a9091522092909255600f805490910190559392505050565b6000821161bba6576040517f08c379a000000000000000000000000000000000000000000000000000000000815260040180806020018281038252603a81526020018061c44f603a913960400191505060405180910390fd5b61b6fa838261be10565b600091825260066020908152604080842033855290915290912055565b6000828152600460208181526040909220835161b6fa9391909201919084019061c132565b604080517f23b872dd00000000000000000000000000000000000000000000000000000000815233600482015230602482015260448101839052905173ffffffffffffffffffffffffffffffffffffffff8416916323b872dd9160648083019260209291908290030181600087803b15801561bc6d57600080fd5b505af115801561bc81573d6000803e3d6000fd5b505050506040513d602081101561bc9757600080fd5b505161bd0457604080517f08c379a000000000000000000000000000000000000000000000000000000000815260206004820152600f60248201527f5472616e73666572206661696c65640000000000000000000000000000000000604482015290519081900360640190fd5b604080517f095ea7b300000000000000000000000000000000000000000000000000000000815230600482015260248101839052905173ffffffffffffffffffffffffffffffffffffffff84169163095ea7b39160448083019260209291908290030181600087803b15801561bd7957600080fd5b505af115801561bd8d573d6000803e3d6000fd5b505050506040513d602081101561bda357600080fd5b5051611f2e57604080517f08c379a000000000000000000000000000000000000000000000000000000000815260206004820152600f60248201527f417070726f76616c206661696c65640000000000000000000000000000000000604482015290519081900360640190fd5b60008281526001602090815260408083206002015481517f23b872dd00000000000000000000000000000000000000000000000000000000815233600482015230602482015260448101869052915173ffffffffffffffffffffffffffffffffffffffff909116936323b872dd93606480850194919392918390030190829087803b15801561be9e57600080fd5b505af115801561beb2573d6000803e3d6000fd5b505050506040513d602081101561bec857600080fd5b505161bf1f576040517f08c379a000000000000000000000000000000000000000000000000000000000815260040180806020018281038252602181526020018061c5066021913960400191505060405180910390fd5b60008281526001602090815260408083206002015481517f095ea7b300000000000000000000000000000000000000000000000000000000815230600482015260248101869052915173ffffffffffffffffffffffffffffffffffffffff9091169363095ea7b393604480850194919392918390030190829087803b15801561bfa757600080fd5b505af115801561bfbb573d6000803e3d6000fd5b505050506040513d602081101561bfd157600080fd5b5051611f2e57604080517f08c379a000000000000000000000000000000000000000000000000000000000815260206004820181905260248201527f4661696c656420746f20617070726f76652062696420636f6c6c61746572616c604482015290519081900360640190fd5b82805482825590600052602060002090810192821561c079579160200282015b8281111561c07957823582559160200191906001019061c05e565b5061c08592915061c18e565b5090565b82805482825590600052602060002090810192821561c0795760005260206000209182015b8281111561c07957825482559160010191906001019061c0ae565b508054600082559060005260206000209081019061222b919061c18e565b6040805161012081018252600080825260208201819052918101829052606080820183905260808201529060a082019081526020016060815260200160008152602001600081525090565b82805482825590600052602060002090810192821561c079579160200282015b8281111561c07957825182559160200191906001019061c152565b60405180606001604052806000815260200160008152602001600081525090565b61219791905b8082111561c085576000815560010161c19456fe4164646974696f6e616c206475726174696f6e206d7573742062652067726561746572207468616e207a65726f4f776e65722063616e6e6f74206f66666572206f6e207468656972206f776e206f7074696f6e556e617574686f72697a65643a204f6e6c7920436861696e6c696e6b206f7261636c652063616e2066756c66696c6c207072696365496e76616c69642061727261793a2041727261792063616e6e6f7420626520656d7074794f776e61626c653a206e6577206f776e657220697320746865207a65726f2061646472657373496e76616c69642074696d653a204f7074696f6e2065787069726174696f6e2074696d65206d75737420626520696e2074686520667574757265496e76616c696420616464726573733a20416464726573732063616e6e6f74206265207a65726f43616e6e6f7420636c61696d206f7074696f6e207768696c65206f6e2073616c654661696c656420746f207472616e7366657220455243323020636f6c6c61746572616c496e76616c6964206672616374696f6e3a20556e697473206d7573742062652067726561746572207468616e207a65726f20616e64206c657373207468616e206f7220657175616c20746f206d6178556e697473556e617574686f72697a65643a204f6e6c79206f7074696f6e206f776e65722063616e2063616c6c20746869732066756e6374696f6e496e76616c696420636f6c6c61746572616c20616d6f756e743a20436f6c6c61746572616c20616d6f756e74206d7573742062652067726561746572207468616e207a65726f536166654d6174683a206d756c7469706c69636174696f6e206f766572666c6f77496e76616c696420636f756e746572206f666665723a20436f756e746572206f66666572206d7573742062652067726561746572207468616e207a65726f496e76616c696420626964207072656d69756d3a20426964207072656d69756d206d7573742062652067726561746572207468616e207a65726f4f776e65722063616e6e6f7420626964206f6e207468656972206f776e206f7074696f6e496e76616c696420616d6f756e743a20416d6f756e74206d7573742062652067726561746572207468616e207a65726f4661696c656420746f207472616e7366657220636f6c6c61746572616c20616e64207072656d69756d4661696c656420746f207472616e736665722062696420636f6c6c61746572616c43616e6e6f7420776974686472617720636f6c6c61746572616c20666f7220616e20616374697665206f7074696f6e426964202b207072656d69756d206578636565647320636f6c6c61746572616c206c696d69744f766572666c6f7720696e2065787069726174696f6e2063616c63756c6174696f6e556e617574686f72697a65643a204f6e6c792063726561746f722063616e2063616c6c20746869732066756e6374696f6ea264697066735822122011c04ba9ed5fc7170d261c570951f9becaabaf594de87d45a918ac84663ce97064736f6c63430006080033",
  "linkReferences": {},
  "deployedLinkReferences": {}
}