{
  "_format": "hh-sol-artifact-1",
  "contractName": "ConstellationOracle",
  "sourceName": "contracts/ConstellationOracle.sol",
  "abi": [
    {
      "inputs": [
        {
          "internalType": "address",
          "name": "coreAddress",
          "type": "address"
        },
        {
          "internalType": "address",
          "name": "linkToken",
          "type": "address"
        },
        {
          "internalType": "address",
          "name": "vrfCoordinator",
          "type": "address"
        },
        {
          "internalType": "bytes32",
          "name": "_keyHash",
          "type": "bytes32"
        },
        {
          "internalType": "uint256",
          "name": "_fee",
          "type": "uint256"
        }
      ],
      "stateMutability": "nonpayable",
      "type": "constructor"
    },
    {
      "anonymous": false,
      "inputs": [
        {
          "indexed": true,
          "internalType": "address",
          "name": "previousOwner",
          "type": "address"
        },
        {
          "indexed": true,
          "internalType": "address",
          "name": "newOwner",
          "type": "address"
        }
      ],
      "name": "OwnershipTransferred",
      "type": "event"
    },
    {
      "inputs": [],
      "name": "addToMarketChainlink",
      "outputs": [],
      "stateMutability": "view",
      "type": "function"
    },
    {
      "inputs": [],
      "name": "buyOptionChainlink",
      "outputs": [],
      "stateMutability": "view",
      "type": "function"
    },
    {
      "inputs": [],
      "name": "chainlinkOracle",
      "outputs": [
        {
          "internalType": "address",
          "name": "",
          "type": "address"
        }
      ],
      "stateMutability": "view",
      "type": "function"
    },
    {
      "inputs": [],
      "name": "core",
      "outputs": [
        {
          "internalType": "contract ConstellationCore",
          "name": "",
          "type": "address"
        }
      ],
      "stateMutability": "view",
      "type": "function"
    },
    {
      "inputs": [
        {
          "internalType": "bytes32",
          "name": "requestId",
          "type": "bytes32"
        }
      ],
      "name": "executeOption",
      "outputs": [],
      "stateMutability": "nonpayable",
      "type": "function"
    },
    {
      "inputs": [],
      "name": "fee",
      "outputs": [
        {
          "internalType": "uint256",
          "name": "",
          "type": "uint256"
        }
      ],
      "stateMutability": "view",
      "type": "function"
    },
    {
      "inputs": [
        {
          "internalType": "uint256",
          "name": "randomNumber",
          "type": "uint256"
        }
      ],
      "name": "fulfillPrice",
      "outputs": [],
      "stateMutability": "nonpayable",
      "type": "function"
    },
    {
      "inputs": [],
      "name": "keyHash",
      "outputs": [
        {
          "internalType": "bytes32",
          "name": "",
          "type": "bytes32"
        }
      ],
      "stateMutability": "view",
      "type": "function"
    },
    {
      "inputs": [],
      "name": "latestPrice",
      "outputs": [
        {
          "internalType": "uint256",
          "name": "",
          "type": "uint256"
        }
      ],
      "stateMutability": "view",
      "type": "function"
    },
    {
      "inputs": [],
      "name": "owner",
      "outputs": [
        {
          "internalType": "address",
          "name": "",
          "type": "address"
        }
      ],
      "stateMutability": "view",
      "type": "function"
    },
    {
      "inputs": [
        {
          "internalType": "bytes32",
          "name": "requestId",
          "type": "bytes32"
        },
        {
          "internalType": "uint256",
          "name": "randomness",
          "type": "uint256"
        }
      ],
      "name": "rawFulfillRandomness",
      "outputs": [],
      "stateMutability": "nonpayable",
      "type": "function"
    },
    {
      "inputs": [],
      "name": "renounceOwnership",
      "outputs": [],
      "stateMutability": "nonpayable",
      "type": "function"
    },
    {
      "inputs": [
        {
          "internalType": "address",
          "name": "newOwner",
          "type": "address"
        }
      ],
      "name": "transferOwnership",
      "outputs": [],
      "stateMutability": "nonpayable",
      "type": "function"
    },
    {
      "inputs": [
        {
          "internalType": "bytes32",
          "name": "requestId",
          "type": "bytes32"
        }
      ],
      "name": "updatePrice",
      "outputs": [],
      "stateMutability": "nonpayable",
      "type": "function"
    }
  ],
  "bytecode": "0x60c060405234801561001057600080fd5b50604051610b58380380610b58833981810160405260a081101561003357600080fd5b50805160208201516040830151606084015160809094015192939192909190828460006100676001600160e01b0361010216565b600080546001600160a01b0319166001600160a01b0383169081178255604051929350917f8be0079c531659141344cd1fd0a4f28419497f9722a3daafe3b4186f6b6457e0908290a3506001600160601b0319606092831b811660a052911b16608052600680546001600160a01b03969096166001600160a01b03199687161790556003805490951630179094556004555050600555610106565b3390565b60805160601c60a05160601c610a24610134600039806102e552806106be52508061068f5250610a246000f3fe608060405234801561001057600080fd5b50600436106100ea5760003560e01c8063b9ac0bbf1161008c578063ef06e72c11610066578063ef06e72c146101c9578063f088ded2146101d1578063f2f4eb26146101d9578063f2fde38b146101e1576100ea565b8063b9ac0bbf14610187578063ce912508146101a4578063ddca3f43146101c1576100ea565b806394985ddd116100c857806394985ddd14610137578063a3e6ba941461015a578063aaaf3c1114610162578063b51bf3671461017f576100ea565b806361728f39146100ef578063715018a6146101095780638da5cb5b14610113575b600080fd5b6100f7610207565b60408051918252519081900360200190f35b61011161020d565b005b61011b6102cb565b604080516001600160a01b039092168252519081900360200190f35b6101116004803603604081101561014d57600080fd5b50803590602001356102da565b6100f7610361565b6101116004803603602081101561017857600080fd5b5035610367565b6101116103cf565b6101116004803603602081101561019d57600080fd5b5035610428565b610111600480360360208110156101ba57600080fd5b50356104ea565b6100f76104f8565b61011b6104fe565b61011161050d565b61011b610564565b610111600480360360208110156101f757600080fd5b50356001600160a01b0316610573565b60045481565b610215610687565b6001600160a01b03166102266102cb565b6001600160a01b031614610281576040805162461bcd60e51b815260206004820181905260248201527f4f776e61626c653a2063616c6c6572206973206e6f7420746865206f776e6572604482015290519081900360640190fd5b600080546040516001600160a01b03909116907f8be0079c531659141344cd1fd0a4f28419497f9722a3daafe3b4186f6b6457e0908390a3600080546001600160a01b0319169055565b6000546001600160a01b031690565b336001600160a01b037f00000000000000000000000000000000000000000000000000000000000000001614610357576040805162461bcd60e51b815260206004820152601f60248201527f4f6e6c7920565246436f6f7264696e61746f722063616e2066756c66696c6c00604482015290519081900360640190fd5b61035d82825b5050565b60025481565b6006546040805163a87e49c560e01b81526004810184905290516001600160a01b039092169163a87e49c59160248082019260009290919082900301818387803b1580156103b457600080fd5b505af11580156103c8573d6000803e3d6000fd5b5050505050565b6103d76102cb565b6001600160a01b0316336001600160a01b0316146104265760405162461bcd60e51b81526004018080602001828103825260388152602001806109b76038913960400191505060405180910390fd5b565b610430610687565b6001600160a01b03166104416102cb565b6001600160a01b03161461049c576040805162461bcd60e51b815260206004820181905260248201527f4f776e61626c653a2063616c6c6572206973206e6f7420746865206f776e6572604482015290519081900360640190fd5b6003546001600160a01b031633146104e55760405162461bcd60e51b815260040180806020018281038252603581526020018061095c6035913960400191505060405180910390fd5b600255565b61035d60045460055461068b565b60055481565b6003546001600160a01b031681565b6105156102cb565b6001600160a01b0316336001600160a01b0316146104265760405162461bcd60e51b81526004018080602001828103825260388152602001806109246038913960400191505060405180910390fd5b6006546001600160a01b031681565b61057b610687565b6001600160a01b031661058c6102cb565b6001600160a01b0316146105e7576040805162461bcd60e51b815260206004820181905260248201527f4f776e61626c653a2063616c6c6572206973206e6f7420746865206f776e6572604482015290519081900360640190fd5b6001600160a01b03811661062c5760405162461bcd60e51b81526004018080602001828103825260268152602001806109916026913960400191505060405180910390fd5b600080546040516001600160a01b03808516939216917f8be0079c531659141344cd1fd0a4f28419497f9722a3daafe3b4186f6b6457e091a3600080546001600160a01b0319166001600160a01b0392909216919091179055565b3390565b60007f00000000000000000000000000000000000000000000000000000000000000006001600160a01b0316634000aea07f00000000000000000000000000000000000000000000000000000000000000008486600060405160200180838152602001828152602001925050506040516020818303038152906040526040518463ffffffff1660e01b815260040180846001600160a01b03166001600160a01b0316815260200183815260200180602001828103825283818151815260200191508051906020019080838360005b83811015610771578181015183820152602001610759565b50505050905090810190601f16801561079e5780820380516001836020036101000a031916815260200191505b50945050505050602060405180830381600087803b1580156107bf57600080fd5b505af11580156107d3573d6000803e3d6000fd5b505050506040513d60208110156107e957600080fd5b50506000838152600160205260408120546108099085908390309061084f565b60008581526001602081905260409091205491925061082e919063ffffffff61089616565b60008581526001602052604090205561084784826108f7565b949350505050565b60408051602080820196909652808201949094526001600160a01b039290921660608401526080808401919091528151808403909101815260a09092019052805191012090565b6000828201838110156108f0576040805162461bcd60e51b815260206004820152601b60248201527f536166654d6174683a206164646974696f6e206f766572666c6f770000000000604482015290519081900360640190fd5b9392505050565b60408051602080820194909452808201929092528051808303820181526060909201905280519101209056fe556e617574686f72697a65643a204f6e6c79206f776e65722063616e20627579206f7074696f6e73207573696e6720436861696e6c696e6b556e617574686f72697a65643a204f6e6c7920436861696e6c696e6b206f7261636c652063616e2066756c66696c6c2070726963654f776e61626c653a206e6577206f776e657220697320746865207a65726f2061646472657373556e617574686f72697a65643a204f6e6c79206f776e65722063616e20616464206f7074696f6e73207573696e6720436861696e6c696e6ba2646970667358221220a606098c3964e07cce1ccae8f29f8605cd532cb8dda6c41a7fe6ab5e1dcb91ef64736f6c63430006080033",
  "linkReferences": {},
  "deployedLinkReferences": {}
}