{
  "_format": "hh-sol-artifact-1",
  "contractName": "ConstellationOracle",
  "sourceName": "contracts/ConstellationOracle.sol",
  "abi": [
    {
      "inputs": [
        {
          "internalType": "address",
          "name": "coreAddress",
          "type": "address"
        },
        {
          "internalType": "address",
          "name": "linkToken",
          "type": "address"
        },
        {
          "internalType": "address",
          "name": "vrfCoordinator",
          "type": "address"
        },
        {
          "internalType": "bytes32",
          "name": "_keyHash",
          "type": "bytes32"
        },
        {
          "internalType": "uint256",
          "name": "_fee",
          "type": "uint256"
        }
      ],
      "stateMutability": "nonpayable",
      "type": "constructor"
    },
    {
      "anonymous": false,
      "inputs": [
        {
          "indexed": true,
          "internalType": "address",
          "name": "previousOwner",
          "type": "address"
        },
        {
          "indexed": true,
          "internalType": "address",
          "name": "newOwner",
          "type": "address"
        }
      ],
      "name": "OwnershipTransferred",
      "type": "event"
    },
    {
      "inputs": [],
      "name": "addToMarketChainlink",
      "outputs": [],
      "stateMutability": "view",
      "type": "function"
    },
    {
      "inputs": [],
      "name": "buyOptionChainlink",
      "outputs": [],
      "stateMutability": "view",
      "type": "function"
    },
    {
      "inputs": [],
      "name": "chainlinkOracle",
      "outputs": [
        {
          "internalType": "address",
          "name": "",
          "type": "address"
        }
      ],
      "stateMutability": "view",
      "type": "function"
    },
    {
      "inputs": [],
      "name": "core",
      "outputs": [
        {
          "internalType": "contract ConstellationCore",
          "name": "",
          "type": "address"
        }
      ],
      "stateMutability": "view",
      "type": "function"
    },
    {
      "inputs": [
        {
          "internalType": "bytes32",
          "name": "requestId",
          "type": "bytes32"
        }
      ],
      "name": "executeOption",
      "outputs": [],
      "stateMutability": "nonpayable",
      "type": "function"
    },
    {
      "inputs": [],
      "name": "fee",
      "outputs": [
        {
          "internalType": "uint256",
          "name": "",
          "type": "uint256"
        }
      ],
      "stateMutability": "view",
      "type": "function"
    },
    {
      "inputs": [
        {
          "internalType": "uint256",
          "name": "randomNumber",
          "type": "uint256"
        }
      ],
      "name": "fulfillPrice",
      "outputs": [],
      "stateMutability": "nonpayable",
      "type": "function"
    },
    {
      "inputs": [],
      "name": "keyHash",
      "outputs": [
        {
          "internalType": "bytes32",
          "name": "",
          "type": "bytes32"
        }
      ],
      "stateMutability": "view",
      "type": "function"
    },
    {
      "inputs": [],
      "name": "latestPrice",
      "outputs": [
        {
          "internalType": "uint256",
          "name": "",
          "type": "uint256"
        }
      ],
      "stateMutability": "view",
      "type": "function"
    },
    {
      "inputs": [],
      "name": "owner",
      "outputs": [
        {
          "internalType": "address",
          "name": "",
          "type": "address"
        }
      ],
      "stateMutability": "view",
      "type": "function"
    },
    {
      "inputs": [
        {
          "internalType": "bytes32",
          "name": "requestId",
          "type": "bytes32"
        },
        {
          "internalType": "uint256",
          "name": "randomness",
          "type": "uint256"
        }
      ],
      "name": "rawFulfillRandomness",
      "outputs": [],
      "stateMutability": "nonpayable",
      "type": "function"
    },
    {
      "inputs": [],
      "name": "renounceOwnership",
      "outputs": [],
      "stateMutability": "nonpayable",
      "type": "function"
    },
    {
      "inputs": [
        {
          "internalType": "address",
          "name": "newOwner",
          "type": "address"
        }
      ],
      "name": "transferOwnership",
      "outputs": [],
      "stateMutability": "nonpayable",
      "type": "function"
    },
    {
      "inputs": [
        {
          "internalType": "bytes32",
          "name": "requestId",
          "type": "bytes32"
        }
      ],
      "name": "updatePrice",
      "outputs": [],
      "stateMutability": "nonpayable",
      "type": "function"
    }
  ],
  "bytecode": "0x60c060405234801561001057600080fd5b50604051610a09380380610a0983398101604081905261002f916100f7565b828461003a3361008b565b6001600160601b0319606092831b811660a052911b16608052600680546001600160a01b03969096166001600160a01b0319968716179055600380549095163017909455600455505060055561014d565b600080546001600160a01b038381166001600160a01b0319831681178455604051919092169283917f8be0079c531659141344cd1fd0a4f28419497f9722a3daafe3b4186f6b6457e09190a35050565b80516001600160a01b03811681146100f257600080fd5b919050565b600080600080600060a0868803121561010f57600080fd5b610118866100db565b9450610126602087016100db565b9350610134604087016100db565b6060870151608090970151959894975095949392505050565b60805160601c60a05160601c61088a61017f6000396000818161020001526105d5015260006105a6015261088a6000f3fe608060405234801561001057600080fd5b50600436106100ea5760003560e01c8063b9ac0bbf1161008c578063ef06e72c11610066578063ef06e72c146101a0578063f088ded2146101b3578063f2f4eb26146101bb578063f2fde38b146101ce57600080fd5b8063b9ac0bbf14610171578063ce91250814610184578063ddca3f431461019757600080fd5b806394985ddd116100c857806394985ddd1461013a578063a3e6ba941461014d578063aaaf3c1114610156578063b51bf3671461016957600080fd5b806361728f39146100ef578063715018a61461010b5780638da5cb5b14610115575b600080fd5b6100f860045481565b6040519081526020015b60405180910390f35b6101136101e1565b005b6000546001600160a01b03165b6040516001600160a01b039091168152602001610102565b61011361014836600461079f565b6101f5565b6100f860025481565b610113610164366004610786565b610276565b6101136102d7565b61011361017f366004610786565b610357565b610113610192366004610786565b6103e4565b6100f860055481565b600354610122906001600160a01b031681565b6101136103f2565b600654610122906001600160a01b031681565b6101136101dc366004610734565b610472565b6101e96104eb565b6101f36000610545565b565b336001600160a01b037f000000000000000000000000000000000000000000000000000000000000000016146102725760405162461bcd60e51b815260206004820152601f60248201527f4f6e6c7920565246436f6f7264696e61746f722063616e2066756c66696c6c0060448201526064015b60405180910390fd5b5050565b60065460405163a87e49c560e01b8152600481018390526001600160a01b039091169063a87e49c590602401600060405180830381600087803b1580156102bc57600080fd5b505af11580156102d0573d6000803e3d6000fd5b5050505050565b6000546001600160a01b031633146101f35760405162461bcd60e51b815260206004820152603860248201527f556e617574686f72697a65643a204f6e6c79206f776e65722063616e2061646460448201527f206f7074696f6e73207573696e6720436861696e6c696e6b00000000000000006064820152608401610269565b61035f6104eb565b6003546001600160a01b031633146103df5760405162461bcd60e51b815260206004820152603560248201527f556e617574686f72697a65643a204f6e6c7920436861696e6c696e6b206f726160448201527f636c652063616e2066756c66696c6c20707269636500000000000000000000006064820152608401610269565b600255565b6102726004546005546105a2565b6000546001600160a01b031633146101f35760405162461bcd60e51b815260206004820152603860248201527f556e617574686f72697a65643a204f6e6c79206f776e65722063616e2062757960448201527f206f7074696f6e73207573696e6720436861696e6c696e6b00000000000000006064820152608401610269565b61047a6104eb565b6001600160a01b0381166104df5760405162461bcd60e51b815260206004820152602660248201527f4f776e61626c653a206e6577206f776e657220697320746865207a65726f206160448201526564647265737360d01b6064820152608401610269565b6104e881610545565b50565b6000546001600160a01b031633146101f35760405162461bcd60e51b815260206004820181905260248201527f4f776e61626c653a2063616c6c6572206973206e6f7420746865206f776e65726044820152606401610269565b600080546001600160a01b0383811673ffffffffffffffffffffffffffffffffffffffff19831681178455604051919092169283917f8be0079c531659141344cd1fd0a4f28419497f9722a3daafe3b4186f6b6457e09190a35050565b60007f00000000000000000000000000000000000000000000000000000000000000006001600160a01b0316634000aea07f000000000000000000000000000000000000000000000000000000000000000084866000604051602001610612929190918252602082015260400190565b6040516020818303038152906040526040518463ffffffff1660e01b815260040161063f939291906107c1565b602060405180830381600087803b15801561065957600080fd5b505af115801561066d573d6000803e3d6000fd5b505050506040513d601f19601f820116820180604052508101906106919190610764565b50600083815260016020818152604080842054815180840189905280830186905230606082015260808082018390528351808303909101815260a090910190925281519183019190912093879052908290526106ec9161082e565b60008581526001602052604090205561072c8482604080516020808201949094528082019290925280518083038201815260609092019052805191012090565b949350505050565b60006020828403121561074657600080fd5b81356001600160a01b038116811461075d57600080fd5b9392505050565b60006020828403121561077657600080fd5b8151801515811461075d57600080fd5b60006020828403121561079857600080fd5b5035919050565b600080604083850312156107b257600080fd5b50508035926020909101359150565b6001600160a01b038416815260006020848184015260606040840152835180606085015260005b81811015610804578581018301518582016080015282016107e8565b81811115610816576000608083870101525b50601f01601f19169290920160800195945050505050565b6000821982111561084f57634e487b7160e01b600052601160045260246000fd5b50019056fea2646970667358221220258cbc3ed24f1fb48373fef15ffa987b8e19c7dcbd8d220672e235b8f26d25a364736f6c63430008070033",
  "linkReferences": {},
  "deployedLinkReferences": {}
}