{
  "_format": "hh-sol-artifact-1",
  "contractName": "ChainlinkMock",
  "sourceName": "contracts/ChainlinkMock.sol",
  "abi": [
    {
      "inputs": [
        {
          "internalType": "address",
          "name": "_vrfCoordinator",
          "type": "address"
        },
        {
          "internalType": "bytes32",
          "name": "_keyHash",
          "type": "bytes32"
        },
        {
          "internalType": "uint256",
          "name": "_fee",
          "type": "uint256"
        },
        {
          "internalType": "address",
          "name": "_link",
          "type": "address"
        }
      ],
      "stateMutability": "nonpayable",
      "type": "constructor"
    },
    {
      "anonymous": false,
      "inputs": [
        {
          "indexed": true,
          "internalType": "bytes32",
          "name": "requestId",
          "type": "bytes32"
        },
        {
          "indexed": false,
          "internalType": "uint256",
          "name": "randomness",
          "type": "uint256"
        }
      ],
      "name": "RandomNumberFulfilled",
      "type": "event"
    },
    {
      "anonymous": false,
      "inputs": [
        {
          "indexed": true,
          "internalType": "bytes32",
          "name": "requestId",
          "type": "bytes32"
        }
      ],
      "name": "RandomNumberRequested",
      "type": "event"
    },
    {
      "inputs": [],
      "name": "latestRandomNumber",
      "outputs": [
        {
          "internalType": "uint256",
          "name": "",
          "type": "uint256"
        }
      ],
      "stateMutability": "view",
      "type": "function"
    },
    {
      "inputs": [],
      "name": "latestRequestId",
      "outputs": [
        {
          "internalType": "bytes32",
          "name": "",
          "type": "bytes32"
        }
      ],
      "stateMutability": "view",
      "type": "function"
    },
    {
      "inputs": [],
      "name": "mockRequestRandomNumber",
      "outputs": [],
      "stateMutability": "nonpayable",
      "type": "function"
    },
    {
      "inputs": [
        {
          "internalType": "bytes32",
          "name": "requestId",
          "type": "bytes32"
        },
        {
          "internalType": "uint256",
          "name": "randomness",
          "type": "uint256"
        }
      ],
      "name": "rawFulfillRandomness",
      "outputs": [],
      "stateMutability": "nonpayable",
      "type": "function"
    },
    {
      "inputs": [],
      "name": "resetState",
      "outputs": [],
      "stateMutability": "nonpayable",
      "type": "function"
    }
  ],
  "bytecode": "0x60c060405234801561001057600080fd5b506040516106dd3803806106dd8339818101604052608081101561003357600080fd5b508051602082015160408301516060938401516001600160601b031984861b811660a0529481901b909416608052600191909155600255600580546001600160a01b0319166001600160a01b0392831690811790915591169061062f6100ae6000398061013052806102205250806101e4525061062f6000f3fe608060405234801561001057600080fd5b50600436106100675760003560e01c8063409f967c11610050578063409f967c1461008e57806394985ddd14610098578063f9e19fa5146100bb57610067565b806316fe73ec1461006c5780631aa46f5914610086575b600080fd5b6100746100c3565b60408051918252519081900360200190f35b6100746100c9565b6100966100cf565b005b610096600480360360408110156100ae57600080fd5b5080359060200135610118565b6100966101ca565b60035490565b60045490565b600480546001908101909155546002546100e991906101e0565b506004546040517f1f528edfe7e851f18127c23c0853d428822bcefe59219e6afb0c6f25ffe9d51090600090a2565b3373ffffffffffffffffffffffffffffffffffffffff7f000000000000000000000000000000000000000000000000000000000000000016146101bc57604080517f08c379a000000000000000000000000000000000000000000000000000000000815260206004820152601f60248201527f4f6e6c7920565246436f6f7264696e61746f722063616e2066756c66696c6c00604482015290519081900360640190fd5b6101c682826103c9565b5050565b6000600181905560028190556003819055600455565b60007f000000000000000000000000000000000000000000000000000000000000000073ffffffffffffffffffffffffffffffffffffffff16634000aea07f00000000000000000000000000000000000000000000000000000000000000008486600060405160200180838152602001828152602001925050506040516020818303038152906040526040518463ffffffff1660e01b8152600401808473ffffffffffffffffffffffffffffffffffffffff1673ffffffffffffffffffffffffffffffffffffffff16815260200183815260200180602001828103825283818151815260200191508051906020019080838360005b838110156102ed5781810151838201526020016102d5565b50505050905090810190601f16801561031a5780820380516001836020036101000a031916815260200191505b50945050505050602060405180830381600087803b15801561033b57600080fd5b505af115801561034f573d6000803e3d6000fd5b505050506040513d602081101561036557600080fd5b5050600083815260208190526040812054610385908590839030906104fe565b6000858152602081905260409020549091506103a890600163ffffffff61055216565b6000858152602081905260409020556103c184826105cd565b949350505050565b60055473ffffffffffffffffffffffffffffffffffffffff16331461044f57604080517f08c379a000000000000000000000000000000000000000000000000000000000815260206004820181905260248201527f4f6e6c792056524620436f6f7264696e61746f722063616e2066756c66696c6c604482015290519081900360640190fd5b60045482146104bf57604080517f08c379a000000000000000000000000000000000000000000000000000000000815260206004820152601160248201527f496e76616c696420726571756573744964000000000000000000000000000000604482015290519081900360640190fd5b600381905560408051828152905183917fc5098934039a51927e3f89b0a4388e6897b4069f847aa23cc0ce3a0b3311d41e919081900360200190a25050565b604080516020808201969096528082019490945273ffffffffffffffffffffffffffffffffffffffff9290921660608401526080808401919091528151808403909101815260a09092019052805191012090565b6000828201838110156105c657604080517f08c379a000000000000000000000000000000000000000000000000000000000815260206004820152601b60248201527f536166654d6174683a206164646974696f6e206f766572666c6f770000000000604482015290519081900360640190fd5b9392505050565b60408051602080820194909452808201929092528051808303820181526060909201905280519101209056fea2646970667358221220ea8d85d293cd7f2bdcccbf925aada45938e532e8c57e328a31864fa1e7322eaa64736f6c63430006080033",
  "linkReferences": {},
  "deployedLinkReferences": {}
}