{
  "_format": "hh-sol-artifact-1",
  "contractName": "ConstellationAdmin",
  "sourceName": "contracts/ConstellationAdmin.sol",
  "abi": [
    {
      "inputs": [
        {
          "internalType": "address",
          "name": "coreAddress",
          "type": "address"
        }
      ],
      "stateMutability": "nonpayable",
      "type": "constructor"
    },
    {
      "anonymous": false,
      "inputs": [
        {
          "indexed": true,
          "internalType": "address",
          "name": "previousOwner",
          "type": "address"
        },
        {
          "indexed": true,
          "internalType": "address",
          "name": "newOwner",
          "type": "address"
        }
      ],
      "name": "OwnershipTransferred",
      "type": "event"
    },
    {
      "inputs": [],
      "name": "core",
      "outputs": [
        {
          "internalType": "contract IConstellationCore",
          "name": "",
          "type": "address"
        }
      ],
      "stateMutability": "view",
      "type": "function"
    },
    {
      "inputs": [],
      "name": "owner",
      "outputs": [
        {
          "internalType": "address",
          "name": "",
          "type": "address"
        }
      ],
      "stateMutability": "view",
      "type": "function"
    },
    {
      "inputs": [],
      "name": "pause",
      "outputs": [],
      "stateMutability": "nonpayable",
      "type": "function"
    },
    {
      "inputs": [],
      "name": "renounceOwnership",
      "outputs": [],
      "stateMutability": "nonpayable",
      "type": "function"
    },
    {
      "inputs": [
        {
          "internalType": "address",
          "name": "newCreator",
          "type": "address"
        }
      ],
      "name": "setCreator",
      "outputs": [],
      "stateMutability": "nonpayable",
      "type": "function"
    },
    {
      "inputs": [
        {
          "internalType": "address",
          "name": "newOwner",
          "type": "address"
        }
      ],
      "name": "transferOwnership",
      "outputs": [],
      "stateMutability": "nonpayable",
      "type": "function"
    },
    {
      "inputs": [],
      "name": "unpause",
      "outputs": [],
      "stateMutability": "nonpayable",
      "type": "function"
    }
  ],
  "bytecode": "0x608060405234801561001057600080fd5b506040516107ef3803806107ef83398101604081905261002f916100ad565b6100383361005d565b600180546001600160a01b0319166001600160a01b03929092169190911790556100dd565b600080546001600160a01b038381166001600160a01b0319831681178455604051919092169283917f8be0079c531659141344cd1fd0a4f28419497f9722a3daafe3b4186f6b6457e09190a35050565b6000602082840312156100bf57600080fd5b81516001600160a01b03811681146100d657600080fd5b9392505050565b610703806100ec6000396000f3fe608060405234801561001057600080fd5b506004361061007d5760003560e01c80638456cb591161005b5780638456cb59146100a75780638da5cb5b146100af578063f2f4eb26146100d8578063f2fde38b146100eb57600080fd5b80633f4ba83a146100825780633f5160181461008c578063715018a61461009f575b600080fd5b61008a6100fe565b005b61008a61009a36600461067b565b610275565b61008a6103df565b61008a6103f3565b6000546001600160a01b03165b6040516001600160a01b03909116815260200160405180910390f35b6001546100bc906001600160a01b031681565b61008a6100f936600461067b565b61054b565b6101066105c4565b600160009054906101000a90046001600160a01b03166001600160a01b0316630ee2cb106040518163ffffffff1660e01b815260040160206040518083038186803b15801561015457600080fd5b505afa158015610168573d6000803e3d6000fd5b505050506040513d601f19601f8201168201806040525081019061018c919061069f565b6001600160a01b0316336001600160a01b03161461020b5760405162461bcd60e51b815260206004820152603160248201527f556e617574686f72697a65643a204f6e6c792063726561746f722063616e206360448201527030b636103a3434b990333ab731ba34b7b760791b60648201526084015b60405180910390fd5b600160009054906101000a90046001600160a01b03166001600160a01b0316633f4ba83a6040518163ffffffff1660e01b8152600401600060405180830381600087803b15801561025b57600080fd5b505af115801561026f573d6000803e3d6000fd5b50505050565b61027d6105c4565b600160009054906101000a90046001600160a01b03166001600160a01b0316630ee2cb106040518163ffffffff1660e01b815260040160206040518083038186803b1580156102cb57600080fd5b505afa1580156102df573d6000803e3d6000fd5b505050506040513d601f19601f82011682018060405250810190610303919061069f565b6001600160a01b0316336001600160a01b03161461037d5760405162461bcd60e51b815260206004820152603160248201527f556e617574686f72697a65643a204f6e6c792063726561746f722063616e206360448201527030b636103a3434b990333ab731ba34b7b760791b6064820152608401610202565b6001546040516307ea2c0360e31b81526001600160a01b03838116600483015290911690633f51601890602401600060405180830381600087803b1580156103c457600080fd5b505af11580156103d8573d6000803e3d6000fd5b5050505050565b6103e76105c4565b6103f1600061061e565b565b6103fb6105c4565b600160009054906101000a90046001600160a01b03166001600160a01b0316630ee2cb106040518163ffffffff1660e01b815260040160206040518083038186803b15801561044957600080fd5b505afa15801561045d573d6000803e3d6000fd5b505050506040513d601f19601f82011682018060405250810190610481919061069f565b6001600160a01b0316336001600160a01b0316146104fb5760405162461bcd60e51b815260206004820152603160248201527f556e617574686f72697a65643a204f6e6c792063726561746f722063616e206360448201527030b636103a3434b990333ab731ba34b7b760791b6064820152608401610202565b600160009054906101000a90046001600160a01b03166001600160a01b0316638456cb596040518163ffffffff1660e01b8152600401600060405180830381600087803b15801561025b57600080fd5b6105536105c4565b6001600160a01b0381166105b85760405162461bcd60e51b815260206004820152602660248201527f4f776e61626c653a206e6577206f776e657220697320746865207a65726f206160448201526564647265737360d01b6064820152608401610202565b6105c18161061e565b50565b6000546001600160a01b031633146103f15760405162461bcd60e51b815260206004820181905260248201527f4f776e61626c653a2063616c6c6572206973206e6f7420746865206f776e65726044820152606401610202565b600080546001600160a01b0383811673ffffffffffffffffffffffffffffffffffffffff19831681178455604051919092169283917f8be0079c531659141344cd1fd0a4f28419497f9722a3daafe3b4186f6b6457e09190a35050565b60006020828403121561068d57600080fd5b8135610698816106b8565b9392505050565b6000602082840312156106b157600080fd5b8151610698815b6001600160a01b03811681146105c157600080fdfea26469706673582212204e3b4d7a081ce89da0ad27beb4dc90bea6444e12ace02ee71be33591fa675d0764736f6c63430008070033",
  "linkReferences": {},
  "deployedLinkReferences": {}
}