{
  "_format": "hh-sol-artifact-1",
  "contractName": "ConstellationAdmin",
  "sourceName": "contracts/ConstellationAdmin.sol",
  "abi": [
    {
      "inputs": [
        {
          "internalType": "address",
          "name": "coreAddress",
          "type": "address"
        }
      ],
      "stateMutability": "nonpayable",
      "type": "constructor"
    },
    {
      "anonymous": false,
      "inputs": [
        {
          "indexed": true,
          "internalType": "address",
          "name": "previousOwner",
          "type": "address"
        },
        {
          "indexed": true,
          "internalType": "address",
          "name": "newOwner",
          "type": "address"
        }
      ],
      "name": "OwnershipTransferred",
      "type": "event"
    },
    {
      "inputs": [],
      "name": "core",
      "outputs": [
        {
          "internalType": "contract IConstellationCore",
          "name": "",
          "type": "address"
        }
      ],
      "stateMutability": "view",
      "type": "function"
    },
    {
      "inputs": [],
      "name": "owner",
      "outputs": [
        {
          "internalType": "address",
          "name": "",
          "type": "address"
        }
      ],
      "stateMutability": "view",
      "type": "function"
    },
    {
      "inputs": [],
      "name": "pause",
      "outputs": [],
      "stateMutability": "nonpayable",
      "type": "function"
    },
    {
      "inputs": [],
      "name": "renounceOwnership",
      "outputs": [],
      "stateMutability": "nonpayable",
      "type": "function"
    },
    {
      "inputs": [
        {
          "internalType": "address",
          "name": "newCreator",
          "type": "address"
        }
      ],
      "name": "setCreator",
      "outputs": [],
      "stateMutability": "nonpayable",
      "type": "function"
    },
    {
      "inputs": [
        {
          "internalType": "address",
          "name": "newOwner",
          "type": "address"
        }
      ],
      "name": "transferOwnership",
      "outputs": [],
      "stateMutability": "nonpayable",
      "type": "function"
    },
    {
      "inputs": [],
      "name": "unpause",
      "outputs": [],
      "stateMutability": "nonpayable",
      "type": "function"
    }
  ],
  "bytecode": "0x608060405234801561001057600080fd5b506040516109383803806109388339818101604052602081101561003357600080fd5b505160006100486001600160e01b036100b716565b600080546001600160a01b0319166001600160a01b0383169081178255604051929350917f8be0079c531659141344cd1fd0a4f28419497f9722a3daafe3b4186f6b6457e0908290a350600180546001600160a01b0319166001600160a01b03929092169190911790556100bb565b3390565b61086e806100ca6000396000f3fe608060405234801561001057600080fd5b506004361061007d5760003560e01c80638456cb591161005b5780638456cb59146100ba5780638da5cb5b146100c2578063f2f4eb26146100e6578063f2fde38b146100ee5761007d565b80633f4ba83a146100825780633f5160181461008c578063715018a6146100b2575b600080fd5b61008a610114565b005b61008a600480360360208110156100a257600080fd5b50356001600160a01b03166102b2565b61008a61044f565b61008a61051a565b6100ca61069e565b604080516001600160a01b039092168252519081900360200190f35b6100ca6106ad565b61008a6004803603602081101561010457600080fd5b50356001600160a01b03166106bc565b61011c6107dd565b6001600160a01b031661012d61069e565b6001600160a01b031614610188576040805162461bcd60e51b815260206004820181905260248201527f4f776e61626c653a2063616c6c6572206973206e6f7420746865206f776e6572604482015290519081900360640190fd5b600160009054906101000a90046001600160a01b03166001600160a01b0316630ee2cb106040518163ffffffff1660e01b815260040160206040518083038186803b1580156101d657600080fd5b505afa1580156101ea573d6000803e3d6000fd5b505050506040513d602081101561020057600080fd5b50516001600160a01b031633146102485760405162461bcd60e51b81526004018080602001828103825260318152602001806108086031913960400191505060405180910390fd5b600160009054906101000a90046001600160a01b03166001600160a01b0316633f4ba83a6040518163ffffffff1660e01b8152600401600060405180830381600087803b15801561029857600080fd5b505af11580156102ac573d6000803e3d6000fd5b50505050565b6102ba6107dd565b6001600160a01b03166102cb61069e565b6001600160a01b031614610326576040805162461bcd60e51b815260206004820181905260248201527f4f776e61626c653a2063616c6c6572206973206e6f7420746865206f776e6572604482015290519081900360640190fd5b600160009054906101000a90046001600160a01b03166001600160a01b0316630ee2cb106040518163ffffffff1660e01b815260040160206040518083038186803b15801561037457600080fd5b505afa158015610388573d6000803e3d6000fd5b505050506040513d602081101561039e57600080fd5b50516001600160a01b031633146103e65760405162461bcd60e51b81526004018080602001828103825260318152602001806108086031913960400191505060405180910390fd5b600154604080516307ea2c0360e31b81526001600160a01b03848116600483015291519190921691633f51601891602480830192600092919082900301818387803b15801561043457600080fd5b505af1158015610448573d6000803e3d6000fd5b5050505050565b6104576107dd565b6001600160a01b031661046861069e565b6001600160a01b0316146104c3576040805162461bcd60e51b815260206004820181905260248201527f4f776e61626c653a2063616c6c6572206973206e6f7420746865206f776e6572604482015290519081900360640190fd5b600080546040516001600160a01b03909116907f8be0079c531659141344cd1fd0a4f28419497f9722a3daafe3b4186f6b6457e0908390a36000805473ffffffffffffffffffffffffffffffffffffffff19169055565b6105226107dd565b6001600160a01b031661053361069e565b6001600160a01b03161461058e576040805162461bcd60e51b815260206004820181905260248201527f4f776e61626c653a2063616c6c6572206973206e6f7420746865206f776e6572604482015290519081900360640190fd5b600160009054906101000a90046001600160a01b03166001600160a01b0316630ee2cb106040518163ffffffff1660e01b815260040160206040518083038186803b1580156105dc57600080fd5b505afa1580156105f0573d6000803e3d6000fd5b505050506040513d602081101561060657600080fd5b50516001600160a01b0316331461064e5760405162461bcd60e51b81526004018080602001828103825260318152602001806108086031913960400191505060405180910390fd5b600160009054906101000a90046001600160a01b03166001600160a01b0316638456cb596040518163ffffffff1660e01b8152600401600060405180830381600087803b15801561029857600080fd5b6000546001600160a01b031690565b6001546001600160a01b031681565b6106c46107dd565b6001600160a01b03166106d561069e565b6001600160a01b031614610730576040805162461bcd60e51b815260206004820181905260248201527f4f776e61626c653a2063616c6c6572206973206e6f7420746865206f776e6572604482015290519081900360640190fd5b6001600160a01b0381166107755760405162461bcd60e51b81526004018080602001828103825260268152602001806107e26026913960400191505060405180910390fd5b600080546040516001600160a01b03808516939216917f8be0079c531659141344cd1fd0a4f28419497f9722a3daafe3b4186f6b6457e091a36000805473ffffffffffffffffffffffffffffffffffffffff19166001600160a01b0392909216919091179055565b339056fe4f776e61626c653a206e6577206f776e657220697320746865207a65726f2061646472657373556e617574686f72697a65643a204f6e6c792063726561746f722063616e2063616c6c20746869732066756e6374696f6ea2646970667358221220e2b4b78df11cd769fc7a0a9c961e7434c68d59dd93fb36d1cd70aa720b38d45c64736f6c63430006080033",
  "linkReferences": {},
  "deployedLinkReferences": {}
}