{
  "_format": "hh-sol-artifact-1",
  "contractName": "Lock",
  "sourceName": "contracts/Lock.sol",
  "abi": [
    {
      "anonymous": false,
      "inputs": [
        {
          "indexed": false,
          "internalType": "uint256",
          "name": "amount",
          "type": "uint256"
        },
        {
          "indexed": false,
          "internalType": "uint256",
          "name": "when",
          "type": "uint256"
        }
      ],
      "name": "Withdrawal",
      "type": "event"
    },
    {
      "inputs": [
        {
          "internalType": "uint256",
          "name": "_unlockTime",
          "type": "uint256"
        }
      ],
      "name": "__constructor",
      "outputs": [],
      "stateMutability": "payable",
      "type": "function"
    },
    {
      "inputs": [],
      "name": "owner",
      "outputs": [
        {
          "internalType": "address payable",
          "name": "",
          "type": "address"
        }
      ],
      "stateMutability": "view",
      "type": "function"
    },
    {
      "inputs": [],
      "name": "unlockTime",
      "outputs": [
        {
          "internalType": "uint256",
          "name": "",
          "type": "uint256"
        }
      ],
      "stateMutability": "view",
      "type": "function"
    },
    {
      "inputs": [],
      "name": "withdraw",
      "outputs": [],
      "stateMutability": "nonpayable",
      "type": "function"
    }
  ],
  "bytecode": "0x608060405234801561001057600080fd5b506102c2806100206000396000f3fe60806040526004361061003f5760003560e01c8063251c1aa3146100445780633ccfd60b1461006d578063740fc00a146100845780638da5cb5b14610097575b600080fd5b34801561005057600080fd5b5061005a60005481565b6040519081526020015b60405180910390f35b34801561007957600080fd5b506100826100cf565b005b610082610092366004610273565b6101f4565b3480156100a357600080fd5b506001546100b7906001600160a01b031681565b6040516001600160a01b039091168152602001610064565b6000544210156101265760405162461bcd60e51b815260206004820152601660248201527f596f752063616e2774207769746864726177207965740000000000000000000060448201526064015b60405180910390fd5b6001546001600160a01b031633146101805760405162461bcd60e51b815260206004820152601460248201527f596f75206172656e277420746865206f776e6572000000000000000000000000604482015260640161011d565b604080514781524260208201527fbf2ed60bd5b5965d685680c01195c9514e4382e28e3a5a2d2d5244bf59411b93910160405180910390a16001546040516001600160a01b03909116904780156108fc02916000818181858888f193505050501580156101f1573d6000803e3d6000fd5b50565b80421061024f5760405162461bcd60e51b815260206004820152602360248201527f556e6c6f636b2074696d652073686f756c6420626520696e207468652066757460448201526275726560e81b606482015260840161011d565b6000556001805473ffffffffffffffffffffffffffffffffffffffff191633179055565b60006020828403121561028557600080fd5b503591905056fea2646970667358221220c87f34d7a7f64c0a94e2a2516c39e4798917d0c05f9da45908c06fc9028fbda764736f6c63430008070033",
  "linkReferences": {},
  "deployedLinkReferences": {}
}