{"contracts/ConstellationMarket.sol":{"ConstellationMarket":{"abi":[{"inputs":[{"internalType":"address","name":"coreAddress","type":"address"}],"stateMutability":"nonpayable","type":"constructor"},{"inputs":[{"internalType":"uint256","name":"id","type":"uint256"}],"name":"acceptBid","outputs":[],"stateMutability":"nonpayable","type":"function"},{"inputs":[{"internalType":"uint256","name":"id","type":"uint256"}],"name":"acceptOffer","outputs":[],"stateMutability":"nonpayable","type":"function"},{"inputs":[{"internalType":"uint256","name":"id","type":"uint256"},{"internalType":"uint256[]","name":"price","type":"uint256[]"}],"name":"addToMarket","outputs":[],"stateMutability":"nonpayable","type":"function"},{"inputs":[{"internalType":"uint256","name":"id","type":"uint256"},{"internalType":"uint256[]","name":"offer","type":"uint256[]"}],"name":"bid","outputs":[],"stateMutability":"payable","type":"function"},{"inputs":[{"internalType":"uint256","name":"id","type":"uint256"}],"name":"buyOption","outputs":[],"stateMutability":"payable","type":"function"},{"inputs":[{"internalType":"uint256","name":"id","type":"uint256"}],"name":"checkOnlyIfNotActive","outputs":[],"stateMutability":"view","type":"function"},{"inputs":[],"name":"core","outputs":[{"internalType":"contract IConstellationCore","name":"","type":"address"}],"stateMutability":"view","type":"function"},{"inputs":[{"internalType":"uint256[]","name":"counterOffer","type":"uint256[]"},{"internalType":"uint256","name":"expires","type":"uint256"},{"internalType":"address","name":"collateralToken","type":"address"},{"internalType":"uint256","name":"collateralAmount","type":"uint256"},{"internalType":"uint256","name":"maxUnits","type":"uint256"}],"name":"createOption","outputs":[{"internalType":"uint256","name":"","type":"uint256"}],"stateMutability":"nonpayable","type":"function"},{"inputs":[{"internalType":"uint256","name":"id","type":"uint256"}],"name":"executeOption","outputs":[],"stateMutability":"nonpayable","type":"function"},{"inputs":[{"internalType":"uint256","name":"id","type":"uint256"},{"internalType":"uint256","name":"additionalDuration","type":"uint256"}],"name":"extendBidDuration","outputs":[],"stateMutability":"nonpayable","type":"function"},{"inputs":[{"internalType":"uint256","name":"id","type":"uint256"},{"internalType":"uint256","name":"additionalDuration","type":"uint256"}],"name":"extendOfferDuration","outputs":[],"stateMutability":"nonpayable","type":"function"},{"inputs":[],"name":"getConfig","outputs":[{"internalType":"address","name":"creator","type":"address"},{"internalType":"uint256","name":"totalOptionsNum","type":"uint256"}],"stateMutability":"view","type":"function"},{"inputs":[{"internalType":"uint256","name":"id","type":"uint256"}],"name":"getCounterOffer","outputs":[{"internalType":"uint256[]","name":"","type":"uint256[]"}],"stateMutability":"view","type":"function"},{"inputs":[{"internalType":"uint256","name":"id","type":"uint256"}],"name":"getExpiry","outputs":[{"internalType":"uint256","name":"expires","type":"uint256"}],"stateMutability":"view","type":"function"},{"inputs":[{"internalType":"uint256","name":"id","type":"uint256"}],"name":"getMarketListed","outputs":[{"internalType":"bool","name":"","type":"bool"}],"stateMutability":"view","type":"function"},{"inputs":[{"internalType":"uint256","name":"id","type":"uint256"}],"name":"getOption","outputs":[{"components":[{"internalType":"address","name":"creator","type":"address"},{"internalType":"address","name":"owner","type":"address"},{"internalType":"address","name":"collateralToken","type":"address"},{"internalType":"uint256","name":"collateralAmount","type":"uint256"},{"internalType":"uint256[]","name":"counterOffer","type":"uint256[]"},{"internalType":"enum Constants.OptionStatus","name":"status","type":"uint8"},{"internalType":"uint256[]","name":"price","type":"uint256[]"},{"internalType":"uint256","name":"expires","type":"uint256"},{"internalType":"uint256","name":"units","type":"uint256"}],"internalType":"struct Constants.Data","name":"","type":"tuple"}],"stateMutability":"view","type":"function"},{"inputs":[{"internalType":"uint256","name":"id","type":"uint256"}],"name":"getPrice","outputs":[{"internalType":"uint256[]","name":"","type":"uint256[]"}],"stateMutability":"view","type":"function"},{"inputs":[{"internalType":"uint256","name":"id","type":"uint256"}],"name":"isListed","outputs":[{"internalType":"bool","name":"","type":"bool"}],"stateMutability":"view","type":"function"},{"inputs":[{"internalType":"uint256","name":"id","type":"uint256"},{"internalType":"uint256[]","name":"bidOffer","type":"uint256[]"},{"internalType":"uint256[]","name":"oracleData","type":"uint256[]"}],"name":"newBid","outputs":[],"stateMutability":"nonpayable","type":"function"},{"inputs":[{"internalType":"uint256","name":"id","type":"uint256"}],"name":"newResetBids","outputs":[],"stateMutability":"nonpayable","type":"function"},{"inputs":[{"internalType":"uint256","name":"id","type":"uint256"},{"internalType":"uint256[]","name":"offerPrice","type":"uint256[]"}],"name":"offer","outputs":[],"stateMutability":"nonpayable","type":"function"},{"inputs":[{"internalType":"uint256","name":"id","type":"uint256"},{"internalType":"uint256","name":"amount","type":"uint256"}],"name":"offerAmt","outputs":[],"stateMutability":"nonpayable","type":"function"},{"inputs":[{"internalType":"uint256","name":"id","type":"uint256"}],"name":"removeFromMarket","outputs":[],"stateMutability":"nonpayable","type":"function"},{"inputs":[{"internalType":"uint256","name":"id","type":"uint256"},{"internalType":"uint256","name":"amount","type":"uint256"}],"name":"simpleBid","outputs":[],"stateMutability":"payable","type":"function"},{"inputs":[{"internalType":"uint256","name":"id","type":"uint256"}],"name":"withdrawBid","outputs":[],"stateMutability":"nonpayable","type":"function"},{"inputs":[{"internalType":"uint256","name":"id","type":"uint256"}],"name":"withdrawCollateral","outputs":[],"stateMutability":"nonpayable","type":"function"},{"inputs":[{"internalType":"uint256","name":"id","type":"uint256"}],"name":"withdrawOffer","outputs":[],"stateMutability":"nonpayable","type":"function"},{"inputs":[{"internalType":"uint256","name":"id","type":"uint256"},{"internalType":"uint256","name":"percent","type":"uint256"}],"name":"withdrawPartialBid","outputs":[],"stateMutability":"nonpayable","type":"function"}],"evm":{"bytecode":{"linkReferences":{},"object":"60806040523480156200001157600080fd5b50604051620068c2380380620068c283398101604081905262000034916200005a565b600080546001600160a01b0319166001600160a01b03929092169190911790556200008a565b6000602082840312156200006c578081fd5b81516001600160a01b038116811462000083578182fd5b9392505050565b616828806200009a6000396000f3fe6080604052600436106101b65760003560e01c80638610f045116100ec578063c3f909d41161008a578063f2467bd711610064578063f2467bd7146104e3578063f2f4eb2614610503578063fba225b914610525578063fcce488314610538576101b6565b8063c3f909d414610480578063c815729d146104a3578063e7572230146104c3576101b6565b80639d6f563d116100c65780639d6f563d14610400578063a9c0c40114610420578063ab052d4d14610440578063bfaa97e414610460576101b6565b80638610f045146103a057806387ad6f13146103c05780638f2fa71e146103e0576101b6565b806329feef881161015957806337fb409c1161013357806337fb409c146103135780633e2ad42d146103335780636112fe2e146103605780636457bd0414610380576101b6565b806329feef88146102b35780632b1fd58a146102c65780632f92e42c146102e6576101b6565b80631250b5ae116101955780631250b5ae1461021d57806313c726081461023d5780631a2ef3e0146102735780631ce5e9a614610286576101b6565b806284ae96146101bb5780630eaaf4c8146101dd5780630f5eb055146101fd575b600080fd5b3480156101c757600080fd5b506101db6101d6366004615bf6565b610558565b005b3480156101e957600080fd5b506101db6101f8366004615b05565b610866565b34801561020957600080fd5b506101db610218366004615b05565b610aa0565b34801561022957600080fd5b506101db610238366004615b35565b610b03565b34801561024957600080fd5b5061025d610258366004615b05565b610b6e565b60405161026a919061669d565b60405180910390f35b6101db610281366004615bf6565b610bf5565b34801561029257600080fd5b506102a66102a1366004615b05565b610f24565b60405161026a91906165ec565b6101db6102c1366004615b35565b610fb0565b3480156102d257600080fd5b506101db6102e1366004615b05565b611b66565b3480156102f257600080fd5b50610306610301366004615b05565b611f91565b60405161026a9190615d5f565b34801561031f57600080fd5b506101db61032e366004615b05565b612012565b34801561033f57600080fd5b5061035361034e366004615b05565b612070565b60405161026a9190615d4c565b34801561036c57600080fd5b506101db61037b366004615b05565b6120f5565b34801561038c57600080fd5b506101db61039b366004615b05565b612125565b3480156103ac57600080fd5b506101db6103bb366004615b05565b612155565b3480156103cc57600080fd5b5061025d6103db366004615a08565b61245c565b3480156103ec57600080fd5b506101db6103fb366004615b7f565b6124f4565b34801561040c57600080fd5b506101db61041b366004615b35565b612a8e565b34801561042c57600080fd5b506101db61043b366004615bf6565b613112565b34801561044c57600080fd5b506101db61045b366004615bf6565b6133cd565b34801561046c57600080fd5b506101db61047b366004615bf6565b6136be565b34801561048c57600080fd5b50610495613a8a565b60405161026a929190615cf1565b3480156104af57600080fd5b506101db6104be366004615b05565b613b0b565b3480156104cf57600080fd5b506103536104de366004615b05565b613e38565b3480156104ef57600080fd5b506101db6104fe366004615b05565b613e69565b34801561050f57600080fd5b50610518613fdb565b60405161026a9190615cb9565b6101db610533366004615b05565b613fea565b34801561054457600080fd5b50610306610553366004615b05565b614051565b6000805460405163eba1b60b60e01b81528492916001600160a01b03169063eba1b60b9061058c90859033906004016166a6565b60206040518083038186803b1580156105a457600080fd5b505afa1580156105b8573d6000803e3d6000fd5b505050506040513d601f19601f820116820180604052508101906105dc9190615b1d565b116106025760405162461bcd60e51b81526004016105f990616430565b60405180910390fd5b600082118015610613575060648211155b61062f5760405162461bcd60e51b81526004016105f990615ed7565b6000805460405163eba1b60b60e01b81526001600160a01b039091169063eba1b60b9061066290879033906004016166a6565b60206040518083038186803b15801561067a57600080fd5b505afa15801561068e573d6000803e3d6000fd5b505050506040513d601f19601f820116820180604052508101906106b29190615b1d565b905060006106d760646106cb848763ffffffff61408216565b9063ffffffff6140c316565b90506000809054906101000a90046001600160a01b03166001600160a01b031663de5490ff6040518163ffffffff1660e01b815260040160206040518083038186803b15801561072657600080fd5b505afa15801561073a573d6000803e3d6000fd5b505050506040513d601f19601f8201168201806040525081019061075e9190615b1d565b61076e838363ffffffff6140f516565b101561078c5760405162461bcd60e51b81526004016105f990616195565b6000546040516387cc098f60e01b81526001600160a01b03909116906387cc098f906107bc903390600401615cb9565b600060405180830381600087803b1580156107d657600080fd5b505af11580156107ea573d6000803e3d6000fd5b505060405133925083156108fc02915083906000818181858888f1935050505015801561081b573d6000803e3d6000fd5b50336001600160a01b03167fd27c611a7685444d3c695d592cc9cc0c35e45402f9188162427685f68a0909918683604051610857929190616786565b60405180910390a25050505050565b6000805460405163eba1b60b60e01b81528392916001600160a01b03169063eba1b60b9061089a90859033906004016166a6565b60206040518083038186803b1580156108b257600080fd5b505afa1580156108c6573d6000803e3d6000fd5b505050506040513d601f19601f820116820180604052508101906108ea9190615b1d565b116109075760405162461bcd60e51b81526004016105f990616430565b6000805460405163eba1b60b60e01b81526001600160a01b039091169063eba1b60b9061093a90869033906004016166a6565b60206040518083038186803b15801561095257600080fd5b505afa158015610966573d6000803e3d6000fd5b505050506040513d601f19601f8201168201806040525081019061098a9190615b1d565b6000546040516323ca219160e21b81529192506001600160a01b031690638f288644906109bb90869060040161669d565b60206040518083038186803b1580156109d357600080fd5b505afa1580156109e7573d6000803e3d6000fd5b505050506040513d601f19601f82011682018060405250810190610a0b9190615b1d565b8110610a295760405162461bcd60e51b81526004016105f990615e69565b610a33833361411d565b604051339082156108fc029083906000818181858888f19350505050158015610a60573d6000803e3d6000fd5b50827f8f8619524e8d462cead34604bd2247ede24175801481e4d0b8059ac8aa41c3013383604051610a93929190615cf1565b60405180910390a2505050565b600054604051630f5eb05560e01b81526001600160a01b0390911690630f5eb05590610ad090849060040161669d565b60006040518083038186803b158015610ae857600080fd5b505afa158015610afc573d6000803e3d6000fd5b5050505050565b6000546040516309285ad760e11b81526001600160a01b0390911690631250b5ae90610b37908690869086906004016166dc565b600060405180830381600087803b158015610b5157600080fd5b505af1158015610b65573d6000803e3d6000fd5b50505050505050565b60008054604051630278e4c160e31b81526001600160a01b03909116906313c7260890610b9f90859060040161669d565b60206040518083038186803b158015610bb757600080fd5b505afa158015610bcb573d6000803e3d6000fd5b505050506040513d601f19601f82011682018060405250810190610bef9190615b1d565b92915050565b8060008111610c165760405162461bcd60e51b81526004016105f990616353565b600054604051630e72f4d360e11b81526001600160a01b0390911690631ce5e9a690610c4690869060040161669d565b60006040518083038186803b158015610c5e57600080fd5b505afa158015610c72573d6000803e3d6000fd5b505050506040513d6000823e601f3d908101601f19168201604052610c9a9190810190615ad2565b60e00151804210610cbd5760405162461bcd60e51b81526004016105f990615f45565b60005460405163d9548e5360e01b815285916001600160a01b03169063d9548e5390610ced90849060040161669d565b60206040518083038186803b158015610d0557600080fd5b505afa158015610d19573d6000803e3d6000fd5b505050506040513d601f19601f82011682018060405250810190610d3d9190615ab2565b15610d5a5760405162461bcd60e51b81526004016105f990616594565b600054604051630e72f4d360e11b81526001600160a01b0390911690631ce5e9a690610d8a90889060040161669d565b60006040518083038186803b158015610da257600080fd5b505afa158015610db6573d6000803e3d6000fd5b505050506040513d6000823e601f3d908101601f19168201604052610dde9190810190615ad2565b602001516001600160a01b0316336001600160a01b03161415610e135760405162461bcd60e51b81526004016105f99061630f565b6000805460405163eba1b60b60e01b81526001600160a01b039091169063eba1b60b90610e4690899033906004016166a6565b60206040518083038186803b158015610e5e57600080fd5b505afa158015610e72573d6000803e3d6000fd5b505050506040513d601f19601f82011682018060405250810190610e969190615b1d565b90508015610eb65760405162461bcd60e51b81526004016105f9906161cc565b60005460405163d97fef0160e01b81526001600160a01b039091169063d97fef0190610eea90899033908a906004016166bd565b600060405180830381600087803b158015610f0457600080fd5b505af1158015610f18573d6000803e3d6000fd5b50505050505050505050565b610f2c6157b7565b600054604051630e72f4d360e11b81526001600160a01b0390911690631ce5e9a690610f5c90859060040161669d565b60006040518083038186803b158015610f7457600080fd5b505afa158015610f88573d6000803e3d6000fd5b505050506040513d6000823e601f3d908101601f19168201604052610bef9190810190615ad2565b600054604051630e72f4d360e11b81526001600160a01b0390911690631ce5e9a690610fe090869060040161669d565b60006040518083038186803b158015610ff857600080fd5b505afa15801561100c573d6000803e3d6000fd5b505050506040513d6000823e601f3d908101601f191682016040526110349190810190615ad2565b602001516001600160a01b03811661105e5760405162461bcd60e51b81526004016105f990616047565b600054604051630278e4c160e31b81526001600160a01b03909116906313c726089061108e90879060040161669d565b60206040518083038186803b1580156110a657600080fd5b505afa1580156110ba573d6000803e3d6000fd5b505050506040513d601f19601f820116820180604052508101906110de9190615b1d565b8042106110fd5760405162461bcd60e51b81526004016105f990615f45565b60005460405163d9548e5360e01b815286916001600160a01b03169063d9548e539061112d90849060040161669d565b60206040518083038186803b15801561114557600080fd5b505afa158015611159573d6000803e3d6000fd5b505050506040513d601f19601f8201168201806040525081019061117d9190615ab2565b1561119a5760405162461bcd60e51b81526004016105f990616594565b848460008181106111a757fe5b90506020020135600081116111ce5760405162461bcd60e51b81526004016105f990616353565b60005460405163a624a1df60e01b815288916001600160a01b03169063a624a1df906111fe90849060040161669d565b60206040518083038186803b15801561121657600080fd5b505afa15801561122a573d6000803e3d6000fd5b505050506040513d601f19601f8201168201806040525081019061124e9190615ab2565b1561126b5760405162461bcd60e51b81526004016105f990616467565b8686600181811061127857fe5b905060200201356000811161129f5760405162461bcd60e51b81526004016105f9906162b2565b878760028181106112ac57fe5b600054604051630e72f4d360e11b815260209092029390930135926001600160a01b03169150631ce5e9a6906112e6908d9060040161669d565b60006040518083038186803b1580156112fe57600080fd5b505afa158015611312573d6000803e3d6000fd5b505050506040513d6000823e601f3d908101601f1916820160405261133a9190810190615ad2565b610100015160008211801561134f5750808211155b61136b5760405162461bcd60e51b81526004016105f9906160b5565b62030d405a1161138d5760405162461bcd60e51b81526004016105f990615e32565b60008054604051630e72f4d360e11b81526001600160a01b0390911690631ce5e9a6906113be908f9060040161669d565b60006040518083038186803b1580156113d657600080fd5b505afa1580156113ea573d6000803e3d6000fd5b505050506040513d6000823e601f3d908101601f191682016040526114129190810190615ad2565b60a00151600281111561142157fe5b1461143e5760405162461bcd60e51b81526004016105f990616203565b60005460405163eba1b60b60e01b81526001600160a01b039091169063eba1b60b90611470908e9033906004016166a6565b60206040518083038186803b15801561148857600080fd5b505afa15801561149c573d6000803e3d6000fd5b505050506040513d601f19601f820116820180604052508101906114c09190615b1d565b156114dd5760405162461bcd60e51b81526004016105f9906161cc565b6000809054906101000a90046001600160a01b03166001600160a01b031663208ff02e6040518163ffffffff1660e01b815260040160206040518083038186803b15801561152a57600080fd5b505afa15801561153e573d6000803e3d6000fd5b505050506040513d601f19601f820116820180604052508101906115629190615b1d565b6000546040516337655b0f60e11b81526001600160a01b0390911690636ecab61e90611592903390600401615cb9565b60206040518083038186803b1580156115aa57600080fd5b505afa1580156115be573d6000803e3d6000fd5b505050506040513d601f19601f820116820180604052508101906115e29190615b1d565b106115ff5760405162461bcd60e51b81526004016105f99061655d565b60008060009054906101000a90046001600160a01b03166001600160a01b031663208ff02e6040518163ffffffff1660e01b815260040160206040518083038186803b15801561164e57600080fd5b505afa158015611662573d6000803e3d6000fd5b505050506040513d601f19601f820116820180604052508101906116869190615b1d565b905060006116c38c8c600181811061169a57fe5b905060200201358d8d60008181106116ae57fe5b9050602002013561416b90919063ffffffff16565b90506000809054906101000a90046001600160a01b03166001600160a01b03166350a8150b8e6040518263ffffffff1660e01b8152600401611705919061669d565b60206040518083038186803b15801561171d57600080fd5b505afa158015611731573d6000803e3d6000fd5b505050506040513d601f19601f820116820180604052508101906117559190615b1d565b8111156117745760405162461bcd60e51b81526004016105f99061649e565b6000809054906101000a90046001600160a01b03166001600160a01b0316631ce5e9a68e6040518263ffffffff1660e01b81526004016117b4919061669d565b60006040518083038186803b1580156117cc57600080fd5b505afa1580156117e0573d6000803e3d6000fd5b505050506040513d6000823e601f3d908101601f191682016040526118089190810190615ad2565b604001516001600160a01b03166323b872dd3330846040518463ffffffff1660e01b815260040161183b93929190615ccd565b602060405180830381600087803b15801561185557600080fd5b505af1158015611869573d6000803e3d6000fd5b505050506040513d601f19601f8201168201806040525081019061188d9190615ab2565b6118a95760405162461bcd60e51b81526004016105f9906163e7565b60008060009054906101000a90046001600160a01b03166001600160a01b031663eba1b60b8f336040518363ffffffff1660e01b81526004016118ed9291906166a6565b60206040518083038186803b15801561190557600080fd5b505afa158015611919573d6000803e3d6000fd5b505050506040513d601f19601f8201168201806040525081019061193d9190615b1d565b9050801561195d5760405162461bcd60e51b81526004016105f9906161cc565b6000809054906101000a90046001600160a01b03166001600160a01b031663d97fef018f33856040518463ffffffff1660e01b81526004016119a1939291906166bd565b600060405180830381600087803b1580156119bb57600080fd5b505af11580156119cf573d6000803e3d6000fd5b50506000546040516337655b0f60e11b81528693506001600160a01b039091169150636ecab61e90611a05903390600401615cb9565b60206040518083038186803b158015611a1d57600080fd5b505afa158015611a31573d6000803e3d6000fd5b505050506040513d601f19601f82011682018060405250810190611a559190615b1d565b10611a725760405162461bcd60e51b81526004016105f99061655d565b6000546040516393e1b8a760e01b81526001600160a01b03909116906393e1b8a790611aa2903390600401615cb9565b600060405180830381600087803b158015611abc57600080fd5b505af1158015611ad0573d6000803e3d6000fd5b50505050611b118e8e8e8080602002602001604051908101604052809392919081815260200183836020028082843760009201919091525061419092505050565b336001600160a01b03167f31f9a3ccd05dd54b3523cba1ae416ccf9842696d7295f62824dfacab1a957bf78f8f8f604051611b4e939291906166dc565b60405180910390a25050505050505050505050505050565b6000546040516346fbf41f60e11b815282916001600160a01b031690638df7e83e90611b9690849060040161669d565b60206040518083038186803b158015611bae57600080fd5b505afa158015611bc2573d6000803e3d6000fd5b505050506040513d601f19601f82011682018060405250810190611be69190615ab2565b611c025760405162461bcd60e51b81526004016105f990616138565b60005460405163d9548e5360e01b815283916001600160a01b03169063d9548e5390611c3290849060040161669d565b60206040518083038186803b158015611c4a57600080fd5b505afa158015611c5e573d6000803e3d6000fd5b505050506040513d601f19601f82011682018060405250810190611c829190615ab2565b15611c9f5760405162461bcd60e51b81526004016105f990616594565b600054604051630e72f4d360e11b81526001916001600160a01b031690631ce5e9a690611cd090879060040161669d565b60006040518083038186803b158015611ce857600080fd5b505afa158015611cfc573d6000803e3d6000fd5b505050506040513d6000823e601f3d908101601f19168201604052611d249190810190615ad2565b60a001516002811115611d3357fe5b14611d505760405162461bcd60e51b81526004016105f9906164e4565b600080611d5c856142fb565b9150915060008111611d805760405162461bcd60e51b81526004016105f99061608e565b611d8b858383614553565b611d948561490e565b60008054604051630e72f4d360e11b81526001600160a01b0390911690631ce5e9a690611dc590899060040161669d565b60006040518083038186803b158015611ddd57600080fd5b505afa158015611df1573d6000803e3d6000fd5b505050506040513d6000823e601f3d908101601f19168201604052611e199190810190615ad2565b60a001906002811115611e2857fe5b90816002811115611e3557fe5b905250600054604051630e72f4d360e11b81526001600160a01b0390911690631ce5e9a690611e6890889060040161669d565b60006040518083038186803b158015611e8057600080fd5b505afa158015611e94573d6000803e3d6000fd5b505050506040513d6000823e601f3d908101601f19168201604052611ebc9190810190615ad2565b606060c09190910152600054604051630e72f4d360e11b815233917f23ad4783d95ee2d3730fae4843757e102bd28a58ef48e2c6f8fe93aef120f5fb918891611f839186916001600160a01b031690631ce5e9a690611f1f90869060040161669d565b60006040518083038186803b158015611f3757600080fd5b505afa158015611f4b573d6000803e3d6000fd5b505050506040513d6000823e601f3d908101601f19168201604052611f739190810190615ad2565b606001519063ffffffff61416b16565b604051610857929190616786565b60008054604051630be4b90b60e21b81526001600160a01b0390911690632f92e42c90611fc290859060040161669d565b60206040518083038186803b158015611fda57600080fd5b505afa158015611fee573d6000803e3d6000fd5b505050506040513d601f19601f82011682018060405250810190610bef9190615ab2565b600054604051630dfed02760e21b81526001600160a01b03909116906337fb409c9061204290849060040161669d565b600060405180830381600087803b15801561205c57600080fd5b505af1158015610afc573d6000803e3d6000fd5b600054604051633e2ad42d60e01b81526060916001600160a01b031690633e2ad42d906120a190859060040161669d565b60006040518083038186803b1580156120b957600080fd5b505afa1580156120cd573d6000803e3d6000fd5b505050506040513d6000823e601f3d908101601f19168201604052610bef9190810190615a77565b6000546040516330897f1760e11b81526001600160a01b0390911690636112fe2e9061204290849060040161669d565b600054604051631915ef4160e21b81526001600160a01b0390911690636457bd049061204290849060040161669d565b60008054604051632e54833960e21b81528392916001600160a01b03169063b9520ce49061218990859033906004016166a6565b60206040518083038186803b1580156121a157600080fd5b505afa1580156121b5573d6000803e3d6000fd5b505050506040513d601f19601f820116820180604052508101906121d99190615b1d565b116121f65760405162461bcd60e51b81526004016105f9906165b5565b60008054604051632e54833960e21b81526001600160a01b039091169063b9520ce49061222990869033906004016166a6565b60206040518083038186803b15801561224157600080fd5b505afa158015612255573d6000803e3d6000fd5b505050506040513d601f19601f820116820180604052508101906122799190615b1d565b600054604051631d525f0f60e11b81529192506001600160a01b031690633aa4be1e906122aa90869060040161669d565b60206040518083038186803b1580156122c257600080fd5b505afa1580156122d6573d6000803e3d6000fd5b505050506040513d601f19601f820116820180604052508101906122fa9190615b1d565b81106123185760405162461bcd60e51b81526004016105f9906163b0565b6123228333614acd565b600054604051630e72f4d360e11b81526001600160a01b0390911690631ce5e9a69061235290869060040161669d565b60006040518083038186803b15801561236a57600080fd5b505afa15801561237e573d6000803e3d6000fd5b505050506040513d6000823e601f3d908101601f191682016040526123a69190810190615ad2565b604001516001600160a01b031663a9059cbb33836040518363ffffffff1660e01b81526004016123d7929190615cf1565b602060405180830381600087803b1580156123f157600080fd5b505af1158015612405573d6000803e3d6000fd5b505050506040513d601f19601f820116820180604052508101906124299190615ab2565b50827f60c7613a8b8ce872a461e88b0f376098063e67e4df6d0aa6a55790fe81acdb583383604051610a93929190615cf1565b600080546040516387ad6f1360e01b81526001600160a01b03909116906387ad6f1390612497908a908a908a908a908a908a90600401615d0a565b602060405180830381600087803b1580156124b157600080fd5b505af11580156124c5573d6000803e3d6000fd5b505050506040513d601f19601f820116820180604052508101906124e99190615b1d565b979650505050505050565b600054604051630e72f4d360e11b81526001600160a01b0390911690631ce5e9a69061252490889060040161669d565b60006040518083038186803b15801561253c57600080fd5b505afa158015612550573d6000803e3d6000fd5b505050506040513d6000823e601f3d908101601f191682016040526125789190810190615ad2565b602001516001600160a01b0381166125a25760405162461bcd60e51b81526004016105f990616047565b600054604051630278e4c160e31b81526001600160a01b03909116906313c72608906125d290899060040161669d565b60206040518083038186803b1580156125ea57600080fd5b505afa1580156125fe573d6000803e3d6000fd5b505050506040513d601f19601f820116820180604052508101906126229190615b1d565b8042106126415760405162461bcd60e51b81526004016105f990615f45565b60005460405163d9548e5360e01b815288916001600160a01b03169063d9548e539061267190849060040161669d565b60206040518083038186803b15801561268957600080fd5b505afa15801561269d573d6000803e3d6000fd5b505050506040513d601f19601f820116820180604052508101906126c19190615ab2565b156126de5760405162461bcd60e51b81526004016105f990616594565b868660008181106126eb57fe5b90506020020135600081116127125760405162461bcd60e51b81526004016105f990616353565b60005460405163a624a1df60e01b81528a916001600160a01b03169063a624a1df9061274290849060040161669d565b60206040518083038186803b15801561275a57600080fd5b505afa15801561276e573d6000803e3d6000fd5b505050506040513d601f19601f820116820180604052508101906127929190615ab2565b156127af5760405162461bcd60e51b81526004016105f990616467565b888860018181106127bc57fe5b90506020020135600081116127e35760405162461bcd60e51b81526004016105f9906162b2565b898960028181106127f057fe5b600054604051630e72f4d360e11b815260209092029390930135926001600160a01b03169150631ce5e9a69061282a908f9060040161669d565b60006040518083038186803b15801561284257600080fd5b505afa158015612856573d6000803e3d6000fd5b505050506040513d6000823e601f3d908101601f1916820160405261287e9190810190615ad2565b61010001516000821180156128935750808211155b6128af5760405162461bcd60e51b81526004016105f9906160b5565b62030d405a116128d15760405162461bcd60e51b81526004016105f990615e32565b600080809054906101000a90046001600160a01b03166001600160a01b0316631ce5e9a68f6040518263ffffffff1660e01b8152600401612912919061669d565b60006040518083038186803b15801561292a57600080fd5b505afa15801561293e573d6000803e3d6000fd5b505050506040513d6000823e601f3d908101601f191682016040526129669190810190615ad2565b60a00151600281111561297557fe5b146129925760405162461bcd60e51b81526004016105f990616203565b60006129b88d8d60018181106129a457fe5b905060200201358e8e60008181106116ae57fe5b90506129c48e82614b01565b6129ce8e82614cc5565b612a4d8e8e8e80806020026020016040519081016040528093929190818152602001838360200280828437600081840152601f19601f820116905080830192505050505050508d8d80806020026020016040519081016040528093929190818152602001838360200280828437600092019190915250614f5f92505050565b336001600160a01b03167fc045e6c23ebb61636a29c745f7926eff2761be77456e1b2f2e49e4aea492ab448f8f8f8f8f604051611b4e9594939291906166ff565b600054604051630e72f4d360e11b81526001600160a01b0390911690631ce5e9a690612abe90869060040161669d565b60006040518083038186803b158015612ad657600080fd5b505afa158015612aea573d6000803e3d6000fd5b505050506040513d6000823e601f3d908101601f19168201604052612b129190810190615ad2565b60e00151804210612b355760405162461bcd60e51b81526004016105f990615f45565b60005460405163d9548e5360e01b815285916001600160a01b03169063d9548e5390612b6590849060040161669d565b60206040518083038186803b158015612b7d57600080fd5b505afa158015612b91573d6000803e3d6000fd5b505050506040513d601f19601f82011682018060405250810190612bb59190615ab2565b15612bd25760405162461bcd60e51b81526004016105f990616594565b83836000818110612bdf57fe5b9050602002013560008111612c065760405162461bcd60e51b81526004016105f990616353565b60005460405163a624a1df60e01b815287916001600160a01b03169063a624a1df90612c3690849060040161669d565b60206040518083038186803b158015612c4e57600080fd5b505afa158015612c62573d6000803e3d6000fd5b505050506040513d601f19601f82011682018060405250810190612c869190615ab2565b15612ca35760405162461bcd60e51b81526004016105f990616467565b85856001818110612cb057fe5b9050602002013560008111612cd75760405162461bcd60e51b81526004016105f9906162b2565b86866002818110612ce457fe5b600054604051630e72f4d360e11b815260209092029390930135926001600160a01b03169150631ce5e9a690612d1e908c9060040161669d565b60006040518083038186803b158015612d3657600080fd5b505afa158015612d4a573d6000803e3d6000fd5b505050506040513d6000823e601f3d908101601f19168201604052612d729190810190615ad2565b6101000151600082118015612d875750808211155b612da35760405162461bcd60e51b81526004016105f9906160b5565b62030d405a11612dc55760405162461bcd60e51b81526004016105f990615e32565b60008054604051630e72f4d360e11b81526001600160a01b0390911690631ce5e9a690612df6908e9060040161669d565b60006040518083038186803b158015612e0e57600080fd5b505afa158015612e22573d6000803e3d6000fd5b505050506040513d6000823e601f3d908101601f19168201604052612e4a9190810190615ad2565b60a001516002811115612e5957fe5b14612e765760405162461bcd60e51b81526004016105f990616203565b6000612e9c8a8a6001818110612e8857fe5b905060200201358b8b60008181106116ae57fe5b600054604051630e72f4d360e11b81529192506001600160a01b031690631ce5e9a690612ecd908e9060040161669d565b60006040518083038186803b158015612ee557600080fd5b505afa158015612ef9573d6000803e3d6000fd5b505050506040513d6000823e601f3d908101601f19168201604052612f219190810190615ad2565b604001516001600160a01b03166323b872dd3330846040518463ffffffff1660e01b8152600401612f5493929190615ccd565b602060405180830381600087803b158015612f6e57600080fd5b505af1158015612f82573d6000803e3d6000fd5b505050506040513d601f19601f82011682018060405250810190612fa69190615ab2565b612fc25760405162461bcd60e51b81526004016105f9906163e7565b600054604051630f36e6cf60e01b81526001600160a01b0390911690630f36e6cf90612ff6908e90339086906004016166bd565b600060405180830381600087803b15801561301057600080fd5b505af1158015613024573d6000803e3d6000fd5b50506000546001600160a01b03169150634d726edc90508c8c8c600381811061304957fe5b90506020020135336040518463ffffffff1660e01b815260040161306f93929190616794565b60206040518083038186803b15801561308757600080fd5b505afa15801561309b573d6000803e3d6000fd5b505050506040513d601f19601f820116820180604052508101906130bf91906159bf565b50336001600160a01b03167f86db197b0fed294a0788fddc051d1bdb1ec99dcfd155d9aecdd040a812a97ef28c8c8c6040516130fd939291906166dc565b60405180910390a25050505050505050505050565b6000546040516346fbf41f60e11b815283916001600160a01b031690638df7e83e9061314290849060040161669d565b60206040518083038186803b15801561315a57600080fd5b505afa15801561316e573d6000803e3d6000fd5b505050506040513d601f19601f820116820180604052508101906131929190615ab2565b6131ae5760405162461bcd60e51b81526004016105f990616138565b60005460405163d9548e5360e01b815284916001600160a01b03169063d9548e53906131de90849060040161669d565b60206040518083038186803b1580156131f657600080fd5b505afa15801561320a573d6000803e3d6000fd5b505050506040513d601f19601f8201168201806040525081019061322e9190615ab2565b1561324b5760405162461bcd60e51b81526004016105f990616594565b6000831161326b5760405162461bcd60e51b81526004016105f990615d6a565b600054604051630e72f4d360e11b81526133059185916001600160a01b0390911690631ce5e9a6906132a190899060040161669d565b60006040518083038186803b1580156132b957600080fd5b505afa1580156132cd573d6000803e3d6000fd5b505050506040513d6000823e601f3d908101601f191682016040526132f59190810190615ad2565b60e001519063ffffffff61416b16565b600054604051630e72f4d360e11b81526001600160a01b0390911690631ce5e9a69061333590889060040161669d565b60006040518083038186803b15801561334d57600080fd5b505afa158015613361573d6000803e3d6000fd5b505050506040513d6000823e601f3d908101601f191682016040526133899190810190615ad2565b60e0015260405184907fa1d21773f74894dc4c73f0fdf0d1aa24c0b027821d41e2ed9942b4a46132ee5a906133bf90869061669d565b60405180910390a250505050565b6000546040516346fbf41f60e11b815283916001600160a01b031690638df7e83e906133fd90849060040161669d565b60206040518083038186803b15801561341557600080fd5b505afa158015613429573d6000803e3d6000fd5b505050506040513d601f19601f8201168201806040525081019061344d9190615ab2565b6134695760405162461bcd60e51b81526004016105f990616138565b60005460405163d9548e5360e01b815284916001600160a01b03169063d9548e539061349990849060040161669d565b60206040518083038186803b1580156134b157600080fd5b505afa1580156134c5573d6000803e3d6000fd5b505050506040513d601f19601f820116820180604052508101906134e99190615ab2565b156135065760405162461bcd60e51b81526004016105f990616594565b600083116135265760405162461bcd60e51b81526004016105f990615d6a565b60008054604051630e72f4d360e11b815261355d9186916001600160a01b0390911690631ce5e9a6906132a1908a9060040161669d565b600054604051630e72f4d360e11b81529192506001600160a01b031690631ce5e9a69061358e90889060040161669d565b60006040518083038186803b1580156135a657600080fd5b505afa1580156135ba573d6000803e3d6000fd5b505050506040513d6000823e601f3d908101601f191682016040526135e29190810190615ad2565b60e0015181116136045760405162461bcd60e51b81526004016105f99061651b565b600054604051630e72f4d360e11b815282916001600160a01b031690631ce5e9a69061363490899060040161669d565b60006040518083038186803b15801561364c57600080fd5b505afa158015613660573d6000803e3d6000fd5b505050506040513d6000823e601f3d908101601f191682016040526136889190810190615ad2565b60e0015260405185907f85f8dc1c9620d5bfbc44ab7590babb99ca4e416de26d99b2610fe4179848ca369061085790879061669d565b6000546040516346fbf41f60e11b815283916001600160a01b031690638df7e83e906136ee90849060040161669d565b60206040518083038186803b15801561370657600080fd5b505afa15801561371a573d6000803e3d6000fd5b505050506040513d601f19601f8201168201806040525081019061373e9190615ab2565b61375a5760405162461bcd60e51b81526004016105f990616138565b816000811161377b5760405162461bcd60e51b81526004016105f990616353565b600054604051630e72f4d360e11b81526001600160a01b0390911690631ce5e9a6906137ab90879060040161669d565b60006040518083038186803b1580156137c357600080fd5b505afa1580156137d7573d6000803e3d6000fd5b505050506040513d6000823e601f3d908101601f191682016040526137ff9190810190615ad2565b60e001518042106138225760405162461bcd60e51b81526004016105f990615f45565b60005460405163d9548e5360e01b815286916001600160a01b03169063d9548e539061385290849060040161669d565b60206040518083038186803b15801561386a57600080fd5b505afa15801561387e573d6000803e3d6000fd5b505050506040513d601f19601f820116820180604052508101906138a29190615ab2565b156138bf5760405162461bcd60e51b81526004016105f990616594565b600054604051630e72f4d360e11b81526001600160a01b0390911690631ce5e9a6906138ef90899060040161669d565b60006040518083038186803b15801561390757600080fd5b505afa15801561391b573d6000803e3d6000fd5b505050506040513d6000823e601f3d908101601f191682016040526139439190810190615ad2565b602001516001600160a01b0316336001600160a01b031614156139785760405162461bcd60e51b81526004016105f990615db7565b60008054604051632e54833960e21b81526001600160a01b039091169063b9520ce4906139ab908a9033906004016166a6565b60206040518083038186803b1580156139c357600080fd5b505afa1580156139d7573d6000803e3d6000fd5b505050506040513d601f19601f820116820180604052508101906139fb9190615b1d565b90508015613a1b5760405162461bcd60e51b81526004016105f990615dfd565b600054604051630f36e6cf60e01b81526001600160a01b0390911690630f36e6cf90613a4f908a9033908b906004016166bd565b600060405180830381600087803b158015613a6957600080fd5b505af1158015613a7d573d6000803e3d6000fd5b5050505050505050505050565b60008054604080516330fe427560e21b8152815184936001600160a01b03169263c3f909d49260048082019391829003018186803b158015613acb57600080fd5b505afa158015613adf573d6000803e3d6000fd5b505050506040513d601f19601f82011682018060405250810190613b0391906159db565b915091509091565b6000546040516346fbf41f60e11b815282916001600160a01b031690638df7e83e90613b3b90849060040161669d565b60206040518083038186803b158015613b5357600080fd5b505afa158015613b67573d6000803e3d6000fd5b505050506040513d601f19601f82011682018060405250810190613b8b9190615ab2565b613ba75760405162461bcd60e51b81526004016105f990616138565b60005460405163d9548e5360e01b815283916001600160a01b03169063d9548e5390613bd790849060040161669d565b60206040518083038186803b158015613bef57600080fd5b505afa158015613c03573d6000803e3d6000fd5b505050506040513d601f19601f82011682018060405250810190613c279190615ab2565b15613c445760405162461bcd60e51b81526004016105f990616594565b600054604051630e72f4d360e11b81526001916001600160a01b031690631ce5e9a690613c7590879060040161669d565b60006040518083038186803b158015613c8d57600080fd5b505afa158015613ca1573d6000803e3d6000fd5b505050506040513d6000823e601f3d908101601f19168201604052613cc99190810190615ad2565b60a001516002811115613cd857fe5b14613cf55760405162461bcd60e51b81526004016105f9906164e4565b600080613d01856150cc565b915091506000198110613d265760405162461bcd60e51b81526004016105f990615f0e565b613d3185838361531b565b613d3a856155fc565b60008054604051630e72f4d360e11b81526001600160a01b0390911690631ce5e9a690613d6b90899060040161669d565b60006040518083038186803b158015613d8357600080fd5b505afa158015613d97573d6000803e3d6000fd5b505050506040513d6000823e601f3d908101601f19168201604052613dbf9190810190615ad2565b60a001906002811115613dce57fe5b90816002811115613ddb57fe5b905250600054604051630e72f4d360e11b815233917f23ad4783d95ee2d3730fae4843757e102bd28a58ef48e2c6f8fe93aef120f5fb918891611f839186916001600160a01b031690631ce5e9a690611f1f90869060040161669d565b600054604051630e75722360e41b81526060916001600160a01b03169063e7572230906120a190859060040161669d565b6000546040516346fbf41f60e11b815282916001600160a01b031690638df7e83e90613e9990849060040161669d565b60206040518083038186803b158015613eb157600080fd5b505afa158015613ec5573d6000803e3d6000fd5b505050506040513d601f19601f82011682018060405250810190613ee99190615ab2565b613f055760405162461bcd60e51b81526004016105f990616138565b60005460405163d9548e5360e01b815283916001600160a01b03169063d9548e5390613f3590849060040161669d565b60206040518083038186803b158015613f4d57600080fd5b505afa158015613f61573d6000803e3d6000fd5b505050506040513d601f19601f82011682018060405250810190613f859190615ab2565b15613fa25760405162461bcd60e51b81526004016105f990616594565b613fab8361490e565b60405183907f91239f1b1c69a78900cc0b21af84007275a0bdcfad50186f9c47f0e11b03c10990600090a2505050565b6000546001600160a01b031681565b60005460405163fba225b960e01b81526001600160a01b039091169063fba225b990349061401c90859060040161669d565b6000604051808303818588803b15801561403557600080fd5b505af1158015614049573d6000803e3d6000fd5b505050505050565b6000805460405163fcce488360e01b81526001600160a01b039091169063fcce488390611fc290859060040161669d565b60008261409157506000610bef565b8282028284828161409e57fe5b04146140bc5760405162461bcd60e51b81526004016105f990616271565b9392505050565b60008082116140e45760405162461bcd60e51b81526004016105f990616010565b8183816140ed57fe5b049392505050565b6000828211156141175760405162461bcd60e51b81526004016105f990615fa2565b50900390565b6000805460405163d97fef0160e01b81526001600160a01b039091169163d97fef01916141519186918691906004016166bd565b600060405180830381600087803b15801561403557600080fd5b6000828201838110156140bc5760405162461bcd60e51b81526004016105f990615ea0565b6141986157b7565b600054604051637eb742cf60e11b81526001600160a01b039091169063fd6e859e906141c890869060040161669d565b60006040518083038186803b1580156141e057600080fd5b505afa1580156141f4573d6000803e3d6000fd5b505050506040513d6000823e601f3d908101601f1916820160405261421c9190810190615ad2565b6080810183905260005483519192506001600160a01b03169063839da08b9085908590600390811061424a57fe5b60200260200101516040518363ffffffff1660e01b815260040161426f929190616786565b60206040518083038186803b15801561428757600080fd5b505afa15801561429b573d6000803e3d6000fd5b505050506040513d601f19601f820116820180604052508101906142bf91906159bf565b50336001600160a01b03167f31f9a3ccd05dd54b3523cba1ae416ccf9842696d7295f62824dfacab1a957bf78484604051610a93929190616738565b6000808080805b600054604051630e72f4d360e11b81526001600160a01b0390911690631ce5e9a69061433290899060040161669d565b60006040518083038186803b15801561434a57600080fd5b505afa15801561435e573d6000803e3d6000fd5b505050506040513d6000823e601f3d908101601f191682016040526143869190810190615ad2565b60c00151518110156145485760008054604051630e72f4d360e11b81526001600160a01b039091169063839da08b9089908390631ce5e9a6906143cd90849060040161669d565b60006040518083038186803b1580156143e557600080fd5b505afa1580156143f9573d6000803e3d6000fd5b505050506040513d6000823e601f3d908101601f191682016040526144219190810190615ad2565b60c00151858151811061443057fe5b60200260200101516040518363ffffffff1660e01b8152600401614455929190616786565b60206040518083038186803b15801561446d57600080fd5b505afa158015614481573d6000803e3d6000fd5b505050506040513d601f19601f820116820180604052508101906144a591906159bf565b6000805460405163eba1b60b60e01b815292935090916001600160a01b039091169063eba1b60b906144dd908b9086906004016166a6565b60206040518083038186803b1580156144f557600080fd5b505afa158015614509573d6000803e3d6000fd5b505050506040513d601f19601f8201168201806040525081019061452d9190615b1d565b90508381111561453e578093508194505b5050600101614302565b509092509050915091565b60005460405163eba1b60b60e01b815282916001600160a01b03169063eba1b60b9061458590879087906004016166a6565b60206040518083038186803b15801561459d57600080fd5b505afa1580156145b1573d6000803e3d6000fd5b505050506040513d601f19601f820116820180604052508101906145d59190615b1d565b10156145f35760405162461bcd60e51b81526004016105f990615fd9565b600054604051630e72f4d360e11b81526001600160a01b0390911690631ce5e9a69061462390869060040161669d565b60006040518083038186803b15801561463b57600080fd5b505afa15801561464f573d6000803e3d6000fd5b505050506040513d6000823e601f3d908101601f191682016040526146779190810190615ad2565b6040908101516000549151630e72f4d360e11b81526001600160a01b039182169263a9059cbb923392911690631ce5e9a6906146b790899060040161669d565b60006040518083038186803b1580156146cf57600080fd5b505afa1580156146e3573d6000803e3d6000fd5b505050506040513d6000823e601f3d908101601f1916820160405261470b9190810190615ad2565b606001516040518363ffffffff1660e01b815260040161472c929190615cf1565b602060405180830381600087803b15801561474657600080fd5b505af115801561475a573d6000803e3d6000fd5b505050506040513d601f19601f8201168201806040525081019061477e9190615ab2565b50600054604051630e72f4d360e11b81526001600160a01b0390911690631ce5e9a6906147af90869060040161669d565b60006040518083038186803b1580156147c757600080fd5b505afa1580156147db573d6000803e3d6000fd5b505050506040513d6000823e601f3d908101601f191682016040526148039190810190615ad2565b6040908101516000549151630e72f4d360e11b81526001600160a01b039182169263a9059cbb921690631ce5e9a69061484090889060040161669d565b60006040518083038186803b15801561485857600080fd5b505afa15801561486c573d6000803e3d6000fd5b505050506040513d6000823e601f3d908101601f191682016040526148949190810190615ad2565b60200151836040518363ffffffff1660e01b81526004016148b6929190615cf1565b602060405180830381600087803b1580156148d057600080fd5b505af11580156148e4573d6000803e3d6000fd5b505050506040513d601f19601f820116820180604052508101906149089190615ab2565b50505050565b60005b600054604051630e72f4d360e11b81526001600160a01b0390911690631ce5e9a69061494190859060040161669d565b60006040518083038186803b15801561495957600080fd5b505afa15801561496d573d6000803e3d6000fd5b505050506040513d6000823e601f3d908101601f191682016040526149959190810190615ad2565b60c0015151811015614ac95760008054604051630e72f4d360e11b81526001600160a01b039091169063839da08b9085908390631ce5e9a6906149dc90849060040161669d565b60006040518083038186803b1580156149f457600080fd5b505afa158015614a08573d6000803e3d6000fd5b505050506040513d6000823e601f3d908101601f19168201604052614a309190810190615ad2565b60c001518581518110614a3f57fe5b60200260200101516040518363ffffffff1660e01b8152600401614a64929190616786565b60206040518083038186803b158015614a7c57600080fd5b505afa158015614a90573d6000803e3d6000fd5b505050506040513d601f19601f82011682018060405250810190614ab491906159bf565b9050614ac0838261411d565b50600101614911565b5050565b60008054604051630f36e6cf60e01b81526001600160a01b0390911691630f36e6cf916141519186918691906004016166bd565b6000546040516350a8150b60e01b81526001600160a01b03909116906350a8150b90614b3190859060040161669d565b60206040518083038186803b158015614b4957600080fd5b505afa158015614b5d573d6000803e3d6000fd5b505050506040513d601f19601f82011682018060405250810190614b819190615b1d565b811115614ba05760405162461bcd60e51b81526004016105f99061649e565b600054604051630e72f4d360e11b81526001600160a01b0390911690631ce5e9a690614bd090859060040161669d565b60006040518083038186803b158015614be857600080fd5b505afa158015614bfc573d6000803e3d6000fd5b505050506040513d6000823e601f3d908101601f19168201604052614c249190810190615ad2565b604001516001600160a01b03166323b872dd3330846040518463ffffffff1660e01b8152600401614c5793929190615ccd565b602060405180830381600087803b158015614c7157600080fd5b505af1158015614c85573d6000803e3d6000fd5b505050506040513d601f19601f82011682018060405250810190614ca99190615ab2565b614ac95760405162461bcd60e51b81526004016105f9906163e7565b6000805460405163eba1b60b60e01b81526001600160a01b039091169063eba1b60b90614cf890869033906004016166a6565b60206040518083038186803b158015614d1057600080fd5b505afa158015614d24573d6000803e3d6000fd5b505050506040513d601f19601f82011682018060405250810190614d489190615b1d565b90508015614d685760405162461bcd60e51b81526004016105f9906161cc565b60005460405163d97fef0160e01b81526001600160a01b039091169063d97fef0190614d9c908690339087906004016166bd565b600060405180830381600087803b158015614db657600080fd5b505af1158015614dca573d6000803e3d6000fd5b5050505060008060009054906101000a90046001600160a01b03166001600160a01b031663208ff02e6040518163ffffffff1660e01b815260040160206040518083038186803b158015614e1d57600080fd5b505afa158015614e31573d6000803e3d6000fd5b505050506040513d601f19601f82011682018060405250810190614e559190615b1d565b6000546040516337655b0f60e11b815291925082916001600160a01b0390911690636ecab61e90614e8a903390600401615cb9565b60206040518083038186803b158015614ea257600080fd5b505afa158015614eb6573d6000803e3d6000fd5b505050506040513d601f19601f82011682018060405250810190614eda9190615b1d565b10614ef75760405162461bcd60e51b81526004016105f99061655d565b6000546040516393e1b8a760e01b81526001600160a01b03909116906393e1b8a790614f27903390600401615cb9565b600060405180830381600087803b158015614f4157600080fd5b505af1158015614f55573d6000803e3d6000fd5b5050505050505050565b614f676157b7565b600054604051637eb742cf60e11b81526001600160a01b039091169063fd6e859e90614f9790879060040161669d565b60006040518083038186803b158015614faf57600080fd5b505afa158015614fc3573d6000803e3d6000fd5b505050506040513d6000823e601f3d908101601f19168201604052614feb9190810190615ad2565b6080810184905260005484519192506001600160a01b03169063839da08b9086908690600390811061501957fe5b60200260200101516040518363ffffffff1660e01b815260040161503e929190616786565b60206040518083038186803b15801561505657600080fd5b505afa15801561506a573d6000803e3d6000fd5b505050506040513d601f19601f8201168201806040525081019061508e91906159bf565b50336001600160a01b03167fc045e6c23ebb61636a29c745f7926eff2761be77456e1b2f2e49e4aea492ab448585856040516133bf93929190616751565b60008080600019815b600054604051630e72f4d360e11b81526001600160a01b0390911690631ce5e9a69061510590899060040161669d565b60006040518083038186803b15801561511d57600080fd5b505afa158015615131573d6000803e3d6000fd5b505050506040513d6000823e601f3d908101601f191682016040526151599190810190615ad2565b60c00151518110156145485760008054604051630e72f4d360e11b81526001600160a01b039091169063d88750b49089908390631ce5e9a6906151a090849060040161669d565b60006040518083038186803b1580156151b857600080fd5b505afa1580156151cc573d6000803e3d6000fd5b505050506040513d6000823e601f3d908101601f191682016040526151f49190810190615ad2565b60c00151858151811061520357fe5b60200260200101516040518363ffffffff1660e01b8152600401615228929190616786565b60206040518083038186803b15801561524057600080fd5b505afa158015615254573d6000803e3d6000fd5b505050506040513d601f19601f8201168201806040525081019061527891906159bf565b60008054604051632e54833960e21b815292935090916001600160a01b039091169063b9520ce4906152b0908b9086906004016166a6565b60206040518083038186803b1580156152c857600080fd5b505afa1580156152dc573d6000803e3d6000fd5b505050506040513d601f19601f820116820180604052508101906153009190615b1d565b905083811015615311578093508194505b50506001016150d5565b600054604051632e54833960e21b815282916001600160a01b03169063b9520ce49061534d90879087906004016166a6565b60206040518083038186803b15801561536557600080fd5b505afa158015615379573d6000803e3d6000fd5b505050506040513d601f19601f8201168201806040525081019061539d9190615b1d565b10156153bb5760405162461bcd60e51b81526004016105f99061623a565b600054604051630e72f4d360e11b81526001600160a01b0390911690631ce5e9a6906153eb90869060040161669d565b60006040518083038186803b15801561540357600080fd5b505afa158015615417573d6000803e3d6000fd5b505050506040513d6000823e601f3d908101601f1916820160405261543f9190810190615ad2565b6040908101516000549151630e72f4d360e11b81526001600160a01b039182169263a9059cbb923392911690631ce5e9a69061547f90899060040161669d565b60006040518083038186803b15801561549757600080fd5b505afa1580156154ab573d6000803e3d6000fd5b505050506040513d6000823e601f3d908101601f191682016040526154d39190810190615ad2565b606001516040518363ffffffff1660e01b81526004016154f4929190615cf1565b602060405180830381600087803b15801561550e57600080fd5b505af1158015615522573d6000803e3d6000fd5b505050506040513d601f19601f820116820180604052508101906155469190615ab2565b50600054604051630e72f4d360e11b81526001600160a01b0390911690631ce5e9a69061557790869060040161669d565b60006040518083038186803b15801561558f57600080fd5b505afa1580156155a3573d6000803e3d6000fd5b505050506040513d6000823e601f3d908101601f191682016040526155cb9190810190615ad2565b604001516001600160a01b031663a9059cbb83836040518363ffffffff1660e01b81526004016148b6929190615cf1565b60005b600054604051630e72f4d360e11b81526001600160a01b0390911690631ce5e9a69061562f90859060040161669d565b60006040518083038186803b15801561564757600080fd5b505afa15801561565b573d6000803e3d6000fd5b505050506040513d6000823e601f3d908101601f191682016040526156839190810190615ad2565b60c0015151811015614ac95760008054604051630e72f4d360e11b81526001600160a01b039091169063d88750b49085908390631ce5e9a6906156ca90849060040161669d565b60006040518083038186803b1580156156e257600080fd5b505afa1580156156f6573d6000803e3d6000fd5b505050506040513d6000823e601f3d908101601f1916820160405261571e9190810190615ad2565b60c00151858151811061572d57fe5b60200260200101516040518363ffffffff1660e01b8152600401615752929190616786565b60206040518083038186803b15801561576a57600080fd5b505afa15801561577e573d6000803e3d6000fd5b505050506040513d601f19601f820116820180604052508101906157a291906159bf565b90506157ae8382614acd565b506001016155ff565b6040805161012081018252600080825260208201819052918101829052606080820183905260808201529060a082019081526020016060815260200160008152602001600081525090565b8051610bef816167da565b60008083601f84011261581e578182fd5b50813567ffffffffffffffff811115615835578182fd5b602083019150836020808302850101111561584f57600080fd5b9250929050565b600082601f830112615866578081fd5b815167ffffffffffffffff81111561587c578182fd5b602080820261588c8282016167b3565b838152935081840185830182870184018810156158a857600080fd5b600092505b848310156158cb5780518252600192909201919083019083016158ad565b505050505092915050565b805160038110610bef57600080fd5b60006101208083850312156158f8578182fd5b615901816167b3565b91505061590e8383615802565b815261591d8360208401615802565b602082015261592f8360408401615802565b604082015260608201516060820152608082015167ffffffffffffffff8082111561595957600080fd5b61596585838601615856565b60808401526159778560a086016158d6565b60a084015260c084015191508082111561599057600080fd5b5061599d84828501615856565b60c08301525060e082015160e082015261010080830151818301525092915050565b6000602082840312156159d0578081fd5b81516140bc816167da565b600080604083850312156159ed578081fd5b82516159f8816167da565b6020939093015192949293505050565b60008060008060008060a08789031215615a20578182fd5b863567ffffffffffffffff811115615a36578283fd5b615a4289828a0161580d565b909750955050602087013593506040870135615a5d816167da565b959894975092956060810135946080909101359350915050565b600060208284031215615a88578081fd5b815167ffffffffffffffff811115615a9e578182fd5b615aaa84828501615856565b949350505050565b600060208284031215615ac3578081fd5b815180151581146140bc578182fd5b600060208284031215615ae3578081fd5b815167ffffffffffffffff811115615af9578182fd5b615aaa848285016158e5565b600060208284031215615b16578081fd5b5035919050565b600060208284031215615b2e578081fd5b5051919050565b600080600060408486031215615b49578283fd5b83359250602084013567ffffffffffffffff811115615b66578283fd5b615b728682870161580d565b9497909650939450505050565b600080600080600060608688031215615b96578081fd5b85359450602086013567ffffffffffffffff80821115615bb4578283fd5b615bc089838a0161580d565b90965094506040880135915080821115615bd8578283fd5b50615be58882890161580d565b969995985093965092949392505050565b60008060408385031215615c08578182fd5b50508035926020909101359150565b6001600160a01b03169052565b60008284527f07ffffffffffffffffffffffffffffffffffffffffffffffffffffffffffffff831115615c55578081fd5b6020830280836020870137939093016020019283525090919050565b6000815180845260208085019450808401835b83811015615ca057815187529582019590820190600101615c84565b509495945050505050565b60038110615cb557fe5b9052565b6001600160a01b0391909116815260200190565b6001600160a01b039384168152919092166020820152604081019190915260600190565b6001600160a01b03929092168252602082015260400190565b600060a08252615d1e60a08301888a615c24565b90508560208301526001600160a01b0385166040830152836060830152826080830152979650505050505050565b6000602082526140bc6020830184615c71565b901515815260200190565b6020808252602d908201527f4164646974696f6e616c206475726174696f6e206d757374206265206772656160408201526c746572207468616e207a65726f60981b606082015260800190565b60208082526026908201527f4f776e65722063616e6e6f74206f66666572206f6e207468656972206f776e2060408201526537b83a34b7b760d11b606082015260800190565b6020808252818101527f596f7520616c7265616479206861766520616e20616374697665206f66666572604082015260600190565b60208082526012908201527f476173206c696d69742065786365656465640000000000000000000000000000604082015260600190565b6020808252601b908201527f43616e6e6f742077697468647261772068696768657374206269640000000000604082015260600190565b6020808252601b908201527f536166654d6174683a206164646974696f6e206f766572666c6f770000000000604082015260600190565b60208082526012908201527f496e76616c69642070657263656e746167650000000000000000000000000000604082015260600190565b6020808252600f908201527f4e6f2076616c6964206f66666572730000000000000000000000000000000000604082015260600190565b6020808252603a908201527f496e76616c69642074696d653a204f7074696f6e2065787069726174696f6e2060408201527f74696d65206d75737420626520696e2074686520667574757265000000000000606082015260800190565b6020808252601e908201527f536166654d6174683a207375627472616374696f6e206f766572666c6f770000604082015260600190565b60208082526016908201527f4269646465722062616c616e636520746f6f206c6f7700000000000000000000604082015260600190565b6020808252601a908201527f536166654d6174683a206469766973696f6e206279207a65726f000000000000604082015260600190565b60208082526027908201527f496e76616c696420616464726573733a20416464726573732063616e6e6f74206040820152666265207a65726f60c81b606082015260800190565b6020808252600d908201526c4e6f2076616c6964206269647360981b604082015260600190565b60208082526054908201527f496e76616c6964206672616374696f6e3a20556e697473206d7573742062652060408201527f67726561746572207468616e207a65726f20616e64206c657373207468616e2060608201527f6f7220657175616c20746f206d6178556e697473000000000000000000000000608082015260a00190565b60208082526036908201527f556e617574686f72697a65643a204f6e6c79206f7074696f6e206f776e65722060408201527f63616e2063616c6c20746869732066756e6374696f6e00000000000000000000606082015260800190565b6020808252601b908201527f52656d61696e696e67206269642062656c6f77206d696e696d756d0000000000604082015260600190565b6020808252601e908201527f596f7520616c7265616479206861766520616e20616374697665206269640000604082015260600190565b6020808252601b908201527f4f7074696f6e206e6f7420696e20637265617465642073746174650000000000604082015260600190565b60208082526017908201527f4f6666657265722062616c616e636520746f6f206c6f77000000000000000000604082015260600190565b60208082526021908201527f536166654d6174683a206d756c7469706c69636174696f6e206f766572666c6f6040820152607760f81b606082015260800190565b6020808252603e908201527f496e76616c696420636f756e746572206f666665723a20436f756e746572206f60408201527f66666572206d7573742062652067726561746572207468616e207a65726f0000606082015260800190565b60208082526024908201527f4f776e65722063616e6e6f7420626964206f6e207468656972206f776e206f706040820152633a34b7b760e11b606082015260800190565b60208082526030908201527f496e76616c696420616d6f756e743a20416d6f756e74206d757374206265206760408201527f726561746572207468616e207a65726f00000000000000000000000000000000606082015260800190565b6020808252601c908201527f43616e6e6f74207769746864726177206c6f77657374206f6666657200000000604082015260600190565b60208082526029908201527f4661696c656420746f207472616e7366657220636f6c6c61746572616c20616e60408201526864207072656d69756d60b81b606082015260800190565b60208082526018908201527f4e6f2076616c69642062696420746f2077697468647261770000000000000000604082015260600190565b6020808252600f908201527f5374616c65206269642f6f666665720000000000000000000000000000000000604082015260600190565b60208082526026908201527f426964202b207072656d69756d206578636565647320636f6c6c61746572616c604082015265081b1a5b5a5d60d21b606082015260800190565b60208082526015908201527f4f7074696f6e206973206e6f74206f6e2073616c650000000000000000000000604082015260600190565b60208082526022908201527f4f766572666c6f7720696e2065787069726174696f6e2063616c63756c61746960408201526137b760f11b606082015260800190565b6020808252601e908201527f4d6178696d756d206e756d626572206f66206269647320726561636865640000604082015260600190565b602080825260079082015266115e1c1a5c995960ca1b604082015260600190565b6020808252601a908201527f4e6f2076616c6964206f6666657220746f207769746864726177000000000000604082015260600190565b600060208252616600602083018451615c17565b60208301516166126040840182615c17565b5060408301516166256060840182615c17565b506060830151608083015260808301516101208060a085015261664c610140850183615c71565b60a0860151925061666060c0860184615cab565b60c0860151858203601f190160e0870152925061667d8184615c71565b60e087015161010087810191909152909601519190940152509192915050565b90815260200190565b9182526001600160a01b0316602082015260400190565b9283526001600160a01b03919091166020830152604082015260600190565b6000848252604060208301526166f6604083018486615c24565b95945050505050565b600086825260606020830152616719606083018688615c24565b828103604084015261672c818587615c24565b98975050505050505050565b600083825260406020830152615aaa6040830184615c71565b60008482526060602083015261676a6060830185615c71565b828103604084015261677c8185615c71565b9695505050505050565b918252602082015260400190565b92835260208301919091526001600160a01b0316604082015260600190565b60405181810167ffffffffffffffff811182821017156167d257600080fd5b604052919050565b6001600160a01b03811681146167ef57600080fd5b5056fea2646970667358221220198eeff4618be9ea6cc028c2576dbe4f48befdf6462d9b6db46d77b70070773164736f6c63430006080033","opcodes":"PUSH1 0x80 PUSH1 0x40 MSTORE CALLVALUE DUP1 ISZERO PUSH3 0x11 JUMPI PUSH1 0x0 DUP1 REVERT JUMPDEST POP PUSH1 0x40 MLOAD PUSH3 0x68C2 CODESIZE SUB DUP1 PUSH3 0x68C2 DUP4 CODECOPY DUP2 ADD PUSH1 0x40 DUP2 SWAP1 MSTORE PUSH3 0x34 SWAP2 PUSH3 0x5A JUMP JUMPDEST PUSH1 0x0 DUP1 SLOAD PUSH1 0x1 PUSH1 0x1 PUSH1 0xA0 SHL SUB NOT AND PUSH1 0x1 PUSH1 0x1 PUSH1 0xA0 SHL SUB SWAP3 SWAP1 SWAP3 AND SWAP2 SWAP1 SWAP2 OR SWAP1 SSTORE PUSH3 0x8A JUMP JUMPDEST PUSH1 0x0 PUSH1 0x20 DUP3 DUP5 SUB SLT ISZERO PUSH3 0x6C JUMPI DUP1 DUP2 REVERT JUMPDEST DUP2 MLOAD PUSH1 0x1 PUSH1 0x1 PUSH1 0xA0 SHL SUB DUP2 AND DUP2 EQ PUSH3 0x83 JUMPI DUP2 DUP3 REVERT JUMPDEST SWAP4 SWAP3 POP POP POP JUMP JUMPDEST PUSH2 0x6828 DUP1 PUSH3 0x9A PUSH1 0x0 CODECOPY PUSH1 0x0 RETURN INVALID PUSH1 0x80 PUSH1 0x40 MSTORE PUSH1 0x4 CALLDATASIZE LT PUSH2 0x1B6 JUMPI PUSH1 0x0 CALLDATALOAD PUSH1 0xE0 SHR DUP1 PUSH4 0x8610F045 GT PUSH2 0xEC JUMPI DUP1 PUSH4 0xC3F909D4 GT PUSH2 0x8A JUMPI DUP1 PUSH4 0xF2467BD7 GT PUSH2 0x64 JUMPI DUP1 PUSH4 0xF2467BD7 EQ PUSH2 0x4E3 JUMPI DUP1 PUSH4 0xF2F4EB26 EQ PUSH2 0x503 JUMPI DUP1 PUSH4 0xFBA225B9 EQ PUSH2 0x525 JUMPI DUP1 PUSH4 0xFCCE4883 EQ PUSH2 0x538 JUMPI PUSH2 0x1B6 JUMP JUMPDEST DUP1 PUSH4 0xC3F909D4 EQ PUSH2 0x480 JUMPI DUP1 PUSH4 0xC815729D EQ PUSH2 0x4A3 JUMPI DUP1 PUSH4 0xE7572230 EQ PUSH2 0x4C3 JUMPI PUSH2 0x1B6 JUMP JUMPDEST DUP1 PUSH4 0x9D6F563D GT PUSH2 0xC6 JUMPI DUP1 PUSH4 0x9D6F563D EQ PUSH2 0x400 JUMPI DUP1 PUSH4 0xA9C0C401 EQ PUSH2 0x420 JUMPI DUP1 PUSH4 0xAB052D4D EQ PUSH2 0x440 JUMPI DUP1 PUSH4 0xBFAA97E4 EQ PUSH2 0x460 JUMPI PUSH2 0x1B6 JUMP JUMPDEST DUP1 PUSH4 0x8610F045 EQ PUSH2 0x3A0 JUMPI DUP1 PUSH4 0x87AD6F13 EQ PUSH2 0x3C0 JUMPI DUP1 PUSH4 0x8F2FA71E EQ PUSH2 0x3E0 JUMPI PUSH2 0x1B6 JUMP JUMPDEST DUP1 PUSH4 0x29FEEF88 GT PUSH2 0x159 JUMPI DUP1 PUSH4 0x37FB409C GT PUSH2 0x133 JUMPI DUP1 PUSH4 0x37FB409C EQ PUSH2 0x313 JUMPI DUP1 PUSH4 0x3E2AD42D EQ PUSH2 0x333 JUMPI DUP1 PUSH4 0x6112FE2E EQ PUSH2 0x360 JUMPI DUP1 PUSH4 0x6457BD04 EQ PUSH2 0x380 JUMPI PUSH2 0x1B6 JUMP JUMPDEST DUP1 PUSH4 0x29FEEF88 EQ PUSH2 0x2B3 JUMPI DUP1 PUSH4 0x2B1FD58A EQ PUSH2 0x2C6 JUMPI DUP1 PUSH4 0x2F92E42C EQ PUSH2 0x2E6 JUMPI PUSH2 0x1B6 JUMP JUMPDEST DUP1 PUSH4 0x1250B5AE GT PUSH2 0x195 JUMPI DUP1 PUSH4 0x1250B5AE EQ PUSH2 0x21D JUMPI DUP1 PUSH4 0x13C72608 EQ PUSH2 0x23D JUMPI DUP1 PUSH4 0x1A2EF3E0 EQ PUSH2 0x273 JUMPI DUP1 PUSH4 0x1CE5E9A6 EQ PUSH2 0x286 JUMPI PUSH2 0x1B6 JUMP JUMPDEST DUP1 PUSH3 0x84AE96 EQ PUSH2 0x1BB JUMPI DUP1 PUSH4 0xEAAF4C8 EQ PUSH2 0x1DD JUMPI DUP1 PUSH4 0xF5EB055 EQ PUSH2 0x1FD JUMPI JUMPDEST PUSH1 0x0 DUP1 REVERT JUMPDEST CALLVALUE DUP1 ISZERO PUSH2 0x1C7 JUMPI PUSH1 0x0 DUP1 REVERT JUMPDEST POP PUSH2 0x1DB PUSH2 0x1D6 CALLDATASIZE PUSH1 0x4 PUSH2 0x5BF6 JUMP JUMPDEST PUSH2 0x558 JUMP JUMPDEST STOP JUMPDEST CALLVALUE DUP1 ISZERO PUSH2 0x1E9 JUMPI PUSH1 0x0 DUP1 REVERT JUMPDEST POP PUSH2 0x1DB PUSH2 0x1F8 CALLDATASIZE PUSH1 0x4 PUSH2 0x5B05 JUMP JUMPDEST PUSH2 0x866 JUMP JUMPDEST CALLVALUE DUP1 ISZERO PUSH2 0x209 JUMPI PUSH1 0x0 DUP1 REVERT JUMPDEST POP PUSH2 0x1DB PUSH2 0x218 CALLDATASIZE PUSH1 0x4 PUSH2 0x5B05 JUMP JUMPDEST PUSH2 0xAA0 JUMP JUMPDEST CALLVALUE DUP1 ISZERO PUSH2 0x229 JUMPI PUSH1 0x0 DUP1 REVERT JUMPDEST POP PUSH2 0x1DB PUSH2 0x238 CALLDATASIZE PUSH1 0x4 PUSH2 0x5B35 JUMP JUMPDEST PUSH2 0xB03 JUMP JUMPDEST CALLVALUE DUP1 ISZERO PUSH2 0x249 JUMPI PUSH1 0x0 DUP1 REVERT JUMPDEST POP PUSH2 0x25D PUSH2 0x258 CALLDATASIZE PUSH1 0x4 PUSH2 0x5B05 JUMP JUMPDEST PUSH2 0xB6E JUMP JUMPDEST PUSH1 0x40 MLOAD PUSH2 0x26A SWAP2 SWAP1 PUSH2 0x669D JUMP JUMPDEST PUSH1 0x40 MLOAD DUP1 SWAP2 SUB SWAP1 RETURN JUMPDEST PUSH2 0x1DB PUSH2 0x281 CALLDATASIZE PUSH1 0x4 PUSH2 0x5BF6 JUMP JUMPDEST PUSH2 0xBF5 JUMP JUMPDEST CALLVALUE DUP1 ISZERO PUSH2 0x292 JUMPI PUSH1 0x0 DUP1 REVERT JUMPDEST POP PUSH2 0x2A6 PUSH2 0x2A1 CALLDATASIZE PUSH1 0x4 PUSH2 0x5B05 JUMP JUMPDEST PUSH2 0xF24 JUMP JUMPDEST PUSH1 0x40 MLOAD PUSH2 0x26A SWAP2 SWAP1 PUSH2 0x65EC JUMP JUMPDEST PUSH2 0x1DB PUSH2 0x2C1 CALLDATASIZE PUSH1 0x4 PUSH2 0x5B35 JUMP JUMPDEST PUSH2 0xFB0 JUMP JUMPDEST CALLVALUE DUP1 ISZERO PUSH2 0x2D2 JUMPI PUSH1 0x0 DUP1 REVERT JUMPDEST POP PUSH2 0x1DB PUSH2 0x2E1 CALLDATASIZE PUSH1 0x4 PUSH2 0x5B05 JUMP JUMPDEST PUSH2 0x1B66 JUMP JUMPDEST CALLVALUE DUP1 ISZERO PUSH2 0x2F2 JUMPI PUSH1 0x0 DUP1 REVERT JUMPDEST POP PUSH2 0x306 PUSH2 0x301 CALLDATASIZE PUSH1 0x4 PUSH2 0x5B05 JUMP JUMPDEST PUSH2 0x1F91 JUMP JUMPDEST PUSH1 0x40 MLOAD PUSH2 0x26A SWAP2 SWAP1 PUSH2 0x5D5F JUMP JUMPDEST CALLVALUE DUP1 ISZERO PUSH2 0x31F JUMPI PUSH1 0x0 DUP1 REVERT JUMPDEST POP PUSH2 0x1DB PUSH2 0x32E CALLDATASIZE PUSH1 0x4 PUSH2 0x5B05 JUMP JUMPDEST PUSH2 0x2012 JUMP JUMPDEST CALLVALUE DUP1 ISZERO PUSH2 0x33F JUMPI PUSH1 0x0 DUP1 REVERT JUMPDEST POP PUSH2 0x353 PUSH2 0x34E CALLDATASIZE PUSH1 0x4 PUSH2 0x5B05 JUMP JUMPDEST PUSH2 0x2070 JUMP JUMPDEST PUSH1 0x40 MLOAD PUSH2 0x26A SWAP2 SWAP1 PUSH2 0x5D4C JUMP JUMPDEST CALLVALUE DUP1 ISZERO PUSH2 0x36C JUMPI PUSH1 0x0 DUP1 REVERT JUMPDEST POP PUSH2 0x1DB PUSH2 0x37B CALLDATASIZE PUSH1 0x4 PUSH2 0x5B05 JUMP JUMPDEST PUSH2 0x20F5 JUMP JUMPDEST CALLVALUE DUP1 ISZERO PUSH2 0x38C JUMPI PUSH1 0x0 DUP1 REVERT JUMPDEST POP PUSH2 0x1DB PUSH2 0x39B CALLDATASIZE PUSH1 0x4 PUSH2 0x5B05 JUMP JUMPDEST PUSH2 0x2125 JUMP JUMPDEST CALLVALUE DUP1 ISZERO PUSH2 0x3AC JUMPI PUSH1 0x0 DUP1 REVERT JUMPDEST POP PUSH2 0x1DB PUSH2 0x3BB CALLDATASIZE PUSH1 0x4 PUSH2 0x5B05 JUMP JUMPDEST PUSH2 0x2155 JUMP JUMPDEST CALLVALUE DUP1 ISZERO PUSH2 0x3CC JUMPI PUSH1 0x0 DUP1 REVERT JUMPDEST POP PUSH2 0x25D PUSH2 0x3DB CALLDATASIZE PUSH1 0x4 PUSH2 0x5A08 JUMP JUMPDEST PUSH2 0x245C JUMP JUMPDEST CALLVALUE DUP1 ISZERO PUSH2 0x3EC JUMPI PUSH1 0x0 DUP1 REVERT JUMPDEST POP PUSH2 0x1DB PUSH2 0x3FB CALLDATASIZE PUSH1 0x4 PUSH2 0x5B7F JUMP JUMPDEST PUSH2 0x24F4 JUMP JUMPDEST CALLVALUE DUP1 ISZERO PUSH2 0x40C JUMPI PUSH1 0x0 DUP1 REVERT JUMPDEST POP PUSH2 0x1DB PUSH2 0x41B CALLDATASIZE PUSH1 0x4 PUSH2 0x5B35 JUMP JUMPDEST PUSH2 0x2A8E JUMP JUMPDEST CALLVALUE DUP1 ISZERO PUSH2 0x42C JUMPI PUSH1 0x0 DUP1 REVERT JUMPDEST POP PUSH2 0x1DB PUSH2 0x43B CALLDATASIZE PUSH1 0x4 PUSH2 0x5BF6 JUMP JUMPDEST PUSH2 0x3112 JUMP JUMPDEST CALLVALUE DUP1 ISZERO PUSH2 0x44C JUMPI PUSH1 0x0 DUP1 REVERT JUMPDEST POP PUSH2 0x1DB PUSH2 0x45B CALLDATASIZE PUSH1 0x4 PUSH2 0x5BF6 JUMP JUMPDEST PUSH2 0x33CD JUMP JUMPDEST CALLVALUE DUP1 ISZERO PUSH2 0x46C JUMPI PUSH1 0x0 DUP1 REVERT JUMPDEST POP PUSH2 0x1DB PUSH2 0x47B CALLDATASIZE PUSH1 0x4 PUSH2 0x5BF6 JUMP JUMPDEST PUSH2 0x36BE JUMP JUMPDEST CALLVALUE DUP1 ISZERO PUSH2 0x48C JUMPI PUSH1 0x0 DUP1 REVERT JUMPDEST POP PUSH2 0x495 PUSH2 0x3A8A JUMP JUMPDEST PUSH1 0x40 MLOAD PUSH2 0x26A SWAP3 SWAP2 SWAP1 PUSH2 0x5CF1 JUMP JUMPDEST CALLVALUE DUP1 ISZERO PUSH2 0x4AF JUMPI PUSH1 0x0 DUP1 REVERT JUMPDEST POP PUSH2 0x1DB PUSH2 0x4BE CALLDATASIZE PUSH1 0x4 PUSH2 0x5B05 JUMP JUMPDEST PUSH2 0x3B0B JUMP JUMPDEST CALLVALUE DUP1 ISZERO PUSH2 0x4CF JUMPI PUSH1 0x0 DUP1 REVERT JUMPDEST POP PUSH2 0x353 PUSH2 0x4DE CALLDATASIZE PUSH1 0x4 PUSH2 0x5B05 JUMP JUMPDEST PUSH2 0x3E38 JUMP JUMPDEST CALLVALUE DUP1 ISZERO PUSH2 0x4EF JUMPI PUSH1 0x0 DUP1 REVERT JUMPDEST POP PUSH2 0x1DB PUSH2 0x4FE CALLDATASIZE PUSH1 0x4 PUSH2 0x5B05 JUMP JUMPDEST PUSH2 0x3E69 JUMP JUMPDEST CALLVALUE DUP1 ISZERO PUSH2 0x50F JUMPI PUSH1 0x0 DUP1 REVERT JUMPDEST POP PUSH2 0x518 PUSH2 0x3FDB JUMP JUMPDEST PUSH1 0x40 MLOAD PUSH2 0x26A SWAP2 SWAP1 PUSH2 0x5CB9 JUMP JUMPDEST PUSH2 0x1DB PUSH2 0x533 CALLDATASIZE PUSH1 0x4 PUSH2 0x5B05 JUMP JUMPDEST PUSH2 0x3FEA JUMP JUMPDEST CALLVALUE DUP1 ISZERO PUSH2 0x544 JUMPI PUSH1 0x0 DUP1 REVERT JUMPDEST POP PUSH2 0x306 PUSH2 0x553 CALLDATASIZE PUSH1 0x4 PUSH2 0x5B05 JUMP JUMPDEST PUSH2 0x4051 JUMP JUMPDEST PUSH1 0x0 DUP1 SLOAD PUSH1 0x40 MLOAD PUSH4 0xEBA1B60B PUSH1 0xE0 SHL DUP2 MSTORE DUP5 SWAP3 SWAP2 PUSH1 0x1 PUSH1 0x1 PUSH1 0xA0 SHL SUB AND SWAP1 PUSH4 0xEBA1B60B SWAP1 PUSH2 0x58C SWAP1 DUP6 SWAP1 CALLER SWAP1 PUSH1 0x4 ADD PUSH2 0x66A6 JUMP JUMPDEST PUSH1 0x20 PUSH1 0x40 MLOAD DUP1 DUP4 SUB DUP2 DUP7 DUP1 EXTCODESIZE ISZERO DUP1 ISZERO PUSH2 0x5A4 JUMPI PUSH1 0x0 DUP1 REVERT JUMPDEST POP GAS STATICCALL ISZERO DUP1 ISZERO PUSH2 0x5B8 JUMPI RETURNDATASIZE PUSH1 0x0 DUP1 RETURNDATACOPY RETURNDATASIZE PUSH1 0x0 REVERT JUMPDEST POP POP POP POP PUSH1 0x40 MLOAD RETURNDATASIZE PUSH1 0x1F NOT PUSH1 0x1F DUP3 ADD AND DUP3 ADD DUP1 PUSH1 0x40 MSTORE POP DUP2 ADD SWAP1 PUSH2 0x5DC SWAP2 SWAP1 PUSH2 0x5B1D JUMP JUMPDEST GT PUSH2 0x602 JUMPI PUSH1 0x40 MLOAD PUSH3 0x461BCD PUSH1 0xE5 SHL DUP2 MSTORE PUSH1 0x4 ADD PUSH2 0x5F9 SWAP1 PUSH2 0x6430 JUMP JUMPDEST PUSH1 0x40 MLOAD DUP1 SWAP2 SUB SWAP1 REVERT JUMPDEST PUSH1 0x0 DUP3 GT DUP1 ISZERO PUSH2 0x613 JUMPI POP PUSH1 0x64 DUP3 GT ISZERO JUMPDEST PUSH2 0x62F JUMPI PUSH1 0x40 MLOAD PUSH3 0x461BCD PUSH1 0xE5 SHL DUP2 MSTORE PUSH1 0x4 ADD PUSH2 0x5F9 SWAP1 PUSH2 0x5ED7 JUMP JUMPDEST PUSH1 0x0 DUP1 SLOAD PUSH1 0x40 MLOAD PUSH4 0xEBA1B60B PUSH1 0xE0 SHL DUP2 MSTORE PUSH1 0x1 PUSH1 0x1 PUSH1 0xA0 SHL SUB SWAP1 SWAP2 AND SWAP1 PUSH4 0xEBA1B60B SWAP1 PUSH2 0x662 SWAP1 DUP8 SWAP1 CALLER SWAP1 PUSH1 0x4 ADD PUSH2 0x66A6 JUMP JUMPDEST PUSH1 0x20 PUSH1 0x40 MLOAD DUP1 DUP4 SUB DUP2 DUP7 DUP1 EXTCODESIZE ISZERO DUP1 ISZERO PUSH2 0x67A JUMPI PUSH1 0x0 DUP1 REVERT JUMPDEST POP GAS STATICCALL ISZERO DUP1 ISZERO PUSH2 0x68E JUMPI RETURNDATASIZE PUSH1 0x0 DUP1 RETURNDATACOPY RETURNDATASIZE PUSH1 0x0 REVERT JUMPDEST POP POP POP POP PUSH1 0x40 MLOAD RETURNDATASIZE PUSH1 0x1F NOT PUSH1 0x1F DUP3 ADD AND DUP3 ADD DUP1 PUSH1 0x40 MSTORE POP DUP2 ADD SWAP1 PUSH2 0x6B2 SWAP2 SWAP1 PUSH2 0x5B1D JUMP JUMPDEST SWAP1 POP PUSH1 0x0 PUSH2 0x6D7 PUSH1 0x64 PUSH2 0x6CB DUP5 DUP8 PUSH4 0xFFFFFFFF PUSH2 0x4082 AND JUMP JUMPDEST SWAP1 PUSH4 0xFFFFFFFF PUSH2 0x40C3 AND JUMP JUMPDEST SWAP1 POP PUSH1 0x0 DUP1 SWAP1 SLOAD SWAP1 PUSH2 0x100 EXP SWAP1 DIV PUSH1 0x1 PUSH1 0x1 PUSH1 0xA0 SHL SUB AND PUSH1 0x1 PUSH1 0x1 PUSH1 0xA0 SHL SUB AND PUSH4 0xDE5490FF PUSH1 0x40 MLOAD DUP2 PUSH4 0xFFFFFFFF AND PUSH1 0xE0 SHL DUP2 MSTORE PUSH1 0x4 ADD PUSH1 0x20 PUSH1 0x40 MLOAD DUP1 DUP4 SUB DUP2 DUP7 DUP1 EXTCODESIZE ISZERO DUP1 ISZERO PUSH2 0x726 JUMPI PUSH1 0x0 DUP1 REVERT JUMPDEST POP GAS STATICCALL ISZERO DUP1 ISZERO PUSH2 0x73A JUMPI RETURNDATASIZE PUSH1 0x0 DUP1 RETURNDATACOPY RETURNDATASIZE PUSH1 0x0 REVERT JUMPDEST POP POP POP POP PUSH1 0x40 MLOAD RETURNDATASIZE PUSH1 0x1F NOT PUSH1 0x1F DUP3 ADD AND DUP3 ADD DUP1 PUSH1 0x40 MSTORE POP DUP2 ADD SWAP1 PUSH2 0x75E SWAP2 SWAP1 PUSH2 0x5B1D JUMP JUMPDEST PUSH2 0x76E DUP4 DUP4 PUSH4 0xFFFFFFFF PUSH2 0x40F5 AND JUMP JUMPDEST LT ISZERO PUSH2 0x78C JUMPI PUSH1 0x40 MLOAD PUSH3 0x461BCD PUSH1 0xE5 SHL DUP2 MSTORE PUSH1 0x4 ADD PUSH2 0x5F9 SWAP1 PUSH2 0x6195 JUMP JUMPDEST PUSH1 0x0 SLOAD PUSH1 0x40 MLOAD PUSH4 0x87CC098F PUSH1 0xE0 SHL DUP2 MSTORE PUSH1 0x1 PUSH1 0x1 PUSH1 0xA0 SHL SUB SWAP1 SWAP2 AND SWAP1 PUSH4 0x87CC098F SWAP1 PUSH2 0x7BC SWAP1 CALLER SWAP1 PUSH1 0x4 ADD PUSH2 0x5CB9 JUMP JUMPDEST PUSH1 0x0 PUSH1 0x40 MLOAD DUP1 DUP4 SUB DUP2 PUSH1 0x0 DUP8 DUP1 EXTCODESIZE ISZERO DUP1 ISZERO PUSH2 0x7D6 JUMPI PUSH1 0x0 DUP1 REVERT JUMPDEST POP GAS CALL ISZERO DUP1 ISZERO PUSH2 0x7EA JUMPI RETURNDATASIZE PUSH1 0x0 DUP1 RETURNDATACOPY RETURNDATASIZE PUSH1 0x0 REVERT JUMPDEST POP POP PUSH1 0x40 MLOAD CALLER SWAP3 POP DUP4 ISZERO PUSH2 0x8FC MUL SWAP2 POP DUP4 SWAP1 PUSH1 0x0 DUP2 DUP2 DUP2 DUP6 DUP9 DUP9 CALL SWAP4 POP POP POP POP ISZERO DUP1 ISZERO PUSH2 0x81B JUMPI RETURNDATASIZE PUSH1 0x0 DUP1 RETURNDATACOPY RETURNDATASIZE PUSH1 0x0 REVERT JUMPDEST POP CALLER PUSH1 0x1 PUSH1 0x1 PUSH1 0xA0 SHL SUB AND PUSH32 0xD27C611A7685444D3C695D592CC9CC0C35E45402F9188162427685F68A090991 DUP7 DUP4 PUSH1 0x40 MLOAD PUSH2 0x857 SWAP3 SWAP2 SWAP1 PUSH2 0x6786 JUMP JUMPDEST PUSH1 0x40 MLOAD DUP1 SWAP2 SUB SWAP1 LOG2 POP POP POP POP POP JUMP JUMPDEST PUSH1 0x0 DUP1 SLOAD PUSH1 0x40 MLOAD PUSH4 0xEBA1B60B PUSH1 0xE0 SHL DUP2 MSTORE DUP4 SWAP3 SWAP2 PUSH1 0x1 PUSH1 0x1 PUSH1 0xA0 SHL SUB AND SWAP1 PUSH4 0xEBA1B60B SWAP1 PUSH2 0x89A SWAP1 DUP6 SWAP1 CALLER SWAP1 PUSH1 0x4 ADD PUSH2 0x66A6 JUMP JUMPDEST PUSH1 0x20 PUSH1 0x40 MLOAD DUP1 DUP4 SUB DUP2 DUP7 DUP1 EXTCODESIZE ISZERO DUP1 ISZERO PUSH2 0x8B2 JUMPI PUSH1 0x0 DUP1 REVERT JUMPDEST POP GAS STATICCALL ISZERO DUP1 ISZERO PUSH2 0x8C6 JUMPI RETURNDATASIZE PUSH1 0x0 DUP1 RETURNDATACOPY RETURNDATASIZE PUSH1 0x0 REVERT JUMPDEST POP POP POP POP PUSH1 0x40 MLOAD RETURNDATASIZE PUSH1 0x1F NOT PUSH1 0x1F DUP3 ADD AND DUP3 ADD DUP1 PUSH1 0x40 MSTORE POP DUP2 ADD SWAP1 PUSH2 0x8EA SWAP2 SWAP1 PUSH2 0x5B1D JUMP JUMPDEST GT PUSH2 0x907 JUMPI PUSH1 0x40 MLOAD PUSH3 0x461BCD PUSH1 0xE5 SHL DUP2 MSTORE PUSH1 0x4 ADD PUSH2 0x5F9 SWAP1 PUSH2 0x6430 JUMP JUMPDEST PUSH1 0x0 DUP1 SLOAD PUSH1 0x40 MLOAD PUSH4 0xEBA1B60B PUSH1 0xE0 SHL DUP2 MSTORE PUSH1 0x1 PUSH1 0x1 PUSH1 0xA0 SHL SUB SWAP1 SWAP2 AND SWAP1 PUSH4 0xEBA1B60B SWAP1 PUSH2 0x93A SWAP1 DUP7 SWAP1 CALLER SWAP1 PUSH1 0x4 ADD PUSH2 0x66A6 JUMP JUMPDEST PUSH1 0x20 PUSH1 0x40 MLOAD DUP1 DUP4 SUB DUP2 DUP7 DUP1 EXTCODESIZE ISZERO DUP1 ISZERO PUSH2 0x952 JUMPI PUSH1 0x0 DUP1 REVERT JUMPDEST POP GAS STATICCALL ISZERO DUP1 ISZERO PUSH2 0x966 JUMPI RETURNDATASIZE PUSH1 0x0 DUP1 RETURNDATACOPY RETURNDATASIZE PUSH1 0x0 REVERT JUMPDEST POP POP POP POP PUSH1 0x40 MLOAD RETURNDATASIZE PUSH1 0x1F NOT PUSH1 0x1F DUP3 ADD AND DUP3 ADD DUP1 PUSH1 0x40 MSTORE POP DUP2 ADD SWAP1 PUSH2 0x98A SWAP2 SWAP1 PUSH2 0x5B1D JUMP JUMPDEST PUSH1 0x0 SLOAD PUSH1 0x40 MLOAD PUSH4 0x23CA2191 PUSH1 0xE2 SHL DUP2 MSTORE SWAP2 SWAP3 POP PUSH1 0x1 PUSH1 0x1 PUSH1 0xA0 SHL SUB AND SWAP1 PUSH4 0x8F288644 SWAP1 PUSH2 0x9BB SWAP1 DUP7 SWAP1 PUSH1 0x4 ADD PUSH2 0x669D JUMP JUMPDEST PUSH1 0x20 PUSH1 0x40 MLOAD DUP1 DUP4 SUB DUP2 DUP7 DUP1 EXTCODESIZE ISZERO DUP1 ISZERO PUSH2 0x9D3 JUMPI PUSH1 0x0 DUP1 REVERT JUMPDEST POP GAS STATICCALL ISZERO DUP1 ISZERO PUSH2 0x9E7 JUMPI RETURNDATASIZE PUSH1 0x0 DUP1 RETURNDATACOPY RETURNDATASIZE PUSH1 0x0 REVERT JUMPDEST POP POP POP POP PUSH1 0x40 MLOAD RETURNDATASIZE PUSH1 0x1F NOT PUSH1 0x1F DUP3 ADD AND DUP3 ADD DUP1 PUSH1 0x40 MSTORE POP DUP2 ADD SWAP1 PUSH2 0xA0B SWAP2 SWAP1 PUSH2 0x5B1D JUMP JUMPDEST DUP2 LT PUSH2 0xA29 JUMPI PUSH1 0x40 MLOAD PUSH3 0x461BCD PUSH1 0xE5 SHL DUP2 MSTORE PUSH1 0x4 ADD PUSH2 0x5F9 SWAP1 PUSH2 0x5E69 JUMP JUMPDEST PUSH2 0xA33 DUP4 CALLER PUSH2 0x411D JUMP JUMPDEST PUSH1 0x40 MLOAD CALLER SWAP1 DUP3 ISZERO PUSH2 0x8FC MUL SWAP1 DUP4 SWAP1 PUSH1 0x0 DUP2 DUP2 DUP2 DUP6 DUP9 DUP9 CALL SWAP4 POP POP POP POP ISZERO DUP1 ISZERO PUSH2 0xA60 JUMPI RETURNDATASIZE PUSH1 0x0 DUP1 RETURNDATACOPY RETURNDATASIZE PUSH1 0x0 REVERT JUMPDEST POP DUP3 PUSH32 0x8F8619524E8D462CEAD34604BD2247EDE24175801481E4D0B8059AC8AA41C301 CALLER DUP4 PUSH1 0x40 MLOAD PUSH2 0xA93 SWAP3 SWAP2 SWAP1 PUSH2 0x5CF1 JUMP JUMPDEST PUSH1 0x40 MLOAD DUP1 SWAP2 SUB SWAP1 LOG2 POP POP POP JUMP JUMPDEST PUSH1 0x0 SLOAD PUSH1 0x40 MLOAD PUSH4 0xF5EB055 PUSH1 0xE0 SHL DUP2 MSTORE PUSH1 0x1 PUSH1 0x1 PUSH1 0xA0 SHL SUB SWAP1 SWAP2 AND SWAP1 PUSH4 0xF5EB055 SWAP1 PUSH2 0xAD0 SWAP1 DUP5 SWAP1 PUSH1 0x4 ADD PUSH2 0x669D JUMP JUMPDEST PUSH1 0x0 PUSH1 0x40 MLOAD DUP1 DUP4 SUB DUP2 DUP7 DUP1 EXTCODESIZE ISZERO DUP1 ISZERO PUSH2 0xAE8 JUMPI PUSH1 0x0 DUP1 REVERT JUMPDEST POP GAS STATICCALL ISZERO DUP1 ISZERO PUSH2 0xAFC JUMPI RETURNDATASIZE PUSH1 0x0 DUP1 RETURNDATACOPY RETURNDATASIZE PUSH1 0x0 REVERT JUMPDEST POP POP POP POP POP JUMP JUMPDEST PUSH1 0x0 SLOAD PUSH1 0x40 MLOAD PUSH4 0x9285AD7 PUSH1 0xE1 SHL DUP2 MSTORE PUSH1 0x1 PUSH1 0x1 PUSH1 0xA0 SHL SUB SWAP1 SWAP2 AND SWAP1 PUSH4 0x1250B5AE SWAP1 PUSH2 0xB37 SWAP1 DUP7 SWAP1 DUP7 SWAP1 DUP7 SWAP1 PUSH1 0x4 ADD PUSH2 0x66DC JUMP JUMPDEST PUSH1 0x0 PUSH1 0x40 MLOAD DUP1 DUP4 SUB DUP2 PUSH1 0x0 DUP8 DUP1 EXTCODESIZE ISZERO DUP1 ISZERO PUSH2 0xB51 JUMPI PUSH1 0x0 DUP1 REVERT JUMPDEST POP GAS CALL ISZERO DUP1 ISZERO PUSH2 0xB65 JUMPI RETURNDATASIZE PUSH1 0x0 DUP1 RETURNDATACOPY RETURNDATASIZE PUSH1 0x0 REVERT JUMPDEST POP POP POP POP POP POP POP JUMP JUMPDEST PUSH1 0x0 DUP1 SLOAD PUSH1 0x40 MLOAD PUSH4 0x278E4C1 PUSH1 0xE3 SHL DUP2 MSTORE PUSH1 0x1 PUSH1 0x1 PUSH1 0xA0 SHL SUB SWAP1 SWAP2 AND SWAP1 PUSH4 0x13C72608 SWAP1 PUSH2 0xB9F SWAP1 DUP6 SWAP1 PUSH1 0x4 ADD PUSH2 0x669D JUMP JUMPDEST PUSH1 0x20 PUSH1 0x40 MLOAD DUP1 DUP4 SUB DUP2 DUP7 DUP1 EXTCODESIZE ISZERO DUP1 ISZERO PUSH2 0xBB7 JUMPI PUSH1 0x0 DUP1 REVERT JUMPDEST POP GAS STATICCALL ISZERO DUP1 ISZERO PUSH2 0xBCB JUMPI RETURNDATASIZE PUSH1 0x0 DUP1 RETURNDATACOPY RETURNDATASIZE PUSH1 0x0 REVERT JUMPDEST POP POP POP POP PUSH1 0x40 MLOAD RETURNDATASIZE PUSH1 0x1F NOT PUSH1 0x1F DUP3 ADD AND DUP3 ADD DUP1 PUSH1 0x40 MSTORE POP DUP2 ADD SWAP1 PUSH2 0xBEF SWAP2 SWAP1 PUSH2 0x5B1D JUMP JUMPDEST SWAP3 SWAP2 POP POP JUMP JUMPDEST DUP1 PUSH1 0x0 DUP2 GT PUSH2 0xC16 JUMPI PUSH1 0x40 MLOAD PUSH3 0x461BCD PUSH1 0xE5 SHL DUP2 MSTORE PUSH1 0x4 ADD PUSH2 0x5F9 SWAP1 PUSH2 0x6353 JUMP JUMPDEST PUSH1 0x0 SLOAD PUSH1 0x40 MLOAD PUSH4 0xE72F4D3 PUSH1 0xE1 SHL DUP2 MSTORE PUSH1 0x1 PUSH1 0x1 PUSH1 0xA0 SHL SUB SWAP1 SWAP2 AND SWAP1 PUSH4 0x1CE5E9A6 SWAP1 PUSH2 0xC46 SWAP1 DUP7 SWAP1 PUSH1 0x4 ADD PUSH2 0x669D JUMP JUMPDEST PUSH1 0x0 PUSH1 0x40 MLOAD DUP1 DUP4 SUB DUP2 DUP7 DUP1 EXTCODESIZE ISZERO DUP1 ISZERO PUSH2 0xC5E JUMPI PUSH1 0x0 DUP1 REVERT JUMPDEST POP GAS STATICCALL ISZERO DUP1 ISZERO PUSH2 0xC72 JUMPI RETURNDATASIZE PUSH1 0x0 DUP1 RETURNDATACOPY RETURNDATASIZE PUSH1 0x0 REVERT JUMPDEST POP POP POP POP PUSH1 0x40 MLOAD RETURNDATASIZE PUSH1 0x0 DUP3 RETURNDATACOPY PUSH1 0x1F RETURNDATASIZE SWAP1 DUP2 ADD PUSH1 0x1F NOT AND DUP3 ADD PUSH1 0x40 MSTORE PUSH2 0xC9A SWAP2 SWAP1 DUP2 ADD SWAP1 PUSH2 0x5AD2 JUMP JUMPDEST PUSH1 0xE0 ADD MLOAD DUP1 TIMESTAMP LT PUSH2 0xCBD JUMPI PUSH1 0x40 MLOAD PUSH3 0x461BCD PUSH1 0xE5 SHL DUP2 MSTORE PUSH1 0x4 ADD PUSH2 0x5F9 SWAP1 PUSH2 0x5F45 JUMP JUMPDEST PUSH1 0x0 SLOAD PUSH1 0x40 MLOAD PUSH4 0xD9548E53 PUSH1 0xE0 SHL DUP2 MSTORE DUP6 SWAP2 PUSH1 0x1 PUSH1 0x1 PUSH1 0xA0 SHL SUB AND SWAP1 PUSH4 0xD9548E53 SWAP1 PUSH2 0xCED SWAP1 DUP5 SWAP1 PUSH1 0x4 ADD PUSH2 0x669D JUMP JUMPDEST PUSH1 0x20 PUSH1 0x40 MLOAD DUP1 DUP4 SUB DUP2 DUP7 DUP1 EXTCODESIZE ISZERO DUP1 ISZERO PUSH2 0xD05 JUMPI PUSH1 0x0 DUP1 REVERT JUMPDEST POP GAS STATICCALL ISZERO DUP1 ISZERO PUSH2 0xD19 JUMPI RETURNDATASIZE PUSH1 0x0 DUP1 RETURNDATACOPY RETURNDATASIZE PUSH1 0x0 REVERT JUMPDEST POP POP POP POP PUSH1 0x40 MLOAD RETURNDATASIZE PUSH1 0x1F NOT PUSH1 0x1F DUP3 ADD AND DUP3 ADD DUP1 PUSH1 0x40 MSTORE POP DUP2 ADD SWAP1 PUSH2 0xD3D SWAP2 SWAP1 PUSH2 0x5AB2 JUMP JUMPDEST ISZERO PUSH2 0xD5A JUMPI PUSH1 0x40 MLOAD PUSH3 0x461BCD PUSH1 0xE5 SHL DUP2 MSTORE PUSH1 0x4 ADD PUSH2 0x5F9 SWAP1 PUSH2 0x6594 JUMP JUMPDEST PUSH1 0x0 SLOAD PUSH1 0x40 MLOAD PUSH4 0xE72F4D3 PUSH1 0xE1 SHL DUP2 MSTORE PUSH1 0x1 PUSH1 0x1 PUSH1 0xA0 SHL SUB SWAP1 SWAP2 AND SWAP1 PUSH4 0x1CE5E9A6 SWAP1 PUSH2 0xD8A SWAP1 DUP9 SWAP1 PUSH1 0x4 ADD PUSH2 0x669D JUMP JUMPDEST PUSH1 0x0 PUSH1 0x40 MLOAD DUP1 DUP4 SUB DUP2 DUP7 DUP1 EXTCODESIZE ISZERO DUP1 ISZERO PUSH2 0xDA2 JUMPI PUSH1 0x0 DUP1 REVERT JUMPDEST POP GAS STATICCALL ISZERO DUP1 ISZERO PUSH2 0xDB6 JUMPI RETURNDATASIZE PUSH1 0x0 DUP1 RETURNDATACOPY RETURNDATASIZE PUSH1 0x0 REVERT JUMPDEST POP POP POP POP PUSH1 0x40 MLOAD RETURNDATASIZE PUSH1 0x0 DUP3 RETURNDATACOPY PUSH1 0x1F RETURNDATASIZE SWAP1 DUP2 ADD PUSH1 0x1F NOT AND DUP3 ADD PUSH1 0x40 MSTORE PUSH2 0xDDE SWAP2 SWAP1 DUP2 ADD SWAP1 PUSH2 0x5AD2 JUMP JUMPDEST PUSH1 0x20 ADD MLOAD PUSH1 0x1 PUSH1 0x1 PUSH1 0xA0 SHL SUB AND CALLER PUSH1 0x1 PUSH1 0x1 PUSH1 0xA0 SHL SUB AND EQ ISZERO PUSH2 0xE13 JUMPI PUSH1 0x40 MLOAD PUSH3 0x461BCD PUSH1 0xE5 SHL DUP2 MSTORE PUSH1 0x4 ADD PUSH2 0x5F9 SWAP1 PUSH2 0x630F JUMP JUMPDEST PUSH1 0x0 DUP1 SLOAD PUSH1 0x40 MLOAD PUSH4 0xEBA1B60B PUSH1 0xE0 SHL DUP2 MSTORE PUSH1 0x1 PUSH1 0x1 PUSH1 0xA0 SHL SUB SWAP1 SWAP2 AND SWAP1 PUSH4 0xEBA1B60B SWAP1 PUSH2 0xE46 SWAP1 DUP10 SWAP1 CALLER SWAP1 PUSH1 0x4 ADD PUSH2 0x66A6 JUMP JUMPDEST PUSH1 0x20 PUSH1 0x40 MLOAD DUP1 DUP4 SUB DUP2 DUP7 DUP1 EXTCODESIZE ISZERO DUP1 ISZERO PUSH2 0xE5E JUMPI PUSH1 0x0 DUP1 REVERT JUMPDEST POP GAS STATICCALL ISZERO DUP1 ISZERO PUSH2 0xE72 JUMPI RETURNDATASIZE PUSH1 0x0 DUP1 RETURNDATACOPY RETURNDATASIZE PUSH1 0x0 REVERT JUMPDEST POP POP POP POP PUSH1 0x40 MLOAD RETURNDATASIZE PUSH1 0x1F NOT PUSH1 0x1F DUP3 ADD AND DUP3 ADD DUP1 PUSH1 0x40 MSTORE POP DUP2 ADD SWAP1 PUSH2 0xE96 SWAP2 SWAP1 PUSH2 0x5B1D JUMP JUMPDEST SWAP1 POP DUP1 ISZERO PUSH2 0xEB6 JUMPI PUSH1 0x40 MLOAD PUSH3 0x461BCD PUSH1 0xE5 SHL DUP2 MSTORE PUSH1 0x4 ADD PUSH2 0x5F9 SWAP1 PUSH2 0x61CC JUMP JUMPDEST PUSH1 0x0 SLOAD PUSH1 0x40 MLOAD PUSH4 0xD97FEF01 PUSH1 0xE0 SHL DUP2 MSTORE PUSH1 0x1 PUSH1 0x1 PUSH1 0xA0 SHL SUB SWAP1 SWAP2 AND SWAP1 PUSH4 0xD97FEF01 SWAP1 PUSH2 0xEEA SWAP1 DUP10 SWAP1 CALLER SWAP1 DUP11 SWAP1 PUSH1 0x4 ADD PUSH2 0x66BD JUMP JUMPDEST PUSH1 0x0 PUSH1 0x40 MLOAD DUP1 DUP4 SUB DUP2 PUSH1 0x0 DUP8 DUP1 EXTCODESIZE ISZERO DUP1 ISZERO PUSH2 0xF04 JUMPI PUSH1 0x0 DUP1 REVERT JUMPDEST POP GAS CALL ISZERO DUP1 ISZERO PUSH2 0xF18 JUMPI RETURNDATASIZE PUSH1 0x0 DUP1 RETURNDATACOPY RETURNDATASIZE PUSH1 0x0 REVERT JUMPDEST POP POP POP POP POP POP POP POP POP POP JUMP JUMPDEST PUSH2 0xF2C PUSH2 0x57B7 JUMP JUMPDEST PUSH1 0x0 SLOAD PUSH1 0x40 MLOAD PUSH4 0xE72F4D3 PUSH1 0xE1 SHL DUP2 MSTORE PUSH1 0x1 PUSH1 0x1 PUSH1 0xA0 SHL SUB SWAP1 SWAP2 AND SWAP1 PUSH4 0x1CE5E9A6 SWAP1 PUSH2 0xF5C SWAP1 DUP6 SWAP1 PUSH1 0x4 ADD PUSH2 0x669D JUMP JUMPDEST PUSH1 0x0 PUSH1 0x40 MLOAD DUP1 DUP4 SUB DUP2 DUP7 DUP1 EXTCODESIZE ISZERO DUP1 ISZERO PUSH2 0xF74 JUMPI PUSH1 0x0 DUP1 REVERT JUMPDEST POP GAS STATICCALL ISZERO DUP1 ISZERO PUSH2 0xF88 JUMPI RETURNDATASIZE PUSH1 0x0 DUP1 RETURNDATACOPY RETURNDATASIZE PUSH1 0x0 REVERT JUMPDEST POP POP POP POP PUSH1 0x40 MLOAD RETURNDATASIZE PUSH1 0x0 DUP3 RETURNDATACOPY PUSH1 0x1F RETURNDATASIZE SWAP1 DUP2 ADD PUSH1 0x1F NOT AND DUP3 ADD PUSH1 0x40 MSTORE PUSH2 0xBEF SWAP2 SWAP1 DUP2 ADD SWAP1 PUSH2 0x5AD2 JUMP JUMPDEST PUSH1 0x0 SLOAD PUSH1 0x40 MLOAD PUSH4 0xE72F4D3 PUSH1 0xE1 SHL DUP2 MSTORE PUSH1 0x1 PUSH1 0x1 PUSH1 0xA0 SHL SUB SWAP1 SWAP2 AND SWAP1 PUSH4 0x1CE5E9A6 SWAP1 PUSH2 0xFE0 SWAP1 DUP7 SWAP1 PUSH1 0x4 ADD PUSH2 0x669D JUMP JUMPDEST PUSH1 0x0 PUSH1 0x40 MLOAD DUP1 DUP4 SUB DUP2 DUP7 DUP1 EXTCODESIZE ISZERO DUP1 ISZERO PUSH2 0xFF8 JUMPI PUSH1 0x0 DUP1 REVERT JUMPDEST POP GAS STATICCALL ISZERO DUP1 ISZERO PUSH2 0x100C JUMPI RETURNDATASIZE PUSH1 0x0 DUP1 RETURNDATACOPY RETURNDATASIZE PUSH1 0x0 REVERT JUMPDEST POP POP POP POP PUSH1 0x40 MLOAD RETURNDATASIZE PUSH1 0x0 DUP3 RETURNDATACOPY PUSH1 0x1F RETURNDATASIZE SWAP1 DUP2 ADD PUSH1 0x1F NOT AND DUP3 ADD PUSH1 0x40 MSTORE PUSH2 0x1034 SWAP2 SWAP1 DUP2 ADD SWAP1 PUSH2 0x5AD2 JUMP JUMPDEST PUSH1 0x20 ADD MLOAD PUSH1 0x1 PUSH1 0x1 PUSH1 0xA0 SHL SUB DUP2 AND PUSH2 0x105E JUMPI PUSH1 0x40 MLOAD PUSH3 0x461BCD PUSH1 0xE5 SHL DUP2 MSTORE PUSH1 0x4 ADD PUSH2 0x5F9 SWAP1 PUSH2 0x6047 JUMP JUMPDEST PUSH1 0x0 SLOAD PUSH1 0x40 MLOAD PUSH4 0x278E4C1 PUSH1 0xE3 SHL DUP2 MSTORE PUSH1 0x1 PUSH1 0x1 PUSH1 0xA0 SHL SUB SWAP1 SWAP2 AND SWAP1 PUSH4 0x13C72608 SWAP1 PUSH2 0x108E SWAP1 DUP8 SWAP1 PUSH1 0x4 ADD PUSH2 0x669D JUMP JUMPDEST PUSH1 0x20 PUSH1 0x40 MLOAD DUP1 DUP4 SUB DUP2 DUP7 DUP1 EXTCODESIZE ISZERO DUP1 ISZERO PUSH2 0x10A6 JUMPI PUSH1 0x0 DUP1 REVERT JUMPDEST POP GAS STATICCALL ISZERO DUP1 ISZERO PUSH2 0x10BA JUMPI RETURNDATASIZE PUSH1 0x0 DUP1 RETURNDATACOPY RETURNDATASIZE PUSH1 0x0 REVERT JUMPDEST POP POP POP POP PUSH1 0x40 MLOAD RETURNDATASIZE PUSH1 0x1F NOT PUSH1 0x1F DUP3 ADD AND DUP3 ADD DUP1 PUSH1 0x40 MSTORE POP DUP2 ADD SWAP1 PUSH2 0x10DE SWAP2 SWAP1 PUSH2 0x5B1D JUMP JUMPDEST DUP1 TIMESTAMP LT PUSH2 0x10FD JUMPI PUSH1 0x40 MLOAD PUSH3 0x461BCD PUSH1 0xE5 SHL DUP2 MSTORE PUSH1 0x4 ADD PUSH2 0x5F9 SWAP1 PUSH2 0x5F45 JUMP JUMPDEST PUSH1 0x0 SLOAD PUSH1 0x40 MLOAD PUSH4 0xD9548E53 PUSH1 0xE0 SHL DUP2 MSTORE DUP7 SWAP2 PUSH1 0x1 PUSH1 0x1 PUSH1 0xA0 SHL SUB AND SWAP1 PUSH4 0xD9548E53 SWAP1 PUSH2 0x112D SWAP1 DUP5 SWAP1 PUSH1 0x4 ADD PUSH2 0x669D JUMP JUMPDEST PUSH1 0x20 PUSH1 0x40 MLOAD DUP1 DUP4 SUB DUP2 DUP7 DUP1 EXTCODESIZE ISZERO DUP1 ISZERO PUSH2 0x1145 JUMPI PUSH1 0x0 DUP1 REVERT JUMPDEST POP GAS STATICCALL ISZERO DUP1 ISZERO PUSH2 0x1159 JUMPI RETURNDATASIZE PUSH1 0x0 DUP1 RETURNDATACOPY RETURNDATASIZE PUSH1 0x0 REVERT JUMPDEST POP POP POP POP PUSH1 0x40 MLOAD RETURNDATASIZE PUSH1 0x1F NOT PUSH1 0x1F DUP3 ADD AND DUP3 ADD DUP1 PUSH1 0x40 MSTORE POP DUP2 ADD SWAP1 PUSH2 0x117D SWAP2 SWAP1 PUSH2 0x5AB2 JUMP JUMPDEST ISZERO PUSH2 0x119A JUMPI PUSH1 0x40 MLOAD PUSH3 0x461BCD PUSH1 0xE5 SHL DUP2 MSTORE PUSH1 0x4 ADD PUSH2 0x5F9 SWAP1 PUSH2 0x6594 JUMP JUMPDEST DUP5 DUP5 PUSH1 0x0 DUP2 DUP2 LT PUSH2 0x11A7 JUMPI INVALID JUMPDEST SWAP1 POP PUSH1 0x20 MUL ADD CALLDATALOAD PUSH1 0x0 DUP2 GT PUSH2 0x11CE JUMPI PUSH1 0x40 MLOAD PUSH3 0x461BCD PUSH1 0xE5 SHL DUP2 MSTORE PUSH1 0x4 ADD PUSH2 0x5F9 SWAP1 PUSH2 0x6353 JUMP JUMPDEST PUSH1 0x0 SLOAD PUSH1 0x40 MLOAD PUSH4 0xA624A1DF PUSH1 0xE0 SHL DUP2 MSTORE DUP9 SWAP2 PUSH1 0x1 PUSH1 0x1 PUSH1 0xA0 SHL SUB AND SWAP1 PUSH4 0xA624A1DF SWAP1 PUSH2 0x11FE SWAP1 DUP5 SWAP1 PUSH1 0x4 ADD PUSH2 0x669D JUMP JUMPDEST PUSH1 0x20 PUSH1 0x40 MLOAD DUP1 DUP4 SUB DUP2 DUP7 DUP1 EXTCODESIZE ISZERO DUP1 ISZERO PUSH2 0x1216 JUMPI PUSH1 0x0 DUP1 REVERT JUMPDEST POP GAS STATICCALL ISZERO DUP1 ISZERO PUSH2 0x122A JUMPI RETURNDATASIZE PUSH1 0x0 DUP1 RETURNDATACOPY RETURNDATASIZE PUSH1 0x0 REVERT JUMPDEST POP POP POP POP PUSH1 0x40 MLOAD RETURNDATASIZE PUSH1 0x1F NOT PUSH1 0x1F DUP3 ADD AND DUP3 ADD DUP1 PUSH1 0x40 MSTORE POP DUP2 ADD SWAP1 PUSH2 0x124E SWAP2 SWAP1 PUSH2 0x5AB2 JUMP JUMPDEST ISZERO PUSH2 0x126B JUMPI PUSH1 0x40 MLOAD PUSH3 0x461BCD PUSH1 0xE5 SHL DUP2 MSTORE PUSH1 0x4 ADD PUSH2 0x5F9 SWAP1 PUSH2 0x6467 JUMP JUMPDEST DUP7 DUP7 PUSH1 0x1 DUP2 DUP2 LT PUSH2 0x1278 JUMPI INVALID JUMPDEST SWAP1 POP PUSH1 0x20 MUL ADD CALLDATALOAD PUSH1 0x0 DUP2 GT PUSH2 0x129F JUMPI PUSH1 0x40 MLOAD PUSH3 0x461BCD PUSH1 0xE5 SHL DUP2 MSTORE PUSH1 0x4 ADD PUSH2 0x5F9 SWAP1 PUSH2 0x62B2 JUMP JUMPDEST DUP8 DUP8 PUSH1 0x2 DUP2 DUP2 LT PUSH2 0x12AC JUMPI INVALID JUMPDEST PUSH1 0x0 SLOAD PUSH1 0x40 MLOAD PUSH4 0xE72F4D3 PUSH1 0xE1 SHL DUP2 MSTORE PUSH1 0x20 SWAP1 SWAP3 MUL SWAP4 SWAP1 SWAP4 ADD CALLDATALOAD SWAP3 PUSH1 0x1 PUSH1 0x1 PUSH1 0xA0 SHL SUB AND SWAP2 POP PUSH4 0x1CE5E9A6 SWAP1 PUSH2 0x12E6 SWAP1 DUP14 SWAP1 PUSH1 0x4 ADD PUSH2 0x669D JUMP JUMPDEST PUSH1 0x0 PUSH1 0x40 MLOAD DUP1 DUP4 SUB DUP2 DUP7 DUP1 EXTCODESIZE ISZERO DUP1 ISZERO PUSH2 0x12FE JUMPI PUSH1 0x0 DUP1 REVERT JUMPDEST POP GAS STATICCALL ISZERO DUP1 ISZERO PUSH2 0x1312 JUMPI RETURNDATASIZE PUSH1 0x0 DUP1 RETURNDATACOPY RETURNDATASIZE PUSH1 0x0 REVERT JUMPDEST POP POP POP POP PUSH1 0x40 MLOAD RETURNDATASIZE PUSH1 0x0 DUP3 RETURNDATACOPY PUSH1 0x1F RETURNDATASIZE SWAP1 DUP2 ADD PUSH1 0x1F NOT AND DUP3 ADD PUSH1 0x40 MSTORE PUSH2 0x133A SWAP2 SWAP1 DUP2 ADD SWAP1 PUSH2 0x5AD2 JUMP JUMPDEST PUSH2 0x100 ADD MLOAD PUSH1 0x0 DUP3 GT DUP1 ISZERO PUSH2 0x134F JUMPI POP DUP1 DUP3 GT ISZERO JUMPDEST PUSH2 0x136B JUMPI PUSH1 0x40 MLOAD PUSH3 0x461BCD PUSH1 0xE5 SHL DUP2 MSTORE PUSH1 0x4 ADD PUSH2 0x5F9 SWAP1 PUSH2 0x60B5 JUMP JUMPDEST PUSH3 0x30D40 GAS GT PUSH2 0x138D JUMPI PUSH1 0x40 MLOAD PUSH3 0x461BCD PUSH1 0xE5 SHL DUP2 MSTORE PUSH1 0x4 ADD PUSH2 0x5F9 SWAP1 PUSH2 0x5E32 JUMP JUMPDEST PUSH1 0x0 DUP1 SLOAD PUSH1 0x40 MLOAD PUSH4 0xE72F4D3 PUSH1 0xE1 SHL DUP2 MSTORE PUSH1 0x1 PUSH1 0x1 PUSH1 0xA0 SHL SUB SWAP1 SWAP2 AND SWAP1 PUSH4 0x1CE5E9A6 SWAP1 PUSH2 0x13BE SWAP1 DUP16 SWAP1 PUSH1 0x4 ADD PUSH2 0x669D JUMP JUMPDEST PUSH1 0x0 PUSH1 0x40 MLOAD DUP1 DUP4 SUB DUP2 DUP7 DUP1 EXTCODESIZE ISZERO DUP1 ISZERO PUSH2 0x13D6 JUMPI PUSH1 0x0 DUP1 REVERT JUMPDEST POP GAS STATICCALL ISZERO DUP1 ISZERO PUSH2 0x13EA JUMPI RETURNDATASIZE PUSH1 0x0 DUP1 RETURNDATACOPY RETURNDATASIZE PUSH1 0x0 REVERT JUMPDEST POP POP POP POP PUSH1 0x40 MLOAD RETURNDATASIZE PUSH1 0x0 DUP3 RETURNDATACOPY PUSH1 0x1F RETURNDATASIZE SWAP1 DUP2 ADD PUSH1 0x1F NOT AND DUP3 ADD PUSH1 0x40 MSTORE PUSH2 0x1412 SWAP2 SWAP1 DUP2 ADD SWAP1 PUSH2 0x5AD2 JUMP JUMPDEST PUSH1 0xA0 ADD MLOAD PUSH1 0x2 DUP2 GT ISZERO PUSH2 0x1421 JUMPI INVALID JUMPDEST EQ PUSH2 0x143E JUMPI PUSH1 0x40 MLOAD PUSH3 0x461BCD PUSH1 0xE5 SHL DUP2 MSTORE PUSH1 0x4 ADD PUSH2 0x5F9 SWAP1 PUSH2 0x6203 JUMP JUMPDEST PUSH1 0x0 SLOAD PUSH1 0x40 MLOAD PUSH4 0xEBA1B60B PUSH1 0xE0 SHL DUP2 MSTORE PUSH1 0x1 PUSH1 0x1 PUSH1 0xA0 SHL SUB SWAP1 SWAP2 AND SWAP1 PUSH4 0xEBA1B60B SWAP1 PUSH2 0x1470 SWAP1 DUP15 SWAP1 CALLER SWAP1 PUSH1 0x4 ADD PUSH2 0x66A6 JUMP JUMPDEST PUSH1 0x20 PUSH1 0x40 MLOAD DUP1 DUP4 SUB DUP2 DUP7 DUP1 EXTCODESIZE ISZERO DUP1 ISZERO PUSH2 0x1488 JUMPI PUSH1 0x0 DUP1 REVERT JUMPDEST POP GAS STATICCALL ISZERO DUP1 ISZERO PUSH2 0x149C JUMPI RETURNDATASIZE PUSH1 0x0 DUP1 RETURNDATACOPY RETURNDATASIZE PUSH1 0x0 REVERT JUMPDEST POP POP POP POP PUSH1 0x40 MLOAD RETURNDATASIZE PUSH1 0x1F NOT PUSH1 0x1F DUP3 ADD AND DUP3 ADD DUP1 PUSH1 0x40 MSTORE POP DUP2 ADD SWAP1 PUSH2 0x14C0 SWAP2 SWAP1 PUSH2 0x5B1D JUMP JUMPDEST ISZERO PUSH2 0x14DD JUMPI PUSH1 0x40 MLOAD PUSH3 0x461BCD PUSH1 0xE5 SHL DUP2 MSTORE PUSH1 0x4 ADD PUSH2 0x5F9 SWAP1 PUSH2 0x61CC JUMP JUMPDEST PUSH1 0x0 DUP1 SWAP1 SLOAD SWAP1 PUSH2 0x100 EXP SWAP1 DIV PUSH1 0x1 PUSH1 0x1 PUSH1 0xA0 SHL SUB AND PUSH1 0x1 PUSH1 0x1 PUSH1 0xA0 SHL SUB AND PUSH4 0x208FF02E PUSH1 0x40 MLOAD DUP2 PUSH4 0xFFFFFFFF AND PUSH1 0xE0 SHL DUP2 MSTORE PUSH1 0x4 ADD PUSH1 0x20 PUSH1 0x40 MLOAD DUP1 DUP4 SUB DUP2 DUP7 DUP1 EXTCODESIZE ISZERO DUP1 ISZERO PUSH2 0x152A JUMPI PUSH1 0x0 DUP1 REVERT JUMPDEST POP GAS STATICCALL ISZERO DUP1 ISZERO PUSH2 0x153E JUMPI RETURNDATASIZE PUSH1 0x0 DUP1 RETURNDATACOPY RETURNDATASIZE PUSH1 0x0 REVERT JUMPDEST POP POP POP POP PUSH1 0x40 MLOAD RETURNDATASIZE PUSH1 0x1F NOT PUSH1 0x1F DUP3 ADD AND DUP3 ADD DUP1 PUSH1 0x40 MSTORE POP DUP2 ADD SWAP1 PUSH2 0x1562 SWAP2 SWAP1 PUSH2 0x5B1D JUMP JUMPDEST PUSH1 0x0 SLOAD PUSH1 0x40 MLOAD PUSH4 0x37655B0F PUSH1 0xE1 SHL DUP2 MSTORE PUSH1 0x1 PUSH1 0x1 PUSH1 0xA0 SHL SUB SWAP1 SWAP2 AND SWAP1 PUSH4 0x6ECAB61E SWAP1 PUSH2 0x1592 SWAP1 CALLER SWAP1 PUSH1 0x4 ADD PUSH2 0x5CB9 JUMP JUMPDEST PUSH1 0x20 PUSH1 0x40 MLOAD DUP1 DUP4 SUB DUP2 DUP7 DUP1 EXTCODESIZE ISZERO DUP1 ISZERO PUSH2 0x15AA JUMPI PUSH1 0x0 DUP1 REVERT JUMPDEST POP GAS STATICCALL ISZERO DUP1 ISZERO PUSH2 0x15BE JUMPI RETURNDATASIZE PUSH1 0x0 DUP1 RETURNDATACOPY RETURNDATASIZE PUSH1 0x0 REVERT JUMPDEST POP POP POP POP PUSH1 0x40 MLOAD RETURNDATASIZE PUSH1 0x1F NOT PUSH1 0x1F DUP3 ADD AND DUP3 ADD DUP1 PUSH1 0x40 MSTORE POP DUP2 ADD SWAP1 PUSH2 0x15E2 SWAP2 SWAP1 PUSH2 0x5B1D JUMP JUMPDEST LT PUSH2 0x15FF JUMPI PUSH1 0x40 MLOAD PUSH3 0x461BCD PUSH1 0xE5 SHL DUP2 MSTORE PUSH1 0x4 ADD PUSH2 0x5F9 SWAP1 PUSH2 0x655D JUMP JUMPDEST PUSH1 0x0 DUP1 PUSH1 0x0 SWAP1 SLOAD SWAP1 PUSH2 0x100 EXP SWAP1 DIV PUSH1 0x1 PUSH1 0x1 PUSH1 0xA0 SHL SUB AND PUSH1 0x1 PUSH1 0x1 PUSH1 0xA0 SHL SUB AND PUSH4 0x208FF02E PUSH1 0x40 MLOAD DUP2 PUSH4 0xFFFFFFFF AND PUSH1 0xE0 SHL DUP2 MSTORE PUSH1 0x4 ADD PUSH1 0x20 PUSH1 0x40 MLOAD DUP1 DUP4 SUB DUP2 DUP7 DUP1 EXTCODESIZE ISZERO DUP1 ISZERO PUSH2 0x164E JUMPI PUSH1 0x0 DUP1 REVERT JUMPDEST POP GAS STATICCALL ISZERO DUP1 ISZERO PUSH2 0x1662 JUMPI RETURNDATASIZE PUSH1 0x0 DUP1 RETURNDATACOPY RETURNDATASIZE PUSH1 0x0 REVERT JUMPDEST POP POP POP POP PUSH1 0x40 MLOAD RETURNDATASIZE PUSH1 0x1F NOT PUSH1 0x1F DUP3 ADD AND DUP3 ADD DUP1 PUSH1 0x40 MSTORE POP DUP2 ADD SWAP1 PUSH2 0x1686 SWAP2 SWAP1 PUSH2 0x5B1D JUMP JUMPDEST SWAP1 POP PUSH1 0x0 PUSH2 0x16C3 DUP13 DUP13 PUSH1 0x1 DUP2 DUP2 LT PUSH2 0x169A JUMPI INVALID JUMPDEST SWAP1 POP PUSH1 0x20 MUL ADD CALLDATALOAD DUP14 DUP14 PUSH1 0x0 DUP2 DUP2 LT PUSH2 0x16AE JUMPI INVALID JUMPDEST SWAP1 POP PUSH1 0x20 MUL ADD CALLDATALOAD PUSH2 0x416B SWAP1 SWAP2 SWAP1 PUSH4 0xFFFFFFFF AND JUMP JUMPDEST SWAP1 POP PUSH1 0x0 DUP1 SWAP1 SLOAD SWAP1 PUSH2 0x100 EXP SWAP1 DIV PUSH1 0x1 PUSH1 0x1 PUSH1 0xA0 SHL SUB AND PUSH1 0x1 PUSH1 0x1 PUSH1 0xA0 SHL SUB AND PUSH4 0x50A8150B DUP15 PUSH1 0x40 MLOAD DUP3 PUSH4 0xFFFFFFFF AND PUSH1 0xE0 SHL DUP2 MSTORE PUSH1 0x4 ADD PUSH2 0x1705 SWAP2 SWAP1 PUSH2 0x669D JUMP JUMPDEST PUSH1 0x20 PUSH1 0x40 MLOAD DUP1 DUP4 SUB DUP2 DUP7 DUP1 EXTCODESIZE ISZERO DUP1 ISZERO PUSH2 0x171D JUMPI PUSH1 0x0 DUP1 REVERT JUMPDEST POP GAS STATICCALL ISZERO DUP1 ISZERO PUSH2 0x1731 JUMPI RETURNDATASIZE PUSH1 0x0 DUP1 RETURNDATACOPY RETURNDATASIZE PUSH1 0x0 REVERT JUMPDEST POP POP POP POP PUSH1 0x40 MLOAD RETURNDATASIZE PUSH1 0x1F NOT PUSH1 0x1F DUP3 ADD AND DUP3 ADD DUP1 PUSH1 0x40 MSTORE POP DUP2 ADD SWAP1 PUSH2 0x1755 SWAP2 SWAP1 PUSH2 0x5B1D JUMP JUMPDEST DUP2 GT ISZERO PUSH2 0x1774 JUMPI PUSH1 0x40 MLOAD PUSH3 0x461BCD PUSH1 0xE5 SHL DUP2 MSTORE PUSH1 0x4 ADD PUSH2 0x5F9 SWAP1 PUSH2 0x649E JUMP JUMPDEST PUSH1 0x0 DUP1 SWAP1 SLOAD SWAP1 PUSH2 0x100 EXP SWAP1 DIV PUSH1 0x1 PUSH1 0x1 PUSH1 0xA0 SHL SUB AND PUSH1 0x1 PUSH1 0x1 PUSH1 0xA0 SHL SUB AND PUSH4 0x1CE5E9A6 DUP15 PUSH1 0x40 MLOAD DUP3 PUSH4 0xFFFFFFFF AND PUSH1 0xE0 SHL DUP2 MSTORE PUSH1 0x4 ADD PUSH2 0x17B4 SWAP2 SWAP1 PUSH2 0x669D JUMP JUMPDEST PUSH1 0x0 PUSH1 0x40 MLOAD DUP1 DUP4 SUB DUP2 DUP7 DUP1 EXTCODESIZE ISZERO DUP1 ISZERO PUSH2 0x17CC JUMPI PUSH1 0x0 DUP1 REVERT JUMPDEST POP GAS STATICCALL ISZERO DUP1 ISZERO PUSH2 0x17E0 JUMPI RETURNDATASIZE PUSH1 0x0 DUP1 RETURNDATACOPY RETURNDATASIZE PUSH1 0x0 REVERT JUMPDEST POP POP POP POP PUSH1 0x40 MLOAD RETURNDATASIZE PUSH1 0x0 DUP3 RETURNDATACOPY PUSH1 0x1F RETURNDATASIZE SWAP1 DUP2 ADD PUSH1 0x1F NOT AND DUP3 ADD PUSH1 0x40 MSTORE PUSH2 0x1808 SWAP2 SWAP1 DUP2 ADD SWAP1 PUSH2 0x5AD2 JUMP JUMPDEST PUSH1 0x40 ADD MLOAD PUSH1 0x1 PUSH1 0x1 PUSH1 0xA0 SHL SUB AND PUSH4 0x23B872DD CALLER ADDRESS DUP5 PUSH1 0x40 MLOAD DUP5 PUSH4 0xFFFFFFFF AND PUSH1 0xE0 SHL DUP2 MSTORE PUSH1 0x4 ADD PUSH2 0x183B SWAP4 SWAP3 SWAP2 SWAP1 PUSH2 0x5CCD JUMP JUMPDEST PUSH1 0x20 PUSH1 0x40 MLOAD DUP1 DUP4 SUB DUP2 PUSH1 0x0 DUP8 DUP1 EXTCODESIZE ISZERO DUP1 ISZERO PUSH2 0x1855 JUMPI PUSH1 0x0 DUP1 REVERT JUMPDEST POP GAS CALL ISZERO DUP1 ISZERO PUSH2 0x1869 JUMPI RETURNDATASIZE PUSH1 0x0 DUP1 RETURNDATACOPY RETURNDATASIZE PUSH1 0x0 REVERT JUMPDEST POP POP POP POP PUSH1 0x40 MLOAD RETURNDATASIZE PUSH1 0x1F NOT PUSH1 0x1F DUP3 ADD AND DUP3 ADD DUP1 PUSH1 0x40 MSTORE POP DUP2 ADD SWAP1 PUSH2 0x188D SWAP2 SWAP1 PUSH2 0x5AB2 JUMP JUMPDEST PUSH2 0x18A9 JUMPI PUSH1 0x40 MLOAD PUSH3 0x461BCD PUSH1 0xE5 SHL DUP2 MSTORE PUSH1 0x4 ADD PUSH2 0x5F9 SWAP1 PUSH2 0x63E7 JUMP JUMPDEST PUSH1 0x0 DUP1 PUSH1 0x0 SWAP1 SLOAD SWAP1 PUSH2 0x100 EXP SWAP1 DIV PUSH1 0x1 PUSH1 0x1 PUSH1 0xA0 SHL SUB AND PUSH1 0x1 PUSH1 0x1 PUSH1 0xA0 SHL SUB AND PUSH4 0xEBA1B60B DUP16 CALLER PUSH1 0x40 MLOAD DUP4 PUSH4 0xFFFFFFFF AND PUSH1 0xE0 SHL DUP2 MSTORE PUSH1 0x4 ADD PUSH2 0x18ED SWAP3 SWAP2 SWAP1 PUSH2 0x66A6 JUMP JUMPDEST PUSH1 0x20 PUSH1 0x40 MLOAD DUP1 DUP4 SUB DUP2 DUP7 DUP1 EXTCODESIZE ISZERO DUP1 ISZERO PUSH2 0x1905 JUMPI PUSH1 0x0 DUP1 REVERT JUMPDEST POP GAS STATICCALL ISZERO DUP1 ISZERO PUSH2 0x1919 JUMPI RETURNDATASIZE PUSH1 0x0 DUP1 RETURNDATACOPY RETURNDATASIZE PUSH1 0x0 REVERT JUMPDEST POP POP POP POP PUSH1 0x40 MLOAD RETURNDATASIZE PUSH1 0x1F NOT PUSH1 0x1F DUP3 ADD AND DUP3 ADD DUP1 PUSH1 0x40 MSTORE POP DUP2 ADD SWAP1 PUSH2 0x193D SWAP2 SWAP1 PUSH2 0x5B1D JUMP JUMPDEST SWAP1 POP DUP1 ISZERO PUSH2 0x195D JUMPI PUSH1 0x40 MLOAD PUSH3 0x461BCD PUSH1 0xE5 SHL DUP2 MSTORE PUSH1 0x4 ADD PUSH2 0x5F9 SWAP1 PUSH2 0x61CC JUMP JUMPDEST PUSH1 0x0 DUP1 SWAP1 SLOAD SWAP1 PUSH2 0x100 EXP SWAP1 DIV PUSH1 0x1 PUSH1 0x1 PUSH1 0xA0 SHL SUB AND PUSH1 0x1 PUSH1 0x1 PUSH1 0xA0 SHL SUB AND PUSH4 0xD97FEF01 DUP16 CALLER DUP6 PUSH1 0x40 MLOAD DUP5 PUSH4 0xFFFFFFFF AND PUSH1 0xE0 SHL DUP2 MSTORE PUSH1 0x4 ADD PUSH2 0x19A1 SWAP4 SWAP3 SWAP2 SWAP1 PUSH2 0x66BD JUMP JUMPDEST PUSH1 0x0 PUSH1 0x40 MLOAD DUP1 DUP4 SUB DUP2 PUSH1 0x0 DUP8 DUP1 EXTCODESIZE ISZERO DUP1 ISZERO PUSH2 0x19BB JUMPI PUSH1 0x0 DUP1 REVERT JUMPDEST POP GAS CALL ISZERO DUP1 ISZERO PUSH2 0x19CF JUMPI RETURNDATASIZE PUSH1 0x0 DUP1 RETURNDATACOPY RETURNDATASIZE PUSH1 0x0 REVERT JUMPDEST POP POP PUSH1 0x0 SLOAD PUSH1 0x40 MLOAD PUSH4 0x37655B0F PUSH1 0xE1 SHL DUP2 MSTORE DUP7 SWAP4 POP PUSH1 0x1 PUSH1 0x1 PUSH1 0xA0 SHL SUB SWAP1 SWAP2 AND SWAP2 POP PUSH4 0x6ECAB61E SWAP1 PUSH2 0x1A05 SWAP1 CALLER SWAP1 PUSH1 0x4 ADD PUSH2 0x5CB9 JUMP JUMPDEST PUSH1 0x20 PUSH1 0x40 MLOAD DUP1 DUP4 SUB DUP2 DUP7 DUP1 EXTCODESIZE ISZERO DUP1 ISZERO PUSH2 0x1A1D JUMPI PUSH1 0x0 DUP1 REVERT JUMPDEST POP GAS STATICCALL ISZERO DUP1 ISZERO PUSH2 0x1A31 JUMPI RETURNDATASIZE PUSH1 0x0 DUP1 RETURNDATACOPY RETURNDATASIZE PUSH1 0x0 REVERT JUMPDEST POP POP POP POP PUSH1 0x40 MLOAD RETURNDATASIZE PUSH1 0x1F NOT PUSH1 0x1F DUP3 ADD AND DUP3 ADD DUP1 PUSH1 0x40 MSTORE POP DUP2 ADD SWAP1 PUSH2 0x1A55 SWAP2 SWAP1 PUSH2 0x5B1D JUMP JUMPDEST LT PUSH2 0x1A72 JUMPI PUSH1 0x40 MLOAD PUSH3 0x461BCD PUSH1 0xE5 SHL DUP2 MSTORE PUSH1 0x4 ADD PUSH2 0x5F9 SWAP1 PUSH2 0x655D JUMP JUMPDEST PUSH1 0x0 SLOAD PUSH1 0x40 MLOAD PUSH4 0x93E1B8A7 PUSH1 0xE0 SHL DUP2 MSTORE PUSH1 0x1 PUSH1 0x1 PUSH1 0xA0 SHL SUB SWAP1 SWAP2 AND SWAP1 PUSH4 0x93E1B8A7 SWAP1 PUSH2 0x1AA2 SWAP1 CALLER SWAP1 PUSH1 0x4 ADD PUSH2 0x5CB9 JUMP JUMPDEST PUSH1 0x0 PUSH1 0x40 MLOAD DUP1 DUP4 SUB DUP2 PUSH1 0x0 DUP8 DUP1 EXTCODESIZE ISZERO DUP1 ISZERO PUSH2 0x1ABC JUMPI PUSH1 0x0 DUP1 REVERT JUMPDEST POP GAS CALL ISZERO DUP1 ISZERO PUSH2 0x1AD0 JUMPI RETURNDATASIZE PUSH1 0x0 DUP1 RETURNDATACOPY RETURNDATASIZE PUSH1 0x0 REVERT JUMPDEST POP POP POP POP PUSH2 0x1B11 DUP15 DUP15 DUP15 DUP1 DUP1 PUSH1 0x20 MUL PUSH1 0x20 ADD PUSH1 0x40 MLOAD SWAP1 DUP2 ADD PUSH1 0x40 MSTORE DUP1 SWAP4 SWAP3 SWAP2 SWAP1 DUP2 DUP2 MSTORE PUSH1 0x20 ADD DUP4 DUP4 PUSH1 0x20 MUL DUP1 DUP3 DUP5 CALLDATACOPY PUSH1 0x0 SWAP3 ADD SWAP2 SWAP1 SWAP2 MSTORE POP PUSH2 0x4190 SWAP3 POP POP POP JUMP JUMPDEST CALLER PUSH1 0x1 PUSH1 0x1 PUSH1 0xA0 SHL SUB AND PUSH32 0x31F9A3CCD05DD54B3523CBA1AE416CCF9842696D7295F62824DFACAB1A957BF7 DUP16 DUP16 DUP16 PUSH1 0x40 MLOAD PUSH2 0x1B4E SWAP4 SWAP3 SWAP2 SWAP1 PUSH2 0x66DC JUMP JUMPDEST PUSH1 0x40 MLOAD DUP1 SWAP2 SUB SWAP1 LOG2 POP POP POP POP POP POP POP POP POP POP POP POP POP POP JUMP JUMPDEST PUSH1 0x0 SLOAD PUSH1 0x40 MLOAD PUSH4 0x46FBF41F PUSH1 0xE1 SHL DUP2 MSTORE DUP3 SWAP2 PUSH1 0x1 PUSH1 0x1 PUSH1 0xA0 SHL SUB AND SWAP1 PUSH4 0x8DF7E83E SWAP1 PUSH2 0x1B96 SWAP1 DUP5 SWAP1 PUSH1 0x4 ADD PUSH2 0x669D JUMP JUMPDEST PUSH1 0x20 PUSH1 0x40 MLOAD DUP1 DUP4 SUB DUP2 DUP7 DUP1 EXTCODESIZE ISZERO DUP1 ISZERO PUSH2 0x1BAE JUMPI PUSH1 0x0 DUP1 REVERT JUMPDEST POP GAS STATICCALL ISZERO DUP1 ISZERO PUSH2 0x1BC2 JUMPI RETURNDATASIZE PUSH1 0x0 DUP1 RETURNDATACOPY RETURNDATASIZE PUSH1 0x0 REVERT JUMPDEST POP POP POP POP PUSH1 0x40 MLOAD RETURNDATASIZE PUSH1 0x1F NOT PUSH1 0x1F DUP3 ADD AND DUP3 ADD DUP1 PUSH1 0x40 MSTORE POP DUP2 ADD SWAP1 PUSH2 0x1BE6 SWAP2 SWAP1 PUSH2 0x5AB2 JUMP JUMPDEST PUSH2 0x1C02 JUMPI PUSH1 0x40 MLOAD PUSH3 0x461BCD PUSH1 0xE5 SHL DUP2 MSTORE PUSH1 0x4 ADD PUSH2 0x5F9 SWAP1 PUSH2 0x6138 JUMP JUMPDEST PUSH1 0x0 SLOAD PUSH1 0x40 MLOAD PUSH4 0xD9548E53 PUSH1 0xE0 SHL DUP2 MSTORE DUP4 SWAP2 PUSH1 0x1 PUSH1 0x1 PUSH1 0xA0 SHL SUB AND SWAP1 PUSH4 0xD9548E53 SWAP1 PUSH2 0x1C32 SWAP1 DUP5 SWAP1 PUSH1 0x4 ADD PUSH2 0x669D JUMP JUMPDEST PUSH1 0x20 PUSH1 0x40 MLOAD DUP1 DUP4 SUB DUP2 DUP7 DUP1 EXTCODESIZE ISZERO DUP1 ISZERO PUSH2 0x1C4A JUMPI PUSH1 0x0 DUP1 REVERT JUMPDEST POP GAS STATICCALL ISZERO DUP1 ISZERO PUSH2 0x1C5E JUMPI RETURNDATASIZE PUSH1 0x0 DUP1 RETURNDATACOPY RETURNDATASIZE PUSH1 0x0 REVERT JUMPDEST POP POP POP POP PUSH1 0x40 MLOAD RETURNDATASIZE PUSH1 0x1F NOT PUSH1 0x1F DUP3 ADD AND DUP3 ADD DUP1 PUSH1 0x40 MSTORE POP DUP2 ADD SWAP1 PUSH2 0x1C82 SWAP2 SWAP1 PUSH2 0x5AB2 JUMP JUMPDEST ISZERO PUSH2 0x1C9F JUMPI PUSH1 0x40 MLOAD PUSH3 0x461BCD PUSH1 0xE5 SHL DUP2 MSTORE PUSH1 0x4 ADD PUSH2 0x5F9 SWAP1 PUSH2 0x6594 JUMP JUMPDEST PUSH1 0x0 SLOAD PUSH1 0x40 MLOAD PUSH4 0xE72F4D3 PUSH1 0xE1 SHL DUP2 MSTORE PUSH1 0x1 SWAP2 PUSH1 0x1 PUSH1 0x1 PUSH1 0xA0 SHL SUB AND SWAP1 PUSH4 0x1CE5E9A6 SWAP1 PUSH2 0x1CD0 SWAP1 DUP8 SWAP1 PUSH1 0x4 ADD PUSH2 0x669D JUMP JUMPDEST PUSH1 0x0 PUSH1 0x40 MLOAD DUP1 DUP4 SUB DUP2 DUP7 DUP1 EXTCODESIZE ISZERO DUP1 ISZERO PUSH2 0x1CE8 JUMPI PUSH1 0x0 DUP1 REVERT JUMPDEST POP GAS STATICCALL ISZERO DUP1 ISZERO PUSH2 0x1CFC JUMPI RETURNDATASIZE PUSH1 0x0 DUP1 RETURNDATACOPY RETURNDATASIZE PUSH1 0x0 REVERT JUMPDEST POP POP POP POP PUSH1 0x40 MLOAD RETURNDATASIZE PUSH1 0x0 DUP3 RETURNDATACOPY PUSH1 0x1F RETURNDATASIZE SWAP1 DUP2 ADD PUSH1 0x1F NOT AND DUP3 ADD PUSH1 0x40 MSTORE PUSH2 0x1D24 SWAP2 SWAP1 DUP2 ADD SWAP1 PUSH2 0x5AD2 JUMP JUMPDEST PUSH1 0xA0 ADD MLOAD PUSH1 0x2 DUP2 GT ISZERO PUSH2 0x1D33 JUMPI INVALID JUMPDEST EQ PUSH2 0x1D50 JUMPI PUSH1 0x40 MLOAD PUSH3 0x461BCD PUSH1 0xE5 SHL DUP2 MSTORE PUSH1 0x4 ADD PUSH2 0x5F9 SWAP1 PUSH2 0x64E4 JUMP JUMPDEST PUSH1 0x0 DUP1 PUSH2 0x1D5C DUP6 PUSH2 0x42FB JUMP JUMPDEST SWAP2 POP SWAP2 POP PUSH1 0x0 DUP2 GT PUSH2 0x1D80 JUMPI PUSH1 0x40 MLOAD PUSH3 0x461BCD PUSH1 0xE5 SHL DUP2 MSTORE PUSH1 0x4 ADD PUSH2 0x5F9 SWAP1 PUSH2 0x608E JUMP JUMPDEST PUSH2 0x1D8B DUP6 DUP4 DUP4 PUSH2 0x4553 JUMP JUMPDEST PUSH2 0x1D94 DUP6 PUSH2 0x490E JUMP JUMPDEST PUSH1 0x0 DUP1 SLOAD PUSH1 0x40 MLOAD PUSH4 0xE72F4D3 PUSH1 0xE1 SHL DUP2 MSTORE PUSH1 0x1 PUSH1 0x1 PUSH1 0xA0 SHL SUB SWAP1 SWAP2 AND SWAP1 PUSH4 0x1CE5E9A6 SWAP1 PUSH2 0x1DC5 SWAP1 DUP10 SWAP1 PUSH1 0x4 ADD PUSH2 0x669D JUMP JUMPDEST PUSH1 0x0 PUSH1 0x40 MLOAD DUP1 DUP4 SUB DUP2 DUP7 DUP1 EXTCODESIZE ISZERO DUP1 ISZERO PUSH2 0x1DDD JUMPI PUSH1 0x0 DUP1 REVERT JUMPDEST POP GAS STATICCALL ISZERO DUP1 ISZERO PUSH2 0x1DF1 JUMPI RETURNDATASIZE PUSH1 0x0 DUP1 RETURNDATACOPY RETURNDATASIZE PUSH1 0x0 REVERT JUMPDEST POP POP POP POP PUSH1 0x40 MLOAD RETURNDATASIZE PUSH1 0x0 DUP3 RETURNDATACOPY PUSH1 0x1F RETURNDATASIZE SWAP1 DUP2 ADD PUSH1 0x1F NOT AND DUP3 ADD PUSH1 0x40 MSTORE PUSH2 0x1E19 SWAP2 SWAP1 DUP2 ADD SWAP1 PUSH2 0x5AD2 JUMP JUMPDEST PUSH1 0xA0 ADD SWAP1 PUSH1 0x2 DUP2 GT ISZERO PUSH2 0x1E28 JUMPI INVALID JUMPDEST SWAP1 DUP2 PUSH1 0x2 DUP2 GT ISZERO PUSH2 0x1E35 JUMPI INVALID JUMPDEST SWAP1 MSTORE POP PUSH1 0x0 SLOAD PUSH1 0x40 MLOAD PUSH4 0xE72F4D3 PUSH1 0xE1 SHL DUP2 MSTORE PUSH1 0x1 PUSH1 0x1 PUSH1 0xA0 SHL SUB SWAP1 SWAP2 AND SWAP1 PUSH4 0x1CE5E9A6 SWAP1 PUSH2 0x1E68 SWAP1 DUP9 SWAP1 PUSH1 0x4 ADD PUSH2 0x669D JUMP JUMPDEST PUSH1 0x0 PUSH1 0x40 MLOAD DUP1 DUP4 SUB DUP2 DUP7 DUP1 EXTCODESIZE ISZERO DUP1 ISZERO PUSH2 0x1E80 JUMPI PUSH1 0x0 DUP1 REVERT JUMPDEST POP GAS STATICCALL ISZERO DUP1 ISZERO PUSH2 0x1E94 JUMPI RETURNDATASIZE PUSH1 0x0 DUP1 RETURNDATACOPY RETURNDATASIZE PUSH1 0x0 REVERT JUMPDEST POP POP POP POP PUSH1 0x40 MLOAD RETURNDATASIZE PUSH1 0x0 DUP3 RETURNDATACOPY PUSH1 0x1F RETURNDATASIZE SWAP1 DUP2 ADD PUSH1 0x1F NOT AND DUP3 ADD PUSH1 0x40 MSTORE PUSH2 0x1EBC SWAP2 SWAP1 DUP2 ADD SWAP1 PUSH2 0x5AD2 JUMP JUMPDEST PUSH1 0x60 PUSH1 0xC0 SWAP2 SWAP1 SWAP2 ADD MSTORE PUSH1 0x0 SLOAD PUSH1 0x40 MLOAD PUSH4 0xE72F4D3 PUSH1 0xE1 SHL DUP2 MSTORE CALLER SWAP2 PUSH32 0x23AD4783D95EE2D3730FAE4843757E102BD28A58EF48E2C6F8FE93AEF120F5FB SWAP2 DUP9 SWAP2 PUSH2 0x1F83 SWAP2 DUP7 SWAP2 PUSH1 0x1 PUSH1 0x1 PUSH1 0xA0 SHL SUB AND SWAP1 PUSH4 0x1CE5E9A6 SWAP1 PUSH2 0x1F1F SWAP1 DUP7 SWAP1 PUSH1 0x4 ADD PUSH2 0x669D JUMP JUMPDEST PUSH1 0x0 PUSH1 0x40 MLOAD DUP1 DUP4 SUB DUP2 DUP7 DUP1 EXTCODESIZE ISZERO DUP1 ISZERO PUSH2 0x1F37 JUMPI PUSH1 0x0 DUP1 REVERT JUMPDEST POP GAS STATICCALL ISZERO DUP1 ISZERO PUSH2 0x1F4B JUMPI RETURNDATASIZE PUSH1 0x0 DUP1 RETURNDATACOPY RETURNDATASIZE PUSH1 0x0 REVERT JUMPDEST POP POP POP POP PUSH1 0x40 MLOAD RETURNDATASIZE PUSH1 0x0 DUP3 RETURNDATACOPY PUSH1 0x1F RETURNDATASIZE SWAP1 DUP2 ADD PUSH1 0x1F NOT AND DUP3 ADD PUSH1 0x40 MSTORE PUSH2 0x1F73 SWAP2 SWAP1 DUP2 ADD SWAP1 PUSH2 0x5AD2 JUMP JUMPDEST PUSH1 0x60 ADD MLOAD SWAP1 PUSH4 0xFFFFFFFF PUSH2 0x416B AND JUMP JUMPDEST PUSH1 0x40 MLOAD PUSH2 0x857 SWAP3 SWAP2 SWAP1 PUSH2 0x6786 JUMP JUMPDEST PUSH1 0x0 DUP1 SLOAD PUSH1 0x40 MLOAD PUSH4 0xBE4B90B PUSH1 0xE2 SHL DUP2 MSTORE PUSH1 0x1 PUSH1 0x1 PUSH1 0xA0 SHL SUB SWAP1 SWAP2 AND SWAP1 PUSH4 0x2F92E42C SWAP1 PUSH2 0x1FC2 SWAP1 DUP6 SWAP1 PUSH1 0x4 ADD PUSH2 0x669D JUMP JUMPDEST PUSH1 0x20 PUSH1 0x40 MLOAD DUP1 DUP4 SUB DUP2 DUP7 DUP1 EXTCODESIZE ISZERO DUP1 ISZERO PUSH2 0x1FDA JUMPI PUSH1 0x0 DUP1 REVERT JUMPDEST POP GAS STATICCALL ISZERO DUP1 ISZERO PUSH2 0x1FEE JUMPI RETURNDATASIZE PUSH1 0x0 DUP1 RETURNDATACOPY RETURNDATASIZE PUSH1 0x0 REVERT JUMPDEST POP POP POP POP PUSH1 0x40 MLOAD RETURNDATASIZE PUSH1 0x1F NOT PUSH1 0x1F DUP3 ADD AND DUP3 ADD DUP1 PUSH1 0x40 MSTORE POP DUP2 ADD SWAP1 PUSH2 0xBEF SWAP2 SWAP1 PUSH2 0x5AB2 JUMP JUMPDEST PUSH1 0x0 SLOAD PUSH1 0x40 MLOAD PUSH4 0xDFED027 PUSH1 0xE2 SHL DUP2 MSTORE PUSH1 0x1 PUSH1 0x1 PUSH1 0xA0 SHL SUB SWAP1 SWAP2 AND SWAP1 PUSH4 0x37FB409C SWAP1 PUSH2 0x2042 SWAP1 DUP5 SWAP1 PUSH1 0x4 ADD PUSH2 0x669D JUMP JUMPDEST PUSH1 0x0 PUSH1 0x40 MLOAD DUP1 DUP4 SUB DUP2 PUSH1 0x0 DUP8 DUP1 EXTCODESIZE ISZERO DUP1 ISZERO PUSH2 0x205C JUMPI PUSH1 0x0 DUP1 REVERT JUMPDEST POP GAS CALL ISZERO DUP1 ISZERO PUSH2 0xAFC JUMPI RETURNDATASIZE PUSH1 0x0 DUP1 RETURNDATACOPY RETURNDATASIZE PUSH1 0x0 REVERT JUMPDEST PUSH1 0x0 SLOAD PUSH1 0x40 MLOAD PUSH4 0x3E2AD42D PUSH1 0xE0 SHL DUP2 MSTORE PUSH1 0x60 SWAP2 PUSH1 0x1 PUSH1 0x1 PUSH1 0xA0 SHL SUB AND SWAP1 PUSH4 0x3E2AD42D SWAP1 PUSH2 0x20A1 SWAP1 DUP6 SWAP1 PUSH1 0x4 ADD PUSH2 0x669D JUMP JUMPDEST PUSH1 0x0 PUSH1 0x40 MLOAD DUP1 DUP4 SUB DUP2 DUP7 DUP1 EXTCODESIZE ISZERO DUP1 ISZERO PUSH2 0x20B9 JUMPI PUSH1 0x0 DUP1 REVERT JUMPDEST POP GAS STATICCALL ISZERO DUP1 ISZERO PUSH2 0x20CD JUMPI RETURNDATASIZE PUSH1 0x0 DUP1 RETURNDATACOPY RETURNDATASIZE PUSH1 0x0 REVERT JUMPDEST POP POP POP POP PUSH1 0x40 MLOAD RETURNDATASIZE PUSH1 0x0 DUP3 RETURNDATACOPY PUSH1 0x1F RETURNDATASIZE SWAP1 DUP2 ADD PUSH1 0x1F NOT AND DUP3 ADD PUSH1 0x40 MSTORE PUSH2 0xBEF SWAP2 SWAP1 DUP2 ADD SWAP1 PUSH2 0x5A77 JUMP JUMPDEST PUSH1 0x0 SLOAD PUSH1 0x40 MLOAD PUSH4 0x30897F17 PUSH1 0xE1 SHL DUP2 MSTORE PUSH1 0x1 PUSH1 0x1 PUSH1 0xA0 SHL SUB SWAP1 SWAP2 AND SWAP1 PUSH4 0x6112FE2E SWAP1 PUSH2 0x2042 SWAP1 DUP5 SWAP1 PUSH1 0x4 ADD PUSH2 0x669D JUMP JUMPDEST PUSH1 0x0 SLOAD PUSH1 0x40 MLOAD PUSH4 0x1915EF41 PUSH1 0xE2 SHL DUP2 MSTORE PUSH1 0x1 PUSH1 0x1 PUSH1 0xA0 SHL SUB SWAP1 SWAP2 AND SWAP1 PUSH4 0x6457BD04 SWAP1 PUSH2 0x2042 SWAP1 DUP5 SWAP1 PUSH1 0x4 ADD PUSH2 0x669D JUMP JUMPDEST PUSH1 0x0 DUP1 SLOAD PUSH1 0x40 MLOAD PUSH4 0x2E548339 PUSH1 0xE2 SHL DUP2 MSTORE DUP4 SWAP3 SWAP2 PUSH1 0x1 PUSH1 0x1 PUSH1 0xA0 SHL SUB AND SWAP1 PUSH4 0xB9520CE4 SWAP1 PUSH2 0x2189 SWAP1 DUP6 SWAP1 CALLER SWAP1 PUSH1 0x4 ADD PUSH2 0x66A6 JUMP JUMPDEST PUSH1 0x20 PUSH1 0x40 MLOAD DUP1 DUP4 SUB DUP2 DUP7 DUP1 EXTCODESIZE ISZERO DUP1 ISZERO PUSH2 0x21A1 JUMPI PUSH1 0x0 DUP1 REVERT JUMPDEST POP GAS STATICCALL ISZERO DUP1 ISZERO PUSH2 0x21B5 JUMPI RETURNDATASIZE PUSH1 0x0 DUP1 RETURNDATACOPY RETURNDATASIZE PUSH1 0x0 REVERT JUMPDEST POP POP POP POP PUSH1 0x40 MLOAD RETURNDATASIZE PUSH1 0x1F NOT PUSH1 0x1F DUP3 ADD AND DUP3 ADD DUP1 PUSH1 0x40 MSTORE POP DUP2 ADD SWAP1 PUSH2 0x21D9 SWAP2 SWAP1 PUSH2 0x5B1D JUMP JUMPDEST GT PUSH2 0x21F6 JUMPI PUSH1 0x40 MLOAD PUSH3 0x461BCD PUSH1 0xE5 SHL DUP2 MSTORE PUSH1 0x4 ADD PUSH2 0x5F9 SWAP1 PUSH2 0x65B5 JUMP JUMPDEST PUSH1 0x0 DUP1 SLOAD PUSH1 0x40 MLOAD PUSH4 0x2E548339 PUSH1 0xE2 SHL DUP2 MSTORE PUSH1 0x1 PUSH1 0x1 PUSH1 0xA0 SHL SUB SWAP1 SWAP2 AND SWAP1 PUSH4 0xB9520CE4 SWAP1 PUSH2 0x2229 SWAP1 DUP7 SWAP1 CALLER SWAP1 PUSH1 0x4 ADD PUSH2 0x66A6 JUMP JUMPDEST PUSH1 0x20 PUSH1 0x40 MLOAD DUP1 DUP4 SUB DUP2 DUP7 DUP1 EXTCODESIZE ISZERO DUP1 ISZERO PUSH2 0x2241 JUMPI PUSH1 0x0 DUP1 REVERT JUMPDEST POP GAS STATICCALL ISZERO DUP1 ISZERO PUSH2 0x2255 JUMPI RETURNDATASIZE PUSH1 0x0 DUP1 RETURNDATACOPY RETURNDATASIZE PUSH1 0x0 REVERT JUMPDEST POP POP POP POP PUSH1 0x40 MLOAD RETURNDATASIZE PUSH1 0x1F NOT PUSH1 0x1F DUP3 ADD AND DUP3 ADD DUP1 PUSH1 0x40 MSTORE POP DUP2 ADD SWAP1 PUSH2 0x2279 SWAP2 SWAP1 PUSH2 0x5B1D JUMP JUMPDEST PUSH1 0x0 SLOAD PUSH1 0x40 MLOAD PUSH4 0x1D525F0F PUSH1 0xE1 SHL DUP2 MSTORE SWAP2 SWAP3 POP PUSH1 0x1 PUSH1 0x1 PUSH1 0xA0 SHL SUB AND SWAP1 PUSH4 0x3AA4BE1E SWAP1 PUSH2 0x22AA SWAP1 DUP7 SWAP1 PUSH1 0x4 ADD PUSH2 0x669D JUMP JUMPDEST PUSH1 0x20 PUSH1 0x40 MLOAD DUP1 DUP4 SUB DUP2 DUP7 DUP1 EXTCODESIZE ISZERO DUP1 ISZERO PUSH2 0x22C2 JUMPI PUSH1 0x0 DUP1 REVERT JUMPDEST POP GAS STATICCALL ISZERO DUP1 ISZERO PUSH2 0x22D6 JUMPI RETURNDATASIZE PUSH1 0x0 DUP1 RETURNDATACOPY RETURNDATASIZE PUSH1 0x0 REVERT JUMPDEST POP POP POP POP PUSH1 0x40 MLOAD RETURNDATASIZE PUSH1 0x1F NOT PUSH1 0x1F DUP3 ADD AND DUP3 ADD DUP1 PUSH1 0x40 MSTORE POP DUP2 ADD SWAP1 PUSH2 0x22FA SWAP2 SWAP1 PUSH2 0x5B1D JUMP JUMPDEST DUP2 LT PUSH2 0x2318 JUMPI PUSH1 0x40 MLOAD PUSH3 0x461BCD PUSH1 0xE5 SHL DUP2 MSTORE PUSH1 0x4 ADD PUSH2 0x5F9 SWAP1 PUSH2 0x63B0 JUMP JUMPDEST PUSH2 0x2322 DUP4 CALLER PUSH2 0x4ACD JUMP JUMPDEST PUSH1 0x0 SLOAD PUSH1 0x40 MLOAD PUSH4 0xE72F4D3 PUSH1 0xE1 SHL DUP2 MSTORE PUSH1 0x1 PUSH1 0x1 PUSH1 0xA0 SHL SUB SWAP1 SWAP2 AND SWAP1 PUSH4 0x1CE5E9A6 SWAP1 PUSH2 0x2352 SWAP1 DUP7 SWAP1 PUSH1 0x4 ADD PUSH2 0x669D JUMP JUMPDEST PUSH1 0x0 PUSH1 0x40 MLOAD DUP1 DUP4 SUB DUP2 DUP7 DUP1 EXTCODESIZE ISZERO DUP1 ISZERO PUSH2 0x236A JUMPI PUSH1 0x0 DUP1 REVERT JUMPDEST POP GAS STATICCALL ISZERO DUP1 ISZERO PUSH2 0x237E JUMPI RETURNDATASIZE PUSH1 0x0 DUP1 RETURNDATACOPY RETURNDATASIZE PUSH1 0x0 REVERT JUMPDEST POP POP POP POP PUSH1 0x40 MLOAD RETURNDATASIZE PUSH1 0x0 DUP3 RETURNDATACOPY PUSH1 0x1F RETURNDATASIZE SWAP1 DUP2 ADD PUSH1 0x1F NOT AND DUP3 ADD PUSH1 0x40 MSTORE PUSH2 0x23A6 SWAP2 SWAP1 DUP2 ADD SWAP1 PUSH2 0x5AD2 JUMP JUMPDEST PUSH1 0x40 ADD MLOAD PUSH1 0x1 PUSH1 0x1 PUSH1 0xA0 SHL SUB AND PUSH4 0xA9059CBB CALLER DUP4 PUSH1 0x40 MLOAD DUP4 PUSH4 0xFFFFFFFF AND PUSH1 0xE0 SHL DUP2 MSTORE PUSH1 0x4 ADD PUSH2 0x23D7 SWAP3 SWAP2 SWAP1 PUSH2 0x5CF1 JUMP JUMPDEST PUSH1 0x20 PUSH1 0x40 MLOAD DUP1 DUP4 SUB DUP2 PUSH1 0x0 DUP8 DUP1 EXTCODESIZE ISZERO DUP1 ISZERO PUSH2 0x23F1 JUMPI PUSH1 0x0 DUP1 REVERT JUMPDEST POP GAS CALL ISZERO DUP1 ISZERO PUSH2 0x2405 JUMPI RETURNDATASIZE PUSH1 0x0 DUP1 RETURNDATACOPY RETURNDATASIZE PUSH1 0x0 REVERT JUMPDEST POP POP POP POP PUSH1 0x40 MLOAD RETURNDATASIZE PUSH1 0x1F NOT PUSH1 0x1F DUP3 ADD AND DUP3 ADD DUP1 PUSH1 0x40 MSTORE POP DUP2 ADD SWAP1 PUSH2 0x2429 SWAP2 SWAP1 PUSH2 0x5AB2 JUMP JUMPDEST POP DUP3 PUSH32 0x60C7613A8B8CE872A461E88B0F376098063E67E4DF6D0AA6A55790FE81ACDB58 CALLER DUP4 PUSH1 0x40 MLOAD PUSH2 0xA93 SWAP3 SWAP2 SWAP1 PUSH2 0x5CF1 JUMP JUMPDEST PUSH1 0x0 DUP1 SLOAD PUSH1 0x40 MLOAD PUSH4 0x87AD6F13 PUSH1 0xE0 SHL DUP2 MSTORE PUSH1 0x1 PUSH1 0x1 PUSH1 0xA0 SHL SUB SWAP1 SWAP2 AND SWAP1 PUSH4 0x87AD6F13 SWAP1 PUSH2 0x2497 SWAP1 DUP11 SWAP1 DUP11 SWAP1 DUP11 SWAP1 DUP11 SWAP1 DUP11 SWAP1 DUP11 SWAP1 PUSH1 0x4 ADD PUSH2 0x5D0A JUMP JUMPDEST PUSH1 0x20 PUSH1 0x40 MLOAD DUP1 DUP4 SUB DUP2 PUSH1 0x0 DUP8 DUP1 EXTCODESIZE ISZERO DUP1 ISZERO PUSH2 0x24B1 JUMPI PUSH1 0x0 DUP1 REVERT JUMPDEST POP GAS CALL ISZERO DUP1 ISZERO PUSH2 0x24C5 JUMPI RETURNDATASIZE PUSH1 0x0 DUP1 RETURNDATACOPY RETURNDATASIZE PUSH1 0x0 REVERT JUMPDEST POP POP POP POP PUSH1 0x40 MLOAD RETURNDATASIZE PUSH1 0x1F NOT PUSH1 0x1F DUP3 ADD AND DUP3 ADD DUP1 PUSH1 0x40 MSTORE POP DUP2 ADD SWAP1 PUSH2 0x24E9 SWAP2 SWAP1 PUSH2 0x5B1D JUMP JUMPDEST SWAP8 SWAP7 POP POP POP POP POP POP POP JUMP JUMPDEST PUSH1 0x0 SLOAD PUSH1 0x40 MLOAD PUSH4 0xE72F4D3 PUSH1 0xE1 SHL DUP2 MSTORE PUSH1 0x1 PUSH1 0x1 PUSH1 0xA0 SHL SUB SWAP1 SWAP2 AND SWAP1 PUSH4 0x1CE5E9A6 SWAP1 PUSH2 0x2524 SWAP1 DUP9 SWAP1 PUSH1 0x4 ADD PUSH2 0x669D JUMP JUMPDEST PUSH1 0x0 PUSH1 0x40 MLOAD DUP1 DUP4 SUB DUP2 DUP7 DUP1 EXTCODESIZE ISZERO DUP1 ISZERO PUSH2 0x253C JUMPI PUSH1 0x0 DUP1 REVERT JUMPDEST POP GAS STATICCALL ISZERO DUP1 ISZERO PUSH2 0x2550 JUMPI RETURNDATASIZE PUSH1 0x0 DUP1 RETURNDATACOPY RETURNDATASIZE PUSH1 0x0 REVERT JUMPDEST POP POP POP POP PUSH1 0x40 MLOAD RETURNDATASIZE PUSH1 0x0 DUP3 RETURNDATACOPY PUSH1 0x1F RETURNDATASIZE SWAP1 DUP2 ADD PUSH1 0x1F NOT AND DUP3 ADD PUSH1 0x40 MSTORE PUSH2 0x2578 SWAP2 SWAP1 DUP2 ADD SWAP1 PUSH2 0x5AD2 JUMP JUMPDEST PUSH1 0x20 ADD MLOAD PUSH1 0x1 PUSH1 0x1 PUSH1 0xA0 SHL SUB DUP2 AND PUSH2 0x25A2 JUMPI PUSH1 0x40 MLOAD PUSH3 0x461BCD PUSH1 0xE5 SHL DUP2 MSTORE PUSH1 0x4 ADD PUSH2 0x5F9 SWAP1 PUSH2 0x6047 JUMP JUMPDEST PUSH1 0x0 SLOAD PUSH1 0x40 MLOAD PUSH4 0x278E4C1 PUSH1 0xE3 SHL DUP2 MSTORE PUSH1 0x1 PUSH1 0x1 PUSH1 0xA0 SHL SUB SWAP1 SWAP2 AND SWAP1 PUSH4 0x13C72608 SWAP1 PUSH2 0x25D2 SWAP1 DUP10 SWAP1 PUSH1 0x4 ADD PUSH2 0x669D JUMP JUMPDEST PUSH1 0x20 PUSH1 0x40 MLOAD DUP1 DUP4 SUB DUP2 DUP7 DUP1 EXTCODESIZE ISZERO DUP1 ISZERO PUSH2 0x25EA JUMPI PUSH1 0x0 DUP1 REVERT JUMPDEST POP GAS STATICCALL ISZERO DUP1 ISZERO PUSH2 0x25FE JUMPI RETURNDATASIZE PUSH1 0x0 DUP1 RETURNDATACOPY RETURNDATASIZE PUSH1 0x0 REVERT JUMPDEST POP POP POP POP PUSH1 0x40 MLOAD RETURNDATASIZE PUSH1 0x1F NOT PUSH1 0x1F DUP3 ADD AND DUP3 ADD DUP1 PUSH1 0x40 MSTORE POP DUP2 ADD SWAP1 PUSH2 0x2622 SWAP2 SWAP1 PUSH2 0x5B1D JUMP JUMPDEST DUP1 TIMESTAMP LT PUSH2 0x2641 JUMPI PUSH1 0x40 MLOAD PUSH3 0x461BCD PUSH1 0xE5 SHL DUP2 MSTORE PUSH1 0x4 ADD PUSH2 0x5F9 SWAP1 PUSH2 0x5F45 JUMP JUMPDEST PUSH1 0x0 SLOAD PUSH1 0x40 MLOAD PUSH4 0xD9548E53 PUSH1 0xE0 SHL DUP2 MSTORE DUP9 SWAP2 PUSH1 0x1 PUSH1 0x1 PUSH1 0xA0 SHL SUB AND SWAP1 PUSH4 0xD9548E53 SWAP1 PUSH2 0x2671 SWAP1 DUP5 SWAP1 PUSH1 0x4 ADD PUSH2 0x669D JUMP JUMPDEST PUSH1 0x20 PUSH1 0x40 MLOAD DUP1 DUP4 SUB DUP2 DUP7 DUP1 EXTCODESIZE ISZERO DUP1 ISZERO PUSH2 0x2689 JUMPI PUSH1 0x0 DUP1 REVERT JUMPDEST POP GAS STATICCALL ISZERO DUP1 ISZERO PUSH2 0x269D JUMPI RETURNDATASIZE PUSH1 0x0 DUP1 RETURNDATACOPY RETURNDATASIZE PUSH1 0x0 REVERT JUMPDEST POP POP POP POP PUSH1 0x40 MLOAD RETURNDATASIZE PUSH1 0x1F NOT PUSH1 0x1F DUP3 ADD AND DUP3 ADD DUP1 PUSH1 0x40 MSTORE POP DUP2 ADD SWAP1 PUSH2 0x26C1 SWAP2 SWAP1 PUSH2 0x5AB2 JUMP JUMPDEST ISZERO PUSH2 0x26DE JUMPI PUSH1 0x40 MLOAD PUSH3 0x461BCD PUSH1 0xE5 SHL DUP2 MSTORE PUSH1 0x4 ADD PUSH2 0x5F9 SWAP1 PUSH2 0x6594 JUMP JUMPDEST DUP7 DUP7 PUSH1 0x0 DUP2 DUP2 LT PUSH2 0x26EB JUMPI INVALID JUMPDEST SWAP1 POP PUSH1 0x20 MUL ADD CALLDATALOAD PUSH1 0x0 DUP2 GT PUSH2 0x2712 JUMPI PUSH1 0x40 MLOAD PUSH3 0x461BCD PUSH1 0xE5 SHL DUP2 MSTORE PUSH1 0x4 ADD PUSH2 0x5F9 SWAP1 PUSH2 0x6353 JUMP JUMPDEST PUSH1 0x0 SLOAD PUSH1 0x40 MLOAD PUSH4 0xA624A1DF PUSH1 0xE0 SHL DUP2 MSTORE DUP11 SWAP2 PUSH1 0x1 PUSH1 0x1 PUSH1 0xA0 SHL SUB AND SWAP1 PUSH4 0xA624A1DF SWAP1 PUSH2 0x2742 SWAP1 DUP5 SWAP1 PUSH1 0x4 ADD PUSH2 0x669D JUMP JUMPDEST PUSH1 0x20 PUSH1 0x40 MLOAD DUP1 DUP4 SUB DUP2 DUP7 DUP1 EXTCODESIZE ISZERO DUP1 ISZERO PUSH2 0x275A JUMPI PUSH1 0x0 DUP1 REVERT JUMPDEST POP GAS STATICCALL ISZERO DUP1 ISZERO PUSH2 0x276E JUMPI RETURNDATASIZE PUSH1 0x0 DUP1 RETURNDATACOPY RETURNDATASIZE PUSH1 0x0 REVERT JUMPDEST POP POP POP POP PUSH1 0x40 MLOAD RETURNDATASIZE PUSH1 0x1F NOT PUSH1 0x1F DUP3 ADD AND DUP3 ADD DUP1 PUSH1 0x40 MSTORE POP DUP2 ADD SWAP1 PUSH2 0x2792 SWAP2 SWAP1 PUSH2 0x5AB2 JUMP JUMPDEST ISZERO PUSH2 0x27AF JUMPI PUSH1 0x40 MLOAD PUSH3 0x461BCD PUSH1 0xE5 SHL DUP2 MSTORE PUSH1 0x4 ADD PUSH2 0x5F9 SWAP1 PUSH2 0x6467 JUMP JUMPDEST DUP9 DUP9 PUSH1 0x1 DUP2 DUP2 LT PUSH2 0x27BC JUMPI INVALID JUMPDEST SWAP1 POP PUSH1 0x20 MUL ADD CALLDATALOAD PUSH1 0x0 DUP2 GT PUSH2 0x27E3 JUMPI PUSH1 0x40 MLOAD PUSH3 0x461BCD PUSH1 0xE5 SHL DUP2 MSTORE PUSH1 0x4 ADD PUSH2 0x5F9 SWAP1 PUSH2 0x62B2 JUMP JUMPDEST DUP10 DUP10 PUSH1 0x2 DUP2 DUP2 LT PUSH2 0x27F0 JUMPI INVALID JUMPDEST PUSH1 0x0 SLOAD PUSH1 0x40 MLOAD PUSH4 0xE72F4D3 PUSH1 0xE1 SHL DUP2 MSTORE PUSH1 0x20 SWAP1 SWAP3 MUL SWAP4 SWAP1 SWAP4 ADD CALLDATALOAD SWAP3 PUSH1 0x1 PUSH1 0x1 PUSH1 0xA0 SHL SUB AND SWAP2 POP PUSH4 0x1CE5E9A6 SWAP1 PUSH2 0x282A SWAP1 DUP16 SWAP1 PUSH1 0x4 ADD PUSH2 0x669D JUMP JUMPDEST PUSH1 0x0 PUSH1 0x40 MLOAD DUP1 DUP4 SUB DUP2 DUP7 DUP1 EXTCODESIZE ISZERO DUP1 ISZERO PUSH2 0x2842 JUMPI PUSH1 0x0 DUP1 REVERT JUMPDEST POP GAS STATICCALL ISZERO DUP1 ISZERO PUSH2 0x2856 JUMPI RETURNDATASIZE PUSH1 0x0 DUP1 RETURNDATACOPY RETURNDATASIZE PUSH1 0x0 REVERT JUMPDEST POP POP POP POP PUSH1 0x40 MLOAD RETURNDATASIZE PUSH1 0x0 DUP3 RETURNDATACOPY PUSH1 0x1F RETURNDATASIZE SWAP1 DUP2 ADD PUSH1 0x1F NOT AND DUP3 ADD PUSH1 0x40 MSTORE PUSH2 0x287E SWAP2 SWAP1 DUP2 ADD SWAP1 PUSH2 0x5AD2 JUMP JUMPDEST PUSH2 0x100 ADD MLOAD PUSH1 0x0 DUP3 GT DUP1 ISZERO PUSH2 0x2893 JUMPI POP DUP1 DUP3 GT ISZERO JUMPDEST PUSH2 0x28AF JUMPI PUSH1 0x40 MLOAD PUSH3 0x461BCD PUSH1 0xE5 SHL DUP2 MSTORE PUSH1 0x4 ADD PUSH2 0x5F9 SWAP1 PUSH2 0x60B5 JUMP JUMPDEST PUSH3 0x30D40 GAS GT PUSH2 0x28D1 JUMPI PUSH1 0x40 MLOAD PUSH3 0x461BCD PUSH1 0xE5 SHL DUP2 MSTORE PUSH1 0x4 ADD PUSH2 0x5F9 SWAP1 PUSH2 0x5E32 JUMP JUMPDEST PUSH1 0x0 DUP1 DUP1 SWAP1 SLOAD SWAP1 PUSH2 0x100 EXP SWAP1 DIV PUSH1 0x1 PUSH1 0x1 PUSH1 0xA0 SHL SUB AND PUSH1 0x1 PUSH1 0x1 PUSH1 0xA0 SHL SUB AND PUSH4 0x1CE5E9A6 DUP16 PUSH1 0x40 MLOAD DUP3 PUSH4 0xFFFFFFFF AND PUSH1 0xE0 SHL DUP2 MSTORE PUSH1 0x4 ADD PUSH2 0x2912 SWAP2 SWAP1 PUSH2 0x669D JUMP JUMPDEST PUSH1 0x0 PUSH1 0x40 MLOAD DUP1 DUP4 SUB DUP2 DUP7 DUP1 EXTCODESIZE ISZERO DUP1 ISZERO PUSH2 0x292A JUMPI PUSH1 0x0 DUP1 REVERT JUMPDEST POP GAS STATICCALL ISZERO DUP1 ISZERO PUSH2 0x293E JUMPI RETURNDATASIZE PUSH1 0x0 DUP1 RETURNDATACOPY RETURNDATASIZE PUSH1 0x0 REVERT JUMPDEST POP POP POP POP PUSH1 0x40 MLOAD RETURNDATASIZE PUSH1 0x0 DUP3 RETURNDATACOPY PUSH1 0x1F RETURNDATASIZE SWAP1 DUP2 ADD PUSH1 0x1F NOT AND DUP3 ADD PUSH1 0x40 MSTORE PUSH2 0x2966 SWAP2 SWAP1 DUP2 ADD SWAP1 PUSH2 0x5AD2 JUMP JUMPDEST PUSH1 0xA0 ADD MLOAD PUSH1 0x2 DUP2 GT ISZERO PUSH2 0x2975 JUMPI INVALID JUMPDEST EQ PUSH2 0x2992 JUMPI PUSH1 0x40 MLOAD PUSH3 0x461BCD PUSH1 0xE5 SHL DUP2 MSTORE PUSH1 0x4 ADD PUSH2 0x5F9 SWAP1 PUSH2 0x6203 JUMP JUMPDEST PUSH1 0x0 PUSH2 0x29B8 DUP14 DUP14 PUSH1 0x1 DUP2 DUP2 LT PUSH2 0x29A4 JUMPI INVALID JUMPDEST SWAP1 POP PUSH1 0x20 MUL ADD CALLDATALOAD DUP15 DUP15 PUSH1 0x0 DUP2 DUP2 LT PUSH2 0x16AE JUMPI INVALID JUMPDEST SWAP1 POP PUSH2 0x29C4 DUP15 DUP3 PUSH2 0x4B01 JUMP JUMPDEST PUSH2 0x29CE DUP15 DUP3 PUSH2 0x4CC5 JUMP JUMPDEST PUSH2 0x2A4D DUP15 DUP15 DUP15 DUP1 DUP1 PUSH1 0x20 MUL PUSH1 0x20 ADD PUSH1 0x40 MLOAD SWAP1 DUP2 ADD PUSH1 0x40 MSTORE DUP1 SWAP4 SWAP3 SWAP2 SWAP1 DUP2 DUP2 MSTORE PUSH1 0x20 ADD DUP4 DUP4 PUSH1 0x20 MUL DUP1 DUP3 DUP5 CALLDATACOPY PUSH1 0x0 DUP2 DUP5 ADD MSTORE PUSH1 0x1F NOT PUSH1 0x1F DUP3 ADD AND SWAP1 POP DUP1 DUP4 ADD SWAP3 POP POP POP POP POP POP POP DUP14 DUP14 DUP1 DUP1 PUSH1 0x20 MUL PUSH1 0x20 ADD PUSH1 0x40 MLOAD SWAP1 DUP2 ADD PUSH1 0x40 MSTORE DUP1 SWAP4 SWAP3 SWAP2 SWAP1 DUP2 DUP2 MSTORE PUSH1 0x20 ADD DUP4 DUP4 PUSH1 0x20 MUL DUP1 DUP3 DUP5 CALLDATACOPY PUSH1 0x0 SWAP3 ADD SWAP2 SWAP1 SWAP2 MSTORE POP PUSH2 0x4F5F SWAP3 POP POP POP JUMP JUMPDEST CALLER PUSH1 0x1 PUSH1 0x1 PUSH1 0xA0 SHL SUB AND PUSH32 0xC045E6C23EBB61636A29C745F7926EFF2761BE77456E1B2F2E49E4AEA492AB44 DUP16 DUP16 DUP16 DUP16 DUP16 PUSH1 0x40 MLOAD PUSH2 0x1B4E SWAP6 SWAP5 SWAP4 SWAP3 SWAP2 SWAP1 PUSH2 0x66FF JUMP JUMPDEST PUSH1 0x0 SLOAD PUSH1 0x40 MLOAD PUSH4 0xE72F4D3 PUSH1 0xE1 SHL DUP2 MSTORE PUSH1 0x1 PUSH1 0x1 PUSH1 0xA0 SHL SUB SWAP1 SWAP2 AND SWAP1 PUSH4 0x1CE5E9A6 SWAP1 PUSH2 0x2ABE SWAP1 DUP7 SWAP1 PUSH1 0x4 ADD PUSH2 0x669D JUMP JUMPDEST PUSH1 0x0 PUSH1 0x40 MLOAD DUP1 DUP4 SUB DUP2 DUP7 DUP1 EXTCODESIZE ISZERO DUP1 ISZERO PUSH2 0x2AD6 JUMPI PUSH1 0x0 DUP1 REVERT JUMPDEST POP GAS STATICCALL ISZERO DUP1 ISZERO PUSH2 0x2AEA JUMPI RETURNDATASIZE PUSH1 0x0 DUP1 RETURNDATACOPY RETURNDATASIZE PUSH1 0x0 REVERT JUMPDEST POP POP POP POP PUSH1 0x40 MLOAD RETURNDATASIZE PUSH1 0x0 DUP3 RETURNDATACOPY PUSH1 0x1F RETURNDATASIZE SWAP1 DUP2 ADD PUSH1 0x1F NOT AND DUP3 ADD PUSH1 0x40 MSTORE PUSH2 0x2B12 SWAP2 SWAP1 DUP2 ADD SWAP1 PUSH2 0x5AD2 JUMP JUMPDEST PUSH1 0xE0 ADD MLOAD DUP1 TIMESTAMP LT PUSH2 0x2B35 JUMPI PUSH1 0x40 MLOAD PUSH3 0x461BCD PUSH1 0xE5 SHL DUP2 MSTORE PUSH1 0x4 ADD PUSH2 0x5F9 SWAP1 PUSH2 0x5F45 JUMP JUMPDEST PUSH1 0x0 SLOAD PUSH1 0x40 MLOAD PUSH4 0xD9548E53 PUSH1 0xE0 SHL DUP2 MSTORE DUP6 SWAP2 PUSH1 0x1 PUSH1 0x1 PUSH1 0xA0 SHL SUB AND SWAP1 PUSH4 0xD9548E53 SWAP1 PUSH2 0x2B65 SWAP1 DUP5 SWAP1 PUSH1 0x4 ADD PUSH2 0x669D JUMP JUMPDEST PUSH1 0x20 PUSH1 0x40 MLOAD DUP1 DUP4 SUB DUP2 DUP7 DUP1 EXTCODESIZE ISZERO DUP1 ISZERO PUSH2 0x2B7D JUMPI PUSH1 0x0 DUP1 REVERT JUMPDEST POP GAS STATICCALL ISZERO DUP1 ISZERO PUSH2 0x2B91 JUMPI RETURNDATASIZE PUSH1 0x0 DUP1 RETURNDATACOPY RETURNDATASIZE PUSH1 0x0 REVERT JUMPDEST POP POP POP POP PUSH1 0x40 MLOAD RETURNDATASIZE PUSH1 0x1F NOT PUSH1 0x1F DUP3 ADD AND DUP3 ADD DUP1 PUSH1 0x40 MSTORE POP DUP2 ADD SWAP1 PUSH2 0x2BB5 SWAP2 SWAP1 PUSH2 0x5AB2 JUMP JUMPDEST ISZERO PUSH2 0x2BD2 JUMPI PUSH1 0x40 MLOAD PUSH3 0x461BCD PUSH1 0xE5 SHL DUP2 MSTORE PUSH1 0x4 ADD PUSH2 0x5F9 SWAP1 PUSH2 0x6594 JUMP JUMPDEST DUP4 DUP4 PUSH1 0x0 DUP2 DUP2 LT PUSH2 0x2BDF JUMPI INVALID JUMPDEST SWAP1 POP PUSH1 0x20 MUL ADD CALLDATALOAD PUSH1 0x0 DUP2 GT PUSH2 0x2C06 JUMPI PUSH1 0x40 MLOAD PUSH3 0x461BCD PUSH1 0xE5 SHL DUP2 MSTORE PUSH1 0x4 ADD PUSH2 0x5F9 SWAP1 PUSH2 0x6353 JUMP JUMPDEST PUSH1 0x0 SLOAD PUSH1 0x40 MLOAD PUSH4 0xA624A1DF PUSH1 0xE0 SHL DUP2 MSTORE DUP8 SWAP2 PUSH1 0x1 PUSH1 0x1 PUSH1 0xA0 SHL SUB AND SWAP1 PUSH4 0xA624A1DF SWAP1 PUSH2 0x2C36 SWAP1 DUP5 SWAP1 PUSH1 0x4 ADD PUSH2 0x669D JUMP JUMPDEST PUSH1 0x20 PUSH1 0x40 MLOAD DUP1 DUP4 SUB DUP2 DUP7 DUP1 EXTCODESIZE ISZERO DUP1 ISZERO PUSH2 0x2C4E JUMPI PUSH1 0x0 DUP1 REVERT JUMPDEST POP GAS STATICCALL ISZERO DUP1 ISZERO PUSH2 0x2C62 JUMPI RETURNDATASIZE PUSH1 0x0 DUP1 RETURNDATACOPY RETURNDATASIZE PUSH1 0x0 REVERT JUMPDEST POP POP POP POP PUSH1 0x40 MLOAD RETURNDATASIZE PUSH1 0x1F NOT PUSH1 0x1F DUP3 ADD AND DUP3 ADD DUP1 PUSH1 0x40 MSTORE POP DUP2 ADD SWAP1 PUSH2 0x2C86 SWAP2 SWAP1 PUSH2 0x5AB2 JUMP JUMPDEST ISZERO PUSH2 0x2CA3 JUMPI PUSH1 0x40 MLOAD PUSH3 0x461BCD PUSH1 0xE5 SHL DUP2 MSTORE PUSH1 0x4 ADD PUSH2 0x5F9 SWAP1 PUSH2 0x6467 JUMP JUMPDEST DUP6 DUP6 PUSH1 0x1 DUP2 DUP2 LT PUSH2 0x2CB0 JUMPI INVALID JUMPDEST SWAP1 POP PUSH1 0x20 MUL ADD CALLDATALOAD PUSH1 0x0 DUP2 GT PUSH2 0x2CD7 JUMPI PUSH1 0x40 MLOAD PUSH3 0x461BCD PUSH1 0xE5 SHL DUP2 MSTORE PUSH1 0x4 ADD PUSH2 0x5F9 SWAP1 PUSH2 0x62B2 JUMP JUMPDEST DUP7 DUP7 PUSH1 0x2 DUP2 DUP2 LT PUSH2 0x2CE4 JUMPI INVALID JUMPDEST PUSH1 0x0 SLOAD PUSH1 0x40 MLOAD PUSH4 0xE72F4D3 PUSH1 0xE1 SHL DUP2 MSTORE PUSH1 0x20 SWAP1 SWAP3 MUL SWAP4 SWAP1 SWAP4 ADD CALLDATALOAD SWAP3 PUSH1 0x1 PUSH1 0x1 PUSH1 0xA0 SHL SUB AND SWAP2 POP PUSH4 0x1CE5E9A6 SWAP1 PUSH2 0x2D1E SWAP1 DUP13 SWAP1 PUSH1 0x4 ADD PUSH2 0x669D JUMP JUMPDEST PUSH1 0x0 PUSH1 0x40 MLOAD DUP1 DUP4 SUB DUP2 DUP7 DUP1 EXTCODESIZE ISZERO DUP1 ISZERO PUSH2 0x2D36 JUMPI PUSH1 0x0 DUP1 REVERT JUMPDEST POP GAS STATICCALL ISZERO DUP1 ISZERO PUSH2 0x2D4A JUMPI RETURNDATASIZE PUSH1 0x0 DUP1 RETURNDATACOPY RETURNDATASIZE PUSH1 0x0 REVERT JUMPDEST POP POP POP POP PUSH1 0x40 MLOAD RETURNDATASIZE PUSH1 0x0 DUP3 RETURNDATACOPY PUSH1 0x1F RETURNDATASIZE SWAP1 DUP2 ADD PUSH1 0x1F NOT AND DUP3 ADD PUSH1 0x40 MSTORE PUSH2 0x2D72 SWAP2 SWAP1 DUP2 ADD SWAP1 PUSH2 0x5AD2 JUMP JUMPDEST PUSH2 0x100 ADD MLOAD PUSH1 0x0 DUP3 GT DUP1 ISZERO PUSH2 0x2D87 JUMPI POP DUP1 DUP3 GT ISZERO JUMPDEST PUSH2 0x2DA3 JUMPI PUSH1 0x40 MLOAD PUSH3 0x461BCD PUSH1 0xE5 SHL DUP2 MSTORE PUSH1 0x4 ADD PUSH2 0x5F9 SWAP1 PUSH2 0x60B5 JUMP JUMPDEST PUSH3 0x30D40 GAS GT PUSH2 0x2DC5 JUMPI PUSH1 0x40 MLOAD PUSH3 0x461BCD PUSH1 0xE5 SHL DUP2 MSTORE PUSH1 0x4 ADD PUSH2 0x5F9 SWAP1 PUSH2 0x5E32 JUMP JUMPDEST PUSH1 0x0 DUP1 SLOAD PUSH1 0x40 MLOAD PUSH4 0xE72F4D3 PUSH1 0xE1 SHL DUP2 MSTORE PUSH1 0x1 PUSH1 0x1 PUSH1 0xA0 SHL SUB SWAP1 SWAP2 AND SWAP1 PUSH4 0x1CE5E9A6 SWAP1 PUSH2 0x2DF6 SWAP1 DUP15 SWAP1 PUSH1 0x4 ADD PUSH2 0x669D JUMP JUMPDEST PUSH1 0x0 PUSH1 0x40 MLOAD DUP1 DUP4 SUB DUP2 DUP7 DUP1 EXTCODESIZE ISZERO DUP1 ISZERO PUSH2 0x2E0E JUMPI PUSH1 0x0 DUP1 REVERT JUMPDEST POP GAS STATICCALL ISZERO DUP1 ISZERO PUSH2 0x2E22 JUMPI RETURNDATASIZE PUSH1 0x0 DUP1 RETURNDATACOPY RETURNDATASIZE PUSH1 0x0 REVERT JUMPDEST POP POP POP POP PUSH1 0x40 MLOAD RETURNDATASIZE PUSH1 0x0 DUP3 RETURNDATACOPY PUSH1 0x1F RETURNDATASIZE SWAP1 DUP2 ADD PUSH1 0x1F NOT AND DUP3 ADD PUSH1 0x40 MSTORE PUSH2 0x2E4A SWAP2 SWAP1 DUP2 ADD SWAP1 PUSH2 0x5AD2 JUMP JUMPDEST PUSH1 0xA0 ADD MLOAD PUSH1 0x2 DUP2 GT ISZERO PUSH2 0x2E59 JUMPI INVALID JUMPDEST EQ PUSH2 0x2E76 JUMPI PUSH1 0x40 MLOAD PUSH3 0x461BCD PUSH1 0xE5 SHL DUP2 MSTORE PUSH1 0x4 ADD PUSH2 0x5F9 SWAP1 PUSH2 0x6203 JUMP JUMPDEST PUSH1 0x0 PUSH2 0x2E9C DUP11 DUP11 PUSH1 0x1 DUP2 DUP2 LT PUSH2 0x2E88 JUMPI INVALID JUMPDEST SWAP1 POP PUSH1 0x20 MUL ADD CALLDATALOAD DUP12 DUP12 PUSH1 0x0 DUP2 DUP2 LT PUSH2 0x16AE JUMPI INVALID JUMPDEST PUSH1 0x0 SLOAD PUSH1 0x40 MLOAD PUSH4 0xE72F4D3 PUSH1 0xE1 SHL DUP2 MSTORE SWAP2 SWAP3 POP PUSH1 0x1 PUSH1 0x1 PUSH1 0xA0 SHL SUB AND SWAP1 PUSH4 0x1CE5E9A6 SWAP1 PUSH2 0x2ECD SWAP1 DUP15 SWAP1 PUSH1 0x4 ADD PUSH2 0x669D JUMP JUMPDEST PUSH1 0x0 PUSH1 0x40 MLOAD DUP1 DUP4 SUB DUP2 DUP7 DUP1 EXTCODESIZE ISZERO DUP1 ISZERO PUSH2 0x2EE5 JUMPI PUSH1 0x0 DUP1 REVERT JUMPDEST POP GAS STATICCALL ISZERO DUP1 ISZERO PUSH2 0x2EF9 JUMPI RETURNDATASIZE PUSH1 0x0 DUP1 RETURNDATACOPY RETURNDATASIZE PUSH1 0x0 REVERT JUMPDEST POP POP POP POP PUSH1 0x40 MLOAD RETURNDATASIZE PUSH1 0x0 DUP3 RETURNDATACOPY PUSH1 0x1F RETURNDATASIZE SWAP1 DUP2 ADD PUSH1 0x1F NOT AND DUP3 ADD PUSH1 0x40 MSTORE PUSH2 0x2F21 SWAP2 SWAP1 DUP2 ADD SWAP1 PUSH2 0x5AD2 JUMP JUMPDEST PUSH1 0x40 ADD MLOAD PUSH1 0x1 PUSH1 0x1 PUSH1 0xA0 SHL SUB AND PUSH4 0x23B872DD CALLER ADDRESS DUP5 PUSH1 0x40 MLOAD DUP5 PUSH4 0xFFFFFFFF AND PUSH1 0xE0 SHL DUP2 MSTORE PUSH1 0x4 ADD PUSH2 0x2F54 SWAP4 SWAP3 SWAP2 SWAP1 PUSH2 0x5CCD JUMP JUMPDEST PUSH1 0x20 PUSH1 0x40 MLOAD DUP1 DUP4 SUB DUP2 PUSH1 0x0 DUP8 DUP1 EXTCODESIZE ISZERO DUP1 ISZERO PUSH2 0x2F6E JUMPI PUSH1 0x0 DUP1 REVERT JUMPDEST POP GAS CALL ISZERO DUP1 ISZERO PUSH2 0x2F82 JUMPI RETURNDATASIZE PUSH1 0x0 DUP1 RETURNDATACOPY RETURNDATASIZE PUSH1 0x0 REVERT JUMPDEST POP POP POP POP PUSH1 0x40 MLOAD RETURNDATASIZE PUSH1 0x1F NOT PUSH1 0x1F DUP3 ADD AND DUP3 ADD DUP1 PUSH1 0x40 MSTORE POP DUP2 ADD SWAP1 PUSH2 0x2FA6 SWAP2 SWAP1 PUSH2 0x5AB2 JUMP JUMPDEST PUSH2 0x2FC2 JUMPI PUSH1 0x40 MLOAD PUSH3 0x461BCD PUSH1 0xE5 SHL DUP2 MSTORE PUSH1 0x4 ADD PUSH2 0x5F9 SWAP1 PUSH2 0x63E7 JUMP JUMPDEST PUSH1 0x0 SLOAD PUSH1 0x40 MLOAD PUSH4 0xF36E6CF PUSH1 0xE0 SHL DUP2 MSTORE PUSH1 0x1 PUSH1 0x1 PUSH1 0xA0 SHL SUB SWAP1 SWAP2 AND SWAP1 PUSH4 0xF36E6CF SWAP1 PUSH2 0x2FF6 SWAP1 DUP15 SWAP1 CALLER SWAP1 DUP7 SWAP1 PUSH1 0x4 ADD PUSH2 0x66BD JUMP JUMPDEST PUSH1 0x0 PUSH1 0x40 MLOAD DUP1 DUP4 SUB DUP2 PUSH1 0x0 DUP8 DUP1 EXTCODESIZE ISZERO DUP1 ISZERO PUSH2 0x3010 JUMPI PUSH1 0x0 DUP1 REVERT JUMPDEST POP GAS CALL ISZERO DUP1 ISZERO PUSH2 0x3024 JUMPI RETURNDATASIZE PUSH1 0x0 DUP1 RETURNDATACOPY RETURNDATASIZE PUSH1 0x0 REVERT JUMPDEST POP POP PUSH1 0x0 SLOAD PUSH1 0x1 PUSH1 0x1 PUSH1 0xA0 SHL SUB AND SWAP2 POP PUSH4 0x4D726EDC SWAP1 POP DUP13 DUP13 DUP13 PUSH1 0x3 DUP2 DUP2 LT PUSH2 0x3049 JUMPI INVALID JUMPDEST SWAP1 POP PUSH1 0x20 MUL ADD CALLDATALOAD CALLER PUSH1 0x40 MLOAD DUP5 PUSH4 0xFFFFFFFF AND PUSH1 0xE0 SHL DUP2 MSTORE PUSH1 0x4 ADD PUSH2 0x306F SWAP4 SWAP3 SWAP2 SWAP1 PUSH2 0x6794 JUMP JUMPDEST PUSH1 0x20 PUSH1 0x40 MLOAD DUP1 DUP4 SUB DUP2 DUP7 DUP1 EXTCODESIZE ISZERO DUP1 ISZERO PUSH2 0x3087 JUMPI PUSH1 0x0 DUP1 REVERT JUMPDEST POP GAS STATICCALL ISZERO DUP1 ISZERO PUSH2 0x309B JUMPI RETURNDATASIZE PUSH1 0x0 DUP1 RETURNDATACOPY RETURNDATASIZE PUSH1 0x0 REVERT JUMPDEST POP POP POP POP PUSH1 0x40 MLOAD RETURNDATASIZE PUSH1 0x1F NOT PUSH1 0x1F DUP3 ADD AND DUP3 ADD DUP1 PUSH1 0x40 MSTORE POP DUP2 ADD SWAP1 PUSH2 0x30BF SWAP2 SWAP1 PUSH2 0x59BF JUMP JUMPDEST POP CALLER PUSH1 0x1 PUSH1 0x1 PUSH1 0xA0 SHL SUB AND PUSH32 0x86DB197B0FED294A0788FDDC051D1BDB1EC99DCFD155D9AECDD040A812A97EF2 DUP13 DUP13 DUP13 PUSH1 0x40 MLOAD PUSH2 0x30FD SWAP4 SWAP3 SWAP2 SWAP1 PUSH2 0x66DC JUMP JUMPDEST PUSH1 0x40 MLOAD DUP1 SWAP2 SUB SWAP1 LOG2 POP POP POP POP POP POP POP POP POP POP POP JUMP JUMPDEST PUSH1 0x0 SLOAD PUSH1 0x40 MLOAD PUSH4 0x46FBF41F PUSH1 0xE1 SHL DUP2 MSTORE DUP4 SWAP2 PUSH1 0x1 PUSH1 0x1 PUSH1 0xA0 SHL SUB AND SWAP1 PUSH4 0x8DF7E83E SWAP1 PUSH2 0x3142 SWAP1 DUP5 SWAP1 PUSH1 0x4 ADD PUSH2 0x669D JUMP JUMPDEST PUSH1 0x20 PUSH1 0x40 MLOAD DUP1 DUP4 SUB DUP2 DUP7 DUP1 EXTCODESIZE ISZERO DUP1 ISZERO PUSH2 0x315A JUMPI PUSH1 0x0 DUP1 REVERT JUMPDEST POP GAS STATICCALL ISZERO DUP1 ISZERO PUSH2 0x316E JUMPI RETURNDATASIZE PUSH1 0x0 DUP1 RETURNDATACOPY RETURNDATASIZE PUSH1 0x0 REVERT JUMPDEST POP POP POP POP PUSH1 0x40 MLOAD RETURNDATASIZE PUSH1 0x1F NOT PUSH1 0x1F DUP3 ADD AND DUP3 ADD DUP1 PUSH1 0x40 MSTORE POP DUP2 ADD SWAP1 PUSH2 0x3192 SWAP2 SWAP1 PUSH2 0x5AB2 JUMP JUMPDEST PUSH2 0x31AE JUMPI PUSH1 0x40 MLOAD PUSH3 0x461BCD PUSH1 0xE5 SHL DUP2 MSTORE PUSH1 0x4 ADD PUSH2 0x5F9 SWAP1 PUSH2 0x6138 JUMP JUMPDEST PUSH1 0x0 SLOAD PUSH1 0x40 MLOAD PUSH4 0xD9548E53 PUSH1 0xE0 SHL DUP2 MSTORE DUP5 SWAP2 PUSH1 0x1 PUSH1 0x1 PUSH1 0xA0 SHL SUB AND SWAP1 PUSH4 0xD9548E53 SWAP1 PUSH2 0x31DE SWAP1 DUP5 SWAP1 PUSH1 0x4 ADD PUSH2 0x669D JUMP JUMPDEST PUSH1 0x20 PUSH1 0x40 MLOAD DUP1 DUP4 SUB DUP2 DUP7 DUP1 EXTCODESIZE ISZERO DUP1 ISZERO PUSH2 0x31F6 JUMPI PUSH1 0x0 DUP1 REVERT JUMPDEST POP GAS STATICCALL ISZERO DUP1 ISZERO PUSH2 0x320A JUMPI RETURNDATASIZE PUSH1 0x0 DUP1 RETURNDATACOPY RETURNDATASIZE PUSH1 0x0 REVERT JUMPDEST POP POP POP POP PUSH1 0x40 MLOAD RETURNDATASIZE PUSH1 0x1F NOT PUSH1 0x1F DUP3 ADD AND DUP3 ADD DUP1 PUSH1 0x40 MSTORE POP DUP2 ADD SWAP1 PUSH2 0x322E SWAP2 SWAP1 PUSH2 0x5AB2 JUMP JUMPDEST ISZERO PUSH2 0x324B JUMPI PUSH1 0x40 MLOAD PUSH3 0x461BCD PUSH1 0xE5 SHL DUP2 MSTORE PUSH1 0x4 ADD PUSH2 0x5F9 SWAP1 PUSH2 0x6594 JUMP JUMPDEST PUSH1 0x0 DUP4 GT PUSH2 0x326B JUMPI PUSH1 0x40 MLOAD PUSH3 0x461BCD PUSH1 0xE5 SHL DUP2 MSTORE PUSH1 0x4 ADD PUSH2 0x5F9 SWAP1 PUSH2 0x5D6A JUMP JUMPDEST PUSH1 0x0 SLOAD PUSH1 0x40 MLOAD PUSH4 0xE72F4D3 PUSH1 0xE1 SHL DUP2 MSTORE PUSH2 0x3305 SWAP2 DUP6 SWAP2 PUSH1 0x1 PUSH1 0x1 PUSH1 0xA0 SHL SUB SWAP1 SWAP2 AND SWAP1 PUSH4 0x1CE5E9A6 SWAP1 PUSH2 0x32A1 SWAP1 DUP10 SWAP1 PUSH1 0x4 ADD PUSH2 0x669D JUMP JUMPDEST PUSH1 0x0 PUSH1 0x40 MLOAD DUP1 DUP4 SUB DUP2 DUP7 DUP1 EXTCODESIZE ISZERO DUP1 ISZERO PUSH2 0x32B9 JUMPI PUSH1 0x0 DUP1 REVERT JUMPDEST POP GAS STATICCALL ISZERO DUP1 ISZERO PUSH2 0x32CD JUMPI RETURNDATASIZE PUSH1 0x0 DUP1 RETURNDATACOPY RETURNDATASIZE PUSH1 0x0 REVERT JUMPDEST POP POP POP POP PUSH1 0x40 MLOAD RETURNDATASIZE PUSH1 0x0 DUP3 RETURNDATACOPY PUSH1 0x1F RETURNDATASIZE SWAP1 DUP2 ADD PUSH1 0x1F NOT AND DUP3 ADD PUSH1 0x40 MSTORE PUSH2 0x32F5 SWAP2 SWAP1 DUP2 ADD SWAP1 PUSH2 0x5AD2 JUMP JUMPDEST PUSH1 0xE0 ADD MLOAD SWAP1 PUSH4 0xFFFFFFFF PUSH2 0x416B AND JUMP JUMPDEST PUSH1 0x0 SLOAD PUSH1 0x40 MLOAD PUSH4 0xE72F4D3 PUSH1 0xE1 SHL DUP2 MSTORE PUSH1 0x1 PUSH1 0x1 PUSH1 0xA0 SHL SUB SWAP1 SWAP2 AND SWAP1 PUSH4 0x1CE5E9A6 SWAP1 PUSH2 0x3335 SWAP1 DUP9 SWAP1 PUSH1 0x4 ADD PUSH2 0x669D JUMP JUMPDEST PUSH1 0x0 PUSH1 0x40 MLOAD DUP1 DUP4 SUB DUP2 DUP7 DUP1 EXTCODESIZE ISZERO DUP1 ISZERO PUSH2 0x334D JUMPI PUSH1 0x0 DUP1 REVERT JUMPDEST POP GAS STATICCALL ISZERO DUP1 ISZERO PUSH2 0x3361 JUMPI RETURNDATASIZE PUSH1 0x0 DUP1 RETURNDATACOPY RETURNDATASIZE PUSH1 0x0 REVERT JUMPDEST POP POP POP POP PUSH1 0x40 MLOAD RETURNDATASIZE PUSH1 0x0 DUP3 RETURNDATACOPY PUSH1 0x1F RETURNDATASIZE SWAP1 DUP2 ADD PUSH1 0x1F NOT AND DUP3 ADD PUSH1 0x40 MSTORE PUSH2 0x3389 SWAP2 SWAP1 DUP2 ADD SWAP1 PUSH2 0x5AD2 JUMP JUMPDEST PUSH1 0xE0 ADD MSTORE PUSH1 0x40 MLOAD DUP5 SWAP1 PUSH32 0xA1D21773F74894DC4C73F0FDF0D1AA24C0B027821D41E2ED9942B4A46132EE5A SWAP1 PUSH2 0x33BF SWAP1 DUP7 SWAP1 PUSH2 0x669D JUMP JUMPDEST PUSH1 0x40 MLOAD DUP1 SWAP2 SUB SWAP1 LOG2 POP POP POP POP JUMP JUMPDEST PUSH1 0x0 SLOAD PUSH1 0x40 MLOAD PUSH4 0x46FBF41F PUSH1 0xE1 SHL DUP2 MSTORE DUP4 SWAP2 PUSH1 0x1 PUSH1 0x1 PUSH1 0xA0 SHL SUB AND SWAP1 PUSH4 0x8DF7E83E SWAP1 PUSH2 0x33FD SWAP1 DUP5 SWAP1 PUSH1 0x4 ADD PUSH2 0x669D JUMP JUMPDEST PUSH1 0x20 PUSH1 0x40 MLOAD DUP1 DUP4 SUB DUP2 DUP7 DUP1 EXTCODESIZE ISZERO DUP1 ISZERO PUSH2 0x3415 JUMPI PUSH1 0x0 DUP1 REVERT JUMPDEST POP GAS STATICCALL ISZERO DUP1 ISZERO PUSH2 0x3429 JUMPI RETURNDATASIZE PUSH1 0x0 DUP1 RETURNDATACOPY RETURNDATASIZE PUSH1 0x0 REVERT JUMPDEST POP POP POP POP PUSH1 0x40 MLOAD RETURNDATASIZE PUSH1 0x1F NOT PUSH1 0x1F DUP3 ADD AND DUP3 ADD DUP1 PUSH1 0x40 MSTORE POP DUP2 ADD SWAP1 PUSH2 0x344D SWAP2 SWAP1 PUSH2 0x5AB2 JUMP JUMPDEST PUSH2 0x3469 JUMPI PUSH1 0x40 MLOAD PUSH3 0x461BCD PUSH1 0xE5 SHL DUP2 MSTORE PUSH1 0x4 ADD PUSH2 0x5F9 SWAP1 PUSH2 0x6138 JUMP JUMPDEST PUSH1 0x0 SLOAD PUSH1 0x40 MLOAD PUSH4 0xD9548E53 PUSH1 0xE0 SHL DUP2 MSTORE DUP5 SWAP2 PUSH1 0x1 PUSH1 0x1 PUSH1 0xA0 SHL SUB AND SWAP1 PUSH4 0xD9548E53 SWAP1 PUSH2 0x3499 SWAP1 DUP5 SWAP1 PUSH1 0x4 ADD PUSH2 0x669D JUMP JUMPDEST PUSH1 0x20 PUSH1 0x40 MLOAD DUP1 DUP4 SUB DUP2 DUP7 DUP1 EXTCODESIZE ISZERO DUP1 ISZERO PUSH2 0x34B1 JUMPI PUSH1 0x0 DUP1 REVERT JUMPDEST POP GAS STATICCALL ISZERO DUP1 ISZERO PUSH2 0x34C5 JUMPI RETURNDATASIZE PUSH1 0x0 DUP1 RETURNDATACOPY RETURNDATASIZE PUSH1 0x0 REVERT JUMPDEST POP POP POP POP PUSH1 0x40 MLOAD RETURNDATASIZE PUSH1 0x1F NOT PUSH1 0x1F DUP3 ADD AND DUP3 ADD DUP1 PUSH1 0x40 MSTORE POP DUP2 ADD SWAP1 PUSH2 0x34E9 SWAP2 SWAP1 PUSH2 0x5AB2 JUMP JUMPDEST ISZERO PUSH2 0x3506 JUMPI PUSH1 0x40 MLOAD PUSH3 0x461BCD PUSH1 0xE5 SHL DUP2 MSTORE PUSH1 0x4 ADD PUSH2 0x5F9 SWAP1 PUSH2 0x6594 JUMP JUMPDEST PUSH1 0x0 DUP4 GT PUSH2 0x3526 JUMPI PUSH1 0x40 MLOAD PUSH3 0x461BCD PUSH1 0xE5 SHL DUP2 MSTORE PUSH1 0x4 ADD PUSH2 0x5F9 SWAP1 PUSH2 0x5D6A JUMP JUMPDEST PUSH1 0x0 DUP1 SLOAD PUSH1 0x40 MLOAD PUSH4 0xE72F4D3 PUSH1 0xE1 SHL DUP2 MSTORE PUSH2 0x355D SWAP2 DUP7 SWAP2 PUSH1 0x1 PUSH1 0x1 PUSH1 0xA0 SHL SUB SWAP1 SWAP2 AND SWAP1 PUSH4 0x1CE5E9A6 SWAP1 PUSH2 0x32A1 SWAP1 DUP11 SWAP1 PUSH1 0x4 ADD PUSH2 0x669D JUMP JUMPDEST PUSH1 0x0 SLOAD PUSH1 0x40 MLOAD PUSH4 0xE72F4D3 PUSH1 0xE1 SHL DUP2 MSTORE SWAP2 SWAP3 POP PUSH1 0x1 PUSH1 0x1 PUSH1 0xA0 SHL SUB AND SWAP1 PUSH4 0x1CE5E9A6 SWAP1 PUSH2 0x358E SWAP1 DUP9 SWAP1 PUSH1 0x4 ADD PUSH2 0x669D JUMP JUMPDEST PUSH1 0x0 PUSH1 0x40 MLOAD DUP1 DUP4 SUB DUP2 DUP7 DUP1 EXTCODESIZE ISZERO DUP1 ISZERO PUSH2 0x35A6 JUMPI PUSH1 0x0 DUP1 REVERT JUMPDEST POP GAS STATICCALL ISZERO DUP1 ISZERO PUSH2 0x35BA JUMPI RETURNDATASIZE PUSH1 0x0 DUP1 RETURNDATACOPY RETURNDATASIZE PUSH1 0x0 REVERT JUMPDEST POP POP POP POP PUSH1 0x40 MLOAD RETURNDATASIZE PUSH1 0x0 DUP3 RETURNDATACOPY PUSH1 0x1F RETURNDATASIZE SWAP1 DUP2 ADD PUSH1 0x1F NOT AND DUP3 ADD PUSH1 0x40 MSTORE PUSH2 0x35E2 SWAP2 SWAP1 DUP2 ADD SWAP1 PUSH2 0x5AD2 JUMP JUMPDEST PUSH1 0xE0 ADD MLOAD DUP2 GT PUSH2 0x3604 JUMPI PUSH1 0x40 MLOAD PUSH3 0x461BCD PUSH1 0xE5 SHL DUP2 MSTORE PUSH1 0x4 ADD PUSH2 0x5F9 SWAP1 PUSH2 0x651B JUMP JUMPDEST PUSH1 0x0 SLOAD PUSH1 0x40 MLOAD PUSH4 0xE72F4D3 PUSH1 0xE1 SHL DUP2 MSTORE DUP3 SWAP2 PUSH1 0x1 PUSH1 0x1 PUSH1 0xA0 SHL SUB AND SWAP1 PUSH4 0x1CE5E9A6 SWAP1 PUSH2 0x3634 SWAP1 DUP10 SWAP1 PUSH1 0x4 ADD PUSH2 0x669D JUMP JUMPDEST PUSH1 0x0 PUSH1 0x40 MLOAD DUP1 DUP4 SUB DUP2 DUP7 DUP1 EXTCODESIZE ISZERO DUP1 ISZERO PUSH2 0x364C JUMPI PUSH1 0x0 DUP1 REVERT JUMPDEST POP GAS STATICCALL ISZERO DUP1 ISZERO PUSH2 0x3660 JUMPI RETURNDATASIZE PUSH1 0x0 DUP1 RETURNDATACOPY RETURNDATASIZE PUSH1 0x0 REVERT JUMPDEST POP POP POP POP PUSH1 0x40 MLOAD RETURNDATASIZE PUSH1 0x0 DUP3 RETURNDATACOPY PUSH1 0x1F RETURNDATASIZE SWAP1 DUP2 ADD PUSH1 0x1F NOT AND DUP3 ADD PUSH1 0x40 MSTORE PUSH2 0x3688 SWAP2 SWAP1 DUP2 ADD SWAP1 PUSH2 0x5AD2 JUMP JUMPDEST PUSH1 0xE0 ADD MSTORE PUSH1 0x40 MLOAD DUP6 SWAP1 PUSH32 0x85F8DC1C9620D5BFBC44AB7590BABB99CA4E416DE26D99B2610FE4179848CA36 SWAP1 PUSH2 0x857 SWAP1 DUP8 SWAP1 PUSH2 0x669D JUMP JUMPDEST PUSH1 0x0 SLOAD PUSH1 0x40 MLOAD PUSH4 0x46FBF41F PUSH1 0xE1 SHL DUP2 MSTORE DUP4 SWAP2 PUSH1 0x1 PUSH1 0x1 PUSH1 0xA0 SHL SUB AND SWAP1 PUSH4 0x8DF7E83E SWAP1 PUSH2 0x36EE SWAP1 DUP5 SWAP1 PUSH1 0x4 ADD PUSH2 0x669D JUMP JUMPDEST PUSH1 0x20 PUSH1 0x40 MLOAD DUP1 DUP4 SUB DUP2 DUP7 DUP1 EXTCODESIZE ISZERO DUP1 ISZERO PUSH2 0x3706 JUMPI PUSH1 0x0 DUP1 REVERT JUMPDEST POP GAS STATICCALL ISZERO DUP1 ISZERO PUSH2 0x371A JUMPI RETURNDATASIZE PUSH1 0x0 DUP1 RETURNDATACOPY RETURNDATASIZE PUSH1 0x0 REVERT JUMPDEST POP POP POP POP PUSH1 0x40 MLOAD RETURNDATASIZE PUSH1 0x1F NOT PUSH1 0x1F DUP3 ADD AND DUP3 ADD DUP1 PUSH1 0x40 MSTORE POP DUP2 ADD SWAP1 PUSH2 0x373E SWAP2 SWAP1 PUSH2 0x5AB2 JUMP JUMPDEST PUSH2 0x375A JUMPI PUSH1 0x40 MLOAD PUSH3 0x461BCD PUSH1 0xE5 SHL DUP2 MSTORE PUSH1 0x4 ADD PUSH2 0x5F9 SWAP1 PUSH2 0x6138 JUMP JUMPDEST DUP2 PUSH1 0x0 DUP2 GT PUSH2 0x377B JUMPI PUSH1 0x40 MLOAD PUSH3 0x461BCD PUSH1 0xE5 SHL DUP2 MSTORE PUSH1 0x4 ADD PUSH2 0x5F9 SWAP1 PUSH2 0x6353 JUMP JUMPDEST PUSH1 0x0 SLOAD PUSH1 0x40 MLOAD PUSH4 0xE72F4D3 PUSH1 0xE1 SHL DUP2 MSTORE PUSH1 0x1 PUSH1 0x1 PUSH1 0xA0 SHL SUB SWAP1 SWAP2 AND SWAP1 PUSH4 0x1CE5E9A6 SWAP1 PUSH2 0x37AB SWAP1 DUP8 SWAP1 PUSH1 0x4 ADD PUSH2 0x669D JUMP JUMPDEST PUSH1 0x0 PUSH1 0x40 MLOAD DUP1 DUP4 SUB DUP2 DUP7 DUP1 EXTCODESIZE ISZERO DUP1 ISZERO PUSH2 0x37C3 JUMPI PUSH1 0x0 DUP1 REVERT JUMPDEST POP GAS STATICCALL ISZERO DUP1 ISZERO PUSH2 0x37D7 JUMPI RETURNDATASIZE PUSH1 0x0 DUP1 RETURNDATACOPY RETURNDATASIZE PUSH1 0x0 REVERT JUMPDEST POP POP POP POP PUSH1 0x40 MLOAD RETURNDATASIZE PUSH1 0x0 DUP3 RETURNDATACOPY PUSH1 0x1F RETURNDATASIZE SWAP1 DUP2 ADD PUSH1 0x1F NOT AND DUP3 ADD PUSH1 0x40 MSTORE PUSH2 0x37FF SWAP2 SWAP1 DUP2 ADD SWAP1 PUSH2 0x5AD2 JUMP JUMPDEST PUSH1 0xE0 ADD MLOAD DUP1 TIMESTAMP LT PUSH2 0x3822 JUMPI PUSH1 0x40 MLOAD PUSH3 0x461BCD PUSH1 0xE5 SHL DUP2 MSTORE PUSH1 0x4 ADD PUSH2 0x5F9 SWAP1 PUSH2 0x5F45 JUMP JUMPDEST PUSH1 0x0 SLOAD PUSH1 0x40 MLOAD PUSH4 0xD9548E53 PUSH1 0xE0 SHL DUP2 MSTORE DUP7 SWAP2 PUSH1 0x1 PUSH1 0x1 PUSH1 0xA0 SHL SUB AND SWAP1 PUSH4 0xD9548E53 SWAP1 PUSH2 0x3852 SWAP1 DUP5 SWAP1 PUSH1 0x4 ADD PUSH2 0x669D JUMP JUMPDEST PUSH1 0x20 PUSH1 0x40 MLOAD DUP1 DUP4 SUB DUP2 DUP7 DUP1 EXTCODESIZE ISZERO DUP1 ISZERO PUSH2 0x386A JUMPI PUSH1 0x0 DUP1 REVERT JUMPDEST POP GAS STATICCALL ISZERO DUP1 ISZERO PUSH2 0x387E JUMPI RETURNDATASIZE PUSH1 0x0 DUP1 RETURNDATACOPY RETURNDATASIZE PUSH1 0x0 REVERT JUMPDEST POP POP POP POP PUSH1 0x40 MLOAD RETURNDATASIZE PUSH1 0x1F NOT PUSH1 0x1F DUP3 ADD AND DUP3 ADD DUP1 PUSH1 0x40 MSTORE POP DUP2 ADD SWAP1 PUSH2 0x38A2 SWAP2 SWAP1 PUSH2 0x5AB2 JUMP JUMPDEST ISZERO PUSH2 0x38BF JUMPI PUSH1 0x40 MLOAD PUSH3 0x461BCD PUSH1 0xE5 SHL DUP2 MSTORE PUSH1 0x4 ADD PUSH2 0x5F9 SWAP1 PUSH2 0x6594 JUMP JUMPDEST PUSH1 0x0 SLOAD PUSH1 0x40 MLOAD PUSH4 0xE72F4D3 PUSH1 0xE1 SHL DUP2 MSTORE PUSH1 0x1 PUSH1 0x1 PUSH1 0xA0 SHL SUB SWAP1 SWAP2 AND SWAP1 PUSH4 0x1CE5E9A6 SWAP1 PUSH2 0x38EF SWAP1 DUP10 SWAP1 PUSH1 0x4 ADD PUSH2 0x669D JUMP JUMPDEST PUSH1 0x0 PUSH1 0x40 MLOAD DUP1 DUP4 SUB DUP2 DUP7 DUP1 EXTCODESIZE ISZERO DUP1 ISZERO PUSH2 0x3907 JUMPI PUSH1 0x0 DUP1 REVERT JUMPDEST POP GAS STATICCALL ISZERO DUP1 ISZERO PUSH2 0x391B JUMPI RETURNDATASIZE PUSH1 0x0 DUP1 RETURNDATACOPY RETURNDATASIZE PUSH1 0x0 REVERT JUMPDEST POP POP POP POP PUSH1 0x40 MLOAD RETURNDATASIZE PUSH1 0x0 DUP3 RETURNDATACOPY PUSH1 0x1F RETURNDATASIZE SWAP1 DUP2 ADD PUSH1 0x1F NOT AND DUP3 ADD PUSH1 0x40 MSTORE PUSH2 0x3943 SWAP2 SWAP1 DUP2 ADD SWAP1 PUSH2 0x5AD2 JUMP JUMPDEST PUSH1 0x20 ADD MLOAD PUSH1 0x1 PUSH1 0x1 PUSH1 0xA0 SHL SUB AND CALLER PUSH1 0x1 PUSH1 0x1 PUSH1 0xA0 SHL SUB AND EQ ISZERO PUSH2 0x3978 JUMPI PUSH1 0x40 MLOAD PUSH3 0x461BCD PUSH1 0xE5 SHL DUP2 MSTORE PUSH1 0x4 ADD PUSH2 0x5F9 SWAP1 PUSH2 0x5DB7 JUMP JUMPDEST PUSH1 0x0 DUP1 SLOAD PUSH1 0x40 MLOAD PUSH4 0x2E548339 PUSH1 0xE2 SHL DUP2 MSTORE PUSH1 0x1 PUSH1 0x1 PUSH1 0xA0 SHL SUB SWAP1 SWAP2 AND SWAP1 PUSH4 0xB9520CE4 SWAP1 PUSH2 0x39AB SWAP1 DUP11 SWAP1 CALLER SWAP1 PUSH1 0x4 ADD PUSH2 0x66A6 JUMP JUMPDEST PUSH1 0x20 PUSH1 0x40 MLOAD DUP1 DUP4 SUB DUP2 DUP7 DUP1 EXTCODESIZE ISZERO DUP1 ISZERO PUSH2 0x39C3 JUMPI PUSH1 0x0 DUP1 REVERT JUMPDEST POP GAS STATICCALL ISZERO DUP1 ISZERO PUSH2 0x39D7 JUMPI RETURNDATASIZE PUSH1 0x0 DUP1 RETURNDATACOPY RETURNDATASIZE PUSH1 0x0 REVERT JUMPDEST POP POP POP POP PUSH1 0x40 MLOAD RETURNDATASIZE PUSH1 0x1F NOT PUSH1 0x1F DUP3 ADD AND DUP3 ADD DUP1 PUSH1 0x40 MSTORE POP DUP2 ADD SWAP1 PUSH2 0x39FB SWAP2 SWAP1 PUSH2 0x5B1D JUMP JUMPDEST SWAP1 POP DUP1 ISZERO PUSH2 0x3A1B JUMPI PUSH1 0x40 MLOAD PUSH3 0x461BCD PUSH1 0xE5 SHL DUP2 MSTORE PUSH1 0x4 ADD PUSH2 0x5F9 SWAP1 PUSH2 0x5DFD JUMP JUMPDEST PUSH1 0x0 SLOAD PUSH1 0x40 MLOAD PUSH4 0xF36E6CF PUSH1 0xE0 SHL DUP2 MSTORE PUSH1 0x1 PUSH1 0x1 PUSH1 0xA0 SHL SUB SWAP1 SWAP2 AND SWAP1 PUSH4 0xF36E6CF SWAP1 PUSH2 0x3A4F SWAP1 DUP11 SWAP1 CALLER SWAP1 DUP12 SWAP1 PUSH1 0x4 ADD PUSH2 0x66BD JUMP JUMPDEST PUSH1 0x0 PUSH1 0x40 MLOAD DUP1 DUP4 SUB DUP2 PUSH1 0x0 DUP8 DUP1 EXTCODESIZE ISZERO DUP1 ISZERO PUSH2 0x3A69 JUMPI PUSH1 0x0 DUP1 REVERT JUMPDEST POP GAS CALL ISZERO DUP1 ISZERO PUSH2 0x3A7D JUMPI RETURNDATASIZE PUSH1 0x0 DUP1 RETURNDATACOPY RETURNDATASIZE PUSH1 0x0 REVERT JUMPDEST POP POP POP POP POP POP POP POP POP POP POP JUMP JUMPDEST PUSH1 0x0 DUP1 SLOAD PUSH1 0x40 DUP1 MLOAD PUSH4 0x30FE4275 PUSH1 0xE2 SHL DUP2 MSTORE DUP2 MLOAD DUP5 SWAP4 PUSH1 0x1 PUSH1 0x1 PUSH1 0xA0 SHL SUB AND SWAP3 PUSH4 0xC3F909D4 SWAP3 PUSH1 0x4 DUP1 DUP3 ADD SWAP4 SWAP2 DUP3 SWAP1 SUB ADD DUP2 DUP7 DUP1 EXTCODESIZE ISZERO DUP1 ISZERO PUSH2 0x3ACB JUMPI PUSH1 0x0 DUP1 REVERT JUMPDEST POP GAS STATICCALL ISZERO DUP1 ISZERO PUSH2 0x3ADF JUMPI RETURNDATASIZE PUSH1 0x0 DUP1 RETURNDATACOPY RETURNDATASIZE PUSH1 0x0 REVERT JUMPDEST POP POP POP POP PUSH1 0x40 MLOAD RETURNDATASIZE PUSH1 0x1F NOT PUSH1 0x1F DUP3 ADD AND DUP3 ADD DUP1 PUSH1 0x40 MSTORE POP DUP2 ADD SWAP1 PUSH2 0x3B03 SWAP2 SWAP1 PUSH2 0x59DB JUMP JUMPDEST SWAP2 POP SWAP2 POP SWAP1 SWAP2 JUMP JUMPDEST PUSH1 0x0 SLOAD PUSH1 0x40 MLOAD PUSH4 0x46FBF41F PUSH1 0xE1 SHL DUP2 MSTORE DUP3 SWAP2 PUSH1 0x1 PUSH1 0x1 PUSH1 0xA0 SHL SUB AND SWAP1 PUSH4 0x8DF7E83E SWAP1 PUSH2 0x3B3B SWAP1 DUP5 SWAP1 PUSH1 0x4 ADD PUSH2 0x669D JUMP JUMPDEST PUSH1 0x20 PUSH1 0x40 MLOAD DUP1 DUP4 SUB DUP2 DUP7 DUP1 EXTCODESIZE ISZERO DUP1 ISZERO PUSH2 0x3B53 JUMPI PUSH1 0x0 DUP1 REVERT JUMPDEST POP GAS STATICCALL ISZERO DUP1 ISZERO PUSH2 0x3B67 JUMPI RETURNDATASIZE PUSH1 0x0 DUP1 RETURNDATACOPY RETURNDATASIZE PUSH1 0x0 REVERT JUMPDEST POP POP POP POP PUSH1 0x40 MLOAD RETURNDATASIZE PUSH1 0x1F NOT PUSH1 0x1F DUP3 ADD AND DUP3 ADD DUP1 PUSH1 0x40 MSTORE POP DUP2 ADD SWAP1 PUSH2 0x3B8B SWAP2 SWAP1 PUSH2 0x5AB2 JUMP JUMPDEST PUSH2 0x3BA7 JUMPI PUSH1 0x40 MLOAD PUSH3 0x461BCD PUSH1 0xE5 SHL DUP2 MSTORE PUSH1 0x4 ADD PUSH2 0x5F9 SWAP1 PUSH2 0x6138 JUMP JUMPDEST PUSH1 0x0 SLOAD PUSH1 0x40 MLOAD PUSH4 0xD9548E53 PUSH1 0xE0 SHL DUP2 MSTORE DUP4 SWAP2 PUSH1 0x1 PUSH1 0x1 PUSH1 0xA0 SHL SUB AND SWAP1 PUSH4 0xD9548E53 SWAP1 PUSH2 0x3BD7 SWAP1 DUP5 SWAP1 PUSH1 0x4 ADD PUSH2 0x669D JUMP JUMPDEST PUSH1 0x20 PUSH1 0x40 MLOAD DUP1 DUP4 SUB DUP2 DUP7 DUP1 EXTCODESIZE ISZERO DUP1 ISZERO PUSH2 0x3BEF JUMPI PUSH1 0x0 DUP1 REVERT JUMPDEST POP GAS STATICCALL ISZERO DUP1 ISZERO PUSH2 0x3C03 JUMPI RETURNDATASIZE PUSH1 0x0 DUP1 RETURNDATACOPY RETURNDATASIZE PUSH1 0x0 REVERT JUMPDEST POP POP POP POP PUSH1 0x40 MLOAD RETURNDATASIZE PUSH1 0x1F NOT PUSH1 0x1F DUP3 ADD AND DUP3 ADD DUP1 PUSH1 0x40 MSTORE POP DUP2 ADD SWAP1 PUSH2 0x3C27 SWAP2 SWAP1 PUSH2 0x5AB2 JUMP JUMPDEST ISZERO PUSH2 0x3C44 JUMPI PUSH1 0x40 MLOAD PUSH3 0x461BCD PUSH1 0xE5 SHL DUP2 MSTORE PUSH1 0x4 ADD PUSH2 0x5F9 SWAP1 PUSH2 0x6594 JUMP JUMPDEST PUSH1 0x0 SLOAD PUSH1 0x40 MLOAD PUSH4 0xE72F4D3 PUSH1 0xE1 SHL DUP2 MSTORE PUSH1 0x1 SWAP2 PUSH1 0x1 PUSH1 0x1 PUSH1 0xA0 SHL SUB AND SWAP1 PUSH4 0x1CE5E9A6 SWAP1 PUSH2 0x3C75 SWAP1 DUP8 SWAP1 PUSH1 0x4 ADD PUSH2 0x669D JUMP JUMPDEST PUSH1 0x0 PUSH1 0x40 MLOAD DUP1 DUP4 SUB DUP2 DUP7 DUP1 EXTCODESIZE ISZERO DUP1 ISZERO PUSH2 0x3C8D JUMPI PUSH1 0x0 DUP1 REVERT JUMPDEST POP GAS STATICCALL ISZERO DUP1 ISZERO PUSH2 0x3CA1 JUMPI RETURNDATASIZE PUSH1 0x0 DUP1 RETURNDATACOPY RETURNDATASIZE PUSH1 0x0 REVERT JUMPDEST POP POP POP POP PUSH1 0x40 MLOAD RETURNDATASIZE PUSH1 0x0 DUP3 RETURNDATACOPY PUSH1 0x1F RETURNDATASIZE SWAP1 DUP2 ADD PUSH1 0x1F NOT AND DUP3 ADD PUSH1 0x40 MSTORE PUSH2 0x3CC9 SWAP2 SWAP1 DUP2 ADD SWAP1 PUSH2 0x5AD2 JUMP JUMPDEST PUSH1 0xA0 ADD MLOAD PUSH1 0x2 DUP2 GT ISZERO PUSH2 0x3CD8 JUMPI INVALID JUMPDEST EQ PUSH2 0x3CF5 JUMPI PUSH1 0x40 MLOAD PUSH3 0x461BCD PUSH1 0xE5 SHL DUP2 MSTORE PUSH1 0x4 ADD PUSH2 0x5F9 SWAP1 PUSH2 0x64E4 JUMP JUMPDEST PUSH1 0x0 DUP1 PUSH2 0x3D01 DUP6 PUSH2 0x50CC JUMP JUMPDEST SWAP2 POP SWAP2 POP PUSH1 0x0 NOT DUP2 LT PUSH2 0x3D26 JUMPI PUSH1 0x40 MLOAD PUSH3 0x461BCD PUSH1 0xE5 SHL DUP2 MSTORE PUSH1 0x4 ADD PUSH2 0x5F9 SWAP1 PUSH2 0x5F0E JUMP JUMPDEST PUSH2 0x3D31 DUP6 DUP4 DUP4 PUSH2 0x531B JUMP JUMPDEST PUSH2 0x3D3A DUP6 PUSH2 0x55FC JUMP JUMPDEST PUSH1 0x0 DUP1 SLOAD PUSH1 0x40 MLOAD PUSH4 0xE72F4D3 PUSH1 0xE1 SHL DUP2 MSTORE PUSH1 0x1 PUSH1 0x1 PUSH1 0xA0 SHL SUB SWAP1 SWAP2 AND SWAP1 PUSH4 0x1CE5E9A6 SWAP1 PUSH2 0x3D6B SWAP1 DUP10 SWAP1 PUSH1 0x4 ADD PUSH2 0x669D JUMP JUMPDEST PUSH1 0x0 PUSH1 0x40 MLOAD DUP1 DUP4 SUB DUP2 DUP7 DUP1 EXTCODESIZE ISZERO DUP1 ISZERO PUSH2 0x3D83 JUMPI PUSH1 0x0 DUP1 REVERT JUMPDEST POP GAS STATICCALL ISZERO DUP1 ISZERO PUSH2 0x3D97 JUMPI RETURNDATASIZE PUSH1 0x0 DUP1 RETURNDATACOPY RETURNDATASIZE PUSH1 0x0 REVERT JUMPDEST POP POP POP POP PUSH1 0x40 MLOAD RETURNDATASIZE PUSH1 0x0 DUP3 RETURNDATACOPY PUSH1 0x1F RETURNDATASIZE SWAP1 DUP2 ADD PUSH1 0x1F NOT AND DUP3 ADD PUSH1 0x40 MSTORE PUSH2 0x3DBF SWAP2 SWAP1 DUP2 ADD SWAP1 PUSH2 0x5AD2 JUMP JUMPDEST PUSH1 0xA0 ADD SWAP1 PUSH1 0x2 DUP2 GT ISZERO PUSH2 0x3DCE JUMPI INVALID JUMPDEST SWAP1 DUP2 PUSH1 0x2 DUP2 GT ISZERO PUSH2 0x3DDB JUMPI INVALID JUMPDEST SWAP1 MSTORE POP PUSH1 0x0 SLOAD PUSH1 0x40 MLOAD PUSH4 0xE72F4D3 PUSH1 0xE1 SHL DUP2 MSTORE CALLER SWAP2 PUSH32 0x23AD4783D95EE2D3730FAE4843757E102BD28A58EF48E2C6F8FE93AEF120F5FB SWAP2 DUP9 SWAP2 PUSH2 0x1F83 SWAP2 DUP7 SWAP2 PUSH1 0x1 PUSH1 0x1 PUSH1 0xA0 SHL SUB AND SWAP1 PUSH4 0x1CE5E9A6 SWAP1 PUSH2 0x1F1F SWAP1 DUP7 SWAP1 PUSH1 0x4 ADD PUSH2 0x669D JUMP JUMPDEST PUSH1 0x0 SLOAD PUSH1 0x40 MLOAD PUSH4 0xE757223 PUSH1 0xE4 SHL DUP2 MSTORE PUSH1 0x60 SWAP2 PUSH1 0x1 PUSH1 0x1 PUSH1 0xA0 SHL SUB AND SWAP1 PUSH4 0xE7572230 SWAP1 PUSH2 0x20A1 SWAP1 DUP6 SWAP1 PUSH1 0x4 ADD PUSH2 0x669D JUMP JUMPDEST PUSH1 0x0 SLOAD PUSH1 0x40 MLOAD PUSH4 0x46FBF41F PUSH1 0xE1 SHL DUP2 MSTORE DUP3 SWAP2 PUSH1 0x1 PUSH1 0x1 PUSH1 0xA0 SHL SUB AND SWAP1 PUSH4 0x8DF7E83E SWAP1 PUSH2 0x3E99 SWAP1 DUP5 SWAP1 PUSH1 0x4 ADD PUSH2 0x669D JUMP JUMPDEST PUSH1 0x20 PUSH1 0x40 MLOAD DUP1 DUP4 SUB DUP2 DUP7 DUP1 EXTCODESIZE ISZERO DUP1 ISZERO PUSH2 0x3EB1 JUMPI PUSH1 0x0 DUP1 REVERT JUMPDEST POP GAS STATICCALL ISZERO DUP1 ISZERO PUSH2 0x3EC5 JUMPI RETURNDATASIZE PUSH1 0x0 DUP1 RETURNDATACOPY RETURNDATASIZE PUSH1 0x0 REVERT JUMPDEST POP POP POP POP PUSH1 0x40 MLOAD RETURNDATASIZE PUSH1 0x1F NOT PUSH1 0x1F DUP3 ADD AND DUP3 ADD DUP1 PUSH1 0x40 MSTORE POP DUP2 ADD SWAP1 PUSH2 0x3EE9 SWAP2 SWAP1 PUSH2 0x5AB2 JUMP JUMPDEST PUSH2 0x3F05 JUMPI PUSH1 0x40 MLOAD PUSH3 0x461BCD PUSH1 0xE5 SHL DUP2 MSTORE PUSH1 0x4 ADD PUSH2 0x5F9 SWAP1 PUSH2 0x6138 JUMP JUMPDEST PUSH1 0x0 SLOAD PUSH1 0x40 MLOAD PUSH4 0xD9548E53 PUSH1 0xE0 SHL DUP2 MSTORE DUP4 SWAP2 PUSH1 0x1 PUSH1 0x1 PUSH1 0xA0 SHL SUB AND SWAP1 PUSH4 0xD9548E53 SWAP1 PUSH2 0x3F35 SWAP1 DUP5 SWAP1 PUSH1 0x4 ADD PUSH2 0x669D JUMP JUMPDEST PUSH1 0x20 PUSH1 0x40 MLOAD DUP1 DUP4 SUB DUP2 DUP7 DUP1 EXTCODESIZE ISZERO DUP1 ISZERO PUSH2 0x3F4D JUMPI PUSH1 0x0 DUP1 REVERT JUMPDEST POP GAS STATICCALL ISZERO DUP1 ISZERO PUSH2 0x3F61 JUMPI RETURNDATASIZE PUSH1 0x0 DUP1 RETURNDATACOPY RETURNDATASIZE PUSH1 0x0 REVERT JUMPDEST POP POP POP POP PUSH1 0x40 MLOAD RETURNDATASIZE PUSH1 0x1F NOT PUSH1 0x1F DUP3 ADD AND DUP3 ADD DUP1 PUSH1 0x40 MSTORE POP DUP2 ADD SWAP1 PUSH2 0x3F85 SWAP2 SWAP1 PUSH2 0x5AB2 JUMP JUMPDEST ISZERO PUSH2 0x3FA2 JUMPI PUSH1 0x40 MLOAD PUSH3 0x461BCD PUSH1 0xE5 SHL DUP2 MSTORE PUSH1 0x4 ADD PUSH2 0x5F9 SWAP1 PUSH2 0x6594 JUMP JUMPDEST PUSH2 0x3FAB DUP4 PUSH2 0x490E JUMP JUMPDEST PUSH1 0x40 MLOAD DUP4 SWAP1 PUSH32 0x91239F1B1C69A78900CC0B21AF84007275A0BDCFAD50186F9C47F0E11B03C109 SWAP1 PUSH1 0x0 SWAP1 LOG2 POP POP POP JUMP JUMPDEST PUSH1 0x0 SLOAD PUSH1 0x1 PUSH1 0x1 PUSH1 0xA0 SHL SUB AND DUP2 JUMP JUMPDEST PUSH1 0x0 SLOAD PUSH1 0x40 MLOAD PUSH4 0xFBA225B9 PUSH1 0xE0 SHL DUP2 MSTORE PUSH1 0x1 PUSH1 0x1 PUSH1 0xA0 SHL SUB SWAP1 SWAP2 AND SWAP1 PUSH4 0xFBA225B9 SWAP1 CALLVALUE SWAP1 PUSH2 0x401C SWAP1 DUP6 SWAP1 PUSH1 0x4 ADD PUSH2 0x669D JUMP JUMPDEST PUSH1 0x0 PUSH1 0x40 MLOAD DUP1 DUP4 SUB DUP2 DUP6 DUP9 DUP1 EXTCODESIZE ISZERO DUP1 ISZERO PUSH2 0x4035 JUMPI PUSH1 0x0 DUP1 REVERT JUMPDEST POP GAS CALL ISZERO DUP1 ISZERO PUSH2 0x4049 JUMPI RETURNDATASIZE PUSH1 0x0 DUP1 RETURNDATACOPY RETURNDATASIZE PUSH1 0x0 REVERT JUMPDEST POP POP POP POP POP POP JUMP JUMPDEST PUSH1 0x0 DUP1 SLOAD PUSH1 0x40 MLOAD PUSH4 0xFCCE4883 PUSH1 0xE0 SHL DUP2 MSTORE PUSH1 0x1 PUSH1 0x1 PUSH1 0xA0 SHL SUB SWAP1 SWAP2 AND SWAP1 PUSH4 0xFCCE4883 SWAP1 PUSH2 0x1FC2 SWAP1 DUP6 SWAP1 PUSH1 0x4 ADD PUSH2 0x669D JUMP JUMPDEST PUSH1 0x0 DUP3 PUSH2 0x4091 JUMPI POP PUSH1 0x0 PUSH2 0xBEF JUMP JUMPDEST DUP3 DUP3 MUL DUP3 DUP5 DUP3 DUP2 PUSH2 0x409E JUMPI INVALID JUMPDEST DIV EQ PUSH2 0x40BC JUMPI PUSH1 0x40 MLOAD PUSH3 0x461BCD PUSH1 0xE5 SHL DUP2 MSTORE PUSH1 0x4 ADD PUSH2 0x5F9 SWAP1 PUSH2 0x6271 JUMP JUMPDEST SWAP4 SWAP3 POP POP POP JUMP JUMPDEST PUSH1 0x0 DUP1 DUP3 GT PUSH2 0x40E4 JUMPI PUSH1 0x40 MLOAD PUSH3 0x461BCD PUSH1 0xE5 SHL DUP2 MSTORE PUSH1 0x4 ADD PUSH2 0x5F9 SWAP1 PUSH2 0x6010 JUMP JUMPDEST DUP2 DUP4 DUP2 PUSH2 0x40ED JUMPI INVALID JUMPDEST DIV SWAP4 SWAP3 POP POP POP JUMP JUMPDEST PUSH1 0x0 DUP3 DUP3 GT ISZERO PUSH2 0x4117 JUMPI PUSH1 0x40 MLOAD PUSH3 0x461BCD PUSH1 0xE5 SHL DUP2 MSTORE PUSH1 0x4 ADD PUSH2 0x5F9 SWAP1 PUSH2 0x5FA2 JUMP JUMPDEST POP SWAP1 SUB SWAP1 JUMP JUMPDEST PUSH1 0x0 DUP1 SLOAD PUSH1 0x40 MLOAD PUSH4 0xD97FEF01 PUSH1 0xE0 SHL DUP2 MSTORE PUSH1 0x1 PUSH1 0x1 PUSH1 0xA0 SHL SUB SWAP1 SWAP2 AND SWAP2 PUSH4 0xD97FEF01 SWAP2 PUSH2 0x4151 SWAP2 DUP7 SWAP2 DUP7 SWAP2 SWAP1 PUSH1 0x4 ADD PUSH2 0x66BD JUMP JUMPDEST PUSH1 0x0 PUSH1 0x40 MLOAD DUP1 DUP4 SUB DUP2 PUSH1 0x0 DUP8 DUP1 EXTCODESIZE ISZERO DUP1 ISZERO PUSH2 0x4035 JUMPI PUSH1 0x0 DUP1 REVERT JUMPDEST PUSH1 0x0 DUP3 DUP3 ADD DUP4 DUP2 LT ISZERO PUSH2 0x40BC JUMPI PUSH1 0x40 MLOAD PUSH3 0x461BCD PUSH1 0xE5 SHL DUP2 MSTORE PUSH1 0x4 ADD PUSH2 0x5F9 SWAP1 PUSH2 0x5EA0 JUMP JUMPDEST PUSH2 0x4198 PUSH2 0x57B7 JUMP JUMPDEST PUSH1 0x0 SLOAD PUSH1 0x40 MLOAD PUSH4 0x7EB742CF PUSH1 0xE1 SHL DUP2 MSTORE PUSH1 0x1 PUSH1 0x1 PUSH1 0xA0 SHL SUB SWAP1 SWAP2 AND SWAP1 PUSH4 0xFD6E859E SWAP1 PUSH2 0x41C8 SWAP1 DUP7 SWAP1 PUSH1 0x4 ADD PUSH2 0x669D JUMP JUMPDEST PUSH1 0x0 PUSH1 0x40 MLOAD DUP1 DUP4 SUB DUP2 DUP7 DUP1 EXTCODESIZE ISZERO DUP1 ISZERO PUSH2 0x41E0 JUMPI PUSH1 0x0 DUP1 REVERT JUMPDEST POP GAS STATICCALL ISZERO DUP1 ISZERO PUSH2 0x41F4 JUMPI RETURNDATASIZE PUSH1 0x0 DUP1 RETURNDATACOPY RETURNDATASIZE PUSH1 0x0 REVERT JUMPDEST POP POP POP POP PUSH1 0x40 MLOAD RETURNDATASIZE PUSH1 0x0 DUP3 RETURNDATACOPY PUSH1 0x1F RETURNDATASIZE SWAP1 DUP2 ADD PUSH1 0x1F NOT AND DUP3 ADD PUSH1 0x40 MSTORE PUSH2 0x421C SWAP2 SWAP1 DUP2 ADD SWAP1 PUSH2 0x5AD2 JUMP JUMPDEST PUSH1 0x80 DUP2 ADD DUP4 SWAP1 MSTORE PUSH1 0x0 SLOAD DUP4 MLOAD SWAP2 SWAP3 POP PUSH1 0x1 PUSH1 0x1 PUSH1 0xA0 SHL SUB AND SWAP1 PUSH4 0x839DA08B SWAP1 DUP6 SWAP1 DUP6 SWAP1 PUSH1 0x3 SWAP1 DUP2 LT PUSH2 0x424A JUMPI INVALID JUMPDEST PUSH1 0x20 MUL PUSH1 0x20 ADD ADD MLOAD PUSH1 0x40 MLOAD DUP4 PUSH4 0xFFFFFFFF AND PUSH1 0xE0 SHL DUP2 MSTORE PUSH1 0x4 ADD PUSH2 0x426F SWAP3 SWAP2 SWAP1 PUSH2 0x6786 JUMP JUMPDEST PUSH1 0x20 PUSH1 0x40 MLOAD DUP1 DUP4 SUB DUP2 DUP7 DUP1 EXTCODESIZE ISZERO DUP1 ISZERO PUSH2 0x4287 JUMPI PUSH1 0x0 DUP1 REVERT JUMPDEST POP GAS STATICCALL ISZERO DUP1 ISZERO PUSH2 0x429B JUMPI RETURNDATASIZE PUSH1 0x0 DUP1 RETURNDATACOPY RETURNDATASIZE PUSH1 0x0 REVERT JUMPDEST POP POP POP POP PUSH1 0x40 MLOAD RETURNDATASIZE PUSH1 0x1F NOT PUSH1 0x1F DUP3 ADD AND DUP3 ADD DUP1 PUSH1 0x40 MSTORE POP DUP2 ADD SWAP1 PUSH2 0x42BF SWAP2 SWAP1 PUSH2 0x59BF JUMP JUMPDEST POP CALLER PUSH1 0x1 PUSH1 0x1 PUSH1 0xA0 SHL SUB AND PUSH32 0x31F9A3CCD05DD54B3523CBA1AE416CCF9842696D7295F62824DFACAB1A957BF7 DUP5 DUP5 PUSH1 0x40 MLOAD PUSH2 0xA93 SWAP3 SWAP2 SWAP1 PUSH2 0x6738 JUMP JUMPDEST PUSH1 0x0 DUP1 DUP1 DUP1 DUP1 JUMPDEST PUSH1 0x0 SLOAD PUSH1 0x40 MLOAD PUSH4 0xE72F4D3 PUSH1 0xE1 SHL DUP2 MSTORE PUSH1 0x1 PUSH1 0x1 PUSH1 0xA0 SHL SUB SWAP1 SWAP2 AND SWAP1 PUSH4 0x1CE5E9A6 SWAP1 PUSH2 0x4332 SWAP1 DUP10 SWAP1 PUSH1 0x4 ADD PUSH2 0x669D JUMP JUMPDEST PUSH1 0x0 PUSH1 0x40 MLOAD DUP1 DUP4 SUB DUP2 DUP7 DUP1 EXTCODESIZE ISZERO DUP1 ISZERO PUSH2 0x434A JUMPI PUSH1 0x0 DUP1 REVERT JUMPDEST POP GAS STATICCALL ISZERO DUP1 ISZERO PUSH2 0x435E JUMPI RETURNDATASIZE PUSH1 0x0 DUP1 RETURNDATACOPY RETURNDATASIZE PUSH1 0x0 REVERT JUMPDEST POP POP POP POP PUSH1 0x40 MLOAD RETURNDATASIZE PUSH1 0x0 DUP3 RETURNDATACOPY PUSH1 0x1F RETURNDATASIZE SWAP1 DUP2 ADD PUSH1 0x1F NOT AND DUP3 ADD PUSH1 0x40 MSTORE PUSH2 0x4386 SWAP2 SWAP1 DUP2 ADD SWAP1 PUSH2 0x5AD2 JUMP JUMPDEST PUSH1 0xC0 ADD MLOAD MLOAD DUP2 LT ISZERO PUSH2 0x4548 JUMPI PUSH1 0x0 DUP1 SLOAD PUSH1 0x40 MLOAD PUSH4 0xE72F4D3 PUSH1 0xE1 SHL DUP2 MSTORE PUSH1 0x1 PUSH1 0x1 PUSH1 0xA0 SHL SUB SWAP1 SWAP2 AND SWAP1 PUSH4 0x839DA08B SWAP1 DUP10 SWAP1 DUP4 SWAP1 PUSH4 0x1CE5E9A6 SWAP1 PUSH2 0x43CD SWAP1 DUP5 SWAP1 PUSH1 0x4 ADD PUSH2 0x669D JUMP JUMPDEST PUSH1 0x0 PUSH1 0x40 MLOAD DUP1 DUP4 SUB DUP2 DUP7 DUP1 EXTCODESIZE ISZERO DUP1 ISZERO PUSH2 0x43E5 JUMPI PUSH1 0x0 DUP1 REVERT JUMPDEST POP GAS STATICCALL ISZERO DUP1 ISZERO PUSH2 0x43F9 JUMPI RETURNDATASIZE PUSH1 0x0 DUP1 RETURNDATACOPY RETURNDATASIZE PUSH1 0x0 REVERT JUMPDEST POP POP POP POP PUSH1 0x40 MLOAD RETURNDATASIZE PUSH1 0x0 DUP3 RETURNDATACOPY PUSH1 0x1F RETURNDATASIZE SWAP1 DUP2 ADD PUSH1 0x1F NOT AND DUP3 ADD PUSH1 0x40 MSTORE PUSH2 0x4421 SWAP2 SWAP1 DUP2 ADD SWAP1 PUSH2 0x5AD2 JUMP JUMPDEST PUSH1 0xC0 ADD MLOAD DUP6 DUP2 MLOAD DUP2 LT PUSH2 0x4430 JUMPI INVALID JUMPDEST PUSH1 0x20 MUL PUSH1 0x20 ADD ADD MLOAD PUSH1 0x40 MLOAD DUP4 PUSH4 0xFFFFFFFF AND PUSH1 0xE0 SHL DUP2 MSTORE PUSH1 0x4 ADD PUSH2 0x4455 SWAP3 SWAP2 SWAP1 PUSH2 0x6786 JUMP JUMPDEST PUSH1 0x20 PUSH1 0x40 MLOAD DUP1 DUP4 SUB DUP2 DUP7 DUP1 EXTCODESIZE ISZERO DUP1 ISZERO PUSH2 0x446D JUMPI PUSH1 0x0 DUP1 REVERT JUMPDEST POP GAS STATICCALL ISZERO DUP1 ISZERO PUSH2 0x4481 JUMPI RETURNDATASIZE PUSH1 0x0 DUP1 RETURNDATACOPY RETURNDATASIZE PUSH1 0x0 REVERT JUMPDEST POP POP POP POP PUSH1 0x40 MLOAD RETURNDATASIZE PUSH1 0x1F NOT PUSH1 0x1F DUP3 ADD AND DUP3 ADD DUP1 PUSH1 0x40 MSTORE POP DUP2 ADD SWAP1 PUSH2 0x44A5 SWAP2 SWAP1 PUSH2 0x59BF JUMP JUMPDEST PUSH1 0x0 DUP1 SLOAD PUSH1 0x40 MLOAD PUSH4 0xEBA1B60B PUSH1 0xE0 SHL DUP2 MSTORE SWAP3 SWAP4 POP SWAP1 SWAP2 PUSH1 0x1 PUSH1 0x1 PUSH1 0xA0 SHL SUB SWAP1 SWAP2 AND SWAP1 PUSH4 0xEBA1B60B SWAP1 PUSH2 0x44DD SWAP1 DUP12 SWAP1 DUP7 SWAP1 PUSH1 0x4 ADD PUSH2 0x66A6 JUMP JUMPDEST PUSH1 0x20 PUSH1 0x40 MLOAD DUP1 DUP4 SUB DUP2 DUP7 DUP1 EXTCODESIZE ISZERO DUP1 ISZERO PUSH2 0x44F5 JUMPI PUSH1 0x0 DUP1 REVERT JUMPDEST POP GAS STATICCALL ISZERO DUP1 ISZERO PUSH2 0x4509 JUMPI RETURNDATASIZE PUSH1 0x0 DUP1 RETURNDATACOPY RETURNDATASIZE PUSH1 0x0 REVERT JUMPDEST POP POP POP POP PUSH1 0x40 MLOAD RETURNDATASIZE PUSH1 0x1F NOT PUSH1 0x1F DUP3 ADD AND DUP3 ADD DUP1 PUSH1 0x40 MSTORE POP DUP2 ADD SWAP1 PUSH2 0x452D SWAP2 SWAP1 PUSH2 0x5B1D JUMP JUMPDEST SWAP1 POP DUP4 DUP2 GT ISZERO PUSH2 0x453E JUMPI DUP1 SWAP4 POP DUP2 SWAP5 POP JUMPDEST POP POP PUSH1 0x1 ADD PUSH2 0x4302 JUMP JUMPDEST POP SWAP1 SWAP3 POP SWAP1 POP SWAP2 POP SWAP2 JUMP JUMPDEST PUSH1 0x0 SLOAD PUSH1 0x40 MLOAD PUSH4 0xEBA1B60B PUSH1 0xE0 SHL DUP2 MSTORE DUP3 SWAP2 PUSH1 0x1 PUSH1 0x1 PUSH1 0xA0 SHL SUB AND SWAP1 PUSH4 0xEBA1B60B SWAP1 PUSH2 0x4585 SWAP1 DUP8 SWAP1 DUP8 SWAP1 PUSH1 0x4 ADD PUSH2 0x66A6 JUMP JUMPDEST PUSH1 0x20 PUSH1 0x40 MLOAD DUP1 DUP4 SUB DUP2 DUP7 DUP1 EXTCODESIZE ISZERO DUP1 ISZERO PUSH2 0x459D JUMPI PUSH1 0x0 DUP1 REVERT JUMPDEST POP GAS STATICCALL ISZERO DUP1 ISZERO PUSH2 0x45B1 JUMPI RETURNDATASIZE PUSH1 0x0 DUP1 RETURNDATACOPY RETURNDATASIZE PUSH1 0x0 REVERT JUMPDEST POP POP POP POP PUSH1 0x40 MLOAD RETURNDATASIZE PUSH1 0x1F NOT PUSH1 0x1F DUP3 ADD AND DUP3 ADD DUP1 PUSH1 0x40 MSTORE POP DUP2 ADD SWAP1 PUSH2 0x45D5 SWAP2 SWAP1 PUSH2 0x5B1D JUMP JUMPDEST LT ISZERO PUSH2 0x45F3 JUMPI PUSH1 0x40 MLOAD PUSH3 0x461BCD PUSH1 0xE5 SHL DUP2 MSTORE PUSH1 0x4 ADD PUSH2 0x5F9 SWAP1 PUSH2 0x5FD9 JUMP JUMPDEST PUSH1 0x0 SLOAD PUSH1 0x40 MLOAD PUSH4 0xE72F4D3 PUSH1 0xE1 SHL DUP2 MSTORE PUSH1 0x1 PUSH1 0x1 PUSH1 0xA0 SHL SUB SWAP1 SWAP2 AND SWAP1 PUSH4 0x1CE5E9A6 SWAP1 PUSH2 0x4623 SWAP1 DUP7 SWAP1 PUSH1 0x4 ADD PUSH2 0x669D JUMP JUMPDEST PUSH1 0x0 PUSH1 0x40 MLOAD DUP1 DUP4 SUB DUP2 DUP7 DUP1 EXTCODESIZE ISZERO DUP1 ISZERO PUSH2 0x463B JUMPI PUSH1 0x0 DUP1 REVERT JUMPDEST POP GAS STATICCALL ISZERO DUP1 ISZERO PUSH2 0x464F JUMPI RETURNDATASIZE PUSH1 0x0 DUP1 RETURNDATACOPY RETURNDATASIZE PUSH1 0x0 REVERT JUMPDEST POP POP POP POP PUSH1 0x40 MLOAD RETURNDATASIZE PUSH1 0x0 DUP3 RETURNDATACOPY PUSH1 0x1F RETURNDATASIZE SWAP1 DUP2 ADD PUSH1 0x1F NOT AND DUP3 ADD PUSH1 0x40 MSTORE PUSH2 0x4677 SWAP2 SWAP1 DUP2 ADD SWAP1 PUSH2 0x5AD2 JUMP JUMPDEST PUSH1 0x40 SWAP1 DUP2 ADD MLOAD PUSH1 0x0 SLOAD SWAP2 MLOAD PUSH4 0xE72F4D3 PUSH1 0xE1 SHL DUP2 MSTORE PUSH1 0x1 PUSH1 0x1 PUSH1 0xA0 SHL SUB SWAP2 DUP3 AND SWAP3 PUSH4 0xA9059CBB SWAP3 CALLER SWAP3 SWAP2 AND SWAP1 PUSH4 0x1CE5E9A6 SWAP1 PUSH2 0x46B7 SWAP1 DUP10 SWAP1 PUSH1 0x4 ADD PUSH2 0x669D JUMP JUMPDEST PUSH1 0x0 PUSH1 0x40 MLOAD DUP1 DUP4 SUB DUP2 DUP7 DUP1 EXTCODESIZE ISZERO DUP1 ISZERO PUSH2 0x46CF JUMPI PUSH1 0x0 DUP1 REVERT JUMPDEST POP GAS STATICCALL ISZERO DUP1 ISZERO PUSH2 0x46E3 JUMPI RETURNDATASIZE PUSH1 0x0 DUP1 RETURNDATACOPY RETURNDATASIZE PUSH1 0x0 REVERT JUMPDEST POP POP POP POP PUSH1 0x40 MLOAD RETURNDATASIZE PUSH1 0x0 DUP3 RETURNDATACOPY PUSH1 0x1F RETURNDATASIZE SWAP1 DUP2 ADD PUSH1 0x1F NOT AND DUP3 ADD PUSH1 0x40 MSTORE PUSH2 0x470B SWAP2 SWAP1 DUP2 ADD SWAP1 PUSH2 0x5AD2 JUMP JUMPDEST PUSH1 0x60 ADD MLOAD PUSH1 0x40 MLOAD DUP4 PUSH4 0xFFFFFFFF AND PUSH1 0xE0 SHL DUP2 MSTORE PUSH1 0x4 ADD PUSH2 0x472C SWAP3 SWAP2 SWAP1 PUSH2 0x5CF1 JUMP JUMPDEST PUSH1 0x20 PUSH1 0x40 MLOAD DUP1 DUP4 SUB DUP2 PUSH1 0x0 DUP8 DUP1 EXTCODESIZE ISZERO DUP1 ISZERO PUSH2 0x4746 JUMPI PUSH1 0x0 DUP1 REVERT JUMPDEST POP GAS CALL ISZERO DUP1 ISZERO PUSH2 0x475A JUMPI RETURNDATASIZE PUSH1 0x0 DUP1 RETURNDATACOPY RETURNDATASIZE PUSH1 0x0 REVERT JUMPDEST POP POP POP POP PUSH1 0x40 MLOAD RETURNDATASIZE PUSH1 0x1F NOT PUSH1 0x1F DUP3 ADD AND DUP3 ADD DUP1 PUSH1 0x40 MSTORE POP DUP2 ADD SWAP1 PUSH2 0x477E SWAP2 SWAP1 PUSH2 0x5AB2 JUMP JUMPDEST POP PUSH1 0x0 SLOAD PUSH1 0x40 MLOAD PUSH4 0xE72F4D3 PUSH1 0xE1 SHL DUP2 MSTORE PUSH1 0x1 PUSH1 0x1 PUSH1 0xA0 SHL SUB SWAP1 SWAP2 AND SWAP1 PUSH4 0x1CE5E9A6 SWAP1 PUSH2 0x47AF SWAP1 DUP7 SWAP1 PUSH1 0x4 ADD PUSH2 0x669D JUMP JUMPDEST PUSH1 0x0 PUSH1 0x40 MLOAD DUP1 DUP4 SUB DUP2 DUP7 DUP1 EXTCODESIZE ISZERO DUP1 ISZERO PUSH2 0x47C7 JUMPI PUSH1 0x0 DUP1 REVERT JUMPDEST POP GAS STATICCALL ISZERO DUP1 ISZERO PUSH2 0x47DB JUMPI RETURNDATASIZE PUSH1 0x0 DUP1 RETURNDATACOPY RETURNDATASIZE PUSH1 0x0 REVERT JUMPDEST POP POP POP POP PUSH1 0x40 MLOAD RETURNDATASIZE PUSH1 0x0 DUP3 RETURNDATACOPY PUSH1 0x1F RETURNDATASIZE SWAP1 DUP2 ADD PUSH1 0x1F NOT AND DUP3 ADD PUSH1 0x40 MSTORE PUSH2 0x4803 SWAP2 SWAP1 DUP2 ADD SWAP1 PUSH2 0x5AD2 JUMP JUMPDEST PUSH1 0x40 SWAP1 DUP2 ADD MLOAD PUSH1 0x0 SLOAD SWAP2 MLOAD PUSH4 0xE72F4D3 PUSH1 0xE1 SHL DUP2 MSTORE PUSH1 0x1 PUSH1 0x1 PUSH1 0xA0 SHL SUB SWAP2 DUP3 AND SWAP3 PUSH4 0xA9059CBB SWAP3 AND SWAP1 PUSH4 0x1CE5E9A6 SWAP1 PUSH2 0x4840 SWAP1 DUP9 SWAP1 PUSH1 0x4 ADD PUSH2 0x669D JUMP JUMPDEST PUSH1 0x0 PUSH1 0x40 MLOAD DUP1 DUP4 SUB DUP2 DUP7 DUP1 EXTCODESIZE ISZERO DUP1 ISZERO PUSH2 0x4858 JUMPI PUSH1 0x0 DUP1 REVERT JUMPDEST POP GAS STATICCALL ISZERO DUP1 ISZERO PUSH2 0x486C JUMPI RETURNDATASIZE PUSH1 0x0 DUP1 RETURNDATACOPY RETURNDATASIZE PUSH1 0x0 REVERT JUMPDEST POP POP POP POP PUSH1 0x40 MLOAD RETURNDATASIZE PUSH1 0x0 DUP3 RETURNDATACOPY PUSH1 0x1F RETURNDATASIZE SWAP1 DUP2 ADD PUSH1 0x1F NOT AND DUP3 ADD PUSH1 0x40 MSTORE PUSH2 0x4894 SWAP2 SWAP1 DUP2 ADD SWAP1 PUSH2 0x5AD2 JUMP JUMPDEST PUSH1 0x20 ADD MLOAD DUP4 PUSH1 0x40 MLOAD DUP4 PUSH4 0xFFFFFFFF AND PUSH1 0xE0 SHL DUP2 MSTORE PUSH1 0x4 ADD PUSH2 0x48B6 SWAP3 SWAP2 SWAP1 PUSH2 0x5CF1 JUMP JUMPDEST PUSH1 0x20 PUSH1 0x40 MLOAD DUP1 DUP4 SUB DUP2 PUSH1 0x0 DUP8 DUP1 EXTCODESIZE ISZERO DUP1 ISZERO PUSH2 0x48D0 JUMPI PUSH1 0x0 DUP1 REVERT JUMPDEST POP GAS CALL ISZERO DUP1 ISZERO PUSH2 0x48E4 JUMPI RETURNDATASIZE PUSH1 0x0 DUP1 RETURNDATACOPY RETURNDATASIZE PUSH1 0x0 REVERT JUMPDEST POP POP POP POP PUSH1 0x40 MLOAD RETURNDATASIZE PUSH1 0x1F NOT PUSH1 0x1F DUP3 ADD AND DUP3 ADD DUP1 PUSH1 0x40 MSTORE POP DUP2 ADD SWAP1 PUSH2 0x4908 SWAP2 SWAP1 PUSH2 0x5AB2 JUMP JUMPDEST POP POP POP POP JUMP JUMPDEST PUSH1 0x0 JUMPDEST PUSH1 0x0 SLOAD PUSH1 0x40 MLOAD PUSH4 0xE72F4D3 PUSH1 0xE1 SHL DUP2 MSTORE PUSH1 0x1 PUSH1 0x1 PUSH1 0xA0 SHL SUB SWAP1 SWAP2 AND SWAP1 PUSH4 0x1CE5E9A6 SWAP1 PUSH2 0x4941 SWAP1 DUP6 SWAP1 PUSH1 0x4 ADD PUSH2 0x669D JUMP JUMPDEST PUSH1 0x0 PUSH1 0x40 MLOAD DUP1 DUP4 SUB DUP2 DUP7 DUP1 EXTCODESIZE ISZERO DUP1 ISZERO PUSH2 0x4959 JUMPI PUSH1 0x0 DUP1 REVERT JUMPDEST POP GAS STATICCALL ISZERO DUP1 ISZERO PUSH2 0x496D JUMPI RETURNDATASIZE PUSH1 0x0 DUP1 RETURNDATACOPY RETURNDATASIZE PUSH1 0x0 REVERT JUMPDEST POP POP POP POP PUSH1 0x40 MLOAD RETURNDATASIZE PUSH1 0x0 DUP3 RETURNDATACOPY PUSH1 0x1F RETURNDATASIZE SWAP1 DUP2 ADD PUSH1 0x1F NOT AND DUP3 ADD PUSH1 0x40 MSTORE PUSH2 0x4995 SWAP2 SWAP1 DUP2 ADD SWAP1 PUSH2 0x5AD2 JUMP JUMPDEST PUSH1 0xC0 ADD MLOAD MLOAD DUP2 LT ISZERO PUSH2 0x4AC9 JUMPI PUSH1 0x0 DUP1 SLOAD PUSH1 0x40 MLOAD PUSH4 0xE72F4D3 PUSH1 0xE1 SHL DUP2 MSTORE PUSH1 0x1 PUSH1 0x1 PUSH1 0xA0 SHL SUB SWAP1 SWAP2 AND SWAP1 PUSH4 0x839DA08B SWAP1 DUP6 SWAP1 DUP4 SWAP1 PUSH4 0x1CE5E9A6 SWAP1 PUSH2 0x49DC SWAP1 DUP5 SWAP1 PUSH1 0x4 ADD PUSH2 0x669D JUMP JUMPDEST PUSH1 0x0 PUSH1 0x40 MLOAD DUP1 DUP4 SUB DUP2 DUP7 DUP1 EXTCODESIZE ISZERO DUP1 ISZERO PUSH2 0x49F4 JUMPI PUSH1 0x0 DUP1 REVERT JUMPDEST POP GAS STATICCALL ISZERO DUP1 ISZERO PUSH2 0x4A08 JUMPI RETURNDATASIZE PUSH1 0x0 DUP1 RETURNDATACOPY RETURNDATASIZE PUSH1 0x0 REVERT JUMPDEST POP POP POP POP PUSH1 0x40 MLOAD RETURNDATASIZE PUSH1 0x0 DUP3 RETURNDATACOPY PUSH1 0x1F RETURNDATASIZE SWAP1 DUP2 ADD PUSH1 0x1F NOT AND DUP3 ADD PUSH1 0x40 MSTORE PUSH2 0x4A30 SWAP2 SWAP1 DUP2 ADD SWAP1 PUSH2 0x5AD2 JUMP JUMPDEST PUSH1 0xC0 ADD MLOAD DUP6 DUP2 MLOAD DUP2 LT PUSH2 0x4A3F JUMPI INVALID JUMPDEST PUSH1 0x20 MUL PUSH1 0x20 ADD ADD MLOAD PUSH1 0x40 MLOAD DUP4 PUSH4 0xFFFFFFFF AND PUSH1 0xE0 SHL DUP2 MSTORE PUSH1 0x4 ADD PUSH2 0x4A64 SWAP3 SWAP2 SWAP1 PUSH2 0x6786 JUMP JUMPDEST PUSH1 0x20 PUSH1 0x40 MLOAD DUP1 DUP4 SUB DUP2 DUP7 DUP1 EXTCODESIZE ISZERO DUP1 ISZERO PUSH2 0x4A7C JUMPI PUSH1 0x0 DUP1 REVERT JUMPDEST POP GAS STATICCALL ISZERO DUP1 ISZERO PUSH2 0x4A90 JUMPI RETURNDATASIZE PUSH1 0x0 DUP1 RETURNDATACOPY RETURNDATASIZE PUSH1 0x0 REVERT JUMPDEST POP POP POP POP PUSH1 0x40 MLOAD RETURNDATASIZE PUSH1 0x1F NOT PUSH1 0x1F DUP3 ADD AND DUP3 ADD DUP1 PUSH1 0x40 MSTORE POP DUP2 ADD SWAP1 PUSH2 0x4AB4 SWAP2 SWAP1 PUSH2 0x59BF JUMP JUMPDEST SWAP1 POP PUSH2 0x4AC0 DUP4 DUP3 PUSH2 0x411D JUMP JUMPDEST POP PUSH1 0x1 ADD PUSH2 0x4911 JUMP JUMPDEST POP POP JUMP JUMPDEST PUSH1 0x0 DUP1 SLOAD PUSH1 0x40 MLOAD PUSH4 0xF36E6CF PUSH1 0xE0 SHL DUP2 MSTORE PUSH1 0x1 PUSH1 0x1 PUSH1 0xA0 SHL SUB SWAP1 SWAP2 AND SWAP2 PUSH4 0xF36E6CF SWAP2 PUSH2 0x4151 SWAP2 DUP7 SWAP2 DUP7 SWAP2 SWAP1 PUSH1 0x4 ADD PUSH2 0x66BD JUMP JUMPDEST PUSH1 0x0 SLOAD PUSH1 0x40 MLOAD PUSH4 0x50A8150B PUSH1 0xE0 SHL DUP2 MSTORE PUSH1 0x1 PUSH1 0x1 PUSH1 0xA0 SHL SUB SWAP1 SWAP2 AND SWAP1 PUSH4 0x50A8150B SWAP1 PUSH2 0x4B31 SWAP1 DUP6 SWAP1 PUSH1 0x4 ADD PUSH2 0x669D JUMP JUMPDEST PUSH1 0x20 PUSH1 0x40 MLOAD DUP1 DUP4 SUB DUP2 DUP7 DUP1 EXTCODESIZE ISZERO DUP1 ISZERO PUSH2 0x4B49 JUMPI PUSH1 0x0 DUP1 REVERT JUMPDEST POP GAS STATICCALL ISZERO DUP1 ISZERO PUSH2 0x4B5D JUMPI RETURNDATASIZE PUSH1 0x0 DUP1 RETURNDATACOPY RETURNDATASIZE PUSH1 0x0 REVERT JUMPDEST POP POP POP POP PUSH1 0x40 MLOAD RETURNDATASIZE PUSH1 0x1F NOT PUSH1 0x1F DUP3 ADD AND DUP3 ADD DUP1 PUSH1 0x40 MSTORE POP DUP2 ADD SWAP1 PUSH2 0x4B81 SWAP2 SWAP1 PUSH2 0x5B1D JUMP JUMPDEST DUP2 GT ISZERO PUSH2 0x4BA0 JUMPI PUSH1 0x40 MLOAD PUSH3 0x461BCD PUSH1 0xE5 SHL DUP2 MSTORE PUSH1 0x4 ADD PUSH2 0x5F9 SWAP1 PUSH2 0x649E JUMP JUMPDEST PUSH1 0x0 SLOAD PUSH1 0x40 MLOAD PUSH4 0xE72F4D3 PUSH1 0xE1 SHL DUP2 MSTORE PUSH1 0x1 PUSH1 0x1 PUSH1 0xA0 SHL SUB SWAP1 SWAP2 AND SWAP1 PUSH4 0x1CE5E9A6 SWAP1 PUSH2 0x4BD0 SWAP1 DUP6 SWAP1 PUSH1 0x4 ADD PUSH2 0x669D JUMP JUMPDEST PUSH1 0x0 PUSH1 0x40 MLOAD DUP1 DUP4 SUB DUP2 DUP7 DUP1 EXTCODESIZE ISZERO DUP1 ISZERO PUSH2 0x4BE8 JUMPI PUSH1 0x0 DUP1 REVERT JUMPDEST POP GAS STATICCALL ISZERO DUP1 ISZERO PUSH2 0x4BFC JUMPI RETURNDATASIZE PUSH1 0x0 DUP1 RETURNDATACOPY RETURNDATASIZE PUSH1 0x0 REVERT JUMPDEST POP POP POP POP PUSH1 0x40 MLOAD RETURNDATASIZE PUSH1 0x0 DUP3 RETURNDATACOPY PUSH1 0x1F RETURNDATASIZE SWAP1 DUP2 ADD PUSH1 0x1F NOT AND DUP3 ADD PUSH1 0x40 MSTORE PUSH2 0x4C24 SWAP2 SWAP1 DUP2 ADD SWAP1 PUSH2 0x5AD2 JUMP JUMPDEST PUSH1 0x40 ADD MLOAD PUSH1 0x1 PUSH1 0x1 PUSH1 0xA0 SHL SUB AND PUSH4 0x23B872DD CALLER ADDRESS DUP5 PUSH1 0x40 MLOAD DUP5 PUSH4 0xFFFFFFFF AND PUSH1 0xE0 SHL DUP2 MSTORE PUSH1 0x4 ADD PUSH2 0x4C57 SWAP4 SWAP3 SWAP2 SWAP1 PUSH2 0x5CCD JUMP JUMPDEST PUSH1 0x20 PUSH1 0x40 MLOAD DUP1 DUP4 SUB DUP2 PUSH1 0x0 DUP8 DUP1 EXTCODESIZE ISZERO DUP1 ISZERO PUSH2 0x4C71 JUMPI PUSH1 0x0 DUP1 REVERT JUMPDEST POP GAS CALL ISZERO DUP1 ISZERO PUSH2 0x4C85 JUMPI RETURNDATASIZE PUSH1 0x0 DUP1 RETURNDATACOPY RETURNDATASIZE PUSH1 0x0 REVERT JUMPDEST POP POP POP POP PUSH1 0x40 MLOAD RETURNDATASIZE PUSH1 0x1F NOT PUSH1 0x1F DUP3 ADD AND DUP3 ADD DUP1 PUSH1 0x40 MSTORE POP DUP2 ADD SWAP1 PUSH2 0x4CA9 SWAP2 SWAP1 PUSH2 0x5AB2 JUMP JUMPDEST PUSH2 0x4AC9 JUMPI PUSH1 0x40 MLOAD PUSH3 0x461BCD PUSH1 0xE5 SHL DUP2 MSTORE PUSH1 0x4 ADD PUSH2 0x5F9 SWAP1 PUSH2 0x63E7 JUMP JUMPDEST PUSH1 0x0 DUP1 SLOAD PUSH1 0x40 MLOAD PUSH4 0xEBA1B60B PUSH1 0xE0 SHL DUP2 MSTORE PUSH1 0x1 PUSH1 0x1 PUSH1 0xA0 SHL SUB SWAP1 SWAP2 AND SWAP1 PUSH4 0xEBA1B60B SWAP1 PUSH2 0x4CF8 SWAP1 DUP7 SWAP1 CALLER SWAP1 PUSH1 0x4 ADD PUSH2 0x66A6 JUMP JUMPDEST PUSH1 0x20 PUSH1 0x40 MLOAD DUP1 DUP4 SUB DUP2 DUP7 DUP1 EXTCODESIZE ISZERO DUP1 ISZERO PUSH2 0x4D10 JUMPI PUSH1 0x0 DUP1 REVERT JUMPDEST POP GAS STATICCALL ISZERO DUP1 ISZERO PUSH2 0x4D24 JUMPI RETURNDATASIZE PUSH1 0x0 DUP1 RETURNDATACOPY RETURNDATASIZE PUSH1 0x0 REVERT JUMPDEST POP POP POP POP PUSH1 0x40 MLOAD RETURNDATASIZE PUSH1 0x1F NOT PUSH1 0x1F DUP3 ADD AND DUP3 ADD DUP1 PUSH1 0x40 MSTORE POP DUP2 ADD SWAP1 PUSH2 0x4D48 SWAP2 SWAP1 PUSH2 0x5B1D JUMP JUMPDEST SWAP1 POP DUP1 ISZERO PUSH2 0x4D68 JUMPI PUSH1 0x40 MLOAD PUSH3 0x461BCD PUSH1 0xE5 SHL DUP2 MSTORE PUSH1 0x4 ADD PUSH2 0x5F9 SWAP1 PUSH2 0x61CC JUMP JUMPDEST PUSH1 0x0 SLOAD PUSH1 0x40 MLOAD PUSH4 0xD97FEF01 PUSH1 0xE0 SHL DUP2 MSTORE PUSH1 0x1 PUSH1 0x1 PUSH1 0xA0 SHL SUB SWAP1 SWAP2 AND SWAP1 PUSH4 0xD97FEF01 SWAP1 PUSH2 0x4D9C SWAP1 DUP7 SWAP1 CALLER SWAP1 DUP8 SWAP1 PUSH1 0x4 ADD PUSH2 0x66BD JUMP JUMPDEST PUSH1 0x0 PUSH1 0x40 MLOAD DUP1 DUP4 SUB DUP2 PUSH1 0x0 DUP8 DUP1 EXTCODESIZE ISZERO DUP1 ISZERO PUSH2 0x4DB6 JUMPI PUSH1 0x0 DUP1 REVERT JUMPDEST POP GAS CALL ISZERO DUP1 ISZERO PUSH2 0x4DCA JUMPI RETURNDATASIZE PUSH1 0x0 DUP1 RETURNDATACOPY RETURNDATASIZE PUSH1 0x0 REVERT JUMPDEST POP POP POP POP PUSH1 0x0 DUP1 PUSH1 0x0 SWAP1 SLOAD SWAP1 PUSH2 0x100 EXP SWAP1 DIV PUSH1 0x1 PUSH1 0x1 PUSH1 0xA0 SHL SUB AND PUSH1 0x1 PUSH1 0x1 PUSH1 0xA0 SHL SUB AND PUSH4 0x208FF02E PUSH1 0x40 MLOAD DUP2 PUSH4 0xFFFFFFFF AND PUSH1 0xE0 SHL DUP2 MSTORE PUSH1 0x4 ADD PUSH1 0x20 PUSH1 0x40 MLOAD DUP1 DUP4 SUB DUP2 DUP7 DUP1 EXTCODESIZE ISZERO DUP1 ISZERO PUSH2 0x4E1D JUMPI PUSH1 0x0 DUP1 REVERT JUMPDEST POP GAS STATICCALL ISZERO DUP1 ISZERO PUSH2 0x4E31 JUMPI RETURNDATASIZE PUSH1 0x0 DUP1 RETURNDATACOPY RETURNDATASIZE PUSH1 0x0 REVERT JUMPDEST POP POP POP POP PUSH1 0x40 MLOAD RETURNDATASIZE PUSH1 0x1F NOT PUSH1 0x1F DUP3 ADD AND DUP3 ADD DUP1 PUSH1 0x40 MSTORE POP DUP2 ADD SWAP1 PUSH2 0x4E55 SWAP2 SWAP1 PUSH2 0x5B1D JUMP JUMPDEST PUSH1 0x0 SLOAD PUSH1 0x40 MLOAD PUSH4 0x37655B0F PUSH1 0xE1 SHL DUP2 MSTORE SWAP2 SWAP3 POP DUP3 SWAP2 PUSH1 0x1 PUSH1 0x1 PUSH1 0xA0 SHL SUB SWAP1 SWAP2 AND SWAP1 PUSH4 0x6ECAB61E SWAP1 PUSH2 0x4E8A SWAP1 CALLER SWAP1 PUSH1 0x4 ADD PUSH2 0x5CB9 JUMP JUMPDEST PUSH1 0x20 PUSH1 0x40 MLOAD DUP1 DUP4 SUB DUP2 DUP7 DUP1 EXTCODESIZE ISZERO DUP1 ISZERO PUSH2 0x4EA2 JUMPI PUSH1 0x0 DUP1 REVERT JUMPDEST POP GAS STATICCALL ISZERO DUP1 ISZERO PUSH2 0x4EB6 JUMPI RETURNDATASIZE PUSH1 0x0 DUP1 RETURNDATACOPY RETURNDATASIZE PUSH1 0x0 REVERT JUMPDEST POP POP POP POP PUSH1 0x40 MLOAD RETURNDATASIZE PUSH1 0x1F NOT PUSH1 0x1F DUP3 ADD AND DUP3 ADD DUP1 PUSH1 0x40 MSTORE POP DUP2 ADD SWAP1 PUSH2 0x4EDA SWAP2 SWAP1 PUSH2 0x5B1D JUMP JUMPDEST LT PUSH2 0x4EF7 JUMPI PUSH1 0x40 MLOAD PUSH3 0x461BCD PUSH1 0xE5 SHL DUP2 MSTORE PUSH1 0x4 ADD PUSH2 0x5F9 SWAP1 PUSH2 0x655D JUMP JUMPDEST PUSH1 0x0 SLOAD PUSH1 0x40 MLOAD PUSH4 0x93E1B8A7 PUSH1 0xE0 SHL DUP2 MSTORE PUSH1 0x1 PUSH1 0x1 PUSH1 0xA0 SHL SUB SWAP1 SWAP2 AND SWAP1 PUSH4 0x93E1B8A7 SWAP1 PUSH2 0x4F27 SWAP1 CALLER SWAP1 PUSH1 0x4 ADD PUSH2 0x5CB9 JUMP JUMPDEST PUSH1 0x0 PUSH1 0x40 MLOAD DUP1 DUP4 SUB DUP2 PUSH1 0x0 DUP8 DUP1 EXTCODESIZE ISZERO DUP1 ISZERO PUSH2 0x4F41 JUMPI PUSH1 0x0 DUP1 REVERT JUMPDEST POP GAS CALL ISZERO DUP1 ISZERO PUSH2 0x4F55 JUMPI RETURNDATASIZE PUSH1 0x0 DUP1 RETURNDATACOPY RETURNDATASIZE PUSH1 0x0 REVERT JUMPDEST POP POP POP POP POP POP POP POP JUMP JUMPDEST PUSH2 0x4F67 PUSH2 0x57B7 JUMP JUMPDEST PUSH1 0x0 SLOAD PUSH1 0x40 MLOAD PUSH4 0x7EB742CF PUSH1 0xE1 SHL DUP2 MSTORE PUSH1 0x1 PUSH1 0x1 PUSH1 0xA0 SHL SUB SWAP1 SWAP2 AND SWAP1 PUSH4 0xFD6E859E SWAP1 PUSH2 0x4F97 SWAP1 DUP8 SWAP1 PUSH1 0x4 ADD PUSH2 0x669D JUMP JUMPDEST PUSH1 0x0 PUSH1 0x40 MLOAD DUP1 DUP4 SUB DUP2 DUP7 DUP1 EXTCODESIZE ISZERO DUP1 ISZERO PUSH2 0x4FAF JUMPI PUSH1 0x0 DUP1 REVERT JUMPDEST POP GAS STATICCALL ISZERO DUP1 ISZERO PUSH2 0x4FC3 JUMPI RETURNDATASIZE PUSH1 0x0 DUP1 RETURNDATACOPY RETURNDATASIZE PUSH1 0x0 REVERT JUMPDEST POP POP POP POP PUSH1 0x40 MLOAD RETURNDATASIZE PUSH1 0x0 DUP3 RETURNDATACOPY PUSH1 0x1F RETURNDATASIZE SWAP1 DUP2 ADD PUSH1 0x1F NOT AND DUP3 ADD PUSH1 0x40 MSTORE PUSH2 0x4FEB SWAP2 SWAP1 DUP2 ADD SWAP1 PUSH2 0x5AD2 JUMP JUMPDEST PUSH1 0x80 DUP2 ADD DUP5 SWAP1 MSTORE PUSH1 0x0 SLOAD DUP5 MLOAD SWAP2 SWAP3 POP PUSH1 0x1 PUSH1 0x1 PUSH1 0xA0 SHL SUB AND SWAP1 PUSH4 0x839DA08B SWAP1 DUP7 SWAP1 DUP7 SWAP1 PUSH1 0x3 SWAP1 DUP2 LT PUSH2 0x5019 JUMPI INVALID JUMPDEST PUSH1 0x20 MUL PUSH1 0x20 ADD ADD MLOAD PUSH1 0x40 MLOAD DUP4 PUSH4 0xFFFFFFFF AND PUSH1 0xE0 SHL DUP2 MSTORE PUSH1 0x4 ADD PUSH2 0x503E SWAP3 SWAP2 SWAP1 PUSH2 0x6786 JUMP JUMPDEST PUSH1 0x20 PUSH1 0x40 MLOAD DUP1 DUP4 SUB DUP2 DUP7 DUP1 EXTCODESIZE ISZERO DUP1 ISZERO PUSH2 0x5056 JUMPI PUSH1 0x0 DUP1 REVERT JUMPDEST POP GAS STATICCALL ISZERO DUP1 ISZERO PUSH2 0x506A JUMPI RETURNDATASIZE PUSH1 0x0 DUP1 RETURNDATACOPY RETURNDATASIZE PUSH1 0x0 REVERT JUMPDEST POP POP POP POP PUSH1 0x40 MLOAD RETURNDATASIZE PUSH1 0x1F NOT PUSH1 0x1F DUP3 ADD AND DUP3 ADD DUP1 PUSH1 0x40 MSTORE POP DUP2 ADD SWAP1 PUSH2 0x508E SWAP2 SWAP1 PUSH2 0x59BF JUMP JUMPDEST POP CALLER PUSH1 0x1 PUSH1 0x1 PUSH1 0xA0 SHL SUB AND PUSH32 0xC045E6C23EBB61636A29C745F7926EFF2761BE77456E1B2F2E49E4AEA492AB44 DUP6 DUP6 DUP6 PUSH1 0x40 MLOAD PUSH2 0x33BF SWAP4 SWAP3 SWAP2 SWAP1 PUSH2 0x6751 JUMP JUMPDEST PUSH1 0x0 DUP1 DUP1 PUSH1 0x0 NOT DUP2 JUMPDEST PUSH1 0x0 SLOAD PUSH1 0x40 MLOAD PUSH4 0xE72F4D3 PUSH1 0xE1 SHL DUP2 MSTORE PUSH1 0x1 PUSH1 0x1 PUSH1 0xA0 SHL SUB SWAP1 SWAP2 AND SWAP1 PUSH4 0x1CE5E9A6 SWAP1 PUSH2 0x5105 SWAP1 DUP10 SWAP1 PUSH1 0x4 ADD PUSH2 0x669D JUMP JUMPDEST PUSH1 0x0 PUSH1 0x40 MLOAD DUP1 DUP4 SUB DUP2 DUP7 DUP1 EXTCODESIZE ISZERO DUP1 ISZERO PUSH2 0x511D JUMPI PUSH1 0x0 DUP1 REVERT JUMPDEST POP GAS STATICCALL ISZERO DUP1 ISZERO PUSH2 0x5131 JUMPI RETURNDATASIZE PUSH1 0x0 DUP1 RETURNDATACOPY RETURNDATASIZE PUSH1 0x0 REVERT JUMPDEST POP POP POP POP PUSH1 0x40 MLOAD RETURNDATASIZE PUSH1 0x0 DUP3 RETURNDATACOPY PUSH1 0x1F RETURNDATASIZE SWAP1 DUP2 ADD PUSH1 0x1F NOT AND DUP3 ADD PUSH1 0x40 MSTORE PUSH2 0x5159 SWAP2 SWAP1 DUP2 ADD SWAP1 PUSH2 0x5AD2 JUMP JUMPDEST PUSH1 0xC0 ADD MLOAD MLOAD DUP2 LT ISZERO PUSH2 0x4548 JUMPI PUSH1 0x0 DUP1 SLOAD PUSH1 0x40 MLOAD PUSH4 0xE72F4D3 PUSH1 0xE1 SHL DUP2 MSTORE PUSH1 0x1 PUSH1 0x1 PUSH1 0xA0 SHL SUB SWAP1 SWAP2 AND SWAP1 PUSH4 0xD88750B4 SWAP1 DUP10 SWAP1 DUP4 SWAP1 PUSH4 0x1CE5E9A6 SWAP1 PUSH2 0x51A0 SWAP1 DUP5 SWAP1 PUSH1 0x4 ADD PUSH2 0x669D JUMP JUMPDEST PUSH1 0x0 PUSH1 0x40 MLOAD DUP1 DUP4 SUB DUP2 DUP7 DUP1 EXTCODESIZE ISZERO DUP1 ISZERO PUSH2 0x51B8 JUMPI PUSH1 0x0 DUP1 REVERT JUMPDEST POP GAS STATICCALL ISZERO DUP1 ISZERO PUSH2 0x51CC JUMPI RETURNDATASIZE PUSH1 0x0 DUP1 RETURNDATACOPY RETURNDATASIZE PUSH1 0x0 REVERT JUMPDEST POP POP POP POP PUSH1 0x40 MLOAD RETURNDATASIZE PUSH1 0x0 DUP3 RETURNDATACOPY PUSH1 0x1F RETURNDATASIZE SWAP1 DUP2 ADD PUSH1 0x1F NOT AND DUP3 ADD PUSH1 0x40 MSTORE PUSH2 0x51F4 SWAP2 SWAP1 DUP2 ADD SWAP1 PUSH2 0x5AD2 JUMP JUMPDEST PUSH1 0xC0 ADD MLOAD DUP6 DUP2 MLOAD DUP2 LT PUSH2 0x5203 JUMPI INVALID JUMPDEST PUSH1 0x20 MUL PUSH1 0x20 ADD ADD MLOAD PUSH1 0x40 MLOAD DUP4 PUSH4 0xFFFFFFFF AND PUSH1 0xE0 SHL DUP2 MSTORE PUSH1 0x4 ADD PUSH2 0x5228 SWAP3 SWAP2 SWAP1 PUSH2 0x6786 JUMP JUMPDEST PUSH1 0x20 PUSH1 0x40 MLOAD DUP1 DUP4 SUB DUP2 DUP7 DUP1 EXTCODESIZE ISZERO DUP1 ISZERO PUSH2 0x5240 JUMPI PUSH1 0x0 DUP1 REVERT JUMPDEST POP GAS STATICCALL ISZERO DUP1 ISZERO PUSH2 0x5254 JUMPI RETURNDATASIZE PUSH1 0x0 DUP1 RETURNDATACOPY RETURNDATASIZE PUSH1 0x0 REVERT JUMPDEST POP POP POP POP PUSH1 0x40 MLOAD RETURNDATASIZE PUSH1 0x1F NOT PUSH1 0x1F DUP3 ADD AND DUP3 ADD DUP1 PUSH1 0x40 MSTORE POP DUP2 ADD SWAP1 PUSH2 0x5278 SWAP2 SWAP1 PUSH2 0x59BF JUMP JUMPDEST PUSH1 0x0 DUP1 SLOAD PUSH1 0x40 MLOAD PUSH4 0x2E548339 PUSH1 0xE2 SHL DUP2 MSTORE SWAP3 SWAP4 POP SWAP1 SWAP2 PUSH1 0x1 PUSH1 0x1 PUSH1 0xA0 SHL SUB SWAP1 SWAP2 AND SWAP1 PUSH4 0xB9520CE4 SWAP1 PUSH2 0x52B0 SWAP1 DUP12 SWAP1 DUP7 SWAP1 PUSH1 0x4 ADD PUSH2 0x66A6 JUMP JUMPDEST PUSH1 0x20 PUSH1 0x40 MLOAD DUP1 DUP4 SUB DUP2 DUP7 DUP1 EXTCODESIZE ISZERO DUP1 ISZERO PUSH2 0x52C8 JUMPI PUSH1 0x0 DUP1 REVERT JUMPDEST POP GAS STATICCALL ISZERO DUP1 ISZERO PUSH2 0x52DC JUMPI RETURNDATASIZE PUSH1 0x0 DUP1 RETURNDATACOPY RETURNDATASIZE PUSH1 0x0 REVERT JUMPDEST POP POP POP POP PUSH1 0x40 MLOAD RETURNDATASIZE PUSH1 0x1F NOT PUSH1 0x1F DUP3 ADD AND DUP3 ADD DUP1 PUSH1 0x40 MSTORE POP DUP2 ADD SWAP1 PUSH2 0x5300 SWAP2 SWAP1 PUSH2 0x5B1D JUMP JUMPDEST SWAP1 POP DUP4 DUP2 LT ISZERO PUSH2 0x5311 JUMPI DUP1 SWAP4 POP DUP2 SWAP5 POP JUMPDEST POP POP PUSH1 0x1 ADD PUSH2 0x50D5 JUMP JUMPDEST PUSH1 0x0 SLOAD PUSH1 0x40 MLOAD PUSH4 0x2E548339 PUSH1 0xE2 SHL DUP2 MSTORE DUP3 SWAP2 PUSH1 0x1 PUSH1 0x1 PUSH1 0xA0 SHL SUB AND SWAP1 PUSH4 0xB9520CE4 SWAP1 PUSH2 0x534D SWAP1 DUP8 SWAP1 DUP8 SWAP1 PUSH1 0x4 ADD PUSH2 0x66A6 JUMP JUMPDEST PUSH1 0x20 PUSH1 0x40 MLOAD DUP1 DUP4 SUB DUP2 DUP7 DUP1 EXTCODESIZE ISZERO DUP1 ISZERO PUSH2 0x5365 JUMPI PUSH1 0x0 DUP1 REVERT JUMPDEST POP GAS STATICCALL ISZERO DUP1 ISZERO PUSH2 0x5379 JUMPI RETURNDATASIZE PUSH1 0x0 DUP1 RETURNDATACOPY RETURNDATASIZE PUSH1 0x0 REVERT JUMPDEST POP POP POP POP PUSH1 0x40 MLOAD RETURNDATASIZE PUSH1 0x1F NOT PUSH1 0x1F DUP3 ADD AND DUP3 ADD DUP1 PUSH1 0x40 MSTORE POP DUP2 ADD SWAP1 PUSH2 0x539D SWAP2 SWAP1 PUSH2 0x5B1D JUMP JUMPDEST LT ISZERO PUSH2 0x53BB JUMPI PUSH1 0x40 MLOAD PUSH3 0x461BCD PUSH1 0xE5 SHL DUP2 MSTORE PUSH1 0x4 ADD PUSH2 0x5F9 SWAP1 PUSH2 0x623A JUMP JUMPDEST PUSH1 0x0 SLOAD PUSH1 0x40 MLOAD PUSH4 0xE72F4D3 PUSH1 0xE1 SHL DUP2 MSTORE PUSH1 0x1 PUSH1 0x1 PUSH1 0xA0 SHL SUB SWAP1 SWAP2 AND SWAP1 PUSH4 0x1CE5E9A6 SWAP1 PUSH2 0x53EB SWAP1 DUP7 SWAP1 PUSH1 0x4 ADD PUSH2 0x669D JUMP JUMPDEST PUSH1 0x0 PUSH1 0x40 MLOAD DUP1 DUP4 SUB DUP2 DUP7 DUP1 EXTCODESIZE ISZERO DUP1 ISZERO PUSH2 0x5403 JUMPI PUSH1 0x0 DUP1 REVERT JUMPDEST POP GAS STATICCALL ISZERO DUP1 ISZERO PUSH2 0x5417 JUMPI RETURNDATASIZE PUSH1 0x0 DUP1 RETURNDATACOPY RETURNDATASIZE PUSH1 0x0 REVERT JUMPDEST POP POP POP POP PUSH1 0x40 MLOAD RETURNDATASIZE PUSH1 0x0 DUP3 RETURNDATACOPY PUSH1 0x1F RETURNDATASIZE SWAP1 DUP2 ADD PUSH1 0x1F NOT AND DUP3 ADD PUSH1 0x40 MSTORE PUSH2 0x543F SWAP2 SWAP1 DUP2 ADD SWAP1 PUSH2 0x5AD2 JUMP JUMPDEST PUSH1 0x40 SWAP1 DUP2 ADD MLOAD PUSH1 0x0 SLOAD SWAP2 MLOAD PUSH4 0xE72F4D3 PUSH1 0xE1 SHL DUP2 MSTORE PUSH1 0x1 PUSH1 0x1 PUSH1 0xA0 SHL SUB SWAP2 DUP3 AND SWAP3 PUSH4 0xA9059CBB SWAP3 CALLER SWAP3 SWAP2 AND SWAP1 PUSH4 0x1CE5E9A6 SWAP1 PUSH2 0x547F SWAP1 DUP10 SWAP1 PUSH1 0x4 ADD PUSH2 0x669D JUMP JUMPDEST PUSH1 0x0 PUSH1 0x40 MLOAD DUP1 DUP4 SUB DUP2 DUP7 DUP1 EXTCODESIZE ISZERO DUP1 ISZERO PUSH2 0x5497 JUMPI PUSH1 0x0 DUP1 REVERT JUMPDEST POP GAS STATICCALL ISZERO DUP1 ISZERO PUSH2 0x54AB JUMPI RETURNDATASIZE PUSH1 0x0 DUP1 RETURNDATACOPY RETURNDATASIZE PUSH1 0x0 REVERT JUMPDEST POP POP POP POP PUSH1 0x40 MLOAD RETURNDATASIZE PUSH1 0x0 DUP3 RETURNDATACOPY PUSH1 0x1F RETURNDATASIZE SWAP1 DUP2 ADD PUSH1 0x1F NOT AND DUP3 ADD PUSH1 0x40 MSTORE PUSH2 0x54D3 SWAP2 SWAP1 DUP2 ADD SWAP1 PUSH2 0x5AD2 JUMP JUMPDEST PUSH1 0x60 ADD MLOAD PUSH1 0x40 MLOAD DUP4 PUSH4 0xFFFFFFFF AND PUSH1 0xE0 SHL DUP2 MSTORE PUSH1 0x4 ADD PUSH2 0x54F4 SWAP3 SWAP2 SWAP1 PUSH2 0x5CF1 JUMP JUMPDEST PUSH1 0x20 PUSH1 0x40 MLOAD DUP1 DUP4 SUB DUP2 PUSH1 0x0 DUP8 DUP1 EXTCODESIZE ISZERO DUP1 ISZERO PUSH2 0x550E JUMPI PUSH1 0x0 DUP1 REVERT JUMPDEST POP GAS CALL ISZERO DUP1 ISZERO PUSH2 0x5522 JUMPI RETURNDATASIZE PUSH1 0x0 DUP1 RETURNDATACOPY RETURNDATASIZE PUSH1 0x0 REVERT JUMPDEST POP POP POP POP PUSH1 0x40 MLOAD RETURNDATASIZE PUSH1 0x1F NOT PUSH1 0x1F DUP3 ADD AND DUP3 ADD DUP1 PUSH1 0x40 MSTORE POP DUP2 ADD SWAP1 PUSH2 0x5546 SWAP2 SWAP1 PUSH2 0x5AB2 JUMP JUMPDEST POP PUSH1 0x0 SLOAD PUSH1 0x40 MLOAD PUSH4 0xE72F4D3 PUSH1 0xE1 SHL DUP2 MSTORE PUSH1 0x1 PUSH1 0x1 PUSH1 0xA0 SHL SUB SWAP1 SWAP2 AND SWAP1 PUSH4 0x1CE5E9A6 SWAP1 PUSH2 0x5577 SWAP1 DUP7 SWAP1 PUSH1 0x4 ADD PUSH2 0x669D JUMP JUMPDEST PUSH1 0x0 PUSH1 0x40 MLOAD DUP1 DUP4 SUB DUP2 DUP7 DUP1 EXTCODESIZE ISZERO DUP1 ISZERO PUSH2 0x558F JUMPI PUSH1 0x0 DUP1 REVERT JUMPDEST POP GAS STATICCALL ISZERO DUP1 ISZERO PUSH2 0x55A3 JUMPI RETURNDATASIZE PUSH1 0x0 DUP1 RETURNDATACOPY RETURNDATASIZE PUSH1 0x0 REVERT JUMPDEST POP POP POP POP PUSH1 0x40 MLOAD RETURNDATASIZE PUSH1 0x0 DUP3 RETURNDATACOPY PUSH1 0x1F RETURNDATASIZE SWAP1 DUP2 ADD PUSH1 0x1F NOT AND DUP3 ADD PUSH1 0x40 MSTORE PUSH2 0x55CB SWAP2 SWAP1 DUP2 ADD SWAP1 PUSH2 0x5AD2 JUMP JUMPDEST PUSH1 0x40 ADD MLOAD PUSH1 0x1 PUSH1 0x1 PUSH1 0xA0 SHL SUB AND PUSH4 0xA9059CBB DUP4 DUP4 PUSH1 0x40 MLOAD DUP4 PUSH4 0xFFFFFFFF AND PUSH1 0xE0 SHL DUP2 MSTORE PUSH1 0x4 ADD PUSH2 0x48B6 SWAP3 SWAP2 SWAP1 PUSH2 0x5CF1 JUMP JUMPDEST PUSH1 0x0 JUMPDEST PUSH1 0x0 SLOAD PUSH1 0x40 MLOAD PUSH4 0xE72F4D3 PUSH1 0xE1 SHL DUP2 MSTORE PUSH1 0x1 PUSH1 0x1 PUSH1 0xA0 SHL SUB SWAP1 SWAP2 AND SWAP1 PUSH4 0x1CE5E9A6 SWAP1 PUSH2 0x562F SWAP1 DUP6 SWAP1 PUSH1 0x4 ADD PUSH2 0x669D JUMP JUMPDEST PUSH1 0x0 PUSH1 0x40 MLOAD DUP1 DUP4 SUB DUP2 DUP7 DUP1 EXTCODESIZE ISZERO DUP1 ISZERO PUSH2 0x5647 JUMPI PUSH1 0x0 DUP1 REVERT JUMPDEST POP GAS STATICCALL ISZERO DUP1 ISZERO PUSH2 0x565B JUMPI RETURNDATASIZE PUSH1 0x0 DUP1 RETURNDATACOPY RETURNDATASIZE PUSH1 0x0 REVERT JUMPDEST POP POP POP POP PUSH1 0x40 MLOAD RETURNDATASIZE PUSH1 0x0 DUP3 RETURNDATACOPY PUSH1 0x1F RETURNDATASIZE SWAP1 DUP2 ADD PUSH1 0x1F NOT AND DUP3 ADD PUSH1 0x40 MSTORE PUSH2 0x5683 SWAP2 SWAP1 DUP2 ADD SWAP1 PUSH2 0x5AD2 JUMP JUMPDEST PUSH1 0xC0 ADD MLOAD MLOAD DUP2 LT ISZERO PUSH2 0x4AC9 JUMPI PUSH1 0x0 DUP1 SLOAD PUSH1 0x40 MLOAD PUSH4 0xE72F4D3 PUSH1 0xE1 SHL DUP2 MSTORE PUSH1 0x1 PUSH1 0x1 PUSH1 0xA0 SHL SUB SWAP1 SWAP2 AND SWAP1 PUSH4 0xD88750B4 SWAP1 DUP6 SWAP1 DUP4 SWAP1 PUSH4 0x1CE5E9A6 SWAP1 PUSH2 0x56CA SWAP1 DUP5 SWAP1 PUSH1 0x4 ADD PUSH2 0x669D JUMP JUMPDEST PUSH1 0x0 PUSH1 0x40 MLOAD DUP1 DUP4 SUB DUP2 DUP7 DUP1 EXTCODESIZE ISZERO DUP1 ISZERO PUSH2 0x56E2 JUMPI PUSH1 0x0 DUP1 REVERT JUMPDEST POP GAS STATICCALL ISZERO DUP1 ISZERO PUSH2 0x56F6 JUMPI RETURNDATASIZE PUSH1 0x0 DUP1 RETURNDATACOPY RETURNDATASIZE PUSH1 0x0 REVERT JUMPDEST POP POP POP POP PUSH1 0x40 MLOAD RETURNDATASIZE PUSH1 0x0 DUP3 RETURNDATACOPY PUSH1 0x1F RETURNDATASIZE SWAP1 DUP2 ADD PUSH1 0x1F NOT AND DUP3 ADD PUSH1 0x40 MSTORE PUSH2 0x571E SWAP2 SWAP1 DUP2 ADD SWAP1 PUSH2 0x5AD2 JUMP JUMPDEST PUSH1 0xC0 ADD MLOAD DUP6 DUP2 MLOAD DUP2 LT PUSH2 0x572D JUMPI INVALID JUMPDEST PUSH1 0x20 MUL PUSH1 0x20 ADD ADD MLOAD PUSH1 0x40 MLOAD DUP4 PUSH4 0xFFFFFFFF AND PUSH1 0xE0 SHL DUP2 MSTORE PUSH1 0x4 ADD PUSH2 0x5752 SWAP3 SWAP2 SWAP1 PUSH2 0x6786 JUMP JUMPDEST PUSH1 0x20 PUSH1 0x40 MLOAD DUP1 DUP4 SUB DUP2 DUP7 DUP1 EXTCODESIZE ISZERO DUP1 ISZERO PUSH2 0x576A JUMPI PUSH1 0x0 DUP1 REVERT JUMPDEST POP GAS STATICCALL ISZERO DUP1 ISZERO PUSH2 0x577E JUMPI RETURNDATASIZE PUSH1 0x0 DUP1 RETURNDATACOPY RETURNDATASIZE PUSH1 0x0 REVERT JUMPDEST POP POP POP POP PUSH1 0x40 MLOAD RETURNDATASIZE PUSH1 0x1F NOT PUSH1 0x1F DUP3 ADD AND DUP3 ADD DUP1 PUSH1 0x40 MSTORE POP DUP2 ADD SWAP1 PUSH2 0x57A2 SWAP2 SWAP1 PUSH2 0x59BF JUMP JUMPDEST SWAP1 POP PUSH2 0x57AE DUP4 DUP3 PUSH2 0x4ACD JUMP JUMPDEST POP PUSH1 0x1 ADD PUSH2 0x55FF JUMP JUMPDEST PUSH1 0x40 DUP1 MLOAD PUSH2 0x120 DUP2 ADD DUP3 MSTORE PUSH1 0x0 DUP1 DUP3 MSTORE PUSH1 0x20 DUP3 ADD DUP2 SWAP1 MSTORE SWAP2 DUP2 ADD DUP3 SWAP1 MSTORE PUSH1 0x60 DUP1 DUP3 ADD DUP4 SWAP1 MSTORE PUSH1 0x80 DUP3 ADD MSTORE SWAP1 PUSH1 0xA0 DUP3 ADD SWAP1 DUP2 MSTORE PUSH1 0x20 ADD PUSH1 0x60 DUP2 MSTORE PUSH1 0x20 ADD PUSH1 0x0 DUP2 MSTORE PUSH1 0x20 ADD PUSH1 0x0 DUP2 MSTORE POP SWAP1 JUMP JUMPDEST DUP1 MLOAD PUSH2 0xBEF DUP2 PUSH2 0x67DA JUMP JUMPDEST PUSH1 0x0 DUP1 DUP4 PUSH1 0x1F DUP5 ADD SLT PUSH2 0x581E JUMPI DUP2 DUP3 REVERT JUMPDEST POP DUP2 CALLDATALOAD PUSH8 0xFFFFFFFFFFFFFFFF DUP2 GT ISZERO PUSH2 0x5835 JUMPI DUP2 DUP3 REVERT JUMPDEST PUSH1 0x20 DUP4 ADD SWAP2 POP DUP4 PUSH1 0x20 DUP1 DUP4 MUL DUP6 ADD ADD GT ISZERO PUSH2 0x584F JUMPI PUSH1 0x0 DUP1 REVERT JUMPDEST SWAP3 POP SWAP3 SWAP1 POP JUMP JUMPDEST PUSH1 0x0 DUP3 PUSH1 0x1F DUP4 ADD SLT PUSH2 0x5866 JUMPI DUP1 DUP2 REVERT JUMPDEST DUP2 MLOAD PUSH8 0xFFFFFFFFFFFFFFFF DUP2 GT ISZERO PUSH2 0x587C JUMPI DUP2 DUP3 REVERT JUMPDEST PUSH1 0x20 DUP1 DUP3 MUL PUSH2 0x588C DUP3 DUP3 ADD PUSH2 0x67B3 JUMP JUMPDEST DUP4 DUP2 MSTORE SWAP4 POP DUP2 DUP5 ADD DUP6 DUP4 ADD DUP3 DUP8 ADD DUP5 ADD DUP9 LT ISZERO PUSH2 0x58A8 JUMPI PUSH1 0x0 DUP1 REVERT JUMPDEST PUSH1 0x0 SWAP3 POP JUMPDEST DUP5 DUP4 LT ISZERO PUSH2 0x58CB JUMPI DUP1 MLOAD DUP3 MSTORE PUSH1 0x1 SWAP3 SWAP1 SWAP3 ADD SWAP2 SWAP1 DUP4 ADD SWAP1 DUP4 ADD PUSH2 0x58AD JUMP JUMPDEST POP POP POP POP POP SWAP3 SWAP2 POP POP JUMP JUMPDEST DUP1 MLOAD PUSH1 0x3 DUP2 LT PUSH2 0xBEF JUMPI PUSH1 0x0 DUP1 REVERT JUMPDEST PUSH1 0x0 PUSH2 0x120 DUP1 DUP4 DUP6 SUB SLT ISZERO PUSH2 0x58F8 JUMPI DUP2 DUP3 REVERT JUMPDEST PUSH2 0x5901 DUP2 PUSH2 0x67B3 JUMP JUMPDEST SWAP2 POP POP PUSH2 0x590E DUP4 DUP4 PUSH2 0x5802 JUMP JUMPDEST DUP2 MSTORE PUSH2 0x591D DUP4 PUSH1 0x20 DUP5 ADD PUSH2 0x5802 JUMP JUMPDEST PUSH1 0x20 DUP3 ADD MSTORE PUSH2 0x592F DUP4 PUSH1 0x40 DUP5 ADD PUSH2 0x5802 JUMP JUMPDEST PUSH1 0x40 DUP3 ADD MSTORE PUSH1 0x60 DUP3 ADD MLOAD PUSH1 0x60 DUP3 ADD MSTORE PUSH1 0x80 DUP3 ADD MLOAD PUSH8 0xFFFFFFFFFFFFFFFF DUP1 DUP3 GT ISZERO PUSH2 0x5959 JUMPI PUSH1 0x0 DUP1 REVERT JUMPDEST PUSH2 0x5965 DUP6 DUP4 DUP7 ADD PUSH2 0x5856 JUMP JUMPDEST PUSH1 0x80 DUP5 ADD MSTORE PUSH2 0x5977 DUP6 PUSH1 0xA0 DUP7 ADD PUSH2 0x58D6 JUMP JUMPDEST PUSH1 0xA0 DUP5 ADD MSTORE PUSH1 0xC0 DUP5 ADD MLOAD SWAP2 POP DUP1 DUP3 GT ISZERO PUSH2 0x5990 JUMPI PUSH1 0x0 DUP1 REVERT JUMPDEST POP PUSH2 0x599D DUP5 DUP3 DUP6 ADD PUSH2 0x5856 JUMP JUMPDEST PUSH1 0xC0 DUP4 ADD MSTORE POP PUSH1 0xE0 DUP3 ADD MLOAD PUSH1 0xE0 DUP3 ADD MSTORE PUSH2 0x100 DUP1 DUP4 ADD MLOAD DUP2 DUP4 ADD MSTORE POP SWAP3 SWAP2 POP POP JUMP JUMPDEST PUSH1 0x0 PUSH1 0x20 DUP3 DUP5 SUB SLT ISZERO PUSH2 0x59D0 JUMPI DUP1 DUP2 REVERT JUMPDEST DUP2 MLOAD PUSH2 0x40BC DUP2 PUSH2 0x67DA JUMP JUMPDEST PUSH1 0x0 DUP1 PUSH1 0x40 DUP4 DUP6 SUB SLT ISZERO PUSH2 0x59ED JUMPI DUP1 DUP2 REVERT JUMPDEST DUP3 MLOAD PUSH2 0x59F8 DUP2 PUSH2 0x67DA JUMP JUMPDEST PUSH1 0x20 SWAP4 SWAP1 SWAP4 ADD MLOAD SWAP3 SWAP5 SWAP3 SWAP4 POP POP POP JUMP JUMPDEST PUSH1 0x0 DUP1 PUSH1 0x0 DUP1 PUSH1 0x0 DUP1 PUSH1 0xA0 DUP8 DUP10 SUB SLT ISZERO PUSH2 0x5A20 JUMPI DUP2 DUP3 REVERT JUMPDEST DUP7 CALLDATALOAD PUSH8 0xFFFFFFFFFFFFFFFF DUP2 GT ISZERO PUSH2 0x5A36 JUMPI DUP3 DUP4 REVERT JUMPDEST PUSH2 0x5A42 DUP10 DUP3 DUP11 ADD PUSH2 0x580D JUMP JUMPDEST SWAP1 SWAP8 POP SWAP6 POP POP PUSH1 0x20 DUP8 ADD CALLDATALOAD SWAP4 POP PUSH1 0x40 DUP8 ADD CALLDATALOAD PUSH2 0x5A5D DUP2 PUSH2 0x67DA JUMP JUMPDEST SWAP6 SWAP9 SWAP5 SWAP8 POP SWAP3 SWAP6 PUSH1 0x60 DUP2 ADD CALLDATALOAD SWAP5 PUSH1 0x80 SWAP1 SWAP2 ADD CALLDATALOAD SWAP4 POP SWAP2 POP POP JUMP JUMPDEST PUSH1 0x0 PUSH1 0x20 DUP3 DUP5 SUB SLT ISZERO PUSH2 0x5A88 JUMPI DUP1 DUP2 REVERT JUMPDEST DUP2 MLOAD PUSH8 0xFFFFFFFFFFFFFFFF DUP2 GT ISZERO PUSH2 0x5A9E JUMPI DUP2 DUP3 REVERT JUMPDEST PUSH2 0x5AAA DUP5 DUP3 DUP6 ADD PUSH2 0x5856 JUMP JUMPDEST SWAP5 SWAP4 POP POP POP POP JUMP JUMPDEST PUSH1 0x0 PUSH1 0x20 DUP3 DUP5 SUB SLT ISZERO PUSH2 0x5AC3 JUMPI DUP1 DUP2 REVERT JUMPDEST DUP2 MLOAD DUP1 ISZERO ISZERO DUP2 EQ PUSH2 0x40BC JUMPI DUP2 DUP3 REVERT JUMPDEST PUSH1 0x0 PUSH1 0x20 DUP3 DUP5 SUB SLT ISZERO PUSH2 0x5AE3 JUMPI DUP1 DUP2 REVERT JUMPDEST DUP2 MLOAD PUSH8 0xFFFFFFFFFFFFFFFF DUP2 GT ISZERO PUSH2 0x5AF9 JUMPI DUP2 DUP3 REVERT JUMPDEST PUSH2 0x5AAA DUP5 DUP3 DUP6 ADD PUSH2 0x58E5 JUMP JUMPDEST PUSH1 0x0 PUSH1 0x20 DUP3 DUP5 SUB SLT ISZERO PUSH2 0x5B16 JUMPI DUP1 DUP2 REVERT JUMPDEST POP CALLDATALOAD SWAP2 SWAP1 POP JUMP JUMPDEST PUSH1 0x0 PUSH1 0x20 DUP3 DUP5 SUB SLT ISZERO PUSH2 0x5B2E JUMPI DUP1 DUP2 REVERT JUMPDEST POP MLOAD SWAP2 SWAP1 POP JUMP JUMPDEST PUSH1 0x0 DUP1 PUSH1 0x0 PUSH1 0x40 DUP5 DUP7 SUB SLT ISZERO PUSH2 0x5B49 JUMPI DUP3 DUP4 REVERT JUMPDEST DUP4 CALLDATALOAD SWAP3 POP PUSH1 0x20 DUP5 ADD CALLDATALOAD PUSH8 0xFFFFFFFFFFFFFFFF DUP2 GT ISZERO PUSH2 0x5B66 JUMPI DUP3 DUP4 REVERT JUMPDEST PUSH2 0x5B72 DUP7 DUP3 DUP8 ADD PUSH2 0x580D JUMP JUMPDEST SWAP5 SWAP8 SWAP1 SWAP7 POP SWAP4 SWAP5 POP POP POP POP JUMP JUMPDEST PUSH1 0x0 DUP1 PUSH1 0x0 DUP1 PUSH1 0x0 PUSH1 0x60 DUP7 DUP9 SUB SLT ISZERO PUSH2 0x5B96 JUMPI DUP1 DUP2 REVERT JUMPDEST DUP6 CALLDATALOAD SWAP5 POP PUSH1 0x20 DUP7 ADD CALLDATALOAD PUSH8 0xFFFFFFFFFFFFFFFF DUP1 DUP3 GT ISZERO PUSH2 0x5BB4 JUMPI DUP3 DUP4 REVERT JUMPDEST PUSH2 0x5BC0 DUP10 DUP4 DUP11 ADD PUSH2 0x580D JUMP JUMPDEST SWAP1 SWAP7 POP SWAP5 POP PUSH1 0x40 DUP9 ADD CALLDATALOAD SWAP2 POP DUP1 DUP3 GT ISZERO PUSH2 0x5BD8 JUMPI DUP3 DUP4 REVERT JUMPDEST POP PUSH2 0x5BE5 DUP9 DUP3 DUP10 ADD PUSH2 0x580D JUMP JUMPDEST SWAP7 SWAP10 SWAP6 SWAP9 POP SWAP4 SWAP7 POP SWAP3 SWAP5 SWAP4 SWAP3 POP POP POP JUMP JUMPDEST PUSH1 0x0 DUP1 PUSH1 0x40 DUP4 DUP6 SUB SLT ISZERO PUSH2 0x5C08 JUMPI DUP2 DUP3 REVERT JUMPDEST POP POP DUP1 CALLDATALOAD SWAP3 PUSH1 0x20 SWAP1 SWAP2 ADD CALLDATALOAD SWAP2 POP JUMP JUMPDEST PUSH1 0x1 PUSH1 0x1 PUSH1 0xA0 SHL SUB AND SWAP1 MSTORE JUMP JUMPDEST PUSH1 0x0 DUP3 DUP5 MSTORE PUSH32 0x7FFFFFFFFFFFFFFFFFFFFFFFFFFFFFFFFFFFFFFFFFFFFFFFFFFFFFFFFFFFFFF DUP4 GT ISZERO PUSH2 0x5C55 JUMPI DUP1 DUP2 REVERT JUMPDEST PUSH1 0x20 DUP4 MUL DUP1 DUP4 PUSH1 0x20 DUP8 ADD CALLDATACOPY SWAP4 SWAP1 SWAP4 ADD PUSH1 0x20 ADD SWAP3 DUP4 MSTORE POP SWAP1 SWAP2 SWAP1 POP JUMP JUMPDEST PUSH1 0x0 DUP2 MLOAD DUP1 DUP5 MSTORE PUSH1 0x20 DUP1 DUP6 ADD SWAP5 POP DUP1 DUP5 ADD DUP4 JUMPDEST DUP4 DUP2 LT ISZERO PUSH2 0x5CA0 JUMPI DUP2 MLOAD DUP8 MSTORE SWAP6 DUP3 ADD SWAP6 SWAP1 DUP3 ADD SWAP1 PUSH1 0x1 ADD PUSH2 0x5C84 JUMP JUMPDEST POP SWAP5 SWAP6 SWAP5 POP POP POP POP POP JUMP JUMPDEST PUSH1 0x3 DUP2 LT PUSH2 0x5CB5 JUMPI INVALID JUMPDEST SWAP1 MSTORE JUMP JUMPDEST PUSH1 0x1 PUSH1 0x1 PUSH1 0xA0 SHL SUB SWAP2 SWAP1 SWAP2 AND DUP2 MSTORE PUSH1 0x20 ADD SWAP1 JUMP JUMPDEST PUSH1 0x1 PUSH1 0x1 PUSH1 0xA0 SHL SUB SWAP4 DUP5 AND DUP2 MSTORE SWAP2 SWAP1 SWAP3 AND PUSH1 0x20 DUP3 ADD MSTORE PUSH1 0x40 DUP2 ADD SWAP2 SWAP1 SWAP2 MSTORE PUSH1 0x60 ADD SWAP1 JUMP JUMPDEST PUSH1 0x1 PUSH1 0x1 PUSH1 0xA0 SHL SUB SWAP3 SWAP1 SWAP3 AND DUP3 MSTORE PUSH1 0x20 DUP3 ADD MSTORE PUSH1 0x40 ADD SWAP1 JUMP JUMPDEST PUSH1 0x0 PUSH1 0xA0 DUP3 MSTORE PUSH2 0x5D1E PUSH1 0xA0 DUP4 ADD DUP9 DUP11 PUSH2 0x5C24 JUMP JUMPDEST SWAP1 POP DUP6 PUSH1 0x20 DUP4 ADD MSTORE PUSH1 0x1 PUSH1 0x1 PUSH1 0xA0 SHL SUB DUP6 AND PUSH1 0x40 DUP4 ADD MSTORE DUP4 PUSH1 0x60 DUP4 ADD MSTORE DUP3 PUSH1 0x80 DUP4 ADD MSTORE SWAP8 SWAP7 POP POP POP POP POP POP POP JUMP JUMPDEST PUSH1 0x0 PUSH1 0x20 DUP3 MSTORE PUSH2 0x40BC PUSH1 0x20 DUP4 ADD DUP5 PUSH2 0x5C71 JUMP JUMPDEST SWAP1 ISZERO ISZERO DUP2 MSTORE PUSH1 0x20 ADD SWAP1 JUMP JUMPDEST PUSH1 0x20 DUP1 DUP3 MSTORE PUSH1 0x2D SWAP1 DUP3 ADD MSTORE PUSH32 0x4164646974696F6E616C206475726174696F6E206D7573742062652067726561 PUSH1 0x40 DUP3 ADD MSTORE PUSH13 0x746572207468616E207A65726F PUSH1 0x98 SHL PUSH1 0x60 DUP3 ADD MSTORE PUSH1 0x80 ADD SWAP1 JUMP JUMPDEST PUSH1 0x20 DUP1 DUP3 MSTORE PUSH1 0x26 SWAP1 DUP3 ADD MSTORE PUSH32 0x4F776E65722063616E6E6F74206F66666572206F6E207468656972206F776E20 PUSH1 0x40 DUP3 ADD MSTORE PUSH6 0x37B83A34B7B7 PUSH1 0xD1 SHL PUSH1 0x60 DUP3 ADD MSTORE PUSH1 0x80 ADD SWAP1 JUMP JUMPDEST PUSH1 0x20 DUP1 DUP3 MSTORE DUP2 DUP2 ADD MSTORE PUSH32 0x596F7520616C7265616479206861766520616E20616374697665206F66666572 PUSH1 0x40 DUP3 ADD MSTORE PUSH1 0x60 ADD SWAP1 JUMP JUMPDEST PUSH1 0x20 DUP1 DUP3 MSTORE PUSH1 0x12 SWAP1 DUP3 ADD MSTORE PUSH32 0x476173206C696D69742065786365656465640000000000000000000000000000 PUSH1 0x40 DUP3 ADD MSTORE PUSH1 0x60 ADD SWAP1 JUMP JUMPDEST PUSH1 0x20 DUP1 DUP3 MSTORE PUSH1 0x1B SWAP1 DUP3 ADD MSTORE PUSH32 0x43616E6E6F742077697468647261772068696768657374206269640000000000 PUSH1 0x40 DUP3 ADD MSTORE PUSH1 0x60 ADD SWAP1 JUMP JUMPDEST PUSH1 0x20 DUP1 DUP3 MSTORE PUSH1 0x1B SWAP1 DUP3 ADD MSTORE PUSH32 0x536166654D6174683A206164646974696F6E206F766572666C6F770000000000 PUSH1 0x40 DUP3 ADD MSTORE PUSH1 0x60 ADD SWAP1 JUMP JUMPDEST PUSH1 0x20 DUP1 DUP3 MSTORE PUSH1 0x12 SWAP1 DUP3 ADD MSTORE PUSH32 0x496E76616C69642070657263656E746167650000000000000000000000000000 PUSH1 0x40 DUP3 ADD MSTORE PUSH1 0x60 ADD SWAP1 JUMP JUMPDEST PUSH1 0x20 DUP1 DUP3 MSTORE PUSH1 0xF SWAP1 DUP3 ADD MSTORE PUSH32 0x4E6F2076616C6964206F66666572730000000000000000000000000000000000 PUSH1 0x40 DUP3 ADD MSTORE PUSH1 0x60 ADD SWAP1 JUMP JUMPDEST PUSH1 0x20 DUP1 DUP3 MSTORE PUSH1 0x3A SWAP1 DUP3 ADD MSTORE PUSH32 0x496E76616C69642074696D653A204F7074696F6E2065787069726174696F6E20 PUSH1 0x40 DUP3 ADD MSTORE PUSH32 0x74696D65206D75737420626520696E2074686520667574757265000000000000 PUSH1 0x60 DUP3 ADD MSTORE PUSH1 0x80 ADD SWAP1 JUMP JUMPDEST PUSH1 0x20 DUP1 DUP3 MSTORE PUSH1 0x1E SWAP1 DUP3 ADD MSTORE PUSH32 0x536166654D6174683A207375627472616374696F6E206F766572666C6F770000 PUSH1 0x40 DUP3 ADD MSTORE PUSH1 0x60 ADD SWAP1 JUMP JUMPDEST PUSH1 0x20 DUP1 DUP3 MSTORE PUSH1 0x16 SWAP1 DUP3 ADD MSTORE PUSH32 0x4269646465722062616C616E636520746F6F206C6F7700000000000000000000 PUSH1 0x40 DUP3 ADD MSTORE PUSH1 0x60 ADD SWAP1 JUMP JUMPDEST PUSH1 0x20 DUP1 DUP3 MSTORE PUSH1 0x1A SWAP1 DUP3 ADD MSTORE PUSH32 0x536166654D6174683A206469766973696F6E206279207A65726F000000000000 PUSH1 0x40 DUP3 ADD MSTORE PUSH1 0x60 ADD SWAP1 JUMP JUMPDEST PUSH1 0x20 DUP1 DUP3 MSTORE PUSH1 0x27 SWAP1 DUP3 ADD MSTORE PUSH32 0x496E76616C696420616464726573733A20416464726573732063616E6E6F7420 PUSH1 0x40 DUP3 ADD MSTORE PUSH7 0x6265207A65726F PUSH1 0xC8 SHL PUSH1 0x60 DUP3 ADD MSTORE PUSH1 0x80 ADD SWAP1 JUMP JUMPDEST PUSH1 0x20 DUP1 DUP3 MSTORE PUSH1 0xD SWAP1 DUP3 ADD MSTORE PUSH13 0x4E6F2076616C69642062696473 PUSH1 0x98 SHL PUSH1 0x40 DUP3 ADD MSTORE PUSH1 0x60 ADD SWAP1 JUMP JUMPDEST PUSH1 0x20 DUP1 DUP3 MSTORE PUSH1 0x54 SWAP1 DUP3 ADD MSTORE PUSH32 0x496E76616C6964206672616374696F6E3A20556E697473206D75737420626520 PUSH1 0x40 DUP3 ADD MSTORE PUSH32 0x67726561746572207468616E207A65726F20616E64206C657373207468616E20 PUSH1 0x60 DUP3 ADD MSTORE PUSH32 0x6F7220657175616C20746F206D6178556E697473000000000000000000000000 PUSH1 0x80 DUP3 ADD MSTORE PUSH1 0xA0 ADD SWAP1 JUMP JUMPDEST PUSH1 0x20 DUP1 DUP3 MSTORE PUSH1 0x36 SWAP1 DUP3 ADD MSTORE PUSH32 0x556E617574686F72697A65643A204F6E6C79206F7074696F6E206F776E657220 PUSH1 0x40 DUP3 ADD MSTORE PUSH32 0x63616E2063616C6C20746869732066756E6374696F6E00000000000000000000 PUSH1 0x60 DUP3 ADD MSTORE PUSH1 0x80 ADD SWAP1 JUMP JUMPDEST PUSH1 0x20 DUP1 DUP3 MSTORE PUSH1 0x1B SWAP1 DUP3 ADD MSTORE PUSH32 0x52656D61696E696E67206269642062656C6F77206D696E696D756D0000000000 PUSH1 0x40 DUP3 ADD MSTORE PUSH1 0x60 ADD SWAP1 JUMP JUMPDEST PUSH1 0x20 DUP1 DUP3 MSTORE PUSH1 0x1E SWAP1 DUP3 ADD MSTORE PUSH32 0x596F7520616C7265616479206861766520616E20616374697665206269640000 PUSH1 0x40 DUP3 ADD MSTORE PUSH1 0x60 ADD SWAP1 JUMP JUMPDEST PUSH1 0x20 DUP1 DUP3 MSTORE PUSH1 0x1B SWAP1 DUP3 ADD MSTORE PUSH32 0x4F7074696F6E206E6F7420696E20637265617465642073746174650000000000 PUSH1 0x40 DUP3 ADD MSTORE PUSH1 0x60 ADD SWAP1 JUMP JUMPDEST PUSH1 0x20 DUP1 DUP3 MSTORE PUSH1 0x17 SWAP1 DUP3 ADD MSTORE PUSH32 0x4F6666657265722062616C616E636520746F6F206C6F77000000000000000000 PUSH1 0x40 DUP3 ADD MSTORE PUSH1 0x60 ADD SWAP1 JUMP JUMPDEST PUSH1 0x20 DUP1 DUP3 MSTORE PUSH1 0x21 SWAP1 DUP3 ADD MSTORE PUSH32 0x536166654D6174683A206D756C7469706C69636174696F6E206F766572666C6F PUSH1 0x40 DUP3 ADD MSTORE PUSH1 0x77 PUSH1 0xF8 SHL PUSH1 0x60 DUP3 ADD MSTORE PUSH1 0x80 ADD SWAP1 JUMP JUMPDEST PUSH1 0x20 DUP1 DUP3 MSTORE PUSH1 0x3E SWAP1 DUP3 ADD MSTORE PUSH32 0x496E76616C696420636F756E746572206F666665723A20436F756E746572206F PUSH1 0x40 DUP3 ADD MSTORE PUSH32 0x66666572206D7573742062652067726561746572207468616E207A65726F0000 PUSH1 0x60 DUP3 ADD MSTORE PUSH1 0x80 ADD SWAP1 JUMP JUMPDEST PUSH1 0x20 DUP1 DUP3 MSTORE PUSH1 0x24 SWAP1 DUP3 ADD MSTORE PUSH32 0x4F776E65722063616E6E6F7420626964206F6E207468656972206F776E206F70 PUSH1 0x40 DUP3 ADD MSTORE PUSH4 0x3A34B7B7 PUSH1 0xE1 SHL PUSH1 0x60 DUP3 ADD MSTORE PUSH1 0x80 ADD SWAP1 JUMP JUMPDEST PUSH1 0x20 DUP1 DUP3 MSTORE PUSH1 0x30 SWAP1 DUP3 ADD MSTORE PUSH32 0x496E76616C696420616D6F756E743A20416D6F756E74206D7573742062652067 PUSH1 0x40 DUP3 ADD MSTORE PUSH32 0x726561746572207468616E207A65726F00000000000000000000000000000000 PUSH1 0x60 DUP3 ADD MSTORE PUSH1 0x80 ADD SWAP1 JUMP JUMPDEST PUSH1 0x20 DUP1 DUP3 MSTORE PUSH1 0x1C SWAP1 DUP3 ADD MSTORE PUSH32 0x43616E6E6F74207769746864726177206C6F77657374206F6666657200000000 PUSH1 0x40 DUP3 ADD MSTORE PUSH1 0x60 ADD SWAP1 JUMP JUMPDEST PUSH1 0x20 DUP1 DUP3 MSTORE PUSH1 0x29 SWAP1 DUP3 ADD MSTORE PUSH32 0x4661696C656420746F207472616E7366657220636F6C6C61746572616C20616E PUSH1 0x40 DUP3 ADD MSTORE PUSH9 0x64207072656D69756D PUSH1 0xB8 SHL PUSH1 0x60 DUP3 ADD MSTORE PUSH1 0x80 ADD SWAP1 JUMP JUMPDEST PUSH1 0x20 DUP1 DUP3 MSTORE PUSH1 0x18 SWAP1 DUP3 ADD MSTORE PUSH32 0x4E6F2076616C69642062696420746F2077697468647261770000000000000000 PUSH1 0x40 DUP3 ADD MSTORE PUSH1 0x60 ADD SWAP1 JUMP JUMPDEST PUSH1 0x20 DUP1 DUP3 MSTORE PUSH1 0xF SWAP1 DUP3 ADD MSTORE PUSH32 0x5374616C65206269642F6F666665720000000000000000000000000000000000 PUSH1 0x40 DUP3 ADD MSTORE PUSH1 0x60 ADD SWAP1 JUMP JUMPDEST PUSH1 0x20 DUP1 DUP3 MSTORE PUSH1 0x26 SWAP1 DUP3 ADD MSTORE PUSH32 0x426964202B207072656D69756D206578636565647320636F6C6C61746572616C PUSH1 0x40 DUP3 ADD MSTORE PUSH6 0x81B1A5B5A5D PUSH1 0xD2 SHL PUSH1 0x60 DUP3 ADD MSTORE PUSH1 0x80 ADD SWAP1 JUMP JUMPDEST PUSH1 0x20 DUP1 DUP3 MSTORE PUSH1 0x15 SWAP1 DUP3 ADD MSTORE PUSH32 0x4F7074696F6E206973206E6F74206F6E2073616C650000000000000000000000 PUSH1 0x40 DUP3 ADD MSTORE PUSH1 0x60 ADD SWAP1 JUMP JUMPDEST PUSH1 0x20 DUP1 DUP3 MSTORE PUSH1 0x22 SWAP1 DUP3 ADD MSTORE PUSH32 0x4F766572666C6F7720696E2065787069726174696F6E2063616C63756C617469 PUSH1 0x40 DUP3 ADD MSTORE PUSH2 0x37B7 PUSH1 0xF1 SHL PUSH1 0x60 DUP3 ADD MSTORE PUSH1 0x80 ADD SWAP1 JUMP JUMPDEST PUSH1 0x20 DUP1 DUP3 MSTORE PUSH1 0x1E SWAP1 DUP3 ADD MSTORE PUSH32 0x4D6178696D756D206E756D626572206F66206269647320726561636865640000 PUSH1 0x40 DUP3 ADD MSTORE PUSH1 0x60 ADD SWAP1 JUMP JUMPDEST PUSH1 0x20 DUP1 DUP3 MSTORE PUSH1 0x7 SWAP1 DUP3 ADD MSTORE PUSH7 0x115E1C1A5C9959 PUSH1 0xCA SHL PUSH1 0x40 DUP3 ADD MSTORE PUSH1 0x60 ADD SWAP1 JUMP JUMPDEST PUSH1 0x20 DUP1 DUP3 MSTORE PUSH1 0x1A SWAP1 DUP3 ADD MSTORE PUSH32 0x4E6F2076616C6964206F6666657220746F207769746864726177000000000000 PUSH1 0x40 DUP3 ADD MSTORE PUSH1 0x60 ADD SWAP1 JUMP JUMPDEST PUSH1 0x0 PUSH1 0x20 DUP3 MSTORE PUSH2 0x6600 PUSH1 0x20 DUP4 ADD DUP5 MLOAD PUSH2 0x5C17 JUMP JUMPDEST PUSH1 0x20 DUP4 ADD MLOAD PUSH2 0x6612 PUSH1 0x40 DUP5 ADD DUP3 PUSH2 0x5C17 JUMP JUMPDEST POP PUSH1 0x40 DUP4 ADD MLOAD PUSH2 0x6625 PUSH1 0x60 DUP5 ADD DUP3 PUSH2 0x5C17 JUMP JUMPDEST POP PUSH1 0x60 DUP4 ADD MLOAD PUSH1 0x80 DUP4 ADD MSTORE PUSH1 0x80 DUP4 ADD MLOAD PUSH2 0x120 DUP1 PUSH1 0xA0 DUP6 ADD MSTORE PUSH2 0x664C PUSH2 0x140 DUP6 ADD DUP4 PUSH2 0x5C71 JUMP JUMPDEST PUSH1 0xA0 DUP7 ADD MLOAD SWAP3 POP PUSH2 0x6660 PUSH1 0xC0 DUP7 ADD DUP5 PUSH2 0x5CAB JUMP JUMPDEST PUSH1 0xC0 DUP7 ADD MLOAD DUP6 DUP3 SUB PUSH1 0x1F NOT ADD PUSH1 0xE0 DUP8 ADD MSTORE SWAP3 POP PUSH2 0x667D DUP2 DUP5 PUSH2 0x5C71 JUMP JUMPDEST PUSH1 0xE0 DUP8 ADD MLOAD PUSH2 0x100 DUP8 DUP2 ADD SWAP2 SWAP1 SWAP2 MSTORE SWAP1 SWAP7 ADD MLOAD SWAP2 SWAP1 SWAP5 ADD MSTORE POP SWAP2 SWAP3 SWAP2 POP POP JUMP JUMPDEST SWAP1 DUP2 MSTORE PUSH1 0x20 ADD SWAP1 JUMP JUMPDEST SWAP2 DUP3 MSTORE PUSH1 0x1 PUSH1 0x1 PUSH1 0xA0 SHL SUB AND PUSH1 0x20 DUP3 ADD MSTORE PUSH1 0x40 ADD SWAP1 JUMP JUMPDEST SWAP3 DUP4 MSTORE PUSH1 0x1 PUSH1 0x1 PUSH1 0xA0 SHL SUB SWAP2 SWAP1 SWAP2 AND PUSH1 0x20 DUP4 ADD MSTORE PUSH1 0x40 DUP3 ADD MSTORE PUSH1 0x60 ADD SWAP1 JUMP JUMPDEST PUSH1 0x0 DUP5 DUP3 MSTORE PUSH1 0x40 PUSH1 0x20 DUP4 ADD MSTORE PUSH2 0x66F6 PUSH1 0x40 DUP4 ADD DUP5 DUP7 PUSH2 0x5C24 JUMP JUMPDEST SWAP6 SWAP5 POP POP POP POP POP JUMP JUMPDEST PUSH1 0x0 DUP7 DUP3 MSTORE PUSH1 0x60 PUSH1 0x20 DUP4 ADD MSTORE PUSH2 0x6719 PUSH1 0x60 DUP4 ADD DUP7 DUP9 PUSH2 0x5C24 JUMP JUMPDEST DUP3 DUP2 SUB PUSH1 0x40 DUP5 ADD MSTORE PUSH2 0x672C DUP2 DUP6 DUP8 PUSH2 0x5C24 JUMP JUMPDEST SWAP9 SWAP8 POP POP POP POP POP POP POP POP JUMP JUMPDEST PUSH1 0x0 DUP4 DUP3 MSTORE PUSH1 0x40 PUSH1 0x20 DUP4 ADD MSTORE PUSH2 0x5AAA PUSH1 0x40 DUP4 ADD DUP5 PUSH2 0x5C71 JUMP JUMPDEST PUSH1 0x0 DUP5 DUP3 MSTORE PUSH1 0x60 PUSH1 0x20 DUP4 ADD MSTORE PUSH2 0x676A PUSH1 0x60 DUP4 ADD DUP6 PUSH2 0x5C71 JUMP JUMPDEST DUP3 DUP2 SUB PUSH1 0x40 DUP5 ADD MSTORE PUSH2 0x677C DUP2 DUP6 PUSH2 0x5C71 JUMP JUMPDEST SWAP7 SWAP6 POP POP POP POP POP POP JUMP JUMPDEST SWAP2 DUP3 MSTORE PUSH1 0x20 DUP3 ADD MSTORE PUSH1 0x40 ADD SWAP1 JUMP JUMPDEST SWAP3 DUP4 MSTORE PUSH1 0x20 DUP4 ADD SWAP2 SWAP1 SWAP2 MSTORE PUSH1 0x1 PUSH1 0x1 PUSH1 0xA0 SHL SUB AND PUSH1 0x40 DUP3 ADD MSTORE PUSH1 0x60 ADD SWAP1 JUMP JUMPDEST PUSH1 0x40 MLOAD DUP2 DUP2 ADD PUSH8 0xFFFFFFFFFFFFFFFF DUP2 GT DUP3 DUP3 LT OR ISZERO PUSH2 0x67D2 JUMPI PUSH1 0x0 DUP1 REVERT JUMPDEST PUSH1 0x40 MSTORE SWAP2 SWAP1 POP JUMP JUMPDEST PUSH1 0x1 PUSH1 0x1 PUSH1 0xA0 SHL SUB DUP2 AND DUP2 EQ PUSH2 0x67EF JUMPI PUSH1 0x0 DUP1 REVERT JUMPDEST POP JUMP INVALID LOG2 PUSH5 0x6970667358 0x22 SLT KECCAK256 NOT DUP15 0xEF DELEGATECALL PUSH2 0x8BE9 0xEA PUSH13 0xC028C2576DBE4F48BEFDF6462D SWAP12 PUSH14 0xB46D77B70070773164736F6C6343 STOP MOD ADDMOD STOP CALLER "},"methodIdentifiers":{"acceptBid(uint256)":"2b1fd58a","acceptOffer(uint256)":"c815729d","addToMarket(uint256,uint256[])":"1250b5ae","bid(uint256,uint256[])":"29feef88","buyOption(uint256)":"fba225b9","checkOnlyIfNotActive(uint256)":"0f5eb055","core()":"f2f4eb26","createOption(uint256[],uint256,address,uint256,uint256)":"87ad6f13","executeOption(uint256)":"37fb409c","extendBidDuration(uint256,uint256)":"a9c0c401","extendOfferDuration(uint256,uint256)":"ab052d4d","getConfig()":"c3f909d4","getCounterOffer(uint256)":"3e2ad42d","getExpiry(uint256)":"13c72608","getMarketListed(uint256)":"2f92e42c","getOption(uint256)":"1ce5e9a6","getPrice(uint256)":"e7572230","isListed(uint256)":"fcce4883","newBid(uint256,uint256[],uint256[])":"8f2fa71e","newResetBids(uint256)":"f2467bd7","offer(uint256,uint256[])":"9d6f563d","offerAmt(uint256,uint256)":"bfaa97e4","removeFromMarket(uint256)":"6457bd04","simpleBid(uint256,uint256)":"1a2ef3e0","withdrawBid(uint256)":"0eaaf4c8","withdrawCollateral(uint256)":"6112fe2e","withdrawOffer(uint256)":"8610f045","withdrawPartialBid(uint256,uint256)":"0084ae96"}}}}}