{"contracts/ConstellationCore.sol":{"ConstellationCore":{"abi":[{"anonymous":false,"inputs":[{"indexed":false,"internalType":"uint256","name":"id","type":"uint256"},{"indexed":true,"internalType":"address","name":"owner","type":"address"},{"indexed":false,"internalType":"address","name":"creator","type":"address"},{"indexed":false,"internalType":"address","name":"collateralToken","type":"address"},{"indexed":false,"internalType":"uint256","name":"collateralAmount","type":"uint256"},{"indexed":false,"internalType":"uint256","name":"counterOffer","type":"uint256"},{"indexed":false,"internalType":"uint256","name":"expires","type":"uint256"},{"indexed":false,"internalType":"uint256","name":"maxUnits","type":"uint256"}],"name":"OptionCreated","type":"event"},{"anonymous":false,"inputs":[{"indexed":true,"internalType":"address","name":"previousOwner","type":"address"},{"indexed":true,"internalType":"address","name":"newOwner","type":"address"}],"name":"OwnershipTransferred","type":"event"},{"inputs":[{"internalType":"uint256","name":"id","type":"uint256"},{"internalType":"uint256[]","name":"toAddPrice","type":"uint256[]"}],"name":"addToMarket","outputs":[],"stateMutability":"nonpayable","type":"function"},{"inputs":[{"internalType":"uint256","name":"id","type":"uint256"}],"name":"analyzeActivity","outputs":[],"stateMutability":"nonpayable","type":"function"},{"inputs":[],"name":"baseExpiration","outputs":[{"internalType":"uint256","name":"","type":"uint256"}],"stateMutability":"view","type":"function"},{"inputs":[],"name":"bidDuration","outputs":[{"internalType":"uint256","name":"","type":"uint256"}],"stateMutability":"view","type":"function"},{"inputs":[],"name":"bidResetFee","outputs":[{"internalType":"uint256","name":"","type":"uint256"}],"stateMutability":"view","type":"function"},{"inputs":[{"internalType":"uint256","name":"","type":"uint256"},{"internalType":"address","name":"","type":"address"}],"name":"bids","outputs":[{"internalType":"uint256","name":"","type":"uint256"}],"stateMutability":"view","type":"function"},{"inputs":[],"name":"bufferTime","outputs":[{"internalType":"uint256","name":"","type":"uint256"}],"stateMutability":"view","type":"function"},{"inputs":[{"internalType":"uint256","name":"id","type":"uint256"}],"name":"burnOption","outputs":[],"stateMutability":"nonpayable","type":"function"},{"inputs":[{"internalType":"uint256","name":"id","type":"uint256"}],"name":"buyOption","outputs":[],"stateMutability":"payable","type":"function"},{"inputs":[{"internalType":"uint256","name":"id","type":"uint256"},{"internalType":"uint256","name":"units","type":"uint256"}],"name":"buyOptionChainlink","outputs":[],"stateMutability":"payable","type":"function"},{"inputs":[{"internalType":"uint256","name":"id","type":"uint256"}],"name":"cancelOption","outputs":[],"stateMutability":"nonpayable","type":"function"},{"inputs":[],"name":"chainlinkMock","outputs":[{"internalType":"contract ChainlinkMock","name":"","type":"address"}],"stateMutability":"view","type":"function"},{"inputs":[],"name":"chainlinkOracle","outputs":[{"internalType":"address","name":"","type":"address"}],"stateMutability":"view","type":"function"},{"inputs":[{"internalType":"uint256","name":"id","type":"uint256"}],"name":"checkOnlyIfNotActive","outputs":[],"stateMutability":"view","type":"function"},{"inputs":[{"internalType":"uint256","name":"id","type":"uint256"}],"name":"checkOnlyIfNotStale","outputs":[],"stateMutability":"view","type":"function"},{"inputs":[{"internalType":"uint256","name":"id","type":"uint256"}],"name":"claimOption","outputs":[],"stateMutability":"nonpayable","type":"function"},{"inputs":[{"internalType":"uint256","name":"","type":"uint256"}],"name":"collateralLimit","outputs":[{"internalType":"uint256","name":"","type":"uint256"}],"stateMutability":"view","type":"function"},{"inputs":[{"internalType":"uint256","name":"","type":"uint256"}],"name":"collateralList","outputs":[{"internalType":"uint256","name":"totalCollateral","type":"uint256"},{"internalType":"uint256","name":"totalPremium","type":"uint256"},{"internalType":"uint256","name":"units","type":"uint256"}],"stateMutability":"view","type":"function"},{"inputs":[],"name":"config","outputs":[{"internalType":"address","name":"creator","type":"address"},{"internalType":"uint256","name":"totalOptionsNum","type":"uint256"}],"stateMutability":"view","type":"function"},{"inputs":[{"internalType":"uint256[]","name":"counterOffer","type":"uint256[]"},{"internalType":"uint256","name":"expires","type":"uint256"},{"internalType":"address","name":"collateralToken","type":"address"},{"internalType":"uint256","name":"collateralAmount","type":"uint256"},{"internalType":"uint256","name":"maxUnits","type":"uint256"}],"name":"createOption","outputs":[{"internalType":"uint256","name":"","type":"uint256"}],"stateMutability":"nonpayable","type":"function"},{"inputs":[{"internalType":"address","name":"","type":"address"},{"internalType":"uint256","name":"","type":"uint256"}],"name":"creatorList","outputs":[{"internalType":"address","name":"creator","type":"address"},{"internalType":"address","name":"owner","type":"address"},{"internalType":"address","name":"collateralToken","type":"address"},{"internalType":"uint256","name":"collateralAmount","type":"uint256"},{"internalType":"enum Constants.OptionStatus","name":"status","type":"uint8"},{"internalType":"uint256","name":"expires","type":"uint256"},{"internalType":"uint256","name":"units","type":"uint256"}],"stateMutability":"view","type":"function"},{"inputs":[],"name":"data","outputs":[{"internalType":"address","name":"creator","type":"address"},{"internalType":"address","name":"owner","type":"address"},{"internalType":"address","name":"collateralToken","type":"address"},{"internalType":"uint256","name":"collateralAmount","type":"uint256"},{"internalType":"enum Constants.OptionStatus","name":"status","type":"uint8"},{"internalType":"uint256","name":"expires","type":"uint256"},{"internalType":"uint256","name":"units","type":"uint256"}],"stateMutability":"view","type":"function"},{"inputs":[{"internalType":"address","name":"bidder","type":"address"}],"name":"decrementUserBidCount","outputs":[],"stateMutability":"nonpayable","type":"function"},{"inputs":[{"internalType":"uint256","name":"id","type":"uint256"}],"name":"executeOption","outputs":[],"stateMutability":"nonpayable","type":"function"},{"inputs":[{"internalType":"bytes32","name":"requestId","type":"bytes32"}],"name":"executeOptionWithRandomness","outputs":[],"stateMutability":"nonpayable","type":"function"},{"inputs":[],"name":"expirationIncreaseFactor","outputs":[{"internalType":"uint256","name":"","type":"uint256"}],"stateMutability":"view","type":"function"},{"inputs":[],"name":"functionExceedingGasLimit","outputs":[],"stateMutability":"view","type":"function"},{"inputs":[{"internalType":"uint256[]","name":"functionData","type":"uint256[]"}],"name":"functionWithEmptyArray","outputs":[],"stateMutability":"pure","type":"function"},{"inputs":[{"internalType":"uint256","name":"optionId","type":"uint256"}],"name":"functionWithEvent","outputs":[],"stateMutability":"nonpayable","type":"function"},{"inputs":[],"name":"functionWithOnlyCreator","outputs":[],"stateMutability":"nonpayable","type":"function"},{"inputs":[],"name":"functionWithOverflow","outputs":[],"stateMutability":"payable","type":"function"},{"inputs":[],"name":"functionWithZeroAddress","outputs":[],"stateMutability":"view","type":"function"},{"inputs":[],"name":"functionWithZeroAmount","outputs":[],"stateMutability":"payable","type":"function"},{"inputs":[{"internalType":"uint256","name":"id","type":"uint256"}],"name":"functionWithonlyOptionOwner","outputs":[],"stateMutability":"nonpayable","type":"function"},{"inputs":[],"name":"gasLimit","outputs":[{"internalType":"uint256","name":"","type":"uint256"}],"stateMutability":"view","type":"function"},{"inputs":[{"internalType":"uint256","name":"id","type":"uint256"},{"internalType":"address","name":"bidder","type":"address"}],"name":"getBid","outputs":[{"internalType":"uint256","name":"","type":"uint256"}],"stateMutability":"view","type":"function"},{"inputs":[{"internalType":"uint256","name":"id","type":"uint256"}],"name":"getCollateralLimit","outputs":[{"internalType":"uint256","name":"","type":"uint256"}],"stateMutability":"view","type":"function"},{"inputs":[],"name":"getConfig","outputs":[{"internalType":"address","name":"creator","type":"address"},{"internalType":"uint256","name":"totalOptionsNum","type":"uint256"}],"stateMutability":"view","type":"function"},{"inputs":[],"name":"getCreator","outputs":[{"internalType":"address","name":"","type":"address"}],"stateMutability":"view","type":"function"},{"inputs":[{"internalType":"uint256","name":"id","type":"uint256"}],"name":"getHighestBid","outputs":[{"internalType":"uint256","name":"","type":"uint256"}],"stateMutability":"view","type":"function"},{"inputs":[{"internalType":"uint256","name":"id","type":"uint256"}],"name":"getLowestOffer","outputs":[{"internalType":"uint256","name":"","type":"uint256"}],"stateMutability":"view","type":"function"},{"inputs":[{"internalType":"uint256","name":"id","type":"uint256"}],"name":"getMarketList","outputs":[{"components":[{"internalType":"address","name":"creator","type":"address"},{"internalType":"address","name":"owner","type":"address"},{"internalType":"address","name":"collateralToken","type":"address"},{"internalType":"uint256","name":"collateralAmount","type":"uint256"},{"internalType":"uint256[]","name":"counterOffer","type":"uint256[]"},{"internalType":"enum Constants.OptionStatus","name":"status","type":"uint8"},{"internalType":"uint256[]","name":"price","type":"uint256[]"},{"internalType":"uint256","name":"expires","type":"uint256"},{"internalType":"uint256","name":"units","type":"uint256"}],"internalType":"struct ConstellationCore.Data","name":"","type":"tuple"}],"stateMutability":"view","type":"function"},{"inputs":[],"name":"getMaxBidCount","outputs":[{"internalType":"uint256","name":"","type":"uint256"}],"stateMutability":"view","type":"function"},{"inputs":[],"name":"getMinBidAmount","outputs":[{"internalType":"uint256","name":"","type":"uint256"}],"stateMutability":"view","type":"function"},{"inputs":[{"internalType":"uint256","name":"id","type":"uint256"},{"internalType":"address","name":"offeror","type":"address"}],"name":"getOffer","outputs":[{"internalType":"uint256","name":"","type":"uint256"}],"stateMutability":"view","type":"function"},{"inputs":[{"internalType":"uint256","name":"id","type":"uint256"}],"name":"getOption","outputs":[{"internalType":"address","name":"creator","type":"address"},{"internalType":"address","name":"owner","type":"address"},{"internalType":"address","name":"collateralToken","type":"address"},{"internalType":"uint256","name":"collateralAmount","type":"uint256"},{"internalType":"uint256[]","name":"counterOffer","type":"uint256[]"},{"internalType":"enum Constants.OptionStatus","name":"status","type":"uint8"},{"internalType":"uint256[]","name":"price","type":"uint256[]"},{"internalType":"uint256","name":"expires","type":"uint256"},{"internalType":"uint256","name":"units","type":"uint256"}],"stateMutability":"view","type":"function"},{"inputs":[{"internalType":"uint256","name":"id","type":"uint256"},{"internalType":"uint256","name":"price","type":"uint256"}],"name":"getPriceToBidder","outputs":[{"internalType":"address","name":"","type":"address"}],"stateMutability":"view","type":"function"},{"inputs":[{"internalType":"uint256","name":"id","type":"uint256"},{"internalType":"uint256","name":"price","type":"uint256"}],"name":"getPriceToOfferer","outputs":[{"internalType":"address","name":"","type":"address"}],"stateMutability":"view","type":"function"},{"inputs":[],"name":"getTotalOptionsNum","outputs":[{"internalType":"uint256","name":"","type":"uint256"}],"stateMutability":"view","type":"function"},{"inputs":[{"internalType":"address","name":"user","type":"address"}],"name":"getUserBidCount","outputs":[{"internalType":"uint256","name":"","type":"uint256"}],"stateMutability":"view","type":"function"},{"inputs":[],"name":"gracePeriod","outputs":[{"internalType":"uint256","name":"","type":"uint256"}],"stateMutability":"view","type":"function"},{"inputs":[{"internalType":"address","name":"bidder","type":"address"}],"name":"incrementUserBidCount","outputs":[],"stateMutability":"nonpayable","type":"function"},{"inputs":[{"internalType":"uint256","name":"id","type":"uint256"}],"name":"isExpired","outputs":[{"internalType":"bool","name":"","type":"bool"}],"stateMutability":"view","type":"function"},{"inputs":[{"internalType":"uint256","name":"id","type":"uint256"}],"name":"isOnSale","outputs":[{"internalType":"bool","name":"","type":"bool"}],"stateMutability":"view","type":"function"},{"inputs":[{"internalType":"uint256","name":"id","type":"uint256"}],"name":"isOptionOwner","outputs":[{"internalType":"bool","name":"","type":"bool"}],"stateMutability":"view","type":"function"},{"inputs":[],"name":"isPaused","outputs":[{"internalType":"bool","name":"","type":"bool"}],"stateMutability":"view","type":"function"},{"inputs":[{"internalType":"uint256","name":"id","type":"uint256"}],"name":"isStale","outputs":[{"internalType":"bool","name":"","type":"bool"}],"stateMutability":"view","type":"function"},{"inputs":[],"name":"latestPrice","outputs":[{"internalType":"uint256","name":"","type":"uint256"}],"stateMutability":"view","type":"function"},{"inputs":[{"internalType":"uint256","name":"","type":"uint256"}],"name":"marketList","outputs":[{"internalType":"address","name":"creator","type":"address"},{"internalType":"address","name":"owner","type":"address"},{"internalType":"address","name":"collateralToken","type":"address"},{"internalType":"uint256","name":"collateralAmount","type":"uint256"},{"internalType":"enum Constants.OptionStatus","name":"status","type":"uint8"},{"internalType":"uint256","name":"expires","type":"uint256"},{"internalType":"uint256","name":"units","type":"uint256"}],"stateMutability":"view","type":"function"},{"inputs":[],"name":"maxBidsPerUser","outputs":[{"internalType":"uint256","name":"","type":"uint256"}],"stateMutability":"view","type":"function"},{"inputs":[],"name":"minBidAmount","outputs":[{"internalType":"uint256","name":"","type":"uint256"}],"stateMutability":"view","type":"function"},{"inputs":[],"name":"minBidDuration","outputs":[{"internalType":"uint256","name":"","type":"uint256"}],"stateMutability":"view","type":"function"},{"inputs":[],"name":"minOfferDuration","outputs":[{"internalType":"uint256","name":"","type":"uint256"}],"stateMutability":"view","type":"function"},{"inputs":[],"name":"offerDuration","outputs":[{"internalType":"uint256","name":"","type":"uint256"}],"stateMutability":"view","type":"function"},{"inputs":[],"name":"offerResetFee","outputs":[{"internalType":"uint256","name":"","type":"uint256"}],"stateMutability":"view","type":"function"},{"inputs":[{"internalType":"uint256","name":"","type":"uint256"},{"internalType":"address","name":"","type":"address"}],"name":"offers","outputs":[{"internalType":"uint256","name":"","type":"uint256"}],"stateMutability":"view","type":"function"},{"inputs":[{"internalType":"uint256","name":"","type":"uint256"}],"name":"optionList","outputs":[{"internalType":"address","name":"creator","type":"address"},{"internalType":"address","name":"owner","type":"address"},{"internalType":"address","name":"collateralToken","type":"address"},{"internalType":"uint256","name":"collateralAmount","type":"uint256"},{"internalType":"enum Constants.OptionStatus","name":"status","type":"uint8"},{"internalType":"uint256","name":"expires","type":"uint256"},{"internalType":"uint256","name":"units","type":"uint256"}],"stateMutability":"view","type":"function"},{"inputs":[],"name":"owner","outputs":[{"internalType":"address","name":"","type":"address"}],"stateMutability":"view","type":"function"},{"inputs":[{"internalType":"address","name":"","type":"address"},{"internalType":"uint256","name":"","type":"uint256"}],"name":"ownerList","outputs":[{"internalType":"address","name":"creator","type":"address"},{"internalType":"address","name":"owner","type":"address"},{"internalType":"address","name":"collateralToken","type":"address"},{"internalType":"uint256","name":"collateralAmount","type":"uint256"},{"internalType":"enum Constants.OptionStatus","name":"status","type":"uint8"},{"internalType":"uint256","name":"expires","type":"uint256"},{"internalType":"uint256","name":"units","type":"uint256"}],"stateMutability":"view","type":"function"},{"inputs":[],"name":"pause","outputs":[],"stateMutability":"nonpayable","type":"function"},{"inputs":[],"name":"paused","outputs":[{"internalType":"bool","name":"","type":"bool"}],"stateMutability":"view","type":"function"},{"inputs":[{"internalType":"bytes32","name":"","type":"bytes32"}],"name":"priceRequests","outputs":[{"internalType":"uint256","name":"","type":"uint256"}],"stateMutability":"view","type":"function"},{"inputs":[{"internalType":"uint256","name":"","type":"uint256"},{"internalType":"uint256","name":"","type":"uint256"}],"name":"priceToBidder","outputs":[{"internalType":"address","name":"","type":"address"}],"stateMutability":"view","type":"function"},{"inputs":[{"internalType":"uint256","name":"","type":"uint256"},{"internalType":"uint256","name":"","type":"uint256"}],"name":"priceToOfferer","outputs":[{"internalType":"address","name":"","type":"address"}],"stateMutability":"view","type":"function"},{"inputs":[{"internalType":"uint256","name":"id","type":"uint256"}],"name":"removeFromMarket","outputs":[],"stateMutability":"nonpayable","type":"function"},{"inputs":[],"name":"renounceOwnership","outputs":[],"stateMutability":"nonpayable","type":"function"},{"inputs":[{"internalType":"uint256","name":"id","type":"uint256"},{"internalType":"string","name":"denom","type":"string"},{"internalType":"uint256","name":"expirationTime","type":"uint256"}],"name":"requestPriceData","outputs":[],"stateMutability":"nonpayable","type":"function"},{"inputs":[{"internalType":"uint256","name":"id","type":"uint256"}],"name":"resetBids","outputs":[],"stateMutability":"nonpayable","type":"function"},{"inputs":[{"internalType":"uint256","name":"id","type":"uint256"}],"name":"resetOffers","outputs":[],"stateMutability":"nonpayable","type":"function"},{"inputs":[{"internalType":"uint256","name":"id","type":"uint256"},{"internalType":"uint256","name":"duration","type":"uint256"}],"name":"setBaseExpiration","outputs":[],"stateMutability":"nonpayable","type":"function"},{"inputs":[{"internalType":"uint256","name":"id","type":"uint256"},{"internalType":"address","name":"bidder","type":"address"},{"internalType":"uint256","name":"value","type":"uint256"}],"name":"setBid","outputs":[],"stateMutability":"nonpayable","type":"function"},{"inputs":[{"internalType":"uint256","name":"id","type":"uint256"},{"internalType":"uint256","name":"fee","type":"uint256"}],"name":"setBidResetFee","outputs":[],"stateMutability":"nonpayable","type":"function"},{"inputs":[{"internalType":"address","name":"_newCreator","type":"address"}],"name":"setCreator","outputs":[],"stateMutability":"nonpayable","type":"function"},{"inputs":[{"internalType":"uint256","name":"id","type":"uint256"},{"internalType":"uint256","name":"factor","type":"uint256"}],"name":"setExpirationIncreaseFactor","outputs":[],"stateMutability":"nonpayable","type":"function"},{"inputs":[{"internalType":"uint256","name":"id","type":"uint256"},{"internalType":"uint256","name":"period","type":"uint256"}],"name":"setGracePeriod","outputs":[],"stateMutability":"nonpayable","type":"function"},{"inputs":[{"internalType":"uint256","name":"id","type":"uint256"},{"internalType":"uint256","name":"maxBids","type":"uint256"}],"name":"setMaxBidsPerUser","outputs":[],"stateMutability":"nonpayable","type":"function"},{"inputs":[{"internalType":"uint256","name":"id","type":"uint256"},{"internalType":"uint256","name":"_minBidAmount","type":"uint256"}],"name":"setMinBidAmount","outputs":[],"stateMutability":"nonpayable","type":"function"},{"inputs":[{"internalType":"uint256","name":"id","type":"uint256"},{"internalType":"uint256","name":"duration","type":"uint256"}],"name":"setMinBidDuration","outputs":[],"stateMutability":"nonpayable","type":"function"},{"inputs":[{"internalType":"uint256","name":"id","type":"uint256"},{"internalType":"uint256","name":"duration","type":"uint256"}],"name":"setMinOfferDuration","outputs":[],"stateMutability":"nonpayable","type":"function"},{"inputs":[{"internalType":"uint256","name":"id","type":"uint256"},{"internalType":"address","name":"offeror","type":"address"},{"internalType":"uint256","name":"value","type":"uint256"}],"name":"setOffer","outputs":[],"stateMutability":"nonpayable","type":"function"},{"inputs":[{"internalType":"uint256","name":"id","type":"uint256"},{"internalType":"uint256","name":"fee","type":"uint256"}],"name":"setOfferResetFee","outputs":[],"stateMutability":"nonpayable","type":"function"},{"inputs":[{"internalType":"address","name":"_newOwner","type":"address"}],"name":"setOwner","outputs":[],"stateMutability":"nonpayable","type":"function"},{"inputs":[{"internalType":"uint256","name":"id","type":"uint256"},{"internalType":"uint256","name":"price","type":"uint256"},{"internalType":"address","name":"offerer","type":"address"}],"name":"setPriceToOfferer","outputs":[],"stateMutability":"nonpayable","type":"function"},{"inputs":[{"internalType":"uint256","name":"id","type":"uint256"},{"internalType":"uint256","name":"threshold","type":"uint256"}],"name":"setStaleBidRemoveThreshold","outputs":[],"stateMutability":"nonpayable","type":"function"},{"inputs":[{"internalType":"uint256","name":"id","type":"uint256"},{"internalType":"uint256","name":"buffer","type":"uint256"}],"name":"setTimeBuffer","outputs":[],"stateMutability":"nonpayable","type":"function"},{"inputs":[],"name":"staleBidRemoveThreshold","outputs":[{"internalType":"uint256","name":"","type":"uint256"}],"stateMutability":"view","type":"function"},{"inputs":[{"internalType":"uint256","name":"id","type":"uint256"},{"internalType":"address","name":"to","type":"address"}],"name":"transferOption","outputs":[],"stateMutability":"nonpayable","type":"function"},{"inputs":[{"internalType":"address","name":"newOwner","type":"address"}],"name":"transferOwnership","outputs":[],"stateMutability":"nonpayable","type":"function"},{"inputs":[],"name":"unpause","outputs":[],"stateMutability":"nonpayable","type":"function"},{"inputs":[{"internalType":"address","name":"","type":"address"}],"name":"userBidCount","outputs":[{"internalType":"uint256","name":"","type":"uint256"}],"stateMutability":"view","type":"function"},{"inputs":[{"internalType":"address","name":"","type":"address"}],"name":"userBids","outputs":[{"internalType":"uint256","name":"","type":"uint256"}],"stateMutability":"view","type":"function"},{"inputs":[{"internalType":"uint256","name":"id","type":"uint256"}],"name":"withdrawCollateral","outputs":[],"stateMutability":"nonpayable","type":"function"},{"stateMutability":"payable","type":"receive"}],"evm":{"bytecode":{"linkReferences":{},"object":"608060405262030d406028553480156200001857600080fd5b5060006200002e6001600160e01b036200007e16565b600080546001600160a01b0319166001600160a01b0383169081178255604051929350917f8be0079c531659141344cd1fd0a4f28419497f9722a3daafe3b4186f6b6457e0908290a35062000082565b3390565b616bb680620000926000396000f3fe6080604052600436106106695760003560e01c80638456cb5911610343578063c99e0ffc116101bb578063e87b2b90116100f7578063f0f2805f116100a0578063f6b45eb71161007a578063f6b45eb7146111c8578063f7c51f3c146111dd578063fba225b9146111fd578063fd6e859e14611210576106a9565b8063f0f2805f14611173578063f2fde38b14611193578063f68016b7146111b3576106a9565b8063ebdfbce5116100d1578063ebdfbce51461111e578063eeea02bf1461113e578063ef06e72c1461115e576106a9565b8063e87b2b90146110be578063ead8ccd1146110de578063eba1b60b146110fe576106a9565b8063de5490ff11610164578063e2576d4f1161013e578063e2576d4f14611061578063e522600c14611081578063e6ea8d2e146110a1578063e82af8e3146110b6576106a9565b8063de5490ff1461100c578063de6bf63514611021578063de91e75314611041576106a9565b8063d97fef0111610195578063d97fef0114610fac578063d987f81e14610fcc578063dc926afb14610fec576106a9565b8063c99e0ffc14610f57578063d88750b414610f6c578063d9548e5314610f8c576106a9565b8063a1dc29cd1161028a578063b187bd2611610233578063ba7b67031161020d578063ba7b670314610ef8578063bd62869a14610f0d578063bed40f6f14610f22578063c3f909d414610f42576106a9565b8063b187bd2614610ea3578063b5bf6b0614610eb8578063b9520ce414610ed8576106a9565b8063a87e49c511610264578063a87e49c514610e4e578063a8896f5014610e6e578063a964f81f14610e8e576106a9565b8063a1dc29cd14610e04578063a3e6ba9414610e19578063a624a1df14610e2e576106a9565b80638df7e83e116102ec57806393e1b8a7116102c657806393e1b8a714610daf578063942e15b414610dcf578063a06db7dc14610def576106a9565b80638df7e83e14610d5a5780638f28864414610d7a57806390de000b14610d9a576106a9565b806387ad6f131161031d57806387ad6f1314610d0557806387cc098f14610d255780638da5cb5b14610d45576106a9565b80638456cb5914610cbb578063851212d914610cd057806386d65d0214610cf0576106a9565b80633f4ba83a116104e15780636112fe2e1161041d57806373d4a13a116103c65780637987feba116103a05780637987feba14610c5157806381ae634d14610c6657806383534b9514610c86578063839da08b14610c9b576106a9565b806373d4a13a14610bf957806376f3615514610c0e57806379502c5514610c2e576106a9565b806367d6a23f116103f757806367d6a23f14610ba45780636ecab61e14610bc4578063715018a614610be4576106a9565b80636112fe2e14610b4f5780636457bd0414610b6f5780636511059514610b8f576106a9565b80634c685cc51161048a578063545b672711610464578063545b672714610acd578063573489a914610aed5780635c975abb14610b0d5780635dc5eafe14610b2f576106a9565b80634c685cc514610a7a5780634d726edc14610a8d57806350a8150b14610aad576106a9565b806342f3fec6116104bb57806342f3fec614610a3d5780634905075014610a455780634975178814610a65576106a9565b80633f4ba83a146109f35780633f51601814610a0857806340e5c7f314610a28576106a9565b80631ce5e9a6116105b05780633024a9121161055957806337fb409c1161053357806337fb409c146109735780633aa4be1e146109935780633b647d01146109b35780633f1ffcec146109d3576106a9565b80633024a9121461090f5780633271bd601461093e578063344ca8b414610953576106a9565b8063232b956c1161058a578063232b956c146108a75780632d6ff84c146108da578063301bbc24146108fa576106a9565b80631ce5e9a61461083d578063208ff02e14610872578063218f852e14610887576106a9565b80630f36e6cf1161061257806312a695ac116105ec57806312a695ac146107e857806313af40351461080857806317a5266c14610828576106a9565b80630f36e6cf146107885780630f5eb055146107a85780631250b5ae146107c8576106a9565b80630c6de672116106435780630c6de672146107265780630d5047c7146107465780630ee2cb1014610766576106a9565b80630a98eeb8146106ae5780630afe2cad146106d05780630c52f46d14610706576106a9565b366106a9577fa419615bc8fda4c87663805ee2a3597a6d71c1d476911d9892f340d965bc7bf1333460405161069f929190615e3d565b60405180910390a1005b600080fd5b3480156106ba57600080fd5b506106ce6106c9366004615d3d565b61123d565b005b3480156106dc57600080fd5b506106f06106eb366004615be6565b6112f7565b6040516106fd9190616a9b565b60405180910390f35b34801561071257600080fd5b506106ce610721366004615be6565b611309565b34801561073257600080fd5b506106ce610741366004615d3d565b6113b4565b34801561075257600080fd5b506106ce610761366004615b17565b611457565b34801561077257600080fd5b5061077b611478565b6040516106fd9190615e05565b34801561079457600080fd5b506106ce6107a3366004615c42565b611488565b3480156107b457600080fd5b506106ce6107c3366004615be6565b6114ae565b3480156107d457600080fd5b506106ce6107e3366004615c77565b6114f3565b3480156107f457600080fd5b506106ce610803366004615c16565b611812565b34801561081457600080fd5b506106ce610823366004615ad2565b611a75565b34801561083457600080fd5b506106f0611afc565b34801561084957600080fd5b5061085d610858366004615be6565b611b02565b6040516106fd99989796959493929190615e56565b34801561087e57600080fd5b506106f0611c29565b34801561089357600080fd5b506106ce6108a2366004615d3d565b611c2f565b3480156108b357600080fd5b506108c76108c2366004615be6565b611cd2565b6040516106fd9796959493929190615ece565b3480156108e657600080fd5b506106ce6108f5366004615d3d565b611d21565b34801561090657600080fd5b506106f0611d63565b34801561091b57600080fd5b5061092f61092a366004615be6565b611d69565b6040516106fd93929190616b47565b34801561094a57600080fd5b506106ce611d8a565b34801561095f57600080fd5b506106ce61096e366004615d3d565b611dc7565b34801561097f57600080fd5b506106ce61098e366004615be6565b611e6a565b34801561099f57600080fd5b506106f06109ae366004615be6565b612452565b3480156109bf57600080fd5b506106ce6109ce366004615d3d565b6124f7565b3480156109df57600080fd5b506106f06109ee366004615c16565b6125cc565b3480156109ff57600080fd5b506106ce6125e9565b348015610a1457600080fd5b506106ce610a23366004615ad2565b612641565b348015610a3457600080fd5b506106ce6126b3565b6106ce6126d2565b348015610a5157600080fd5b506106ce610a60366004615d3d565b6126da565b348015610a7157600080fd5b506106f061277d565b6106ce610a88366004615d3d565b612783565b348015610a9957600080fd5b506106ce610aa8366004615d5e565b612cc9565b348015610ab957600080fd5b506106f0610ac8366004615be6565b612d01565b348015610ad957600080fd5b506106f0610ae8366004615ad2565b612d13565b348015610af957600080fd5b506108c7610b08366004615be6565b612d25565b348015610b1957600080fd5b50610b22612d76565b6040516106fd9190615f17565b348015610b3b57600080fd5b506106ce610b4a366004615cc1565b612d7f565b348015610b5b57600080fd5b506106ce610b6a366004615be6565b612ef7565b348015610b7b57600080fd5b506106ce610b8a366004615be6565b613229565b348015610b9b57600080fd5b506106ce61339b565b348015610bb057600080fd5b506106ce610bbf366004615be6565b6133c5565b348015610bd057600080fd5b506106f0610bdf366004615ad2565b613530565b348015610bf057600080fd5b506106ce61354b565b348015610c0557600080fd5b506108c76135d4565b348015610c1a57600080fd5b506106ce610c29366004615d3d565b613606565b348015610c3a57600080fd5b50610c436136a9565b6040516106fd929190615e3d565b348015610c5d57600080fd5b506106f06136be565b348015610c7257600080fd5b506106ce610c81366004615be6565b6136c4565b348015610c9257600080fd5b506106f0613a5a565b348015610ca757600080fd5b5061077b610cb6366004615d3d565b613a60565b348015610cc757600080fd5b506106ce613a8a565b348015610cdc57600080fd5b506106f0610ceb366004615ad2565b613ae6565b348015610cfc57600080fd5b506106f0613af8565b348015610d1157600080fd5b506106f0610d20366004615b57565b613afe565b348015610d3157600080fd5b506106ce610d40366004615ad2565b613bc8565b348015610d5157600080fd5b5061077b613be9565b348015610d6657600080fd5b50610b22610d75366004615be6565b613bf8565b348015610d8657600080fd5b506106f0610d95366004615be6565b613c1a565b348015610da657600080fd5b506106f0613cb6565b348015610dbb57600080fd5b506106ce610dca366004615ad2565b613cbc565b348015610ddb57600080fd5b506106ce610dea366004615d3d565b613cdc565b348015610dfb57600080fd5b506106f0613d7f565b348015610e1057600080fd5b506106f0613d85565b348015610e2557600080fd5b506106f0613d8b565b348015610e3a57600080fd5b50610b22610e49366004615be6565b613d91565b348015610e5a57600080fd5b506106ce610e69366004615be6565b613da9565b348015610e7a57600080fd5b5061077b610e89366004615d3d565b613f7c565b348015610e9a57600080fd5b5061077b613fa2565b348015610eaf57600080fd5b50610b22613fb6565b348015610ec457600080fd5b506106ce610ed3366004615be6565b6114f0565b348015610ee457600080fd5b506106f0610ef3366004615c16565b613fbf565b348015610f0457600080fd5b506106f0613fe7565b348015610f1957600080fd5b506106f0613fed565b348015610f2e57600080fd5b506106f0610f3d366004615be6565b613ff3565b348015610f4e57600080fd5b50610c43614005565b348015610f6357600080fd5b506106f0614019565b348015610f7857600080fd5b5061077b610f87366004615d3d565b61401f565b348015610f9857600080fd5b50610b22610fa7366004615be6565b614045565b348015610fb857600080fd5b506106ce610fc7366004615c42565b61405c565b348015610fd857600080fd5b506106ce610fe7366004615be6565b614082565b348015610ff857600080fd5b506106ce611007366004615be6565b6141ed565b34801561101857600080fd5b506106f0614642565b34801561102d57600080fd5b506106ce61103c366004615be6565b614648565b34801561104d57600080fd5b506106ce61105c366004615be6565b61482a565b34801561106d57600080fd5b506106ce61107c366004615d3d565b61485a565b34801561108d57600080fd5b506106ce61109c366004615d3d565b6148fd565b3480156110ad57600080fd5b506106f06149a0565b6106ce6149a6565b3480156110ca57600080fd5b506108c76110d9366004615aed565b6149c6565b3480156110ea57600080fd5b5061077b6110f9366004615d3d565b614a20565b34801561110a57600080fd5b506106f0611119366004615c16565b614a46565b34801561112a57600080fd5b506106f0611139366004615c16565b614a6e565b34801561114a57600080fd5b506108c7611159366004615aed565b614a8b565b34801561116a57600080fd5b5061077b614ae2565b34801561117f57600080fd5b50610b2261118e366004615be6565b614af1565b34801561119f57600080fd5b506106ce6111ae366004615ad2565b614b1c565b3480156111bf57600080fd5b506106f0614bdc565b3480156111d457600080fd5b506106f0614be2565b3480156111e957600080fd5b506106ce6111f8366004615be6565b614be8565b6106ce61120b366004615be6565b614c23565b34801561121c57600080fd5b5061123061122b366004615be6565b6150d5565b6040516106fd91906169ea565b60008281526003602052604090206001015482906001600160a01b031633146112815760405162461bcd60e51b8152600401611278906164cb565b60405180910390fd5b6000838152600360205260409020600701544281116112b25760405162461bcd60e51b815260040161127890616244565b82602381905550837fc7f388abb2270b17eb176e822b294649a0309ac03d013b680c7d4a20c185e67d846040516112e99190616a9b565b60405180910390a250505050565b600c6020526000908152604090205481565b6000818152600360205260409020600701548190421061133b5760405162461bcd60e51b8152600401611278906167e8565b600061134683615218565b90506000611353846152b3565b90506000808311806113655750600082115b9050847f96b57ff66beeac6e8fd6b33b23f7d11be509931d1cd059f04036989848c6efe682611395576000611398565b60015b6040516113a59190616b5d565b60405180910390a25050505050565b60008281526003602052604090206001015482906001600160a01b031633146113ef5760405162461bcd60e51b8152600401611278906164cb565b6000838152600360205260409020600701544281116114205760405162461bcd60e51b815260040161127890616244565b82602181905550837fbe95b51fb29523640d8d589c9eba58d8b9b3100df6b28caeb5549273622dbb1f846040516112e99190616a9b565b806114745760405162461bcd60e51b815260040161127890615f6f565b5050565b6001546001600160a01b03165b90565b60009283526009602090815260408085206001600160a01b039094168552929052912055565b601c546000828152600360205260409020600701546114d29163ffffffff61534e16565b42106114f05760405162461bcd60e51b815260040161127890616754565b50565b60008381526003602052604090206001015483906001600160a01b0316331461152e5760405162461bcd60e51b8152600401611278906164cb565b60008481526003602052604090206007015442811161155f5760405162461bcd60e51b815260040161127890616244565b84600160008281526003602052604090206005015460ff16600281111561158257fe5b14156115a05760405162461bcd60e51b815260040161127890616131565b600086815260036020526040902060070154869042106115d25760405162461bcd60e51b8152600401611278906167e8565b8585808060200260200160405190810160405280939291908181526020018383602002808284376000920191909152505082511515915061162790505760405162461bcd60e51b815260040161127890615fcb565b62030d405a116116495760405162461bcd60e51b81526004016112789061607d565b600088815260036020526040902060058101805460ff19166001179055611674906006018888615908565b5060608667ffffffffffffffff8111801561168e57600080fd5b506040519080825280602002602001820160405280156116b8578160200160208202803683370190505b50905060005b878110156116f8578888828181106116d257fe5b905060200201358282815181106116e557fe5b60209081029190910101526001016116be565b5060008981526003602081815260408084206006909252909220825481546001600160a01b039182166001600160a01b03199182161783556001808601549084018054918416918316919091179055600280860154908401805491909316911617905582820154918101919091556004808301805461177a9284019190615953565b50600582810154908201805460ff9092169160ff1916600183600281111561179e57fe5b0217905550600682810180546117b79284019190615953565b50600782810154908201556008918201549101556040517f9d4b6dff4c87b3afacb569dc9e0e4d482bbc9d40b0f7ef1a71c79339db3c70ff906117ff908b9033908590616b16565b60405180910390a1505050505050505050565b60008281526003602052604090206001015482906001600160a01b0316331461184d5760405162461bcd60e51b8152600401611278906164cb565b60008381526003602052604090206007015442811161187e5760405162461bcd60e51b815260040161127890616244565b826001600160a01b0381166118a55760405162461bcd60e51b81526004016112789061630f565b62030d405a116118c75760405162461bcd60e51b81526004016112789061607d565b336000908152600560209081526040808320888452909152812080546001600160a01b03199081168255600182018054821690556002820180549091169055600381018290559061191b6004830182615993565b60058201805460ff19169055611935600683016000615993565b506000600782018190556008909101819055858152600360208181526040808420600180820180546001600160a01b03808d166001600160a01b0319928316811784558952600587528589208e8a5290965293909620825481548516908616178155955490860180548416918516919091179055600280820154908601805490931693169290921790558082015491830191909155600480820180549293926119e19284019190615953565b50600582810154908201805460ff9092169160ff19166001836002811115611a0557fe5b021790555060068281018054611a1e9284019190615953565b50600782810154908201556008918201549101556040517f570b9297ef9982646a5b51a09a56e2f1aad24a61c8daf045803c4569ddd2af1e90611a6690879033908890616abb565b60405180910390a15050505050565b611a7d61537a565b6001600160a01b0316611a8e613be9565b6001600160a01b031614611ab45760405162461bcd60e51b8152600401611278906166e8565b6001600160a01b038116611ada5760405162461bcd60e51b8152600401611278906165cb565b601180546001600160a01b0319166001600160a01b0392909216919091179055565b60025490565b6000818152600360208181526040808420805460018201546002830154958301546005840154600785015460088601546004870180548951818c0281018c01909a52808a528c9b8c9b8c9b60609b8d9b8d9b8d9b8c9b939a6001600160a01b039384169a92841699979093169790969560ff9094169460068c019490918791830182828015611bb057602002820191906000526020600020905b815481526020019060010190808311611b9c575b5050505050945082805480602002602001604051908101604052809291908181526020018280548015611c0257602002820191906000526020600020905b815481526020019060010190808311611bee575b50505050509250995099509950995099509950995099509950509193959799909294969850565b60235490565b60008281526003602052604090206001015482906001600160a01b03163314611c6a5760405162461bcd60e51b8152600401611278906164cb565b600083815260036020526040902060070154428111611c9b5760405162461bcd60e51b815260040161127890616244565b82602081905550837fd426195495073ec4a9d9805a3fa80f425c189f701de7c9426266b8c965acce31846040516112e99190616a9b565b60066020526000908152604090208054600182015460028301546003840154600585015460078601546008909601546001600160a01b03958616969486169590931693919260ff909116919087565b60008281526003602052604090206001015482906001600160a01b03163314611d5c5760405162461bcd60e51b8152600401611278906164cb565b50601e5550565b60225481565b60076020526000908152604090208054600182015460029092015490919083565b6001805b620186a08111611da45790810290600101611d8e565b50620186a05a116114f05760405162461bcd60e51b81526004016112789061607d565b60008281526003602052604090206001015482906001600160a01b03163314611e025760405162461bcd60e51b8152600401611278906164cb565b600083815260036020526040902060070154428111611e335760405162461bcd60e51b815260040161127890616244565b82601d81905550837fe16a6dd3c7a1a4a15a5d0e545e58617ec3b966456c5b63c9b2615cd01d677438846040516112e99190616a9b565b600081815260036020526040902060070154428111611e9b5760405162461bcd60e51b815260040161127890616244565b60008281526003602052604090206007015482904210611ecd5760405162461bcd60e51b8152600401611278906167e8565b60008381526003602052604090206007015483904210611eff5760405162461bcd60e51b81526004016112789061688b565b62030d405a11611f215760405162461bcd60e51b81526004016112789061607d565b600160008581526003602052604090206005015460ff166002811115611f4357fe5b14611f605760405162461bcd60e51b815260040161127890616639565b600060265411611f825760405162461bcd60e51b815260040161127890616528565b600080805b600087815260036020526040902060060154811015611fe65760008781526003602052604090206006018054611fdc919083908110611fc257fe5b90600052602060002001548461534e90919063ffffffff16565b9250600101611f87565b5060005b60008781526003602052604090206004015481101561207557600087815260036020526040902060088101546004909101805461206b9261205e92909161205291908690811061203657fe5b906000526020600020015460265461537e90919063ffffffff16565b9063ffffffff6153b816565b839063ffffffff61534e16565b9150600101611fea565b50818110156120965760405162461bcd60e51b8152600401611278906163da565b600086815260036020819052604091829020600281015460018201549190920154925163a9059cbb60e01b81526001600160a01b039283169363a9059cbb936120e3931691600401615e3d565b602060405180830381600087803b1580156120fd57600080fd5b505af1158015612111573d6000803e3d6000fd5b505050506040513d601f19601f820116820180604052508101906121359190615bc6565b6121515760405162461bcd60e51b815260040161127890616397565b60008681526003602090815260408083206002810154905460079093529281902060010154905163a9059cbb60e01b81526001600160a01b039384169363a9059cbb936121a393911691600401615e3d565b602060405180830381600087803b1580156121bd57600080fd5b505af11580156121d1573d6000803e3d6000fd5b505050506040513d601f19601f820116820180604052508101906121f59190615bc6565b6122115760405162461bcd60e51b815260040161127890616046565b336000908152600560209081526040808320898452909152812080546001600160a01b0319908116825560018201805482169055600282018054909116905560038101829055906122656004830182615993565b60058201805460ff1916905561227f600683016000615993565b5060006007820181905560089091018190553381526004602081815260408084208a8552909152822080546001600160a01b031990811682556001820180548216905560028201805490911690556003810183905591906122e290830182615993565b60058201805460ff191690556122fc600683016000615993565b506000600782018190556008909101819055868152600360208190526040822080546001600160a01b03199081168255600182018054821690556002820180549091169055908101829055906123556004830182615993565b60058201805460ff1916905561236f600683016000615993565b506000600782810182905560089092018190558781526020918252604080822082815560018082018490556002918201849055600690945290822080546001600160a01b031990811682559381018054851690559081018054909316909255600382018190556123e26004830182615993565b60058201805460ff191690556123fc600683016000615993565b5060006007820181905560089091015560405133907f72fc7139226e4349b3cf7baa2fd3aca128897923fea219a0d0d13ccec626f8319061244290899085908790616b47565b60405180910390a2505050505050565b6000600019815b6000848152600360205260409020600601548110156124f0576000848152600f602090815260408083206003909252822060060180548391908590811061249c57fe5b60009182526020808320909101548352828101939093526040918201812054888252600984528282206001600160a01b0390911680835293522054909150838110156124e6578093505b5050600101612459565b5092915050565b60008281526003602052604090206001015482906001600160a01b031633146125325760405162461bcd60e51b8152600401611278906164cb565b6000838152600360205260409020600701544281116125635760405162461bcd60e51b815260040161127890616244565b600084815260036020526040902060070154612585908463ffffffff61534e16565b60008581526003602052604090819020600701919091555184907f73693f148afc35383d1bc2d56ef315dfc19a9b9643aa2f3c1b5924cbab1ad08e906112e9908690616a9b565b600860209081526000928352604080842090915290825290205481565b6001546001600160a01b031633146126135760405162461bcd60e51b81526004016112789061698d565b60295460ff166126355760405162461bcd60e51b815260040161127890616602565b6029805460ff19169055565b6001546001600160a01b0316331461266b5760405162461bcd60e51b81526004016112789061698d565b6001600160a01b0381166126915760405162461bcd60e51b8152600401611278906161d6565b601080546001600160a01b0319166001600160a01b0392909216919091179055565b336126d05760405162461bcd60e51b81526004016112789061600f565b565b6000196114f0565b60008281526003602052604090206001015482906001600160a01b031633146127155760405162461bcd60e51b8152600401611278906164cb565b6000838152600360205260409020600701544281116127465760405162461bcd60e51b815260040161127890616244565b82602581905550837f739c545831ee1c004c8dc63dd2a25d90c684b3ad9b4e2b2a913d086cd8f95dde846040516112e99190616a9b565b601e5481565b34600081116127a45760405162461bcd60e51b81526004016112789061678b565b6000838152600360205260409020600701544281116127d55760405162461bcd60e51b815260040161127890616244565b62030d405a116127f75760405162461bcd60e51b81526004016112789061607d565b600084815260036020526040902060070154849042106128295760405162461bcd60e51b8152600401611278906167e8565b6000858152600760205260409020600201548490811580159061284c5750808211155b6128685760405162461bcd60e51b815260040161127890616411565b6000878152600760205260409020600201546026546128929190612052908963ffffffff61537e16565b34146128b05760405162461bcd60e51b81526004016112789061671d565b6000805b60008981526003602052604090206006015481101561291357600089815260036020526040902060060180546129099190839081106128ef57fe5b90600052602060002001548361534e90919063ffffffff16565b91506001016128b4565b508034146129335760405162461bcd60e51b81526004016112789061620d565b600088815260036020819052604091829020600281015460018201549190920154925163a9059cbb60e01b81526001600160a01b039283169363a9059cbb93612980931691600401615e3d565b602060405180830381600087803b15801561299a57600080fd5b505af11580156129ae573d6000803e3d6000fd5b505050506040513d601f19601f820116820180604052508101906129d29190615bc6565b6129ee5760405162461bcd60e51b815260040161127890616397565b60008881526003602090815260408083206002810154905460079093529281902060010154905163a9059cbb60e01b81526001600160a01b039384169363a9059cbb93612a4093911691600401615e3d565b602060405180830381600087803b158015612a5a57600080fd5b505af1158015612a6e573d6000803e3d6000fd5b505050506040513d601f19601f82011682018060405250810190612a929190615bc6565b612aae5760405162461bcd60e51b815260040161127890616046565b3360009081526005602090815260408083208b8452909152812080546001600160a01b031990811682556001820180548216905560028201805490911690556003810182905590612b026004830182615993565b60058201805460ff19169055612b1c600683016000615993565b506000600782018190556008909101819055888152600360208181526040808420338552600583528185208d8652909252909220825481546001600160a01b039182166001600160a01b031991821617835560018086015490840180549184169183169190911790556002808601549084018054919093169116179055828201549181019190915560048083018054612bb89284019190615953565b50600582810154908201805460ff9092169160ff19166001836002811115612bdc57fe5b021790555060068281018054612bf59284019190615953565b506007828101549082015560089182015491015560008881526003602052604090206001810180546001600160a01b03191633179055600501805460ff1916905534811015612c7c57336108fc612c52348463ffffffff6153ea16565b6040518115909202916000818181858888f19350505050158015612c7a573d6000803e3d6000fd5b505b336001600160a01b03167f23ad4783d95ee2d3730fae4843757e102bd28a58ef48e2c6f8fe93aef120f5fb8983604051612cb7929190615f22565b60405180910390a25050505050505050565b6000928352600f60209081526040808520938552929052912080546001600160a01b0319166001600160a01b03909216919091179055565b6000908152600c602052604090205490565b600d6020526000908152604090205481565b600360208190526000918252604090912080546001820154600283015493830154600584015460078501546008909501546001600160a01b0394851696938516959390941693919260ff9091169187565b60295460ff1681565b60008481526003602052604090206001015484906001600160a01b03163314612dba5760405162461bcd60e51b8152600401611278906164cb565b6027546001600160a01b0316612de25760405162461bcd60e51b81526004016112789061681f565b6027546040516000916001600160a01b0316906310835dbb90612e0d90899089908990602001615deb565b60405160208183030381529060405280519060200120670de0b6b3a76400006040518363ffffffff1660e01b8152600401612e49929190615f22565b602060405180830381600087803b158015612e6357600080fd5b505af1158015612e77573d6000803e3d6000fd5b505050506040513d601f19601f82011682018060405250810190612e9b9190615bfe565b9050612ead428463ffffffff61534e16565b6000828152600a602052604090819020919091555186907f45ca523dc8cc2788a2e6538f8b62e73851b5025a306ff66e3e587b081ca3153090612442908890889088908790615f30565b60008181526003602052604090206001015481906001600160a01b03163314612f325760405162461bcd60e51b8152600401611278906164cb565b60008281526003602052604090206007015482904210612f645760405162461bcd60e51b8152600401611278906167e8565b60008381526003602052604081206005015460ff166002811115612f8457fe5b14612fa15760405162461bcd60e51b8152600401611278906168f9565b600083815260036020819052604091829020600281015460018201549190920154925163a9059cbb60e01b81526001600160a01b039283169363a9059cbb93612fee931691600401615e3d565b602060405180830381600087803b15801561300857600080fd5b505af115801561301c573d6000803e3d6000fd5b505050506040513d601f19601f820116820180604052508101906130409190615bc6565b61305c5760405162461bcd60e51b815260040161127890616397565b336000908152600560209081526040808320868452909152812080546001600160a01b0319908116825560018201805482169055600282018054909116905560038101829055906130b06004830182615993565b60058201805460ff191690556130ca600683016000615993565b506000600782018190556008909101819055338152600460208181526040808420878552909152822080546001600160a01b0319908116825560018201805482169055600282018054909116905560038101839055919061312d90830182615993565b60058201805460ff19169055613147600683016000615993565b506000600782018190556008909101819055838152600360208190526040822080546001600160a01b03199081168255600182018054821690556002820180549091169055908101829055906131a06004830182615993565b60058201805460ff191690556131ba600683016000615993565b50600060078281018290556008909201819055848152602091909152604080822082815560018101839055600201919091555133907f2d428178e65c47bfb7d75b43e57e93851220995d8887d6826253c18d9b9fc99f9061321c908690616a9b565b60405180910390a2505050565b60008181526003602052604090206001015481906001600160a01b031633146132645760405162461bcd60e51b8152600401611278906164cb565b600082815260036020526040902060070154829042106132965760405162461bcd60e51b8152600401611278906167e8565b600160008481526003602052604090206005015460ff1660028111156132b857fe5b146132d55760405162461bcd60e51b815260040161127890616639565b6000838152600360208181526040808420600501805460ff191690556006909152822080546001600160a01b03199081168255600182018054821690556002820180549091169055908101829055906133316004830182615993565b60058201805460ff1916905561334b600683016000615993565b6007820160009055600882016000905550507f05226439292b7408157c7fb8a72a8ef4696205d78e3b985cee36978e1200f2df833360405161338e929190616aa4565b60405180910390a1505050565b6001546001600160a01b031633146126d05760405162461bcd60e51b81526004016112789061698d565b60008181526003602052604090206001015481906001600160a01b031633146134005760405162461bcd60e51b8152600401611278906164cb565b600082815260036020526040902060070154829042106134325760405162461bcd60e51b8152600401611278906167e8565b601f546000848152600360205260409020600701546134569163ffffffff61534e16565b42116134745760405162461bcd60e51b815260040161127890616854565b60005b6000848152600360205260409020600601548110156134ff576000848152600f60209081526040808320600390925282206006018054839190859081106134ba57fe5b60009182526020808320909101548352828101939093526040918201812054888252600984528282206001600160a01b03909116825290925281205550600101613477565b5060405183907f568aeda352153539d9813524dc5d57d37f459a2966a4092d7c00b12e8f23420d90600090a2505050565b6001600160a01b03166000908152600d602052604090205490565b61355361537a565b6001600160a01b0316613564613be9565b6001600160a01b03161461358a5760405162461bcd60e51b8152600401611278906166e8565b600080546040516001600160a01b03909116907f8be0079c531659141344cd1fd0a4f28419497f9722a3daafe3b4186f6b6457e0908390a3600080546001600160a01b0319169055565b6010546011546012546013546015546017546018546001600160a01b0396871696958616959094169360ff9092169187565b60008281526003602052604090206001015482906001600160a01b031633146136415760405162461bcd60e51b8152600401611278906164cb565b6000838152600360205260409020600701544281116136725760405162461bcd60e51b815260040161127890616244565b82602481905550837f7bfac94b8f45c93697445d23eac75f25203c65fe9d9455b378ec00a954678459846040516112e99190616a9b565b6001546002546001600160a01b039091169082565b60245481565b60008181526003602052604090206001015481906001600160a01b031633146136ff5760405162461bcd60e51b8152600401611278906164cb565b600082815260036020526040902060070154829042106137315760405162461bcd60e51b8152600401611278906167e8565b600160008481526003602052604090206005015460ff16600281111561375357fe5b14156137715760405162461bcd60e51b815260040161127890615f96565b600083815260036020819052604091829020600281015460018201549190920154925163a9059cbb60e01b81526001600160a01b039283169363a9059cbb936137be931691600401615e3d565b602060405180830381600087803b1580156137d857600080fd5b505af11580156137ec573d6000803e3d6000fd5b505050506040513d601f19601f820116820180604052508101906138109190615bc6565b61382c5760405162461bcd60e51b815260040161127890616397565b336000908152600560209081526040808320868452909152812080546001600160a01b0319908116825560018201805482169055600282018054909116905560038101829055906138806004830182615993565b60058201805460ff1916905561389a600683016000615993565b506000600782018190556008909101819055338152600460208181526040808420878552909152822080546001600160a01b031990811682556001820180548216905560028201805490911690556003810183905591906138fd90830182615993565b60058201805460ff19169055613917600683016000615993565b506000600782018190556008909101819055838152600360208190526040822080546001600160a01b03199081168255600182018054821690556002820180549091169055908101829055906139706004830182615993565b60058201805460ff1916905561398a600683016000615993565b506000600782810182905560089092018190558481526020918252604080822082815560018082018490556002918201849055600690945290822080546001600160a01b031990811682559381018054851690559081018054909316909255600382018190556139fd6004830182615993565b60058201805460ff19169055613a17600683016000615993565b6007820160009055600882016000905550507f5b5bdde384b3291bb09948b7b8e2fe72e964ad6835353f33165701f8d8b6311c833360405161338e929190616aa4565b60255481565b6000828152600e602090815260408083208484529091529020546001600160a01b03165b92915050565b6001546001600160a01b03163314613ab45760405162461bcd60e51b81526004016112789061698d565b60295460ff1615613ad75760405162461bcd60e51b815260040161127890616956565b6029805460ff19166001179055565b600b6020526000908152604090205481565b601d5481565b6000613b0b858585615412565b601954613b1f90869063ffffffff61534e16565b94506000613b658888808060200260200160405190810160405280939291908181526020018383602002808284376000920191909152508a925089915088905087615460565b90507faa32d33a6d7b7d1531fc41b3dfbc84e08fddba5db1ed6b86bd4c8e39d8efcdfe813387878c8c6000818110613b9957fe5b905060200201358b89604051613bb59796959493929190616ada565b60405180910390a1979650505050505050565b6001600160a01b03166000908152600d602052604090208054600019019055565b6000546001600160a01b031690565b6000818152600360205260409020600101546001600160a01b03163314919050565b600080805b6000848152600360205260409020600601548110156124f0576000848152600e6020908152604080832060039092528220600601805483919085908110613c6257fe5b60009182526020808320909101548352828101939093526040918201812054888252600884528282206001600160a01b039091168083529352205490915083811115613cac578093505b5050600101613c1f565b60205481565b6001600160a01b03166000908152600d6020526040902080546001019055565b60008281526003602052604090206001015482906001600160a01b03163314613d175760405162461bcd60e51b8152600401611278906164cb565b600083815260036020526040902060070154428111613d485760405162461bcd60e51b815260040161127890616244565b82601f81905550837ff5b670dfc12583e5b0164fca9fbbd0e6997013ca4b1a92457f1d3aead8dfd435846040516112e99190616a9b565b601c5481565b60215481565b60265481565b60009081526003602052604090206007015442101590565b6000602960019054906101000a90046001600160a01b03166001600160a01b03166316fe73ec6040518163ffffffff1660e01b815260040160206040518083038186803b158015613df957600080fd5b505afa158015613e0d573d6000803e3d6000fd5b505050506040513d601f19601f82011682018060405250810190613e319190615bfe565b11613e4e5760405162461bcd60e51b815260040161127890616494565b6000602960019054906101000a90046001600160a01b03166001600160a01b03166316fe73ec6040518163ffffffff1660e01b815260040160206040518083038186803b158015613e9e57600080fd5b505afa158015613eb2573d6000803e3d6000fd5b505050506040513d601f19601f82011682018060405250810190613ed69190615bfe565b9050817f1265ed0ee2224724954858bc12b94d9ec15e1a0f2f4b3aa8e2bba7079459020882604051613f089190616a9b565b60405180910390a2602960019054906101000a90046001600160a01b03166001600160a01b031663f9e19fa56040518163ffffffff1660e01b8152600401600060405180830381600087803b158015613f6057600080fd5b505af1158015613f74573d6000803e3d6000fd5b505050505050565b600f6020908152600092835260408084209091529082529020546001600160a01b031681565b60295461010090046001600160a01b031681565b60295460ff1690565b60009182526009602090815260408084206001600160a01b0393909316845291905290205490565b60195481565b601b5481565b600a6020526000908152604090205481565b6001546002546001600160a01b0390911691565b601f5481565b6000918252600f602090815260408084209284529190529020546001600160a01b031690565b600090815260036020526040902060070154421190565b60009283526008602090815260408085206001600160a01b039094168552929052912055565b60008181526003602052604090206001015481906001600160a01b031633146140bd5760405162461bcd60e51b8152600401611278906164cb565b600082815260036020526040902060070154829042106140ef5760405162461bcd60e51b8152600401611278906167e8565b601a546000848152600360205260409020600701546141139163ffffffff6153ea16565b42116141315760405162461bcd60e51b8152600401611278906168c2565b60005b6000848152600360205260409020600601548110156141bc576000848152600e602090815260408083206003909252822060060180548391908590811061417757fe5b60009182526020808320909101548352828101939093526040918201812054888252600884528282206001600160a01b03909116825290925281205550600101614134565b5060405183907f7802cd593f5c917333e3eaa52e735224ba7d2af514a30cc7b8cb8b768b49cdbf90600090a2505050565b60008181526003602052604090206001015481906001600160a01b031633146142285760405162461bcd60e51b8152600401611278906164cb565b6000828152600360205260409020600701548290421061425a5760405162461bcd60e51b8152600401611278906167e8565b600160008481526003602052604090206005015460ff16600281111561427c57fe5b141561429a5760405162461bcd60e51b815260040161127890616356565b600083815260036020819052604091829020600281015460018201549190920154925163a9059cbb60e01b81526001600160a01b039283169363a9059cbb936142e7931691600401615e3d565b602060405180830381600087803b15801561430157600080fd5b505af1158015614315573d6000803e3d6000fd5b505050506040513d601f19601f820116820180604052508101906143399190615bc6565b6143555760405162461bcd60e51b815260040161127890616397565b60008381526003602090815260408083206002810154905460079093529281902060010154905163a9059cbb60e01b81526001600160a01b039384169363a9059cbb936143a793911691600401615e3d565b602060405180830381600087803b1580156143c157600080fd5b505af11580156143d5573d6000803e3d6000fd5b505050506040513d601f19601f820116820180604052508101906143f99190615bc6565b6144155760405162461bcd60e51b815260040161127890616046565b336000908152600560209081526040808320868452909152812080546001600160a01b0319908116825560018201805482169055600282018054909116905560038101829055906144696004830182615993565b60058201805460ff19169055614483600683016000615993565b506000600782018190556008909101819055338152600460208181526040808420878552909152822080546001600160a01b031990811682556001820180548216905560028201805490911690556003810183905591906144e690830182615993565b60058201805460ff19169055614500600683016000615993565b506000600782018190556008909101819055838152600360208190526040822080546001600160a01b03199081168255600182018054821690556002820180549091169055908101829055906145596004830182615993565b60058201805460ff19169055614573600683016000615993565b506000600782810182905560089092018190558481526020918252604080822082815560018082018490556002918201849055600690945290822080546001600160a01b031990811682559381018054851690559081018054909316909255600382018190556145e66004830182615993565b60058201805460ff19169055614600600683016000615993565b5060006007820181905560089091015560405133907f99345787a609d8a93a34ac5c7c9c0a4b1691a4e49b40518f6d6e193c286432aa9061321c908690616a9b565b601e5490565b60008181526003602052604090206001015481906001600160a01b031633146146835760405162461bcd60e51b8152600401611278906164cb565b600082815260036020526040902060070154829042106146b55760405162461bcd60e51b8152600401611278906167e8565b600160008481526003602052604090206005015460ff1660028111156146d757fe5b146146f45760405162461bcd60e51b815260040161127890616639565b336000908152600560209081526040808320868452909152812080546001600160a01b0319908116825560018201805482169055600282018054909116905560038101829055906147486004830182615993565b60058201805460ff19169055614762600683016000615993565b506000600782018190556008909101819055838152600360208181526040808420600501805460ff191690556006909152822080546001600160a01b03199081168255600182018054821690556002820180549091169055908101829055906147ce6004830182615993565b60058201805460ff191690556147e8600683016000615993565b5060006007820181905560089091015560405133907f89a43fd47467ad079e1a3e484f558948a678189908ca1b2055c4c3b63222b1af9061321c908690616a9b565b60008181526003602052604090206007015442106114f05760405162461bcd60e51b81526004016112789061688b565b60008281526003602052604090206001015482906001600160a01b031633146148955760405162461bcd60e51b8152600401611278906164cb565b6000838152600360205260409020600701544281116148c65760405162461bcd60e51b815260040161127890616244565b82601c81905550837f8a7a5c9c34210b39b0dd6c746e4824f7af2a84c059d4dcbc168a2036d26df990846040516112e99190616a9b565b60008281526003602052604090206001015482906001600160a01b031633146149385760405162461bcd60e51b8152600401611278906164cb565b6000838152600360205260409020600701544281116149695760405162461bcd60e51b815260040161127890616244565b82602281905550837f436da186610be724d1e56abf3d34d2baf7374f4bc9b7e38002969d08393cf547846040516112e99190616a9b565b60235481565b600034116126d05760405162461bcd60e51b815260040161127890616168565b600460209081526000928352604080842090915290825290208054600182015460028301546003840154600585015460078601546008909601546001600160a01b03958616969486169590931693919260ff909116919087565b600e6020908152600092835260408084209091529082529020546001600160a01b031681565b60009182526008602090815260408084206001600160a01b0393909316845291905290205490565b600960209081526000928352604080842090915290825290205481565b6005602081815260009384526040808520909152918352912080546001820154600283015460038401549484015460078501546008909501546001600160a01b039485169693851695949092169360ff9091169187565b6027546001600160a01b031681565b6000600160008381526003602052604090206005015460ff166002811115614b1557fe5b1492915050565b614b2461537a565b6001600160a01b0316614b35613be9565b6001600160a01b031614614b5b5760405162461bcd60e51b8152600401611278906166e8565b6001600160a01b038116614b815760405162461bcd60e51b8152600401611278906160b4565b600080546040516001600160a01b03808516939216917f8be0079c531659141344cd1fd0a4f28419497f9722a3daafe3b4186f6b6457e091a3600080546001600160a01b0319166001600160a01b0392909216919091179055565b60285481565b601a5481565b60008181526003602052604090206001015481906001600160a01b031633146114745760405162461bcd60e51b8152600401611278906164cb565b60008181526003602052604090206007015481904210614c555760405162461bcd60e51b8152600401611278906167e8565b60008281526003602052604090206007015482904210614c875760405162461bcd60e51b81526004016112789061688b565b62030d405a11614ca95760405162461bcd60e51b81526004016112789061607d565b600160008481526003602052604090206005015460ff166002811115614ccb57fe5b14614ce85760405162461bcd60e51b815260040161127890616639565b6000805b600085815260036020526040902060060154811015614d315760008581526003602052604090206006018054614d279190839081106128ef57fe5b9150600101614cec565b50803414614d515760405162461bcd60e51b81526004016112789061620d565b600084815260036020819052604091829020600281015460018201549190920154925163a9059cbb60e01b81526001600160a01b039283169363a9059cbb93614d9e931691600401615e3d565b602060405180830381600087803b158015614db857600080fd5b505af1158015614dcc573d6000803e3d6000fd5b505050506040513d601f19601f82011682018060405250810190614df09190615bc6565b614e0c5760405162461bcd60e51b815260040161127890616397565b60008481526003602090815260408083206002810154905460079093529281902060010154905163a9059cbb60e01b81526001600160a01b039384169363a9059cbb93614e5e93911691600401615e3d565b602060405180830381600087803b158015614e7857600080fd5b505af1158015614e8c573d6000803e3d6000fd5b505050506040513d601f19601f82011682018060405250810190614eb09190615bc6565b614ecc5760405162461bcd60e51b815260040161127890616046565b336000908152600560209081526040808320878452909152812080546001600160a01b031990811682556001820180548216905560028201805490911690556003810182905590614f206004830182615993565b60058201805460ff19169055614f3a600683016000615993565b50600060078201819055600890910181905584815260036020818152604080842033855260058352818520898652909252909220825481546001600160a01b039182166001600160a01b031991821617835560018086015490840180549184169183169190911790556002808601549084018054919093169116179055828201549181019190915560048083018054614fd69284019190615953565b50600582810154908201805460ff9092169160ff19166001836002811115614ffa57fe5b0217905550600682810180546150139284019190615953565b506007828101549082015560089182015491015560008481526003602052604090206001810180546001600160a01b03191633179055600501805460ff191690553481101561509a57336108fc615070348463ffffffff6153ea16565b6040518115909202916000818181858888f19350505050158015615098573d6000803e3d6000fd5b505b336001600160a01b03167f23ad4783d95ee2d3730fae4843757e102bd28a58ef48e2c6f8fe93aef120f5fb85836040516112e9929190615f22565b6150dd6159b1565b60008281526006602090815260409182902082516101208101845281546001600160a01b03908116825260018301548116828501526002830154168185015260038201546060820152600482018054855181860281018601909652808652919492936080860193929083018282801561517557602002820191906000526020600020905b815481526020019060010190808311615161575b5050509183525050600582015460209091019060ff16600281111561519657fe5b60028111156151a157fe5b8152602001600682018054806020026020016040519081016040528092919081815260200182805480156151f457602002820191906000526020600020905b8154815260200190600101908083116151e0575b50505050508152602001600782015481526020016008820154815250509050919050565b600080805b6000848152600360205260409020600601548110156124f0576000848152600e602090815260408083206003909252822060060180548391908590811061526057fe5b60009182526020808320909101548352828101939093526040918201812054888252600884528282206001600160a01b0390911680835293522054909150156152aa576001909201915b5060010161521d565b600080805b6000848152600360205260409020600601548110156124f0576000848152600f60209081526040808320600390925282206006018054839190859081106152fb57fe5b60009182526020808320909101548352828101939093526040918201812054888252600984528282206001600160a01b039091168083529352205490915015615345576001909201915b506001016152b8565b6000828201838110156153735760405162461bcd60e51b81526004016112789061619f565b9392505050565b3390565b60008261538d57506000613a84565b8282028284828161539a57fe5b04146153735760405162461bcd60e51b815260040161127890616670565b60008082116153d95760405162461bcd60e51b8152600401611278906162d8565b8183816153e257fe5b049392505050565b60008282111561540c5760405162461bcd60e51b8152600401611278906162a1565b50900390565b8242106154315760405162461bcd60e51b815260040161127890616244565b600081116154515760405162461bcd60e51b81526004016112789061655f565b61545b82826157ce565b505050565b60025461546b6159b1565b60408051610120810182523380825260208201526001600160a01b03871691810191909152606081018590526080810188905260a081016000815260200160006040519080825280602002602001820160405280156154d4578160200160208202803683370190505b508152602080820189905260409182018690526000858152600380835290839020845181546001600160a01b03199081166001600160a01b039283161783558685015160018401805483169184169190911790559486015160028301805490961691161790935560608401519083015560808301518051939450849361556092600485019201906159fc565b5060a082015160058201805460ff1916600183600281111561557e57fe5b021790555060c0820151805161559e9160068401916020909101906159fc565b5060e0820151600782015561010090910151600890910155336000908152600460208181526040808420868552825292839020845181546001600160a01b03199081166001600160a01b0392831617835586840151600184018054831691841691909117905594860151600283018054909616911617909355606084015160038401556080840151805185949361563a939085019201906159fc565b5060a082015160058201805460ff1916600183600281111561565857fe5b021790555060c082015180516156789160068401916020909101906159fc565b5060e0820151600782015561010090910151600890910155336000908152600560209081526040808320858452825291829020835181546001600160a01b03199081166001600160a01b039283161783558584015160018401805483169184169190911790559385015160028301805490951691161790925560608301516003830155608083015180518493926157169260048501929101906159fc565b5060a082015160058201805460ff1916600183600281111561573457fe5b021790555060c082015180516157549160068401916020909101906159fc565b5060e0820151600782015561010090910151600890910155615774615a37565b505060408051606081018252848152600060208083018281528385019687528583526007825284832093518455516001808501919091559551600293840155600c9052919091209390935582549091019091559392505050565b6040516323b872dd60e01b81526001600160a01b038316906323b872dd906157fe90339030908690600401615e19565b602060405180830381600087803b15801561581857600080fd5b505af115801561582c573d6000803e3d6000fd5b505050506040513d601f19601f820116820180604052508101906158509190615bc6565b61586c5760405162461bcd60e51b8152600401611278906160fa565b60405163095ea7b360e01b81526001600160a01b0383169063095ea7b39061589a9030908590600401615e3d565b602060405180830381600087803b1580156158b457600080fd5b505af11580156158c8573d6000803e3d6000fd5b505050506040513d601f19601f820116820180604052508101906158ec9190615bc6565b6114745760405162461bcd60e51b8152600401611278906166b1565b828054828255906000526020600020908101928215615943579160200282015b82811115615943578235825591602001919060010190615928565b5061594f929150615a58565b5090565b8280548282559060005260206000209081019282156159435760005260206000209182015b82811115615943578254825591600101919060010190615978565b50805460008255906000526020600020908101906114f09190615a58565b6040805161012081018252600080825260208201819052918101829052606080820183905260808201529060a082019081526020016060815260200160008152602001600081525090565b828054828255906000526020600020908101928215615943579160200282015b82811115615943578251825591602001919060010190615a1c565b60405180606001604052806000815260200160008152602001600081525090565b61148591905b8082111561594f5760008155600101615a5e565b80356001600160a01b0381168114613a8457600080fd5b60008083601f840112615a9a578182fd5b50813567ffffffffffffffff811115615ab1578182fd5b6020830191508360208083028501011115615acb57600080fd5b9250929050565b600060208284031215615ae3578081fd5b6153738383615a72565b60008060408385031215615aff578081fd5b615b098484615a72565b946020939093013593505050565b60008060208385031215615b29578182fd5b823567ffffffffffffffff811115615b3f578283fd5b615b4b85828601615a89565b90969095509350505050565b60008060008060008060a08789031215615b6f578182fd5b863567ffffffffffffffff811115615b85578283fd5b615b9189828a01615a89565b909750955050602087013593506040870135615bac81616b6b565b959894975092956060810135946080909101359350915050565b600060208284031215615bd7578081fd5b81518015158114615373578182fd5b600060208284031215615bf7578081fd5b5035919050565b600060208284031215615c0f578081fd5b5051919050565b60008060408385031215615c28578182fd5b82359150615c398460208501615a72565b90509250929050565b600080600060608486031215615c56578283fd5b83359250615c678560208601615a72565b9150604084013590509250925092565b600080600060408486031215615c8b578283fd5b83359250602084013567ffffffffffffffff811115615ca8578283fd5b615cb486828701615a89565b9497909650939450505050565b60008060008060608587031215615cd6578384fd5b84359350602085013567ffffffffffffffff80821115615cf4578485fd5b81870188601f820112615d05578586fd5b8035925081831115615d15578586fd5b886020848301011115615d26578586fd5b959860209096019750909560400135949350505050565b60008060408385031215615d4f578182fd5b50508035926020909101359150565b600080600060608486031215615d72578081fd5b83359250602084013591506040840135615d8b81616b6b565b809150509250925092565b6001600160a01b03169052565b6000815180845260208085019450808401835b83811015615dd257815187529582019590820190600101615db6565b509495945050505050565b60038110615de757fe5b9052565b600084825282846020840137910160200190815292915050565b6001600160a01b0391909116815260200190565b6001600160a01b039384168152919092166020820152604081019190915260600190565b6001600160a01b03929092168252602082015260400190565b60006101206001600160a01b03808d168452808c166020850152808b16604085015250886060840152806080840152615e9181840189615da3565b60038810615e9b57fe5b8760a085015283810360c0850152615eb38188615da3565b60e08501969096525050506101000152979650505050505050565b6001600160a01b0388811682528781166020830152861660408201526060810185905260e08101615f026080830186615ddd565b60a082019390935260c0015295945050505050565b901515815260200190565b918252602082015260400190565b6000606082528460608301528486608084013780608086840101526080601f19601f870116830101905083602083015282604083015295945050505050565b6020808252600d908201526c496e76616c696420617272617960981b604082015260600190565b6020808252818101527f43616e6e6f74206275726e206f7074696f6e207768696c65206f6e2073616c65604082015260600190565b60208082526024908201527f496e76616c69642061727261793a2041727261792063616e6e6f7420626520656040820152636d70747960e01b606082015260800190565b6020808252600f908201527f496e76616c696420616464726573730000000000000000000000000000000000604082015260600190565b6020808252601a908201527f4661696c656420746f207472616e73666572207072656d69756d000000000000604082015260600190565b60208082526012908201527f476173206c696d69742065786365656465640000000000000000000000000000604082015260600190565b60208082526026908201527f4f776e61626c653a206e6577206f776e657220697320746865207a65726f206160408201526564647265737360d01b606082015260800190565b6020808252600f908201527f5472616e73666572206661696c65640000000000000000000000000000000000604082015260600190565b60208082526016908201527f4f7074696f6e20616c7265616479206f6e2073616c6500000000000000000000604082015260600190565b6020808252600e908201527f496e76616c696420616d6f756e74000000000000000000000000000000000000604082015260600190565b6020808252601b908201527f536166654d6174683a206164646974696f6e206f766572666c6f770000000000604082015260600190565b60208082526017908201527f496e76616c69642063726561746f722061646472657373000000000000000000604082015260600190565b60208082526018908201527f496e636f7272656374207061796d656e7420616d6f756e740000000000000000604082015260600190565b6020808252603a908201527f496e76616c69642074696d653a204f7074696f6e2065787069726174696f6e2060408201527f74696d65206d75737420626520696e2074686520667574757265000000000000606082015260800190565b6020808252601e908201527f536166654d6174683a207375627472616374696f6e206f766572666c6f770000604082015260600190565b6020808252601a908201527f536166654d6174683a206469766973696f6e206279207a65726f000000000000604082015260600190565b60208082526027908201527f496e76616c696420616464726573733a20416464726573732063616e6e6f74206040820152666265207a65726f60c81b606082015260800190565b60208082526021908201527f43616e6e6f7420636c61696d206f7074696f6e207768696c65206f6e2073616c6040820152606560f81b606082015260800190565b60208082526023908201527f4661696c656420746f207472616e7366657220455243323020636f6c6c6174656040820152621c985b60ea1b606082015260800190565b60208082526018908201527f4f7074696f6e206973206e6f742070726f66697461626c650000000000000000604082015260600190565b60208082526054908201527f496e76616c6964206672616374696f6e3a20556e697473206d7573742062652060408201527f67726561746572207468616e207a65726f20616e64206c657373207468616e2060608201527f6f7220657175616c20746f206d6178556e697473000000000000000000000000608082015260a00190565b6020808252601f908201527f52616e646f6d206e756d626572206e6f742066756c66696c6c65642079657400604082015260600190565b60208082526036908201527f556e617574686f72697a65643a204f6e6c79206f7074696f6e206f776e65722060408201527f63616e2063616c6c20746869732066756e6374696f6e00000000000000000000606082015260800190565b6020808252601a908201527f4c6174657374207072696365206e6f7420617661696c61626c65000000000000604082015260600190565b60208082526046908201527f496e76616c696420636f6c6c61746572616c20616d6f756e743a20436f6c6c6160408201527f746572616c20616d6f756e74206d7573742062652067726561746572207468616060820152656e207a65726f60d01b608082015260a00190565b60208082526015908201527f496e76616c6964206f776e657220616464726573730000000000000000000000604082015260600190565b60208082526016908201527f436f6e7472616374206973206e6f742070617573656400000000000000000000604082015260600190565b60208082526012908201527f4f7074696f6e206e6f74206f6e2073616c650000000000000000000000000000604082015260600190565b60208082526021908201527f536166654d6174683a206d756c7469706c69636174696f6e206f766572666c6f6040820152607760f81b606082015260800190565b6020808252600f908201527f417070726f76616c206661696c65640000000000000000000000000000000000604082015260600190565b6020808252818101527f4f776e61626c653a2063616c6c6572206973206e6f7420746865206f776e6572604082015260600190565b6020808252600e908201527f5072696365206d69736d61746368000000000000000000000000000000000000604082015260600190565b60208082526010908201527f416374697665206269642f6f6666657200000000000000000000000000000000604082015260600190565b60208082526030908201527f496e76616c696420616d6f756e743a20416d6f756e74206d757374206265206760408201527f726561746572207468616e207a65726f00000000000000000000000000000000606082015260800190565b6020808252600e908201527f4f7074696f6e2065787069726564000000000000000000000000000000000000604082015260600190565b6020808252818101527f436861696e6c696e6b206f7261636c652061646472657373206e6f7420736574604082015260600190565b6020808252601a908201527f4f66666572206475726174696f6e206e6f742065787069726564000000000000604082015260600190565b6020808252600f908201527f5374616c65206269642f6f666665720000000000000000000000000000000000604082015260600190565b60208082526018908201527f426964206475726174696f6e206e6f7420657870697265640000000000000000604082015260600190565b6020808252602f908201527f43616e6e6f7420776974686472617720636f6c6c61746572616c20666f72206160408201527f6e20616374697665206f7074696f6e0000000000000000000000000000000000606082015260800190565b60208082526012908201527f436f6e7472616374206973207061757365640000000000000000000000000000604082015260600190565b60208082526031908201527f556e617574686f72697a65643a204f6e6c792063726561746f722063616e206360408201527f616c6c20746869732066756e6374696f6e000000000000000000000000000000606082015260800190565b6000602082526169fe602083018451615d96565b6020830151616a106040840182615d96565b506040830151616a236060840182615d96565b506060830151608083015260808301516101208060a0850152616a4a610140850183615da3565b60a08601519250616a5e60c0860184615ddd565b60c0860151858203601f190160e08701529250616a7b8184615da3565b60e087015161010087810191909152909601519190940152509192915050565b90815260200190565b9182526001600160a01b0316602082015260400190565b9283526001600160a01b03918216602084015216604082015260600190565b9687526001600160a01b0395861660208801529390941660408601526060850191909152608084015260a083019190915260c082015260e00190565b60008482526001600160a01b038416602083015260606040830152616b3e6060830184615da3565b95945050505050565b9283526020830191909152604082015260600190565b60ff91909116815260200190565b6001600160a01b03811681146114f057600080fdfea2646970667358221220a4d093cf63dcc4bd0fb4654ca96832c4a52c7b5c0c773850de52419c99225a6864736f6c63430006080033","opcodes":"PUSH1 0x80 PUSH1 0x40 MSTORE PUSH3 0x30D40 PUSH1 0x28 SSTORE CALLVALUE DUP1 ISZERO PUSH3 0x18 JUMPI PUSH1 0x0 DUP1 REVERT JUMPDEST POP PUSH1 0x0 PUSH3 0x2E PUSH1 0x1 PUSH1 0x1 PUSH1 0xE0 SHL SUB PUSH3 0x7E AND JUMP JUMPDEST PUSH1 0x0 DUP1 SLOAD PUSH1 0x1 PUSH1 0x1 PUSH1 0xA0 SHL SUB NOT AND PUSH1 0x1 PUSH1 0x1 PUSH1 0xA0 SHL SUB DUP4 AND SWAP1 DUP2 OR DUP3 SSTORE PUSH1 0x40 MLOAD SWAP3 SWAP4 POP SWAP2 PUSH32 0x8BE0079C531659141344CD1FD0A4F28419497F9722A3DAAFE3B4186F6B6457E0 SWAP1 DUP3 SWAP1 LOG3 POP PUSH3 0x82 JUMP JUMPDEST CALLER SWAP1 JUMP JUMPDEST PUSH2 0x6BB6 DUP1 PUSH3 0x92 PUSH1 0x0 CODECOPY PUSH1 0x0 RETURN INVALID PUSH1 0x80 PUSH1 0x40 MSTORE PUSH1 0x4 CALLDATASIZE LT PUSH2 0x669 JUMPI PUSH1 0x0 CALLDATALOAD PUSH1 0xE0 SHR DUP1 PUSH4 0x8456CB59 GT PUSH2 0x343 JUMPI DUP1 PUSH4 0xC99E0FFC GT PUSH2 0x1BB JUMPI DUP1 PUSH4 0xE87B2B90 GT PUSH2 0xF7 JUMPI DUP1 PUSH4 0xF0F2805F GT PUSH2 0xA0 JUMPI DUP1 PUSH4 0xF6B45EB7 GT PUSH2 0x7A JUMPI DUP1 PUSH4 0xF6B45EB7 EQ PUSH2 0x11C8 JUMPI DUP1 PUSH4 0xF7C51F3C EQ PUSH2 0x11DD JUMPI DUP1 PUSH4 0xFBA225B9 EQ PUSH2 0x11FD JUMPI DUP1 PUSH4 0xFD6E859E EQ PUSH2 0x1210 JUMPI PUSH2 0x6A9 JUMP JUMPDEST DUP1 PUSH4 0xF0F2805F EQ PUSH2 0x1173 JUMPI DUP1 PUSH4 0xF2FDE38B EQ PUSH2 0x1193 JUMPI DUP1 PUSH4 0xF68016B7 EQ PUSH2 0x11B3 JUMPI PUSH2 0x6A9 JUMP JUMPDEST DUP1 PUSH4 0xEBDFBCE5 GT PUSH2 0xD1 JUMPI DUP1 PUSH4 0xEBDFBCE5 EQ PUSH2 0x111E JUMPI DUP1 PUSH4 0xEEEA02BF EQ PUSH2 0x113E JUMPI DUP1 PUSH4 0xEF06E72C EQ PUSH2 0x115E JUMPI PUSH2 0x6A9 JUMP JUMPDEST DUP1 PUSH4 0xE87B2B90 EQ PUSH2 0x10BE JUMPI DUP1 PUSH4 0xEAD8CCD1 EQ PUSH2 0x10DE JUMPI DUP1 PUSH4 0xEBA1B60B EQ PUSH2 0x10FE JUMPI PUSH2 0x6A9 JUMP JUMPDEST DUP1 PUSH4 0xDE5490FF GT PUSH2 0x164 JUMPI DUP1 PUSH4 0xE2576D4F GT PUSH2 0x13E JUMPI DUP1 PUSH4 0xE2576D4F EQ PUSH2 0x1061 JUMPI DUP1 PUSH4 0xE522600C EQ PUSH2 0x1081 JUMPI DUP1 PUSH4 0xE6EA8D2E EQ PUSH2 0x10A1 JUMPI DUP1 PUSH4 0xE82AF8E3 EQ PUSH2 0x10B6 JUMPI PUSH2 0x6A9 JUMP JUMPDEST DUP1 PUSH4 0xDE5490FF EQ PUSH2 0x100C JUMPI DUP1 PUSH4 0xDE6BF635 EQ PUSH2 0x1021 JUMPI DUP1 PUSH4 0xDE91E753 EQ PUSH2 0x1041 JUMPI PUSH2 0x6A9 JUMP JUMPDEST DUP1 PUSH4 0xD97FEF01 GT PUSH2 0x195 JUMPI DUP1 PUSH4 0xD97FEF01 EQ PUSH2 0xFAC JUMPI DUP1 PUSH4 0xD987F81E EQ PUSH2 0xFCC JUMPI DUP1 PUSH4 0xDC926AFB EQ PUSH2 0xFEC JUMPI PUSH2 0x6A9 JUMP JUMPDEST DUP1 PUSH4 0xC99E0FFC EQ PUSH2 0xF57 JUMPI DUP1 PUSH4 0xD88750B4 EQ PUSH2 0xF6C JUMPI DUP1 PUSH4 0xD9548E53 EQ PUSH2 0xF8C JUMPI PUSH2 0x6A9 JUMP JUMPDEST DUP1 PUSH4 0xA1DC29CD GT PUSH2 0x28A JUMPI DUP1 PUSH4 0xB187BD26 GT PUSH2 0x233 JUMPI DUP1 PUSH4 0xBA7B6703 GT PUSH2 0x20D JUMPI DUP1 PUSH4 0xBA7B6703 EQ PUSH2 0xEF8 JUMPI DUP1 PUSH4 0xBD62869A EQ PUSH2 0xF0D JUMPI DUP1 PUSH4 0xBED40F6F EQ PUSH2 0xF22 JUMPI DUP1 PUSH4 0xC3F909D4 EQ PUSH2 0xF42 JUMPI PUSH2 0x6A9 JUMP JUMPDEST DUP1 PUSH4 0xB187BD26 EQ PUSH2 0xEA3 JUMPI DUP1 PUSH4 0xB5BF6B06 EQ PUSH2 0xEB8 JUMPI DUP1 PUSH4 0xB9520CE4 EQ PUSH2 0xED8 JUMPI PUSH2 0x6A9 JUMP JUMPDEST DUP1 PUSH4 0xA87E49C5 GT PUSH2 0x264 JUMPI DUP1 PUSH4 0xA87E49C5 EQ PUSH2 0xE4E JUMPI DUP1 PUSH4 0xA8896F50 EQ PUSH2 0xE6E JUMPI DUP1 PUSH4 0xA964F81F EQ PUSH2 0xE8E JUMPI PUSH2 0x6A9 JUMP JUMPDEST DUP1 PUSH4 0xA1DC29CD EQ PUSH2 0xE04 JUMPI DUP1 PUSH4 0xA3E6BA94 EQ PUSH2 0xE19 JUMPI DUP1 PUSH4 0xA624A1DF EQ PUSH2 0xE2E JUMPI PUSH2 0x6A9 JUMP JUMPDEST DUP1 PUSH4 0x8DF7E83E GT PUSH2 0x2EC JUMPI DUP1 PUSH4 0x93E1B8A7 GT PUSH2 0x2C6 JUMPI DUP1 PUSH4 0x93E1B8A7 EQ PUSH2 0xDAF JUMPI DUP1 PUSH4 0x942E15B4 EQ PUSH2 0xDCF JUMPI DUP1 PUSH4 0xA06DB7DC EQ PUSH2 0xDEF JUMPI PUSH2 0x6A9 JUMP JUMPDEST DUP1 PUSH4 0x8DF7E83E EQ PUSH2 0xD5A JUMPI DUP1 PUSH4 0x8F288644 EQ PUSH2 0xD7A JUMPI DUP1 PUSH4 0x90DE000B EQ PUSH2 0xD9A JUMPI PUSH2 0x6A9 JUMP JUMPDEST DUP1 PUSH4 0x87AD6F13 GT PUSH2 0x31D JUMPI DUP1 PUSH4 0x87AD6F13 EQ PUSH2 0xD05 JUMPI DUP1 PUSH4 0x87CC098F EQ PUSH2 0xD25 JUMPI DUP1 PUSH4 0x8DA5CB5B EQ PUSH2 0xD45 JUMPI PUSH2 0x6A9 JUMP JUMPDEST DUP1 PUSH4 0x8456CB59 EQ PUSH2 0xCBB JUMPI DUP1 PUSH4 0x851212D9 EQ PUSH2 0xCD0 JUMPI DUP1 PUSH4 0x86D65D02 EQ PUSH2 0xCF0 JUMPI PUSH2 0x6A9 JUMP JUMPDEST DUP1 PUSH4 0x3F4BA83A GT PUSH2 0x4E1 JUMPI DUP1 PUSH4 0x6112FE2E GT PUSH2 0x41D JUMPI DUP1 PUSH4 0x73D4A13A GT PUSH2 0x3C6 JUMPI DUP1 PUSH4 0x7987FEBA GT PUSH2 0x3A0 JUMPI DUP1 PUSH4 0x7987FEBA EQ PUSH2 0xC51 JUMPI DUP1 PUSH4 0x81AE634D EQ PUSH2 0xC66 JUMPI DUP1 PUSH4 0x83534B95 EQ PUSH2 0xC86 JUMPI DUP1 PUSH4 0x839DA08B EQ PUSH2 0xC9B JUMPI PUSH2 0x6A9 JUMP JUMPDEST DUP1 PUSH4 0x73D4A13A EQ PUSH2 0xBF9 JUMPI DUP1 PUSH4 0x76F36155 EQ PUSH2 0xC0E JUMPI DUP1 PUSH4 0x79502C55 EQ PUSH2 0xC2E JUMPI PUSH2 0x6A9 JUMP JUMPDEST DUP1 PUSH4 0x67D6A23F GT PUSH2 0x3F7 JUMPI DUP1 PUSH4 0x67D6A23F EQ PUSH2 0xBA4 JUMPI DUP1 PUSH4 0x6ECAB61E EQ PUSH2 0xBC4 JUMPI DUP1 PUSH4 0x715018A6 EQ PUSH2 0xBE4 JUMPI PUSH2 0x6A9 JUMP JUMPDEST DUP1 PUSH4 0x6112FE2E EQ PUSH2 0xB4F JUMPI DUP1 PUSH4 0x6457BD04 EQ PUSH2 0xB6F JUMPI DUP1 PUSH4 0x65110595 EQ PUSH2 0xB8F JUMPI PUSH2 0x6A9 JUMP JUMPDEST DUP1 PUSH4 0x4C685CC5 GT PUSH2 0x48A JUMPI DUP1 PUSH4 0x545B6727 GT PUSH2 0x464 JUMPI DUP1 PUSH4 0x545B6727 EQ PUSH2 0xACD JUMPI DUP1 PUSH4 0x573489A9 EQ PUSH2 0xAED JUMPI DUP1 PUSH4 0x5C975ABB EQ PUSH2 0xB0D JUMPI DUP1 PUSH4 0x5DC5EAFE EQ PUSH2 0xB2F JUMPI PUSH2 0x6A9 JUMP JUMPDEST DUP1 PUSH4 0x4C685CC5 EQ PUSH2 0xA7A JUMPI DUP1 PUSH4 0x4D726EDC EQ PUSH2 0xA8D JUMPI DUP1 PUSH4 0x50A8150B EQ PUSH2 0xAAD JUMPI PUSH2 0x6A9 JUMP JUMPDEST DUP1 PUSH4 0x42F3FEC6 GT PUSH2 0x4BB JUMPI DUP1 PUSH4 0x42F3FEC6 EQ PUSH2 0xA3D JUMPI DUP1 PUSH4 0x49050750 EQ PUSH2 0xA45 JUMPI DUP1 PUSH4 0x49751788 EQ PUSH2 0xA65 JUMPI PUSH2 0x6A9 JUMP JUMPDEST DUP1 PUSH4 0x3F4BA83A EQ PUSH2 0x9F3 JUMPI DUP1 PUSH4 0x3F516018 EQ PUSH2 0xA08 JUMPI DUP1 PUSH4 0x40E5C7F3 EQ PUSH2 0xA28 JUMPI PUSH2 0x6A9 JUMP JUMPDEST DUP1 PUSH4 0x1CE5E9A6 GT PUSH2 0x5B0 JUMPI DUP1 PUSH4 0x3024A912 GT PUSH2 0x559 JUMPI DUP1 PUSH4 0x37FB409C GT PUSH2 0x533 JUMPI DUP1 PUSH4 0x37FB409C EQ PUSH2 0x973 JUMPI DUP1 PUSH4 0x3AA4BE1E EQ PUSH2 0x993 JUMPI DUP1 PUSH4 0x3B647D01 EQ PUSH2 0x9B3 JUMPI DUP1 PUSH4 0x3F1FFCEC EQ PUSH2 0x9D3 JUMPI PUSH2 0x6A9 JUMP JUMPDEST DUP1 PUSH4 0x3024A912 EQ PUSH2 0x90F JUMPI DUP1 PUSH4 0x3271BD60 EQ PUSH2 0x93E JUMPI DUP1 PUSH4 0x344CA8B4 EQ PUSH2 0x953 JUMPI PUSH2 0x6A9 JUMP JUMPDEST DUP1 PUSH4 0x232B956C GT PUSH2 0x58A JUMPI DUP1 PUSH4 0x232B956C EQ PUSH2 0x8A7 JUMPI DUP1 PUSH4 0x2D6FF84C EQ PUSH2 0x8DA JUMPI DUP1 PUSH4 0x301BBC24 EQ PUSH2 0x8FA JUMPI PUSH2 0x6A9 JUMP JUMPDEST DUP1 PUSH4 0x1CE5E9A6 EQ PUSH2 0x83D JUMPI DUP1 PUSH4 0x208FF02E EQ PUSH2 0x872 JUMPI DUP1 PUSH4 0x218F852E EQ PUSH2 0x887 JUMPI PUSH2 0x6A9 JUMP JUMPDEST DUP1 PUSH4 0xF36E6CF GT PUSH2 0x612 JUMPI DUP1 PUSH4 0x12A695AC GT PUSH2 0x5EC JUMPI DUP1 PUSH4 0x12A695AC EQ PUSH2 0x7E8 JUMPI DUP1 PUSH4 0x13AF4035 EQ PUSH2 0x808 JUMPI DUP1 PUSH4 0x17A5266C EQ PUSH2 0x828 JUMPI PUSH2 0x6A9 JUMP JUMPDEST DUP1 PUSH4 0xF36E6CF EQ PUSH2 0x788 JUMPI DUP1 PUSH4 0xF5EB055 EQ PUSH2 0x7A8 JUMPI DUP1 PUSH4 0x1250B5AE EQ PUSH2 0x7C8 JUMPI PUSH2 0x6A9 JUMP JUMPDEST DUP1 PUSH4 0xC6DE672 GT PUSH2 0x643 JUMPI DUP1 PUSH4 0xC6DE672 EQ PUSH2 0x726 JUMPI DUP1 PUSH4 0xD5047C7 EQ PUSH2 0x746 JUMPI DUP1 PUSH4 0xEE2CB10 EQ PUSH2 0x766 JUMPI PUSH2 0x6A9 JUMP JUMPDEST DUP1 PUSH4 0xA98EEB8 EQ PUSH2 0x6AE JUMPI DUP1 PUSH4 0xAFE2CAD EQ PUSH2 0x6D0 JUMPI DUP1 PUSH4 0xC52F46D EQ PUSH2 0x706 JUMPI PUSH2 0x6A9 JUMP JUMPDEST CALLDATASIZE PUSH2 0x6A9 JUMPI PUSH32 0xA419615BC8FDA4C87663805EE2A3597A6D71C1D476911D9892F340D965BC7BF1 CALLER CALLVALUE PUSH1 0x40 MLOAD PUSH2 0x69F SWAP3 SWAP2 SWAP1 PUSH2 0x5E3D JUMP JUMPDEST PUSH1 0x40 MLOAD DUP1 SWAP2 SUB SWAP1 LOG1 STOP JUMPDEST PUSH1 0x0 DUP1 REVERT JUMPDEST CALLVALUE DUP1 ISZERO PUSH2 0x6BA JUMPI PUSH1 0x0 DUP1 REVERT JUMPDEST POP PUSH2 0x6CE PUSH2 0x6C9 CALLDATASIZE PUSH1 0x4 PUSH2 0x5D3D JUMP JUMPDEST PUSH2 0x123D JUMP JUMPDEST STOP JUMPDEST CALLVALUE DUP1 ISZERO PUSH2 0x6DC JUMPI PUSH1 0x0 DUP1 REVERT JUMPDEST POP PUSH2 0x6F0 PUSH2 0x6EB CALLDATASIZE PUSH1 0x4 PUSH2 0x5BE6 JUMP JUMPDEST PUSH2 0x12F7 JUMP JUMPDEST PUSH1 0x40 MLOAD PUSH2 0x6FD SWAP2 SWAP1 PUSH2 0x6A9B JUMP JUMPDEST PUSH1 0x40 MLOAD DUP1 SWAP2 SUB SWAP1 RETURN JUMPDEST CALLVALUE DUP1 ISZERO PUSH2 0x712 JUMPI PUSH1 0x0 DUP1 REVERT JUMPDEST POP PUSH2 0x6CE PUSH2 0x721 CALLDATASIZE PUSH1 0x4 PUSH2 0x5BE6 JUMP JUMPDEST PUSH2 0x1309 JUMP JUMPDEST CALLVALUE DUP1 ISZERO PUSH2 0x732 JUMPI PUSH1 0x0 DUP1 REVERT JUMPDEST POP PUSH2 0x6CE PUSH2 0x741 CALLDATASIZE PUSH1 0x4 PUSH2 0x5D3D JUMP JUMPDEST PUSH2 0x13B4 JUMP JUMPDEST CALLVALUE DUP1 ISZERO PUSH2 0x752 JUMPI PUSH1 0x0 DUP1 REVERT JUMPDEST POP PUSH2 0x6CE PUSH2 0x761 CALLDATASIZE PUSH1 0x4 PUSH2 0x5B17 JUMP JUMPDEST PUSH2 0x1457 JUMP JUMPDEST CALLVALUE DUP1 ISZERO PUSH2 0x772 JUMPI PUSH1 0x0 DUP1 REVERT JUMPDEST POP PUSH2 0x77B PUSH2 0x1478 JUMP JUMPDEST PUSH1 0x40 MLOAD PUSH2 0x6FD SWAP2 SWAP1 PUSH2 0x5E05 JUMP JUMPDEST CALLVALUE DUP1 ISZERO PUSH2 0x794 JUMPI PUSH1 0x0 DUP1 REVERT JUMPDEST POP PUSH2 0x6CE PUSH2 0x7A3 CALLDATASIZE PUSH1 0x4 PUSH2 0x5C42 JUMP JUMPDEST PUSH2 0x1488 JUMP JUMPDEST CALLVALUE DUP1 ISZERO PUSH2 0x7B4 JUMPI PUSH1 0x0 DUP1 REVERT JUMPDEST POP PUSH2 0x6CE PUSH2 0x7C3 CALLDATASIZE PUSH1 0x4 PUSH2 0x5BE6 JUMP JUMPDEST PUSH2 0x14AE JUMP JUMPDEST CALLVALUE DUP1 ISZERO PUSH2 0x7D4 JUMPI PUSH1 0x0 DUP1 REVERT JUMPDEST POP PUSH2 0x6CE PUSH2 0x7E3 CALLDATASIZE PUSH1 0x4 PUSH2 0x5C77 JUMP JUMPDEST PUSH2 0x14F3 JUMP JUMPDEST CALLVALUE DUP1 ISZERO PUSH2 0x7F4 JUMPI PUSH1 0x0 DUP1 REVERT JUMPDEST POP PUSH2 0x6CE PUSH2 0x803 CALLDATASIZE PUSH1 0x4 PUSH2 0x5C16 JUMP JUMPDEST PUSH2 0x1812 JUMP JUMPDEST CALLVALUE DUP1 ISZERO PUSH2 0x814 JUMPI PUSH1 0x0 DUP1 REVERT JUMPDEST POP PUSH2 0x6CE PUSH2 0x823 CALLDATASIZE PUSH1 0x4 PUSH2 0x5AD2 JUMP JUMPDEST PUSH2 0x1A75 JUMP JUMPDEST CALLVALUE DUP1 ISZERO PUSH2 0x834 JUMPI PUSH1 0x0 DUP1 REVERT JUMPDEST POP PUSH2 0x6F0 PUSH2 0x1AFC JUMP JUMPDEST CALLVALUE DUP1 ISZERO PUSH2 0x849 JUMPI PUSH1 0x0 DUP1 REVERT JUMPDEST POP PUSH2 0x85D PUSH2 0x858 CALLDATASIZE PUSH1 0x4 PUSH2 0x5BE6 JUMP JUMPDEST PUSH2 0x1B02 JUMP JUMPDEST PUSH1 0x40 MLOAD PUSH2 0x6FD SWAP10 SWAP9 SWAP8 SWAP7 SWAP6 SWAP5 SWAP4 SWAP3 SWAP2 SWAP1 PUSH2 0x5E56 JUMP JUMPDEST CALLVALUE DUP1 ISZERO PUSH2 0x87E JUMPI PUSH1 0x0 DUP1 REVERT JUMPDEST POP PUSH2 0x6F0 PUSH2 0x1C29 JUMP JUMPDEST CALLVALUE DUP1 ISZERO PUSH2 0x893 JUMPI PUSH1 0x0 DUP1 REVERT JUMPDEST POP PUSH2 0x6CE PUSH2 0x8A2 CALLDATASIZE PUSH1 0x4 PUSH2 0x5D3D JUMP JUMPDEST PUSH2 0x1C2F JUMP JUMPDEST CALLVALUE DUP1 ISZERO PUSH2 0x8B3 JUMPI PUSH1 0x0 DUP1 REVERT JUMPDEST POP PUSH2 0x8C7 PUSH2 0x8C2 CALLDATASIZE PUSH1 0x4 PUSH2 0x5BE6 JUMP JUMPDEST PUSH2 0x1CD2 JUMP JUMPDEST PUSH1 0x40 MLOAD PUSH2 0x6FD SWAP8 SWAP7 SWAP6 SWAP5 SWAP4 SWAP3 SWAP2 SWAP1 PUSH2 0x5ECE JUMP JUMPDEST CALLVALUE DUP1 ISZERO PUSH2 0x8E6 JUMPI PUSH1 0x0 DUP1 REVERT JUMPDEST POP PUSH2 0x6CE PUSH2 0x8F5 CALLDATASIZE PUSH1 0x4 PUSH2 0x5D3D JUMP JUMPDEST PUSH2 0x1D21 JUMP JUMPDEST CALLVALUE DUP1 ISZERO PUSH2 0x906 JUMPI PUSH1 0x0 DUP1 REVERT JUMPDEST POP PUSH2 0x6F0 PUSH2 0x1D63 JUMP JUMPDEST CALLVALUE DUP1 ISZERO PUSH2 0x91B JUMPI PUSH1 0x0 DUP1 REVERT JUMPDEST POP PUSH2 0x92F PUSH2 0x92A CALLDATASIZE PUSH1 0x4 PUSH2 0x5BE6 JUMP JUMPDEST PUSH2 0x1D69 JUMP JUMPDEST PUSH1 0x40 MLOAD PUSH2 0x6FD SWAP4 SWAP3 SWAP2 SWAP1 PUSH2 0x6B47 JUMP JUMPDEST CALLVALUE DUP1 ISZERO PUSH2 0x94A JUMPI PUSH1 0x0 DUP1 REVERT JUMPDEST POP PUSH2 0x6CE PUSH2 0x1D8A JUMP JUMPDEST CALLVALUE DUP1 ISZERO PUSH2 0x95F JUMPI PUSH1 0x0 DUP1 REVERT JUMPDEST POP PUSH2 0x6CE PUSH2 0x96E CALLDATASIZE PUSH1 0x4 PUSH2 0x5D3D JUMP JUMPDEST PUSH2 0x1DC7 JUMP JUMPDEST CALLVALUE DUP1 ISZERO PUSH2 0x97F JUMPI PUSH1 0x0 DUP1 REVERT JUMPDEST POP PUSH2 0x6CE PUSH2 0x98E CALLDATASIZE PUSH1 0x4 PUSH2 0x5BE6 JUMP JUMPDEST PUSH2 0x1E6A JUMP JUMPDEST CALLVALUE DUP1 ISZERO PUSH2 0x99F JUMPI PUSH1 0x0 DUP1 REVERT JUMPDEST POP PUSH2 0x6F0 PUSH2 0x9AE CALLDATASIZE PUSH1 0x4 PUSH2 0x5BE6 JUMP JUMPDEST PUSH2 0x2452 JUMP JUMPDEST CALLVALUE DUP1 ISZERO PUSH2 0x9BF JUMPI PUSH1 0x0 DUP1 REVERT JUMPDEST POP PUSH2 0x6CE PUSH2 0x9CE CALLDATASIZE PUSH1 0x4 PUSH2 0x5D3D JUMP JUMPDEST PUSH2 0x24F7 JUMP JUMPDEST CALLVALUE DUP1 ISZERO PUSH2 0x9DF JUMPI PUSH1 0x0 DUP1 REVERT JUMPDEST POP PUSH2 0x6F0 PUSH2 0x9EE CALLDATASIZE PUSH1 0x4 PUSH2 0x5C16 JUMP JUMPDEST PUSH2 0x25CC JUMP JUMPDEST CALLVALUE DUP1 ISZERO PUSH2 0x9FF JUMPI PUSH1 0x0 DUP1 REVERT JUMPDEST POP PUSH2 0x6CE PUSH2 0x25E9 JUMP JUMPDEST CALLVALUE DUP1 ISZERO PUSH2 0xA14 JUMPI PUSH1 0x0 DUP1 REVERT JUMPDEST POP PUSH2 0x6CE PUSH2 0xA23 CALLDATASIZE PUSH1 0x4 PUSH2 0x5AD2 JUMP JUMPDEST PUSH2 0x2641 JUMP JUMPDEST CALLVALUE DUP1 ISZERO PUSH2 0xA34 JUMPI PUSH1 0x0 DUP1 REVERT JUMPDEST POP PUSH2 0x6CE PUSH2 0x26B3 JUMP JUMPDEST PUSH2 0x6CE PUSH2 0x26D2 JUMP JUMPDEST CALLVALUE DUP1 ISZERO PUSH2 0xA51 JUMPI PUSH1 0x0 DUP1 REVERT JUMPDEST POP PUSH2 0x6CE PUSH2 0xA60 CALLDATASIZE PUSH1 0x4 PUSH2 0x5D3D JUMP JUMPDEST PUSH2 0x26DA JUMP JUMPDEST CALLVALUE DUP1 ISZERO PUSH2 0xA71 JUMPI PUSH1 0x0 DUP1 REVERT JUMPDEST POP PUSH2 0x6F0 PUSH2 0x277D JUMP JUMPDEST PUSH2 0x6CE PUSH2 0xA88 CALLDATASIZE PUSH1 0x4 PUSH2 0x5D3D JUMP JUMPDEST PUSH2 0x2783 JUMP JUMPDEST CALLVALUE DUP1 ISZERO PUSH2 0xA99 JUMPI PUSH1 0x0 DUP1 REVERT JUMPDEST POP PUSH2 0x6CE PUSH2 0xAA8 CALLDATASIZE PUSH1 0x4 PUSH2 0x5D5E JUMP JUMPDEST PUSH2 0x2CC9 JUMP JUMPDEST CALLVALUE DUP1 ISZERO PUSH2 0xAB9 JUMPI PUSH1 0x0 DUP1 REVERT JUMPDEST POP PUSH2 0x6F0 PUSH2 0xAC8 CALLDATASIZE PUSH1 0x4 PUSH2 0x5BE6 JUMP JUMPDEST PUSH2 0x2D01 JUMP JUMPDEST CALLVALUE DUP1 ISZERO PUSH2 0xAD9 JUMPI PUSH1 0x0 DUP1 REVERT JUMPDEST POP PUSH2 0x6F0 PUSH2 0xAE8 CALLDATASIZE PUSH1 0x4 PUSH2 0x5AD2 JUMP JUMPDEST PUSH2 0x2D13 JUMP JUMPDEST CALLVALUE DUP1 ISZERO PUSH2 0xAF9 JUMPI PUSH1 0x0 DUP1 REVERT JUMPDEST POP PUSH2 0x8C7 PUSH2 0xB08 CALLDATASIZE PUSH1 0x4 PUSH2 0x5BE6 JUMP JUMPDEST PUSH2 0x2D25 JUMP JUMPDEST CALLVALUE DUP1 ISZERO PUSH2 0xB19 JUMPI PUSH1 0x0 DUP1 REVERT JUMPDEST POP PUSH2 0xB22 PUSH2 0x2D76 JUMP JUMPDEST PUSH1 0x40 MLOAD PUSH2 0x6FD SWAP2 SWAP1 PUSH2 0x5F17 JUMP JUMPDEST CALLVALUE DUP1 ISZERO PUSH2 0xB3B JUMPI PUSH1 0x0 DUP1 REVERT JUMPDEST POP PUSH2 0x6CE PUSH2 0xB4A CALLDATASIZE PUSH1 0x4 PUSH2 0x5CC1 JUMP JUMPDEST PUSH2 0x2D7F JUMP JUMPDEST CALLVALUE DUP1 ISZERO PUSH2 0xB5B JUMPI PUSH1 0x0 DUP1 REVERT JUMPDEST POP PUSH2 0x6CE PUSH2 0xB6A CALLDATASIZE PUSH1 0x4 PUSH2 0x5BE6 JUMP JUMPDEST PUSH2 0x2EF7 JUMP JUMPDEST CALLVALUE DUP1 ISZERO PUSH2 0xB7B JUMPI PUSH1 0x0 DUP1 REVERT JUMPDEST POP PUSH2 0x6CE PUSH2 0xB8A CALLDATASIZE PUSH1 0x4 PUSH2 0x5BE6 JUMP JUMPDEST PUSH2 0x3229 JUMP JUMPDEST CALLVALUE DUP1 ISZERO PUSH2 0xB9B JUMPI PUSH1 0x0 DUP1 REVERT JUMPDEST POP PUSH2 0x6CE PUSH2 0x339B JUMP JUMPDEST CALLVALUE DUP1 ISZERO PUSH2 0xBB0 JUMPI PUSH1 0x0 DUP1 REVERT JUMPDEST POP PUSH2 0x6CE PUSH2 0xBBF CALLDATASIZE PUSH1 0x4 PUSH2 0x5BE6 JUMP JUMPDEST PUSH2 0x33C5 JUMP JUMPDEST CALLVALUE DUP1 ISZERO PUSH2 0xBD0 JUMPI PUSH1 0x0 DUP1 REVERT JUMPDEST POP PUSH2 0x6F0 PUSH2 0xBDF CALLDATASIZE PUSH1 0x4 PUSH2 0x5AD2 JUMP JUMPDEST PUSH2 0x3530 JUMP JUMPDEST CALLVALUE DUP1 ISZERO PUSH2 0xBF0 JUMPI PUSH1 0x0 DUP1 REVERT JUMPDEST POP PUSH2 0x6CE PUSH2 0x354B JUMP JUMPDEST CALLVALUE DUP1 ISZERO PUSH2 0xC05 JUMPI PUSH1 0x0 DUP1 REVERT JUMPDEST POP PUSH2 0x8C7 PUSH2 0x35D4 JUMP JUMPDEST CALLVALUE DUP1 ISZERO PUSH2 0xC1A JUMPI PUSH1 0x0 DUP1 REVERT JUMPDEST POP PUSH2 0x6CE PUSH2 0xC29 CALLDATASIZE PUSH1 0x4 PUSH2 0x5D3D JUMP JUMPDEST PUSH2 0x3606 JUMP JUMPDEST CALLVALUE DUP1 ISZERO PUSH2 0xC3A JUMPI PUSH1 0x0 DUP1 REVERT JUMPDEST POP PUSH2 0xC43 PUSH2 0x36A9 JUMP JUMPDEST PUSH1 0x40 MLOAD PUSH2 0x6FD SWAP3 SWAP2 SWAP1 PUSH2 0x5E3D JUMP JUMPDEST CALLVALUE DUP1 ISZERO PUSH2 0xC5D JUMPI PUSH1 0x0 DUP1 REVERT JUMPDEST POP PUSH2 0x6F0 PUSH2 0x36BE JUMP JUMPDEST CALLVALUE DUP1 ISZERO PUSH2 0xC72 JUMPI PUSH1 0x0 DUP1 REVERT JUMPDEST POP PUSH2 0x6CE PUSH2 0xC81 CALLDATASIZE PUSH1 0x4 PUSH2 0x5BE6 JUMP JUMPDEST PUSH2 0x36C4 JUMP JUMPDEST CALLVALUE DUP1 ISZERO PUSH2 0xC92 JUMPI PUSH1 0x0 DUP1 REVERT JUMPDEST POP PUSH2 0x6F0 PUSH2 0x3A5A JUMP JUMPDEST CALLVALUE DUP1 ISZERO PUSH2 0xCA7 JUMPI PUSH1 0x0 DUP1 REVERT JUMPDEST POP PUSH2 0x77B PUSH2 0xCB6 CALLDATASIZE PUSH1 0x4 PUSH2 0x5D3D JUMP JUMPDEST PUSH2 0x3A60 JUMP JUMPDEST CALLVALUE DUP1 ISZERO PUSH2 0xCC7 JUMPI PUSH1 0x0 DUP1 REVERT JUMPDEST POP PUSH2 0x6CE PUSH2 0x3A8A JUMP JUMPDEST CALLVALUE DUP1 ISZERO PUSH2 0xCDC JUMPI PUSH1 0x0 DUP1 REVERT JUMPDEST POP PUSH2 0x6F0 PUSH2 0xCEB CALLDATASIZE PUSH1 0x4 PUSH2 0x5AD2 JUMP JUMPDEST PUSH2 0x3AE6 JUMP JUMPDEST CALLVALUE DUP1 ISZERO PUSH2 0xCFC JUMPI PUSH1 0x0 DUP1 REVERT JUMPDEST POP PUSH2 0x6F0 PUSH2 0x3AF8 JUMP JUMPDEST CALLVALUE DUP1 ISZERO PUSH2 0xD11 JUMPI PUSH1 0x0 DUP1 REVERT JUMPDEST POP PUSH2 0x6F0 PUSH2 0xD20 CALLDATASIZE PUSH1 0x4 PUSH2 0x5B57 JUMP JUMPDEST PUSH2 0x3AFE JUMP JUMPDEST CALLVALUE DUP1 ISZERO PUSH2 0xD31 JUMPI PUSH1 0x0 DUP1 REVERT JUMPDEST POP PUSH2 0x6CE PUSH2 0xD40 CALLDATASIZE PUSH1 0x4 PUSH2 0x5AD2 JUMP JUMPDEST PUSH2 0x3BC8 JUMP JUMPDEST CALLVALUE DUP1 ISZERO PUSH2 0xD51 JUMPI PUSH1 0x0 DUP1 REVERT JUMPDEST POP PUSH2 0x77B PUSH2 0x3BE9 JUMP JUMPDEST CALLVALUE DUP1 ISZERO PUSH2 0xD66 JUMPI PUSH1 0x0 DUP1 REVERT JUMPDEST POP PUSH2 0xB22 PUSH2 0xD75 CALLDATASIZE PUSH1 0x4 PUSH2 0x5BE6 JUMP JUMPDEST PUSH2 0x3BF8 JUMP JUMPDEST CALLVALUE DUP1 ISZERO PUSH2 0xD86 JUMPI PUSH1 0x0 DUP1 REVERT JUMPDEST POP PUSH2 0x6F0 PUSH2 0xD95 CALLDATASIZE PUSH1 0x4 PUSH2 0x5BE6 JUMP JUMPDEST PUSH2 0x3C1A JUMP JUMPDEST CALLVALUE DUP1 ISZERO PUSH2 0xDA6 JUMPI PUSH1 0x0 DUP1 REVERT JUMPDEST POP PUSH2 0x6F0 PUSH2 0x3CB6 JUMP JUMPDEST CALLVALUE DUP1 ISZERO PUSH2 0xDBB JUMPI PUSH1 0x0 DUP1 REVERT JUMPDEST POP PUSH2 0x6CE PUSH2 0xDCA CALLDATASIZE PUSH1 0x4 PUSH2 0x5AD2 JUMP JUMPDEST PUSH2 0x3CBC JUMP JUMPDEST CALLVALUE DUP1 ISZERO PUSH2 0xDDB JUMPI PUSH1 0x0 DUP1 REVERT JUMPDEST POP PUSH2 0x6CE PUSH2 0xDEA CALLDATASIZE PUSH1 0x4 PUSH2 0x5D3D JUMP JUMPDEST PUSH2 0x3CDC JUMP JUMPDEST CALLVALUE DUP1 ISZERO PUSH2 0xDFB JUMPI PUSH1 0x0 DUP1 REVERT JUMPDEST POP PUSH2 0x6F0 PUSH2 0x3D7F JUMP JUMPDEST CALLVALUE DUP1 ISZERO PUSH2 0xE10 JUMPI PUSH1 0x0 DUP1 REVERT JUMPDEST POP PUSH2 0x6F0 PUSH2 0x3D85 JUMP JUMPDEST CALLVALUE DUP1 ISZERO PUSH2 0xE25 JUMPI PUSH1 0x0 DUP1 REVERT JUMPDEST POP PUSH2 0x6F0 PUSH2 0x3D8B JUMP JUMPDEST CALLVALUE DUP1 ISZERO PUSH2 0xE3A JUMPI PUSH1 0x0 DUP1 REVERT JUMPDEST POP PUSH2 0xB22 PUSH2 0xE49 CALLDATASIZE PUSH1 0x4 PUSH2 0x5BE6 JUMP JUMPDEST PUSH2 0x3D91 JUMP JUMPDEST CALLVALUE DUP1 ISZERO PUSH2 0xE5A JUMPI PUSH1 0x0 DUP1 REVERT JUMPDEST POP PUSH2 0x6CE PUSH2 0xE69 CALLDATASIZE PUSH1 0x4 PUSH2 0x5BE6 JUMP JUMPDEST PUSH2 0x3DA9 JUMP JUMPDEST CALLVALUE DUP1 ISZERO PUSH2 0xE7A JUMPI PUSH1 0x0 DUP1 REVERT JUMPDEST POP PUSH2 0x77B PUSH2 0xE89 CALLDATASIZE PUSH1 0x4 PUSH2 0x5D3D JUMP JUMPDEST PUSH2 0x3F7C JUMP JUMPDEST CALLVALUE DUP1 ISZERO PUSH2 0xE9A JUMPI PUSH1 0x0 DUP1 REVERT JUMPDEST POP PUSH2 0x77B PUSH2 0x3FA2 JUMP JUMPDEST CALLVALUE DUP1 ISZERO PUSH2 0xEAF JUMPI PUSH1 0x0 DUP1 REVERT JUMPDEST POP PUSH2 0xB22 PUSH2 0x3FB6 JUMP JUMPDEST CALLVALUE DUP1 ISZERO PUSH2 0xEC4 JUMPI PUSH1 0x0 DUP1 REVERT JUMPDEST POP PUSH2 0x6CE PUSH2 0xED3 CALLDATASIZE PUSH1 0x4 PUSH2 0x5BE6 JUMP JUMPDEST PUSH2 0x14F0 JUMP JUMPDEST CALLVALUE DUP1 ISZERO PUSH2 0xEE4 JUMPI PUSH1 0x0 DUP1 REVERT JUMPDEST POP PUSH2 0x6F0 PUSH2 0xEF3 CALLDATASIZE PUSH1 0x4 PUSH2 0x5C16 JUMP JUMPDEST PUSH2 0x3FBF JUMP JUMPDEST CALLVALUE DUP1 ISZERO PUSH2 0xF04 JUMPI PUSH1 0x0 DUP1 REVERT JUMPDEST POP PUSH2 0x6F0 PUSH2 0x3FE7 JUMP JUMPDEST CALLVALUE DUP1 ISZERO PUSH2 0xF19 JUMPI PUSH1 0x0 DUP1 REVERT JUMPDEST POP PUSH2 0x6F0 PUSH2 0x3FED JUMP JUMPDEST CALLVALUE DUP1 ISZERO PUSH2 0xF2E JUMPI PUSH1 0x0 DUP1 REVERT JUMPDEST POP PUSH2 0x6F0 PUSH2 0xF3D CALLDATASIZE PUSH1 0x4 PUSH2 0x5BE6 JUMP JUMPDEST PUSH2 0x3FF3 JUMP JUMPDEST CALLVALUE DUP1 ISZERO PUSH2 0xF4E JUMPI PUSH1 0x0 DUP1 REVERT JUMPDEST POP PUSH2 0xC43 PUSH2 0x4005 JUMP JUMPDEST CALLVALUE DUP1 ISZERO PUSH2 0xF63 JUMPI PUSH1 0x0 DUP1 REVERT JUMPDEST POP PUSH2 0x6F0 PUSH2 0x4019 JUMP JUMPDEST CALLVALUE DUP1 ISZERO PUSH2 0xF78 JUMPI PUSH1 0x0 DUP1 REVERT JUMPDEST POP PUSH2 0x77B PUSH2 0xF87 CALLDATASIZE PUSH1 0x4 PUSH2 0x5D3D JUMP JUMPDEST PUSH2 0x401F JUMP JUMPDEST CALLVALUE DUP1 ISZERO PUSH2 0xF98 JUMPI PUSH1 0x0 DUP1 REVERT JUMPDEST POP PUSH2 0xB22 PUSH2 0xFA7 CALLDATASIZE PUSH1 0x4 PUSH2 0x5BE6 JUMP JUMPDEST PUSH2 0x4045 JUMP JUMPDEST CALLVALUE DUP1 ISZERO PUSH2 0xFB8 JUMPI PUSH1 0x0 DUP1 REVERT JUMPDEST POP PUSH2 0x6CE PUSH2 0xFC7 CALLDATASIZE PUSH1 0x4 PUSH2 0x5C42 JUMP JUMPDEST PUSH2 0x405C JUMP JUMPDEST CALLVALUE DUP1 ISZERO PUSH2 0xFD8 JUMPI PUSH1 0x0 DUP1 REVERT JUMPDEST POP PUSH2 0x6CE PUSH2 0xFE7 CALLDATASIZE PUSH1 0x4 PUSH2 0x5BE6 JUMP JUMPDEST PUSH2 0x4082 JUMP JUMPDEST CALLVALUE DUP1 ISZERO PUSH2 0xFF8 JUMPI PUSH1 0x0 DUP1 REVERT JUMPDEST POP PUSH2 0x6CE PUSH2 0x1007 CALLDATASIZE PUSH1 0x4 PUSH2 0x5BE6 JUMP JUMPDEST PUSH2 0x41ED JUMP JUMPDEST CALLVALUE DUP1 ISZERO PUSH2 0x1018 JUMPI PUSH1 0x0 DUP1 REVERT JUMPDEST POP PUSH2 0x6F0 PUSH2 0x4642 JUMP JUMPDEST CALLVALUE DUP1 ISZERO PUSH2 0x102D JUMPI PUSH1 0x0 DUP1 REVERT JUMPDEST POP PUSH2 0x6CE PUSH2 0x103C CALLDATASIZE PUSH1 0x4 PUSH2 0x5BE6 JUMP JUMPDEST PUSH2 0x4648 JUMP JUMPDEST CALLVALUE DUP1 ISZERO PUSH2 0x104D JUMPI PUSH1 0x0 DUP1 REVERT JUMPDEST POP PUSH2 0x6CE PUSH2 0x105C CALLDATASIZE PUSH1 0x4 PUSH2 0x5BE6 JUMP JUMPDEST PUSH2 0x482A JUMP JUMPDEST CALLVALUE DUP1 ISZERO PUSH2 0x106D JUMPI PUSH1 0x0 DUP1 REVERT JUMPDEST POP PUSH2 0x6CE PUSH2 0x107C CALLDATASIZE PUSH1 0x4 PUSH2 0x5D3D JUMP JUMPDEST PUSH2 0x485A JUMP JUMPDEST CALLVALUE DUP1 ISZERO PUSH2 0x108D JUMPI PUSH1 0x0 DUP1 REVERT JUMPDEST POP PUSH2 0x6CE PUSH2 0x109C CALLDATASIZE PUSH1 0x4 PUSH2 0x5D3D JUMP JUMPDEST PUSH2 0x48FD JUMP JUMPDEST CALLVALUE DUP1 ISZERO PUSH2 0x10AD JUMPI PUSH1 0x0 DUP1 REVERT JUMPDEST POP PUSH2 0x6F0 PUSH2 0x49A0 JUMP JUMPDEST PUSH2 0x6CE PUSH2 0x49A6 JUMP JUMPDEST CALLVALUE DUP1 ISZERO PUSH2 0x10CA JUMPI PUSH1 0x0 DUP1 REVERT JUMPDEST POP PUSH2 0x8C7 PUSH2 0x10D9 CALLDATASIZE PUSH1 0x4 PUSH2 0x5AED JUMP JUMPDEST PUSH2 0x49C6 JUMP JUMPDEST CALLVALUE DUP1 ISZERO PUSH2 0x10EA JUMPI PUSH1 0x0 DUP1 REVERT JUMPDEST POP PUSH2 0x77B PUSH2 0x10F9 CALLDATASIZE PUSH1 0x4 PUSH2 0x5D3D JUMP JUMPDEST PUSH2 0x4A20 JUMP JUMPDEST CALLVALUE DUP1 ISZERO PUSH2 0x110A JUMPI PUSH1 0x0 DUP1 REVERT JUMPDEST POP PUSH2 0x6F0 PUSH2 0x1119 CALLDATASIZE PUSH1 0x4 PUSH2 0x5C16 JUMP JUMPDEST PUSH2 0x4A46 JUMP JUMPDEST CALLVALUE DUP1 ISZERO PUSH2 0x112A JUMPI PUSH1 0x0 DUP1 REVERT JUMPDEST POP PUSH2 0x6F0 PUSH2 0x1139 CALLDATASIZE PUSH1 0x4 PUSH2 0x5C16 JUMP JUMPDEST PUSH2 0x4A6E JUMP JUMPDEST CALLVALUE DUP1 ISZERO PUSH2 0x114A JUMPI PUSH1 0x0 DUP1 REVERT JUMPDEST POP PUSH2 0x8C7 PUSH2 0x1159 CALLDATASIZE PUSH1 0x4 PUSH2 0x5AED JUMP JUMPDEST PUSH2 0x4A8B JUMP JUMPDEST CALLVALUE DUP1 ISZERO PUSH2 0x116A JUMPI PUSH1 0x0 DUP1 REVERT JUMPDEST POP PUSH2 0x77B PUSH2 0x4AE2 JUMP JUMPDEST CALLVALUE DUP1 ISZERO PUSH2 0x117F JUMPI PUSH1 0x0 DUP1 REVERT JUMPDEST POP PUSH2 0xB22 PUSH2 0x118E CALLDATASIZE PUSH1 0x4 PUSH2 0x5BE6 JUMP JUMPDEST PUSH2 0x4AF1 JUMP JUMPDEST CALLVALUE DUP1 ISZERO PUSH2 0x119F JUMPI PUSH1 0x0 DUP1 REVERT JUMPDEST POP PUSH2 0x6CE PUSH2 0x11AE CALLDATASIZE PUSH1 0x4 PUSH2 0x5AD2 JUMP JUMPDEST PUSH2 0x4B1C JUMP JUMPDEST CALLVALUE DUP1 ISZERO PUSH2 0x11BF JUMPI PUSH1 0x0 DUP1 REVERT JUMPDEST POP PUSH2 0x6F0 PUSH2 0x4BDC JUMP JUMPDEST CALLVALUE DUP1 ISZERO PUSH2 0x11D4 JUMPI PUSH1 0x0 DUP1 REVERT JUMPDEST POP PUSH2 0x6F0 PUSH2 0x4BE2 JUMP JUMPDEST CALLVALUE DUP1 ISZERO PUSH2 0x11E9 JUMPI PUSH1 0x0 DUP1 REVERT JUMPDEST POP PUSH2 0x6CE PUSH2 0x11F8 CALLDATASIZE PUSH1 0x4 PUSH2 0x5BE6 JUMP JUMPDEST PUSH2 0x4BE8 JUMP JUMPDEST PUSH2 0x6CE PUSH2 0x120B CALLDATASIZE PUSH1 0x4 PUSH2 0x5BE6 JUMP JUMPDEST PUSH2 0x4C23 JUMP JUMPDEST CALLVALUE DUP1 ISZERO PUSH2 0x121C JUMPI PUSH1 0x0 DUP1 REVERT JUMPDEST POP PUSH2 0x1230 PUSH2 0x122B CALLDATASIZE PUSH1 0x4 PUSH2 0x5BE6 JUMP JUMPDEST PUSH2 0x50D5 JUMP JUMPDEST PUSH1 0x40 MLOAD PUSH2 0x6FD SWAP2 SWAP1 PUSH2 0x69EA JUMP JUMPDEST PUSH1 0x0 DUP3 DUP2 MSTORE PUSH1 0x3 PUSH1 0x20 MSTORE PUSH1 0x40 SWAP1 KECCAK256 PUSH1 0x1 ADD SLOAD DUP3 SWAP1 PUSH1 0x1 PUSH1 0x1 PUSH1 0xA0 SHL SUB AND CALLER EQ PUSH2 0x1281 JUMPI PUSH1 0x40 MLOAD PUSH3 0x461BCD PUSH1 0xE5 SHL DUP2 MSTORE PUSH1 0x4 ADD PUSH2 0x1278 SWAP1 PUSH2 0x64CB JUMP JUMPDEST PUSH1 0x40 MLOAD DUP1 SWAP2 SUB SWAP1 REVERT JUMPDEST PUSH1 0x0 DUP4 DUP2 MSTORE PUSH1 0x3 PUSH1 0x20 MSTORE PUSH1 0x40 SWAP1 KECCAK256 PUSH1 0x7 ADD SLOAD TIMESTAMP DUP2 GT PUSH2 0x12B2 JUMPI PUSH1 0x40 MLOAD PUSH3 0x461BCD PUSH1 0xE5 SHL DUP2 MSTORE PUSH1 0x4 ADD PUSH2 0x1278 SWAP1 PUSH2 0x6244 JUMP JUMPDEST DUP3 PUSH1 0x23 DUP2 SWAP1 SSTORE POP DUP4 PUSH32 0xC7F388ABB2270B17EB176E822B294649A0309AC03D013B680C7D4A20C185E67D DUP5 PUSH1 0x40 MLOAD PUSH2 0x12E9 SWAP2 SWAP1 PUSH2 0x6A9B JUMP JUMPDEST PUSH1 0x40 MLOAD DUP1 SWAP2 SUB SWAP1 LOG2 POP POP POP POP JUMP JUMPDEST PUSH1 0xC PUSH1 0x20 MSTORE PUSH1 0x0 SWAP1 DUP2 MSTORE PUSH1 0x40 SWAP1 KECCAK256 SLOAD DUP2 JUMP JUMPDEST PUSH1 0x0 DUP2 DUP2 MSTORE PUSH1 0x3 PUSH1 0x20 MSTORE PUSH1 0x40 SWAP1 KECCAK256 PUSH1 0x7 ADD SLOAD DUP2 SWAP1 TIMESTAMP LT PUSH2 0x133B JUMPI PUSH1 0x40 MLOAD PUSH3 0x461BCD PUSH1 0xE5 SHL DUP2 MSTORE PUSH1 0x4 ADD PUSH2 0x1278 SWAP1 PUSH2 0x67E8 JUMP JUMPDEST PUSH1 0x0 PUSH2 0x1346 DUP4 PUSH2 0x5218 JUMP JUMPDEST SWAP1 POP PUSH1 0x0 PUSH2 0x1353 DUP5 PUSH2 0x52B3 JUMP JUMPDEST SWAP1 POP PUSH1 0x0 DUP1 DUP4 GT DUP1 PUSH2 0x1365 JUMPI POP PUSH1 0x0 DUP3 GT JUMPDEST SWAP1 POP DUP5 PUSH32 0x96B57FF66BEEAC6E8FD6B33B23F7D11BE509931D1CD059F04036989848C6EFE6 DUP3 PUSH2 0x1395 JUMPI PUSH1 0x0 PUSH2 0x1398 JUMP JUMPDEST PUSH1 0x1 JUMPDEST PUSH1 0x40 MLOAD PUSH2 0x13A5 SWAP2 SWAP1 PUSH2 0x6B5D JUMP JUMPDEST PUSH1 0x40 MLOAD DUP1 SWAP2 SUB SWAP1 LOG2 POP POP POP POP POP JUMP JUMPDEST PUSH1 0x0 DUP3 DUP2 MSTORE PUSH1 0x3 PUSH1 0x20 MSTORE PUSH1 0x40 SWAP1 KECCAK256 PUSH1 0x1 ADD SLOAD DUP3 SWAP1 PUSH1 0x1 PUSH1 0x1 PUSH1 0xA0 SHL SUB AND CALLER EQ PUSH2 0x13EF JUMPI PUSH1 0x40 MLOAD PUSH3 0x461BCD PUSH1 0xE5 SHL DUP2 MSTORE PUSH1 0x4 ADD PUSH2 0x1278 SWAP1 PUSH2 0x64CB JUMP JUMPDEST PUSH1 0x0 DUP4 DUP2 MSTORE PUSH1 0x3 PUSH1 0x20 MSTORE PUSH1 0x40 SWAP1 KECCAK256 PUSH1 0x7 ADD SLOAD TIMESTAMP DUP2 GT PUSH2 0x1420 JUMPI PUSH1 0x40 MLOAD PUSH3 0x461BCD PUSH1 0xE5 SHL DUP2 MSTORE PUSH1 0x4 ADD PUSH2 0x1278 SWAP1 PUSH2 0x6244 JUMP JUMPDEST DUP3 PUSH1 0x21 DUP2 SWAP1 SSTORE POP DUP4 PUSH32 0xBE95B51FB29523640D8D589C9EBA58D8B9B3100DF6B28CAEB5549273622DBB1F DUP5 PUSH1 0x40 MLOAD PUSH2 0x12E9 SWAP2 SWAP1 PUSH2 0x6A9B JUMP JUMPDEST DUP1 PUSH2 0x1474 JUMPI PUSH1 0x40 MLOAD PUSH3 0x461BCD PUSH1 0xE5 SHL DUP2 MSTORE PUSH1 0x4 ADD PUSH2 0x1278 SWAP1 PUSH2 0x5F6F JUMP JUMPDEST POP POP JUMP JUMPDEST PUSH1 0x1 SLOAD PUSH1 0x1 PUSH1 0x1 PUSH1 0xA0 SHL SUB AND JUMPDEST SWAP1 JUMP JUMPDEST PUSH1 0x0 SWAP3 DUP4 MSTORE PUSH1 0x9 PUSH1 0x20 SWAP1 DUP2 MSTORE PUSH1 0x40 DUP1 DUP6 KECCAK256 PUSH1 0x1 PUSH1 0x1 PUSH1 0xA0 SHL SUB SWAP1 SWAP5 AND DUP6 MSTORE SWAP3 SWAP1 MSTORE SWAP2 KECCAK256 SSTORE JUMP JUMPDEST PUSH1 0x1C SLOAD PUSH1 0x0 DUP3 DUP2 MSTORE PUSH1 0x3 PUSH1 0x20 MSTORE PUSH1 0x40 SWAP1 KECCAK256 PUSH1 0x7 ADD SLOAD PUSH2 0x14D2 SWAP2 PUSH4 0xFFFFFFFF PUSH2 0x534E AND JUMP JUMPDEST TIMESTAMP LT PUSH2 0x14F0 JUMPI PUSH1 0x40 MLOAD PUSH3 0x461BCD PUSH1 0xE5 SHL DUP2 MSTORE PUSH1 0x4 ADD PUSH2 0x1278 SWAP1 PUSH2 0x6754 JUMP JUMPDEST POP JUMP JUMPDEST PUSH1 0x0 DUP4 DUP2 MSTORE PUSH1 0x3 PUSH1 0x20 MSTORE PUSH1 0x40 SWAP1 KECCAK256 PUSH1 0x1 ADD SLOAD DUP4 SWAP1 PUSH1 0x1 PUSH1 0x1 PUSH1 0xA0 SHL SUB AND CALLER EQ PUSH2 0x152E JUMPI PUSH1 0x40 MLOAD PUSH3 0x461BCD PUSH1 0xE5 SHL DUP2 MSTORE PUSH1 0x4 ADD PUSH2 0x1278 SWAP1 PUSH2 0x64CB JUMP JUMPDEST PUSH1 0x0 DUP5 DUP2 MSTORE PUSH1 0x3 PUSH1 0x20 MSTORE PUSH1 0x40 SWAP1 KECCAK256 PUSH1 0x7 ADD SLOAD TIMESTAMP DUP2 GT PUSH2 0x155F JUMPI PUSH1 0x40 MLOAD PUSH3 0x461BCD PUSH1 0xE5 SHL DUP2 MSTORE PUSH1 0x4 ADD PUSH2 0x1278 SWAP1 PUSH2 0x6244 JUMP JUMPDEST DUP5 PUSH1 0x1 PUSH1 0x0 DUP3 DUP2 MSTORE PUSH1 0x3 PUSH1 0x20 MSTORE PUSH1 0x40 SWAP1 KECCAK256 PUSH1 0x5 ADD SLOAD PUSH1 0xFF AND PUSH1 0x2 DUP2 GT ISZERO PUSH2 0x1582 JUMPI INVALID JUMPDEST EQ ISZERO PUSH2 0x15A0 JUMPI PUSH1 0x40 MLOAD PUSH3 0x461BCD PUSH1 0xE5 SHL DUP2 MSTORE PUSH1 0x4 ADD PUSH2 0x1278 SWAP1 PUSH2 0x6131 JUMP JUMPDEST PUSH1 0x0 DUP7 DUP2 MSTORE PUSH1 0x3 PUSH1 0x20 MSTORE PUSH1 0x40 SWAP1 KECCAK256 PUSH1 0x7 ADD SLOAD DUP7 SWAP1 TIMESTAMP LT PUSH2 0x15D2 JUMPI PUSH1 0x40 MLOAD PUSH3 0x461BCD PUSH1 0xE5 SHL DUP2 MSTORE PUSH1 0x4 ADD PUSH2 0x1278 SWAP1 PUSH2 0x67E8 JUMP JUMPDEST DUP6 DUP6 DUP1 DUP1 PUSH1 0x20 MUL PUSH1 0x20 ADD PUSH1 0x40 MLOAD SWAP1 DUP2 ADD PUSH1 0x40 MSTORE DUP1 SWAP4 SWAP3 SWAP2 SWAP1 DUP2 DUP2 MSTORE PUSH1 0x20 ADD DUP4 DUP4 PUSH1 0x20 MUL DUP1 DUP3 DUP5 CALLDATACOPY PUSH1 0x0 SWAP3 ADD SWAP2 SWAP1 SWAP2 MSTORE POP POP DUP3 MLOAD ISZERO ISZERO SWAP2 POP PUSH2 0x1627 SWAP1 POP JUMPI PUSH1 0x40 MLOAD PUSH3 0x461BCD PUSH1 0xE5 SHL DUP2 MSTORE PUSH1 0x4 ADD PUSH2 0x1278 SWAP1 PUSH2 0x5FCB JUMP JUMPDEST PUSH3 0x30D40 GAS GT PUSH2 0x1649 JUMPI PUSH1 0x40 MLOAD PUSH3 0x461BCD PUSH1 0xE5 SHL DUP2 MSTORE PUSH1 0x4 ADD PUSH2 0x1278 SWAP1 PUSH2 0x607D JUMP JUMPDEST PUSH1 0x0 DUP9 DUP2 MSTORE PUSH1 0x3 PUSH1 0x20 MSTORE PUSH1 0x40 SWAP1 KECCAK256 PUSH1 0x5 DUP2 ADD DUP1 SLOAD PUSH1 0xFF NOT AND PUSH1 0x1 OR SWAP1 SSTORE PUSH2 0x1674 SWAP1 PUSH1 0x6 ADD DUP9 DUP9 PUSH2 0x5908 JUMP JUMPDEST POP PUSH1 0x60 DUP7 PUSH8 0xFFFFFFFFFFFFFFFF DUP2 GT DUP1 ISZERO PUSH2 0x168E JUMPI PUSH1 0x0 DUP1 REVERT JUMPDEST POP PUSH1 0x40 MLOAD SWAP1 DUP1 DUP3 MSTORE DUP1 PUSH1 0x20 MUL PUSH1 0x20 ADD DUP3 ADD PUSH1 0x40 MSTORE DUP1 ISZERO PUSH2 0x16B8 JUMPI DUP2 PUSH1 0x20 ADD PUSH1 0x20 DUP3 MUL DUP1 CALLDATASIZE DUP4 CALLDATACOPY ADD SWAP1 POP JUMPDEST POP SWAP1 POP PUSH1 0x0 JUMPDEST DUP8 DUP2 LT ISZERO PUSH2 0x16F8 JUMPI DUP9 DUP9 DUP3 DUP2 DUP2 LT PUSH2 0x16D2 JUMPI INVALID JUMPDEST SWAP1 POP PUSH1 0x20 MUL ADD CALLDATALOAD DUP3 DUP3 DUP2 MLOAD DUP2 LT PUSH2 0x16E5 JUMPI INVALID JUMPDEST PUSH1 0x20 SWAP1 DUP2 MUL SWAP2 SWAP1 SWAP2 ADD ADD MSTORE PUSH1 0x1 ADD PUSH2 0x16BE JUMP JUMPDEST POP PUSH1 0x0 DUP10 DUP2 MSTORE PUSH1 0x3 PUSH1 0x20 DUP2 DUP2 MSTORE PUSH1 0x40 DUP1 DUP5 KECCAK256 PUSH1 0x6 SWAP1 SWAP3 MSTORE SWAP1 SWAP3 KECCAK256 DUP3 SLOAD DUP2 SLOAD PUSH1 0x1 PUSH1 0x1 PUSH1 0xA0 SHL SUB SWAP2 DUP3 AND PUSH1 0x1 PUSH1 0x1 PUSH1 0xA0 SHL SUB NOT SWAP2 DUP3 AND OR DUP4 SSTORE PUSH1 0x1 DUP1 DUP7 ADD SLOAD SWAP1 DUP5 ADD DUP1 SLOAD SWAP2 DUP5 AND SWAP2 DUP4 AND SWAP2 SWAP1 SWAP2 OR SWAP1 SSTORE PUSH1 0x2 DUP1 DUP7 ADD SLOAD SWAP1 DUP5 ADD DUP1 SLOAD SWAP2 SWAP1 SWAP4 AND SWAP2 AND OR SWAP1 SSTORE DUP3 DUP3 ADD SLOAD SWAP2 DUP2 ADD SWAP2 SWAP1 SWAP2 SSTORE PUSH1 0x4 DUP1 DUP4 ADD DUP1 SLOAD PUSH2 0x177A SWAP3 DUP5 ADD SWAP2 SWAP1 PUSH2 0x5953 JUMP JUMPDEST POP PUSH1 0x5 DUP3 DUP2 ADD SLOAD SWAP1 DUP3 ADD DUP1 SLOAD PUSH1 0xFF SWAP1 SWAP3 AND SWAP2 PUSH1 0xFF NOT AND PUSH1 0x1 DUP4 PUSH1 0x2 DUP2 GT ISZERO PUSH2 0x179E JUMPI INVALID JUMPDEST MUL OR SWAP1 SSTORE POP PUSH1 0x6 DUP3 DUP2 ADD DUP1 SLOAD PUSH2 0x17B7 SWAP3 DUP5 ADD SWAP2 SWAP1 PUSH2 0x5953 JUMP JUMPDEST POP PUSH1 0x7 DUP3 DUP2 ADD SLOAD SWAP1 DUP3 ADD SSTORE PUSH1 0x8 SWAP2 DUP3 ADD SLOAD SWAP2 ADD SSTORE PUSH1 0x40 MLOAD PUSH32 0x9D4B6DFF4C87B3AFACB569DC9E0E4D482BBC9D40B0F7EF1A71C79339DB3C70FF SWAP1 PUSH2 0x17FF SWAP1 DUP12 SWAP1 CALLER SWAP1 DUP6 SWAP1 PUSH2 0x6B16 JUMP JUMPDEST PUSH1 0x40 MLOAD DUP1 SWAP2 SUB SWAP1 LOG1 POP POP POP POP POP POP POP POP POP JUMP JUMPDEST PUSH1 0x0 DUP3 DUP2 MSTORE PUSH1 0x3 PUSH1 0x20 MSTORE PUSH1 0x40 SWAP1 KECCAK256 PUSH1 0x1 ADD SLOAD DUP3 SWAP1 PUSH1 0x1 PUSH1 0x1 PUSH1 0xA0 SHL SUB AND CALLER EQ PUSH2 0x184D JUMPI PUSH1 0x40 MLOAD PUSH3 0x461BCD PUSH1 0xE5 SHL DUP2 MSTORE PUSH1 0x4 ADD PUSH2 0x1278 SWAP1 PUSH2 0x64CB JUMP JUMPDEST PUSH1 0x0 DUP4 DUP2 MSTORE PUSH1 0x3 PUSH1 0x20 MSTORE PUSH1 0x40 SWAP1 KECCAK256 PUSH1 0x7 ADD SLOAD TIMESTAMP DUP2 GT PUSH2 0x187E JUMPI PUSH1 0x40 MLOAD PUSH3 0x461BCD PUSH1 0xE5 SHL DUP2 MSTORE PUSH1 0x4 ADD PUSH2 0x1278 SWAP1 PUSH2 0x6244 JUMP JUMPDEST DUP3 PUSH1 0x1 PUSH1 0x1 PUSH1 0xA0 SHL SUB DUP2 AND PUSH2 0x18A5 JUMPI PUSH1 0x40 MLOAD PUSH3 0x461BCD PUSH1 0xE5 SHL DUP2 MSTORE PUSH1 0x4 ADD PUSH2 0x1278 SWAP1 PUSH2 0x630F JUMP JUMPDEST PUSH3 0x30D40 GAS GT PUSH2 0x18C7 JUMPI PUSH1 0x40 MLOAD PUSH3 0x461BCD PUSH1 0xE5 SHL DUP2 MSTORE PUSH1 0x4 ADD PUSH2 0x1278 SWAP1 PUSH2 0x607D JUMP JUMPDEST CALLER PUSH1 0x0 SWAP1 DUP2 MSTORE PUSH1 0x5 PUSH1 0x20 SWAP1 DUP2 MSTORE PUSH1 0x40 DUP1 DUP4 KECCAK256 DUP9 DUP5 MSTORE SWAP1 SWAP2 MSTORE DUP2 KECCAK256 DUP1 SLOAD PUSH1 0x1 PUSH1 0x1 PUSH1 0xA0 SHL SUB NOT SWAP1 DUP2 AND DUP3 SSTORE PUSH1 0x1 DUP3 ADD DUP1 SLOAD DUP3 AND SWAP1 SSTORE PUSH1 0x2 DUP3 ADD DUP1 SLOAD SWAP1 SWAP2 AND SWAP1 SSTORE PUSH1 0x3 DUP2 ADD DUP3 SWAP1 SSTORE SWAP1 PUSH2 0x191B PUSH1 0x4 DUP4 ADD DUP3 PUSH2 0x5993 JUMP JUMPDEST PUSH1 0x5 DUP3 ADD DUP1 SLOAD PUSH1 0xFF NOT AND SWAP1 SSTORE PUSH2 0x1935 PUSH1 0x6 DUP4 ADD PUSH1 0x0 PUSH2 0x5993 JUMP JUMPDEST POP PUSH1 0x0 PUSH1 0x7 DUP3 ADD DUP2 SWAP1 SSTORE PUSH1 0x8 SWAP1 SWAP2 ADD DUP2 SWAP1 SSTORE DUP6 DUP2 MSTORE PUSH1 0x3 PUSH1 0x20 DUP2 DUP2 MSTORE PUSH1 0x40 DUP1 DUP5 KECCAK256 PUSH1 0x1 DUP1 DUP3 ADD DUP1 SLOAD PUSH1 0x1 PUSH1 0x1 PUSH1 0xA0 SHL SUB DUP1 DUP14 AND PUSH1 0x1 PUSH1 0x1 PUSH1 0xA0 SHL SUB NOT SWAP3 DUP4 AND DUP2 OR DUP5 SSTORE DUP10 MSTORE PUSH1 0x5 DUP8 MSTORE DUP6 DUP10 KECCAK256 DUP15 DUP11 MSTORE SWAP1 SWAP7 MSTORE SWAP4 SWAP1 SWAP7 KECCAK256 DUP3 SLOAD DUP2 SLOAD DUP6 AND SWAP1 DUP7 AND OR DUP2 SSTORE SWAP6 SLOAD SWAP1 DUP7 ADD DUP1 SLOAD DUP5 AND SWAP2 DUP6 AND SWAP2 SWAP1 SWAP2 OR SWAP1 SSTORE PUSH1 0x2 DUP1 DUP3 ADD SLOAD SWAP1 DUP7 ADD DUP1 SLOAD SWAP1 SWAP4 AND SWAP4 AND SWAP3 SWAP1 SWAP3 OR SWAP1 SSTORE DUP1 DUP3 ADD SLOAD SWAP2 DUP4 ADD SWAP2 SWAP1 SWAP2 SSTORE PUSH1 0x4 DUP1 DUP3 ADD DUP1 SLOAD SWAP3 SWAP4 SWAP3 PUSH2 0x19E1 SWAP3 DUP5 ADD SWAP2 SWAP1 PUSH2 0x5953 JUMP JUMPDEST POP PUSH1 0x5 DUP3 DUP2 ADD SLOAD SWAP1 DUP3 ADD DUP1 SLOAD PUSH1 0xFF SWAP1 SWAP3 AND SWAP2 PUSH1 0xFF NOT AND PUSH1 0x1 DUP4 PUSH1 0x2 DUP2 GT ISZERO PUSH2 0x1A05 JUMPI INVALID JUMPDEST MUL OR SWAP1 SSTORE POP PUSH1 0x6 DUP3 DUP2 ADD DUP1 SLOAD PUSH2 0x1A1E SWAP3 DUP5 ADD SWAP2 SWAP1 PUSH2 0x5953 JUMP JUMPDEST POP PUSH1 0x7 DUP3 DUP2 ADD SLOAD SWAP1 DUP3 ADD SSTORE PUSH1 0x8 SWAP2 DUP3 ADD SLOAD SWAP2 ADD SSTORE PUSH1 0x40 MLOAD PUSH32 0x570B9297EF9982646A5B51A09A56E2F1AAD24A61C8DAF045803C4569DDD2AF1E SWAP1 PUSH2 0x1A66 SWAP1 DUP8 SWAP1 CALLER SWAP1 DUP9 SWAP1 PUSH2 0x6ABB JUMP JUMPDEST PUSH1 0x40 MLOAD DUP1 SWAP2 SUB SWAP1 LOG1 POP POP POP POP POP JUMP JUMPDEST PUSH2 0x1A7D PUSH2 0x537A JUMP JUMPDEST PUSH1 0x1 PUSH1 0x1 PUSH1 0xA0 SHL SUB AND PUSH2 0x1A8E PUSH2 0x3BE9 JUMP JUMPDEST PUSH1 0x1 PUSH1 0x1 PUSH1 0xA0 SHL SUB AND EQ PUSH2 0x1AB4 JUMPI PUSH1 0x40 MLOAD PUSH3 0x461BCD PUSH1 0xE5 SHL DUP2 MSTORE PUSH1 0x4 ADD PUSH2 0x1278 SWAP1 PUSH2 0x66E8 JUMP JUMPDEST PUSH1 0x1 PUSH1 0x1 PUSH1 0xA0 SHL SUB DUP2 AND PUSH2 0x1ADA JUMPI PUSH1 0x40 MLOAD PUSH3 0x461BCD PUSH1 0xE5 SHL DUP2 MSTORE PUSH1 0x4 ADD PUSH2 0x1278 SWAP1 PUSH2 0x65CB JUMP JUMPDEST PUSH1 0x11 DUP1 SLOAD PUSH1 0x1 PUSH1 0x1 PUSH1 0xA0 SHL SUB NOT AND PUSH1 0x1 PUSH1 0x1 PUSH1 0xA0 SHL SUB SWAP3 SWAP1 SWAP3 AND SWAP2 SWAP1 SWAP2 OR SWAP1 SSTORE JUMP JUMPDEST PUSH1 0x2 SLOAD SWAP1 JUMP JUMPDEST PUSH1 0x0 DUP2 DUP2 MSTORE PUSH1 0x3 PUSH1 0x20 DUP2 DUP2 MSTORE PUSH1 0x40 DUP1 DUP5 KECCAK256 DUP1 SLOAD PUSH1 0x1 DUP3 ADD SLOAD PUSH1 0x2 DUP4 ADD SLOAD SWAP6 DUP4 ADD SLOAD PUSH1 0x5 DUP5 ADD SLOAD PUSH1 0x7 DUP6 ADD SLOAD PUSH1 0x8 DUP7 ADD SLOAD PUSH1 0x4 DUP8 ADD DUP1 SLOAD DUP10 MLOAD DUP2 DUP13 MUL DUP2 ADD DUP13 ADD SWAP1 SWAP11 MSTORE DUP1 DUP11 MSTORE DUP13 SWAP12 DUP13 SWAP12 DUP13 SWAP12 PUSH1 0x60 SWAP12 DUP14 SWAP12 DUP14 SWAP12 DUP14 SWAP12 DUP13 SWAP12 SWAP4 SWAP11 PUSH1 0x1 PUSH1 0x1 PUSH1 0xA0 SHL SUB SWAP4 DUP5 AND SWAP11 SWAP3 DUP5 AND SWAP10 SWAP8 SWAP1 SWAP4 AND SWAP8 SWAP1 SWAP7 SWAP6 PUSH1 0xFF SWAP1 SWAP5 AND SWAP5 PUSH1 0x6 DUP13 ADD SWAP5 SWAP1 SWAP2 DUP8 SWAP2 DUP4 ADD DUP3 DUP3 DUP1 ISZERO PUSH2 0x1BB0 JUMPI PUSH1 0x20 MUL DUP3 ADD SWAP2 SWAP1 PUSH1 0x0 MSTORE PUSH1 0x20 PUSH1 0x0 KECCAK256 SWAP1 JUMPDEST DUP2 SLOAD DUP2 MSTORE PUSH1 0x20 ADD SWAP1 PUSH1 0x1 ADD SWAP1 DUP1 DUP4 GT PUSH2 0x1B9C JUMPI JUMPDEST POP POP POP POP POP SWAP5 POP DUP3 DUP1 SLOAD DUP1 PUSH1 0x20 MUL PUSH1 0x20 ADD PUSH1 0x40 MLOAD SWAP1 DUP2 ADD PUSH1 0x40 MSTORE DUP1 SWAP3 SWAP2 SWAP1 DUP2 DUP2 MSTORE PUSH1 0x20 ADD DUP3 DUP1 SLOAD DUP1 ISZERO PUSH2 0x1C02 JUMPI PUSH1 0x20 MUL DUP3 ADD SWAP2 SWAP1 PUSH1 0x0 MSTORE PUSH1 0x20 PUSH1 0x0 KECCAK256 SWAP1 JUMPDEST DUP2 SLOAD DUP2 MSTORE PUSH1 0x20 ADD SWAP1 PUSH1 0x1 ADD SWAP1 DUP1 DUP4 GT PUSH2 0x1BEE JUMPI JUMPDEST POP POP POP POP POP SWAP3 POP SWAP10 POP SWAP10 POP SWAP10 POP SWAP10 POP SWAP10 POP SWAP10 POP SWAP10 POP SWAP10 POP SWAP10 POP POP SWAP2 SWAP4 SWAP6 SWAP8 SWAP10 SWAP1 SWAP3 SWAP5 SWAP7 SWAP9 POP JUMP JUMPDEST PUSH1 0x23 SLOAD SWAP1 JUMP JUMPDEST PUSH1 0x0 DUP3 DUP2 MSTORE PUSH1 0x3 PUSH1 0x20 MSTORE PUSH1 0x40 SWAP1 KECCAK256 PUSH1 0x1 ADD SLOAD DUP3 SWAP1 PUSH1 0x1 PUSH1 0x1 PUSH1 0xA0 SHL SUB AND CALLER EQ PUSH2 0x1C6A JUMPI PUSH1 0x40 MLOAD PUSH3 0x461BCD PUSH1 0xE5 SHL DUP2 MSTORE PUSH1 0x4 ADD PUSH2 0x1278 SWAP1 PUSH2 0x64CB JUMP JUMPDEST PUSH1 0x0 DUP4 DUP2 MSTORE PUSH1 0x3 PUSH1 0x20 MSTORE PUSH1 0x40 SWAP1 KECCAK256 PUSH1 0x7 ADD SLOAD TIMESTAMP DUP2 GT PUSH2 0x1C9B JUMPI PUSH1 0x40 MLOAD PUSH3 0x461BCD PUSH1 0xE5 SHL DUP2 MSTORE PUSH1 0x4 ADD PUSH2 0x1278 SWAP1 PUSH2 0x6244 JUMP JUMPDEST DUP3 PUSH1 0x20 DUP2 SWAP1 SSTORE POP DUP4 PUSH32 0xD426195495073EC4A9D9805A3FA80F425C189F701DE7C9426266B8C965ACCE31 DUP5 PUSH1 0x40 MLOAD PUSH2 0x12E9 SWAP2 SWAP1 PUSH2 0x6A9B JUMP JUMPDEST PUSH1 0x6 PUSH1 0x20 MSTORE PUSH1 0x0 SWAP1 DUP2 MSTORE PUSH1 0x40 SWAP1 KECCAK256 DUP1 SLOAD PUSH1 0x1 DUP3 ADD SLOAD PUSH1 0x2 DUP4 ADD SLOAD PUSH1 0x3 DUP5 ADD SLOAD PUSH1 0x5 DUP6 ADD SLOAD PUSH1 0x7 DUP7 ADD SLOAD PUSH1 0x8 SWAP1 SWAP7 ADD SLOAD PUSH1 0x1 PUSH1 0x1 PUSH1 0xA0 SHL SUB SWAP6 DUP7 AND SWAP7 SWAP5 DUP7 AND SWAP6 SWAP1 SWAP4 AND SWAP4 SWAP2 SWAP3 PUSH1 0xFF SWAP1 SWAP2 AND SWAP2 SWAP1 DUP8 JUMP JUMPDEST PUSH1 0x0 DUP3 DUP2 MSTORE PUSH1 0x3 PUSH1 0x20 MSTORE PUSH1 0x40 SWAP1 KECCAK256 PUSH1 0x1 ADD SLOAD DUP3 SWAP1 PUSH1 0x1 PUSH1 0x1 PUSH1 0xA0 SHL SUB AND CALLER EQ PUSH2 0x1D5C JUMPI PUSH1 0x40 MLOAD PUSH3 0x461BCD PUSH1 0xE5 SHL DUP2 MSTORE PUSH1 0x4 ADD PUSH2 0x1278 SWAP1 PUSH2 0x64CB JUMP JUMPDEST POP PUSH1 0x1E SSTORE POP JUMP JUMPDEST PUSH1 0x22 SLOAD DUP2 JUMP JUMPDEST PUSH1 0x7 PUSH1 0x20 MSTORE PUSH1 0x0 SWAP1 DUP2 MSTORE PUSH1 0x40 SWAP1 KECCAK256 DUP1 SLOAD PUSH1 0x1 DUP3 ADD SLOAD PUSH1 0x2 SWAP1 SWAP3 ADD SLOAD SWAP1 SWAP2 SWAP1 DUP4 JUMP JUMPDEST PUSH1 0x1 DUP1 JUMPDEST PUSH3 0x186A0 DUP2 GT PUSH2 0x1DA4 JUMPI SWAP1 DUP2 MUL SWAP1 PUSH1 0x1 ADD PUSH2 0x1D8E JUMP JUMPDEST POP PUSH3 0x186A0 GAS GT PUSH2 0x14F0 JUMPI PUSH1 0x40 MLOAD PUSH3 0x461BCD PUSH1 0xE5 SHL DUP2 MSTORE PUSH1 0x4 ADD PUSH2 0x1278 SWAP1 PUSH2 0x607D JUMP JUMPDEST PUSH1 0x0 DUP3 DUP2 MSTORE PUSH1 0x3 PUSH1 0x20 MSTORE PUSH1 0x40 SWAP1 KECCAK256 PUSH1 0x1 ADD SLOAD DUP3 SWAP1 PUSH1 0x1 PUSH1 0x1 PUSH1 0xA0 SHL SUB AND CALLER EQ PUSH2 0x1E02 JUMPI PUSH1 0x40 MLOAD PUSH3 0x461BCD PUSH1 0xE5 SHL DUP2 MSTORE PUSH1 0x4 ADD PUSH2 0x1278 SWAP1 PUSH2 0x64CB JUMP JUMPDEST PUSH1 0x0 DUP4 DUP2 MSTORE PUSH1 0x3 PUSH1 0x20 MSTORE PUSH1 0x40 SWAP1 KECCAK256 PUSH1 0x7 ADD SLOAD TIMESTAMP DUP2 GT PUSH2 0x1E33 JUMPI PUSH1 0x40 MLOAD PUSH3 0x461BCD PUSH1 0xE5 SHL DUP2 MSTORE PUSH1 0x4 ADD PUSH2 0x1278 SWAP1 PUSH2 0x6244 JUMP JUMPDEST DUP3 PUSH1 0x1D DUP2 SWAP1 SSTORE POP DUP4 PUSH32 0xE16A6DD3C7A1A4A15A5D0E545E58617EC3B966456C5B63C9B2615CD01D677438 DUP5 PUSH1 0x40 MLOAD PUSH2 0x12E9 SWAP2 SWAP1 PUSH2 0x6A9B JUMP JUMPDEST PUSH1 0x0 DUP2 DUP2 MSTORE PUSH1 0x3 PUSH1 0x20 MSTORE PUSH1 0x40 SWAP1 KECCAK256 PUSH1 0x7 ADD SLOAD TIMESTAMP DUP2 GT PUSH2 0x1E9B JUMPI PUSH1 0x40 MLOAD PUSH3 0x461BCD PUSH1 0xE5 SHL DUP2 MSTORE PUSH1 0x4 ADD PUSH2 0x1278 SWAP1 PUSH2 0x6244 JUMP JUMPDEST PUSH1 0x0 DUP3 DUP2 MSTORE PUSH1 0x3 PUSH1 0x20 MSTORE PUSH1 0x40 SWAP1 KECCAK256 PUSH1 0x7 ADD SLOAD DUP3 SWAP1 TIMESTAMP LT PUSH2 0x1ECD JUMPI PUSH1 0x40 MLOAD PUSH3 0x461BCD PUSH1 0xE5 SHL DUP2 MSTORE PUSH1 0x4 ADD PUSH2 0x1278 SWAP1 PUSH2 0x67E8 JUMP JUMPDEST PUSH1 0x0 DUP4 DUP2 MSTORE PUSH1 0x3 PUSH1 0x20 MSTORE PUSH1 0x40 SWAP1 KECCAK256 PUSH1 0x7 ADD SLOAD DUP4 SWAP1 TIMESTAMP LT PUSH2 0x1EFF JUMPI PUSH1 0x40 MLOAD PUSH3 0x461BCD PUSH1 0xE5 SHL DUP2 MSTORE PUSH1 0x4 ADD PUSH2 0x1278 SWAP1 PUSH2 0x688B JUMP JUMPDEST PUSH3 0x30D40 GAS GT PUSH2 0x1F21 JUMPI PUSH1 0x40 MLOAD PUSH3 0x461BCD PUSH1 0xE5 SHL DUP2 MSTORE PUSH1 0x4 ADD PUSH2 0x1278 SWAP1 PUSH2 0x607D JUMP JUMPDEST PUSH1 0x1 PUSH1 0x0 DUP6 DUP2 MSTORE PUSH1 0x3 PUSH1 0x20 MSTORE PUSH1 0x40 SWAP1 KECCAK256 PUSH1 0x5 ADD SLOAD PUSH1 0xFF AND PUSH1 0x2 DUP2 GT ISZERO PUSH2 0x1F43 JUMPI INVALID JUMPDEST EQ PUSH2 0x1F60 JUMPI PUSH1 0x40 MLOAD PUSH3 0x461BCD PUSH1 0xE5 SHL DUP2 MSTORE PUSH1 0x4 ADD PUSH2 0x1278 SWAP1 PUSH2 0x6639 JUMP JUMPDEST PUSH1 0x0 PUSH1 0x26 SLOAD GT PUSH2 0x1F82 JUMPI PUSH1 0x40 MLOAD PUSH3 0x461BCD PUSH1 0xE5 SHL DUP2 MSTORE PUSH1 0x4 ADD PUSH2 0x1278 SWAP1 PUSH2 0x6528 JUMP JUMPDEST PUSH1 0x0 DUP1 DUP1 JUMPDEST PUSH1 0x0 DUP8 DUP2 MSTORE PUSH1 0x3 PUSH1 0x20 MSTORE PUSH1 0x40 SWAP1 KECCAK256 PUSH1 0x6 ADD SLOAD DUP2 LT ISZERO PUSH2 0x1FE6 JUMPI PUSH1 0x0 DUP8 DUP2 MSTORE PUSH1 0x3 PUSH1 0x20 MSTORE PUSH1 0x40 SWAP1 KECCAK256 PUSH1 0x6 ADD DUP1 SLOAD PUSH2 0x1FDC SWAP2 SWAP1 DUP4 SWAP1 DUP2 LT PUSH2 0x1FC2 JUMPI INVALID JUMPDEST SWAP1 PUSH1 0x0 MSTORE PUSH1 0x20 PUSH1 0x0 KECCAK256 ADD SLOAD DUP5 PUSH2 0x534E SWAP1 SWAP2 SWAP1 PUSH4 0xFFFFFFFF AND JUMP JUMPDEST SWAP3 POP PUSH1 0x1 ADD PUSH2 0x1F87 JUMP JUMPDEST POP PUSH1 0x0 JUMPDEST PUSH1 0x0 DUP8 DUP2 MSTORE PUSH1 0x3 PUSH1 0x20 MSTORE PUSH1 0x40 SWAP1 KECCAK256 PUSH1 0x4 ADD SLOAD DUP2 LT ISZERO PUSH2 0x2075 JUMPI PUSH1 0x0 DUP8 DUP2 MSTORE PUSH1 0x3 PUSH1 0x20 MSTORE PUSH1 0x40 SWAP1 KECCAK256 PUSH1 0x8 DUP2 ADD SLOAD PUSH1 0x4 SWAP1 SWAP2 ADD DUP1 SLOAD PUSH2 0x206B SWAP3 PUSH2 0x205E SWAP3 SWAP1 SWAP2 PUSH2 0x2052 SWAP2 SWAP1 DUP7 SWAP1 DUP2 LT PUSH2 0x2036 JUMPI INVALID JUMPDEST SWAP1 PUSH1 0x0 MSTORE PUSH1 0x20 PUSH1 0x0 KECCAK256 ADD SLOAD PUSH1 0x26 SLOAD PUSH2 0x537E SWAP1 SWAP2 SWAP1 PUSH4 0xFFFFFFFF AND JUMP JUMPDEST SWAP1 PUSH4 0xFFFFFFFF PUSH2 0x53B8 AND JUMP JUMPDEST DUP4 SWAP1 PUSH4 0xFFFFFFFF PUSH2 0x534E AND JUMP JUMPDEST SWAP2 POP PUSH1 0x1 ADD PUSH2 0x1FEA JUMP JUMPDEST POP DUP2 DUP2 LT ISZERO PUSH2 0x2096 JUMPI PUSH1 0x40 MLOAD PUSH3 0x461BCD PUSH1 0xE5 SHL DUP2 MSTORE PUSH1 0x4 ADD PUSH2 0x1278 SWAP1 PUSH2 0x63DA JUMP JUMPDEST PUSH1 0x0 DUP7 DUP2 MSTORE PUSH1 0x3 PUSH1 0x20 DUP2 SWAP1 MSTORE PUSH1 0x40 SWAP2 DUP3 SWAP1 KECCAK256 PUSH1 0x2 DUP2 ADD SLOAD PUSH1 0x1 DUP3 ADD SLOAD SWAP2 SWAP1 SWAP3 ADD SLOAD SWAP3 MLOAD PUSH4 0xA9059CBB PUSH1 0xE0 SHL DUP2 MSTORE PUSH1 0x1 PUSH1 0x1 PUSH1 0xA0 SHL SUB SWAP3 DUP4 AND SWAP4 PUSH4 0xA9059CBB SWAP4 PUSH2 0x20E3 SWAP4 AND SWAP2 PUSH1 0x4 ADD PUSH2 0x5E3D JUMP JUMPDEST PUSH1 0x20 PUSH1 0x40 MLOAD DUP1 DUP4 SUB DUP2 PUSH1 0x0 DUP8 DUP1 EXTCODESIZE ISZERO DUP1 ISZERO PUSH2 0x20FD JUMPI PUSH1 0x0 DUP1 REVERT JUMPDEST POP GAS CALL ISZERO DUP1 ISZERO PUSH2 0x2111 JUMPI RETURNDATASIZE PUSH1 0x0 DUP1 RETURNDATACOPY RETURNDATASIZE PUSH1 0x0 REVERT JUMPDEST POP POP POP POP PUSH1 0x40 MLOAD RETURNDATASIZE PUSH1 0x1F NOT PUSH1 0x1F DUP3 ADD AND DUP3 ADD DUP1 PUSH1 0x40 MSTORE POP DUP2 ADD SWAP1 PUSH2 0x2135 SWAP2 SWAP1 PUSH2 0x5BC6 JUMP JUMPDEST PUSH2 0x2151 JUMPI PUSH1 0x40 MLOAD PUSH3 0x461BCD PUSH1 0xE5 SHL DUP2 MSTORE PUSH1 0x4 ADD PUSH2 0x1278 SWAP1 PUSH2 0x6397 JUMP JUMPDEST PUSH1 0x0 DUP7 DUP2 MSTORE PUSH1 0x3 PUSH1 0x20 SWAP1 DUP2 MSTORE PUSH1 0x40 DUP1 DUP4 KECCAK256 PUSH1 0x2 DUP2 ADD SLOAD SWAP1 SLOAD PUSH1 0x7 SWAP1 SWAP4 MSTORE SWAP3 DUP2 SWAP1 KECCAK256 PUSH1 0x1 ADD SLOAD SWAP1 MLOAD PUSH4 0xA9059CBB PUSH1 0xE0 SHL DUP2 MSTORE PUSH1 0x1 PUSH1 0x1 PUSH1 0xA0 SHL SUB SWAP4 DUP5 AND SWAP4 PUSH4 0xA9059CBB SWAP4 PUSH2 0x21A3 SWAP4 SWAP2 AND SWAP2 PUSH1 0x4 ADD PUSH2 0x5E3D JUMP JUMPDEST PUSH1 0x20 PUSH1 0x40 MLOAD DUP1 DUP4 SUB DUP2 PUSH1 0x0 DUP8 DUP1 EXTCODESIZE ISZERO DUP1 ISZERO PUSH2 0x21BD JUMPI PUSH1 0x0 DUP1 REVERT JUMPDEST POP GAS CALL ISZERO DUP1 ISZERO PUSH2 0x21D1 JUMPI RETURNDATASIZE PUSH1 0x0 DUP1 RETURNDATACOPY RETURNDATASIZE PUSH1 0x0 REVERT JUMPDEST POP POP POP POP PUSH1 0x40 MLOAD RETURNDATASIZE PUSH1 0x1F NOT PUSH1 0x1F DUP3 ADD AND DUP3 ADD DUP1 PUSH1 0x40 MSTORE POP DUP2 ADD SWAP1 PUSH2 0x21F5 SWAP2 SWAP1 PUSH2 0x5BC6 JUMP JUMPDEST PUSH2 0x2211 JUMPI PUSH1 0x40 MLOAD PUSH3 0x461BCD PUSH1 0xE5 SHL DUP2 MSTORE PUSH1 0x4 ADD PUSH2 0x1278 SWAP1 PUSH2 0x6046 JUMP JUMPDEST CALLER PUSH1 0x0 SWAP1 DUP2 MSTORE PUSH1 0x5 PUSH1 0x20 SWAP1 DUP2 MSTORE PUSH1 0x40 DUP1 DUP4 KECCAK256 DUP10 DUP5 MSTORE SWAP1 SWAP2 MSTORE DUP2 KECCAK256 DUP1 SLOAD PUSH1 0x1 PUSH1 0x1 PUSH1 0xA0 SHL SUB NOT SWAP1 DUP2 AND DUP3 SSTORE PUSH1 0x1 DUP3 ADD DUP1 SLOAD DUP3 AND SWAP1 SSTORE PUSH1 0x2 DUP3 ADD DUP1 SLOAD SWAP1 SWAP2 AND SWAP1 SSTORE PUSH1 0x3 DUP2 ADD DUP3 SWAP1 SSTORE SWAP1 PUSH2 0x2265 PUSH1 0x4 DUP4 ADD DUP3 PUSH2 0x5993 JUMP JUMPDEST PUSH1 0x5 DUP3 ADD DUP1 SLOAD PUSH1 0xFF NOT AND SWAP1 SSTORE PUSH2 0x227F PUSH1 0x6 DUP4 ADD PUSH1 0x0 PUSH2 0x5993 JUMP JUMPDEST POP PUSH1 0x0 PUSH1 0x7 DUP3 ADD DUP2 SWAP1 SSTORE PUSH1 0x8 SWAP1 SWAP2 ADD DUP2 SWAP1 SSTORE CALLER DUP2 MSTORE PUSH1 0x4 PUSH1 0x20 DUP2 DUP2 MSTORE PUSH1 0x40 DUP1 DUP5 KECCAK256 DUP11 DUP6 MSTORE SWAP1 SWAP2 MSTORE DUP3 KECCAK256 DUP1 SLOAD PUSH1 0x1 PUSH1 0x1 PUSH1 0xA0 SHL SUB NOT SWAP1 DUP2 AND DUP3 SSTORE PUSH1 0x1 DUP3 ADD DUP1 SLOAD DUP3 AND SWAP1 SSTORE PUSH1 0x2 DUP3 ADD DUP1 SLOAD SWAP1 SWAP2 AND SWAP1 SSTORE PUSH1 0x3 DUP2 ADD DUP4 SWAP1 SSTORE SWAP2 SWAP1 PUSH2 0x22E2 SWAP1 DUP4 ADD DUP3 PUSH2 0x5993 JUMP JUMPDEST PUSH1 0x5 DUP3 ADD DUP1 SLOAD PUSH1 0xFF NOT AND SWAP1 SSTORE PUSH2 0x22FC PUSH1 0x6 DUP4 ADD PUSH1 0x0 PUSH2 0x5993 JUMP JUMPDEST POP PUSH1 0x0 PUSH1 0x7 DUP3 ADD DUP2 SWAP1 SSTORE PUSH1 0x8 SWAP1 SWAP2 ADD DUP2 SWAP1 SSTORE DUP7 DUP2 MSTORE PUSH1 0x3 PUSH1 0x20 DUP2 SWAP1 MSTORE PUSH1 0x40 DUP3 KECCAK256 DUP1 SLOAD PUSH1 0x1 PUSH1 0x1 PUSH1 0xA0 SHL SUB NOT SWAP1 DUP2 AND DUP3 SSTORE PUSH1 0x1 DUP3 ADD DUP1 SLOAD DUP3 AND SWAP1 SSTORE PUSH1 0x2 DUP3 ADD DUP1 SLOAD SWAP1 SWAP2 AND SWAP1 SSTORE SWAP1 DUP2 ADD DUP3 SWAP1 SSTORE SWAP1 PUSH2 0x2355 PUSH1 0x4 DUP4 ADD DUP3 PUSH2 0x5993 JUMP JUMPDEST PUSH1 0x5 DUP3 ADD DUP1 SLOAD PUSH1 0xFF NOT AND SWAP1 SSTORE PUSH2 0x236F PUSH1 0x6 DUP4 ADD PUSH1 0x0 PUSH2 0x5993 JUMP JUMPDEST POP PUSH1 0x0 PUSH1 0x7 DUP3 DUP2 ADD DUP3 SWAP1 SSTORE PUSH1 0x8 SWAP1 SWAP3 ADD DUP2 SWAP1 SSTORE DUP8 DUP2 MSTORE PUSH1 0x20 SWAP2 DUP3 MSTORE PUSH1 0x40 DUP1 DUP3 KECCAK256 DUP3 DUP2 SSTORE PUSH1 0x1 DUP1 DUP3 ADD DUP5 SWAP1 SSTORE PUSH1 0x2 SWAP2 DUP3 ADD DUP5 SWAP1 SSTORE PUSH1 0x6 SWAP1 SWAP5 MSTORE SWAP1 DUP3 KECCAK256 DUP1 SLOAD PUSH1 0x1 PUSH1 0x1 PUSH1 0xA0 SHL SUB NOT SWAP1 DUP2 AND DUP3 SSTORE SWAP4 DUP2 ADD DUP1 SLOAD DUP6 AND SWAP1 SSTORE SWAP1 DUP2 ADD DUP1 SLOAD SWAP1 SWAP4 AND SWAP1 SWAP3 SSTORE PUSH1 0x3 DUP3 ADD DUP2 SWAP1 SSTORE PUSH2 0x23E2 PUSH1 0x4 DUP4 ADD DUP3 PUSH2 0x5993 JUMP JUMPDEST PUSH1 0x5 DUP3 ADD DUP1 SLOAD PUSH1 0xFF NOT AND SWAP1 SSTORE PUSH2 0x23FC PUSH1 0x6 DUP4 ADD PUSH1 0x0 PUSH2 0x5993 JUMP JUMPDEST POP PUSH1 0x0 PUSH1 0x7 DUP3 ADD DUP2 SWAP1 SSTORE PUSH1 0x8 SWAP1 SWAP2 ADD SSTORE PUSH1 0x40 MLOAD CALLER SWAP1 PUSH32 0x72FC7139226E4349B3CF7BAA2FD3ACA128897923FEA219A0D0D13CCEC626F831 SWAP1 PUSH2 0x2442 SWAP1 DUP10 SWAP1 DUP6 SWAP1 DUP8 SWAP1 PUSH2 0x6B47 JUMP JUMPDEST PUSH1 0x40 MLOAD DUP1 SWAP2 SUB SWAP1 LOG2 POP POP POP POP POP POP JUMP JUMPDEST PUSH1 0x0 PUSH1 0x0 NOT DUP2 JUMPDEST PUSH1 0x0 DUP5 DUP2 MSTORE PUSH1 0x3 PUSH1 0x20 MSTORE PUSH1 0x40 SWAP1 KECCAK256 PUSH1 0x6 ADD SLOAD DUP2 LT ISZERO PUSH2 0x24F0 JUMPI PUSH1 0x0 DUP5 DUP2 MSTORE PUSH1 0xF PUSH1 0x20 SWAP1 DUP2 MSTORE PUSH1 0x40 DUP1 DUP4 KECCAK256 PUSH1 0x3 SWAP1 SWAP3 MSTORE DUP3 KECCAK256 PUSH1 0x6 ADD DUP1 SLOAD DUP4 SWAP2 SWAP1 DUP6 SWAP1 DUP2 LT PUSH2 0x249C JUMPI INVALID JUMPDEST PUSH1 0x0 SWAP2 DUP3 MSTORE PUSH1 0x20 DUP1 DUP4 KECCAK256 SWAP1 SWAP2 ADD SLOAD DUP4 MSTORE DUP3 DUP2 ADD SWAP4 SWAP1 SWAP4 MSTORE PUSH1 0x40 SWAP2 DUP3 ADD DUP2 KECCAK256 SLOAD DUP9 DUP3 MSTORE PUSH1 0x9 DUP5 MSTORE DUP3 DUP3 KECCAK256 PUSH1 0x1 PUSH1 0x1 PUSH1 0xA0 SHL SUB SWAP1 SWAP2 AND DUP1 DUP4 MSTORE SWAP4 MSTORE KECCAK256 SLOAD SWAP1 SWAP2 POP DUP4 DUP2 LT ISZERO PUSH2 0x24E6 JUMPI DUP1 SWAP4 POP JUMPDEST POP POP PUSH1 0x1 ADD PUSH2 0x2459 JUMP JUMPDEST POP SWAP3 SWAP2 POP POP JUMP JUMPDEST PUSH1 0x0 DUP3 DUP2 MSTORE PUSH1 0x3 PUSH1 0x20 MSTORE PUSH1 0x40 SWAP1 KECCAK256 PUSH1 0x1 ADD SLOAD DUP3 SWAP1 PUSH1 0x1 PUSH1 0x1 PUSH1 0xA0 SHL SUB AND CALLER EQ PUSH2 0x2532 JUMPI PUSH1 0x40 MLOAD PUSH3 0x461BCD PUSH1 0xE5 SHL DUP2 MSTORE PUSH1 0x4 ADD PUSH2 0x1278 SWAP1 PUSH2 0x64CB JUMP JUMPDEST PUSH1 0x0 DUP4 DUP2 MSTORE PUSH1 0x3 PUSH1 0x20 MSTORE PUSH1 0x40 SWAP1 KECCAK256 PUSH1 0x7 ADD SLOAD TIMESTAMP DUP2 GT PUSH2 0x2563 JUMPI PUSH1 0x40 MLOAD PUSH3 0x461BCD PUSH1 0xE5 SHL DUP2 MSTORE PUSH1 0x4 ADD PUSH2 0x1278 SWAP1 PUSH2 0x6244 JUMP JUMPDEST PUSH1 0x0 DUP5 DUP2 MSTORE PUSH1 0x3 PUSH1 0x20 MSTORE PUSH1 0x40 SWAP1 KECCAK256 PUSH1 0x7 ADD SLOAD PUSH2 0x2585 SWAP1 DUP5 PUSH4 0xFFFFFFFF PUSH2 0x534E AND JUMP JUMPDEST PUSH1 0x0 DUP6 DUP2 MSTORE PUSH1 0x3 PUSH1 0x20 MSTORE PUSH1 0x40 SWAP1 DUP2 SWAP1 KECCAK256 PUSH1 0x7 ADD SWAP2 SWAP1 SWAP2 SSTORE MLOAD DUP5 SWAP1 PUSH32 0x73693F148AFC35383D1BC2D56EF315DFC19A9B9643AA2F3C1B5924CBAB1AD08E SWAP1 PUSH2 0x12E9 SWAP1 DUP7 SWAP1 PUSH2 0x6A9B JUMP JUMPDEST PUSH1 0x8 PUSH1 0x20 SWAP1 DUP2 MSTORE PUSH1 0x0 SWAP3 DUP4 MSTORE PUSH1 0x40 DUP1 DUP5 KECCAK256 SWAP1 SWAP2 MSTORE SWAP1 DUP3 MSTORE SWAP1 KECCAK256 SLOAD DUP2 JUMP JUMPDEST PUSH1 0x1 SLOAD PUSH1 0x1 PUSH1 0x1 PUSH1 0xA0 SHL SUB AND CALLER EQ PUSH2 0x2613 JUMPI PUSH1 0x40 MLOAD PUSH3 0x461BCD PUSH1 0xE5 SHL DUP2 MSTORE PUSH1 0x4 ADD PUSH2 0x1278 SWAP1 PUSH2 0x698D JUMP JUMPDEST PUSH1 0x29 SLOAD PUSH1 0xFF AND PUSH2 0x2635 JUMPI PUSH1 0x40 MLOAD PUSH3 0x461BCD PUSH1 0xE5 SHL DUP2 MSTORE PUSH1 0x4 ADD PUSH2 0x1278 SWAP1 PUSH2 0x6602 JUMP JUMPDEST PUSH1 0x29 DUP1 SLOAD PUSH1 0xFF NOT AND SWAP1 SSTORE JUMP JUMPDEST PUSH1 0x1 SLOAD PUSH1 0x1 PUSH1 0x1 PUSH1 0xA0 SHL SUB AND CALLER EQ PUSH2 0x266B JUMPI PUSH1 0x40 MLOAD PUSH3 0x461BCD PUSH1 0xE5 SHL DUP2 MSTORE PUSH1 0x4 ADD PUSH2 0x1278 SWAP1 PUSH2 0x698D JUMP JUMPDEST PUSH1 0x1 PUSH1 0x1 PUSH1 0xA0 SHL SUB DUP2 AND PUSH2 0x2691 JUMPI PUSH1 0x40 MLOAD PUSH3 0x461BCD PUSH1 0xE5 SHL DUP2 MSTORE PUSH1 0x4 ADD PUSH2 0x1278 SWAP1 PUSH2 0x61D6 JUMP JUMPDEST PUSH1 0x10 DUP1 SLOAD PUSH1 0x1 PUSH1 0x1 PUSH1 0xA0 SHL SUB NOT AND PUSH1 0x1 PUSH1 0x1 PUSH1 0xA0 SHL SUB SWAP3 SWAP1 SWAP3 AND SWAP2 SWAP1 SWAP2 OR SWAP1 SSTORE JUMP JUMPDEST CALLER PUSH2 0x26D0 JUMPI PUSH1 0x40 MLOAD PUSH3 0x461BCD PUSH1 0xE5 SHL DUP2 MSTORE PUSH1 0x4 ADD PUSH2 0x1278 SWAP1 PUSH2 0x600F JUMP JUMPDEST JUMP JUMPDEST PUSH1 0x0 NOT PUSH2 0x14F0 JUMP JUMPDEST PUSH1 0x0 DUP3 DUP2 MSTORE PUSH1 0x3 PUSH1 0x20 MSTORE PUSH1 0x40 SWAP1 KECCAK256 PUSH1 0x1 ADD SLOAD DUP3 SWAP1 PUSH1 0x1 PUSH1 0x1 PUSH1 0xA0 SHL SUB AND CALLER EQ PUSH2 0x2715 JUMPI PUSH1 0x40 MLOAD PUSH3 0x461BCD PUSH1 0xE5 SHL DUP2 MSTORE PUSH1 0x4 ADD PUSH2 0x1278 SWAP1 PUSH2 0x64CB JUMP JUMPDEST PUSH1 0x0 DUP4 DUP2 MSTORE PUSH1 0x3 PUSH1 0x20 MSTORE PUSH1 0x40 SWAP1 KECCAK256 PUSH1 0x7 ADD SLOAD TIMESTAMP DUP2 GT PUSH2 0x2746 JUMPI PUSH1 0x40 MLOAD PUSH3 0x461BCD PUSH1 0xE5 SHL DUP2 MSTORE PUSH1 0x4 ADD PUSH2 0x1278 SWAP1 PUSH2 0x6244 JUMP JUMPDEST DUP3 PUSH1 0x25 DUP2 SWAP1 SSTORE POP DUP4 PUSH32 0x739C545831EE1C004C8DC63DD2A25D90C684B3AD9B4E2B2A913D086CD8F95DDE DUP5 PUSH1 0x40 MLOAD PUSH2 0x12E9 SWAP2 SWAP1 PUSH2 0x6A9B JUMP JUMPDEST PUSH1 0x1E SLOAD DUP2 JUMP JUMPDEST CALLVALUE PUSH1 0x0 DUP2 GT PUSH2 0x27A4 JUMPI PUSH1 0x40 MLOAD PUSH3 0x461BCD PUSH1 0xE5 SHL DUP2 MSTORE PUSH1 0x4 ADD PUSH2 0x1278 SWAP1 PUSH2 0x678B JUMP JUMPDEST PUSH1 0x0 DUP4 DUP2 MSTORE PUSH1 0x3 PUSH1 0x20 MSTORE PUSH1 0x40 SWAP1 KECCAK256 PUSH1 0x7 ADD SLOAD TIMESTAMP DUP2 GT PUSH2 0x27D5 JUMPI PUSH1 0x40 MLOAD PUSH3 0x461BCD PUSH1 0xE5 SHL DUP2 MSTORE PUSH1 0x4 ADD PUSH2 0x1278 SWAP1 PUSH2 0x6244 JUMP JUMPDEST PUSH3 0x30D40 GAS GT PUSH2 0x27F7 JUMPI PUSH1 0x40 MLOAD PUSH3 0x461BCD PUSH1 0xE5 SHL DUP2 MSTORE PUSH1 0x4 ADD PUSH2 0x1278 SWAP1 PUSH2 0x607D JUMP JUMPDEST PUSH1 0x0 DUP5 DUP2 MSTORE PUSH1 0x3 PUSH1 0x20 MSTORE PUSH1 0x40 SWAP1 KECCAK256 PUSH1 0x7 ADD SLOAD DUP5 SWAP1 TIMESTAMP LT PUSH2 0x2829 JUMPI PUSH1 0x40 MLOAD PUSH3 0x461BCD PUSH1 0xE5 SHL DUP2 MSTORE PUSH1 0x4 ADD PUSH2 0x1278 SWAP1 PUSH2 0x67E8 JUMP JUMPDEST PUSH1 0x0 DUP6 DUP2 MSTORE PUSH1 0x7 PUSH1 0x20 MSTORE PUSH1 0x40 SWAP1 KECCAK256 PUSH1 0x2 ADD SLOAD DUP5 SWAP1 DUP2 ISZERO DUP1 ISZERO SWAP1 PUSH2 0x284C JUMPI POP DUP1 DUP3 GT ISZERO JUMPDEST PUSH2 0x2868 JUMPI PUSH1 0x40 MLOAD PUSH3 0x461BCD PUSH1 0xE5 SHL DUP2 MSTORE PUSH1 0x4 ADD PUSH2 0x1278 SWAP1 PUSH2 0x6411 JUMP JUMPDEST PUSH1 0x0 DUP8 DUP2 MSTORE PUSH1 0x7 PUSH1 0x20 MSTORE PUSH1 0x40 SWAP1 KECCAK256 PUSH1 0x2 ADD SLOAD PUSH1 0x26 SLOAD PUSH2 0x2892 SWAP2 SWAP1 PUSH2 0x2052 SWAP1 DUP10 PUSH4 0xFFFFFFFF PUSH2 0x537E AND JUMP JUMPDEST CALLVALUE EQ PUSH2 0x28B0 JUMPI PUSH1 0x40 MLOAD PUSH3 0x461BCD PUSH1 0xE5 SHL DUP2 MSTORE PUSH1 0x4 ADD PUSH2 0x1278 SWAP1 PUSH2 0x671D JUMP JUMPDEST PUSH1 0x0 DUP1 JUMPDEST PUSH1 0x0 DUP10 DUP2 MSTORE PUSH1 0x3 PUSH1 0x20 MSTORE PUSH1 0x40 SWAP1 KECCAK256 PUSH1 0x6 ADD SLOAD DUP2 LT ISZERO PUSH2 0x2913 JUMPI PUSH1 0x0 DUP10 DUP2 MSTORE PUSH1 0x3 PUSH1 0x20 MSTORE PUSH1 0x40 SWAP1 KECCAK256 PUSH1 0x6 ADD DUP1 SLOAD PUSH2 0x2909 SWAP2 SWAP1 DUP4 SWAP1 DUP2 LT PUSH2 0x28EF JUMPI INVALID JUMPDEST SWAP1 PUSH1 0x0 MSTORE PUSH1 0x20 PUSH1 0x0 KECCAK256 ADD SLOAD DUP4 PUSH2 0x534E SWAP1 SWAP2 SWAP1 PUSH4 0xFFFFFFFF AND JUMP JUMPDEST SWAP2 POP PUSH1 0x1 ADD PUSH2 0x28B4 JUMP JUMPDEST POP DUP1 CALLVALUE EQ PUSH2 0x2933 JUMPI PUSH1 0x40 MLOAD PUSH3 0x461BCD PUSH1 0xE5 SHL DUP2 MSTORE PUSH1 0x4 ADD PUSH2 0x1278 SWAP1 PUSH2 0x620D JUMP JUMPDEST PUSH1 0x0 DUP9 DUP2 MSTORE PUSH1 0x3 PUSH1 0x20 DUP2 SWAP1 MSTORE PUSH1 0x40 SWAP2 DUP3 SWAP1 KECCAK256 PUSH1 0x2 DUP2 ADD SLOAD PUSH1 0x1 DUP3 ADD SLOAD SWAP2 SWAP1 SWAP3 ADD SLOAD SWAP3 MLOAD PUSH4 0xA9059CBB PUSH1 0xE0 SHL DUP2 MSTORE PUSH1 0x1 PUSH1 0x1 PUSH1 0xA0 SHL SUB SWAP3 DUP4 AND SWAP4 PUSH4 0xA9059CBB SWAP4 PUSH2 0x2980 SWAP4 AND SWAP2 PUSH1 0x4 ADD PUSH2 0x5E3D JUMP JUMPDEST PUSH1 0x20 PUSH1 0x40 MLOAD DUP1 DUP4 SUB DUP2 PUSH1 0x0 DUP8 DUP1 EXTCODESIZE ISZERO DUP1 ISZERO PUSH2 0x299A JUMPI PUSH1 0x0 DUP1 REVERT JUMPDEST POP GAS CALL ISZERO DUP1 ISZERO PUSH2 0x29AE JUMPI RETURNDATASIZE PUSH1 0x0 DUP1 RETURNDATACOPY RETURNDATASIZE PUSH1 0x0 REVERT JUMPDEST POP POP POP POP PUSH1 0x40 MLOAD RETURNDATASIZE PUSH1 0x1F NOT PUSH1 0x1F DUP3 ADD AND DUP3 ADD DUP1 PUSH1 0x40 MSTORE POP DUP2 ADD SWAP1 PUSH2 0x29D2 SWAP2 SWAP1 PUSH2 0x5BC6 JUMP JUMPDEST PUSH2 0x29EE JUMPI PUSH1 0x40 MLOAD PUSH3 0x461BCD PUSH1 0xE5 SHL DUP2 MSTORE PUSH1 0x4 ADD PUSH2 0x1278 SWAP1 PUSH2 0x6397 JUMP JUMPDEST PUSH1 0x0 DUP9 DUP2 MSTORE PUSH1 0x3 PUSH1 0x20 SWAP1 DUP2 MSTORE PUSH1 0x40 DUP1 DUP4 KECCAK256 PUSH1 0x2 DUP2 ADD SLOAD SWAP1 SLOAD PUSH1 0x7 SWAP1 SWAP4 MSTORE SWAP3 DUP2 SWAP1 KECCAK256 PUSH1 0x1 ADD SLOAD SWAP1 MLOAD PUSH4 0xA9059CBB PUSH1 0xE0 SHL DUP2 MSTORE PUSH1 0x1 PUSH1 0x1 PUSH1 0xA0 SHL SUB SWAP4 DUP5 AND SWAP4 PUSH4 0xA9059CBB SWAP4 PUSH2 0x2A40 SWAP4 SWAP2 AND SWAP2 PUSH1 0x4 ADD PUSH2 0x5E3D JUMP JUMPDEST PUSH1 0x20 PUSH1 0x40 MLOAD DUP1 DUP4 SUB DUP2 PUSH1 0x0 DUP8 DUP1 EXTCODESIZE ISZERO DUP1 ISZERO PUSH2 0x2A5A JUMPI PUSH1 0x0 DUP1 REVERT JUMPDEST POP GAS CALL ISZERO DUP1 ISZERO PUSH2 0x2A6E JUMPI RETURNDATASIZE PUSH1 0x0 DUP1 RETURNDATACOPY RETURNDATASIZE PUSH1 0x0 REVERT JUMPDEST POP POP POP POP PUSH1 0x40 MLOAD RETURNDATASIZE PUSH1 0x1F NOT PUSH1 0x1F DUP3 ADD AND DUP3 ADD DUP1 PUSH1 0x40 MSTORE POP DUP2 ADD SWAP1 PUSH2 0x2A92 SWAP2 SWAP1 PUSH2 0x5BC6 JUMP JUMPDEST PUSH2 0x2AAE JUMPI PUSH1 0x40 MLOAD PUSH3 0x461BCD PUSH1 0xE5 SHL DUP2 MSTORE PUSH1 0x4 ADD PUSH2 0x1278 SWAP1 PUSH2 0x6046 JUMP JUMPDEST CALLER PUSH1 0x0 SWAP1 DUP2 MSTORE PUSH1 0x5 PUSH1 0x20 SWAP1 DUP2 MSTORE PUSH1 0x40 DUP1 DUP4 KECCAK256 DUP12 DUP5 MSTORE SWAP1 SWAP2 MSTORE DUP2 KECCAK256 DUP1 SLOAD PUSH1 0x1 PUSH1 0x1 PUSH1 0xA0 SHL SUB NOT SWAP1 DUP2 AND DUP3 SSTORE PUSH1 0x1 DUP3 ADD DUP1 SLOAD DUP3 AND SWAP1 SSTORE PUSH1 0x2 DUP3 ADD DUP1 SLOAD SWAP1 SWAP2 AND SWAP1 SSTORE PUSH1 0x3 DUP2 ADD DUP3 SWAP1 SSTORE SWAP1 PUSH2 0x2B02 PUSH1 0x4 DUP4 ADD DUP3 PUSH2 0x5993 JUMP JUMPDEST PUSH1 0x5 DUP3 ADD DUP1 SLOAD PUSH1 0xFF NOT AND SWAP1 SSTORE PUSH2 0x2B1C PUSH1 0x6 DUP4 ADD PUSH1 0x0 PUSH2 0x5993 JUMP JUMPDEST POP PUSH1 0x0 PUSH1 0x7 DUP3 ADD DUP2 SWAP1 SSTORE PUSH1 0x8 SWAP1 SWAP2 ADD DUP2 SWAP1 SSTORE DUP9 DUP2 MSTORE PUSH1 0x3 PUSH1 0x20 DUP2 DUP2 MSTORE PUSH1 0x40 DUP1 DUP5 KECCAK256 CALLER DUP6 MSTORE PUSH1 0x5 DUP4 MSTORE DUP2 DUP6 KECCAK256 DUP14 DUP7 MSTORE SWAP1 SWAP3 MSTORE SWAP1 SWAP3 KECCAK256 DUP3 SLOAD DUP2 SLOAD PUSH1 0x1 PUSH1 0x1 PUSH1 0xA0 SHL SUB SWAP2 DUP3 AND PUSH1 0x1 PUSH1 0x1 PUSH1 0xA0 SHL SUB NOT SWAP2 DUP3 AND OR DUP4 SSTORE PUSH1 0x1 DUP1 DUP7 ADD SLOAD SWAP1 DUP5 ADD DUP1 SLOAD SWAP2 DUP5 AND SWAP2 DUP4 AND SWAP2 SWAP1 SWAP2 OR SWAP1 SSTORE PUSH1 0x2 DUP1 DUP7 ADD SLOAD SWAP1 DUP5 ADD DUP1 SLOAD SWAP2 SWAP1 SWAP4 AND SWAP2 AND OR SWAP1 SSTORE DUP3 DUP3 ADD SLOAD SWAP2 DUP2 ADD SWAP2 SWAP1 SWAP2 SSTORE PUSH1 0x4 DUP1 DUP4 ADD DUP1 SLOAD PUSH2 0x2BB8 SWAP3 DUP5 ADD SWAP2 SWAP1 PUSH2 0x5953 JUMP JUMPDEST POP PUSH1 0x5 DUP3 DUP2 ADD SLOAD SWAP1 DUP3 ADD DUP1 SLOAD PUSH1 0xFF SWAP1 SWAP3 AND SWAP2 PUSH1 0xFF NOT AND PUSH1 0x1 DUP4 PUSH1 0x2 DUP2 GT ISZERO PUSH2 0x2BDC JUMPI INVALID JUMPDEST MUL OR SWAP1 SSTORE POP PUSH1 0x6 DUP3 DUP2 ADD DUP1 SLOAD PUSH2 0x2BF5 SWAP3 DUP5 ADD SWAP2 SWAP1 PUSH2 0x5953 JUMP JUMPDEST POP PUSH1 0x7 DUP3 DUP2 ADD SLOAD SWAP1 DUP3 ADD SSTORE PUSH1 0x8 SWAP2 DUP3 ADD SLOAD SWAP2 ADD SSTORE PUSH1 0x0 DUP9 DUP2 MSTORE PUSH1 0x3 PUSH1 0x20 MSTORE PUSH1 0x40 SWAP1 KECCAK256 PUSH1 0x1 DUP2 ADD DUP1 SLOAD PUSH1 0x1 PUSH1 0x1 PUSH1 0xA0 SHL SUB NOT AND CALLER OR SWAP1 SSTORE PUSH1 0x5 ADD DUP1 SLOAD PUSH1 0xFF NOT AND SWAP1 SSTORE CALLVALUE DUP2 LT ISZERO PUSH2 0x2C7C JUMPI CALLER PUSH2 0x8FC PUSH2 0x2C52 CALLVALUE DUP5 PUSH4 0xFFFFFFFF PUSH2 0x53EA AND JUMP JUMPDEST PUSH1 0x40 MLOAD DUP2 ISZERO SWAP1 SWAP3 MUL SWAP2 PUSH1 0x0 DUP2 DUP2 DUP2 DUP6 DUP9 DUP9 CALL SWAP4 POP POP POP POP ISZERO DUP1 ISZERO PUSH2 0x2C7A JUMPI RETURNDATASIZE PUSH1 0x0 DUP1 RETURNDATACOPY RETURNDATASIZE PUSH1 0x0 REVERT JUMPDEST POP JUMPDEST CALLER PUSH1 0x1 PUSH1 0x1 PUSH1 0xA0 SHL SUB AND PUSH32 0x23AD4783D95EE2D3730FAE4843757E102BD28A58EF48E2C6F8FE93AEF120F5FB DUP10 DUP4 PUSH1 0x40 MLOAD PUSH2 0x2CB7 SWAP3 SWAP2 SWAP1 PUSH2 0x5F22 JUMP JUMPDEST PUSH1 0x40 MLOAD DUP1 SWAP2 SUB SWAP1 LOG2 POP POP POP POP POP POP POP POP JUMP JUMPDEST PUSH1 0x0 SWAP3 DUP4 MSTORE PUSH1 0xF PUSH1 0x20 SWAP1 DUP2 MSTORE PUSH1 0x40 DUP1 DUP6 KECCAK256 SWAP4 DUP6 MSTORE SWAP3 SWAP1 MSTORE SWAP2 KECCAK256 DUP1 SLOAD PUSH1 0x1 PUSH1 0x1 PUSH1 0xA0 SHL SUB NOT AND PUSH1 0x1 PUSH1 0x1 PUSH1 0xA0 SHL SUB SWAP1 SWAP3 AND SWAP2 SWAP1 SWAP2 OR SWAP1 SSTORE JUMP JUMPDEST PUSH1 0x0 SWAP1 DUP2 MSTORE PUSH1 0xC PUSH1 0x20 MSTORE PUSH1 0x40 SWAP1 KECCAK256 SLOAD SWAP1 JUMP JUMPDEST PUSH1 0xD PUSH1 0x20 MSTORE PUSH1 0x0 SWAP1 DUP2 MSTORE PUSH1 0x40 SWAP1 KECCAK256 SLOAD DUP2 JUMP JUMPDEST PUSH1 0x3 PUSH1 0x20 DUP2 SWAP1 MSTORE PUSH1 0x0 SWAP2 DUP3 MSTORE PUSH1 0x40 SWAP1 SWAP2 KECCAK256 DUP1 SLOAD PUSH1 0x1 DUP3 ADD SLOAD PUSH1 0x2 DUP4 ADD SLOAD SWAP4 DUP4 ADD SLOAD PUSH1 0x5 DUP5 ADD SLOAD PUSH1 0x7 DUP6 ADD SLOAD PUSH1 0x8 SWAP1 SWAP6 ADD SLOAD PUSH1 0x1 PUSH1 0x1 PUSH1 0xA0 SHL SUB SWAP5 DUP6 AND SWAP7 SWAP4 DUP6 AND SWAP6 SWAP4 SWAP1 SWAP5 AND SWAP4 SWAP2 SWAP3 PUSH1 0xFF SWAP1 SWAP2 AND SWAP2 DUP8 JUMP JUMPDEST PUSH1 0x29 SLOAD PUSH1 0xFF AND DUP2 JUMP JUMPDEST PUSH1 0x0 DUP5 DUP2 MSTORE PUSH1 0x3 PUSH1 0x20 MSTORE PUSH1 0x40 SWAP1 KECCAK256 PUSH1 0x1 ADD SLOAD DUP5 SWAP1 PUSH1 0x1 PUSH1 0x1 PUSH1 0xA0 SHL SUB AND CALLER EQ PUSH2 0x2DBA JUMPI PUSH1 0x40 MLOAD PUSH3 0x461BCD PUSH1 0xE5 SHL DUP2 MSTORE PUSH1 0x4 ADD PUSH2 0x1278 SWAP1 PUSH2 0x64CB JUMP JUMPDEST PUSH1 0x27 SLOAD PUSH1 0x1 PUSH1 0x1 PUSH1 0xA0 SHL SUB AND PUSH2 0x2DE2 JUMPI PUSH1 0x40 MLOAD PUSH3 0x461BCD PUSH1 0xE5 SHL DUP2 MSTORE PUSH1 0x4 ADD PUSH2 0x1278 SWAP1 PUSH2 0x681F JUMP JUMPDEST PUSH1 0x27 SLOAD PUSH1 0x40 MLOAD PUSH1 0x0 SWAP2 PUSH1 0x1 PUSH1 0x1 PUSH1 0xA0 SHL SUB AND SWAP1 PUSH4 0x10835DBB SWAP1 PUSH2 0x2E0D SWAP1 DUP10 SWAP1 DUP10 SWAP1 DUP10 SWAP1 PUSH1 0x20 ADD PUSH2 0x5DEB JUMP JUMPDEST PUSH1 0x40 MLOAD PUSH1 0x20 DUP2 DUP4 SUB SUB DUP2 MSTORE SWAP1 PUSH1 0x40 MSTORE DUP1 MLOAD SWAP1 PUSH1 0x20 ADD KECCAK256 PUSH8 0xDE0B6B3A7640000 PUSH1 0x40 MLOAD DUP4 PUSH4 0xFFFFFFFF AND PUSH1 0xE0 SHL DUP2 MSTORE PUSH1 0x4 ADD PUSH2 0x2E49 SWAP3 SWAP2 SWAP1 PUSH2 0x5F22 JUMP JUMPDEST PUSH1 0x20 PUSH1 0x40 MLOAD DUP1 DUP4 SUB DUP2 PUSH1 0x0 DUP8 DUP1 EXTCODESIZE ISZERO DUP1 ISZERO PUSH2 0x2E63 JUMPI PUSH1 0x0 DUP1 REVERT JUMPDEST POP GAS CALL ISZERO DUP1 ISZERO PUSH2 0x2E77 JUMPI RETURNDATASIZE PUSH1 0x0 DUP1 RETURNDATACOPY RETURNDATASIZE PUSH1 0x0 REVERT JUMPDEST POP POP POP POP PUSH1 0x40 MLOAD RETURNDATASIZE PUSH1 0x1F NOT PUSH1 0x1F DUP3 ADD AND DUP3 ADD DUP1 PUSH1 0x40 MSTORE POP DUP2 ADD SWAP1 PUSH2 0x2E9B SWAP2 SWAP1 PUSH2 0x5BFE JUMP JUMPDEST SWAP1 POP PUSH2 0x2EAD TIMESTAMP DUP5 PUSH4 0xFFFFFFFF PUSH2 0x534E AND JUMP JUMPDEST PUSH1 0x0 DUP3 DUP2 MSTORE PUSH1 0xA PUSH1 0x20 MSTORE PUSH1 0x40 SWAP1 DUP2 SWAP1 KECCAK256 SWAP2 SWAP1 SWAP2 SSTORE MLOAD DUP7 SWAP1 PUSH32 0x45CA523DC8CC2788A2E6538F8B62E73851B5025A306FF66E3E587B081CA31530 SWAP1 PUSH2 0x2442 SWAP1 DUP9 SWAP1 DUP9 SWAP1 DUP9 SWAP1 DUP8 SWAP1 PUSH2 0x5F30 JUMP JUMPDEST PUSH1 0x0 DUP2 DUP2 MSTORE PUSH1 0x3 PUSH1 0x20 MSTORE PUSH1 0x40 SWAP1 KECCAK256 PUSH1 0x1 ADD SLOAD DUP2 SWAP1 PUSH1 0x1 PUSH1 0x1 PUSH1 0xA0 SHL SUB AND CALLER EQ PUSH2 0x2F32 JUMPI PUSH1 0x40 MLOAD PUSH3 0x461BCD PUSH1 0xE5 SHL DUP2 MSTORE PUSH1 0x4 ADD PUSH2 0x1278 SWAP1 PUSH2 0x64CB JUMP JUMPDEST PUSH1 0x0 DUP3 DUP2 MSTORE PUSH1 0x3 PUSH1 0x20 MSTORE PUSH1 0x40 SWAP1 KECCAK256 PUSH1 0x7 ADD SLOAD DUP3 SWAP1 TIMESTAMP LT PUSH2 0x2F64 JUMPI PUSH1 0x40 MLOAD PUSH3 0x461BCD PUSH1 0xE5 SHL DUP2 MSTORE PUSH1 0x4 ADD PUSH2 0x1278 SWAP1 PUSH2 0x67E8 JUMP JUMPDEST PUSH1 0x0 DUP4 DUP2 MSTORE PUSH1 0x3 PUSH1 0x20 MSTORE PUSH1 0x40 DUP2 KECCAK256 PUSH1 0x5 ADD SLOAD PUSH1 0xFF AND PUSH1 0x2 DUP2 GT ISZERO PUSH2 0x2F84 JUMPI INVALID JUMPDEST EQ PUSH2 0x2FA1 JUMPI PUSH1 0x40 MLOAD PUSH3 0x461BCD PUSH1 0xE5 SHL DUP2 MSTORE PUSH1 0x4 ADD PUSH2 0x1278 SWAP1 PUSH2 0x68F9 JUMP JUMPDEST PUSH1 0x0 DUP4 DUP2 MSTORE PUSH1 0x3 PUSH1 0x20 DUP2 SWAP1 MSTORE PUSH1 0x40 SWAP2 DUP3 SWAP1 KECCAK256 PUSH1 0x2 DUP2 ADD SLOAD PUSH1 0x1 DUP3 ADD SLOAD SWAP2 SWAP1 SWAP3 ADD SLOAD SWAP3 MLOAD PUSH4 0xA9059CBB PUSH1 0xE0 SHL DUP2 MSTORE PUSH1 0x1 PUSH1 0x1 PUSH1 0xA0 SHL SUB SWAP3 DUP4 AND SWAP4 PUSH4 0xA9059CBB SWAP4 PUSH2 0x2FEE SWAP4 AND SWAP2 PUSH1 0x4 ADD PUSH2 0x5E3D JUMP JUMPDEST PUSH1 0x20 PUSH1 0x40 MLOAD DUP1 DUP4 SUB DUP2 PUSH1 0x0 DUP8 DUP1 EXTCODESIZE ISZERO DUP1 ISZERO PUSH2 0x3008 JUMPI PUSH1 0x0 DUP1 REVERT JUMPDEST POP GAS CALL ISZERO DUP1 ISZERO PUSH2 0x301C JUMPI RETURNDATASIZE PUSH1 0x0 DUP1 RETURNDATACOPY RETURNDATASIZE PUSH1 0x0 REVERT JUMPDEST POP POP POP POP PUSH1 0x40 MLOAD RETURNDATASIZE PUSH1 0x1F NOT PUSH1 0x1F DUP3 ADD AND DUP3 ADD DUP1 PUSH1 0x40 MSTORE POP DUP2 ADD SWAP1 PUSH2 0x3040 SWAP2 SWAP1 PUSH2 0x5BC6 JUMP JUMPDEST PUSH2 0x305C JUMPI PUSH1 0x40 MLOAD PUSH3 0x461BCD PUSH1 0xE5 SHL DUP2 MSTORE PUSH1 0x4 ADD PUSH2 0x1278 SWAP1 PUSH2 0x6397 JUMP JUMPDEST CALLER PUSH1 0x0 SWAP1 DUP2 MSTORE PUSH1 0x5 PUSH1 0x20 SWAP1 DUP2 MSTORE PUSH1 0x40 DUP1 DUP4 KECCAK256 DUP7 DUP5 MSTORE SWAP1 SWAP2 MSTORE DUP2 KECCAK256 DUP1 SLOAD PUSH1 0x1 PUSH1 0x1 PUSH1 0xA0 SHL SUB NOT SWAP1 DUP2 AND DUP3 SSTORE PUSH1 0x1 DUP3 ADD DUP1 SLOAD DUP3 AND SWAP1 SSTORE PUSH1 0x2 DUP3 ADD DUP1 SLOAD SWAP1 SWAP2 AND SWAP1 SSTORE PUSH1 0x3 DUP2 ADD DUP3 SWAP1 SSTORE SWAP1 PUSH2 0x30B0 PUSH1 0x4 DUP4 ADD DUP3 PUSH2 0x5993 JUMP JUMPDEST PUSH1 0x5 DUP3 ADD DUP1 SLOAD PUSH1 0xFF NOT AND SWAP1 SSTORE PUSH2 0x30CA PUSH1 0x6 DUP4 ADD PUSH1 0x0 PUSH2 0x5993 JUMP JUMPDEST POP PUSH1 0x0 PUSH1 0x7 DUP3 ADD DUP2 SWAP1 SSTORE PUSH1 0x8 SWAP1 SWAP2 ADD DUP2 SWAP1 SSTORE CALLER DUP2 MSTORE PUSH1 0x4 PUSH1 0x20 DUP2 DUP2 MSTORE PUSH1 0x40 DUP1 DUP5 KECCAK256 DUP8 DUP6 MSTORE SWAP1 SWAP2 MSTORE DUP3 KECCAK256 DUP1 SLOAD PUSH1 0x1 PUSH1 0x1 PUSH1 0xA0 SHL SUB NOT SWAP1 DUP2 AND DUP3 SSTORE PUSH1 0x1 DUP3 ADD DUP1 SLOAD DUP3 AND SWAP1 SSTORE PUSH1 0x2 DUP3 ADD DUP1 SLOAD SWAP1 SWAP2 AND SWAP1 SSTORE PUSH1 0x3 DUP2 ADD DUP4 SWAP1 SSTORE SWAP2 SWAP1 PUSH2 0x312D SWAP1 DUP4 ADD DUP3 PUSH2 0x5993 JUMP JUMPDEST PUSH1 0x5 DUP3 ADD DUP1 SLOAD PUSH1 0xFF NOT AND SWAP1 SSTORE PUSH2 0x3147 PUSH1 0x6 DUP4 ADD PUSH1 0x0 PUSH2 0x5993 JUMP JUMPDEST POP PUSH1 0x0 PUSH1 0x7 DUP3 ADD DUP2 SWAP1 SSTORE PUSH1 0x8 SWAP1 SWAP2 ADD DUP2 SWAP1 SSTORE DUP4 DUP2 MSTORE PUSH1 0x3 PUSH1 0x20 DUP2 SWAP1 MSTORE PUSH1 0x40 DUP3 KECCAK256 DUP1 SLOAD PUSH1 0x1 PUSH1 0x1 PUSH1 0xA0 SHL SUB NOT SWAP1 DUP2 AND DUP3 SSTORE PUSH1 0x1 DUP3 ADD DUP1 SLOAD DUP3 AND SWAP1 SSTORE PUSH1 0x2 DUP3 ADD DUP1 SLOAD SWAP1 SWAP2 AND SWAP1 SSTORE SWAP1 DUP2 ADD DUP3 SWAP1 SSTORE SWAP1 PUSH2 0x31A0 PUSH1 0x4 DUP4 ADD DUP3 PUSH2 0x5993 JUMP JUMPDEST PUSH1 0x5 DUP3 ADD DUP1 SLOAD PUSH1 0xFF NOT AND SWAP1 SSTORE PUSH2 0x31BA PUSH1 0x6 DUP4 ADD PUSH1 0x0 PUSH2 0x5993 JUMP JUMPDEST POP PUSH1 0x0 PUSH1 0x7 DUP3 DUP2 ADD DUP3 SWAP1 SSTORE PUSH1 0x8 SWAP1 SWAP3 ADD DUP2 SWAP1 SSTORE DUP5 DUP2 MSTORE PUSH1 0x20 SWAP2 SWAP1 SWAP2 MSTORE PUSH1 0x40 DUP1 DUP3 KECCAK256 DUP3 DUP2 SSTORE PUSH1 0x1 DUP2 ADD DUP4 SWAP1 SSTORE PUSH1 0x2 ADD SWAP2 SWAP1 SWAP2 SSTORE MLOAD CALLER SWAP1 PUSH32 0x2D428178E65C47BFB7D75B43E57E93851220995D8887D6826253C18D9B9FC99F SWAP1 PUSH2 0x321C SWAP1 DUP7 SWAP1 PUSH2 0x6A9B JUMP JUMPDEST PUSH1 0x40 MLOAD DUP1 SWAP2 SUB SWAP1 LOG2 POP POP POP JUMP JUMPDEST PUSH1 0x0 DUP2 DUP2 MSTORE PUSH1 0x3 PUSH1 0x20 MSTORE PUSH1 0x40 SWAP1 KECCAK256 PUSH1 0x1 ADD SLOAD DUP2 SWAP1 PUSH1 0x1 PUSH1 0x1 PUSH1 0xA0 SHL SUB AND CALLER EQ PUSH2 0x3264 JUMPI PUSH1 0x40 MLOAD PUSH3 0x461BCD PUSH1 0xE5 SHL DUP2 MSTORE PUSH1 0x4 ADD PUSH2 0x1278 SWAP1 PUSH2 0x64CB JUMP JUMPDEST PUSH1 0x0 DUP3 DUP2 MSTORE PUSH1 0x3 PUSH1 0x20 MSTORE PUSH1 0x40 SWAP1 KECCAK256 PUSH1 0x7 ADD SLOAD DUP3 SWAP1 TIMESTAMP LT PUSH2 0x3296 JUMPI PUSH1 0x40 MLOAD PUSH3 0x461BCD PUSH1 0xE5 SHL DUP2 MSTORE PUSH1 0x4 ADD PUSH2 0x1278 SWAP1 PUSH2 0x67E8 JUMP JUMPDEST PUSH1 0x1 PUSH1 0x0 DUP5 DUP2 MSTORE PUSH1 0x3 PUSH1 0x20 MSTORE PUSH1 0x40 SWAP1 KECCAK256 PUSH1 0x5 ADD SLOAD PUSH1 0xFF AND PUSH1 0x2 DUP2 GT ISZERO PUSH2 0x32B8 JUMPI INVALID JUMPDEST EQ PUSH2 0x32D5 JUMPI PUSH1 0x40 MLOAD PUSH3 0x461BCD PUSH1 0xE5 SHL DUP2 MSTORE PUSH1 0x4 ADD PUSH2 0x1278 SWAP1 PUSH2 0x6639 JUMP JUMPDEST PUSH1 0x0 DUP4 DUP2 MSTORE PUSH1 0x3 PUSH1 0x20 DUP2 DUP2 MSTORE PUSH1 0x40 DUP1 DUP5 KECCAK256 PUSH1 0x5 ADD DUP1 SLOAD PUSH1 0xFF NOT AND SWAP1 SSTORE PUSH1 0x6 SWAP1 SWAP2 MSTORE DUP3 KECCAK256 DUP1 SLOAD PUSH1 0x1 PUSH1 0x1 PUSH1 0xA0 SHL SUB NOT SWAP1 DUP2 AND DUP3 SSTORE PUSH1 0x1 DUP3 ADD DUP1 SLOAD DUP3 AND SWAP1 SSTORE PUSH1 0x2 DUP3 ADD DUP1 SLOAD SWAP1 SWAP2 AND SWAP1 SSTORE SWAP1 DUP2 ADD DUP3 SWAP1 SSTORE SWAP1 PUSH2 0x3331 PUSH1 0x4 DUP4 ADD DUP3 PUSH2 0x5993 JUMP JUMPDEST PUSH1 0x5 DUP3 ADD DUP1 SLOAD PUSH1 0xFF NOT AND SWAP1 SSTORE PUSH2 0x334B PUSH1 0x6 DUP4 ADD PUSH1 0x0 PUSH2 0x5993 JUMP JUMPDEST PUSH1 0x7 DUP3 ADD PUSH1 0x0 SWAP1 SSTORE PUSH1 0x8 DUP3 ADD PUSH1 0x0 SWAP1 SSTORE POP POP PUSH32 0x5226439292B7408157C7FB8A72A8EF4696205D78E3B985CEE36978E1200F2DF DUP4 CALLER PUSH1 0x40 MLOAD PUSH2 0x338E SWAP3 SWAP2 SWAP1 PUSH2 0x6AA4 JUMP JUMPDEST PUSH1 0x40 MLOAD DUP1 SWAP2 SUB SWAP1 LOG1 POP POP POP JUMP JUMPDEST PUSH1 0x1 SLOAD PUSH1 0x1 PUSH1 0x1 PUSH1 0xA0 SHL SUB AND CALLER EQ PUSH2 0x26D0 JUMPI PUSH1 0x40 MLOAD PUSH3 0x461BCD PUSH1 0xE5 SHL DUP2 MSTORE PUSH1 0x4 ADD PUSH2 0x1278 SWAP1 PUSH2 0x698D JUMP JUMPDEST PUSH1 0x0 DUP2 DUP2 MSTORE PUSH1 0x3 PUSH1 0x20 MSTORE PUSH1 0x40 SWAP1 KECCAK256 PUSH1 0x1 ADD SLOAD DUP2 SWAP1 PUSH1 0x1 PUSH1 0x1 PUSH1 0xA0 SHL SUB AND CALLER EQ PUSH2 0x3400 JUMPI PUSH1 0x40 MLOAD PUSH3 0x461BCD PUSH1 0xE5 SHL DUP2 MSTORE PUSH1 0x4 ADD PUSH2 0x1278 SWAP1 PUSH2 0x64CB JUMP JUMPDEST PUSH1 0x0 DUP3 DUP2 MSTORE PUSH1 0x3 PUSH1 0x20 MSTORE PUSH1 0x40 SWAP1 KECCAK256 PUSH1 0x7 ADD SLOAD DUP3 SWAP1 TIMESTAMP LT PUSH2 0x3432 JUMPI PUSH1 0x40 MLOAD PUSH3 0x461BCD PUSH1 0xE5 SHL DUP2 MSTORE PUSH1 0x4 ADD PUSH2 0x1278 SWAP1 PUSH2 0x67E8 JUMP JUMPDEST PUSH1 0x1F SLOAD PUSH1 0x0 DUP5 DUP2 MSTORE PUSH1 0x3 PUSH1 0x20 MSTORE PUSH1 0x40 SWAP1 KECCAK256 PUSH1 0x7 ADD SLOAD PUSH2 0x3456 SWAP2 PUSH4 0xFFFFFFFF PUSH2 0x534E AND JUMP JUMPDEST TIMESTAMP GT PUSH2 0x3474 JUMPI PUSH1 0x40 MLOAD PUSH3 0x461BCD PUSH1 0xE5 SHL DUP2 MSTORE PUSH1 0x4 ADD PUSH2 0x1278 SWAP1 PUSH2 0x6854 JUMP JUMPDEST PUSH1 0x0 JUMPDEST PUSH1 0x0 DUP5 DUP2 MSTORE PUSH1 0x3 PUSH1 0x20 MSTORE PUSH1 0x40 SWAP1 KECCAK256 PUSH1 0x6 ADD SLOAD DUP2 LT ISZERO PUSH2 0x34FF JUMPI PUSH1 0x0 DUP5 DUP2 MSTORE PUSH1 0xF PUSH1 0x20 SWAP1 DUP2 MSTORE PUSH1 0x40 DUP1 DUP4 KECCAK256 PUSH1 0x3 SWAP1 SWAP3 MSTORE DUP3 KECCAK256 PUSH1 0x6 ADD DUP1 SLOAD DUP4 SWAP2 SWAP1 DUP6 SWAP1 DUP2 LT PUSH2 0x34BA JUMPI INVALID JUMPDEST PUSH1 0x0 SWAP2 DUP3 MSTORE PUSH1 0x20 DUP1 DUP4 KECCAK256 SWAP1 SWAP2 ADD SLOAD DUP4 MSTORE DUP3 DUP2 ADD SWAP4 SWAP1 SWAP4 MSTORE PUSH1 0x40 SWAP2 DUP3 ADD DUP2 KECCAK256 SLOAD DUP9 DUP3 MSTORE PUSH1 0x9 DUP5 MSTORE DUP3 DUP3 KECCAK256 PUSH1 0x1 PUSH1 0x1 PUSH1 0xA0 SHL SUB SWAP1 SWAP2 AND DUP3 MSTORE SWAP1 SWAP3 MSTORE DUP2 KECCAK256 SSTORE POP PUSH1 0x1 ADD PUSH2 0x3477 JUMP JUMPDEST POP PUSH1 0x40 MLOAD DUP4 SWAP1 PUSH32 0x568AEDA352153539D9813524DC5D57D37F459A2966A4092D7C00B12E8F23420D SWAP1 PUSH1 0x0 SWAP1 LOG2 POP POP POP JUMP JUMPDEST PUSH1 0x1 PUSH1 0x1 PUSH1 0xA0 SHL SUB AND PUSH1 0x0 SWAP1 DUP2 MSTORE PUSH1 0xD PUSH1 0x20 MSTORE PUSH1 0x40 SWAP1 KECCAK256 SLOAD SWAP1 JUMP JUMPDEST PUSH2 0x3553 PUSH2 0x537A JUMP JUMPDEST PUSH1 0x1 PUSH1 0x1 PUSH1 0xA0 SHL SUB AND PUSH2 0x3564 PUSH2 0x3BE9 JUMP JUMPDEST PUSH1 0x1 PUSH1 0x1 PUSH1 0xA0 SHL SUB AND EQ PUSH2 0x358A JUMPI PUSH1 0x40 MLOAD PUSH3 0x461BCD PUSH1 0xE5 SHL DUP2 MSTORE PUSH1 0x4 ADD PUSH2 0x1278 SWAP1 PUSH2 0x66E8 JUMP JUMPDEST PUSH1 0x0 DUP1 SLOAD PUSH1 0x40 MLOAD PUSH1 0x1 PUSH1 0x1 PUSH1 0xA0 SHL SUB SWAP1 SWAP2 AND SWAP1 PUSH32 0x8BE0079C531659141344CD1FD0A4F28419497F9722A3DAAFE3B4186F6B6457E0 SWAP1 DUP4 SWAP1 LOG3 PUSH1 0x0 DUP1 SLOAD PUSH1 0x1 PUSH1 0x1 PUSH1 0xA0 SHL SUB NOT AND SWAP1 SSTORE JUMP JUMPDEST PUSH1 0x10 SLOAD PUSH1 0x11 SLOAD PUSH1 0x12 SLOAD PUSH1 0x13 SLOAD PUSH1 0x15 SLOAD PUSH1 0x17 SLOAD PUSH1 0x18 SLOAD PUSH1 0x1 PUSH1 0x1 PUSH1 0xA0 SHL SUB SWAP7 DUP8 AND SWAP7 SWAP6 DUP7 AND SWAP6 SWAP1 SWAP5 AND SWAP4 PUSH1 0xFF SWAP1 SWAP3 AND SWAP2 DUP8 JUMP JUMPDEST PUSH1 0x0 DUP3 DUP2 MSTORE PUSH1 0x3 PUSH1 0x20 MSTORE PUSH1 0x40 SWAP1 KECCAK256 PUSH1 0x1 ADD SLOAD DUP3 SWAP1 PUSH1 0x1 PUSH1 0x1 PUSH1 0xA0 SHL SUB AND CALLER EQ PUSH2 0x3641 JUMPI PUSH1 0x40 MLOAD PUSH3 0x461BCD PUSH1 0xE5 SHL DUP2 MSTORE PUSH1 0x4 ADD PUSH2 0x1278 SWAP1 PUSH2 0x64CB JUMP JUMPDEST PUSH1 0x0 DUP4 DUP2 MSTORE PUSH1 0x3 PUSH1 0x20 MSTORE PUSH1 0x40 SWAP1 KECCAK256 PUSH1 0x7 ADD SLOAD TIMESTAMP DUP2 GT PUSH2 0x3672 JUMPI PUSH1 0x40 MLOAD PUSH3 0x461BCD PUSH1 0xE5 SHL DUP2 MSTORE PUSH1 0x4 ADD PUSH2 0x1278 SWAP1 PUSH2 0x6244 JUMP JUMPDEST DUP3 PUSH1 0x24 DUP2 SWAP1 SSTORE POP DUP4 PUSH32 0x7BFAC94B8F45C93697445D23EAC75F25203C65FE9D9455B378EC00A954678459 DUP5 PUSH1 0x40 MLOAD PUSH2 0x12E9 SWAP2 SWAP1 PUSH2 0x6A9B JUMP JUMPDEST PUSH1 0x1 SLOAD PUSH1 0x2 SLOAD PUSH1 0x1 PUSH1 0x1 PUSH1 0xA0 SHL SUB SWAP1 SWAP2 AND SWAP1 DUP3 JUMP JUMPDEST PUSH1 0x24 SLOAD DUP2 JUMP JUMPDEST PUSH1 0x0 DUP2 DUP2 MSTORE PUSH1 0x3 PUSH1 0x20 MSTORE PUSH1 0x40 SWAP1 KECCAK256 PUSH1 0x1 ADD SLOAD DUP2 SWAP1 PUSH1 0x1 PUSH1 0x1 PUSH1 0xA0 SHL SUB AND CALLER EQ PUSH2 0x36FF JUMPI PUSH1 0x40 MLOAD PUSH3 0x461BCD PUSH1 0xE5 SHL DUP2 MSTORE PUSH1 0x4 ADD PUSH2 0x1278 SWAP1 PUSH2 0x64CB JUMP JUMPDEST PUSH1 0x0 DUP3 DUP2 MSTORE PUSH1 0x3 PUSH1 0x20 MSTORE PUSH1 0x40 SWAP1 KECCAK256 PUSH1 0x7 ADD SLOAD DUP3 SWAP1 TIMESTAMP LT PUSH2 0x3731 JUMPI PUSH1 0x40 MLOAD PUSH3 0x461BCD PUSH1 0xE5 SHL DUP2 MSTORE PUSH1 0x4 ADD PUSH2 0x1278 SWAP1 PUSH2 0x67E8 JUMP JUMPDEST PUSH1 0x1 PUSH1 0x0 DUP5 DUP2 MSTORE PUSH1 0x3 PUSH1 0x20 MSTORE PUSH1 0x40 SWAP1 KECCAK256 PUSH1 0x5 ADD SLOAD PUSH1 0xFF AND PUSH1 0x2 DUP2 GT ISZERO PUSH2 0x3753 JUMPI INVALID JUMPDEST EQ ISZERO PUSH2 0x3771 JUMPI PUSH1 0x40 MLOAD PUSH3 0x461BCD PUSH1 0xE5 SHL DUP2 MSTORE PUSH1 0x4 ADD PUSH2 0x1278 SWAP1 PUSH2 0x5F96 JUMP JUMPDEST PUSH1 0x0 DUP4 DUP2 MSTORE PUSH1 0x3 PUSH1 0x20 DUP2 SWAP1 MSTORE PUSH1 0x40 SWAP2 DUP3 SWAP1 KECCAK256 PUSH1 0x2 DUP2 ADD SLOAD PUSH1 0x1 DUP3 ADD SLOAD SWAP2 SWAP1 SWAP3 ADD SLOAD SWAP3 MLOAD PUSH4 0xA9059CBB PUSH1 0xE0 SHL DUP2 MSTORE PUSH1 0x1 PUSH1 0x1 PUSH1 0xA0 SHL SUB SWAP3 DUP4 AND SWAP4 PUSH4 0xA9059CBB SWAP4 PUSH2 0x37BE SWAP4 AND SWAP2 PUSH1 0x4 ADD PUSH2 0x5E3D JUMP JUMPDEST PUSH1 0x20 PUSH1 0x40 MLOAD DUP1 DUP4 SUB DUP2 PUSH1 0x0 DUP8 DUP1 EXTCODESIZE ISZERO DUP1 ISZERO PUSH2 0x37D8 JUMPI PUSH1 0x0 DUP1 REVERT JUMPDEST POP GAS CALL ISZERO DUP1 ISZERO PUSH2 0x37EC JUMPI RETURNDATASIZE PUSH1 0x0 DUP1 RETURNDATACOPY RETURNDATASIZE PUSH1 0x0 REVERT JUMPDEST POP POP POP POP PUSH1 0x40 MLOAD RETURNDATASIZE PUSH1 0x1F NOT PUSH1 0x1F DUP3 ADD AND DUP3 ADD DUP1 PUSH1 0x40 MSTORE POP DUP2 ADD SWAP1 PUSH2 0x3810 SWAP2 SWAP1 PUSH2 0x5BC6 JUMP JUMPDEST PUSH2 0x382C JUMPI PUSH1 0x40 MLOAD PUSH3 0x461BCD PUSH1 0xE5 SHL DUP2 MSTORE PUSH1 0x4 ADD PUSH2 0x1278 SWAP1 PUSH2 0x6397 JUMP JUMPDEST CALLER PUSH1 0x0 SWAP1 DUP2 MSTORE PUSH1 0x5 PUSH1 0x20 SWAP1 DUP2 MSTORE PUSH1 0x40 DUP1 DUP4 KECCAK256 DUP7 DUP5 MSTORE SWAP1 SWAP2 MSTORE DUP2 KECCAK256 DUP1 SLOAD PUSH1 0x1 PUSH1 0x1 PUSH1 0xA0 SHL SUB NOT SWAP1 DUP2 AND DUP3 SSTORE PUSH1 0x1 DUP3 ADD DUP1 SLOAD DUP3 AND SWAP1 SSTORE PUSH1 0x2 DUP3 ADD DUP1 SLOAD SWAP1 SWAP2 AND SWAP1 SSTORE PUSH1 0x3 DUP2 ADD DUP3 SWAP1 SSTORE SWAP1 PUSH2 0x3880 PUSH1 0x4 DUP4 ADD DUP3 PUSH2 0x5993 JUMP JUMPDEST PUSH1 0x5 DUP3 ADD DUP1 SLOAD PUSH1 0xFF NOT AND SWAP1 SSTORE PUSH2 0x389A PUSH1 0x6 DUP4 ADD PUSH1 0x0 PUSH2 0x5993 JUMP JUMPDEST POP PUSH1 0x0 PUSH1 0x7 DUP3 ADD DUP2 SWAP1 SSTORE PUSH1 0x8 SWAP1 SWAP2 ADD DUP2 SWAP1 SSTORE CALLER DUP2 MSTORE PUSH1 0x4 PUSH1 0x20 DUP2 DUP2 MSTORE PUSH1 0x40 DUP1 DUP5 KECCAK256 DUP8 DUP6 MSTORE SWAP1 SWAP2 MSTORE DUP3 KECCAK256 DUP1 SLOAD PUSH1 0x1 PUSH1 0x1 PUSH1 0xA0 SHL SUB NOT SWAP1 DUP2 AND DUP3 SSTORE PUSH1 0x1 DUP3 ADD DUP1 SLOAD DUP3 AND SWAP1 SSTORE PUSH1 0x2 DUP3 ADD DUP1 SLOAD SWAP1 SWAP2 AND SWAP1 SSTORE PUSH1 0x3 DUP2 ADD DUP4 SWAP1 SSTORE SWAP2 SWAP1 PUSH2 0x38FD SWAP1 DUP4 ADD DUP3 PUSH2 0x5993 JUMP JUMPDEST PUSH1 0x5 DUP3 ADD DUP1 SLOAD PUSH1 0xFF NOT AND SWAP1 SSTORE PUSH2 0x3917 PUSH1 0x6 DUP4 ADD PUSH1 0x0 PUSH2 0x5993 JUMP JUMPDEST POP PUSH1 0x0 PUSH1 0x7 DUP3 ADD DUP2 SWAP1 SSTORE PUSH1 0x8 SWAP1 SWAP2 ADD DUP2 SWAP1 SSTORE DUP4 DUP2 MSTORE PUSH1 0x3 PUSH1 0x20 DUP2 SWAP1 MSTORE PUSH1 0x40 DUP3 KECCAK256 DUP1 SLOAD PUSH1 0x1 PUSH1 0x1 PUSH1 0xA0 SHL SUB NOT SWAP1 DUP2 AND DUP3 SSTORE PUSH1 0x1 DUP3 ADD DUP1 SLOAD DUP3 AND SWAP1 SSTORE PUSH1 0x2 DUP3 ADD DUP1 SLOAD SWAP1 SWAP2 AND SWAP1 SSTORE SWAP1 DUP2 ADD DUP3 SWAP1 SSTORE SWAP1 PUSH2 0x3970 PUSH1 0x4 DUP4 ADD DUP3 PUSH2 0x5993 JUMP JUMPDEST PUSH1 0x5 DUP3 ADD DUP1 SLOAD PUSH1 0xFF NOT AND SWAP1 SSTORE PUSH2 0x398A PUSH1 0x6 DUP4 ADD PUSH1 0x0 PUSH2 0x5993 JUMP JUMPDEST POP PUSH1 0x0 PUSH1 0x7 DUP3 DUP2 ADD DUP3 SWAP1 SSTORE PUSH1 0x8 SWAP1 SWAP3 ADD DUP2 SWAP1 SSTORE DUP5 DUP2 MSTORE PUSH1 0x20 SWAP2 DUP3 MSTORE PUSH1 0x40 DUP1 DUP3 KECCAK256 DUP3 DUP2 SSTORE PUSH1 0x1 DUP1 DUP3 ADD DUP5 SWAP1 SSTORE PUSH1 0x2 SWAP2 DUP3 ADD DUP5 SWAP1 SSTORE PUSH1 0x6 SWAP1 SWAP5 MSTORE SWAP1 DUP3 KECCAK256 DUP1 SLOAD PUSH1 0x1 PUSH1 0x1 PUSH1 0xA0 SHL SUB NOT SWAP1 DUP2 AND DUP3 SSTORE SWAP4 DUP2 ADD DUP1 SLOAD DUP6 AND SWAP1 SSTORE SWAP1 DUP2 ADD DUP1 SLOAD SWAP1 SWAP4 AND SWAP1 SWAP3 SSTORE PUSH1 0x3 DUP3 ADD DUP2 SWAP1 SSTORE PUSH2 0x39FD PUSH1 0x4 DUP4 ADD DUP3 PUSH2 0x5993 JUMP JUMPDEST PUSH1 0x5 DUP3 ADD DUP1 SLOAD PUSH1 0xFF NOT AND SWAP1 SSTORE PUSH2 0x3A17 PUSH1 0x6 DUP4 ADD PUSH1 0x0 PUSH2 0x5993 JUMP JUMPDEST PUSH1 0x7 DUP3 ADD PUSH1 0x0 SWAP1 SSTORE PUSH1 0x8 DUP3 ADD PUSH1 0x0 SWAP1 SSTORE POP POP PUSH32 0x5B5BDDE384B3291BB09948B7B8E2FE72E964AD6835353F33165701F8D8B6311C DUP4 CALLER PUSH1 0x40 MLOAD PUSH2 0x338E SWAP3 SWAP2 SWAP1 PUSH2 0x6AA4 JUMP JUMPDEST PUSH1 0x25 SLOAD DUP2 JUMP JUMPDEST PUSH1 0x0 DUP3 DUP2 MSTORE PUSH1 0xE PUSH1 0x20 SWAP1 DUP2 MSTORE PUSH1 0x40 DUP1 DUP4 KECCAK256 DUP5 DUP5 MSTORE SWAP1 SWAP2 MSTORE SWAP1 KECCAK256 SLOAD PUSH1 0x1 PUSH1 0x1 PUSH1 0xA0 SHL SUB AND JUMPDEST SWAP3 SWAP2 POP POP JUMP JUMPDEST PUSH1 0x1 SLOAD PUSH1 0x1 PUSH1 0x1 PUSH1 0xA0 SHL SUB AND CALLER EQ PUSH2 0x3AB4 JUMPI PUSH1 0x40 MLOAD PUSH3 0x461BCD PUSH1 0xE5 SHL DUP2 MSTORE PUSH1 0x4 ADD PUSH2 0x1278 SWAP1 PUSH2 0x698D JUMP JUMPDEST PUSH1 0x29 SLOAD PUSH1 0xFF AND ISZERO PUSH2 0x3AD7 JUMPI PUSH1 0x40 MLOAD PUSH3 0x461BCD PUSH1 0xE5 SHL DUP2 MSTORE PUSH1 0x4 ADD PUSH2 0x1278 SWAP1 PUSH2 0x6956 JUMP JUMPDEST PUSH1 0x29 DUP1 SLOAD PUSH1 0xFF NOT AND PUSH1 0x1 OR SWAP1 SSTORE JUMP JUMPDEST PUSH1 0xB PUSH1 0x20 MSTORE PUSH1 0x0 SWAP1 DUP2 MSTORE PUSH1 0x40 SWAP1 KECCAK256 SLOAD DUP2 JUMP JUMPDEST PUSH1 0x1D SLOAD DUP2 JUMP JUMPDEST PUSH1 0x0 PUSH2 0x3B0B DUP6 DUP6 DUP6 PUSH2 0x5412 JUMP JUMPDEST PUSH1 0x19 SLOAD PUSH2 0x3B1F SWAP1 DUP7 SWAP1 PUSH4 0xFFFFFFFF PUSH2 0x534E AND JUMP JUMPDEST SWAP5 POP PUSH1 0x0 PUSH2 0x3B65 DUP9 DUP9 DUP1 DUP1 PUSH1 0x20 MUL PUSH1 0x20 ADD PUSH1 0x40 MLOAD SWAP1 DUP2 ADD PUSH1 0x40 MSTORE DUP1 SWAP4 SWAP3 SWAP2 SWAP1 DUP2 DUP2 MSTORE PUSH1 0x20 ADD DUP4 DUP4 PUSH1 0x20 MUL DUP1 DUP3 DUP5 CALLDATACOPY PUSH1 0x0 SWAP3 ADD SWAP2 SWAP1 SWAP2 MSTORE POP DUP11 SWAP3 POP DUP10 SWAP2 POP DUP9 SWAP1 POP DUP8 PUSH2 0x5460 JUMP JUMPDEST SWAP1 POP PUSH32 0xAA32D33A6D7B7D1531FC41B3DFBC84E08FDDBA5DB1ED6B86BD4C8E39D8EFCDFE DUP2 CALLER DUP8 DUP8 DUP13 DUP13 PUSH1 0x0 DUP2 DUP2 LT PUSH2 0x3B99 JUMPI INVALID JUMPDEST SWAP1 POP PUSH1 0x20 MUL ADD CALLDATALOAD DUP12 DUP10 PUSH1 0x40 MLOAD PUSH2 0x3BB5 SWAP8 SWAP7 SWAP6 SWAP5 SWAP4 SWAP3 SWAP2 SWAP1 PUSH2 0x6ADA JUMP JUMPDEST PUSH1 0x40 MLOAD DUP1 SWAP2 SUB SWAP1 LOG1 SWAP8 SWAP7 POP POP POP POP POP POP POP JUMP JUMPDEST PUSH1 0x1 PUSH1 0x1 PUSH1 0xA0 SHL SUB AND PUSH1 0x0 SWAP1 DUP2 MSTORE PUSH1 0xD PUSH1 0x20 MSTORE PUSH1 0x40 SWAP1 KECCAK256 DUP1 SLOAD PUSH1 0x0 NOT ADD SWAP1 SSTORE JUMP JUMPDEST PUSH1 0x0 SLOAD PUSH1 0x1 PUSH1 0x1 PUSH1 0xA0 SHL SUB AND SWAP1 JUMP JUMPDEST PUSH1 0x0 DUP2 DUP2 MSTORE PUSH1 0x3 PUSH1 0x20 MSTORE PUSH1 0x40 SWAP1 KECCAK256 PUSH1 0x1 ADD SLOAD PUSH1 0x1 PUSH1 0x1 PUSH1 0xA0 SHL SUB AND CALLER EQ SWAP2 SWAP1 POP JUMP JUMPDEST PUSH1 0x0 DUP1 DUP1 JUMPDEST PUSH1 0x0 DUP5 DUP2 MSTORE PUSH1 0x3 PUSH1 0x20 MSTORE PUSH1 0x40 SWAP1 KECCAK256 PUSH1 0x6 ADD SLOAD DUP2 LT ISZERO PUSH2 0x24F0 JUMPI PUSH1 0x0 DUP5 DUP2 MSTORE PUSH1 0xE PUSH1 0x20 SWAP1 DUP2 MSTORE PUSH1 0x40 DUP1 DUP4 KECCAK256 PUSH1 0x3 SWAP1 SWAP3 MSTORE DUP3 KECCAK256 PUSH1 0x6 ADD DUP1 SLOAD DUP4 SWAP2 SWAP1 DUP6 SWAP1 DUP2 LT PUSH2 0x3C62 JUMPI INVALID JUMPDEST PUSH1 0x0 SWAP2 DUP3 MSTORE PUSH1 0x20 DUP1 DUP4 KECCAK256 SWAP1 SWAP2 ADD SLOAD DUP4 MSTORE DUP3 DUP2 ADD SWAP4 SWAP1 SWAP4 MSTORE PUSH1 0x40 SWAP2 DUP3 ADD DUP2 KECCAK256 SLOAD DUP9 DUP3 MSTORE PUSH1 0x8 DUP5 MSTORE DUP3 DUP3 KECCAK256 PUSH1 0x1 PUSH1 0x1 PUSH1 0xA0 SHL SUB SWAP1 SWAP2 AND DUP1 DUP4 MSTORE SWAP4 MSTORE KECCAK256 SLOAD SWAP1 SWAP2 POP DUP4 DUP2 GT ISZERO PUSH2 0x3CAC JUMPI DUP1 SWAP4 POP JUMPDEST POP POP PUSH1 0x1 ADD PUSH2 0x3C1F JUMP JUMPDEST PUSH1 0x20 SLOAD DUP2 JUMP JUMPDEST PUSH1 0x1 PUSH1 0x1 PUSH1 0xA0 SHL SUB AND PUSH1 0x0 SWAP1 DUP2 MSTORE PUSH1 0xD PUSH1 0x20 MSTORE PUSH1 0x40 SWAP1 KECCAK256 DUP1 SLOAD PUSH1 0x1 ADD SWAP1 SSTORE JUMP JUMPDEST PUSH1 0x0 DUP3 DUP2 MSTORE PUSH1 0x3 PUSH1 0x20 MSTORE PUSH1 0x40 SWAP1 KECCAK256 PUSH1 0x1 ADD SLOAD DUP3 SWAP1 PUSH1 0x1 PUSH1 0x1 PUSH1 0xA0 SHL SUB AND CALLER EQ PUSH2 0x3D17 JUMPI PUSH1 0x40 MLOAD PUSH3 0x461BCD PUSH1 0xE5 SHL DUP2 MSTORE PUSH1 0x4 ADD PUSH2 0x1278 SWAP1 PUSH2 0x64CB JUMP JUMPDEST PUSH1 0x0 DUP4 DUP2 MSTORE PUSH1 0x3 PUSH1 0x20 MSTORE PUSH1 0x40 SWAP1 KECCAK256 PUSH1 0x7 ADD SLOAD TIMESTAMP DUP2 GT PUSH2 0x3D48 JUMPI PUSH1 0x40 MLOAD PUSH3 0x461BCD PUSH1 0xE5 SHL DUP2 MSTORE PUSH1 0x4 ADD PUSH2 0x1278 SWAP1 PUSH2 0x6244 JUMP JUMPDEST DUP3 PUSH1 0x1F DUP2 SWAP1 SSTORE POP DUP4 PUSH32 0xF5B670DFC12583E5B0164FCA9FBBD0E6997013CA4B1A92457F1D3AEAD8DFD435 DUP5 PUSH1 0x40 MLOAD PUSH2 0x12E9 SWAP2 SWAP1 PUSH2 0x6A9B JUMP JUMPDEST PUSH1 0x1C SLOAD DUP2 JUMP JUMPDEST PUSH1 0x21 SLOAD DUP2 JUMP JUMPDEST PUSH1 0x26 SLOAD DUP2 JUMP JUMPDEST PUSH1 0x0 SWAP1 DUP2 MSTORE PUSH1 0x3 PUSH1 0x20 MSTORE PUSH1 0x40 SWAP1 KECCAK256 PUSH1 0x7 ADD SLOAD TIMESTAMP LT ISZERO SWAP1 JUMP JUMPDEST PUSH1 0x0 PUSH1 0x29 PUSH1 0x1 SWAP1 SLOAD SWAP1 PUSH2 0x100 EXP SWAP1 DIV PUSH1 0x1 PUSH1 0x1 PUSH1 0xA0 SHL SUB AND PUSH1 0x1 PUSH1 0x1 PUSH1 0xA0 SHL SUB AND PUSH4 0x16FE73EC PUSH1 0x40 MLOAD DUP2 PUSH4 0xFFFFFFFF AND PUSH1 0xE0 SHL DUP2 MSTORE PUSH1 0x4 ADD PUSH1 0x20 PUSH1 0x40 MLOAD DUP1 DUP4 SUB DUP2 DUP7 DUP1 EXTCODESIZE ISZERO DUP1 ISZERO PUSH2 0x3DF9 JUMPI PUSH1 0x0 DUP1 REVERT JUMPDEST POP GAS STATICCALL ISZERO DUP1 ISZERO PUSH2 0x3E0D JUMPI RETURNDATASIZE PUSH1 0x0 DUP1 RETURNDATACOPY RETURNDATASIZE PUSH1 0x0 REVERT JUMPDEST POP POP POP POP PUSH1 0x40 MLOAD RETURNDATASIZE PUSH1 0x1F NOT PUSH1 0x1F DUP3 ADD AND DUP3 ADD DUP1 PUSH1 0x40 MSTORE POP DUP2 ADD SWAP1 PUSH2 0x3E31 SWAP2 SWAP1 PUSH2 0x5BFE JUMP JUMPDEST GT PUSH2 0x3E4E JUMPI PUSH1 0x40 MLOAD PUSH3 0x461BCD PUSH1 0xE5 SHL DUP2 MSTORE PUSH1 0x4 ADD PUSH2 0x1278 SWAP1 PUSH2 0x6494 JUMP JUMPDEST PUSH1 0x0 PUSH1 0x29 PUSH1 0x1 SWAP1 SLOAD SWAP1 PUSH2 0x100 EXP SWAP1 DIV PUSH1 0x1 PUSH1 0x1 PUSH1 0xA0 SHL SUB AND PUSH1 0x1 PUSH1 0x1 PUSH1 0xA0 SHL SUB AND PUSH4 0x16FE73EC PUSH1 0x40 MLOAD DUP2 PUSH4 0xFFFFFFFF AND PUSH1 0xE0 SHL DUP2 MSTORE PUSH1 0x4 ADD PUSH1 0x20 PUSH1 0x40 MLOAD DUP1 DUP4 SUB DUP2 DUP7 DUP1 EXTCODESIZE ISZERO DUP1 ISZERO PUSH2 0x3E9E JUMPI PUSH1 0x0 DUP1 REVERT JUMPDEST POP GAS STATICCALL ISZERO DUP1 ISZERO PUSH2 0x3EB2 JUMPI RETURNDATASIZE PUSH1 0x0 DUP1 RETURNDATACOPY RETURNDATASIZE PUSH1 0x0 REVERT JUMPDEST POP POP POP POP PUSH1 0x40 MLOAD RETURNDATASIZE PUSH1 0x1F NOT PUSH1 0x1F DUP3 ADD AND DUP3 ADD DUP1 PUSH1 0x40 MSTORE POP DUP2 ADD SWAP1 PUSH2 0x3ED6 SWAP2 SWAP1 PUSH2 0x5BFE JUMP JUMPDEST SWAP1 POP DUP2 PUSH32 0x1265ED0EE2224724954858BC12B94D9EC15E1A0F2F4B3AA8E2BBA70794590208 DUP3 PUSH1 0x40 MLOAD PUSH2 0x3F08 SWAP2 SWAP1 PUSH2 0x6A9B JUMP JUMPDEST PUSH1 0x40 MLOAD DUP1 SWAP2 SUB SWAP1 LOG2 PUSH1 0x29 PUSH1 0x1 SWAP1 SLOAD SWAP1 PUSH2 0x100 EXP SWAP1 DIV PUSH1 0x1 PUSH1 0x1 PUSH1 0xA0 SHL SUB AND PUSH1 0x1 PUSH1 0x1 PUSH1 0xA0 SHL SUB AND PUSH4 0xF9E19FA5 PUSH1 0x40 MLOAD DUP2 PUSH4 0xFFFFFFFF AND PUSH1 0xE0 SHL DUP2 MSTORE PUSH1 0x4 ADD PUSH1 0x0 PUSH1 0x40 MLOAD DUP1 DUP4 SUB DUP2 PUSH1 0x0 DUP8 DUP1 EXTCODESIZE ISZERO DUP1 ISZERO PUSH2 0x3F60 JUMPI PUSH1 0x0 DUP1 REVERT JUMPDEST POP GAS CALL ISZERO DUP1 ISZERO PUSH2 0x3F74 JUMPI RETURNDATASIZE PUSH1 0x0 DUP1 RETURNDATACOPY RETURNDATASIZE PUSH1 0x0 REVERT JUMPDEST POP POP POP POP POP POP JUMP JUMPDEST PUSH1 0xF PUSH1 0x20 SWAP1 DUP2 MSTORE PUSH1 0x0 SWAP3 DUP4 MSTORE PUSH1 0x40 DUP1 DUP5 KECCAK256 SWAP1 SWAP2 MSTORE SWAP1 DUP3 MSTORE SWAP1 KECCAK256 SLOAD PUSH1 0x1 PUSH1 0x1 PUSH1 0xA0 SHL SUB AND DUP2 JUMP JUMPDEST PUSH1 0x29 SLOAD PUSH2 0x100 SWAP1 DIV PUSH1 0x1 PUSH1 0x1 PUSH1 0xA0 SHL SUB AND DUP2 JUMP JUMPDEST PUSH1 0x29 SLOAD PUSH1 0xFF AND SWAP1 JUMP JUMPDEST PUSH1 0x0 SWAP2 DUP3 MSTORE PUSH1 0x9 PUSH1 0x20 SWAP1 DUP2 MSTORE PUSH1 0x40 DUP1 DUP5 KECCAK256 PUSH1 0x1 PUSH1 0x1 PUSH1 0xA0 SHL SUB SWAP4 SWAP1 SWAP4 AND DUP5 MSTORE SWAP2 SWAP1 MSTORE SWAP1 KECCAK256 SLOAD SWAP1 JUMP JUMPDEST PUSH1 0x19 SLOAD DUP2 JUMP JUMPDEST PUSH1 0x1B SLOAD DUP2 JUMP JUMPDEST PUSH1 0xA PUSH1 0x20 MSTORE PUSH1 0x0 SWAP1 DUP2 MSTORE PUSH1 0x40 SWAP1 KECCAK256 SLOAD DUP2 JUMP JUMPDEST PUSH1 0x1 SLOAD PUSH1 0x2 SLOAD PUSH1 0x1 PUSH1 0x1 PUSH1 0xA0 SHL SUB SWAP1 SWAP2 AND SWAP2 JUMP JUMPDEST PUSH1 0x1F SLOAD DUP2 JUMP JUMPDEST PUSH1 0x0 SWAP2 DUP3 MSTORE PUSH1 0xF PUSH1 0x20 SWAP1 DUP2 MSTORE PUSH1 0x40 DUP1 DUP5 KECCAK256 SWAP3 DUP5 MSTORE SWAP2 SWAP1 MSTORE SWAP1 KECCAK256 SLOAD PUSH1 0x1 PUSH1 0x1 PUSH1 0xA0 SHL SUB AND SWAP1 JUMP JUMPDEST PUSH1 0x0 SWAP1 DUP2 MSTORE PUSH1 0x3 PUSH1 0x20 MSTORE PUSH1 0x40 SWAP1 KECCAK256 PUSH1 0x7 ADD SLOAD TIMESTAMP GT SWAP1 JUMP JUMPDEST PUSH1 0x0 SWAP3 DUP4 MSTORE PUSH1 0x8 PUSH1 0x20 SWAP1 DUP2 MSTORE PUSH1 0x40 DUP1 DUP6 KECCAK256 PUSH1 0x1 PUSH1 0x1 PUSH1 0xA0 SHL SUB SWAP1 SWAP5 AND DUP6 MSTORE SWAP3 SWAP1 MSTORE SWAP2 KECCAK256 SSTORE JUMP JUMPDEST PUSH1 0x0 DUP2 DUP2 MSTORE PUSH1 0x3 PUSH1 0x20 MSTORE PUSH1 0x40 SWAP1 KECCAK256 PUSH1 0x1 ADD SLOAD DUP2 SWAP1 PUSH1 0x1 PUSH1 0x1 PUSH1 0xA0 SHL SUB AND CALLER EQ PUSH2 0x40BD JUMPI PUSH1 0x40 MLOAD PUSH3 0x461BCD PUSH1 0xE5 SHL DUP2 MSTORE PUSH1 0x4 ADD PUSH2 0x1278 SWAP1 PUSH2 0x64CB JUMP JUMPDEST PUSH1 0x0 DUP3 DUP2 MSTORE PUSH1 0x3 PUSH1 0x20 MSTORE PUSH1 0x40 SWAP1 KECCAK256 PUSH1 0x7 ADD SLOAD DUP3 SWAP1 TIMESTAMP LT PUSH2 0x40EF JUMPI PUSH1 0x40 MLOAD PUSH3 0x461BCD PUSH1 0xE5 SHL DUP2 MSTORE PUSH1 0x4 ADD PUSH2 0x1278 SWAP1 PUSH2 0x67E8 JUMP JUMPDEST PUSH1 0x1A SLOAD PUSH1 0x0 DUP5 DUP2 MSTORE PUSH1 0x3 PUSH1 0x20 MSTORE PUSH1 0x40 SWAP1 KECCAK256 PUSH1 0x7 ADD SLOAD PUSH2 0x4113 SWAP2 PUSH4 0xFFFFFFFF PUSH2 0x53EA AND JUMP JUMPDEST TIMESTAMP GT PUSH2 0x4131 JUMPI PUSH1 0x40 MLOAD PUSH3 0x461BCD PUSH1 0xE5 SHL DUP2 MSTORE PUSH1 0x4 ADD PUSH2 0x1278 SWAP1 PUSH2 0x68C2 JUMP JUMPDEST PUSH1 0x0 JUMPDEST PUSH1 0x0 DUP5 DUP2 MSTORE PUSH1 0x3 PUSH1 0x20 MSTORE PUSH1 0x40 SWAP1 KECCAK256 PUSH1 0x6 ADD SLOAD DUP2 LT ISZERO PUSH2 0x41BC JUMPI PUSH1 0x0 DUP5 DUP2 MSTORE PUSH1 0xE PUSH1 0x20 SWAP1 DUP2 MSTORE PUSH1 0x40 DUP1 DUP4 KECCAK256 PUSH1 0x3 SWAP1 SWAP3 MSTORE DUP3 KECCAK256 PUSH1 0x6 ADD DUP1 SLOAD DUP4 SWAP2 SWAP1 DUP6 SWAP1 DUP2 LT PUSH2 0x4177 JUMPI INVALID JUMPDEST PUSH1 0x0 SWAP2 DUP3 MSTORE PUSH1 0x20 DUP1 DUP4 KECCAK256 SWAP1 SWAP2 ADD SLOAD DUP4 MSTORE DUP3 DUP2 ADD SWAP4 SWAP1 SWAP4 MSTORE PUSH1 0x40 SWAP2 DUP3 ADD DUP2 KECCAK256 SLOAD DUP9 DUP3 MSTORE PUSH1 0x8 DUP5 MSTORE DUP3 DUP3 KECCAK256 PUSH1 0x1 PUSH1 0x1 PUSH1 0xA0 SHL SUB SWAP1 SWAP2 AND DUP3 MSTORE SWAP1 SWAP3 MSTORE DUP2 KECCAK256 SSTORE POP PUSH1 0x1 ADD PUSH2 0x4134 JUMP JUMPDEST POP PUSH1 0x40 MLOAD DUP4 SWAP1 PUSH32 0x7802CD593F5C917333E3EAA52E735224BA7D2AF514A30CC7B8CB8B768B49CDBF SWAP1 PUSH1 0x0 SWAP1 LOG2 POP POP POP JUMP JUMPDEST PUSH1 0x0 DUP2 DUP2 MSTORE PUSH1 0x3 PUSH1 0x20 MSTORE PUSH1 0x40 SWAP1 KECCAK256 PUSH1 0x1 ADD SLOAD DUP2 SWAP1 PUSH1 0x1 PUSH1 0x1 PUSH1 0xA0 SHL SUB AND CALLER EQ PUSH2 0x4228 JUMPI PUSH1 0x40 MLOAD PUSH3 0x461BCD PUSH1 0xE5 SHL DUP2 MSTORE PUSH1 0x4 ADD PUSH2 0x1278 SWAP1 PUSH2 0x64CB JUMP JUMPDEST PUSH1 0x0 DUP3 DUP2 MSTORE PUSH1 0x3 PUSH1 0x20 MSTORE PUSH1 0x40 SWAP1 KECCAK256 PUSH1 0x7 ADD SLOAD DUP3 SWAP1 TIMESTAMP LT PUSH2 0x425A JUMPI PUSH1 0x40 MLOAD PUSH3 0x461BCD PUSH1 0xE5 SHL DUP2 MSTORE PUSH1 0x4 ADD PUSH2 0x1278 SWAP1 PUSH2 0x67E8 JUMP JUMPDEST PUSH1 0x1 PUSH1 0x0 DUP5 DUP2 MSTORE PUSH1 0x3 PUSH1 0x20 MSTORE PUSH1 0x40 SWAP1 KECCAK256 PUSH1 0x5 ADD SLOAD PUSH1 0xFF AND PUSH1 0x2 DUP2 GT ISZERO PUSH2 0x427C JUMPI INVALID JUMPDEST EQ ISZERO PUSH2 0x429A JUMPI PUSH1 0x40 MLOAD PUSH3 0x461BCD PUSH1 0xE5 SHL DUP2 MSTORE PUSH1 0x4 ADD PUSH2 0x1278 SWAP1 PUSH2 0x6356 JUMP JUMPDEST PUSH1 0x0 DUP4 DUP2 MSTORE PUSH1 0x3 PUSH1 0x20 DUP2 SWAP1 MSTORE PUSH1 0x40 SWAP2 DUP3 SWAP1 KECCAK256 PUSH1 0x2 DUP2 ADD SLOAD PUSH1 0x1 DUP3 ADD SLOAD SWAP2 SWAP1 SWAP3 ADD SLOAD SWAP3 MLOAD PUSH4 0xA9059CBB PUSH1 0xE0 SHL DUP2 MSTORE PUSH1 0x1 PUSH1 0x1 PUSH1 0xA0 SHL SUB SWAP3 DUP4 AND SWAP4 PUSH4 0xA9059CBB SWAP4 PUSH2 0x42E7 SWAP4 AND SWAP2 PUSH1 0x4 ADD PUSH2 0x5E3D JUMP JUMPDEST PUSH1 0x20 PUSH1 0x40 MLOAD DUP1 DUP4 SUB DUP2 PUSH1 0x0 DUP8 DUP1 EXTCODESIZE ISZERO DUP1 ISZERO PUSH2 0x4301 JUMPI PUSH1 0x0 DUP1 REVERT JUMPDEST POP GAS CALL ISZERO DUP1 ISZERO PUSH2 0x4315 JUMPI RETURNDATASIZE PUSH1 0x0 DUP1 RETURNDATACOPY RETURNDATASIZE PUSH1 0x0 REVERT JUMPDEST POP POP POP POP PUSH1 0x40 MLOAD RETURNDATASIZE PUSH1 0x1F NOT PUSH1 0x1F DUP3 ADD AND DUP3 ADD DUP1 PUSH1 0x40 MSTORE POP DUP2 ADD SWAP1 PUSH2 0x4339 SWAP2 SWAP1 PUSH2 0x5BC6 JUMP JUMPDEST PUSH2 0x4355 JUMPI PUSH1 0x40 MLOAD PUSH3 0x461BCD PUSH1 0xE5 SHL DUP2 MSTORE PUSH1 0x4 ADD PUSH2 0x1278 SWAP1 PUSH2 0x6397 JUMP JUMPDEST PUSH1 0x0 DUP4 DUP2 MSTORE PUSH1 0x3 PUSH1 0x20 SWAP1 DUP2 MSTORE PUSH1 0x40 DUP1 DUP4 KECCAK256 PUSH1 0x2 DUP2 ADD SLOAD SWAP1 SLOAD PUSH1 0x7 SWAP1 SWAP4 MSTORE SWAP3 DUP2 SWAP1 KECCAK256 PUSH1 0x1 ADD SLOAD SWAP1 MLOAD PUSH4 0xA9059CBB PUSH1 0xE0 SHL DUP2 MSTORE PUSH1 0x1 PUSH1 0x1 PUSH1 0xA0 SHL SUB SWAP4 DUP5 AND SWAP4 PUSH4 0xA9059CBB SWAP4 PUSH2 0x43A7 SWAP4 SWAP2 AND SWAP2 PUSH1 0x4 ADD PUSH2 0x5E3D JUMP JUMPDEST PUSH1 0x20 PUSH1 0x40 MLOAD DUP1 DUP4 SUB DUP2 PUSH1 0x0 DUP8 DUP1 EXTCODESIZE ISZERO DUP1 ISZERO PUSH2 0x43C1 JUMPI PUSH1 0x0 DUP1 REVERT JUMPDEST POP GAS CALL ISZERO DUP1 ISZERO PUSH2 0x43D5 JUMPI RETURNDATASIZE PUSH1 0x0 DUP1 RETURNDATACOPY RETURNDATASIZE PUSH1 0x0 REVERT JUMPDEST POP POP POP POP PUSH1 0x40 MLOAD RETURNDATASIZE PUSH1 0x1F NOT PUSH1 0x1F DUP3 ADD AND DUP3 ADD DUP1 PUSH1 0x40 MSTORE POP DUP2 ADD SWAP1 PUSH2 0x43F9 SWAP2 SWAP1 PUSH2 0x5BC6 JUMP JUMPDEST PUSH2 0x4415 JUMPI PUSH1 0x40 MLOAD PUSH3 0x461BCD PUSH1 0xE5 SHL DUP2 MSTORE PUSH1 0x4 ADD PUSH2 0x1278 SWAP1 PUSH2 0x6046 JUMP JUMPDEST CALLER PUSH1 0x0 SWAP1 DUP2 MSTORE PUSH1 0x5 PUSH1 0x20 SWAP1 DUP2 MSTORE PUSH1 0x40 DUP1 DUP4 KECCAK256 DUP7 DUP5 MSTORE SWAP1 SWAP2 MSTORE DUP2 KECCAK256 DUP1 SLOAD PUSH1 0x1 PUSH1 0x1 PUSH1 0xA0 SHL SUB NOT SWAP1 DUP2 AND DUP3 SSTORE PUSH1 0x1 DUP3 ADD DUP1 SLOAD DUP3 AND SWAP1 SSTORE PUSH1 0x2 DUP3 ADD DUP1 SLOAD SWAP1 SWAP2 AND SWAP1 SSTORE PUSH1 0x3 DUP2 ADD DUP3 SWAP1 SSTORE SWAP1 PUSH2 0x4469 PUSH1 0x4 DUP4 ADD DUP3 PUSH2 0x5993 JUMP JUMPDEST PUSH1 0x5 DUP3 ADD DUP1 SLOAD PUSH1 0xFF NOT AND SWAP1 SSTORE PUSH2 0x4483 PUSH1 0x6 DUP4 ADD PUSH1 0x0 PUSH2 0x5993 JUMP JUMPDEST POP PUSH1 0x0 PUSH1 0x7 DUP3 ADD DUP2 SWAP1 SSTORE PUSH1 0x8 SWAP1 SWAP2 ADD DUP2 SWAP1 SSTORE CALLER DUP2 MSTORE PUSH1 0x4 PUSH1 0x20 DUP2 DUP2 MSTORE PUSH1 0x40 DUP1 DUP5 KECCAK256 DUP8 DUP6 MSTORE SWAP1 SWAP2 MSTORE DUP3 KECCAK256 DUP1 SLOAD PUSH1 0x1 PUSH1 0x1 PUSH1 0xA0 SHL SUB NOT SWAP1 DUP2 AND DUP3 SSTORE PUSH1 0x1 DUP3 ADD DUP1 SLOAD DUP3 AND SWAP1 SSTORE PUSH1 0x2 DUP3 ADD DUP1 SLOAD SWAP1 SWAP2 AND SWAP1 SSTORE PUSH1 0x3 DUP2 ADD DUP4 SWAP1 SSTORE SWAP2 SWAP1 PUSH2 0x44E6 SWAP1 DUP4 ADD DUP3 PUSH2 0x5993 JUMP JUMPDEST PUSH1 0x5 DUP3 ADD DUP1 SLOAD PUSH1 0xFF NOT AND SWAP1 SSTORE PUSH2 0x4500 PUSH1 0x6 DUP4 ADD PUSH1 0x0 PUSH2 0x5993 JUMP JUMPDEST POP PUSH1 0x0 PUSH1 0x7 DUP3 ADD DUP2 SWAP1 SSTORE PUSH1 0x8 SWAP1 SWAP2 ADD DUP2 SWAP1 SSTORE DUP4 DUP2 MSTORE PUSH1 0x3 PUSH1 0x20 DUP2 SWAP1 MSTORE PUSH1 0x40 DUP3 KECCAK256 DUP1 SLOAD PUSH1 0x1 PUSH1 0x1 PUSH1 0xA0 SHL SUB NOT SWAP1 DUP2 AND DUP3 SSTORE PUSH1 0x1 DUP3 ADD DUP1 SLOAD DUP3 AND SWAP1 SSTORE PUSH1 0x2 DUP3 ADD DUP1 SLOAD SWAP1 SWAP2 AND SWAP1 SSTORE SWAP1 DUP2 ADD DUP3 SWAP1 SSTORE SWAP1 PUSH2 0x4559 PUSH1 0x4 DUP4 ADD DUP3 PUSH2 0x5993 JUMP JUMPDEST PUSH1 0x5 DUP3 ADD DUP1 SLOAD PUSH1 0xFF NOT AND SWAP1 SSTORE PUSH2 0x4573 PUSH1 0x6 DUP4 ADD PUSH1 0x0 PUSH2 0x5993 JUMP JUMPDEST POP PUSH1 0x0 PUSH1 0x7 DUP3 DUP2 ADD DUP3 SWAP1 SSTORE PUSH1 0x8 SWAP1 SWAP3 ADD DUP2 SWAP1 SSTORE DUP5 DUP2 MSTORE PUSH1 0x20 SWAP2 DUP3 MSTORE PUSH1 0x40 DUP1 DUP3 KECCAK256 DUP3 DUP2 SSTORE PUSH1 0x1 DUP1 DUP3 ADD DUP5 SWAP1 SSTORE PUSH1 0x2 SWAP2 DUP3 ADD DUP5 SWAP1 SSTORE PUSH1 0x6 SWAP1 SWAP5 MSTORE SWAP1 DUP3 KECCAK256 DUP1 SLOAD PUSH1 0x1 PUSH1 0x1 PUSH1 0xA0 SHL SUB NOT SWAP1 DUP2 AND DUP3 SSTORE SWAP4 DUP2 ADD DUP1 SLOAD DUP6 AND SWAP1 SSTORE SWAP1 DUP2 ADD DUP1 SLOAD SWAP1 SWAP4 AND SWAP1 SWAP3 SSTORE PUSH1 0x3 DUP3 ADD DUP2 SWAP1 SSTORE PUSH2 0x45E6 PUSH1 0x4 DUP4 ADD DUP3 PUSH2 0x5993 JUMP JUMPDEST PUSH1 0x5 DUP3 ADD DUP1 SLOAD PUSH1 0xFF NOT AND SWAP1 SSTORE PUSH2 0x4600 PUSH1 0x6 DUP4 ADD PUSH1 0x0 PUSH2 0x5993 JUMP JUMPDEST POP PUSH1 0x0 PUSH1 0x7 DUP3 ADD DUP2 SWAP1 SSTORE PUSH1 0x8 SWAP1 SWAP2 ADD SSTORE PUSH1 0x40 MLOAD CALLER SWAP1 PUSH32 0x99345787A609D8A93A34AC5C7C9C0A4B1691A4E49B40518F6D6E193C286432AA SWAP1 PUSH2 0x321C SWAP1 DUP7 SWAP1 PUSH2 0x6A9B JUMP JUMPDEST PUSH1 0x1E SLOAD SWAP1 JUMP JUMPDEST PUSH1 0x0 DUP2 DUP2 MSTORE PUSH1 0x3 PUSH1 0x20 MSTORE PUSH1 0x40 SWAP1 KECCAK256 PUSH1 0x1 ADD SLOAD DUP2 SWAP1 PUSH1 0x1 PUSH1 0x1 PUSH1 0xA0 SHL SUB AND CALLER EQ PUSH2 0x4683 JUMPI PUSH1 0x40 MLOAD PUSH3 0x461BCD PUSH1 0xE5 SHL DUP2 MSTORE PUSH1 0x4 ADD PUSH2 0x1278 SWAP1 PUSH2 0x64CB JUMP JUMPDEST PUSH1 0x0 DUP3 DUP2 MSTORE PUSH1 0x3 PUSH1 0x20 MSTORE PUSH1 0x40 SWAP1 KECCAK256 PUSH1 0x7 ADD SLOAD DUP3 SWAP1 TIMESTAMP LT PUSH2 0x46B5 JUMPI PUSH1 0x40 MLOAD PUSH3 0x461BCD PUSH1 0xE5 SHL DUP2 MSTORE PUSH1 0x4 ADD PUSH2 0x1278 SWAP1 PUSH2 0x67E8 JUMP JUMPDEST PUSH1 0x1 PUSH1 0x0 DUP5 DUP2 MSTORE PUSH1 0x3 PUSH1 0x20 MSTORE PUSH1 0x40 SWAP1 KECCAK256 PUSH1 0x5 ADD SLOAD PUSH1 0xFF AND PUSH1 0x2 DUP2 GT ISZERO PUSH2 0x46D7 JUMPI INVALID JUMPDEST EQ PUSH2 0x46F4 JUMPI PUSH1 0x40 MLOAD PUSH3 0x461BCD PUSH1 0xE5 SHL DUP2 MSTORE PUSH1 0x4 ADD PUSH2 0x1278 SWAP1 PUSH2 0x6639 JUMP JUMPDEST CALLER PUSH1 0x0 SWAP1 DUP2 MSTORE PUSH1 0x5 PUSH1 0x20 SWAP1 DUP2 MSTORE PUSH1 0x40 DUP1 DUP4 KECCAK256 DUP7 DUP5 MSTORE SWAP1 SWAP2 MSTORE DUP2 KECCAK256 DUP1 SLOAD PUSH1 0x1 PUSH1 0x1 PUSH1 0xA0 SHL SUB NOT SWAP1 DUP2 AND DUP3 SSTORE PUSH1 0x1 DUP3 ADD DUP1 SLOAD DUP3 AND SWAP1 SSTORE PUSH1 0x2 DUP3 ADD DUP1 SLOAD SWAP1 SWAP2 AND SWAP1 SSTORE PUSH1 0x3 DUP2 ADD DUP3 SWAP1 SSTORE SWAP1 PUSH2 0x4748 PUSH1 0x4 DUP4 ADD DUP3 PUSH2 0x5993 JUMP JUMPDEST PUSH1 0x5 DUP3 ADD DUP1 SLOAD PUSH1 0xFF NOT AND SWAP1 SSTORE PUSH2 0x4762 PUSH1 0x6 DUP4 ADD PUSH1 0x0 PUSH2 0x5993 JUMP JUMPDEST POP PUSH1 0x0 PUSH1 0x7 DUP3 ADD DUP2 SWAP1 SSTORE PUSH1 0x8 SWAP1 SWAP2 ADD DUP2 SWAP1 SSTORE DUP4 DUP2 MSTORE PUSH1 0x3 PUSH1 0x20 DUP2 DUP2 MSTORE PUSH1 0x40 DUP1 DUP5 KECCAK256 PUSH1 0x5 ADD DUP1 SLOAD PUSH1 0xFF NOT AND SWAP1 SSTORE PUSH1 0x6 SWAP1 SWAP2 MSTORE DUP3 KECCAK256 DUP1 SLOAD PUSH1 0x1 PUSH1 0x1 PUSH1 0xA0 SHL SUB NOT SWAP1 DUP2 AND DUP3 SSTORE PUSH1 0x1 DUP3 ADD DUP1 SLOAD DUP3 AND SWAP1 SSTORE PUSH1 0x2 DUP3 ADD DUP1 SLOAD SWAP1 SWAP2 AND SWAP1 SSTORE SWAP1 DUP2 ADD DUP3 SWAP1 SSTORE SWAP1 PUSH2 0x47CE PUSH1 0x4 DUP4 ADD DUP3 PUSH2 0x5993 JUMP JUMPDEST PUSH1 0x5 DUP3 ADD DUP1 SLOAD PUSH1 0xFF NOT AND SWAP1 SSTORE PUSH2 0x47E8 PUSH1 0x6 DUP4 ADD PUSH1 0x0 PUSH2 0x5993 JUMP JUMPDEST POP PUSH1 0x0 PUSH1 0x7 DUP3 ADD DUP2 SWAP1 SSTORE PUSH1 0x8 SWAP1 SWAP2 ADD SSTORE PUSH1 0x40 MLOAD CALLER SWAP1 PUSH32 0x89A43FD47467AD079E1A3E484F558948A678189908CA1B2055C4C3B63222B1AF SWAP1 PUSH2 0x321C SWAP1 DUP7 SWAP1 PUSH2 0x6A9B JUMP JUMPDEST PUSH1 0x0 DUP2 DUP2 MSTORE PUSH1 0x3 PUSH1 0x20 MSTORE PUSH1 0x40 SWAP1 KECCAK256 PUSH1 0x7 ADD SLOAD TIMESTAMP LT PUSH2 0x14F0 JUMPI PUSH1 0x40 MLOAD PUSH3 0x461BCD PUSH1 0xE5 SHL DUP2 MSTORE PUSH1 0x4 ADD PUSH2 0x1278 SWAP1 PUSH2 0x688B JUMP JUMPDEST PUSH1 0x0 DUP3 DUP2 MSTORE PUSH1 0x3 PUSH1 0x20 MSTORE PUSH1 0x40 SWAP1 KECCAK256 PUSH1 0x1 ADD SLOAD DUP3 SWAP1 PUSH1 0x1 PUSH1 0x1 PUSH1 0xA0 SHL SUB AND CALLER EQ PUSH2 0x4895 JUMPI PUSH1 0x40 MLOAD PUSH3 0x461BCD PUSH1 0xE5 SHL DUP2 MSTORE PUSH1 0x4 ADD PUSH2 0x1278 SWAP1 PUSH2 0x64CB JUMP JUMPDEST PUSH1 0x0 DUP4 DUP2 MSTORE PUSH1 0x3 PUSH1 0x20 MSTORE PUSH1 0x40 SWAP1 KECCAK256 PUSH1 0x7 ADD SLOAD TIMESTAMP DUP2 GT PUSH2 0x48C6 JUMPI PUSH1 0x40 MLOAD PUSH3 0x461BCD PUSH1 0xE5 SHL DUP2 MSTORE PUSH1 0x4 ADD PUSH2 0x1278 SWAP1 PUSH2 0x6244 JUMP JUMPDEST DUP3 PUSH1 0x1C DUP2 SWAP1 SSTORE POP DUP4 PUSH32 0x8A7A5C9C34210B39B0DD6C746E4824F7AF2A84C059D4DCBC168A2036D26DF990 DUP5 PUSH1 0x40 MLOAD PUSH2 0x12E9 SWAP2 SWAP1 PUSH2 0x6A9B JUMP JUMPDEST PUSH1 0x0 DUP3 DUP2 MSTORE PUSH1 0x3 PUSH1 0x20 MSTORE PUSH1 0x40 SWAP1 KECCAK256 PUSH1 0x1 ADD SLOAD DUP3 SWAP1 PUSH1 0x1 PUSH1 0x1 PUSH1 0xA0 SHL SUB AND CALLER EQ PUSH2 0x4938 JUMPI PUSH1 0x40 MLOAD PUSH3 0x461BCD PUSH1 0xE5 SHL DUP2 MSTORE PUSH1 0x4 ADD PUSH2 0x1278 SWAP1 PUSH2 0x64CB JUMP JUMPDEST PUSH1 0x0 DUP4 DUP2 MSTORE PUSH1 0x3 PUSH1 0x20 MSTORE PUSH1 0x40 SWAP1 KECCAK256 PUSH1 0x7 ADD SLOAD TIMESTAMP DUP2 GT PUSH2 0x4969 JUMPI PUSH1 0x40 MLOAD PUSH3 0x461BCD PUSH1 0xE5 SHL DUP2 MSTORE PUSH1 0x4 ADD PUSH2 0x1278 SWAP1 PUSH2 0x6244 JUMP JUMPDEST DUP3 PUSH1 0x22 DUP2 SWAP1 SSTORE POP DUP4 PUSH32 0x436DA186610BE724D1E56ABF3D34D2BAF7374F4BC9B7E38002969D08393CF547 DUP5 PUSH1 0x40 MLOAD PUSH2 0x12E9 SWAP2 SWAP1 PUSH2 0x6A9B JUMP JUMPDEST PUSH1 0x23 SLOAD DUP2 JUMP JUMPDEST PUSH1 0x0 CALLVALUE GT PUSH2 0x26D0 JUMPI PUSH1 0x40 MLOAD PUSH3 0x461BCD PUSH1 0xE5 SHL DUP2 MSTORE PUSH1 0x4 ADD PUSH2 0x1278 SWAP1 PUSH2 0x6168 JUMP JUMPDEST PUSH1 0x4 PUSH1 0x20 SWAP1 DUP2 MSTORE PUSH1 0x0 SWAP3 DUP4 MSTORE PUSH1 0x40 DUP1 DUP5 KECCAK256 SWAP1 SWAP2 MSTORE SWAP1 DUP3 MSTORE SWAP1 KECCAK256 DUP1 SLOAD PUSH1 0x1 DUP3 ADD SLOAD PUSH1 0x2 DUP4 ADD SLOAD PUSH1 0x3 DUP5 ADD SLOAD PUSH1 0x5 DUP6 ADD SLOAD PUSH1 0x7 DUP7 ADD SLOAD PUSH1 0x8 SWAP1 SWAP7 ADD SLOAD PUSH1 0x1 PUSH1 0x1 PUSH1 0xA0 SHL SUB SWAP6 DUP7 AND SWAP7 SWAP5 DUP7 AND SWAP6 SWAP1 SWAP4 AND SWAP4 SWAP2 SWAP3 PUSH1 0xFF SWAP1 SWAP2 AND SWAP2 SWAP1 DUP8 JUMP JUMPDEST PUSH1 0xE PUSH1 0x20 SWAP1 DUP2 MSTORE PUSH1 0x0 SWAP3 DUP4 MSTORE PUSH1 0x40 DUP1 DUP5 KECCAK256 SWAP1 SWAP2 MSTORE SWAP1 DUP3 MSTORE SWAP1 KECCAK256 SLOAD PUSH1 0x1 PUSH1 0x1 PUSH1 0xA0 SHL SUB AND DUP2 JUMP JUMPDEST PUSH1 0x0 SWAP2 DUP3 MSTORE PUSH1 0x8 PUSH1 0x20 SWAP1 DUP2 MSTORE PUSH1 0x40 DUP1 DUP5 KECCAK256 PUSH1 0x1 PUSH1 0x1 PUSH1 0xA0 SHL SUB SWAP4 SWAP1 SWAP4 AND DUP5 MSTORE SWAP2 SWAP1 MSTORE SWAP1 KECCAK256 SLOAD SWAP1 JUMP JUMPDEST PUSH1 0x9 PUSH1 0x20 SWAP1 DUP2 MSTORE PUSH1 0x0 SWAP3 DUP4 MSTORE PUSH1 0x40 DUP1 DUP5 KECCAK256 SWAP1 SWAP2 MSTORE SWAP1 DUP3 MSTORE SWAP1 KECCAK256 SLOAD DUP2 JUMP JUMPDEST PUSH1 0x5 PUSH1 0x20 DUP2 DUP2 MSTORE PUSH1 0x0 SWAP4 DUP5 MSTORE PUSH1 0x40 DUP1 DUP6 KECCAK256 SWAP1 SWAP2 MSTORE SWAP2 DUP4 MSTORE SWAP2 KECCAK256 DUP1 SLOAD PUSH1 0x1 DUP3 ADD SLOAD PUSH1 0x2 DUP4 ADD SLOAD PUSH1 0x3 DUP5 ADD SLOAD SWAP5 DUP5 ADD SLOAD PUSH1 0x7 DUP6 ADD SLOAD PUSH1 0x8 SWAP1 SWAP6 ADD SLOAD PUSH1 0x1 PUSH1 0x1 PUSH1 0xA0 SHL SUB SWAP5 DUP6 AND SWAP7 SWAP4 DUP6 AND SWAP6 SWAP5 SWAP1 SWAP3 AND SWAP4 PUSH1 0xFF SWAP1 SWAP2 AND SWAP2 DUP8 JUMP JUMPDEST PUSH1 0x27 SLOAD PUSH1 0x1 PUSH1 0x1 PUSH1 0xA0 SHL SUB AND DUP2 JUMP JUMPDEST PUSH1 0x0 PUSH1 0x1 PUSH1 0x0 DUP4 DUP2 MSTORE PUSH1 0x3 PUSH1 0x20 MSTORE PUSH1 0x40 SWAP1 KECCAK256 PUSH1 0x5 ADD SLOAD PUSH1 0xFF AND PUSH1 0x2 DUP2 GT ISZERO PUSH2 0x4B15 JUMPI INVALID JUMPDEST EQ SWAP3 SWAP2 POP POP JUMP JUMPDEST PUSH2 0x4B24 PUSH2 0x537A JUMP JUMPDEST PUSH1 0x1 PUSH1 0x1 PUSH1 0xA0 SHL SUB AND PUSH2 0x4B35 PUSH2 0x3BE9 JUMP JUMPDEST PUSH1 0x1 PUSH1 0x1 PUSH1 0xA0 SHL SUB AND EQ PUSH2 0x4B5B JUMPI PUSH1 0x40 MLOAD PUSH3 0x461BCD PUSH1 0xE5 SHL DUP2 MSTORE PUSH1 0x4 ADD PUSH2 0x1278 SWAP1 PUSH2 0x66E8 JUMP JUMPDEST PUSH1 0x1 PUSH1 0x1 PUSH1 0xA0 SHL SUB DUP2 AND PUSH2 0x4B81 JUMPI PUSH1 0x40 MLOAD PUSH3 0x461BCD PUSH1 0xE5 SHL DUP2 MSTORE PUSH1 0x4 ADD PUSH2 0x1278 SWAP1 PUSH2 0x60B4 JUMP JUMPDEST PUSH1 0x0 DUP1 SLOAD PUSH1 0x40 MLOAD PUSH1 0x1 PUSH1 0x1 PUSH1 0xA0 SHL SUB DUP1 DUP6 AND SWAP4 SWAP3 AND SWAP2 PUSH32 0x8BE0079C531659141344CD1FD0A4F28419497F9722A3DAAFE3B4186F6B6457E0 SWAP2 LOG3 PUSH1 0x0 DUP1 SLOAD PUSH1 0x1 PUSH1 0x1 PUSH1 0xA0 SHL SUB NOT AND PUSH1 0x1 PUSH1 0x1 PUSH1 0xA0 SHL SUB SWAP3 SWAP1 SWAP3 AND SWAP2 SWAP1 SWAP2 OR SWAP1 SSTORE JUMP JUMPDEST PUSH1 0x28 SLOAD DUP2 JUMP JUMPDEST PUSH1 0x1A SLOAD DUP2 JUMP JUMPDEST PUSH1 0x0 DUP2 DUP2 MSTORE PUSH1 0x3 PUSH1 0x20 MSTORE PUSH1 0x40 SWAP1 KECCAK256 PUSH1 0x1 ADD SLOAD DUP2 SWAP1 PUSH1 0x1 PUSH1 0x1 PUSH1 0xA0 SHL SUB AND CALLER EQ PUSH2 0x1474 JUMPI PUSH1 0x40 MLOAD PUSH3 0x461BCD PUSH1 0xE5 SHL DUP2 MSTORE PUSH1 0x4 ADD PUSH2 0x1278 SWAP1 PUSH2 0x64CB JUMP JUMPDEST PUSH1 0x0 DUP2 DUP2 MSTORE PUSH1 0x3 PUSH1 0x20 MSTORE PUSH1 0x40 SWAP1 KECCAK256 PUSH1 0x7 ADD SLOAD DUP2 SWAP1 TIMESTAMP LT PUSH2 0x4C55 JUMPI PUSH1 0x40 MLOAD PUSH3 0x461BCD PUSH1 0xE5 SHL DUP2 MSTORE PUSH1 0x4 ADD PUSH2 0x1278 SWAP1 PUSH2 0x67E8 JUMP JUMPDEST PUSH1 0x0 DUP3 DUP2 MSTORE PUSH1 0x3 PUSH1 0x20 MSTORE PUSH1 0x40 SWAP1 KECCAK256 PUSH1 0x7 ADD SLOAD DUP3 SWAP1 TIMESTAMP LT PUSH2 0x4C87 JUMPI PUSH1 0x40 MLOAD PUSH3 0x461BCD PUSH1 0xE5 SHL DUP2 MSTORE PUSH1 0x4 ADD PUSH2 0x1278 SWAP1 PUSH2 0x688B JUMP JUMPDEST PUSH3 0x30D40 GAS GT PUSH2 0x4CA9 JUMPI PUSH1 0x40 MLOAD PUSH3 0x461BCD PUSH1 0xE5 SHL DUP2 MSTORE PUSH1 0x4 ADD PUSH2 0x1278 SWAP1 PUSH2 0x607D JUMP JUMPDEST PUSH1 0x1 PUSH1 0x0 DUP5 DUP2 MSTORE PUSH1 0x3 PUSH1 0x20 MSTORE PUSH1 0x40 SWAP1 KECCAK256 PUSH1 0x5 ADD SLOAD PUSH1 0xFF AND PUSH1 0x2 DUP2 GT ISZERO PUSH2 0x4CCB JUMPI INVALID JUMPDEST EQ PUSH2 0x4CE8 JUMPI PUSH1 0x40 MLOAD PUSH3 0x461BCD PUSH1 0xE5 SHL DUP2 MSTORE PUSH1 0x4 ADD PUSH2 0x1278 SWAP1 PUSH2 0x6639 JUMP JUMPDEST PUSH1 0x0 DUP1 JUMPDEST PUSH1 0x0 DUP6 DUP2 MSTORE PUSH1 0x3 PUSH1 0x20 MSTORE PUSH1 0x40 SWAP1 KECCAK256 PUSH1 0x6 ADD SLOAD DUP2 LT ISZERO PUSH2 0x4D31 JUMPI PUSH1 0x0 DUP6 DUP2 MSTORE PUSH1 0x3 PUSH1 0x20 MSTORE PUSH1 0x40 SWAP1 KECCAK256 PUSH1 0x6 ADD DUP1 SLOAD PUSH2 0x4D27 SWAP2 SWAP1 DUP4 SWAP1 DUP2 LT PUSH2 0x28EF JUMPI INVALID JUMPDEST SWAP2 POP PUSH1 0x1 ADD PUSH2 0x4CEC JUMP JUMPDEST POP DUP1 CALLVALUE EQ PUSH2 0x4D51 JUMPI PUSH1 0x40 MLOAD PUSH3 0x461BCD PUSH1 0xE5 SHL DUP2 MSTORE PUSH1 0x4 ADD PUSH2 0x1278 SWAP1 PUSH2 0x620D JUMP JUMPDEST PUSH1 0x0 DUP5 DUP2 MSTORE PUSH1 0x3 PUSH1 0x20 DUP2 SWAP1 MSTORE PUSH1 0x40 SWAP2 DUP3 SWAP1 KECCAK256 PUSH1 0x2 DUP2 ADD SLOAD PUSH1 0x1 DUP3 ADD SLOAD SWAP2 SWAP1 SWAP3 ADD SLOAD SWAP3 MLOAD PUSH4 0xA9059CBB PUSH1 0xE0 SHL DUP2 MSTORE PUSH1 0x1 PUSH1 0x1 PUSH1 0xA0 SHL SUB SWAP3 DUP4 AND SWAP4 PUSH4 0xA9059CBB SWAP4 PUSH2 0x4D9E SWAP4 AND SWAP2 PUSH1 0x4 ADD PUSH2 0x5E3D JUMP JUMPDEST PUSH1 0x20 PUSH1 0x40 MLOAD DUP1 DUP4 SUB DUP2 PUSH1 0x0 DUP8 DUP1 EXTCODESIZE ISZERO DUP1 ISZERO PUSH2 0x4DB8 JUMPI PUSH1 0x0 DUP1 REVERT JUMPDEST POP GAS CALL ISZERO DUP1 ISZERO PUSH2 0x4DCC JUMPI RETURNDATASIZE PUSH1 0x0 DUP1 RETURNDATACOPY RETURNDATASIZE PUSH1 0x0 REVERT JUMPDEST POP POP POP POP PUSH1 0x40 MLOAD RETURNDATASIZE PUSH1 0x1F NOT PUSH1 0x1F DUP3 ADD AND DUP3 ADD DUP1 PUSH1 0x40 MSTORE POP DUP2 ADD SWAP1 PUSH2 0x4DF0 SWAP2 SWAP1 PUSH2 0x5BC6 JUMP JUMPDEST PUSH2 0x4E0C JUMPI PUSH1 0x40 MLOAD PUSH3 0x461BCD PUSH1 0xE5 SHL DUP2 MSTORE PUSH1 0x4 ADD PUSH2 0x1278 SWAP1 PUSH2 0x6397 JUMP JUMPDEST PUSH1 0x0 DUP5 DUP2 MSTORE PUSH1 0x3 PUSH1 0x20 SWAP1 DUP2 MSTORE PUSH1 0x40 DUP1 DUP4 KECCAK256 PUSH1 0x2 DUP2 ADD SLOAD SWAP1 SLOAD PUSH1 0x7 SWAP1 SWAP4 MSTORE SWAP3 DUP2 SWAP1 KECCAK256 PUSH1 0x1 ADD SLOAD SWAP1 MLOAD PUSH4 0xA9059CBB PUSH1 0xE0 SHL DUP2 MSTORE PUSH1 0x1 PUSH1 0x1 PUSH1 0xA0 SHL SUB SWAP4 DUP5 AND SWAP4 PUSH4 0xA9059CBB SWAP4 PUSH2 0x4E5E SWAP4 SWAP2 AND SWAP2 PUSH1 0x4 ADD PUSH2 0x5E3D JUMP JUMPDEST PUSH1 0x20 PUSH1 0x40 MLOAD DUP1 DUP4 SUB DUP2 PUSH1 0x0 DUP8 DUP1 EXTCODESIZE ISZERO DUP1 ISZERO PUSH2 0x4E78 JUMPI PUSH1 0x0 DUP1 REVERT JUMPDEST POP GAS CALL ISZERO DUP1 ISZERO PUSH2 0x4E8C JUMPI RETURNDATASIZE PUSH1 0x0 DUP1 RETURNDATACOPY RETURNDATASIZE PUSH1 0x0 REVERT JUMPDEST POP POP POP POP PUSH1 0x40 MLOAD RETURNDATASIZE PUSH1 0x1F NOT PUSH1 0x1F DUP3 ADD AND DUP3 ADD DUP1 PUSH1 0x40 MSTORE POP DUP2 ADD SWAP1 PUSH2 0x4EB0 SWAP2 SWAP1 PUSH2 0x5BC6 JUMP JUMPDEST PUSH2 0x4ECC JUMPI PUSH1 0x40 MLOAD PUSH3 0x461BCD PUSH1 0xE5 SHL DUP2 MSTORE PUSH1 0x4 ADD PUSH2 0x1278 SWAP1 PUSH2 0x6046 JUMP JUMPDEST CALLER PUSH1 0x0 SWAP1 DUP2 MSTORE PUSH1 0x5 PUSH1 0x20 SWAP1 DUP2 MSTORE PUSH1 0x40 DUP1 DUP4 KECCAK256 DUP8 DUP5 MSTORE SWAP1 SWAP2 MSTORE DUP2 KECCAK256 DUP1 SLOAD PUSH1 0x1 PUSH1 0x1 PUSH1 0xA0 SHL SUB NOT SWAP1 DUP2 AND DUP3 SSTORE PUSH1 0x1 DUP3 ADD DUP1 SLOAD DUP3 AND SWAP1 SSTORE PUSH1 0x2 DUP3 ADD DUP1 SLOAD SWAP1 SWAP2 AND SWAP1 SSTORE PUSH1 0x3 DUP2 ADD DUP3 SWAP1 SSTORE SWAP1 PUSH2 0x4F20 PUSH1 0x4 DUP4 ADD DUP3 PUSH2 0x5993 JUMP JUMPDEST PUSH1 0x5 DUP3 ADD DUP1 SLOAD PUSH1 0xFF NOT AND SWAP1 SSTORE PUSH2 0x4F3A PUSH1 0x6 DUP4 ADD PUSH1 0x0 PUSH2 0x5993 JUMP JUMPDEST POP PUSH1 0x0 PUSH1 0x7 DUP3 ADD DUP2 SWAP1 SSTORE PUSH1 0x8 SWAP1 SWAP2 ADD DUP2 SWAP1 SSTORE DUP5 DUP2 MSTORE PUSH1 0x3 PUSH1 0x20 DUP2 DUP2 MSTORE PUSH1 0x40 DUP1 DUP5 KECCAK256 CALLER DUP6 MSTORE PUSH1 0x5 DUP4 MSTORE DUP2 DUP6 KECCAK256 DUP10 DUP7 MSTORE SWAP1 SWAP3 MSTORE SWAP1 SWAP3 KECCAK256 DUP3 SLOAD DUP2 SLOAD PUSH1 0x1 PUSH1 0x1 PUSH1 0xA0 SHL SUB SWAP2 DUP3 AND PUSH1 0x1 PUSH1 0x1 PUSH1 0xA0 SHL SUB NOT SWAP2 DUP3 AND OR DUP4 SSTORE PUSH1 0x1 DUP1 DUP7 ADD SLOAD SWAP1 DUP5 ADD DUP1 SLOAD SWAP2 DUP5 AND SWAP2 DUP4 AND SWAP2 SWAP1 SWAP2 OR SWAP1 SSTORE PUSH1 0x2 DUP1 DUP7 ADD SLOAD SWAP1 DUP5 ADD DUP1 SLOAD SWAP2 SWAP1 SWAP4 AND SWAP2 AND OR SWAP1 SSTORE DUP3 DUP3 ADD SLOAD SWAP2 DUP2 ADD SWAP2 SWAP1 SWAP2 SSTORE PUSH1 0x4 DUP1 DUP4 ADD DUP1 SLOAD PUSH2 0x4FD6 SWAP3 DUP5 ADD SWAP2 SWAP1 PUSH2 0x5953 JUMP JUMPDEST POP PUSH1 0x5 DUP3 DUP2 ADD SLOAD SWAP1 DUP3 ADD DUP1 SLOAD PUSH1 0xFF SWAP1 SWAP3 AND SWAP2 PUSH1 0xFF NOT AND PUSH1 0x1 DUP4 PUSH1 0x2 DUP2 GT ISZERO PUSH2 0x4FFA JUMPI INVALID JUMPDEST MUL OR SWAP1 SSTORE POP PUSH1 0x6 DUP3 DUP2 ADD DUP1 SLOAD PUSH2 0x5013 SWAP3 DUP5 ADD SWAP2 SWAP1 PUSH2 0x5953 JUMP JUMPDEST POP PUSH1 0x7 DUP3 DUP2 ADD SLOAD SWAP1 DUP3 ADD SSTORE PUSH1 0x8 SWAP2 DUP3 ADD SLOAD SWAP2 ADD SSTORE PUSH1 0x0 DUP5 DUP2 MSTORE PUSH1 0x3 PUSH1 0x20 MSTORE PUSH1 0x40 SWAP1 KECCAK256 PUSH1 0x1 DUP2 ADD DUP1 SLOAD PUSH1 0x1 PUSH1 0x1 PUSH1 0xA0 SHL SUB NOT AND CALLER OR SWAP1 SSTORE PUSH1 0x5 ADD DUP1 SLOAD PUSH1 0xFF NOT AND SWAP1 SSTORE CALLVALUE DUP2 LT ISZERO PUSH2 0x509A JUMPI CALLER PUSH2 0x8FC PUSH2 0x5070 CALLVALUE DUP5 PUSH4 0xFFFFFFFF PUSH2 0x53EA AND JUMP JUMPDEST PUSH1 0x40 MLOAD DUP2 ISZERO SWAP1 SWAP3 MUL SWAP2 PUSH1 0x0 DUP2 DUP2 DUP2 DUP6 DUP9 DUP9 CALL SWAP4 POP POP POP POP ISZERO DUP1 ISZERO PUSH2 0x5098 JUMPI RETURNDATASIZE PUSH1 0x0 DUP1 RETURNDATACOPY RETURNDATASIZE PUSH1 0x0 REVERT JUMPDEST POP JUMPDEST CALLER PUSH1 0x1 PUSH1 0x1 PUSH1 0xA0 SHL SUB AND PUSH32 0x23AD4783D95EE2D3730FAE4843757E102BD28A58EF48E2C6F8FE93AEF120F5FB DUP6 DUP4 PUSH1 0x40 MLOAD PUSH2 0x12E9 SWAP3 SWAP2 SWAP1 PUSH2 0x5F22 JUMP JUMPDEST PUSH2 0x50DD PUSH2 0x59B1 JUMP JUMPDEST PUSH1 0x0 DUP3 DUP2 MSTORE PUSH1 0x6 PUSH1 0x20 SWAP1 DUP2 MSTORE PUSH1 0x40 SWAP2 DUP3 SWAP1 KECCAK256 DUP3 MLOAD PUSH2 0x120 DUP2 ADD DUP5 MSTORE DUP2 SLOAD PUSH1 0x1 PUSH1 0x1 PUSH1 0xA0 SHL SUB SWAP1 DUP2 AND DUP3 MSTORE PUSH1 0x1 DUP4 ADD SLOAD DUP2 AND DUP3 DUP6 ADD MSTORE PUSH1 0x2 DUP4 ADD SLOAD AND DUP2 DUP6 ADD MSTORE PUSH1 0x3 DUP3 ADD SLOAD PUSH1 0x60 DUP3 ADD MSTORE PUSH1 0x4 DUP3 ADD DUP1 SLOAD DUP6 MLOAD DUP2 DUP7 MUL DUP2 ADD DUP7 ADD SWAP1 SWAP7 MSTORE DUP1 DUP7 MSTORE SWAP2 SWAP5 SWAP3 SWAP4 PUSH1 0x80 DUP7 ADD SWAP4 SWAP3 SWAP1 DUP4 ADD DUP3 DUP3 DUP1 ISZERO PUSH2 0x5175 JUMPI PUSH1 0x20 MUL DUP3 ADD SWAP2 SWAP1 PUSH1 0x0 MSTORE PUSH1 0x20 PUSH1 0x0 KECCAK256 SWAP1 JUMPDEST DUP2 SLOAD DUP2 MSTORE PUSH1 0x20 ADD SWAP1 PUSH1 0x1 ADD SWAP1 DUP1 DUP4 GT PUSH2 0x5161 JUMPI JUMPDEST POP POP POP SWAP2 DUP4 MSTORE POP POP PUSH1 0x5 DUP3 ADD SLOAD PUSH1 0x20 SWAP1 SWAP2 ADD SWAP1 PUSH1 0xFF AND PUSH1 0x2 DUP2 GT ISZERO PUSH2 0x5196 JUMPI INVALID JUMPDEST PUSH1 0x2 DUP2 GT ISZERO PUSH2 0x51A1 JUMPI INVALID JUMPDEST DUP2 MSTORE PUSH1 0x20 ADD PUSH1 0x6 DUP3 ADD DUP1 SLOAD DUP1 PUSH1 0x20 MUL PUSH1 0x20 ADD PUSH1 0x40 MLOAD SWAP1 DUP2 ADD PUSH1 0x40 MSTORE DUP1 SWAP3 SWAP2 SWAP1 DUP2 DUP2 MSTORE PUSH1 0x20 ADD DUP3 DUP1 SLOAD DUP1 ISZERO PUSH2 0x51F4 JUMPI PUSH1 0x20 MUL DUP3 ADD SWAP2 SWAP1 PUSH1 0x0 MSTORE PUSH1 0x20 PUSH1 0x0 KECCAK256 SWAP1 JUMPDEST DUP2 SLOAD DUP2 MSTORE PUSH1 0x20 ADD SWAP1 PUSH1 0x1 ADD SWAP1 DUP1 DUP4 GT PUSH2 0x51E0 JUMPI JUMPDEST POP POP POP POP POP DUP2 MSTORE PUSH1 0x20 ADD PUSH1 0x7 DUP3 ADD SLOAD DUP2 MSTORE PUSH1 0x20 ADD PUSH1 0x8 DUP3 ADD SLOAD DUP2 MSTORE POP POP SWAP1 POP SWAP2 SWAP1 POP JUMP JUMPDEST PUSH1 0x0 DUP1 DUP1 JUMPDEST PUSH1 0x0 DUP5 DUP2 MSTORE PUSH1 0x3 PUSH1 0x20 MSTORE PUSH1 0x40 SWAP1 KECCAK256 PUSH1 0x6 ADD SLOAD DUP2 LT ISZERO PUSH2 0x24F0 JUMPI PUSH1 0x0 DUP5 DUP2 MSTORE PUSH1 0xE PUSH1 0x20 SWAP1 DUP2 MSTORE PUSH1 0x40 DUP1 DUP4 KECCAK256 PUSH1 0x3 SWAP1 SWAP3 MSTORE DUP3 KECCAK256 PUSH1 0x6 ADD DUP1 SLOAD DUP4 SWAP2 SWAP1 DUP6 SWAP1 DUP2 LT PUSH2 0x5260 JUMPI INVALID JUMPDEST PUSH1 0x0 SWAP2 DUP3 MSTORE PUSH1 0x20 DUP1 DUP4 KECCAK256 SWAP1 SWAP2 ADD SLOAD DUP4 MSTORE DUP3 DUP2 ADD SWAP4 SWAP1 SWAP4 MSTORE PUSH1 0x40 SWAP2 DUP3 ADD DUP2 KECCAK256 SLOAD DUP9 DUP3 MSTORE PUSH1 0x8 DUP5 MSTORE DUP3 DUP3 KECCAK256 PUSH1 0x1 PUSH1 0x1 PUSH1 0xA0 SHL SUB SWAP1 SWAP2 AND DUP1 DUP4 MSTORE SWAP4 MSTORE KECCAK256 SLOAD SWAP1 SWAP2 POP ISZERO PUSH2 0x52AA JUMPI PUSH1 0x1 SWAP1 SWAP3 ADD SWAP2 JUMPDEST POP PUSH1 0x1 ADD PUSH2 0x521D JUMP JUMPDEST PUSH1 0x0 DUP1 DUP1 JUMPDEST PUSH1 0x0 DUP5 DUP2 MSTORE PUSH1 0x3 PUSH1 0x20 MSTORE PUSH1 0x40 SWAP1 KECCAK256 PUSH1 0x6 ADD SLOAD DUP2 LT ISZERO PUSH2 0x24F0 JUMPI PUSH1 0x0 DUP5 DUP2 MSTORE PUSH1 0xF PUSH1 0x20 SWAP1 DUP2 MSTORE PUSH1 0x40 DUP1 DUP4 KECCAK256 PUSH1 0x3 SWAP1 SWAP3 MSTORE DUP3 KECCAK256 PUSH1 0x6 ADD DUP1 SLOAD DUP4 SWAP2 SWAP1 DUP6 SWAP1 DUP2 LT PUSH2 0x52FB JUMPI INVALID JUMPDEST PUSH1 0x0 SWAP2 DUP3 MSTORE PUSH1 0x20 DUP1 DUP4 KECCAK256 SWAP1 SWAP2 ADD SLOAD DUP4 MSTORE DUP3 DUP2 ADD SWAP4 SWAP1 SWAP4 MSTORE PUSH1 0x40 SWAP2 DUP3 ADD DUP2 KECCAK256 SLOAD DUP9 DUP3 MSTORE PUSH1 0x9 DUP5 MSTORE DUP3 DUP3 KECCAK256 PUSH1 0x1 PUSH1 0x1 PUSH1 0xA0 SHL SUB SWAP1 SWAP2 AND DUP1 DUP4 MSTORE SWAP4 MSTORE KECCAK256 SLOAD SWAP1 SWAP2 POP ISZERO PUSH2 0x5345 JUMPI PUSH1 0x1 SWAP1 SWAP3 ADD SWAP2 JUMPDEST POP PUSH1 0x1 ADD PUSH2 0x52B8 JUMP JUMPDEST PUSH1 0x0 DUP3 DUP3 ADD DUP4 DUP2 LT ISZERO PUSH2 0x5373 JUMPI PUSH1 0x40 MLOAD PUSH3 0x461BCD PUSH1 0xE5 SHL DUP2 MSTORE PUSH1 0x4 ADD PUSH2 0x1278 SWAP1 PUSH2 0x619F JUMP JUMPDEST SWAP4 SWAP3 POP POP POP JUMP JUMPDEST CALLER SWAP1 JUMP JUMPDEST PUSH1 0x0 DUP3 PUSH2 0x538D JUMPI POP PUSH1 0x0 PUSH2 0x3A84 JUMP JUMPDEST DUP3 DUP3 MUL DUP3 DUP5 DUP3 DUP2 PUSH2 0x539A JUMPI INVALID JUMPDEST DIV EQ PUSH2 0x5373 JUMPI PUSH1 0x40 MLOAD PUSH3 0x461BCD PUSH1 0xE5 SHL DUP2 MSTORE PUSH1 0x4 ADD PUSH2 0x1278 SWAP1 PUSH2 0x6670 JUMP JUMPDEST PUSH1 0x0 DUP1 DUP3 GT PUSH2 0x53D9 JUMPI PUSH1 0x40 MLOAD PUSH3 0x461BCD PUSH1 0xE5 SHL DUP2 MSTORE PUSH1 0x4 ADD PUSH2 0x1278 SWAP1 PUSH2 0x62D8 JUMP JUMPDEST DUP2 DUP4 DUP2 PUSH2 0x53E2 JUMPI INVALID JUMPDEST DIV SWAP4 SWAP3 POP POP POP JUMP JUMPDEST PUSH1 0x0 DUP3 DUP3 GT ISZERO PUSH2 0x540C JUMPI PUSH1 0x40 MLOAD PUSH3 0x461BCD PUSH1 0xE5 SHL DUP2 MSTORE PUSH1 0x4 ADD PUSH2 0x1278 SWAP1 PUSH2 0x62A1 JUMP JUMPDEST POP SWAP1 SUB SWAP1 JUMP JUMPDEST DUP3 TIMESTAMP LT PUSH2 0x5431 JUMPI PUSH1 0x40 MLOAD PUSH3 0x461BCD PUSH1 0xE5 SHL DUP2 MSTORE PUSH1 0x4 ADD PUSH2 0x1278 SWAP1 PUSH2 0x6244 JUMP JUMPDEST PUSH1 0x0 DUP2 GT PUSH2 0x5451 JUMPI PUSH1 0x40 MLOAD PUSH3 0x461BCD PUSH1 0xE5 SHL DUP2 MSTORE PUSH1 0x4 ADD PUSH2 0x1278 SWAP1 PUSH2 0x655F JUMP JUMPDEST PUSH2 0x545B DUP3 DUP3 PUSH2 0x57CE JUMP JUMPDEST POP POP POP JUMP JUMPDEST PUSH1 0x2 SLOAD PUSH2 0x546B PUSH2 0x59B1 JUMP JUMPDEST PUSH1 0x40 DUP1 MLOAD PUSH2 0x120 DUP2 ADD DUP3 MSTORE CALLER DUP1 DUP3 MSTORE PUSH1 0x20 DUP3 ADD MSTORE PUSH1 0x1 PUSH1 0x1 PUSH1 0xA0 SHL SUB DUP8 AND SWAP2 DUP2 ADD SWAP2 SWAP1 SWAP2 MSTORE PUSH1 0x60 DUP2 ADD DUP6 SWAP1 MSTORE PUSH1 0x80 DUP2 ADD DUP9 SWAP1 MSTORE PUSH1 0xA0 DUP2 ADD PUSH1 0x0 DUP2 MSTORE PUSH1 0x20 ADD PUSH1 0x0 PUSH1 0x40 MLOAD SWAP1 DUP1 DUP3 MSTORE DUP1 PUSH1 0x20 MUL PUSH1 0x20 ADD DUP3 ADD PUSH1 0x40 MSTORE DUP1 ISZERO PUSH2 0x54D4 JUMPI DUP2 PUSH1 0x20 ADD PUSH1 0x20 DUP3 MUL DUP1 CALLDATASIZE DUP4 CALLDATACOPY ADD SWAP1 POP JUMPDEST POP DUP2 MSTORE PUSH1 0x20 DUP1 DUP3 ADD DUP10 SWAP1 MSTORE PUSH1 0x40 SWAP2 DUP3 ADD DUP7 SWAP1 MSTORE PUSH1 0x0 DUP6 DUP2 MSTORE PUSH1 0x3 DUP1 DUP4 MSTORE SWAP1 DUP4 SWAP1 KECCAK256 DUP5 MLOAD DUP2 SLOAD PUSH1 0x1 PUSH1 0x1 PUSH1 0xA0 SHL SUB NOT SWAP1 DUP2 AND PUSH1 0x1 PUSH1 0x1 PUSH1 0xA0 SHL SUB SWAP3 DUP4 AND OR DUP4 SSTORE DUP7 DUP6 ADD MLOAD PUSH1 0x1 DUP5 ADD DUP1 SLOAD DUP4 AND SWAP2 DUP5 AND SWAP2 SWAP1 SWAP2 OR SWAP1 SSTORE SWAP5 DUP7 ADD MLOAD PUSH1 0x2 DUP4 ADD DUP1 SLOAD SWAP1 SWAP7 AND SWAP2 AND OR SWAP1 SWAP4 SSTORE PUSH1 0x60 DUP5 ADD MLOAD SWAP1 DUP4 ADD SSTORE PUSH1 0x80 DUP4 ADD MLOAD DUP1 MLOAD SWAP4 SWAP5 POP DUP5 SWAP4 PUSH2 0x5560 SWAP3 PUSH1 0x4 DUP6 ADD SWAP3 ADD SWAP1 PUSH2 0x59FC JUMP JUMPDEST POP PUSH1 0xA0 DUP3 ADD MLOAD PUSH1 0x5 DUP3 ADD DUP1 SLOAD PUSH1 0xFF NOT AND PUSH1 0x1 DUP4 PUSH1 0x2 DUP2 GT ISZERO PUSH2 0x557E JUMPI INVALID JUMPDEST MUL OR SWAP1 SSTORE POP PUSH1 0xC0 DUP3 ADD MLOAD DUP1 MLOAD PUSH2 0x559E SWAP2 PUSH1 0x6 DUP5 ADD SWAP2 PUSH1 0x20 SWAP1 SWAP2 ADD SWAP1 PUSH2 0x59FC JUMP JUMPDEST POP PUSH1 0xE0 DUP3 ADD MLOAD PUSH1 0x7 DUP3 ADD SSTORE PUSH2 0x100 SWAP1 SWAP2 ADD MLOAD PUSH1 0x8 SWAP1 SWAP2 ADD SSTORE CALLER PUSH1 0x0 SWAP1 DUP2 MSTORE PUSH1 0x4 PUSH1 0x20 DUP2 DUP2 MSTORE PUSH1 0x40 DUP1 DUP5 KECCAK256 DUP7 DUP6 MSTORE DUP3 MSTORE SWAP3 DUP4 SWAP1 KECCAK256 DUP5 MLOAD DUP2 SLOAD PUSH1 0x1 PUSH1 0x1 PUSH1 0xA0 SHL SUB NOT SWAP1 DUP2 AND PUSH1 0x1 PUSH1 0x1 PUSH1 0xA0 SHL SUB SWAP3 DUP4 AND OR DUP4 SSTORE DUP7 DUP5 ADD MLOAD PUSH1 0x1 DUP5 ADD DUP1 SLOAD DUP4 AND SWAP2 DUP5 AND SWAP2 SWAP1 SWAP2 OR SWAP1 SSTORE SWAP5 DUP7 ADD MLOAD PUSH1 0x2 DUP4 ADD DUP1 SLOAD SWAP1 SWAP7 AND SWAP2 AND OR SWAP1 SWAP4 SSTORE PUSH1 0x60 DUP5 ADD MLOAD PUSH1 0x3 DUP5 ADD SSTORE PUSH1 0x80 DUP5 ADD MLOAD DUP1 MLOAD DUP6 SWAP5 SWAP4 PUSH2 0x563A SWAP4 SWAP1 DUP6 ADD SWAP3 ADD SWAP1 PUSH2 0x59FC JUMP JUMPDEST POP PUSH1 0xA0 DUP3 ADD MLOAD PUSH1 0x5 DUP3 ADD DUP1 SLOAD PUSH1 0xFF NOT AND PUSH1 0x1 DUP4 PUSH1 0x2 DUP2 GT ISZERO PUSH2 0x5658 JUMPI INVALID JUMPDEST MUL OR SWAP1 SSTORE POP PUSH1 0xC0 DUP3 ADD MLOAD DUP1 MLOAD PUSH2 0x5678 SWAP2 PUSH1 0x6 DUP5 ADD SWAP2 PUSH1 0x20 SWAP1 SWAP2 ADD SWAP1 PUSH2 0x59FC JUMP JUMPDEST POP PUSH1 0xE0 DUP3 ADD MLOAD PUSH1 0x7 DUP3 ADD SSTORE PUSH2 0x100 SWAP1 SWAP2 ADD MLOAD PUSH1 0x8 SWAP1 SWAP2 ADD SSTORE CALLER PUSH1 0x0 SWAP1 DUP2 MSTORE PUSH1 0x5 PUSH1 0x20 SWAP1 DUP2 MSTORE PUSH1 0x40 DUP1 DUP4 KECCAK256 DUP6 DUP5 MSTORE DUP3 MSTORE SWAP2 DUP3 SWAP1 KECCAK256 DUP4 MLOAD DUP2 SLOAD PUSH1 0x1 PUSH1 0x1 PUSH1 0xA0 SHL SUB NOT SWAP1 DUP2 AND PUSH1 0x1 PUSH1 0x1 PUSH1 0xA0 SHL SUB SWAP3 DUP4 AND OR DUP4 SSTORE DUP6 DUP5 ADD MLOAD PUSH1 0x1 DUP5 ADD DUP1 SLOAD DUP4 AND SWAP2 DUP5 AND SWAP2 SWAP1 SWAP2 OR SWAP1 SSTORE SWAP4 DUP6 ADD MLOAD PUSH1 0x2 DUP4 ADD DUP1 SLOAD SWAP1 SWAP6 AND SWAP2 AND OR SWAP1 SWAP3 SSTORE PUSH1 0x60 DUP4 ADD MLOAD PUSH1 0x3 DUP4 ADD SSTORE PUSH1 0x80 DUP4 ADD MLOAD DUP1 MLOAD DUP5 SWAP4 SWAP3 PUSH2 0x5716 SWAP3 PUSH1 0x4 DUP6 ADD SWAP3 SWAP2 ADD SWAP1 PUSH2 0x59FC JUMP JUMPDEST POP PUSH1 0xA0 DUP3 ADD MLOAD PUSH1 0x5 DUP3 ADD DUP1 SLOAD PUSH1 0xFF NOT AND PUSH1 0x1 DUP4 PUSH1 0x2 DUP2 GT ISZERO PUSH2 0x5734 JUMPI INVALID JUMPDEST MUL OR SWAP1 SSTORE POP PUSH1 0xC0 DUP3 ADD MLOAD DUP1 MLOAD PUSH2 0x5754 SWAP2 PUSH1 0x6 DUP5 ADD SWAP2 PUSH1 0x20 SWAP1 SWAP2 ADD SWAP1 PUSH2 0x59FC JUMP JUMPDEST POP PUSH1 0xE0 DUP3 ADD MLOAD PUSH1 0x7 DUP3 ADD SSTORE PUSH2 0x100 SWAP1 SWAP2 ADD MLOAD PUSH1 0x8 SWAP1 SWAP2 ADD SSTORE PUSH2 0x5774 PUSH2 0x5A37 JUMP JUMPDEST POP POP PUSH1 0x40 DUP1 MLOAD PUSH1 0x60 DUP2 ADD DUP3 MSTORE DUP5 DUP2 MSTORE PUSH1 0x0 PUSH1 0x20 DUP1 DUP4 ADD DUP3 DUP2 MSTORE DUP4 DUP6 ADD SWAP7 DUP8 MSTORE DUP6 DUP4 MSTORE PUSH1 0x7 DUP3 MSTORE DUP5 DUP4 KECCAK256 SWAP4 MLOAD DUP5 SSTORE MLOAD PUSH1 0x1 DUP1 DUP6 ADD SWAP2 SWAP1 SWAP2 SSTORE SWAP6 MLOAD PUSH1 0x2 SWAP4 DUP5 ADD SSTORE PUSH1 0xC SWAP1 MSTORE SWAP2 SWAP1 SWAP2 KECCAK256 SWAP4 SWAP1 SWAP4 SSTORE DUP3 SLOAD SWAP1 SWAP2 ADD SWAP1 SWAP2 SSTORE SWAP4 SWAP3 POP POP POP JUMP JUMPDEST PUSH1 0x40 MLOAD PUSH4 0x23B872DD PUSH1 0xE0 SHL DUP2 MSTORE PUSH1 0x1 PUSH1 0x1 PUSH1 0xA0 SHL SUB DUP4 AND SWAP1 PUSH4 0x23B872DD SWAP1 PUSH2 0x57FE SWAP1 CALLER SWAP1 ADDRESS SWAP1 DUP7 SWAP1 PUSH1 0x4 ADD PUSH2 0x5E19 JUMP JUMPDEST PUSH1 0x20 PUSH1 0x40 MLOAD DUP1 DUP4 SUB DUP2 PUSH1 0x0 DUP8 DUP1 EXTCODESIZE ISZERO DUP1 ISZERO PUSH2 0x5818 JUMPI PUSH1 0x0 DUP1 REVERT JUMPDEST POP GAS CALL ISZERO DUP1 ISZERO PUSH2 0x582C JUMPI RETURNDATASIZE PUSH1 0x0 DUP1 RETURNDATACOPY RETURNDATASIZE PUSH1 0x0 REVERT JUMPDEST POP POP POP POP PUSH1 0x40 MLOAD RETURNDATASIZE PUSH1 0x1F NOT PUSH1 0x1F DUP3 ADD AND DUP3 ADD DUP1 PUSH1 0x40 MSTORE POP DUP2 ADD SWAP1 PUSH2 0x5850 SWAP2 SWAP1 PUSH2 0x5BC6 JUMP JUMPDEST PUSH2 0x586C JUMPI PUSH1 0x40 MLOAD PUSH3 0x461BCD PUSH1 0xE5 SHL DUP2 MSTORE PUSH1 0x4 ADD PUSH2 0x1278 SWAP1 PUSH2 0x60FA JUMP JUMPDEST PUSH1 0x40 MLOAD PUSH4 0x95EA7B3 PUSH1 0xE0 SHL DUP2 MSTORE PUSH1 0x1 PUSH1 0x1 PUSH1 0xA0 SHL SUB DUP4 AND SWAP1 PUSH4 0x95EA7B3 SWAP1 PUSH2 0x589A SWAP1 ADDRESS SWAP1 DUP6 SWAP1 PUSH1 0x4 ADD PUSH2 0x5E3D JUMP JUMPDEST PUSH1 0x20 PUSH1 0x40 MLOAD DUP1 DUP4 SUB DUP2 PUSH1 0x0 DUP8 DUP1 EXTCODESIZE ISZERO DUP1 ISZERO PUSH2 0x58B4 JUMPI PUSH1 0x0 DUP1 REVERT JUMPDEST POP GAS CALL ISZERO DUP1 ISZERO PUSH2 0x58C8 JUMPI RETURNDATASIZE PUSH1 0x0 DUP1 RETURNDATACOPY RETURNDATASIZE PUSH1 0x0 REVERT JUMPDEST POP POP POP POP PUSH1 0x40 MLOAD RETURNDATASIZE PUSH1 0x1F NOT PUSH1 0x1F DUP3 ADD AND DUP3 ADD DUP1 PUSH1 0x40 MSTORE POP DUP2 ADD SWAP1 PUSH2 0x58EC SWAP2 SWAP1 PUSH2 0x5BC6 JUMP JUMPDEST PUSH2 0x1474 JUMPI PUSH1 0x40 MLOAD PUSH3 0x461BCD PUSH1 0xE5 SHL DUP2 MSTORE PUSH1 0x4 ADD PUSH2 0x1278 SWAP1 PUSH2 0x66B1 JUMP JUMPDEST DUP3 DUP1 SLOAD DUP3 DUP3 SSTORE SWAP1 PUSH1 0x0 MSTORE PUSH1 0x20 PUSH1 0x0 KECCAK256 SWAP1 DUP2 ADD SWAP3 DUP3 ISZERO PUSH2 0x5943 JUMPI SWAP2 PUSH1 0x20 MUL DUP3 ADD JUMPDEST DUP3 DUP2 GT ISZERO PUSH2 0x5943 JUMPI DUP3 CALLDATALOAD DUP3 SSTORE SWAP2 PUSH1 0x20 ADD SWAP2 SWAP1 PUSH1 0x1 ADD SWAP1 PUSH2 0x5928 JUMP JUMPDEST POP PUSH2 0x594F SWAP3 SWAP2 POP PUSH2 0x5A58 JUMP JUMPDEST POP SWAP1 JUMP JUMPDEST DUP3 DUP1 SLOAD DUP3 DUP3 SSTORE SWAP1 PUSH1 0x0 MSTORE PUSH1 0x20 PUSH1 0x0 KECCAK256 SWAP1 DUP2 ADD SWAP3 DUP3 ISZERO PUSH2 0x5943 JUMPI PUSH1 0x0 MSTORE PUSH1 0x20 PUSH1 0x0 KECCAK256 SWAP2 DUP3 ADD JUMPDEST DUP3 DUP2 GT ISZERO PUSH2 0x5943 JUMPI DUP3 SLOAD DUP3 SSTORE SWAP2 PUSH1 0x1 ADD SWAP2 SWAP1 PUSH1 0x1 ADD SWAP1 PUSH2 0x5978 JUMP JUMPDEST POP DUP1 SLOAD PUSH1 0x0 DUP3 SSTORE SWAP1 PUSH1 0x0 MSTORE PUSH1 0x20 PUSH1 0x0 KECCAK256 SWAP1 DUP2 ADD SWAP1 PUSH2 0x14F0 SWAP2 SWAP1 PUSH2 0x5A58 JUMP JUMPDEST PUSH1 0x40 DUP1 MLOAD PUSH2 0x120 DUP2 ADD DUP3 MSTORE PUSH1 0x0 DUP1 DUP3 MSTORE PUSH1 0x20 DUP3 ADD DUP2 SWAP1 MSTORE SWAP2 DUP2 ADD DUP3 SWAP1 MSTORE PUSH1 0x60 DUP1 DUP3 ADD DUP4 SWAP1 MSTORE PUSH1 0x80 DUP3 ADD MSTORE SWAP1 PUSH1 0xA0 DUP3 ADD SWAP1 DUP2 MSTORE PUSH1 0x20 ADD PUSH1 0x60 DUP2 MSTORE PUSH1 0x20 ADD PUSH1 0x0 DUP2 MSTORE PUSH1 0x20 ADD PUSH1 0x0 DUP2 MSTORE POP SWAP1 JUMP JUMPDEST DUP3 DUP1 SLOAD DUP3 DUP3 SSTORE SWAP1 PUSH1 0x0 MSTORE PUSH1 0x20 PUSH1 0x0 KECCAK256 SWAP1 DUP2 ADD SWAP3 DUP3 ISZERO PUSH2 0x5943 JUMPI SWAP2 PUSH1 0x20 MUL DUP3 ADD JUMPDEST DUP3 DUP2 GT ISZERO PUSH2 0x5943 JUMPI DUP3 MLOAD DUP3 SSTORE SWAP2 PUSH1 0x20 ADD SWAP2 SWAP1 PUSH1 0x1 ADD SWAP1 PUSH2 0x5A1C JUMP JUMPDEST PUSH1 0x40 MLOAD DUP1 PUSH1 0x60 ADD PUSH1 0x40 MSTORE DUP1 PUSH1 0x0 DUP2 MSTORE PUSH1 0x20 ADD PUSH1 0x0 DUP2 MSTORE PUSH1 0x20 ADD PUSH1 0x0 DUP2 MSTORE POP SWAP1 JUMP JUMPDEST PUSH2 0x1485 SWAP2 SWAP1 JUMPDEST DUP1 DUP3 GT ISZERO PUSH2 0x594F JUMPI PUSH1 0x0 DUP2 SSTORE PUSH1 0x1 ADD PUSH2 0x5A5E JUMP JUMPDEST DUP1 CALLDATALOAD PUSH1 0x1 PUSH1 0x1 PUSH1 0xA0 SHL SUB DUP2 AND DUP2 EQ PUSH2 0x3A84 JUMPI PUSH1 0x0 DUP1 REVERT JUMPDEST PUSH1 0x0 DUP1 DUP4 PUSH1 0x1F DUP5 ADD SLT PUSH2 0x5A9A JUMPI DUP2 DUP3 REVERT JUMPDEST POP DUP2 CALLDATALOAD PUSH8 0xFFFFFFFFFFFFFFFF DUP2 GT ISZERO PUSH2 0x5AB1 JUMPI DUP2 DUP3 REVERT JUMPDEST PUSH1 0x20 DUP4 ADD SWAP2 POP DUP4 PUSH1 0x20 DUP1 DUP4 MUL DUP6 ADD ADD GT ISZERO PUSH2 0x5ACB JUMPI PUSH1 0x0 DUP1 REVERT JUMPDEST SWAP3 POP SWAP3 SWAP1 POP JUMP JUMPDEST PUSH1 0x0 PUSH1 0x20 DUP3 DUP5 SUB SLT ISZERO PUSH2 0x5AE3 JUMPI DUP1 DUP2 REVERT JUMPDEST PUSH2 0x5373 DUP4 DUP4 PUSH2 0x5A72 JUMP JUMPDEST PUSH1 0x0 DUP1 PUSH1 0x40 DUP4 DUP6 SUB SLT ISZERO PUSH2 0x5AFF JUMPI DUP1 DUP2 REVERT JUMPDEST PUSH2 0x5B09 DUP5 DUP5 PUSH2 0x5A72 JUMP JUMPDEST SWAP5 PUSH1 0x20 SWAP4 SWAP1 SWAP4 ADD CALLDATALOAD SWAP4 POP POP POP JUMP JUMPDEST PUSH1 0x0 DUP1 PUSH1 0x20 DUP4 DUP6 SUB SLT ISZERO PUSH2 0x5B29 JUMPI DUP2 DUP3 REVERT JUMPDEST DUP3 CALLDATALOAD PUSH8 0xFFFFFFFFFFFFFFFF DUP2 GT ISZERO PUSH2 0x5B3F JUMPI DUP3 DUP4 REVERT JUMPDEST PUSH2 0x5B4B DUP6 DUP3 DUP7 ADD PUSH2 0x5A89 JUMP JUMPDEST SWAP1 SWAP7 SWAP1 SWAP6 POP SWAP4 POP POP POP POP JUMP JUMPDEST PUSH1 0x0 DUP1 PUSH1 0x0 DUP1 PUSH1 0x0 DUP1 PUSH1 0xA0 DUP8 DUP10 SUB SLT ISZERO PUSH2 0x5B6F JUMPI DUP2 DUP3 REVERT JUMPDEST DUP7 CALLDATALOAD PUSH8 0xFFFFFFFFFFFFFFFF DUP2 GT ISZERO PUSH2 0x5B85 JUMPI DUP3 DUP4 REVERT JUMPDEST PUSH2 0x5B91 DUP10 DUP3 DUP11 ADD PUSH2 0x5A89 JUMP JUMPDEST SWAP1 SWAP8 POP SWAP6 POP POP PUSH1 0x20 DUP8 ADD CALLDATALOAD SWAP4 POP PUSH1 0x40 DUP8 ADD CALLDATALOAD PUSH2 0x5BAC DUP2 PUSH2 0x6B6B JUMP JUMPDEST SWAP6 SWAP9 SWAP5 SWAP8 POP SWAP3 SWAP6 PUSH1 0x60 DUP2 ADD CALLDATALOAD SWAP5 PUSH1 0x80 SWAP1 SWAP2 ADD CALLDATALOAD SWAP4 POP SWAP2 POP POP JUMP JUMPDEST PUSH1 0x0 PUSH1 0x20 DUP3 DUP5 SUB SLT ISZERO PUSH2 0x5BD7 JUMPI DUP1 DUP2 REVERT JUMPDEST DUP2 MLOAD DUP1 ISZERO ISZERO DUP2 EQ PUSH2 0x5373 JUMPI DUP2 DUP3 REVERT JUMPDEST PUSH1 0x0 PUSH1 0x20 DUP3 DUP5 SUB SLT ISZERO PUSH2 0x5BF7 JUMPI DUP1 DUP2 REVERT JUMPDEST POP CALLDATALOAD SWAP2 SWAP1 POP JUMP JUMPDEST PUSH1 0x0 PUSH1 0x20 DUP3 DUP5 SUB SLT ISZERO PUSH2 0x5C0F JUMPI DUP1 DUP2 REVERT JUMPDEST POP MLOAD SWAP2 SWAP1 POP JUMP JUMPDEST PUSH1 0x0 DUP1 PUSH1 0x40 DUP4 DUP6 SUB SLT ISZERO PUSH2 0x5C28 JUMPI DUP2 DUP3 REVERT JUMPDEST DUP3 CALLDATALOAD SWAP2 POP PUSH2 0x5C39 DUP5 PUSH1 0x20 DUP6 ADD PUSH2 0x5A72 JUMP JUMPDEST SWAP1 POP SWAP3 POP SWAP3 SWAP1 POP JUMP JUMPDEST PUSH1 0x0 DUP1 PUSH1 0x0 PUSH1 0x60 DUP5 DUP7 SUB SLT ISZERO PUSH2 0x5C56 JUMPI DUP3 DUP4 REVERT JUMPDEST DUP4 CALLDATALOAD SWAP3 POP PUSH2 0x5C67 DUP6 PUSH1 0x20 DUP7 ADD PUSH2 0x5A72 JUMP JUMPDEST SWAP2 POP PUSH1 0x40 DUP5 ADD CALLDATALOAD SWAP1 POP SWAP3 POP SWAP3 POP SWAP3 JUMP JUMPDEST PUSH1 0x0 DUP1 PUSH1 0x0 PUSH1 0x40 DUP5 DUP7 SUB SLT ISZERO PUSH2 0x5C8B JUMPI DUP3 DUP4 REVERT JUMPDEST DUP4 CALLDATALOAD SWAP3 POP PUSH1 0x20 DUP5 ADD CALLDATALOAD PUSH8 0xFFFFFFFFFFFFFFFF DUP2 GT ISZERO PUSH2 0x5CA8 JUMPI DUP3 DUP4 REVERT JUMPDEST PUSH2 0x5CB4 DUP7 DUP3 DUP8 ADD PUSH2 0x5A89 JUMP JUMPDEST SWAP5 SWAP8 SWAP1 SWAP7 POP SWAP4 SWAP5 POP POP POP POP JUMP JUMPDEST PUSH1 0x0 DUP1 PUSH1 0x0 DUP1 PUSH1 0x60 DUP6 DUP8 SUB SLT ISZERO PUSH2 0x5CD6 JUMPI DUP4 DUP5 REVERT JUMPDEST DUP5 CALLDATALOAD SWAP4 POP PUSH1 0x20 DUP6 ADD CALLDATALOAD PUSH8 0xFFFFFFFFFFFFFFFF DUP1 DUP3 GT ISZERO PUSH2 0x5CF4 JUMPI DUP5 DUP6 REVERT JUMPDEST DUP2 DUP8 ADD DUP9 PUSH1 0x1F DUP3 ADD SLT PUSH2 0x5D05 JUMPI DUP6 DUP7 REVERT JUMPDEST DUP1 CALLDATALOAD SWAP3 POP DUP2 DUP4 GT ISZERO PUSH2 0x5D15 JUMPI DUP6 DUP7 REVERT JUMPDEST DUP9 PUSH1 0x20 DUP5 DUP4 ADD ADD GT ISZERO PUSH2 0x5D26 JUMPI DUP6 DUP7 REVERT JUMPDEST SWAP6 SWAP9 PUSH1 0x20 SWAP1 SWAP7 ADD SWAP8 POP SWAP1 SWAP6 PUSH1 0x40 ADD CALLDATALOAD SWAP5 SWAP4 POP POP POP POP JUMP JUMPDEST PUSH1 0x0 DUP1 PUSH1 0x40 DUP4 DUP6 SUB SLT ISZERO PUSH2 0x5D4F JUMPI DUP2 DUP3 REVERT JUMPDEST POP POP DUP1 CALLDATALOAD SWAP3 PUSH1 0x20 SWAP1 SWAP2 ADD CALLDATALOAD SWAP2 POP JUMP JUMPDEST PUSH1 0x0 DUP1 PUSH1 0x0 PUSH1 0x60 DUP5 DUP7 SUB SLT ISZERO PUSH2 0x5D72 JUMPI DUP1 DUP2 REVERT JUMPDEST DUP4 CALLDATALOAD SWAP3 POP PUSH1 0x20 DUP5 ADD CALLDATALOAD SWAP2 POP PUSH1 0x40 DUP5 ADD CALLDATALOAD PUSH2 0x5D8B DUP2 PUSH2 0x6B6B JUMP JUMPDEST DUP1 SWAP2 POP POP SWAP3 POP SWAP3 POP SWAP3 JUMP JUMPDEST PUSH1 0x1 PUSH1 0x1 PUSH1 0xA0 SHL SUB AND SWAP1 MSTORE JUMP JUMPDEST PUSH1 0x0 DUP2 MLOAD DUP1 DUP5 MSTORE PUSH1 0x20 DUP1 DUP6 ADD SWAP5 POP DUP1 DUP5 ADD DUP4 JUMPDEST DUP4 DUP2 LT ISZERO PUSH2 0x5DD2 JUMPI DUP2 MLOAD DUP8 MSTORE SWAP6 DUP3 ADD SWAP6 SWAP1 DUP3 ADD SWAP1 PUSH1 0x1 ADD PUSH2 0x5DB6 JUMP JUMPDEST POP SWAP5 SWAP6 SWAP5 POP POP POP POP POP JUMP JUMPDEST PUSH1 0x3 DUP2 LT PUSH2 0x5DE7 JUMPI INVALID JUMPDEST SWAP1 MSTORE JUMP JUMPDEST PUSH1 0x0 DUP5 DUP3 MSTORE DUP3 DUP5 PUSH1 0x20 DUP5 ADD CALLDATACOPY SWAP2 ADD PUSH1 0x20 ADD SWAP1 DUP2 MSTORE SWAP3 SWAP2 POP POP JUMP JUMPDEST PUSH1 0x1 PUSH1 0x1 PUSH1 0xA0 SHL SUB SWAP2 SWAP1 SWAP2 AND DUP2 MSTORE PUSH1 0x20 ADD SWAP1 JUMP JUMPDEST PUSH1 0x1 PUSH1 0x1 PUSH1 0xA0 SHL SUB SWAP4 DUP5 AND DUP2 MSTORE SWAP2 SWAP1 SWAP3 AND PUSH1 0x20 DUP3 ADD MSTORE PUSH1 0x40 DUP2 ADD SWAP2 SWAP1 SWAP2 MSTORE PUSH1 0x60 ADD SWAP1 JUMP JUMPDEST PUSH1 0x1 PUSH1 0x1 PUSH1 0xA0 SHL SUB SWAP3 SWAP1 SWAP3 AND DUP3 MSTORE PUSH1 0x20 DUP3 ADD MSTORE PUSH1 0x40 ADD SWAP1 JUMP JUMPDEST PUSH1 0x0 PUSH2 0x120 PUSH1 0x1 PUSH1 0x1 PUSH1 0xA0 SHL SUB DUP1 DUP14 AND DUP5 MSTORE DUP1 DUP13 AND PUSH1 0x20 DUP6 ADD MSTORE DUP1 DUP12 AND PUSH1 0x40 DUP6 ADD MSTORE POP DUP9 PUSH1 0x60 DUP5 ADD MSTORE DUP1 PUSH1 0x80 DUP5 ADD MSTORE PUSH2 0x5E91 DUP2 DUP5 ADD DUP10 PUSH2 0x5DA3 JUMP JUMPDEST PUSH1 0x3 DUP9 LT PUSH2 0x5E9B JUMPI INVALID JUMPDEST DUP8 PUSH1 0xA0 DUP6 ADD MSTORE DUP4 DUP2 SUB PUSH1 0xC0 DUP6 ADD MSTORE PUSH2 0x5EB3 DUP2 DUP9 PUSH2 0x5DA3 JUMP JUMPDEST PUSH1 0xE0 DUP6 ADD SWAP7 SWAP1 SWAP7 MSTORE POP POP POP PUSH2 0x100 ADD MSTORE SWAP8 SWAP7 POP POP POP POP POP POP POP JUMP JUMPDEST PUSH1 0x1 PUSH1 0x1 PUSH1 0xA0 SHL SUB DUP9 DUP2 AND DUP3 MSTORE DUP8 DUP2 AND PUSH1 0x20 DUP4 ADD MSTORE DUP7 AND PUSH1 0x40 DUP3 ADD MSTORE PUSH1 0x60 DUP2 ADD DUP6 SWAP1 MSTORE PUSH1 0xE0 DUP2 ADD PUSH2 0x5F02 PUSH1 0x80 DUP4 ADD DUP7 PUSH2 0x5DDD JUMP JUMPDEST PUSH1 0xA0 DUP3 ADD SWAP4 SWAP1 SWAP4 MSTORE PUSH1 0xC0 ADD MSTORE SWAP6 SWAP5 POP POP POP POP POP JUMP JUMPDEST SWAP1 ISZERO ISZERO DUP2 MSTORE PUSH1 0x20 ADD SWAP1 JUMP JUMPDEST SWAP2 DUP3 MSTORE PUSH1 0x20 DUP3 ADD MSTORE PUSH1 0x40 ADD SWAP1 JUMP JUMPDEST PUSH1 0x0 PUSH1 0x60 DUP3 MSTORE DUP5 PUSH1 0x60 DUP4 ADD MSTORE DUP5 DUP7 PUSH1 0x80 DUP5 ADD CALLDATACOPY DUP1 PUSH1 0x80 DUP7 DUP5 ADD ADD MSTORE PUSH1 0x80 PUSH1 0x1F NOT PUSH1 0x1F DUP8 ADD AND DUP4 ADD ADD SWAP1 POP DUP4 PUSH1 0x20 DUP4 ADD MSTORE DUP3 PUSH1 0x40 DUP4 ADD MSTORE SWAP6 SWAP5 POP POP POP POP POP JUMP JUMPDEST PUSH1 0x20 DUP1 DUP3 MSTORE PUSH1 0xD SWAP1 DUP3 ADD MSTORE PUSH13 0x496E76616C6964206172726179 PUSH1 0x98 SHL PUSH1 0x40 DUP3 ADD MSTORE PUSH1 0x60 ADD SWAP1 JUMP JUMPDEST PUSH1 0x20 DUP1 DUP3 MSTORE DUP2 DUP2 ADD MSTORE PUSH32 0x43616E6E6F74206275726E206F7074696F6E207768696C65206F6E2073616C65 PUSH1 0x40 DUP3 ADD MSTORE PUSH1 0x60 ADD SWAP1 JUMP JUMPDEST PUSH1 0x20 DUP1 DUP3 MSTORE PUSH1 0x24 SWAP1 DUP3 ADD MSTORE PUSH32 0x496E76616C69642061727261793A2041727261792063616E6E6F742062652065 PUSH1 0x40 DUP3 ADD MSTORE PUSH4 0x6D707479 PUSH1 0xE0 SHL PUSH1 0x60 DUP3 ADD MSTORE PUSH1 0x80 ADD SWAP1 JUMP JUMPDEST PUSH1 0x20 DUP1 DUP3 MSTORE PUSH1 0xF SWAP1 DUP3 ADD MSTORE PUSH32 0x496E76616C696420616464726573730000000000000000000000000000000000 PUSH1 0x40 DUP3 ADD MSTORE PUSH1 0x60 ADD SWAP1 JUMP JUMPDEST PUSH1 0x20 DUP1 DUP3 MSTORE PUSH1 0x1A SWAP1 DUP3 ADD MSTORE PUSH32 0x4661696C656420746F207472616E73666572207072656D69756D000000000000 PUSH1 0x40 DUP3 ADD MSTORE PUSH1 0x60 ADD SWAP1 JUMP JUMPDEST PUSH1 0x20 DUP1 DUP3 MSTORE PUSH1 0x12 SWAP1 DUP3 ADD MSTORE PUSH32 0x476173206C696D69742065786365656465640000000000000000000000000000 PUSH1 0x40 DUP3 ADD MSTORE PUSH1 0x60 ADD SWAP1 JUMP JUMPDEST PUSH1 0x20 DUP1 DUP3 MSTORE PUSH1 0x26 SWAP1 DUP3 ADD MSTORE PUSH32 0x4F776E61626C653A206E6577206F776E657220697320746865207A65726F2061 PUSH1 0x40 DUP3 ADD MSTORE PUSH6 0x646472657373 PUSH1 0xD0 SHL PUSH1 0x60 DUP3 ADD MSTORE PUSH1 0x80 ADD SWAP1 JUMP JUMPDEST PUSH1 0x20 DUP1 DUP3 MSTORE PUSH1 0xF SWAP1 DUP3 ADD MSTORE PUSH32 0x5472616E73666572206661696C65640000000000000000000000000000000000 PUSH1 0x40 DUP3 ADD MSTORE PUSH1 0x60 ADD SWAP1 JUMP JUMPDEST PUSH1 0x20 DUP1 DUP3 MSTORE PUSH1 0x16 SWAP1 DUP3 ADD MSTORE PUSH32 0x4F7074696F6E20616C7265616479206F6E2073616C6500000000000000000000 PUSH1 0x40 DUP3 ADD MSTORE PUSH1 0x60 ADD SWAP1 JUMP JUMPDEST PUSH1 0x20 DUP1 DUP3 MSTORE PUSH1 0xE SWAP1 DUP3 ADD MSTORE PUSH32 0x496E76616C696420616D6F756E74000000000000000000000000000000000000 PUSH1 0x40 DUP3 ADD MSTORE PUSH1 0x60 ADD SWAP1 JUMP JUMPDEST PUSH1 0x20 DUP1 DUP3 MSTORE PUSH1 0x1B SWAP1 DUP3 ADD MSTORE PUSH32 0x536166654D6174683A206164646974696F6E206F766572666C6F770000000000 PUSH1 0x40 DUP3 ADD MSTORE PUSH1 0x60 ADD SWAP1 JUMP JUMPDEST PUSH1 0x20 DUP1 DUP3 MSTORE PUSH1 0x17 SWAP1 DUP3 ADD MSTORE PUSH32 0x496E76616C69642063726561746F722061646472657373000000000000000000 PUSH1 0x40 DUP3 ADD MSTORE PUSH1 0x60 ADD SWAP1 JUMP JUMPDEST PUSH1 0x20 DUP1 DUP3 MSTORE PUSH1 0x18 SWAP1 DUP3 ADD MSTORE PUSH32 0x496E636F7272656374207061796D656E7420616D6F756E740000000000000000 PUSH1 0x40 DUP3 ADD MSTORE PUSH1 0x60 ADD SWAP1 JUMP JUMPDEST PUSH1 0x20 DUP1 DUP3 MSTORE PUSH1 0x3A SWAP1 DUP3 ADD MSTORE PUSH32 0x496E76616C69642074696D653A204F7074696F6E2065787069726174696F6E20 PUSH1 0x40 DUP3 ADD MSTORE PUSH32 0x74696D65206D75737420626520696E2074686520667574757265000000000000 PUSH1 0x60 DUP3 ADD MSTORE PUSH1 0x80 ADD SWAP1 JUMP JUMPDEST PUSH1 0x20 DUP1 DUP3 MSTORE PUSH1 0x1E SWAP1 DUP3 ADD MSTORE PUSH32 0x536166654D6174683A207375627472616374696F6E206F766572666C6F770000 PUSH1 0x40 DUP3 ADD MSTORE PUSH1 0x60 ADD SWAP1 JUMP JUMPDEST PUSH1 0x20 DUP1 DUP3 MSTORE PUSH1 0x1A SWAP1 DUP3 ADD MSTORE PUSH32 0x536166654D6174683A206469766973696F6E206279207A65726F000000000000 PUSH1 0x40 DUP3 ADD MSTORE PUSH1 0x60 ADD SWAP1 JUMP JUMPDEST PUSH1 0x20 DUP1 DUP3 MSTORE PUSH1 0x27 SWAP1 DUP3 ADD MSTORE PUSH32 0x496E76616C696420616464726573733A20416464726573732063616E6E6F7420 PUSH1 0x40 DUP3 ADD MSTORE PUSH7 0x6265207A65726F PUSH1 0xC8 SHL PUSH1 0x60 DUP3 ADD MSTORE PUSH1 0x80 ADD SWAP1 JUMP JUMPDEST PUSH1 0x20 DUP1 DUP3 MSTORE PUSH1 0x21 SWAP1 DUP3 ADD MSTORE PUSH32 0x43616E6E6F7420636C61696D206F7074696F6E207768696C65206F6E2073616C PUSH1 0x40 DUP3 ADD MSTORE PUSH1 0x65 PUSH1 0xF8 SHL PUSH1 0x60 DUP3 ADD MSTORE PUSH1 0x80 ADD SWAP1 JUMP JUMPDEST PUSH1 0x20 DUP1 DUP3 MSTORE PUSH1 0x23 SWAP1 DUP3 ADD MSTORE PUSH32 0x4661696C656420746F207472616E7366657220455243323020636F6C6C617465 PUSH1 0x40 DUP3 ADD MSTORE PUSH3 0x1C985B PUSH1 0xEA SHL PUSH1 0x60 DUP3 ADD MSTORE PUSH1 0x80 ADD SWAP1 JUMP JUMPDEST PUSH1 0x20 DUP1 DUP3 MSTORE PUSH1 0x18 SWAP1 DUP3 ADD MSTORE PUSH32 0x4F7074696F6E206973206E6F742070726F66697461626C650000000000000000 PUSH1 0x40 DUP3 ADD MSTORE PUSH1 0x60 ADD SWAP1 JUMP JUMPDEST PUSH1 0x20 DUP1 DUP3 MSTORE PUSH1 0x54 SWAP1 DUP3 ADD MSTORE PUSH32 0x496E76616C6964206672616374696F6E3A20556E697473206D75737420626520 PUSH1 0x40 DUP3 ADD MSTORE PUSH32 0x67726561746572207468616E207A65726F20616E64206C657373207468616E20 PUSH1 0x60 DUP3 ADD MSTORE PUSH32 0x6F7220657175616C20746F206D6178556E697473000000000000000000000000 PUSH1 0x80 DUP3 ADD MSTORE PUSH1 0xA0 ADD SWAP1 JUMP JUMPDEST PUSH1 0x20 DUP1 DUP3 MSTORE PUSH1 0x1F SWAP1 DUP3 ADD MSTORE PUSH32 0x52616E646F6D206E756D626572206E6F742066756C66696C6C65642079657400 PUSH1 0x40 DUP3 ADD MSTORE PUSH1 0x60 ADD SWAP1 JUMP JUMPDEST PUSH1 0x20 DUP1 DUP3 MSTORE PUSH1 0x36 SWAP1 DUP3 ADD MSTORE PUSH32 0x556E617574686F72697A65643A204F6E6C79206F7074696F6E206F776E657220 PUSH1 0x40 DUP3 ADD MSTORE PUSH32 0x63616E2063616C6C20746869732066756E6374696F6E00000000000000000000 PUSH1 0x60 DUP3 ADD MSTORE PUSH1 0x80 ADD SWAP1 JUMP JUMPDEST PUSH1 0x20 DUP1 DUP3 MSTORE PUSH1 0x1A SWAP1 DUP3 ADD MSTORE PUSH32 0x4C6174657374207072696365206E6F7420617661696C61626C65000000000000 PUSH1 0x40 DUP3 ADD MSTORE PUSH1 0x60 ADD SWAP1 JUMP JUMPDEST PUSH1 0x20 DUP1 DUP3 MSTORE PUSH1 0x46 SWAP1 DUP3 ADD MSTORE PUSH32 0x496E76616C696420636F6C6C61746572616C20616D6F756E743A20436F6C6C61 PUSH1 0x40 DUP3 ADD MSTORE PUSH32 0x746572616C20616D6F756E74206D757374206265206772656174657220746861 PUSH1 0x60 DUP3 ADD MSTORE PUSH6 0x6E207A65726F PUSH1 0xD0 SHL PUSH1 0x80 DUP3 ADD MSTORE PUSH1 0xA0 ADD SWAP1 JUMP JUMPDEST PUSH1 0x20 DUP1 DUP3 MSTORE PUSH1 0x15 SWAP1 DUP3 ADD MSTORE PUSH32 0x496E76616C6964206F776E657220616464726573730000000000000000000000 PUSH1 0x40 DUP3 ADD MSTORE PUSH1 0x60 ADD SWAP1 JUMP JUMPDEST PUSH1 0x20 DUP1 DUP3 MSTORE PUSH1 0x16 SWAP1 DUP3 ADD MSTORE PUSH32 0x436F6E7472616374206973206E6F742070617573656400000000000000000000 PUSH1 0x40 DUP3 ADD MSTORE PUSH1 0x60 ADD SWAP1 JUMP JUMPDEST PUSH1 0x20 DUP1 DUP3 MSTORE PUSH1 0x12 SWAP1 DUP3 ADD MSTORE PUSH32 0x4F7074696F6E206E6F74206F6E2073616C650000000000000000000000000000 PUSH1 0x40 DUP3 ADD MSTORE PUSH1 0x60 ADD SWAP1 JUMP JUMPDEST PUSH1 0x20 DUP1 DUP3 MSTORE PUSH1 0x21 SWAP1 DUP3 ADD MSTORE PUSH32 0x536166654D6174683A206D756C7469706C69636174696F6E206F766572666C6F PUSH1 0x40 DUP3 ADD MSTORE PUSH1 0x77 PUSH1 0xF8 SHL PUSH1 0x60 DUP3 ADD MSTORE PUSH1 0x80 ADD SWAP1 JUMP JUMPDEST PUSH1 0x20 DUP1 DUP3 MSTORE PUSH1 0xF SWAP1 DUP3 ADD MSTORE PUSH32 0x417070726F76616C206661696C65640000000000000000000000000000000000 PUSH1 0x40 DUP3 ADD MSTORE PUSH1 0x60 ADD SWAP1 JUMP JUMPDEST PUSH1 0x20 DUP1 DUP3 MSTORE DUP2 DUP2 ADD MSTORE PUSH32 0x4F776E61626C653A2063616C6C6572206973206E6F7420746865206F776E6572 PUSH1 0x40 DUP3 ADD MSTORE PUSH1 0x60 ADD SWAP1 JUMP JUMPDEST PUSH1 0x20 DUP1 DUP3 MSTORE PUSH1 0xE SWAP1 DUP3 ADD MSTORE PUSH32 0x5072696365206D69736D61746368000000000000000000000000000000000000 PUSH1 0x40 DUP3 ADD MSTORE PUSH1 0x60 ADD SWAP1 JUMP JUMPDEST PUSH1 0x20 DUP1 DUP3 MSTORE PUSH1 0x10 SWAP1 DUP3 ADD MSTORE PUSH32 0x416374697665206269642F6F6666657200000000000000000000000000000000 PUSH1 0x40 DUP3 ADD MSTORE PUSH1 0x60 ADD SWAP1 JUMP JUMPDEST PUSH1 0x20 DUP1 DUP3 MSTORE PUSH1 0x30 SWAP1 DUP3 ADD MSTORE PUSH32 0x496E76616C696420616D6F756E743A20416D6F756E74206D7573742062652067 PUSH1 0x40 DUP3 ADD MSTORE PUSH32 0x726561746572207468616E207A65726F00000000000000000000000000000000 PUSH1 0x60 DUP3 ADD MSTORE PUSH1 0x80 ADD SWAP1 JUMP JUMPDEST PUSH1 0x20 DUP1 DUP3 MSTORE PUSH1 0xE SWAP1 DUP3 ADD MSTORE PUSH32 0x4F7074696F6E2065787069726564000000000000000000000000000000000000 PUSH1 0x40 DUP3 ADD MSTORE PUSH1 0x60 ADD SWAP1 JUMP JUMPDEST PUSH1 0x20 DUP1 DUP3 MSTORE DUP2 DUP2 ADD MSTORE PUSH32 0x436861696E6C696E6B206F7261636C652061646472657373206E6F7420736574 PUSH1 0x40 DUP3 ADD MSTORE PUSH1 0x60 ADD SWAP1 JUMP JUMPDEST PUSH1 0x20 DUP1 DUP3 MSTORE PUSH1 0x1A SWAP1 DUP3 ADD MSTORE PUSH32 0x4F66666572206475726174696F6E206E6F742065787069726564000000000000 PUSH1 0x40 DUP3 ADD MSTORE PUSH1 0x60 ADD SWAP1 JUMP JUMPDEST PUSH1 0x20 DUP1 DUP3 MSTORE PUSH1 0xF SWAP1 DUP3 ADD MSTORE PUSH32 0x5374616C65206269642F6F666665720000000000000000000000000000000000 PUSH1 0x40 DUP3 ADD MSTORE PUSH1 0x60 ADD SWAP1 JUMP JUMPDEST PUSH1 0x20 DUP1 DUP3 MSTORE PUSH1 0x18 SWAP1 DUP3 ADD MSTORE PUSH32 0x426964206475726174696F6E206E6F7420657870697265640000000000000000 PUSH1 0x40 DUP3 ADD MSTORE PUSH1 0x60 ADD SWAP1 JUMP JUMPDEST PUSH1 0x20 DUP1 DUP3 MSTORE PUSH1 0x2F SWAP1 DUP3 ADD MSTORE PUSH32 0x43616E6E6F7420776974686472617720636F6C6C61746572616C20666F722061 PUSH1 0x40 DUP3 ADD MSTORE PUSH32 0x6E20616374697665206F7074696F6E0000000000000000000000000000000000 PUSH1 0x60 DUP3 ADD MSTORE PUSH1 0x80 ADD SWAP1 JUMP JUMPDEST PUSH1 0x20 DUP1 DUP3 MSTORE PUSH1 0x12 SWAP1 DUP3 ADD MSTORE PUSH32 0x436F6E7472616374206973207061757365640000000000000000000000000000 PUSH1 0x40 DUP3 ADD MSTORE PUSH1 0x60 ADD SWAP1 JUMP JUMPDEST PUSH1 0x20 DUP1 DUP3 MSTORE PUSH1 0x31 SWAP1 DUP3 ADD MSTORE PUSH32 0x556E617574686F72697A65643A204F6E6C792063726561746F722063616E2063 PUSH1 0x40 DUP3 ADD MSTORE PUSH32 0x616C6C20746869732066756E6374696F6E000000000000000000000000000000 PUSH1 0x60 DUP3 ADD MSTORE PUSH1 0x80 ADD SWAP1 JUMP JUMPDEST PUSH1 0x0 PUSH1 0x20 DUP3 MSTORE PUSH2 0x69FE PUSH1 0x20 DUP4 ADD DUP5 MLOAD PUSH2 0x5D96 JUMP JUMPDEST PUSH1 0x20 DUP4 ADD MLOAD PUSH2 0x6A10 PUSH1 0x40 DUP5 ADD DUP3 PUSH2 0x5D96 JUMP JUMPDEST POP PUSH1 0x40 DUP4 ADD MLOAD PUSH2 0x6A23 PUSH1 0x60 DUP5 ADD DUP3 PUSH2 0x5D96 JUMP JUMPDEST POP PUSH1 0x60 DUP4 ADD MLOAD PUSH1 0x80 DUP4 ADD MSTORE PUSH1 0x80 DUP4 ADD MLOAD PUSH2 0x120 DUP1 PUSH1 0xA0 DUP6 ADD MSTORE PUSH2 0x6A4A PUSH2 0x140 DUP6 ADD DUP4 PUSH2 0x5DA3 JUMP JUMPDEST PUSH1 0xA0 DUP7 ADD MLOAD SWAP3 POP PUSH2 0x6A5E PUSH1 0xC0 DUP7 ADD DUP5 PUSH2 0x5DDD JUMP JUMPDEST PUSH1 0xC0 DUP7 ADD MLOAD DUP6 DUP3 SUB PUSH1 0x1F NOT ADD PUSH1 0xE0 DUP8 ADD MSTORE SWAP3 POP PUSH2 0x6A7B DUP2 DUP5 PUSH2 0x5DA3 JUMP JUMPDEST PUSH1 0xE0 DUP8 ADD MLOAD PUSH2 0x100 DUP8 DUP2 ADD SWAP2 SWAP1 SWAP2 MSTORE SWAP1 SWAP7 ADD MLOAD SWAP2 SWAP1 SWAP5 ADD MSTORE POP SWAP2 SWAP3 SWAP2 POP POP JUMP JUMPDEST SWAP1 DUP2 MSTORE PUSH1 0x20 ADD SWAP1 JUMP JUMPDEST SWAP2 DUP3 MSTORE PUSH1 0x1 PUSH1 0x1 PUSH1 0xA0 SHL SUB AND PUSH1 0x20 DUP3 ADD MSTORE PUSH1 0x40 ADD SWAP1 JUMP JUMPDEST SWAP3 DUP4 MSTORE PUSH1 0x1 PUSH1 0x1 PUSH1 0xA0 SHL SUB SWAP2 DUP3 AND PUSH1 0x20 DUP5 ADD MSTORE AND PUSH1 0x40 DUP3 ADD MSTORE PUSH1 0x60 ADD SWAP1 JUMP JUMPDEST SWAP7 DUP8 MSTORE PUSH1 0x1 PUSH1 0x1 PUSH1 0xA0 SHL SUB SWAP6 DUP7 AND PUSH1 0x20 DUP9 ADD MSTORE SWAP4 SWAP1 SWAP5 AND PUSH1 0x40 DUP7 ADD MSTORE PUSH1 0x60 DUP6 ADD SWAP2 SWAP1 SWAP2 MSTORE PUSH1 0x80 DUP5 ADD MSTORE PUSH1 0xA0 DUP4 ADD SWAP2 SWAP1 SWAP2 MSTORE PUSH1 0xC0 DUP3 ADD MSTORE PUSH1 0xE0 ADD SWAP1 JUMP JUMPDEST PUSH1 0x0 DUP5 DUP3 MSTORE PUSH1 0x1 PUSH1 0x1 PUSH1 0xA0 SHL SUB DUP5 AND PUSH1 0x20 DUP4 ADD MSTORE PUSH1 0x60 PUSH1 0x40 DUP4 ADD MSTORE PUSH2 0x6B3E PUSH1 0x60 DUP4 ADD DUP5 PUSH2 0x5DA3 JUMP JUMPDEST SWAP6 SWAP5 POP POP POP POP POP JUMP JUMPDEST SWAP3 DUP4 MSTORE PUSH1 0x20 DUP4 ADD SWAP2 SWAP1 SWAP2 MSTORE PUSH1 0x40 DUP3 ADD MSTORE PUSH1 0x60 ADD SWAP1 JUMP JUMPDEST PUSH1 0xFF SWAP2 SWAP1 SWAP2 AND DUP2 MSTORE PUSH1 0x20 ADD SWAP1 JUMP JUMPDEST PUSH1 0x1 PUSH1 0x1 PUSH1 0xA0 SHL SUB DUP2 AND DUP2 EQ PUSH2 0x14F0 JUMPI PUSH1 0x0 DUP1 REVERT INVALID LOG2 PUSH5 0x6970667358 0x22 SLT KECCAK256 LOG4 0xD0 SWAP4 0xCF PUSH4 0xDCC4BD0F 0xB4 PUSH6 0x4CA96832C4A5 0x2C PUSH28 0x5C0C773850DE52419C99225A6864736F6C6343000608003300000000 "},"methodIdentifiers":{"addToMarket(uint256,uint256[])":"1250b5ae","analyzeActivity(uint256)":"0c52f46d","baseExpiration()":"90de000b","bidDuration()":"f6b45eb7","bidResetFee()":"7987feba","bids(uint256,address)":"3f1ffcec","bufferTime()":"ba7b6703","burnOption(uint256)":"81ae634d","buyOption(uint256)":"fba225b9","buyOptionChainlink(uint256,uint256)":"4c685cc5","cancelOption(uint256)":"de6bf635","chainlinkMock()":"a964f81f","chainlinkOracle()":"ef06e72c","checkOnlyIfNotActive(uint256)":"0f5eb055","checkOnlyIfNotStale(uint256)":"de91e753","claimOption(uint256)":"dc926afb","collateralLimit(uint256)":"0afe2cad","collateralList(uint256)":"3024a912","config()":"79502c55","createOption(uint256[],uint256,address,uint256,uint256)":"87ad6f13","creatorList(address,uint256)":"e87b2b90","data()":"73d4a13a","decrementUserBidCount(address)":"87cc098f","executeOption(uint256)":"37fb409c","executeOptionWithRandomness(bytes32)":"a87e49c5","expirationIncreaseFactor()":"a1dc29cd","functionExceedingGasLimit()":"3271bd60","functionWithEmptyArray(uint256[])":"0d5047c7","functionWithEvent(uint256)":"b5bf6b06","functionWithOnlyCreator()":"65110595","functionWithOverflow()":"42f3fec6","functionWithZeroAddress()":"40e5c7f3","functionWithZeroAmount()":"e82af8e3","functionWithonlyOptionOwner(uint256)":"f7c51f3c","gasLimit()":"f68016b7","getBid(uint256,address)":"eba1b60b","getCollateralLimit(uint256)":"50a8150b","getConfig()":"c3f909d4","getCreator()":"0ee2cb10","getHighestBid(uint256)":"8f288644","getLowestOffer(uint256)":"3aa4be1e","getMarketList(uint256)":"fd6e859e","getMaxBidCount()":"208ff02e","getMinBidAmount()":"de5490ff","getOffer(uint256,address)":"b9520ce4","getOption(uint256)":"1ce5e9a6","getPriceToBidder(uint256,uint256)":"839da08b","getPriceToOfferer(uint256,uint256)":"d88750b4","getTotalOptionsNum()":"17a5266c","getUserBidCount(address)":"6ecab61e","gracePeriod()":"a06db7dc","incrementUserBidCount(address)":"93e1b8a7","isExpired(uint256)":"d9548e53","isOnSale(uint256)":"f0f2805f","isOptionOwner(uint256)":"8df7e83e","isPaused()":"b187bd26","isStale(uint256)":"a624a1df","latestPrice()":"a3e6ba94","marketList(uint256)":"232b956c","maxBidsPerUser()":"e6ea8d2e","minBidAmount()":"49751788","minBidDuration()":"86d65d02","minOfferDuration()":"c99e0ffc","offerDuration()":"bd62869a","offerResetFee()":"83534b95","offers(uint256,address)":"ebdfbce5","optionList(uint256)":"573489a9","owner()":"8da5cb5b","ownerList(address,uint256)":"eeea02bf","pause()":"8456cb59","paused()":"5c975abb","priceRequests(bytes32)":"bed40f6f","priceToBidder(uint256,uint256)":"ead8ccd1","priceToOfferer(uint256,uint256)":"a8896f50","removeFromMarket(uint256)":"6457bd04","renounceOwnership()":"715018a6","requestPriceData(uint256,string,uint256)":"5dc5eafe","resetBids(uint256)":"d987f81e","resetOffers(uint256)":"67d6a23f","setBaseExpiration(uint256,uint256)":"218f852e","setBid(uint256,address,uint256)":"d97fef01","setBidResetFee(uint256,uint256)":"76f36155","setCreator(address)":"3f516018","setExpirationIncreaseFactor(uint256,uint256)":"0c6de672","setGracePeriod(uint256,uint256)":"e2576d4f","setMaxBidsPerUser(uint256,uint256)":"0a98eeb8","setMinBidAmount(uint256,uint256)":"2d6ff84c","setMinBidDuration(uint256,uint256)":"344ca8b4","setMinOfferDuration(uint256,uint256)":"942e15b4","setOffer(uint256,address,uint256)":"0f36e6cf","setOfferResetFee(uint256,uint256)":"49050750","setOwner(address)":"13af4035","setPriceToOfferer(uint256,uint256,address)":"4d726edc","setStaleBidRemoveThreshold(uint256,uint256)":"e522600c","setTimeBuffer(uint256,uint256)":"3b647d01","staleBidRemoveThreshold()":"301bbc24","transferOption(uint256,address)":"12a695ac","transferOwnership(address)":"f2fde38b","unpause()":"3f4ba83a","userBidCount(address)":"545b6727","userBids(address)":"851212d9","withdrawCollateral(uint256)":"6112fe2e"}}}}}