{"contracts/ConstellationDerivativeState.sol":{"ConstellationDerivativeState":{"abi":[{"anonymous":false,"inputs":[{"indexed":true,"internalType":"uint256","name":"id","type":"uint256"},{"indexed":false,"internalType":"uint256","name":"result","type":"uint256"}],"name":"AnalyzeActivity","type":"event"},{"anonymous":false,"inputs":[{"indexed":true,"internalType":"uint256","name":"id","type":"uint256"},{"indexed":false,"internalType":"uint256","name":"duration","type":"uint256"}],"name":"BaseExpirationSet","type":"event"},{"anonymous":false,"inputs":[{"indexed":true,"internalType":"uint256","name":"id","type":"uint256"},{"indexed":false,"internalType":"uint256","name":"additionalDuration","type":"uint256"}],"name":"BidDurationExtended","type":"event"},{"anonymous":false,"inputs":[{"indexed":false,"internalType":"uint256","name":"id","type":"uint256"},{"indexed":true,"internalType":"address","name":"bidder","type":"address"},{"indexed":false,"internalType":"uint256[]","name":"offer","type":"uint256[]"}],"name":"BidPlaced","type":"event"},{"anonymous":false,"inputs":[{"indexed":true,"internalType":"uint256","name":"id","type":"uint256"}],"name":"BidReset","type":"event"},{"anonymous":false,"inputs":[{"indexed":true,"internalType":"uint256","name":"id","type":"uint256"},{"indexed":false,"internalType":"uint256","name":"fee","type":"uint256"}],"name":"BidResetFeeSet","type":"event"},{"anonymous":false,"inputs":[{"indexed":true,"internalType":"uint256","name":"id","type":"uint256"},{"indexed":false,"internalType":"address","name":"bidder","type":"address"},{"indexed":false,"internalType":"uint256","name":"amount","type":"uint256"}],"name":"BidWithdrawn","type":"event"},{"anonymous":false,"inputs":[{"indexed":true,"internalType":"uint256","name":"id","type":"uint256"}],"name":"BidsReset","type":"event"},{"anonymous":false,"inputs":[{"indexed":false,"internalType":"uint256","name":"id","type":"uint256"},{"indexed":true,"internalType":"address","name":"withdrawer","type":"address"}],"name":"CollateralWithdrawn","type":"event"},{"anonymous":false,"inputs":[{"indexed":true,"internalType":"uint256","name":"id","type":"uint256"},{"indexed":false,"internalType":"uint256","name":"factor","type":"uint256"}],"name":"ExpirationIncreaseFactorSet","type":"event"},{"anonymous":false,"inputs":[{"indexed":true,"internalType":"uint256","name":"id","type":"uint256"},{"indexed":false,"internalType":"uint256","name":"newExpiration","type":"uint256"}],"name":"ExtendBidDuration","type":"event"},{"anonymous":false,"inputs":[{"indexed":true,"internalType":"uint256","name":"id","type":"uint256"},{"indexed":false,"internalType":"uint256","name":"newExpiration","type":"uint256"}],"name":"ExtendOfferDuration","type":"event"},{"anonymous":false,"inputs":[{"indexed":true,"internalType":"address","name":"sender","type":"address"},{"indexed":true,"internalType":"uint256","name":"id","type":"uint256"}],"name":"FunctionWithEventCalled","type":"event"},{"anonymous":false,"inputs":[{"indexed":true,"internalType":"address","name":"caller","type":"address"}],"name":"FunctionWithOnlyCreatorCalled","type":"event"},{"anonymous":false,"inputs":[{"indexed":true,"internalType":"address","name":"caller","type":"address"}],"name":"FunctionWithOnlyOwnerCalled","type":"event"},{"anonymous":false,"inputs":[{"indexed":true,"internalType":"uint256","name":"id","type":"uint256"},{"indexed":false,"internalType":"uint256","name":"period","type":"uint256"}],"name":"GracePeriodSet","type":"event"},{"anonymous":false,"inputs":[{"indexed":true,"internalType":"uint256","name":"id","type":"uint256"},{"indexed":false,"internalType":"uint256","name":"maxBids","type":"uint256"}],"name":"MaxBidsPerUserSet","type":"event"},{"anonymous":false,"inputs":[{"indexed":true,"internalType":"uint256","name":"id","type":"uint256"},{"indexed":false,"internalType":"uint256","name":"duration","type":"uint256"}],"name":"MinBidDurationSet","type":"event"},{"anonymous":false,"inputs":[{"indexed":true,"internalType":"uint256","name":"id","type":"uint256"},{"indexed":false,"internalType":"uint256","name":"duration","type":"uint256"}],"name":"MinOfferDurationSet","type":"event"},{"anonymous":false,"inputs":[{"indexed":false,"internalType":"uint256","name":"id","type":"uint256"},{"indexed":true,"internalType":"address","name":"bidder","type":"address"},{"indexed":false,"internalType":"uint256[]","name":"offer","type":"uint256[]"},{"indexed":false,"internalType":"uint256[]","name":"oracleData","type":"uint256[]"}],"name":"NewBid","type":"event"},{"anonymous":false,"inputs":[{"indexed":true,"internalType":"uint256","name":"id","type":"uint256"}],"name":"NewResetBids","type":"event"},{"anonymous":false,"inputs":[{"indexed":true,"internalType":"uint256","name":"id","type":"uint256"},{"indexed":false,"internalType":"uint256","name":"additionalDuration","type":"uint256"}],"name":"OfferDurationExtended","type":"event"},{"anonymous":false,"inputs":[{"indexed":false,"internalType":"uint256","name":"id","type":"uint256"},{"indexed":true,"internalType":"address","name":"offerer","type":"address"},{"indexed":false,"internalType":"uint256[]","name":"offer","type":"uint256[]"}],"name":"OfferPlaced","type":"event"},{"anonymous":false,"inputs":[{"indexed":true,"internalType":"uint256","name":"id","type":"uint256"}],"name":"OfferReset","type":"event"},{"anonymous":false,"inputs":[{"indexed":true,"internalType":"uint256","name":"id","type":"uint256"},{"indexed":false,"internalType":"uint256","name":"fee","type":"uint256"}],"name":"OfferResetFeeSet","type":"event"},{"anonymous":false,"inputs":[{"indexed":true,"internalType":"uint256","name":"id","type":"uint256"},{"indexed":false,"internalType":"address","name":"offerer","type":"address"},{"indexed":false,"internalType":"uint256","name":"amount","type":"uint256"}],"name":"OfferWithdrawn","type":"event"},{"anonymous":false,"inputs":[{"indexed":true,"internalType":"uint256","name":"id","type":"uint256"}],"name":"OffersReset","type":"event"},{"anonymous":false,"inputs":[{"indexed":false,"internalType":"uint256","name":"id","type":"uint256"},{"indexed":true,"internalType":"address","name":"buyer","type":"address"},{"indexed":false,"internalType":"uint256","name":"totalPrice","type":"uint256"}],"name":"OptionBought","type":"event"},{"anonymous":false,"inputs":[{"indexed":false,"internalType":"uint256","name":"id","type":"uint256"},{"indexed":true,"internalType":"address","name":"burner","type":"address"}],"name":"OptionBurned","type":"event"},{"anonymous":false,"inputs":[{"indexed":false,"internalType":"uint256","name":"id","type":"uint256"},{"indexed":true,"internalType":"address","name":"canceller","type":"address"}],"name":"OptionCancelled","type":"event"},{"anonymous":false,"inputs":[{"indexed":false,"internalType":"uint256","name":"id","type":"uint256"},{"indexed":true,"internalType":"address","name":"claimer","type":"address"}],"name":"OptionClaimed","type":"event"},{"anonymous":false,"inputs":[{"indexed":false,"internalType":"uint256","name":"id","type":"uint256"},{"indexed":true,"internalType":"address","name":"owner","type":"address"},{"indexed":false,"internalType":"address","name":"creator","type":"address"},{"indexed":false,"internalType":"address","name":"collateralToken","type":"address"},{"indexed":false,"internalType":"uint256","name":"collateralAmount","type":"uint256"},{"indexed":false,"internalType":"uint256","name":"counterOffer","type":"uint256"},{"indexed":false,"internalType":"uint256","name":"expires","type":"uint256"},{"indexed":false,"internalType":"uint256","name":"maxUnits","type":"uint256"}],"name":"OptionCreated","type":"event"},{"anonymous":false,"inputs":[{"indexed":false,"internalType":"uint256","name":"id","type":"uint256"},{"indexed":true,"internalType":"address","name":"delister","type":"address"}],"name":"OptionDelisted","type":"event"},{"anonymous":false,"inputs":[{"indexed":false,"internalType":"uint256","name":"id","type":"uint256"},{"indexed":true,"internalType":"address","name":"executor","type":"address"},{"indexed":false,"internalType":"uint256","name":"optionPrice","type":"uint256"},{"indexed":false,"internalType":"uint256","name":"totalPrice","type":"uint256"}],"name":"OptionExecuted","type":"event"},{"anonymous":false,"inputs":[{"indexed":true,"internalType":"bytes32","name":"requestId","type":"bytes32"},{"indexed":false,"internalType":"uint256","name":"randomNumber","type":"uint256"}],"name":"OptionExecuted","type":"event"},{"anonymous":false,"inputs":[{"indexed":true,"internalType":"uint256","name":"id","type":"uint256"}],"name":"OptionExpired","type":"event"},{"anonymous":false,"inputs":[{"indexed":false,"internalType":"uint256","name":"id","type":"uint256"},{"indexed":true,"internalType":"address","name":"lister","type":"address"},{"indexed":false,"internalType":"uint256[]","name":"price","type":"uint256[]"}],"name":"OptionListed","type":"event"},{"anonymous":false,"inputs":[{"indexed":false,"internalType":"uint256","name":"id","type":"uint256"},{"indexed":true,"internalType":"address","name":"from","type":"address"},{"indexed":true,"internalType":"address","name":"to","type":"address"}],"name":"OptionTransferred","type":"event"},{"anonymous":false,"inputs":[{"indexed":true,"internalType":"address","name":"previousOwner","type":"address"},{"indexed":true,"internalType":"address","name":"newOwner","type":"address"}],"name":"OwnershipTransferred","type":"event"},{"anonymous":false,"inputs":[{"indexed":false,"internalType":"uint256","name":"id","type":"uint256"},{"indexed":true,"internalType":"address","name":"withdrawer","type":"address"},{"indexed":false,"internalType":"uint256","name":"partialAmount","type":"uint256"}],"name":"PartialBidWithdrawn","type":"event"},{"anonymous":false,"inputs":[{"indexed":true,"internalType":"uint256","name":"id","type":"uint256"},{"indexed":false,"internalType":"string","name":"denom","type":"string"},{"indexed":false,"internalType":"uint256","name":"expirationTime","type":"uint256"},{"indexed":false,"internalType":"bytes32","name":"requestId","type":"bytes32"}],"name":"PriceDataRequested","type":"event"},{"anonymous":false,"inputs":[{"indexed":false,"internalType":"address","name":"bidder","type":"address"},{"indexed":false,"internalType":"uint256","name":"value","type":"uint256"}],"name":"ReceivedEther","type":"event"},{"anonymous":false,"inputs":[{"indexed":true,"internalType":"uint256","name":"id","type":"uint256"},{"indexed":false,"internalType":"uint256","name":"threshold","type":"uint256"}],"name":"StaleBidRemoveThresholdSet","type":"event"},{"anonymous":false,"inputs":[{"indexed":true,"internalType":"uint256","name":"id","type":"uint256"},{"indexed":false,"internalType":"uint256","name":"buffer","type":"uint256"}],"name":"TimeBufferSet","type":"event"},{"anonymous":false,"inputs":[{"indexed":true,"internalType":"uint256","name":"id","type":"uint256"},{"indexed":true,"internalType":"address","name":"bidder","type":"address"},{"indexed":false,"internalType":"uint256","name":"refundedAmount","type":"uint256"}],"name":"WithdrawBid","type":"event"},{"inputs":[{"internalType":"uint256","name":"id","type":"uint256"}],"name":"analyzeActivity","outputs":[],"stateMutability":"nonpayable","type":"function"},{"inputs":[],"name":"baseExpiration","outputs":[{"internalType":"uint256","name":"","type":"uint256"}],"stateMutability":"view","type":"function"},{"inputs":[],"name":"bidDuration","outputs":[{"internalType":"uint256","name":"","type":"uint256"}],"stateMutability":"view","type":"function"},{"inputs":[],"name":"bidResetFee","outputs":[{"internalType":"uint256","name":"","type":"uint256"}],"stateMutability":"view","type":"function"},{"inputs":[{"internalType":"uint256","name":"","type":"uint256"},{"internalType":"address","name":"","type":"address"}],"name":"bids","outputs":[{"internalType":"uint256","name":"","type":"uint256"}],"stateMutability":"view","type":"function"},{"inputs":[],"name":"bufferTime","outputs":[{"internalType":"uint256","name":"","type":"uint256"}],"stateMutability":"view","type":"function"},{"inputs":[],"name":"chainlinkMock","outputs":[{"internalType":"contract ChainlinkMock","name":"","type":"address"}],"stateMutability":"view","type":"function"},{"inputs":[],"name":"chainlinkOracle","outputs":[{"internalType":"address","name":"","type":"address"}],"stateMutability":"view","type":"function"},{"inputs":[{"internalType":"uint256","name":"id","type":"uint256"}],"name":"checkOnlyIfNotActive","outputs":[],"stateMutability":"view","type":"function"},{"inputs":[{"internalType":"uint256","name":"id","type":"uint256"}],"name":"checkOnlyIfNotStale","outputs":[],"stateMutability":"view","type":"function"},{"inputs":[{"internalType":"uint256","name":"","type":"uint256"}],"name":"collateralLimit","outputs":[{"internalType":"uint256","name":"","type":"uint256"}],"stateMutability":"view","type":"function"},{"inputs":[{"internalType":"uint256","name":"","type":"uint256"}],"name":"collateralList","outputs":[{"internalType":"uint256","name":"totalCollateral","type":"uint256"},{"internalType":"uint256","name":"totalPremium","type":"uint256"},{"internalType":"uint256","name":"units","type":"uint256"}],"stateMutability":"view","type":"function"},{"inputs":[],"name":"config","outputs":[{"internalType":"address","name":"creator","type":"address"},{"internalType":"uint256","name":"totalOptionsNum","type":"uint256"}],"stateMutability":"view","type":"function"},{"inputs":[{"internalType":"address","name":"","type":"address"},{"internalType":"uint256","name":"","type":"uint256"}],"name":"creatorList","outputs":[{"internalType":"address","name":"creator","type":"address"},{"internalType":"address","name":"owner","type":"address"},{"internalType":"address","name":"collateralToken","type":"address"},{"internalType":"uint256","name":"collateralAmount","type":"uint256"},{"internalType":"enum ConstellationDerivativeState.OptionStatus","name":"status","type":"uint8"},{"internalType":"uint256","name":"expires","type":"uint256"},{"internalType":"uint256","name":"units","type":"uint256"}],"stateMutability":"view","type":"function"},{"inputs":[],"name":"data","outputs":[{"internalType":"address","name":"creator","type":"address"},{"internalType":"address","name":"owner","type":"address"},{"internalType":"address","name":"collateralToken","type":"address"},{"internalType":"uint256","name":"collateralAmount","type":"uint256"},{"internalType":"enum ConstellationDerivativeState.OptionStatus","name":"status","type":"uint8"},{"internalType":"uint256","name":"expires","type":"uint256"},{"internalType":"uint256","name":"units","type":"uint256"}],"stateMutability":"view","type":"function"},{"inputs":[{"internalType":"bytes32","name":"requestId","type":"bytes32"}],"name":"executeOptionWithRandomness","outputs":[],"stateMutability":"nonpayable","type":"function"},{"inputs":[],"name":"expirationIncreaseFactor","outputs":[{"internalType":"uint256","name":"","type":"uint256"}],"stateMutability":"view","type":"function"},{"inputs":[],"name":"functionExceedingGasLimit","outputs":[],"stateMutability":"view","type":"function"},{"inputs":[{"internalType":"uint256[]","name":"functionData","type":"uint256[]"}],"name":"functionWithEmptyArray","outputs":[],"stateMutability":"pure","type":"function"},{"inputs":[{"internalType":"uint256","name":"optionId","type":"uint256"}],"name":"functionWithEvent","outputs":[],"stateMutability":"nonpayable","type":"function"},{"inputs":[],"name":"functionWithOnlyCreator","outputs":[],"stateMutability":"nonpayable","type":"function"},{"inputs":[],"name":"functionWithOverflow","outputs":[],"stateMutability":"payable","type":"function"},{"inputs":[],"name":"functionWithZeroAddress","outputs":[],"stateMutability":"view","type":"function"},{"inputs":[],"name":"functionWithZeroAmount","outputs":[],"stateMutability":"payable","type":"function"},{"inputs":[{"internalType":"uint256","name":"id","type":"uint256"}],"name":"functionWithonlyOptionOwner","outputs":[],"stateMutability":"nonpayable","type":"function"},{"inputs":[],"name":"gasLimit","outputs":[{"internalType":"uint256","name":"","type":"uint256"}],"stateMutability":"view","type":"function"},{"inputs":[],"name":"getCreator","outputs":[{"internalType":"address","name":"","type":"address"}],"stateMutability":"view","type":"function"},{"inputs":[],"name":"getTotalOptionsNum","outputs":[{"internalType":"uint256","name":"","type":"uint256"}],"stateMutability":"view","type":"function"},{"inputs":[],"name":"gracePeriod","outputs":[{"internalType":"uint256","name":"","type":"uint256"}],"stateMutability":"view","type":"function"},{"inputs":[],"name":"instantiate","outputs":[],"stateMutability":"nonpayable","type":"function"},{"inputs":[],"name":"latestPrice","outputs":[{"internalType":"uint256","name":"","type":"uint256"}],"stateMutability":"view","type":"function"},{"inputs":[{"internalType":"uint256","name":"","type":"uint256"}],"name":"marketList","outputs":[{"internalType":"address","name":"creator","type":"address"},{"internalType":"address","name":"owner","type":"address"},{"internalType":"address","name":"collateralToken","type":"address"},{"internalType":"uint256","name":"collateralAmount","type":"uint256"},{"internalType":"enum ConstellationDerivativeState.OptionStatus","name":"status","type":"uint8"},{"internalType":"uint256","name":"expires","type":"uint256"},{"internalType":"uint256","name":"units","type":"uint256"}],"stateMutability":"view","type":"function"},{"inputs":[],"name":"maxBidsPerUser","outputs":[{"internalType":"uint256","name":"","type":"uint256"}],"stateMutability":"view","type":"function"},{"inputs":[],"name":"minBidAmount","outputs":[{"internalType":"uint256","name":"","type":"uint256"}],"stateMutability":"view","type":"function"},{"inputs":[],"name":"minBidDuration","outputs":[{"internalType":"uint256","name":"","type":"uint256"}],"stateMutability":"view","type":"function"},{"inputs":[],"name":"minOfferDuration","outputs":[{"internalType":"uint256","name":"","type":"uint256"}],"stateMutability":"view","type":"function"},{"inputs":[],"name":"offerDuration","outputs":[{"internalType":"uint256","name":"","type":"uint256"}],"stateMutability":"view","type":"function"},{"inputs":[],"name":"offerResetFee","outputs":[{"internalType":"uint256","name":"","type":"uint256"}],"stateMutability":"view","type":"function"},{"inputs":[{"internalType":"uint256","name":"","type":"uint256"},{"internalType":"address","name":"","type":"address"}],"name":"offers","outputs":[{"internalType":"uint256","name":"","type":"uint256"}],"stateMutability":"view","type":"function"},{"inputs":[{"internalType":"uint256","name":"","type":"uint256"}],"name":"optionList","outputs":[{"internalType":"address","name":"creator","type":"address"},{"internalType":"address","name":"owner","type":"address"},{"internalType":"address","name":"collateralToken","type":"address"},{"internalType":"uint256","name":"collateralAmount","type":"uint256"},{"internalType":"enum ConstellationDerivativeState.OptionStatus","name":"status","type":"uint8"},{"internalType":"uint256","name":"expires","type":"uint256"},{"internalType":"uint256","name":"units","type":"uint256"}],"stateMutability":"view","type":"function"},{"inputs":[],"name":"owner","outputs":[{"internalType":"address","name":"","type":"address"}],"stateMutability":"view","type":"function"},{"inputs":[{"internalType":"address","name":"","type":"address"},{"internalType":"uint256","name":"","type":"uint256"}],"name":"ownerList","outputs":[{"internalType":"address","name":"creator","type":"address"},{"internalType":"address","name":"owner","type":"address"},{"internalType":"address","name":"collateralToken","type":"address"},{"internalType":"uint256","name":"collateralAmount","type":"uint256"},{"internalType":"enum ConstellationDerivativeState.OptionStatus","name":"status","type":"uint8"},{"internalType":"uint256","name":"expires","type":"uint256"},{"internalType":"uint256","name":"units","type":"uint256"}],"stateMutability":"view","type":"function"},{"inputs":[],"name":"pause","outputs":[],"stateMutability":"nonpayable","type":"function"},{"inputs":[],"name":"paused","outputs":[{"internalType":"bool","name":"","type":"bool"}],"stateMutability":"view","type":"function"},{"inputs":[{"internalType":"bytes32","name":"","type":"bytes32"}],"name":"priceRequests","outputs":[{"internalType":"uint256","name":"","type":"uint256"}],"stateMutability":"view","type":"function"},{"inputs":[{"internalType":"uint256","name":"","type":"uint256"},{"internalType":"uint256","name":"","type":"uint256"}],"name":"priceToBidder","outputs":[{"internalType":"address","name":"","type":"address"}],"stateMutability":"view","type":"function"},{"inputs":[{"internalType":"uint256","name":"","type":"uint256"},{"internalType":"uint256","name":"","type":"uint256"}],"name":"priceToOfferer","outputs":[{"internalType":"address","name":"","type":"address"}],"stateMutability":"view","type":"function"},{"inputs":[],"name":"renounceOwnership","outputs":[],"stateMutability":"nonpayable","type":"function"},{"inputs":[{"internalType":"uint256","name":"id","type":"uint256"}],"name":"resetBids","outputs":[],"stateMutability":"nonpayable","type":"function"},{"inputs":[{"internalType":"uint256","name":"id","type":"uint256"}],"name":"resetOffers","outputs":[],"stateMutability":"nonpayable","type":"function"},{"inputs":[{"internalType":"uint256","name":"id","type":"uint256"},{"internalType":"uint256","name":"duration","type":"uint256"}],"name":"setBaseExpiration","outputs":[],"stateMutability":"nonpayable","type":"function"},{"inputs":[{"internalType":"uint256","name":"id","type":"uint256"},{"internalType":"uint256","name":"fee","type":"uint256"}],"name":"setBidResetFee","outputs":[],"stateMutability":"nonpayable","type":"function"},{"inputs":[{"internalType":"address","name":"_newCreator","type":"address"}],"name":"setCreator","outputs":[],"stateMutability":"nonpayable","type":"function"},{"inputs":[{"internalType":"uint256","name":"id","type":"uint256"},{"internalType":"uint256","name":"factor","type":"uint256"}],"name":"setExpirationIncreaseFactor","outputs":[],"stateMutability":"nonpayable","type":"function"},{"inputs":[{"internalType":"uint256","name":"id","type":"uint256"},{"internalType":"uint256","name":"period","type":"uint256"}],"name":"setGracePeriod","outputs":[],"stateMutability":"nonpayable","type":"function"},{"inputs":[{"internalType":"uint256","name":"id","type":"uint256"},{"internalType":"uint256","name":"maxBids","type":"uint256"}],"name":"setMaxBidsPerUser","outputs":[],"stateMutability":"nonpayable","type":"function"},{"inputs":[{"internalType":"uint256","name":"id","type":"uint256"},{"internalType":"uint256","name":"_minBidAmount","type":"uint256"}],"name":"setMinBidAmount","outputs":[],"stateMutability":"nonpayable","type":"function"},{"inputs":[{"internalType":"uint256","name":"id","type":"uint256"},{"internalType":"uint256","name":"duration","type":"uint256"}],"name":"setMinBidDuration","outputs":[],"stateMutability":"nonpayable","type":"function"},{"inputs":[{"internalType":"uint256","name":"id","type":"uint256"},{"internalType":"uint256","name":"duration","type":"uint256"}],"name":"setMinOfferDuration","outputs":[],"stateMutability":"nonpayable","type":"function"},{"inputs":[{"internalType":"uint256","name":"id","type":"uint256"},{"internalType":"uint256","name":"fee","type":"uint256"}],"name":"setOfferResetFee","outputs":[],"stateMutability":"nonpayable","type":"function"},{"inputs":[{"internalType":"address","name":"_newOwner","type":"address"}],"name":"setOwner","outputs":[],"stateMutability":"nonpayable","type":"function"},{"inputs":[{"internalType":"uint256","name":"id","type":"uint256"},{"internalType":"uint256","name":"threshold","type":"uint256"}],"name":"setStaleBidRemoveThreshold","outputs":[],"stateMutability":"nonpayable","type":"function"},{"inputs":[{"internalType":"uint256","name":"id","type":"uint256"},{"internalType":"uint256","name":"buffer","type":"uint256"}],"name":"setTimeBuffer","outputs":[],"stateMutability":"nonpayable","type":"function"},{"inputs":[],"name":"staleBidRemoveThreshold","outputs":[{"internalType":"uint256","name":"","type":"uint256"}],"stateMutability":"view","type":"function"},{"inputs":[{"internalType":"address","name":"newOwner","type":"address"}],"name":"transferOwnership","outputs":[],"stateMutability":"nonpayable","type":"function"},{"inputs":[],"name":"unpause","outputs":[],"stateMutability":"nonpayable","type":"function"},{"inputs":[{"internalType":"address","name":"","type":"address"}],"name":"userBidCount","outputs":[{"internalType":"uint256","name":"","type":"uint256"}],"stateMutability":"view","type":"function"},{"inputs":[{"internalType":"address","name":"","type":"address"}],"name":"userBids","outputs":[{"internalType":"uint256","name":"","type":"uint256"}],"stateMutability":"view","type":"function"},{"stateMutability":"payable","type":"receive"}],"evm":{"bytecode":{"linkReferences":{},"object":"608060405262030d4060285534801561001757600080fd5b50600061002b6001600160e01b0361007a16565b600080546001600160a01b0319166001600160a01b0383169081178255604051929350917f8be0079c531659141344cd1fd0a4f28419497f9722a3daafe3b4186f6b6457e0908290a35061007e565b3390565b612d5e806200008e6000396000f3fe6080604052600436106103f35760003560e01c80637987feba11610208578063bed40f6f11610118578063e87b2b90116100ab578063ef06e72c1161007a578063ef06e72c14610df9578063f2fde38b14610e0e578063f68016b714610e41578063f6b45eb714610e56578063f7c51f3c14610e6b57610434565b8063e87b2b9014610d1e578063ead8ccd114610d57578063ebdfbce514610d87578063eeea02bf14610dc057610434565b8063e2576d4f116100e7578063e2576d4f14610ca1578063e522600c14610cd1578063e6ea8d2e14610d01578063e82af8e314610d1657610434565b8063bed40f6f14610c0e578063c99e0ffc14610c38578063d987f81e14610c4d578063de91e75314610c7757610434565b8063a06db7dc1161019b578063a8896f501161016a578063a8896f5014610b75578063a964f81f14610ba5578063b5bf6b0614610bba578063ba7b670314610be4578063bd62869a14610bf957610434565b8063a06db7dc14610b0c578063a1dc29cd14610b21578063a3e6ba9414610b36578063a87e49c514610b4b57610434565b806386d65d02116101d757806386d65d0214610a9d5780638da5cb5b14610ab257806390de000b14610ac7578063942e15b414610adc57610434565b80637987feba14610a2b57806383534b9514610a405780638456cb5914610a55578063851212d914610a6a57610434565b80633f1ffcec11610303578063545b67271161029657806367d6a23f1161026557806367d6a23f1461096f578063715018a61461099957806373d4a13a146109ae57806376f36155146109c357806379502c55146109f357610434565b8063545b6727146108d4578063573489a9146109075780635c975abb14610931578063651105951461095a57610434565b806342f3fec6116102d257806342f3fec61461087257806347f2ce831461087a578063490507501461088f57806349751788146108bf57610434565b80633f1ffcec146107dc5780633f4ba83a146108155780633f5160181461082a57806340e5c7f31461085d57610434565b806317a5266c11610386578063301bbc2411610355578063301bbc241461070a5780633024a9121461071f5780633271bd6014610767578063344ca8b41461077c5780633b647d01146107ac57610434565b806317a5266c1461060c578063218f852e14610621578063232b956c146106515780632d6ff84c146106da57610434565b80630d5047c7116103c25780630d5047c7146105015780630ee2cb101461057e5780630f5eb055146105af57806313af4035146105d957610434565b80630a98eeb8146104395780630afe2cad1461046b5780630c52f46d146104a75780630c6de672146104d157610434565b36610434576040805133815234602082015281517fa419615bc8fda4c87663805ee2a3597a6d71c1d476911d9892f340d965bc7bf1929181900390910190a1005b600080fd5b34801561044557600080fd5b506104696004803603604081101561045c57600080fd5b5080359060200135610e95565b005b34801561047757600080fd5b506104956004803603602081101561048e57600080fd5b5035610f81565b60408051918252519081900360200190f35b3480156104b357600080fd5b50610469600480360360208110156104ca57600080fd5b5035610f93565b3480156104dd57600080fd5b50610469600480360360408110156104f457600080fd5b5080359060200135611064565b34801561050d57600080fd5b506104696004803603602081101561052457600080fd5b81019060208101813564010000000081111561053f57600080fd5b82018360208201111561055157600080fd5b8035906020019184602083028401116401000000008311171561057357600080fd5b509092509050611150565b34801561058a57600080fd5b50610593611196565b604080516001600160a01b039092168252519081900360200190f35b3480156105bb57600080fd5b50610469600480360360208110156105d257600080fd5b50356111a5565b3480156105e557600080fd5b50610469600480360360208110156105fc57600080fd5b50356001600160a01b0316611212565b34801561061857600080fd5b506104956112fb565b34801561062d57600080fd5b506104696004803603604081101561064457600080fd5b5080359060200135611301565b34801561065d57600080fd5b5061067b6004803603602081101561067457600080fd5b50356113ea565b604080516001600160a01b03808a168252888116602083015287169181019190915260608101859052608081018460028111156106b457fe5b60ff16815260200183815260200182815260200197505050505050505060405180910390f35b3480156106e657600080fd5b50610469600480360360408110156106fd57600080fd5b5080359060200135611439565b34801561071657600080fd5b5061049561149b565b34801561072b57600080fd5b506107496004803603602081101561074257600080fd5b50356114a1565b60408051938452602084019290925282820152519081900360600190f35b34801561077357600080fd5b506104696114c2565b34801561078857600080fd5b506104696004803603604081101561079f57600080fd5b5080359060200135611529565b3480156107b857600080fd5b50610469600480360360408110156107cf57600080fd5b5080359060200135611615565b3480156107e857600080fd5b50610495600480360360408110156107ff57600080fd5b50803590602001356001600160a01b0316611732565b34801561082157600080fd5b5061046961174f565b34801561083657600080fd5b506104696004803603602081101561084d57600080fd5b50356001600160a01b03166117f4565b34801561086957600080fd5b506104696118ba565b610469611900565b34801561088657600080fd5b50610469611908565b34801561089b57600080fd5b50610469600480360360408110156108b257600080fd5b5080359060200135611951565b3480156108cb57600080fd5b50610495611a3d565b3480156108e057600080fd5b50610495600480360360208110156108f757600080fd5b50356001600160a01b0316611a43565b34801561091357600080fd5b5061067b6004803603602081101561092a57600080fd5b5035611a55565b34801561093d57600080fd5b50610946611aa6565b604080519115158252519081900360200190f35b34801561096657600080fd5b50610469611aaf565b34801561097b57600080fd5b506104696004803603602081101561099257600080fd5b5035611b25565b3480156109a557600080fd5b50610469611d0b565b3480156109ba57600080fd5b5061067b611dc9565b3480156109cf57600080fd5b50610469600480360360408110156109e657600080fd5b5080359060200135611dfb565b3480156109ff57600080fd5b50610a08611ee7565b604080516001600160a01b03909316835260208301919091528051918290030190f35b348015610a3757600080fd5b50610495611efc565b348015610a4c57600080fd5b50610495611f02565b348015610a6157600080fd5b50610469611f08565b348015610a7657600080fd5b5061049560048036036020811015610a8d57600080fd5b50356001600160a01b0316611fad565b348015610aa957600080fd5b50610495611fbf565b348015610abe57600080fd5b50610593611fc5565b348015610ad357600080fd5b50610495611fd4565b348015610ae857600080fd5b5061046960048036036040811015610aff57600080fd5b5080359060200135611fda565b348015610b1857600080fd5b506104956120c6565b348015610b2d57600080fd5b506104956120cc565b348015610b4257600080fd5b506104956120d2565b348015610b5757600080fd5b5061046960048036036020811015610b6e57600080fd5b50356120d8565b348015610b8157600080fd5b5061059360048036036040811015610b9857600080fd5b50803590602001356122c6565b348015610bb157600080fd5b506105936122ec565b348015610bc657600080fd5b5061046960048036036020811015610bdd57600080fd5b5035612300565b348015610bf057600080fd5b50610495612330565b348015610c0557600080fd5b50610495612336565b348015610c1a57600080fd5b5061049560048036036020811015610c3157600080fd5b503561233c565b348015610c4457600080fd5b5061049561234e565b348015610c5957600080fd5b5061046960048036036020811015610c7057600080fd5b5035612354565b348015610c8357600080fd5b5061046960048036036020811015610c9a57600080fd5b503561253a565b348015610cad57600080fd5b5061046960048036036040811015610cc457600080fd5b5080359060200135612591565b348015610cdd57600080fd5b5061046960048036036040811015610cf457600080fd5b508035906020013561267d565b348015610d0d57600080fd5b50610495612769565b61046961276f565b348015610d2a57600080fd5b5061067b60048036036040811015610d4157600080fd5b506001600160a01b0381351690602001356127b5565b348015610d6357600080fd5b5061059360048036036040811015610d7a57600080fd5b508035906020013561280d565b348015610d9357600080fd5b5061049560048036036040811015610daa57600080fd5b50803590602001356001600160a01b0316612833565b348015610dcc57600080fd5b5061067b60048036036040811015610de357600080fd5b506001600160a01b038135169060200135612850565b348015610e0557600080fd5b506105936128a9565b348015610e1a57600080fd5b5061046960048036036020811015610e3157600080fd5b50356001600160a01b03166128b8565b348015610e4d57600080fd5b506104956129cc565b348015610e6257600080fd5b506104956129d2565b348015610e7757600080fd5b5061046960048036036020811015610e8e57600080fd5b50356129d8565b6000828152600160208190526040909120015482906001600160a01b03163314610ef05760405162461bcd60e51b8152600401808060200182810382526036815260200180612cc26036913960400191505060405180910390fd5b600083815260016020526040902060070154428111610f405760405162461bcd60e51b815260040180806020018281038252603a815260200180612c88603a913960400191505060405180910390fd5b602383905560408051848152905185917fc7f388abb2270b17eb176e822b294649a0309ac03d013b680c7d4a20c185e67d919081900360200190a250505050565b600a6020526000908152604090205481565b60008181526001602052604090206007015481904210610feb576040805162461bcd60e51b815260206004820152600e60248201526d13dc1d1a5bdb88195e1c1a5c995960921b604482015290519081900360640190fd5b6000610ff683612a62565b9050600061100384612b04565b90506000808311806110155750600082115b9050847f96b57ff66beeac6e8fd6b33b23f7d11be509931d1cd059f04036989848c6efe682611045576000611048565b60015b6040805160ff9092168252519081900360200190a25050505050565b6000828152600160208190526040909120015482906001600160a01b031633146110bf5760405162461bcd60e51b8152600401808060200182810382526036815260200180612cc26036913960400191505060405180910390fd5b60008381526001602052604090206007015442811161110f5760405162461bcd60e51b815260040180806020018281038252603a815260200180612c88603a913960400191505060405180910390fd5b602183905560408051848152905185917fbe95b51fb29523640d8d589c9eba58d8b9b3100df6b28caeb5549273622dbb1f919081900360200190a250505050565b80611192576040805162461bcd60e51b815260206004820152600d60248201526c496e76616c696420617272617960981b604482015290519081900360640190fd5b5050565b600e546001600160a01b031690565b601c546000828152600160205260409020600701546111c99163ffffffff612b9f16565b421061120f576040805162461bcd60e51b815260206004820152601060248201526f20b1ba34bb32903134b217b7b33332b960811b604482015290519081900360640190fd5b50565b61121a612c00565b6001600160a01b031661122b611fc5565b6001600160a01b031614611286576040805162461bcd60e51b815260206004820181905260248201527f4f776e61626c653a2063616c6c6572206973206e6f7420746865206f776e6572604482015290519081900360640190fd5b6001600160a01b0381166112d9576040805162461bcd60e51b8152602060048201526015602482015274496e76616c6964206f776e6572206164647265737360581b604482015290519081900360640190fd5b601180546001600160a01b0319166001600160a01b0392909216919091179055565b600f5490565b6000828152600160208190526040909120015482906001600160a01b0316331461135c5760405162461bcd60e51b8152600401808060200182810382526036815260200180612cc26036913960400191505060405180910390fd5b6000838152600160205260409020600701544281116113ac5760405162461bcd60e51b815260040180806020018281038252603a815260200180612c88603a913960400191505060405180910390fd5b602083815560408051858152905186927fd426195495073ec4a9d9805a3fa80f425c189f701de7c9426266b8c965acce31928290030190a250505050565b60046020526000908152604090208054600182015460028301546003840154600585015460078601546008909601546001600160a01b03958616969486169590931693919260ff909116919087565b6000828152600160208190526040909120015482906001600160a01b031633146114945760405162461bcd60e51b8152600401808060200182810382526036815260200180612cc26036913960400191505060405180910390fd5b50601e5550565b60225481565b60056020526000908152604090208054600182015460029092015490919083565b6001805b620186a081116114dc57908102906001016114c6565b50620186a05a1161120f576040805162461bcd60e51b815260206004820152601260248201527111d85cc81b1a5b5a5d08195e18d95959195960721b604482015290519081900360640190fd5b6000828152600160208190526040909120015482906001600160a01b031633146115845760405162461bcd60e51b8152600401808060200182810382526036815260200180612cc26036913960400191505060405180910390fd5b6000838152600160205260409020600701544281116115d45760405162461bcd60e51b815260040180806020018281038252603a815260200180612c88603a913960400191505060405180910390fd5b601d83905560408051848152905185917fe16a6dd3c7a1a4a15a5d0e545e58617ec3b966456c5b63c9b2615cd01d677438919081900360200190a250505050565b6000828152600160208190526040909120015482906001600160a01b031633146116705760405162461bcd60e51b8152600401808060200182810382526036815260200180612cc26036913960400191505060405180910390fd5b6000838152600160205260409020600701544281116116c05760405162461bcd60e51b815260040180806020018281038252603a815260200180612c88603a913960400191505060405180910390fd5b6000848152600160205260409020600701546116e2908463ffffffff612b9f16565b600085815260016020908152604091829020600701929092558051858152905186927f73693f148afc35383d1bc2d56ef315dfc19a9b9643aa2f3c1b5924cbab1ad08e928290030190a250505050565b600660209081526000928352604080842090915290825290205481565b600e546001600160a01b031633146117985760405162461bcd60e51b8152600401808060200182810382526031815260200180612cf86031913960400191505060405180910390fd5b60295460ff166117e8576040805162461bcd60e51b815260206004820152601660248201527510dbdb9d1c9858dd081a5cc81b9bdd081c185d5cd95960521b604482015290519081900360640190fd5b6029805460ff19169055565b600e546001600160a01b0316331461183d5760405162461bcd60e51b8152600401808060200182810382526031815260200180612cf86031913960400191505060405180910390fd5b6001600160a01b038116611898576040805162461bcd60e51b815260206004820152601760248201527f496e76616c69642063726561746f722061646472657373000000000000000000604482015290519081900360640190fd5b601080546001600160a01b0319166001600160a01b0392909216919091179055565b336118fe576040805162461bcd60e51b815260206004820152600f60248201526e496e76616c6964206164647265737360881b604482015290519081900360640190fd5b565b60001961120f565b600e546001600160a01b031633146118fe5760405162461bcd60e51b8152600401808060200182810382526031815260200180612cf86031913960400191505060405180910390fd5b6000828152600160208190526040909120015482906001600160a01b031633146119ac5760405162461bcd60e51b8152600401808060200182810382526036815260200180612cc26036913960400191505060405180910390fd5b6000838152600160205260409020600701544281116119fc5760405162461bcd60e51b815260040180806020018281038252603a815260200180612c88603a913960400191505060405180910390fd5b602583905560408051848152905185917f739c545831ee1c004c8dc63dd2a25d90c684b3ad9b4e2b2a913d086cd8f95dde919081900360200190a250505050565b601e5481565b600b6020526000908152604090205481565b600160208190526000918252604090912080549181015460028201546003830154600584015460078501546008909501546001600160a01b0396871696948516959390941693919260ff9091169187565b60295460ff1681565b600e546001600160a01b03163314611af85760405162461bcd60e51b8152600401808060200182810382526031815260200180612cf86031913960400191505060405180910390fd5b60405133907fe8bcf92c09a57affa54e786fab1f1d18ba61db48e96235e198b92080b7998f6390600090a2565b6000818152600160208190526040909120015481906001600160a01b03163314611b805760405162461bcd60e51b8152600401808060200182810382526036815260200180612cc26036913960400191505060405180910390fd5b60008281526001602052604090206007015482904210611bd8576040805162461bcd60e51b815260206004820152600e60248201526d13dc1d1a5bdb88195e1c1a5c995960921b604482015290519081900360640190fd5b601f54600084815260016020526040902060070154611bfc9163ffffffff612b9f16565b4211611c4f576040805162461bcd60e51b815260206004820152601a60248201527f4f66666572206475726174696f6e206e6f742065787069726564000000000000604482015290519081900360640190fd5b60005b600084815260016020526040902060060154811015611cda576000848152600d6020908152604080832060019092528220600601805483919085908110611c9557fe5b60009182526020808320909101548352828101939093526040918201812054888252600784528282206001600160a01b03909116825290925281205550600101611c52565b5060405183907f568aeda352153539d9813524dc5d57d37f459a2966a4092d7c00b12e8f23420d90600090a2505050565b611d13612c00565b6001600160a01b0316611d24611fc5565b6001600160a01b031614611d7f576040805162461bcd60e51b815260206004820181905260248201527f4f776e61626c653a2063616c6c6572206973206e6f7420746865206f776e6572604482015290519081900360640190fd5b600080546040516001600160a01b03909116907f8be0079c531659141344cd1fd0a4f28419497f9722a3daafe3b4186f6b6457e0908390a3600080546001600160a01b0319169055565b6010546011546012546013546015546017546018546001600160a01b0396871696958616959094169360ff9092169187565b6000828152600160208190526040909120015482906001600160a01b03163314611e565760405162461bcd60e51b8152600401808060200182810382526036815260200180612cc26036913960400191505060405180910390fd5b600083815260016020526040902060070154428111611ea65760405162461bcd60e51b815260040180806020018281038252603a815260200180612c88603a913960400191505060405180910390fd5b602483905560408051848152905185917f7bfac94b8f45c93697445d23eac75f25203c65fe9d9455b378ec00a954678459919081900360200190a250505050565b600e54600f546001600160a01b039091169082565b60245481565b60255481565b600e546001600160a01b03163314611f515760405162461bcd60e51b8152600401808060200182810382526031815260200180612cf86031913960400191505060405180910390fd5b60295460ff1615611f9e576040805162461bcd60e51b815260206004820152601260248201527110dbdb9d1c9858dd081a5cc81c185d5cd95960721b604482015290519081900360640190fd5b6029805460ff19166001179055565b60096020526000908152604090205481565b601d5481565b6000546001600160a01b031690565b60205481565b6000828152600160208190526040909120015482906001600160a01b031633146120355760405162461bcd60e51b8152600401808060200182810382526036815260200180612cc26036913960400191505060405180910390fd5b6000838152600160205260409020600701544281116120855760405162461bcd60e51b815260040180806020018281038252603a815260200180612c88603a913960400191505060405180910390fd5b601f83905560408051848152905185917ff5b670dfc12583e5b0164fca9fbbd0e6997013ca4b1a92457f1d3aead8dfd435919081900360200190a250505050565b601c5481565b60215481565b60265481565b6000602960019054906101000a90046001600160a01b03166001600160a01b03166316fe73ec6040518163ffffffff1660e01b815260040160206040518083038186803b15801561212857600080fd5b505afa15801561213c573d6000803e3d6000fd5b505050506040513d602081101561215257600080fd5b5051116121a6576040805162461bcd60e51b815260206004820152601f60248201527f52616e646f6d206e756d626572206e6f742066756c66696c6c65642079657400604482015290519081900360640190fd5b6000602960019054906101000a90046001600160a01b03166001600160a01b03166316fe73ec6040518163ffffffff1660e01b815260040160206040518083038186803b1580156121f657600080fd5b505afa15801561220a573d6000803e3d6000fd5b505050506040513d602081101561222057600080fd5b505160408051828152905191925083917f1265ed0ee2224724954858bc12b94d9ec15e1a0f2f4b3aa8e2bba707945902089181900360200190a2602960019054906101000a90046001600160a01b03166001600160a01b031663f9e19fa56040518163ffffffff1660e01b8152600401600060405180830381600087803b1580156122aa57600080fd5b505af11580156122be573d6000803e3d6000fd5b505050505050565b600d6020908152600092835260408084209091529082529020546001600160a01b031681565b60295461010090046001600160a01b031681565b604051819033907ff12ee03c5c05f6339eb7067b918b1d65996cb0701660d3a0bfeb92f628b2d56890600090a350565b60195481565b601b5481565b60086020526000908152604090205481565b601f5481565b6000818152600160208190526040909120015481906001600160a01b031633146123af5760405162461bcd60e51b8152600401808060200182810382526036815260200180612cc26036913960400191505060405180910390fd5b60008281526001602052604090206007015482904210612407576040805162461bcd60e51b815260206004820152600e60248201526d13dc1d1a5bdb88195e1c1a5c995960921b604482015290519081900360640190fd5b601a5460008481526001602052604090206007015461242b9163ffffffff612c0416565b421161247e576040805162461bcd60e51b815260206004820152601860248201527f426964206475726174696f6e206e6f7420657870697265640000000000000000604482015290519081900360640190fd5b60005b600084815260016020526040902060060154811015612509576000848152600c60209081526040808320600190925282206006018054839190859081106124c457fe5b60009182526020808320909101548352828101939093526040918201812054888252600684528282206001600160a01b03909116825290925281205550600101612481565b5060405183907f7802cd593f5c917333e3eaa52e735224ba7d2af514a30cc7b8cb8b768b49cdbf90600090a2505050565b600081815260016020526040902060070154421061120f576040805162461bcd60e51b815260206004820152600f60248201526e29ba30b632903134b217b7b33332b960891b604482015290519081900360640190fd5b6000828152600160208190526040909120015482906001600160a01b031633146125ec5760405162461bcd60e51b8152600401808060200182810382526036815260200180612cc26036913960400191505060405180910390fd5b60008381526001602052604090206007015442811161263c5760405162461bcd60e51b815260040180806020018281038252603a815260200180612c88603a913960400191505060405180910390fd5b601c83905560408051848152905185917f8a7a5c9c34210b39b0dd6c746e4824f7af2a84c059d4dcbc168a2036d26df990919081900360200190a250505050565b6000828152600160208190526040909120015482906001600160a01b031633146126d85760405162461bcd60e51b8152600401808060200182810382526036815260200180612cc26036913960400191505060405180910390fd5b6000838152600160205260409020600701544281116127285760405162461bcd60e51b815260040180806020018281038252603a815260200180612c88603a913960400191505060405180910390fd5b602283905560408051848152905185917f436da186610be724d1e56abf3d34d2baf7374f4bc9b7e38002969d08393cf547919081900360200190a250505050565b60235481565b600034116118fe576040805162461bcd60e51b815260206004820152600e60248201526d125b9d985b1a5908185b5bdd5b9d60921b604482015290519081900360640190fd5b6002602081815260009384526040808520909152918352912080546001820154928201546003830154600584015460078501546008909501546001600160a01b03948516968516959390941693919260ff9091169187565b600c6020908152600092835260408084209091529082529020546001600160a01b031681565b600760209081526000928352604080842090915290825290205481565b6003602081815260009384526040808520909152918352912080546001820154600283015493830154600584015460078501546008909501546001600160a01b0394851696938516959390941693919260ff9091169187565b6027546001600160a01b031681565b6128c0612c00565b6001600160a01b03166128d1611fc5565b6001600160a01b03161461292c576040805162461bcd60e51b815260206004820181905260248201527f4f776e61626c653a2063616c6c6572206973206e6f7420746865206f776e6572604482015290519081900360640190fd5b6001600160a01b0381166129715760405162461bcd60e51b8152600401808060200182810382526026815260200180612c626026913960400191505060405180910390fd5b600080546040516001600160a01b03808516939216917f8be0079c531659141344cd1fd0a4f28419497f9722a3daafe3b4186f6b6457e091a3600080546001600160a01b0319166001600160a01b0392909216919091179055565b60285481565b601a5481565b6000818152600160208190526040909120015481906001600160a01b03163314612a335760405162461bcd60e51b8152600401808060200182810382526036815260200180612cc26036913960400191505060405180910390fd5b60405133907f75ca8a47b85b0148770d016b113e0d6c397aab1cfc57a8dfc04b1afc46affb9190600090a25050565b600080805b600084815260016020526040902060060154811015612afd576000848152600c6020908152604080832060019092528220600601805483919085908110612aaa57fe5b60009182526020808320909101548352828101939093526040918201812054888252600684528282206001600160a01b039091168083529352205490915015612af4576001909201915b50600101612a67565b5092915050565b600080805b600084815260016020526040902060060154811015612afd576000848152600d6020908152604080832060019092528220600601805483919085908110612b4c57fe5b60009182526020808320909101548352828101939093526040918201812054888252600784528282206001600160a01b039091168083529352205490915015612b96576001909201915b50600101612b09565b600082820183811015612bf9576040805162461bcd60e51b815260206004820152601b60248201527f536166654d6174683a206164646974696f6e206f766572666c6f770000000000604482015290519081900360640190fd5b9392505050565b3390565b600082821115612c5b576040805162461bcd60e51b815260206004820152601e60248201527f536166654d6174683a207375627472616374696f6e206f766572666c6f770000604482015290519081900360640190fd5b5090039056fe4f776e61626c653a206e6577206f776e657220697320746865207a65726f2061646472657373496e76616c69642074696d653a204f7074696f6e2065787069726174696f6e2074696d65206d75737420626520696e2074686520667574757265556e617574686f72697a65643a204f6e6c79206f7074696f6e206f776e65722063616e2063616c6c20746869732066756e6374696f6e556e617574686f72697a65643a204f6e6c792063726561746f722063616e2063616c6c20746869732066756e6374696f6ea2646970667358221220beab6ae3b10c19209b49d142f92d1edcc98b862ae2a635ee0e089df7b85f540964736f6c63430006080033","opcodes":"PUSH1 0x80 PUSH1 0x40 MSTORE PUSH3 0x30D40 PUSH1 0x28 SSTORE CALLVALUE DUP1 ISZERO PUSH2 0x17 JUMPI PUSH1 0x0 DUP1 REVERT JUMPDEST POP PUSH1 0x0 PUSH2 0x2B PUSH1 0x1 PUSH1 0x1 PUSH1 0xE0 SHL SUB PUSH2 0x7A AND JUMP JUMPDEST PUSH1 0x0 DUP1 SLOAD PUSH1 0x1 PUSH1 0x1 PUSH1 0xA0 SHL SUB NOT AND PUSH1 0x1 PUSH1 0x1 PUSH1 0xA0 SHL SUB DUP4 AND SWAP1 DUP2 OR DUP3 SSTORE PUSH1 0x40 MLOAD SWAP3 SWAP4 POP SWAP2 PUSH32 0x8BE0079C531659141344CD1FD0A4F28419497F9722A3DAAFE3B4186F6B6457E0 SWAP1 DUP3 SWAP1 LOG3 POP PUSH2 0x7E JUMP JUMPDEST CALLER SWAP1 JUMP JUMPDEST PUSH2 0x2D5E DUP1 PUSH3 0x8E PUSH1 0x0 CODECOPY PUSH1 0x0 RETURN INVALID PUSH1 0x80 PUSH1 0x40 MSTORE PUSH1 0x4 CALLDATASIZE LT PUSH2 0x3F3 JUMPI PUSH1 0x0 CALLDATALOAD PUSH1 0xE0 SHR DUP1 PUSH4 0x7987FEBA GT PUSH2 0x208 JUMPI DUP1 PUSH4 0xBED40F6F GT PUSH2 0x118 JUMPI DUP1 PUSH4 0xE87B2B90 GT PUSH2 0xAB JUMPI DUP1 PUSH4 0xEF06E72C GT PUSH2 0x7A JUMPI DUP1 PUSH4 0xEF06E72C EQ PUSH2 0xDF9 JUMPI DUP1 PUSH4 0xF2FDE38B EQ PUSH2 0xE0E JUMPI DUP1 PUSH4 0xF68016B7 EQ PUSH2 0xE41 JUMPI DUP1 PUSH4 0xF6B45EB7 EQ PUSH2 0xE56 JUMPI DUP1 PUSH4 0xF7C51F3C EQ PUSH2 0xE6B JUMPI PUSH2 0x434 JUMP JUMPDEST DUP1 PUSH4 0xE87B2B90 EQ PUSH2 0xD1E JUMPI DUP1 PUSH4 0xEAD8CCD1 EQ PUSH2 0xD57 JUMPI DUP1 PUSH4 0xEBDFBCE5 EQ PUSH2 0xD87 JUMPI DUP1 PUSH4 0xEEEA02BF EQ PUSH2 0xDC0 JUMPI PUSH2 0x434 JUMP JUMPDEST DUP1 PUSH4 0xE2576D4F GT PUSH2 0xE7 JUMPI DUP1 PUSH4 0xE2576D4F EQ PUSH2 0xCA1 JUMPI DUP1 PUSH4 0xE522600C EQ PUSH2 0xCD1 JUMPI DUP1 PUSH4 0xE6EA8D2E EQ PUSH2 0xD01 JUMPI DUP1 PUSH4 0xE82AF8E3 EQ PUSH2 0xD16 JUMPI PUSH2 0x434 JUMP JUMPDEST DUP1 PUSH4 0xBED40F6F EQ PUSH2 0xC0E JUMPI DUP1 PUSH4 0xC99E0FFC EQ PUSH2 0xC38 JUMPI DUP1 PUSH4 0xD987F81E EQ PUSH2 0xC4D JUMPI DUP1 PUSH4 0xDE91E753 EQ PUSH2 0xC77 JUMPI PUSH2 0x434 JUMP JUMPDEST DUP1 PUSH4 0xA06DB7DC GT PUSH2 0x19B JUMPI DUP1 PUSH4 0xA8896F50 GT PUSH2 0x16A JUMPI DUP1 PUSH4 0xA8896F50 EQ PUSH2 0xB75 JUMPI DUP1 PUSH4 0xA964F81F EQ PUSH2 0xBA5 JUMPI DUP1 PUSH4 0xB5BF6B06 EQ PUSH2 0xBBA JUMPI DUP1 PUSH4 0xBA7B6703 EQ PUSH2 0xBE4 JUMPI DUP1 PUSH4 0xBD62869A EQ PUSH2 0xBF9 JUMPI PUSH2 0x434 JUMP JUMPDEST DUP1 PUSH4 0xA06DB7DC EQ PUSH2 0xB0C JUMPI DUP1 PUSH4 0xA1DC29CD EQ PUSH2 0xB21 JUMPI DUP1 PUSH4 0xA3E6BA94 EQ PUSH2 0xB36 JUMPI DUP1 PUSH4 0xA87E49C5 EQ PUSH2 0xB4B JUMPI PUSH2 0x434 JUMP JUMPDEST DUP1 PUSH4 0x86D65D02 GT PUSH2 0x1D7 JUMPI DUP1 PUSH4 0x86D65D02 EQ PUSH2 0xA9D JUMPI DUP1 PUSH4 0x8DA5CB5B EQ PUSH2 0xAB2 JUMPI DUP1 PUSH4 0x90DE000B EQ PUSH2 0xAC7 JUMPI DUP1 PUSH4 0x942E15B4 EQ PUSH2 0xADC JUMPI PUSH2 0x434 JUMP JUMPDEST DUP1 PUSH4 0x7987FEBA EQ PUSH2 0xA2B JUMPI DUP1 PUSH4 0x83534B95 EQ PUSH2 0xA40 JUMPI DUP1 PUSH4 0x8456CB59 EQ PUSH2 0xA55 JUMPI DUP1 PUSH4 0x851212D9 EQ PUSH2 0xA6A JUMPI PUSH2 0x434 JUMP JUMPDEST DUP1 PUSH4 0x3F1FFCEC GT PUSH2 0x303 JUMPI DUP1 PUSH4 0x545B6727 GT PUSH2 0x296 JUMPI DUP1 PUSH4 0x67D6A23F GT PUSH2 0x265 JUMPI DUP1 PUSH4 0x67D6A23F EQ PUSH2 0x96F JUMPI DUP1 PUSH4 0x715018A6 EQ PUSH2 0x999 JUMPI DUP1 PUSH4 0x73D4A13A EQ PUSH2 0x9AE JUMPI DUP1 PUSH4 0x76F36155 EQ PUSH2 0x9C3 JUMPI DUP1 PUSH4 0x79502C55 EQ PUSH2 0x9F3 JUMPI PUSH2 0x434 JUMP JUMPDEST DUP1 PUSH4 0x545B6727 EQ PUSH2 0x8D4 JUMPI DUP1 PUSH4 0x573489A9 EQ PUSH2 0x907 JUMPI DUP1 PUSH4 0x5C975ABB EQ PUSH2 0x931 JUMPI DUP1 PUSH4 0x65110595 EQ PUSH2 0x95A JUMPI PUSH2 0x434 JUMP JUMPDEST DUP1 PUSH4 0x42F3FEC6 GT PUSH2 0x2D2 JUMPI DUP1 PUSH4 0x42F3FEC6 EQ PUSH2 0x872 JUMPI DUP1 PUSH4 0x47F2CE83 EQ PUSH2 0x87A JUMPI DUP1 PUSH4 0x49050750 EQ PUSH2 0x88F JUMPI DUP1 PUSH4 0x49751788 EQ PUSH2 0x8BF JUMPI PUSH2 0x434 JUMP JUMPDEST DUP1 PUSH4 0x3F1FFCEC EQ PUSH2 0x7DC JUMPI DUP1 PUSH4 0x3F4BA83A EQ PUSH2 0x815 JUMPI DUP1 PUSH4 0x3F516018 EQ PUSH2 0x82A JUMPI DUP1 PUSH4 0x40E5C7F3 EQ PUSH2 0x85D JUMPI PUSH2 0x434 JUMP JUMPDEST DUP1 PUSH4 0x17A5266C GT PUSH2 0x386 JUMPI DUP1 PUSH4 0x301BBC24 GT PUSH2 0x355 JUMPI DUP1 PUSH4 0x301BBC24 EQ PUSH2 0x70A JUMPI DUP1 PUSH4 0x3024A912 EQ PUSH2 0x71F JUMPI DUP1 PUSH4 0x3271BD60 EQ PUSH2 0x767 JUMPI DUP1 PUSH4 0x344CA8B4 EQ PUSH2 0x77C JUMPI DUP1 PUSH4 0x3B647D01 EQ PUSH2 0x7AC JUMPI PUSH2 0x434 JUMP JUMPDEST DUP1 PUSH4 0x17A5266C EQ PUSH2 0x60C JUMPI DUP1 PUSH4 0x218F852E EQ PUSH2 0x621 JUMPI DUP1 PUSH4 0x232B956C EQ PUSH2 0x651 JUMPI DUP1 PUSH4 0x2D6FF84C EQ PUSH2 0x6DA JUMPI PUSH2 0x434 JUMP JUMPDEST DUP1 PUSH4 0xD5047C7 GT PUSH2 0x3C2 JUMPI DUP1 PUSH4 0xD5047C7 EQ PUSH2 0x501 JUMPI DUP1 PUSH4 0xEE2CB10 EQ PUSH2 0x57E JUMPI DUP1 PUSH4 0xF5EB055 EQ PUSH2 0x5AF JUMPI DUP1 PUSH4 0x13AF4035 EQ PUSH2 0x5D9 JUMPI PUSH2 0x434 JUMP JUMPDEST DUP1 PUSH4 0xA98EEB8 EQ PUSH2 0x439 JUMPI DUP1 PUSH4 0xAFE2CAD EQ PUSH2 0x46B JUMPI DUP1 PUSH4 0xC52F46D EQ PUSH2 0x4A7 JUMPI DUP1 PUSH4 0xC6DE672 EQ PUSH2 0x4D1 JUMPI PUSH2 0x434 JUMP JUMPDEST CALLDATASIZE PUSH2 0x434 JUMPI PUSH1 0x40 DUP1 MLOAD CALLER DUP2 MSTORE CALLVALUE PUSH1 0x20 DUP3 ADD MSTORE DUP2 MLOAD PUSH32 0xA419615BC8FDA4C87663805EE2A3597A6D71C1D476911D9892F340D965BC7BF1 SWAP3 SWAP2 DUP2 SWAP1 SUB SWAP1 SWAP2 ADD SWAP1 LOG1 STOP JUMPDEST PUSH1 0x0 DUP1 REVERT JUMPDEST CALLVALUE DUP1 ISZERO PUSH2 0x445 JUMPI PUSH1 0x0 DUP1 REVERT JUMPDEST POP PUSH2 0x469 PUSH1 0x4 DUP1 CALLDATASIZE SUB PUSH1 0x40 DUP2 LT ISZERO PUSH2 0x45C JUMPI PUSH1 0x0 DUP1 REVERT JUMPDEST POP DUP1 CALLDATALOAD SWAP1 PUSH1 0x20 ADD CALLDATALOAD PUSH2 0xE95 JUMP JUMPDEST STOP JUMPDEST CALLVALUE DUP1 ISZERO PUSH2 0x477 JUMPI PUSH1 0x0 DUP1 REVERT JUMPDEST POP PUSH2 0x495 PUSH1 0x4 DUP1 CALLDATASIZE SUB PUSH1 0x20 DUP2 LT ISZERO PUSH2 0x48E JUMPI PUSH1 0x0 DUP1 REVERT JUMPDEST POP CALLDATALOAD PUSH2 0xF81 JUMP JUMPDEST PUSH1 0x40 DUP1 MLOAD SWAP2 DUP3 MSTORE MLOAD SWAP1 DUP2 SWAP1 SUB PUSH1 0x20 ADD SWAP1 RETURN JUMPDEST CALLVALUE DUP1 ISZERO PUSH2 0x4B3 JUMPI PUSH1 0x0 DUP1 REVERT JUMPDEST POP PUSH2 0x469 PUSH1 0x4 DUP1 CALLDATASIZE SUB PUSH1 0x20 DUP2 LT ISZERO PUSH2 0x4CA JUMPI PUSH1 0x0 DUP1 REVERT JUMPDEST POP CALLDATALOAD PUSH2 0xF93 JUMP JUMPDEST CALLVALUE DUP1 ISZERO PUSH2 0x4DD JUMPI PUSH1 0x0 DUP1 REVERT JUMPDEST POP PUSH2 0x469 PUSH1 0x4 DUP1 CALLDATASIZE SUB PUSH1 0x40 DUP2 LT ISZERO PUSH2 0x4F4 JUMPI PUSH1 0x0 DUP1 REVERT JUMPDEST POP DUP1 CALLDATALOAD SWAP1 PUSH1 0x20 ADD CALLDATALOAD PUSH2 0x1064 JUMP JUMPDEST CALLVALUE DUP1 ISZERO PUSH2 0x50D JUMPI PUSH1 0x0 DUP1 REVERT JUMPDEST POP PUSH2 0x469 PUSH1 0x4 DUP1 CALLDATASIZE SUB PUSH1 0x20 DUP2 LT ISZERO PUSH2 0x524 JUMPI PUSH1 0x0 DUP1 REVERT JUMPDEST DUP2 ADD SWAP1 PUSH1 0x20 DUP2 ADD DUP2 CALLDATALOAD PUSH5 0x100000000 DUP2 GT ISZERO PUSH2 0x53F JUMPI PUSH1 0x0 DUP1 REVERT JUMPDEST DUP3 ADD DUP4 PUSH1 0x20 DUP3 ADD GT ISZERO PUSH2 0x551 JUMPI PUSH1 0x0 DUP1 REVERT JUMPDEST DUP1 CALLDATALOAD SWAP1 PUSH1 0x20 ADD SWAP2 DUP5 PUSH1 0x20 DUP4 MUL DUP5 ADD GT PUSH5 0x100000000 DUP4 GT OR ISZERO PUSH2 0x573 JUMPI PUSH1 0x0 DUP1 REVERT JUMPDEST POP SWAP1 SWAP3 POP SWAP1 POP PUSH2 0x1150 JUMP JUMPDEST CALLVALUE DUP1 ISZERO PUSH2 0x58A JUMPI PUSH1 0x0 DUP1 REVERT JUMPDEST POP PUSH2 0x593 PUSH2 0x1196 JUMP JUMPDEST PUSH1 0x40 DUP1 MLOAD PUSH1 0x1 PUSH1 0x1 PUSH1 0xA0 SHL SUB SWAP1 SWAP3 AND DUP3 MSTORE MLOAD SWAP1 DUP2 SWAP1 SUB PUSH1 0x20 ADD SWAP1 RETURN JUMPDEST CALLVALUE DUP1 ISZERO PUSH2 0x5BB JUMPI PUSH1 0x0 DUP1 REVERT JUMPDEST POP PUSH2 0x469 PUSH1 0x4 DUP1 CALLDATASIZE SUB PUSH1 0x20 DUP2 LT ISZERO PUSH2 0x5D2 JUMPI PUSH1 0x0 DUP1 REVERT JUMPDEST POP CALLDATALOAD PUSH2 0x11A5 JUMP JUMPDEST CALLVALUE DUP1 ISZERO PUSH2 0x5E5 JUMPI PUSH1 0x0 DUP1 REVERT JUMPDEST POP PUSH2 0x469 PUSH1 0x4 DUP1 CALLDATASIZE SUB PUSH1 0x20 DUP2 LT ISZERO PUSH2 0x5FC JUMPI PUSH1 0x0 DUP1 REVERT JUMPDEST POP CALLDATALOAD PUSH1 0x1 PUSH1 0x1 PUSH1 0xA0 SHL SUB AND PUSH2 0x1212 JUMP JUMPDEST CALLVALUE DUP1 ISZERO PUSH2 0x618 JUMPI PUSH1 0x0 DUP1 REVERT JUMPDEST POP PUSH2 0x495 PUSH2 0x12FB JUMP JUMPDEST CALLVALUE DUP1 ISZERO PUSH2 0x62D JUMPI PUSH1 0x0 DUP1 REVERT JUMPDEST POP PUSH2 0x469 PUSH1 0x4 DUP1 CALLDATASIZE SUB PUSH1 0x40 DUP2 LT ISZERO PUSH2 0x644 JUMPI PUSH1 0x0 DUP1 REVERT JUMPDEST POP DUP1 CALLDATALOAD SWAP1 PUSH1 0x20 ADD CALLDATALOAD PUSH2 0x1301 JUMP JUMPDEST CALLVALUE DUP1 ISZERO PUSH2 0x65D JUMPI PUSH1 0x0 DUP1 REVERT JUMPDEST POP PUSH2 0x67B PUSH1 0x4 DUP1 CALLDATASIZE SUB PUSH1 0x20 DUP2 LT ISZERO PUSH2 0x674 JUMPI PUSH1 0x0 DUP1 REVERT JUMPDEST POP CALLDATALOAD PUSH2 0x13EA JUMP JUMPDEST PUSH1 0x40 DUP1 MLOAD PUSH1 0x1 PUSH1 0x1 PUSH1 0xA0 SHL SUB DUP1 DUP11 AND DUP3 MSTORE DUP9 DUP2 AND PUSH1 0x20 DUP4 ADD MSTORE DUP8 AND SWAP2 DUP2 ADD SWAP2 SWAP1 SWAP2 MSTORE PUSH1 0x60 DUP2 ADD DUP6 SWAP1 MSTORE PUSH1 0x80 DUP2 ADD DUP5 PUSH1 0x2 DUP2 GT ISZERO PUSH2 0x6B4 JUMPI INVALID JUMPDEST PUSH1 0xFF AND DUP2 MSTORE PUSH1 0x20 ADD DUP4 DUP2 MSTORE PUSH1 0x20 ADD DUP3 DUP2 MSTORE PUSH1 0x20 ADD SWAP8 POP POP POP POP POP POP POP POP PUSH1 0x40 MLOAD DUP1 SWAP2 SUB SWAP1 RETURN JUMPDEST CALLVALUE DUP1 ISZERO PUSH2 0x6E6 JUMPI PUSH1 0x0 DUP1 REVERT JUMPDEST POP PUSH2 0x469 PUSH1 0x4 DUP1 CALLDATASIZE SUB PUSH1 0x40 DUP2 LT ISZERO PUSH2 0x6FD JUMPI PUSH1 0x0 DUP1 REVERT JUMPDEST POP DUP1 CALLDATALOAD SWAP1 PUSH1 0x20 ADD CALLDATALOAD PUSH2 0x1439 JUMP JUMPDEST CALLVALUE DUP1 ISZERO PUSH2 0x716 JUMPI PUSH1 0x0 DUP1 REVERT JUMPDEST POP PUSH2 0x495 PUSH2 0x149B JUMP JUMPDEST CALLVALUE DUP1 ISZERO PUSH2 0x72B JUMPI PUSH1 0x0 DUP1 REVERT JUMPDEST POP PUSH2 0x749 PUSH1 0x4 DUP1 CALLDATASIZE SUB PUSH1 0x20 DUP2 LT ISZERO PUSH2 0x742 JUMPI PUSH1 0x0 DUP1 REVERT JUMPDEST POP CALLDATALOAD PUSH2 0x14A1 JUMP JUMPDEST PUSH1 0x40 DUP1 MLOAD SWAP4 DUP5 MSTORE PUSH1 0x20 DUP5 ADD SWAP3 SWAP1 SWAP3 MSTORE DUP3 DUP3 ADD MSTORE MLOAD SWAP1 DUP2 SWAP1 SUB PUSH1 0x60 ADD SWAP1 RETURN JUMPDEST CALLVALUE DUP1 ISZERO PUSH2 0x773 JUMPI PUSH1 0x0 DUP1 REVERT JUMPDEST POP PUSH2 0x469 PUSH2 0x14C2 JUMP JUMPDEST CALLVALUE DUP1 ISZERO PUSH2 0x788 JUMPI PUSH1 0x0 DUP1 REVERT JUMPDEST POP PUSH2 0x469 PUSH1 0x4 DUP1 CALLDATASIZE SUB PUSH1 0x40 DUP2 LT ISZERO PUSH2 0x79F JUMPI PUSH1 0x0 DUP1 REVERT JUMPDEST POP DUP1 CALLDATALOAD SWAP1 PUSH1 0x20 ADD CALLDATALOAD PUSH2 0x1529 JUMP JUMPDEST CALLVALUE DUP1 ISZERO PUSH2 0x7B8 JUMPI PUSH1 0x0 DUP1 REVERT JUMPDEST POP PUSH2 0x469 PUSH1 0x4 DUP1 CALLDATASIZE SUB PUSH1 0x40 DUP2 LT ISZERO PUSH2 0x7CF JUMPI PUSH1 0x0 DUP1 REVERT JUMPDEST POP DUP1 CALLDATALOAD SWAP1 PUSH1 0x20 ADD CALLDATALOAD PUSH2 0x1615 JUMP JUMPDEST CALLVALUE DUP1 ISZERO PUSH2 0x7E8 JUMPI PUSH1 0x0 DUP1 REVERT JUMPDEST POP PUSH2 0x495 PUSH1 0x4 DUP1 CALLDATASIZE SUB PUSH1 0x40 DUP2 LT ISZERO PUSH2 0x7FF JUMPI PUSH1 0x0 DUP1 REVERT JUMPDEST POP DUP1 CALLDATALOAD SWAP1 PUSH1 0x20 ADD CALLDATALOAD PUSH1 0x1 PUSH1 0x1 PUSH1 0xA0 SHL SUB AND PUSH2 0x1732 JUMP JUMPDEST CALLVALUE DUP1 ISZERO PUSH2 0x821 JUMPI PUSH1 0x0 DUP1 REVERT JUMPDEST POP PUSH2 0x469 PUSH2 0x174F JUMP JUMPDEST CALLVALUE DUP1 ISZERO PUSH2 0x836 JUMPI PUSH1 0x0 DUP1 REVERT JUMPDEST POP PUSH2 0x469 PUSH1 0x4 DUP1 CALLDATASIZE SUB PUSH1 0x20 DUP2 LT ISZERO PUSH2 0x84D JUMPI PUSH1 0x0 DUP1 REVERT JUMPDEST POP CALLDATALOAD PUSH1 0x1 PUSH1 0x1 PUSH1 0xA0 SHL SUB AND PUSH2 0x17F4 JUMP JUMPDEST CALLVALUE DUP1 ISZERO PUSH2 0x869 JUMPI PUSH1 0x0 DUP1 REVERT JUMPDEST POP PUSH2 0x469 PUSH2 0x18BA JUMP JUMPDEST PUSH2 0x469 PUSH2 0x1900 JUMP JUMPDEST CALLVALUE DUP1 ISZERO PUSH2 0x886 JUMPI PUSH1 0x0 DUP1 REVERT JUMPDEST POP PUSH2 0x469 PUSH2 0x1908 JUMP JUMPDEST CALLVALUE DUP1 ISZERO PUSH2 0x89B JUMPI PUSH1 0x0 DUP1 REVERT JUMPDEST POP PUSH2 0x469 PUSH1 0x4 DUP1 CALLDATASIZE SUB PUSH1 0x40 DUP2 LT ISZERO PUSH2 0x8B2 JUMPI PUSH1 0x0 DUP1 REVERT JUMPDEST POP DUP1 CALLDATALOAD SWAP1 PUSH1 0x20 ADD CALLDATALOAD PUSH2 0x1951 JUMP JUMPDEST CALLVALUE DUP1 ISZERO PUSH2 0x8CB JUMPI PUSH1 0x0 DUP1 REVERT JUMPDEST POP PUSH2 0x495 PUSH2 0x1A3D JUMP JUMPDEST CALLVALUE DUP1 ISZERO PUSH2 0x8E0 JUMPI PUSH1 0x0 DUP1 REVERT JUMPDEST POP PUSH2 0x495 PUSH1 0x4 DUP1 CALLDATASIZE SUB PUSH1 0x20 DUP2 LT ISZERO PUSH2 0x8F7 JUMPI PUSH1 0x0 DUP1 REVERT JUMPDEST POP CALLDATALOAD PUSH1 0x1 PUSH1 0x1 PUSH1 0xA0 SHL SUB AND PUSH2 0x1A43 JUMP JUMPDEST CALLVALUE DUP1 ISZERO PUSH2 0x913 JUMPI PUSH1 0x0 DUP1 REVERT JUMPDEST POP PUSH2 0x67B PUSH1 0x4 DUP1 CALLDATASIZE SUB PUSH1 0x20 DUP2 LT ISZERO PUSH2 0x92A JUMPI PUSH1 0x0 DUP1 REVERT JUMPDEST POP CALLDATALOAD PUSH2 0x1A55 JUMP JUMPDEST CALLVALUE DUP1 ISZERO PUSH2 0x93D JUMPI PUSH1 0x0 DUP1 REVERT JUMPDEST POP PUSH2 0x946 PUSH2 0x1AA6 JUMP JUMPDEST PUSH1 0x40 DUP1 MLOAD SWAP2 ISZERO ISZERO DUP3 MSTORE MLOAD SWAP1 DUP2 SWAP1 SUB PUSH1 0x20 ADD SWAP1 RETURN JUMPDEST CALLVALUE DUP1 ISZERO PUSH2 0x966 JUMPI PUSH1 0x0 DUP1 REVERT JUMPDEST POP PUSH2 0x469 PUSH2 0x1AAF JUMP JUMPDEST CALLVALUE DUP1 ISZERO PUSH2 0x97B JUMPI PUSH1 0x0 DUP1 REVERT JUMPDEST POP PUSH2 0x469 PUSH1 0x4 DUP1 CALLDATASIZE SUB PUSH1 0x20 DUP2 LT ISZERO PUSH2 0x992 JUMPI PUSH1 0x0 DUP1 REVERT JUMPDEST POP CALLDATALOAD PUSH2 0x1B25 JUMP JUMPDEST CALLVALUE DUP1 ISZERO PUSH2 0x9A5 JUMPI PUSH1 0x0 DUP1 REVERT JUMPDEST POP PUSH2 0x469 PUSH2 0x1D0B JUMP JUMPDEST CALLVALUE DUP1 ISZERO PUSH2 0x9BA JUMPI PUSH1 0x0 DUP1 REVERT JUMPDEST POP PUSH2 0x67B PUSH2 0x1DC9 JUMP JUMPDEST CALLVALUE DUP1 ISZERO PUSH2 0x9CF JUMPI PUSH1 0x0 DUP1 REVERT JUMPDEST POP PUSH2 0x469 PUSH1 0x4 DUP1 CALLDATASIZE SUB PUSH1 0x40 DUP2 LT ISZERO PUSH2 0x9E6 JUMPI PUSH1 0x0 DUP1 REVERT JUMPDEST POP DUP1 CALLDATALOAD SWAP1 PUSH1 0x20 ADD CALLDATALOAD PUSH2 0x1DFB JUMP JUMPDEST CALLVALUE DUP1 ISZERO PUSH2 0x9FF JUMPI PUSH1 0x0 DUP1 REVERT JUMPDEST POP PUSH2 0xA08 PUSH2 0x1EE7 JUMP JUMPDEST PUSH1 0x40 DUP1 MLOAD PUSH1 0x1 PUSH1 0x1 PUSH1 0xA0 SHL SUB SWAP1 SWAP4 AND DUP4 MSTORE PUSH1 0x20 DUP4 ADD SWAP2 SWAP1 SWAP2 MSTORE DUP1 MLOAD SWAP2 DUP3 SWAP1 SUB ADD SWAP1 RETURN JUMPDEST CALLVALUE DUP1 ISZERO PUSH2 0xA37 JUMPI PUSH1 0x0 DUP1 REVERT JUMPDEST POP PUSH2 0x495 PUSH2 0x1EFC JUMP JUMPDEST CALLVALUE DUP1 ISZERO PUSH2 0xA4C JUMPI PUSH1 0x0 DUP1 REVERT JUMPDEST POP PUSH2 0x495 PUSH2 0x1F02 JUMP JUMPDEST CALLVALUE DUP1 ISZERO PUSH2 0xA61 JUMPI PUSH1 0x0 DUP1 REVERT JUMPDEST POP PUSH2 0x469 PUSH2 0x1F08 JUMP JUMPDEST CALLVALUE DUP1 ISZERO PUSH2 0xA76 JUMPI PUSH1 0x0 DUP1 REVERT JUMPDEST POP PUSH2 0x495 PUSH1 0x4 DUP1 CALLDATASIZE SUB PUSH1 0x20 DUP2 LT ISZERO PUSH2 0xA8D JUMPI PUSH1 0x0 DUP1 REVERT JUMPDEST POP CALLDATALOAD PUSH1 0x1 PUSH1 0x1 PUSH1 0xA0 SHL SUB AND PUSH2 0x1FAD JUMP JUMPDEST CALLVALUE DUP1 ISZERO PUSH2 0xAA9 JUMPI PUSH1 0x0 DUP1 REVERT JUMPDEST POP PUSH2 0x495 PUSH2 0x1FBF JUMP JUMPDEST CALLVALUE DUP1 ISZERO PUSH2 0xABE JUMPI PUSH1 0x0 DUP1 REVERT JUMPDEST POP PUSH2 0x593 PUSH2 0x1FC5 JUMP JUMPDEST CALLVALUE DUP1 ISZERO PUSH2 0xAD3 JUMPI PUSH1 0x0 DUP1 REVERT JUMPDEST POP PUSH2 0x495 PUSH2 0x1FD4 JUMP JUMPDEST CALLVALUE DUP1 ISZERO PUSH2 0xAE8 JUMPI PUSH1 0x0 DUP1 REVERT JUMPDEST POP PUSH2 0x469 PUSH1 0x4 DUP1 CALLDATASIZE SUB PUSH1 0x40 DUP2 LT ISZERO PUSH2 0xAFF JUMPI PUSH1 0x0 DUP1 REVERT JUMPDEST POP DUP1 CALLDATALOAD SWAP1 PUSH1 0x20 ADD CALLDATALOAD PUSH2 0x1FDA JUMP JUMPDEST CALLVALUE DUP1 ISZERO PUSH2 0xB18 JUMPI PUSH1 0x0 DUP1 REVERT JUMPDEST POP PUSH2 0x495 PUSH2 0x20C6 JUMP JUMPDEST CALLVALUE DUP1 ISZERO PUSH2 0xB2D JUMPI PUSH1 0x0 DUP1 REVERT JUMPDEST POP PUSH2 0x495 PUSH2 0x20CC JUMP JUMPDEST CALLVALUE DUP1 ISZERO PUSH2 0xB42 JUMPI PUSH1 0x0 DUP1 REVERT JUMPDEST POP PUSH2 0x495 PUSH2 0x20D2 JUMP JUMPDEST CALLVALUE DUP1 ISZERO PUSH2 0xB57 JUMPI PUSH1 0x0 DUP1 REVERT JUMPDEST POP PUSH2 0x469 PUSH1 0x4 DUP1 CALLDATASIZE SUB PUSH1 0x20 DUP2 LT ISZERO PUSH2 0xB6E JUMPI PUSH1 0x0 DUP1 REVERT JUMPDEST POP CALLDATALOAD PUSH2 0x20D8 JUMP JUMPDEST CALLVALUE DUP1 ISZERO PUSH2 0xB81 JUMPI PUSH1 0x0 DUP1 REVERT JUMPDEST POP PUSH2 0x593 PUSH1 0x4 DUP1 CALLDATASIZE SUB PUSH1 0x40 DUP2 LT ISZERO PUSH2 0xB98 JUMPI PUSH1 0x0 DUP1 REVERT JUMPDEST POP DUP1 CALLDATALOAD SWAP1 PUSH1 0x20 ADD CALLDATALOAD PUSH2 0x22C6 JUMP JUMPDEST CALLVALUE DUP1 ISZERO PUSH2 0xBB1 JUMPI PUSH1 0x0 DUP1 REVERT JUMPDEST POP PUSH2 0x593 PUSH2 0x22EC JUMP JUMPDEST CALLVALUE DUP1 ISZERO PUSH2 0xBC6 JUMPI PUSH1 0x0 DUP1 REVERT JUMPDEST POP PUSH2 0x469 PUSH1 0x4 DUP1 CALLDATASIZE SUB PUSH1 0x20 DUP2 LT ISZERO PUSH2 0xBDD JUMPI PUSH1 0x0 DUP1 REVERT JUMPDEST POP CALLDATALOAD PUSH2 0x2300 JUMP JUMPDEST CALLVALUE DUP1 ISZERO PUSH2 0xBF0 JUMPI PUSH1 0x0 DUP1 REVERT JUMPDEST POP PUSH2 0x495 PUSH2 0x2330 JUMP JUMPDEST CALLVALUE DUP1 ISZERO PUSH2 0xC05 JUMPI PUSH1 0x0 DUP1 REVERT JUMPDEST POP PUSH2 0x495 PUSH2 0x2336 JUMP JUMPDEST CALLVALUE DUP1 ISZERO PUSH2 0xC1A JUMPI PUSH1 0x0 DUP1 REVERT JUMPDEST POP PUSH2 0x495 PUSH1 0x4 DUP1 CALLDATASIZE SUB PUSH1 0x20 DUP2 LT ISZERO PUSH2 0xC31 JUMPI PUSH1 0x0 DUP1 REVERT JUMPDEST POP CALLDATALOAD PUSH2 0x233C JUMP JUMPDEST CALLVALUE DUP1 ISZERO PUSH2 0xC44 JUMPI PUSH1 0x0 DUP1 REVERT JUMPDEST POP PUSH2 0x495 PUSH2 0x234E JUMP JUMPDEST CALLVALUE DUP1 ISZERO PUSH2 0xC59 JUMPI PUSH1 0x0 DUP1 REVERT JUMPDEST POP PUSH2 0x469 PUSH1 0x4 DUP1 CALLDATASIZE SUB PUSH1 0x20 DUP2 LT ISZERO PUSH2 0xC70 JUMPI PUSH1 0x0 DUP1 REVERT JUMPDEST POP CALLDATALOAD PUSH2 0x2354 JUMP JUMPDEST CALLVALUE DUP1 ISZERO PUSH2 0xC83 JUMPI PUSH1 0x0 DUP1 REVERT JUMPDEST POP PUSH2 0x469 PUSH1 0x4 DUP1 CALLDATASIZE SUB PUSH1 0x20 DUP2 LT ISZERO PUSH2 0xC9A JUMPI PUSH1 0x0 DUP1 REVERT JUMPDEST POP CALLDATALOAD PUSH2 0x253A JUMP JUMPDEST CALLVALUE DUP1 ISZERO PUSH2 0xCAD JUMPI PUSH1 0x0 DUP1 REVERT JUMPDEST POP PUSH2 0x469 PUSH1 0x4 DUP1 CALLDATASIZE SUB PUSH1 0x40 DUP2 LT ISZERO PUSH2 0xCC4 JUMPI PUSH1 0x0 DUP1 REVERT JUMPDEST POP DUP1 CALLDATALOAD SWAP1 PUSH1 0x20 ADD CALLDATALOAD PUSH2 0x2591 JUMP JUMPDEST CALLVALUE DUP1 ISZERO PUSH2 0xCDD JUMPI PUSH1 0x0 DUP1 REVERT JUMPDEST POP PUSH2 0x469 PUSH1 0x4 DUP1 CALLDATASIZE SUB PUSH1 0x40 DUP2 LT ISZERO PUSH2 0xCF4 JUMPI PUSH1 0x0 DUP1 REVERT JUMPDEST POP DUP1 CALLDATALOAD SWAP1 PUSH1 0x20 ADD CALLDATALOAD PUSH2 0x267D JUMP JUMPDEST CALLVALUE DUP1 ISZERO PUSH2 0xD0D JUMPI PUSH1 0x0 DUP1 REVERT JUMPDEST POP PUSH2 0x495 PUSH2 0x2769 JUMP JUMPDEST PUSH2 0x469 PUSH2 0x276F JUMP JUMPDEST CALLVALUE DUP1 ISZERO PUSH2 0xD2A JUMPI PUSH1 0x0 DUP1 REVERT JUMPDEST POP PUSH2 0x67B PUSH1 0x4 DUP1 CALLDATASIZE SUB PUSH1 0x40 DUP2 LT ISZERO PUSH2 0xD41 JUMPI PUSH1 0x0 DUP1 REVERT JUMPDEST POP PUSH1 0x1 PUSH1 0x1 PUSH1 0xA0 SHL SUB DUP2 CALLDATALOAD AND SWAP1 PUSH1 0x20 ADD CALLDATALOAD PUSH2 0x27B5 JUMP JUMPDEST CALLVALUE DUP1 ISZERO PUSH2 0xD63 JUMPI PUSH1 0x0 DUP1 REVERT JUMPDEST POP PUSH2 0x593 PUSH1 0x4 DUP1 CALLDATASIZE SUB PUSH1 0x40 DUP2 LT ISZERO PUSH2 0xD7A JUMPI PUSH1 0x0 DUP1 REVERT JUMPDEST POP DUP1 CALLDATALOAD SWAP1 PUSH1 0x20 ADD CALLDATALOAD PUSH2 0x280D JUMP JUMPDEST CALLVALUE DUP1 ISZERO PUSH2 0xD93 JUMPI PUSH1 0x0 DUP1 REVERT JUMPDEST POP PUSH2 0x495 PUSH1 0x4 DUP1 CALLDATASIZE SUB PUSH1 0x40 DUP2 LT ISZERO PUSH2 0xDAA JUMPI PUSH1 0x0 DUP1 REVERT JUMPDEST POP DUP1 CALLDATALOAD SWAP1 PUSH1 0x20 ADD CALLDATALOAD PUSH1 0x1 PUSH1 0x1 PUSH1 0xA0 SHL SUB AND PUSH2 0x2833 JUMP JUMPDEST CALLVALUE DUP1 ISZERO PUSH2 0xDCC JUMPI PUSH1 0x0 DUP1 REVERT JUMPDEST POP PUSH2 0x67B PUSH1 0x4 DUP1 CALLDATASIZE SUB PUSH1 0x40 DUP2 LT ISZERO PUSH2 0xDE3 JUMPI PUSH1 0x0 DUP1 REVERT JUMPDEST POP PUSH1 0x1 PUSH1 0x1 PUSH1 0xA0 SHL SUB DUP2 CALLDATALOAD AND SWAP1 PUSH1 0x20 ADD CALLDATALOAD PUSH2 0x2850 JUMP JUMPDEST CALLVALUE DUP1 ISZERO PUSH2 0xE05 JUMPI PUSH1 0x0 DUP1 REVERT JUMPDEST POP PUSH2 0x593 PUSH2 0x28A9 JUMP JUMPDEST CALLVALUE DUP1 ISZERO PUSH2 0xE1A JUMPI PUSH1 0x0 DUP1 REVERT JUMPDEST POP PUSH2 0x469 PUSH1 0x4 DUP1 CALLDATASIZE SUB PUSH1 0x20 DUP2 LT ISZERO PUSH2 0xE31 JUMPI PUSH1 0x0 DUP1 REVERT JUMPDEST POP CALLDATALOAD PUSH1 0x1 PUSH1 0x1 PUSH1 0xA0 SHL SUB AND PUSH2 0x28B8 JUMP JUMPDEST CALLVALUE DUP1 ISZERO PUSH2 0xE4D JUMPI PUSH1 0x0 DUP1 REVERT JUMPDEST POP PUSH2 0x495 PUSH2 0x29CC JUMP JUMPDEST CALLVALUE DUP1 ISZERO PUSH2 0xE62 JUMPI PUSH1 0x0 DUP1 REVERT JUMPDEST POP PUSH2 0x495 PUSH2 0x29D2 JUMP JUMPDEST CALLVALUE DUP1 ISZERO PUSH2 0xE77 JUMPI PUSH1 0x0 DUP1 REVERT JUMPDEST POP PUSH2 0x469 PUSH1 0x4 DUP1 CALLDATASIZE SUB PUSH1 0x20 DUP2 LT ISZERO PUSH2 0xE8E JUMPI PUSH1 0x0 DUP1 REVERT JUMPDEST POP CALLDATALOAD PUSH2 0x29D8 JUMP JUMPDEST PUSH1 0x0 DUP3 DUP2 MSTORE PUSH1 0x1 PUSH1 0x20 DUP2 SWAP1 MSTORE PUSH1 0x40 SWAP1 SWAP2 KECCAK256 ADD SLOAD DUP3 SWAP1 PUSH1 0x1 PUSH1 0x1 PUSH1 0xA0 SHL SUB AND CALLER EQ PUSH2 0xEF0 JUMPI PUSH1 0x40 MLOAD PUSH3 0x461BCD PUSH1 0xE5 SHL DUP2 MSTORE PUSH1 0x4 ADD DUP1 DUP1 PUSH1 0x20 ADD DUP3 DUP2 SUB DUP3 MSTORE PUSH1 0x36 DUP2 MSTORE PUSH1 0x20 ADD DUP1 PUSH2 0x2CC2 PUSH1 0x36 SWAP2 CODECOPY PUSH1 0x40 ADD SWAP2 POP POP PUSH1 0x40 MLOAD DUP1 SWAP2 SUB SWAP1 REVERT JUMPDEST PUSH1 0x0 DUP4 DUP2 MSTORE PUSH1 0x1 PUSH1 0x20 MSTORE PUSH1 0x40 SWAP1 KECCAK256 PUSH1 0x7 ADD SLOAD TIMESTAMP DUP2 GT PUSH2 0xF40 JUMPI PUSH1 0x40 MLOAD PUSH3 0x461BCD PUSH1 0xE5 SHL DUP2 MSTORE PUSH1 0x4 ADD DUP1 DUP1 PUSH1 0x20 ADD DUP3 DUP2 SUB DUP3 MSTORE PUSH1 0x3A DUP2 MSTORE PUSH1 0x20 ADD DUP1 PUSH2 0x2C88 PUSH1 0x3A SWAP2 CODECOPY PUSH1 0x40 ADD SWAP2 POP POP PUSH1 0x40 MLOAD DUP1 SWAP2 SUB SWAP1 REVERT JUMPDEST PUSH1 0x23 DUP4 SWAP1 SSTORE PUSH1 0x40 DUP1 MLOAD DUP5 DUP2 MSTORE SWAP1 MLOAD DUP6 SWAP2 PUSH32 0xC7F388ABB2270B17EB176E822B294649A0309AC03D013B680C7D4A20C185E67D SWAP2 SWAP1 DUP2 SWAP1 SUB PUSH1 0x20 ADD SWAP1 LOG2 POP POP POP POP JUMP JUMPDEST PUSH1 0xA PUSH1 0x20 MSTORE PUSH1 0x0 SWAP1 DUP2 MSTORE PUSH1 0x40 SWAP1 KECCAK256 SLOAD DUP2 JUMP JUMPDEST PUSH1 0x0 DUP2 DUP2 MSTORE PUSH1 0x1 PUSH1 0x20 MSTORE PUSH1 0x40 SWAP1 KECCAK256 PUSH1 0x7 ADD SLOAD DUP2 SWAP1 TIMESTAMP LT PUSH2 0xFEB JUMPI PUSH1 0x40 DUP1 MLOAD PUSH3 0x461BCD PUSH1 0xE5 SHL DUP2 MSTORE PUSH1 0x20 PUSH1 0x4 DUP3 ADD MSTORE PUSH1 0xE PUSH1 0x24 DUP3 ADD MSTORE PUSH14 0x13DC1D1A5BDB88195E1C1A5C9959 PUSH1 0x92 SHL PUSH1 0x44 DUP3 ADD MSTORE SWAP1 MLOAD SWAP1 DUP2 SWAP1 SUB PUSH1 0x64 ADD SWAP1 REVERT JUMPDEST PUSH1 0x0 PUSH2 0xFF6 DUP4 PUSH2 0x2A62 JUMP JUMPDEST SWAP1 POP PUSH1 0x0 PUSH2 0x1003 DUP5 PUSH2 0x2B04 JUMP JUMPDEST SWAP1 POP PUSH1 0x0 DUP1 DUP4 GT DUP1 PUSH2 0x1015 JUMPI POP PUSH1 0x0 DUP3 GT JUMPDEST SWAP1 POP DUP5 PUSH32 0x96B57FF66BEEAC6E8FD6B33B23F7D11BE509931D1CD059F04036989848C6EFE6 DUP3 PUSH2 0x1045 JUMPI PUSH1 0x0 PUSH2 0x1048 JUMP JUMPDEST PUSH1 0x1 JUMPDEST PUSH1 0x40 DUP1 MLOAD PUSH1 0xFF SWAP1 SWAP3 AND DUP3 MSTORE MLOAD SWAP1 DUP2 SWAP1 SUB PUSH1 0x20 ADD SWAP1 LOG2 POP POP POP POP POP JUMP JUMPDEST PUSH1 0x0 DUP3 DUP2 MSTORE PUSH1 0x1 PUSH1 0x20 DUP2 SWAP1 MSTORE PUSH1 0x40 SWAP1 SWAP2 KECCAK256 ADD SLOAD DUP3 SWAP1 PUSH1 0x1 PUSH1 0x1 PUSH1 0xA0 SHL SUB AND CALLER EQ PUSH2 0x10BF JUMPI PUSH1 0x40 MLOAD PUSH3 0x461BCD PUSH1 0xE5 SHL DUP2 MSTORE PUSH1 0x4 ADD DUP1 DUP1 PUSH1 0x20 ADD DUP3 DUP2 SUB DUP3 MSTORE PUSH1 0x36 DUP2 MSTORE PUSH1 0x20 ADD DUP1 PUSH2 0x2CC2 PUSH1 0x36 SWAP2 CODECOPY PUSH1 0x40 ADD SWAP2 POP POP PUSH1 0x40 MLOAD DUP1 SWAP2 SUB SWAP1 REVERT JUMPDEST PUSH1 0x0 DUP4 DUP2 MSTORE PUSH1 0x1 PUSH1 0x20 MSTORE PUSH1 0x40 SWAP1 KECCAK256 PUSH1 0x7 ADD SLOAD TIMESTAMP DUP2 GT PUSH2 0x110F JUMPI PUSH1 0x40 MLOAD PUSH3 0x461BCD PUSH1 0xE5 SHL DUP2 MSTORE PUSH1 0x4 ADD DUP1 DUP1 PUSH1 0x20 ADD DUP3 DUP2 SUB DUP3 MSTORE PUSH1 0x3A DUP2 MSTORE PUSH1 0x20 ADD DUP1 PUSH2 0x2C88 PUSH1 0x3A SWAP2 CODECOPY PUSH1 0x40 ADD SWAP2 POP POP PUSH1 0x40 MLOAD DUP1 SWAP2 SUB SWAP1 REVERT JUMPDEST PUSH1 0x21 DUP4 SWAP1 SSTORE PUSH1 0x40 DUP1 MLOAD DUP5 DUP2 MSTORE SWAP1 MLOAD DUP6 SWAP2 PUSH32 0xBE95B51FB29523640D8D589C9EBA58D8B9B3100DF6B28CAEB5549273622DBB1F SWAP2 SWAP1 DUP2 SWAP1 SUB PUSH1 0x20 ADD SWAP1 LOG2 POP POP POP POP JUMP JUMPDEST DUP1 PUSH2 0x1192 JUMPI PUSH1 0x40 DUP1 MLOAD PUSH3 0x461BCD PUSH1 0xE5 SHL DUP2 MSTORE PUSH1 0x20 PUSH1 0x4 DUP3 ADD MSTORE PUSH1 0xD PUSH1 0x24 DUP3 ADD MSTORE PUSH13 0x496E76616C6964206172726179 PUSH1 0x98 SHL PUSH1 0x44 DUP3 ADD MSTORE SWAP1 MLOAD SWAP1 DUP2 SWAP1 SUB PUSH1 0x64 ADD SWAP1 REVERT JUMPDEST POP POP JUMP JUMPDEST PUSH1 0xE SLOAD PUSH1 0x1 PUSH1 0x1 PUSH1 0xA0 SHL SUB AND SWAP1 JUMP JUMPDEST PUSH1 0x1C SLOAD PUSH1 0x0 DUP3 DUP2 MSTORE PUSH1 0x1 PUSH1 0x20 MSTORE PUSH1 0x40 SWAP1 KECCAK256 PUSH1 0x7 ADD SLOAD PUSH2 0x11C9 SWAP2 PUSH4 0xFFFFFFFF PUSH2 0x2B9F AND JUMP JUMPDEST TIMESTAMP LT PUSH2 0x120F JUMPI PUSH1 0x40 DUP1 MLOAD PUSH3 0x461BCD PUSH1 0xE5 SHL DUP2 MSTORE PUSH1 0x20 PUSH1 0x4 DUP3 ADD MSTORE PUSH1 0x10 PUSH1 0x24 DUP3 ADD MSTORE PUSH16 0x20B1BA34BB32903134B217B7B33332B9 PUSH1 0x81 SHL PUSH1 0x44 DUP3 ADD MSTORE SWAP1 MLOAD SWAP1 DUP2 SWAP1 SUB PUSH1 0x64 ADD SWAP1 REVERT JUMPDEST POP JUMP JUMPDEST PUSH2 0x121A PUSH2 0x2C00 JUMP JUMPDEST PUSH1 0x1 PUSH1 0x1 PUSH1 0xA0 SHL SUB AND PUSH2 0x122B PUSH2 0x1FC5 JUMP JUMPDEST PUSH1 0x1 PUSH1 0x1 PUSH1 0xA0 SHL SUB AND EQ PUSH2 0x1286 JUMPI PUSH1 0x40 DUP1 MLOAD PUSH3 0x461BCD PUSH1 0xE5 SHL DUP2 MSTORE PUSH1 0x20 PUSH1 0x4 DUP3 ADD DUP2 SWAP1 MSTORE PUSH1 0x24 DUP3 ADD MSTORE PUSH32 0x4F776E61626C653A2063616C6C6572206973206E6F7420746865206F776E6572 PUSH1 0x44 DUP3 ADD MSTORE SWAP1 MLOAD SWAP1 DUP2 SWAP1 SUB PUSH1 0x64 ADD SWAP1 REVERT JUMPDEST PUSH1 0x1 PUSH1 0x1 PUSH1 0xA0 SHL SUB DUP2 AND PUSH2 0x12D9 JUMPI PUSH1 0x40 DUP1 MLOAD PUSH3 0x461BCD PUSH1 0xE5 SHL DUP2 MSTORE PUSH1 0x20 PUSH1 0x4 DUP3 ADD MSTORE PUSH1 0x15 PUSH1 0x24 DUP3 ADD MSTORE PUSH21 0x496E76616C6964206F776E65722061646472657373 PUSH1 0x58 SHL PUSH1 0x44 DUP3 ADD MSTORE SWAP1 MLOAD SWAP1 DUP2 SWAP1 SUB PUSH1 0x64 ADD SWAP1 REVERT JUMPDEST PUSH1 0x11 DUP1 SLOAD PUSH1 0x1 PUSH1 0x1 PUSH1 0xA0 SHL SUB NOT AND PUSH1 0x1 PUSH1 0x1 PUSH1 0xA0 SHL SUB SWAP3 SWAP1 SWAP3 AND SWAP2 SWAP1 SWAP2 OR SWAP1 SSTORE JUMP JUMPDEST PUSH1 0xF SLOAD SWAP1 JUMP JUMPDEST PUSH1 0x0 DUP3 DUP2 MSTORE PUSH1 0x1 PUSH1 0x20 DUP2 SWAP1 MSTORE PUSH1 0x40 SWAP1 SWAP2 KECCAK256 ADD SLOAD DUP3 SWAP1 PUSH1 0x1 PUSH1 0x1 PUSH1 0xA0 SHL SUB AND CALLER EQ PUSH2 0x135C JUMPI PUSH1 0x40 MLOAD PUSH3 0x461BCD PUSH1 0xE5 SHL DUP2 MSTORE PUSH1 0x4 ADD DUP1 DUP1 PUSH1 0x20 ADD DUP3 DUP2 SUB DUP3 MSTORE PUSH1 0x36 DUP2 MSTORE PUSH1 0x20 ADD DUP1 PUSH2 0x2CC2 PUSH1 0x36 SWAP2 CODECOPY PUSH1 0x40 ADD SWAP2 POP POP PUSH1 0x40 MLOAD DUP1 SWAP2 SUB SWAP1 REVERT JUMPDEST PUSH1 0x0 DUP4 DUP2 MSTORE PUSH1 0x1 PUSH1 0x20 MSTORE PUSH1 0x40 SWAP1 KECCAK256 PUSH1 0x7 ADD SLOAD TIMESTAMP DUP2 GT PUSH2 0x13AC JUMPI PUSH1 0x40 MLOAD PUSH3 0x461BCD PUSH1 0xE5 SHL DUP2 MSTORE PUSH1 0x4 ADD DUP1 DUP1 PUSH1 0x20 ADD DUP3 DUP2 SUB DUP3 MSTORE PUSH1 0x3A DUP2 MSTORE PUSH1 0x20 ADD DUP1 PUSH2 0x2C88 PUSH1 0x3A SWAP2 CODECOPY PUSH1 0x40 ADD SWAP2 POP POP PUSH1 0x40 MLOAD DUP1 SWAP2 SUB SWAP1 REVERT JUMPDEST PUSH1 0x20 DUP4 DUP2 SSTORE PUSH1 0x40 DUP1 MLOAD DUP6 DUP2 MSTORE SWAP1 MLOAD DUP7 SWAP3 PUSH32 0xD426195495073EC4A9D9805A3FA80F425C189F701DE7C9426266B8C965ACCE31 SWAP3 DUP3 SWAP1 SUB ADD SWAP1 LOG2 POP POP POP POP JUMP JUMPDEST PUSH1 0x4 PUSH1 0x20 MSTORE PUSH1 0x0 SWAP1 DUP2 MSTORE PUSH1 0x40 SWAP1 KECCAK256 DUP1 SLOAD PUSH1 0x1 DUP3 ADD SLOAD PUSH1 0x2 DUP4 ADD SLOAD PUSH1 0x3 DUP5 ADD SLOAD PUSH1 0x5 DUP6 ADD SLOAD PUSH1 0x7 DUP7 ADD SLOAD PUSH1 0x8 SWAP1 SWAP7 ADD SLOAD PUSH1 0x1 PUSH1 0x1 PUSH1 0xA0 SHL SUB SWAP6 DUP7 AND SWAP7 SWAP5 DUP7 AND SWAP6 SWAP1 SWAP4 AND SWAP4 SWAP2 SWAP3 PUSH1 0xFF SWAP1 SWAP2 AND SWAP2 SWAP1 DUP8 JUMP JUMPDEST PUSH1 0x0 DUP3 DUP2 MSTORE PUSH1 0x1 PUSH1 0x20 DUP2 SWAP1 MSTORE PUSH1 0x40 SWAP1 SWAP2 KECCAK256 ADD SLOAD DUP3 SWAP1 PUSH1 0x1 PUSH1 0x1 PUSH1 0xA0 SHL SUB AND CALLER EQ PUSH2 0x1494 JUMPI PUSH1 0x40 MLOAD PUSH3 0x461BCD PUSH1 0xE5 SHL DUP2 MSTORE PUSH1 0x4 ADD DUP1 DUP1 PUSH1 0x20 ADD DUP3 DUP2 SUB DUP3 MSTORE PUSH1 0x36 DUP2 MSTORE PUSH1 0x20 ADD DUP1 PUSH2 0x2CC2 PUSH1 0x36 SWAP2 CODECOPY PUSH1 0x40 ADD SWAP2 POP POP PUSH1 0x40 MLOAD DUP1 SWAP2 SUB SWAP1 REVERT JUMPDEST POP PUSH1 0x1E SSTORE POP JUMP JUMPDEST PUSH1 0x22 SLOAD DUP2 JUMP JUMPDEST PUSH1 0x5 PUSH1 0x20 MSTORE PUSH1 0x0 SWAP1 DUP2 MSTORE PUSH1 0x40 SWAP1 KECCAK256 DUP1 SLOAD PUSH1 0x1 DUP3 ADD SLOAD PUSH1 0x2 SWAP1 SWAP3 ADD SLOAD SWAP1 SWAP2 SWAP1 DUP4 JUMP JUMPDEST PUSH1 0x1 DUP1 JUMPDEST PUSH3 0x186A0 DUP2 GT PUSH2 0x14DC JUMPI SWAP1 DUP2 MUL SWAP1 PUSH1 0x1 ADD PUSH2 0x14C6 JUMP JUMPDEST POP PUSH3 0x186A0 GAS GT PUSH2 0x120F JUMPI PUSH1 0x40 DUP1 MLOAD PUSH3 0x461BCD PUSH1 0xE5 SHL DUP2 MSTORE PUSH1 0x20 PUSH1 0x4 DUP3 ADD MSTORE PUSH1 0x12 PUSH1 0x24 DUP3 ADD MSTORE PUSH18 0x11D85CC81B1A5B5A5D08195E18D959591959 PUSH1 0x72 SHL PUSH1 0x44 DUP3 ADD MSTORE SWAP1 MLOAD SWAP1 DUP2 SWAP1 SUB PUSH1 0x64 ADD SWAP1 REVERT JUMPDEST PUSH1 0x0 DUP3 DUP2 MSTORE PUSH1 0x1 PUSH1 0x20 DUP2 SWAP1 MSTORE PUSH1 0x40 SWAP1 SWAP2 KECCAK256 ADD SLOAD DUP3 SWAP1 PUSH1 0x1 PUSH1 0x1 PUSH1 0xA0 SHL SUB AND CALLER EQ PUSH2 0x1584 JUMPI PUSH1 0x40 MLOAD PUSH3 0x461BCD PUSH1 0xE5 SHL DUP2 MSTORE PUSH1 0x4 ADD DUP1 DUP1 PUSH1 0x20 ADD DUP3 DUP2 SUB DUP3 MSTORE PUSH1 0x36 DUP2 MSTORE PUSH1 0x20 ADD DUP1 PUSH2 0x2CC2 PUSH1 0x36 SWAP2 CODECOPY PUSH1 0x40 ADD SWAP2 POP POP PUSH1 0x40 MLOAD DUP1 SWAP2 SUB SWAP1 REVERT JUMPDEST PUSH1 0x0 DUP4 DUP2 MSTORE PUSH1 0x1 PUSH1 0x20 MSTORE PUSH1 0x40 SWAP1 KECCAK256 PUSH1 0x7 ADD SLOAD TIMESTAMP DUP2 GT PUSH2 0x15D4 JUMPI PUSH1 0x40 MLOAD PUSH3 0x461BCD PUSH1 0xE5 SHL DUP2 MSTORE PUSH1 0x4 ADD DUP1 DUP1 PUSH1 0x20 ADD DUP3 DUP2 SUB DUP3 MSTORE PUSH1 0x3A DUP2 MSTORE PUSH1 0x20 ADD DUP1 PUSH2 0x2C88 PUSH1 0x3A SWAP2 CODECOPY PUSH1 0x40 ADD SWAP2 POP POP PUSH1 0x40 MLOAD DUP1 SWAP2 SUB SWAP1 REVERT JUMPDEST PUSH1 0x1D DUP4 SWAP1 SSTORE PUSH1 0x40 DUP1 MLOAD DUP5 DUP2 MSTORE SWAP1 MLOAD DUP6 SWAP2 PUSH32 0xE16A6DD3C7A1A4A15A5D0E545E58617EC3B966456C5B63C9B2615CD01D677438 SWAP2 SWAP1 DUP2 SWAP1 SUB PUSH1 0x20 ADD SWAP1 LOG2 POP POP POP POP JUMP JUMPDEST PUSH1 0x0 DUP3 DUP2 MSTORE PUSH1 0x1 PUSH1 0x20 DUP2 SWAP1 MSTORE PUSH1 0x40 SWAP1 SWAP2 KECCAK256 ADD SLOAD DUP3 SWAP1 PUSH1 0x1 PUSH1 0x1 PUSH1 0xA0 SHL SUB AND CALLER EQ PUSH2 0x1670 JUMPI PUSH1 0x40 MLOAD PUSH3 0x461BCD PUSH1 0xE5 SHL DUP2 MSTORE PUSH1 0x4 ADD DUP1 DUP1 PUSH1 0x20 ADD DUP3 DUP2 SUB DUP3 MSTORE PUSH1 0x36 DUP2 MSTORE PUSH1 0x20 ADD DUP1 PUSH2 0x2CC2 PUSH1 0x36 SWAP2 CODECOPY PUSH1 0x40 ADD SWAP2 POP POP PUSH1 0x40 MLOAD DUP1 SWAP2 SUB SWAP1 REVERT JUMPDEST PUSH1 0x0 DUP4 DUP2 MSTORE PUSH1 0x1 PUSH1 0x20 MSTORE PUSH1 0x40 SWAP1 KECCAK256 PUSH1 0x7 ADD SLOAD TIMESTAMP DUP2 GT PUSH2 0x16C0 JUMPI PUSH1 0x40 MLOAD PUSH3 0x461BCD PUSH1 0xE5 SHL DUP2 MSTORE PUSH1 0x4 ADD DUP1 DUP1 PUSH1 0x20 ADD DUP3 DUP2 SUB DUP3 MSTORE PUSH1 0x3A DUP2 MSTORE PUSH1 0x20 ADD DUP1 PUSH2 0x2C88 PUSH1 0x3A SWAP2 CODECOPY PUSH1 0x40 ADD SWAP2 POP POP PUSH1 0x40 MLOAD DUP1 SWAP2 SUB SWAP1 REVERT JUMPDEST PUSH1 0x0 DUP5 DUP2 MSTORE PUSH1 0x1 PUSH1 0x20 MSTORE PUSH1 0x40 SWAP1 KECCAK256 PUSH1 0x7 ADD SLOAD PUSH2 0x16E2 SWAP1 DUP5 PUSH4 0xFFFFFFFF PUSH2 0x2B9F AND JUMP JUMPDEST PUSH1 0x0 DUP6 DUP2 MSTORE PUSH1 0x1 PUSH1 0x20 SWAP1 DUP2 MSTORE PUSH1 0x40 SWAP2 DUP3 SWAP1 KECCAK256 PUSH1 0x7 ADD SWAP3 SWAP1 SWAP3 SSTORE DUP1 MLOAD DUP6 DUP2 MSTORE SWAP1 MLOAD DUP7 SWAP3 PUSH32 0x73693F148AFC35383D1BC2D56EF315DFC19A9B9643AA2F3C1B5924CBAB1AD08E SWAP3 DUP3 SWAP1 SUB ADD SWAP1 LOG2 POP POP POP POP JUMP JUMPDEST PUSH1 0x6 PUSH1 0x20 SWAP1 DUP2 MSTORE PUSH1 0x0 SWAP3 DUP4 MSTORE PUSH1 0x40 DUP1 DUP5 KECCAK256 SWAP1 SWAP2 MSTORE SWAP1 DUP3 MSTORE SWAP1 KECCAK256 SLOAD DUP2 JUMP JUMPDEST PUSH1 0xE SLOAD PUSH1 0x1 PUSH1 0x1 PUSH1 0xA0 SHL SUB AND CALLER EQ PUSH2 0x1798 JUMPI PUSH1 0x40 MLOAD PUSH3 0x461BCD PUSH1 0xE5 SHL DUP2 MSTORE PUSH1 0x4 ADD DUP1 DUP1 PUSH1 0x20 ADD DUP3 DUP2 SUB DUP3 MSTORE PUSH1 0x31 DUP2 MSTORE PUSH1 0x20 ADD DUP1 PUSH2 0x2CF8 PUSH1 0x31 SWAP2 CODECOPY PUSH1 0x40 ADD SWAP2 POP POP PUSH1 0x40 MLOAD DUP1 SWAP2 SUB SWAP1 REVERT JUMPDEST PUSH1 0x29 SLOAD PUSH1 0xFF AND PUSH2 0x17E8 JUMPI PUSH1 0x40 DUP1 MLOAD PUSH3 0x461BCD PUSH1 0xE5 SHL DUP2 MSTORE PUSH1 0x20 PUSH1 0x4 DUP3 ADD MSTORE PUSH1 0x16 PUSH1 0x24 DUP3 ADD MSTORE PUSH22 0x10DBDB9D1C9858DD081A5CC81B9BDD081C185D5CD959 PUSH1 0x52 SHL PUSH1 0x44 DUP3 ADD MSTORE SWAP1 MLOAD SWAP1 DUP2 SWAP1 SUB PUSH1 0x64 ADD SWAP1 REVERT JUMPDEST PUSH1 0x29 DUP1 SLOAD PUSH1 0xFF NOT AND SWAP1 SSTORE JUMP JUMPDEST PUSH1 0xE SLOAD PUSH1 0x1 PUSH1 0x1 PUSH1 0xA0 SHL SUB AND CALLER EQ PUSH2 0x183D JUMPI PUSH1 0x40 MLOAD PUSH3 0x461BCD PUSH1 0xE5 SHL DUP2 MSTORE PUSH1 0x4 ADD DUP1 DUP1 PUSH1 0x20 ADD DUP3 DUP2 SUB DUP3 MSTORE PUSH1 0x31 DUP2 MSTORE PUSH1 0x20 ADD DUP1 PUSH2 0x2CF8 PUSH1 0x31 SWAP2 CODECOPY PUSH1 0x40 ADD SWAP2 POP POP PUSH1 0x40 MLOAD DUP1 SWAP2 SUB SWAP1 REVERT JUMPDEST PUSH1 0x1 PUSH1 0x1 PUSH1 0xA0 SHL SUB DUP2 AND PUSH2 0x1898 JUMPI PUSH1 0x40 DUP1 MLOAD PUSH3 0x461BCD PUSH1 0xE5 SHL DUP2 MSTORE PUSH1 0x20 PUSH1 0x4 DUP3 ADD MSTORE PUSH1 0x17 PUSH1 0x24 DUP3 ADD MSTORE PUSH32 0x496E76616C69642063726561746F722061646472657373000000000000000000 PUSH1 0x44 DUP3 ADD MSTORE SWAP1 MLOAD SWAP1 DUP2 SWAP1 SUB PUSH1 0x64 ADD SWAP1 REVERT JUMPDEST PUSH1 0x10 DUP1 SLOAD PUSH1 0x1 PUSH1 0x1 PUSH1 0xA0 SHL SUB NOT AND PUSH1 0x1 PUSH1 0x1 PUSH1 0xA0 SHL SUB SWAP3 SWAP1 SWAP3 AND SWAP2 SWAP1 SWAP2 OR SWAP1 SSTORE JUMP JUMPDEST CALLER PUSH2 0x18FE JUMPI PUSH1 0x40 DUP1 MLOAD PUSH3 0x461BCD PUSH1 0xE5 SHL DUP2 MSTORE PUSH1 0x20 PUSH1 0x4 DUP3 ADD MSTORE PUSH1 0xF PUSH1 0x24 DUP3 ADD MSTORE PUSH15 0x496E76616C69642061646472657373 PUSH1 0x88 SHL PUSH1 0x44 DUP3 ADD MSTORE SWAP1 MLOAD SWAP1 DUP2 SWAP1 SUB PUSH1 0x64 ADD SWAP1 REVERT JUMPDEST JUMP JUMPDEST PUSH1 0x0 NOT PUSH2 0x120F JUMP JUMPDEST PUSH1 0xE SLOAD PUSH1 0x1 PUSH1 0x1 PUSH1 0xA0 SHL SUB AND CALLER EQ PUSH2 0x18FE JUMPI PUSH1 0x40 MLOAD PUSH3 0x461BCD PUSH1 0xE5 SHL DUP2 MSTORE PUSH1 0x4 ADD DUP1 DUP1 PUSH1 0x20 ADD DUP3 DUP2 SUB DUP3 MSTORE PUSH1 0x31 DUP2 MSTORE PUSH1 0x20 ADD DUP1 PUSH2 0x2CF8 PUSH1 0x31 SWAP2 CODECOPY PUSH1 0x40 ADD SWAP2 POP POP PUSH1 0x40 MLOAD DUP1 SWAP2 SUB SWAP1 REVERT JUMPDEST PUSH1 0x0 DUP3 DUP2 MSTORE PUSH1 0x1 PUSH1 0x20 DUP2 SWAP1 MSTORE PUSH1 0x40 SWAP1 SWAP2 KECCAK256 ADD SLOAD DUP3 SWAP1 PUSH1 0x1 PUSH1 0x1 PUSH1 0xA0 SHL SUB AND CALLER EQ PUSH2 0x19AC JUMPI PUSH1 0x40 MLOAD PUSH3 0x461BCD PUSH1 0xE5 SHL DUP2 MSTORE PUSH1 0x4 ADD DUP1 DUP1 PUSH1 0x20 ADD DUP3 DUP2 SUB DUP3 MSTORE PUSH1 0x36 DUP2 MSTORE PUSH1 0x20 ADD DUP1 PUSH2 0x2CC2 PUSH1 0x36 SWAP2 CODECOPY PUSH1 0x40 ADD SWAP2 POP POP PUSH1 0x40 MLOAD DUP1 SWAP2 SUB SWAP1 REVERT JUMPDEST PUSH1 0x0 DUP4 DUP2 MSTORE PUSH1 0x1 PUSH1 0x20 MSTORE PUSH1 0x40 SWAP1 KECCAK256 PUSH1 0x7 ADD SLOAD TIMESTAMP DUP2 GT PUSH2 0x19FC JUMPI PUSH1 0x40 MLOAD PUSH3 0x461BCD PUSH1 0xE5 SHL DUP2 MSTORE PUSH1 0x4 ADD DUP1 DUP1 PUSH1 0x20 ADD DUP3 DUP2 SUB DUP3 MSTORE PUSH1 0x3A DUP2 MSTORE PUSH1 0x20 ADD DUP1 PUSH2 0x2C88 PUSH1 0x3A SWAP2 CODECOPY PUSH1 0x40 ADD SWAP2 POP POP PUSH1 0x40 MLOAD DUP1 SWAP2 SUB SWAP1 REVERT JUMPDEST PUSH1 0x25 DUP4 SWAP1 SSTORE PUSH1 0x40 DUP1 MLOAD DUP5 DUP2 MSTORE SWAP1 MLOAD DUP6 SWAP2 PUSH32 0x739C545831EE1C004C8DC63DD2A25D90C684B3AD9B4E2B2A913D086CD8F95DDE SWAP2 SWAP1 DUP2 SWAP1 SUB PUSH1 0x20 ADD SWAP1 LOG2 POP POP POP POP JUMP JUMPDEST PUSH1 0x1E SLOAD DUP2 JUMP JUMPDEST PUSH1 0xB PUSH1 0x20 MSTORE PUSH1 0x0 SWAP1 DUP2 MSTORE PUSH1 0x40 SWAP1 KECCAK256 SLOAD DUP2 JUMP JUMPDEST PUSH1 0x1 PUSH1 0x20 DUP2 SWAP1 MSTORE PUSH1 0x0 SWAP2 DUP3 MSTORE PUSH1 0x40 SWAP1 SWAP2 KECCAK256 DUP1 SLOAD SWAP2 DUP2 ADD SLOAD PUSH1 0x2 DUP3 ADD SLOAD PUSH1 0x3 DUP4 ADD SLOAD PUSH1 0x5 DUP5 ADD SLOAD PUSH1 0x7 DUP6 ADD SLOAD PUSH1 0x8 SWAP1 SWAP6 ADD SLOAD PUSH1 0x1 PUSH1 0x1 PUSH1 0xA0 SHL SUB SWAP7 DUP8 AND SWAP7 SWAP5 DUP6 AND SWAP6 SWAP4 SWAP1 SWAP5 AND SWAP4 SWAP2 SWAP3 PUSH1 0xFF SWAP1 SWAP2 AND SWAP2 DUP8 JUMP JUMPDEST PUSH1 0x29 SLOAD PUSH1 0xFF AND DUP2 JUMP JUMPDEST PUSH1 0xE SLOAD PUSH1 0x1 PUSH1 0x1 PUSH1 0xA0 SHL SUB AND CALLER EQ PUSH2 0x1AF8 JUMPI PUSH1 0x40 MLOAD PUSH3 0x461BCD PUSH1 0xE5 SHL DUP2 MSTORE PUSH1 0x4 ADD DUP1 DUP1 PUSH1 0x20 ADD DUP3 DUP2 SUB DUP3 MSTORE PUSH1 0x31 DUP2 MSTORE PUSH1 0x20 ADD DUP1 PUSH2 0x2CF8 PUSH1 0x31 SWAP2 CODECOPY PUSH1 0x40 ADD SWAP2 POP POP PUSH1 0x40 MLOAD DUP1 SWAP2 SUB SWAP1 REVERT JUMPDEST PUSH1 0x40 MLOAD CALLER SWAP1 PUSH32 0xE8BCF92C09A57AFFA54E786FAB1F1D18BA61DB48E96235E198B92080B7998F63 SWAP1 PUSH1 0x0 SWAP1 LOG2 JUMP JUMPDEST PUSH1 0x0 DUP2 DUP2 MSTORE PUSH1 0x1 PUSH1 0x20 DUP2 SWAP1 MSTORE PUSH1 0x40 SWAP1 SWAP2 KECCAK256 ADD SLOAD DUP2 SWAP1 PUSH1 0x1 PUSH1 0x1 PUSH1 0xA0 SHL SUB AND CALLER EQ PUSH2 0x1B80 JUMPI PUSH1 0x40 MLOAD PUSH3 0x461BCD PUSH1 0xE5 SHL DUP2 MSTORE PUSH1 0x4 ADD DUP1 DUP1 PUSH1 0x20 ADD DUP3 DUP2 SUB DUP3 MSTORE PUSH1 0x36 DUP2 MSTORE PUSH1 0x20 ADD DUP1 PUSH2 0x2CC2 PUSH1 0x36 SWAP2 CODECOPY PUSH1 0x40 ADD SWAP2 POP POP PUSH1 0x40 MLOAD DUP1 SWAP2 SUB SWAP1 REVERT JUMPDEST PUSH1 0x0 DUP3 DUP2 MSTORE PUSH1 0x1 PUSH1 0x20 MSTORE PUSH1 0x40 SWAP1 KECCAK256 PUSH1 0x7 ADD SLOAD DUP3 SWAP1 TIMESTAMP LT PUSH2 0x1BD8 JUMPI PUSH1 0x40 DUP1 MLOAD PUSH3 0x461BCD PUSH1 0xE5 SHL DUP2 MSTORE PUSH1 0x20 PUSH1 0x4 DUP3 ADD MSTORE PUSH1 0xE PUSH1 0x24 DUP3 ADD MSTORE PUSH14 0x13DC1D1A5BDB88195E1C1A5C9959 PUSH1 0x92 SHL PUSH1 0x44 DUP3 ADD MSTORE SWAP1 MLOAD SWAP1 DUP2 SWAP1 SUB PUSH1 0x64 ADD SWAP1 REVERT JUMPDEST PUSH1 0x1F SLOAD PUSH1 0x0 DUP5 DUP2 MSTORE PUSH1 0x1 PUSH1 0x20 MSTORE PUSH1 0x40 SWAP1 KECCAK256 PUSH1 0x7 ADD SLOAD PUSH2 0x1BFC SWAP2 PUSH4 0xFFFFFFFF PUSH2 0x2B9F AND JUMP JUMPDEST TIMESTAMP GT PUSH2 0x1C4F JUMPI PUSH1 0x40 DUP1 MLOAD PUSH3 0x461BCD PUSH1 0xE5 SHL DUP2 MSTORE PUSH1 0x20 PUSH1 0x4 DUP3 ADD MSTORE PUSH1 0x1A PUSH1 0x24 DUP3 ADD MSTORE PUSH32 0x4F66666572206475726174696F6E206E6F742065787069726564000000000000 PUSH1 0x44 DUP3 ADD MSTORE SWAP1 MLOAD SWAP1 DUP2 SWAP1 SUB PUSH1 0x64 ADD SWAP1 REVERT JUMPDEST PUSH1 0x0 JUMPDEST PUSH1 0x0 DUP5 DUP2 MSTORE PUSH1 0x1 PUSH1 0x20 MSTORE PUSH1 0x40 SWAP1 KECCAK256 PUSH1 0x6 ADD SLOAD DUP2 LT ISZERO PUSH2 0x1CDA JUMPI PUSH1 0x0 DUP5 DUP2 MSTORE PUSH1 0xD PUSH1 0x20 SWAP1 DUP2 MSTORE PUSH1 0x40 DUP1 DUP4 KECCAK256 PUSH1 0x1 SWAP1 SWAP3 MSTORE DUP3 KECCAK256 PUSH1 0x6 ADD DUP1 SLOAD DUP4 SWAP2 SWAP1 DUP6 SWAP1 DUP2 LT PUSH2 0x1C95 JUMPI INVALID JUMPDEST PUSH1 0x0 SWAP2 DUP3 MSTORE PUSH1 0x20 DUP1 DUP4 KECCAK256 SWAP1 SWAP2 ADD SLOAD DUP4 MSTORE DUP3 DUP2 ADD SWAP4 SWAP1 SWAP4 MSTORE PUSH1 0x40 SWAP2 DUP3 ADD DUP2 KECCAK256 SLOAD DUP9 DUP3 MSTORE PUSH1 0x7 DUP5 MSTORE DUP3 DUP3 KECCAK256 PUSH1 0x1 PUSH1 0x1 PUSH1 0xA0 SHL SUB SWAP1 SWAP2 AND DUP3 MSTORE SWAP1 SWAP3 MSTORE DUP2 KECCAK256 SSTORE POP PUSH1 0x1 ADD PUSH2 0x1C52 JUMP JUMPDEST POP PUSH1 0x40 MLOAD DUP4 SWAP1 PUSH32 0x568AEDA352153539D9813524DC5D57D37F459A2966A4092D7C00B12E8F23420D SWAP1 PUSH1 0x0 SWAP1 LOG2 POP POP POP JUMP JUMPDEST PUSH2 0x1D13 PUSH2 0x2C00 JUMP JUMPDEST PUSH1 0x1 PUSH1 0x1 PUSH1 0xA0 SHL SUB AND PUSH2 0x1D24 PUSH2 0x1FC5 JUMP JUMPDEST PUSH1 0x1 PUSH1 0x1 PUSH1 0xA0 SHL SUB AND EQ PUSH2 0x1D7F JUMPI PUSH1 0x40 DUP1 MLOAD PUSH3 0x461BCD PUSH1 0xE5 SHL DUP2 MSTORE PUSH1 0x20 PUSH1 0x4 DUP3 ADD DUP2 SWAP1 MSTORE PUSH1 0x24 DUP3 ADD MSTORE PUSH32 0x4F776E61626C653A2063616C6C6572206973206E6F7420746865206F776E6572 PUSH1 0x44 DUP3 ADD MSTORE SWAP1 MLOAD SWAP1 DUP2 SWAP1 SUB PUSH1 0x64 ADD SWAP1 REVERT JUMPDEST PUSH1 0x0 DUP1 SLOAD PUSH1 0x40 MLOAD PUSH1 0x1 PUSH1 0x1 PUSH1 0xA0 SHL SUB SWAP1 SWAP2 AND SWAP1 PUSH32 0x8BE0079C531659141344CD1FD0A4F28419497F9722A3DAAFE3B4186F6B6457E0 SWAP1 DUP4 SWAP1 LOG3 PUSH1 0x0 DUP1 SLOAD PUSH1 0x1 PUSH1 0x1 PUSH1 0xA0 SHL SUB NOT AND SWAP1 SSTORE JUMP JUMPDEST PUSH1 0x10 SLOAD PUSH1 0x11 SLOAD PUSH1 0x12 SLOAD PUSH1 0x13 SLOAD PUSH1 0x15 SLOAD PUSH1 0x17 SLOAD PUSH1 0x18 SLOAD PUSH1 0x1 PUSH1 0x1 PUSH1 0xA0 SHL SUB SWAP7 DUP8 AND SWAP7 SWAP6 DUP7 AND SWAP6 SWAP1 SWAP5 AND SWAP4 PUSH1 0xFF SWAP1 SWAP3 AND SWAP2 DUP8 JUMP JUMPDEST PUSH1 0x0 DUP3 DUP2 MSTORE PUSH1 0x1 PUSH1 0x20 DUP2 SWAP1 MSTORE PUSH1 0x40 SWAP1 SWAP2 KECCAK256 ADD SLOAD DUP3 SWAP1 PUSH1 0x1 PUSH1 0x1 PUSH1 0xA0 SHL SUB AND CALLER EQ PUSH2 0x1E56 JUMPI PUSH1 0x40 MLOAD PUSH3 0x461BCD PUSH1 0xE5 SHL DUP2 MSTORE PUSH1 0x4 ADD DUP1 DUP1 PUSH1 0x20 ADD DUP3 DUP2 SUB DUP3 MSTORE PUSH1 0x36 DUP2 MSTORE PUSH1 0x20 ADD DUP1 PUSH2 0x2CC2 PUSH1 0x36 SWAP2 CODECOPY PUSH1 0x40 ADD SWAP2 POP POP PUSH1 0x40 MLOAD DUP1 SWAP2 SUB SWAP1 REVERT JUMPDEST PUSH1 0x0 DUP4 DUP2 MSTORE PUSH1 0x1 PUSH1 0x20 MSTORE PUSH1 0x40 SWAP1 KECCAK256 PUSH1 0x7 ADD SLOAD TIMESTAMP DUP2 GT PUSH2 0x1EA6 JUMPI PUSH1 0x40 MLOAD PUSH3 0x461BCD PUSH1 0xE5 SHL DUP2 MSTORE PUSH1 0x4 ADD DUP1 DUP1 PUSH1 0x20 ADD DUP3 DUP2 SUB DUP3 MSTORE PUSH1 0x3A DUP2 MSTORE PUSH1 0x20 ADD DUP1 PUSH2 0x2C88 PUSH1 0x3A SWAP2 CODECOPY PUSH1 0x40 ADD SWAP2 POP POP PUSH1 0x40 MLOAD DUP1 SWAP2 SUB SWAP1 REVERT JUMPDEST PUSH1 0x24 DUP4 SWAP1 SSTORE PUSH1 0x40 DUP1 MLOAD DUP5 DUP2 MSTORE SWAP1 MLOAD DUP6 SWAP2 PUSH32 0x7BFAC94B8F45C93697445D23EAC75F25203C65FE9D9455B378EC00A954678459 SWAP2 SWAP1 DUP2 SWAP1 SUB PUSH1 0x20 ADD SWAP1 LOG2 POP POP POP POP JUMP JUMPDEST PUSH1 0xE SLOAD PUSH1 0xF SLOAD PUSH1 0x1 PUSH1 0x1 PUSH1 0xA0 SHL SUB SWAP1 SWAP2 AND SWAP1 DUP3 JUMP JUMPDEST PUSH1 0x24 SLOAD DUP2 JUMP JUMPDEST PUSH1 0x25 SLOAD DUP2 JUMP JUMPDEST PUSH1 0xE SLOAD PUSH1 0x1 PUSH1 0x1 PUSH1 0xA0 SHL SUB AND CALLER EQ PUSH2 0x1F51 JUMPI PUSH1 0x40 MLOAD PUSH3 0x461BCD PUSH1 0xE5 SHL DUP2 MSTORE PUSH1 0x4 ADD DUP1 DUP1 PUSH1 0x20 ADD DUP3 DUP2 SUB DUP3 MSTORE PUSH1 0x31 DUP2 MSTORE PUSH1 0x20 ADD DUP1 PUSH2 0x2CF8 PUSH1 0x31 SWAP2 CODECOPY PUSH1 0x40 ADD SWAP2 POP POP PUSH1 0x40 MLOAD DUP1 SWAP2 SUB SWAP1 REVERT JUMPDEST PUSH1 0x29 SLOAD PUSH1 0xFF AND ISZERO PUSH2 0x1F9E JUMPI PUSH1 0x40 DUP1 MLOAD PUSH3 0x461BCD PUSH1 0xE5 SHL DUP2 MSTORE PUSH1 0x20 PUSH1 0x4 DUP3 ADD MSTORE PUSH1 0x12 PUSH1 0x24 DUP3 ADD MSTORE PUSH18 0x10DBDB9D1C9858DD081A5CC81C185D5CD959 PUSH1 0x72 SHL PUSH1 0x44 DUP3 ADD MSTORE SWAP1 MLOAD SWAP1 DUP2 SWAP1 SUB PUSH1 0x64 ADD SWAP1 REVERT JUMPDEST PUSH1 0x29 DUP1 SLOAD PUSH1 0xFF NOT AND PUSH1 0x1 OR SWAP1 SSTORE JUMP JUMPDEST PUSH1 0x9 PUSH1 0x20 MSTORE PUSH1 0x0 SWAP1 DUP2 MSTORE PUSH1 0x40 SWAP1 KECCAK256 SLOAD DUP2 JUMP JUMPDEST PUSH1 0x1D SLOAD DUP2 JUMP JUMPDEST PUSH1 0x0 SLOAD PUSH1 0x1 PUSH1 0x1 PUSH1 0xA0 SHL SUB AND SWAP1 JUMP JUMPDEST PUSH1 0x20 SLOAD DUP2 JUMP JUMPDEST PUSH1 0x0 DUP3 DUP2 MSTORE PUSH1 0x1 PUSH1 0x20 DUP2 SWAP1 MSTORE PUSH1 0x40 SWAP1 SWAP2 KECCAK256 ADD SLOAD DUP3 SWAP1 PUSH1 0x1 PUSH1 0x1 PUSH1 0xA0 SHL SUB AND CALLER EQ PUSH2 0x2035 JUMPI PUSH1 0x40 MLOAD PUSH3 0x461BCD PUSH1 0xE5 SHL DUP2 MSTORE PUSH1 0x4 ADD DUP1 DUP1 PUSH1 0x20 ADD DUP3 DUP2 SUB DUP3 MSTORE PUSH1 0x36 DUP2 MSTORE PUSH1 0x20 ADD DUP1 PUSH2 0x2CC2 PUSH1 0x36 SWAP2 CODECOPY PUSH1 0x40 ADD SWAP2 POP POP PUSH1 0x40 MLOAD DUP1 SWAP2 SUB SWAP1 REVERT JUMPDEST PUSH1 0x0 DUP4 DUP2 MSTORE PUSH1 0x1 PUSH1 0x20 MSTORE PUSH1 0x40 SWAP1 KECCAK256 PUSH1 0x7 ADD SLOAD TIMESTAMP DUP2 GT PUSH2 0x2085 JUMPI PUSH1 0x40 MLOAD PUSH3 0x461BCD PUSH1 0xE5 SHL DUP2 MSTORE PUSH1 0x4 ADD DUP1 DUP1 PUSH1 0x20 ADD DUP3 DUP2 SUB DUP3 MSTORE PUSH1 0x3A DUP2 MSTORE PUSH1 0x20 ADD DUP1 PUSH2 0x2C88 PUSH1 0x3A SWAP2 CODECOPY PUSH1 0x40 ADD SWAP2 POP POP PUSH1 0x40 MLOAD DUP1 SWAP2 SUB SWAP1 REVERT JUMPDEST PUSH1 0x1F DUP4 SWAP1 SSTORE PUSH1 0x40 DUP1 MLOAD DUP5 DUP2 MSTORE SWAP1 MLOAD DUP6 SWAP2 PUSH32 0xF5B670DFC12583E5B0164FCA9FBBD0E6997013CA4B1A92457F1D3AEAD8DFD435 SWAP2 SWAP1 DUP2 SWAP1 SUB PUSH1 0x20 ADD SWAP1 LOG2 POP POP POP POP JUMP JUMPDEST PUSH1 0x1C SLOAD DUP2 JUMP JUMPDEST PUSH1 0x21 SLOAD DUP2 JUMP JUMPDEST PUSH1 0x26 SLOAD DUP2 JUMP JUMPDEST PUSH1 0x0 PUSH1 0x29 PUSH1 0x1 SWAP1 SLOAD SWAP1 PUSH2 0x100 EXP SWAP1 DIV PUSH1 0x1 PUSH1 0x1 PUSH1 0xA0 SHL SUB AND PUSH1 0x1 PUSH1 0x1 PUSH1 0xA0 SHL SUB AND PUSH4 0x16FE73EC PUSH1 0x40 MLOAD DUP2 PUSH4 0xFFFFFFFF AND PUSH1 0xE0 SHL DUP2 MSTORE PUSH1 0x4 ADD PUSH1 0x20 PUSH1 0x40 MLOAD DUP1 DUP4 SUB DUP2 DUP7 DUP1 EXTCODESIZE ISZERO DUP1 ISZERO PUSH2 0x2128 JUMPI PUSH1 0x0 DUP1 REVERT JUMPDEST POP GAS STATICCALL ISZERO DUP1 ISZERO PUSH2 0x213C JUMPI RETURNDATASIZE PUSH1 0x0 DUP1 RETURNDATACOPY RETURNDATASIZE PUSH1 0x0 REVERT JUMPDEST POP POP POP POP PUSH1 0x40 MLOAD RETURNDATASIZE PUSH1 0x20 DUP2 LT ISZERO PUSH2 0x2152 JUMPI PUSH1 0x0 DUP1 REVERT JUMPDEST POP MLOAD GT PUSH2 0x21A6 JUMPI PUSH1 0x40 DUP1 MLOAD PUSH3 0x461BCD PUSH1 0xE5 SHL DUP2 MSTORE PUSH1 0x20 PUSH1 0x4 DUP3 ADD MSTORE PUSH1 0x1F PUSH1 0x24 DUP3 ADD MSTORE PUSH32 0x52616E646F6D206E756D626572206E6F742066756C66696C6C65642079657400 PUSH1 0x44 DUP3 ADD MSTORE SWAP1 MLOAD SWAP1 DUP2 SWAP1 SUB PUSH1 0x64 ADD SWAP1 REVERT JUMPDEST PUSH1 0x0 PUSH1 0x29 PUSH1 0x1 SWAP1 SLOAD SWAP1 PUSH2 0x100 EXP SWAP1 DIV PUSH1 0x1 PUSH1 0x1 PUSH1 0xA0 SHL SUB AND PUSH1 0x1 PUSH1 0x1 PUSH1 0xA0 SHL SUB AND PUSH4 0x16FE73EC PUSH1 0x40 MLOAD DUP2 PUSH4 0xFFFFFFFF AND PUSH1 0xE0 SHL DUP2 MSTORE PUSH1 0x4 ADD PUSH1 0x20 PUSH1 0x40 MLOAD DUP1 DUP4 SUB DUP2 DUP7 DUP1 EXTCODESIZE ISZERO DUP1 ISZERO PUSH2 0x21F6 JUMPI PUSH1 0x0 DUP1 REVERT JUMPDEST POP GAS STATICCALL ISZERO DUP1 ISZERO PUSH2 0x220A JUMPI RETURNDATASIZE PUSH1 0x0 DUP1 RETURNDATACOPY RETURNDATASIZE PUSH1 0x0 REVERT JUMPDEST POP POP POP POP PUSH1 0x40 MLOAD RETURNDATASIZE PUSH1 0x20 DUP2 LT ISZERO PUSH2 0x2220 JUMPI PUSH1 0x0 DUP1 REVERT JUMPDEST POP MLOAD PUSH1 0x40 DUP1 MLOAD DUP3 DUP2 MSTORE SWAP1 MLOAD SWAP2 SWAP3 POP DUP4 SWAP2 PUSH32 0x1265ED0EE2224724954858BC12B94D9EC15E1A0F2F4B3AA8E2BBA70794590208 SWAP2 DUP2 SWAP1 SUB PUSH1 0x20 ADD SWAP1 LOG2 PUSH1 0x29 PUSH1 0x1 SWAP1 SLOAD SWAP1 PUSH2 0x100 EXP SWAP1 DIV PUSH1 0x1 PUSH1 0x1 PUSH1 0xA0 SHL SUB AND PUSH1 0x1 PUSH1 0x1 PUSH1 0xA0 SHL SUB AND PUSH4 0xF9E19FA5 PUSH1 0x40 MLOAD DUP2 PUSH4 0xFFFFFFFF AND PUSH1 0xE0 SHL DUP2 MSTORE PUSH1 0x4 ADD PUSH1 0x0 PUSH1 0x40 MLOAD DUP1 DUP4 SUB DUP2 PUSH1 0x0 DUP8 DUP1 EXTCODESIZE ISZERO DUP1 ISZERO PUSH2 0x22AA JUMPI PUSH1 0x0 DUP1 REVERT JUMPDEST POP GAS CALL ISZERO DUP1 ISZERO PUSH2 0x22BE JUMPI RETURNDATASIZE PUSH1 0x0 DUP1 RETURNDATACOPY RETURNDATASIZE PUSH1 0x0 REVERT JUMPDEST POP POP POP POP POP POP JUMP JUMPDEST PUSH1 0xD PUSH1 0x20 SWAP1 DUP2 MSTORE PUSH1 0x0 SWAP3 DUP4 MSTORE PUSH1 0x40 DUP1 DUP5 KECCAK256 SWAP1 SWAP2 MSTORE SWAP1 DUP3 MSTORE SWAP1 KECCAK256 SLOAD PUSH1 0x1 PUSH1 0x1 PUSH1 0xA0 SHL SUB AND DUP2 JUMP JUMPDEST PUSH1 0x29 SLOAD PUSH2 0x100 SWAP1 DIV PUSH1 0x1 PUSH1 0x1 PUSH1 0xA0 SHL SUB AND DUP2 JUMP JUMPDEST PUSH1 0x40 MLOAD DUP2 SWAP1 CALLER SWAP1 PUSH32 0xF12EE03C5C05F6339EB7067B918B1D65996CB0701660D3A0BFEB92F628B2D568 SWAP1 PUSH1 0x0 SWAP1 LOG3 POP JUMP JUMPDEST PUSH1 0x19 SLOAD DUP2 JUMP JUMPDEST PUSH1 0x1B SLOAD DUP2 JUMP JUMPDEST PUSH1 0x8 PUSH1 0x20 MSTORE PUSH1 0x0 SWAP1 DUP2 MSTORE PUSH1 0x40 SWAP1 KECCAK256 SLOAD DUP2 JUMP JUMPDEST PUSH1 0x1F SLOAD DUP2 JUMP JUMPDEST PUSH1 0x0 DUP2 DUP2 MSTORE PUSH1 0x1 PUSH1 0x20 DUP2 SWAP1 MSTORE PUSH1 0x40 SWAP1 SWAP2 KECCAK256 ADD SLOAD DUP2 SWAP1 PUSH1 0x1 PUSH1 0x1 PUSH1 0xA0 SHL SUB AND CALLER EQ PUSH2 0x23AF JUMPI PUSH1 0x40 MLOAD PUSH3 0x461BCD PUSH1 0xE5 SHL DUP2 MSTORE PUSH1 0x4 ADD DUP1 DUP1 PUSH1 0x20 ADD DUP3 DUP2 SUB DUP3 MSTORE PUSH1 0x36 DUP2 MSTORE PUSH1 0x20 ADD DUP1 PUSH2 0x2CC2 PUSH1 0x36 SWAP2 CODECOPY PUSH1 0x40 ADD SWAP2 POP POP PUSH1 0x40 MLOAD DUP1 SWAP2 SUB SWAP1 REVERT JUMPDEST PUSH1 0x0 DUP3 DUP2 MSTORE PUSH1 0x1 PUSH1 0x20 MSTORE PUSH1 0x40 SWAP1 KECCAK256 PUSH1 0x7 ADD SLOAD DUP3 SWAP1 TIMESTAMP LT PUSH2 0x2407 JUMPI PUSH1 0x40 DUP1 MLOAD PUSH3 0x461BCD PUSH1 0xE5 SHL DUP2 MSTORE PUSH1 0x20 PUSH1 0x4 DUP3 ADD MSTORE PUSH1 0xE PUSH1 0x24 DUP3 ADD MSTORE PUSH14 0x13DC1D1A5BDB88195E1C1A5C9959 PUSH1 0x92 SHL PUSH1 0x44 DUP3 ADD MSTORE SWAP1 MLOAD SWAP1 DUP2 SWAP1 SUB PUSH1 0x64 ADD SWAP1 REVERT JUMPDEST PUSH1 0x1A SLOAD PUSH1 0x0 DUP5 DUP2 MSTORE PUSH1 0x1 PUSH1 0x20 MSTORE PUSH1 0x40 SWAP1 KECCAK256 PUSH1 0x7 ADD SLOAD PUSH2 0x242B SWAP2 PUSH4 0xFFFFFFFF PUSH2 0x2C04 AND JUMP JUMPDEST TIMESTAMP GT PUSH2 0x247E JUMPI PUSH1 0x40 DUP1 MLOAD PUSH3 0x461BCD PUSH1 0xE5 SHL DUP2 MSTORE PUSH1 0x20 PUSH1 0x4 DUP3 ADD MSTORE PUSH1 0x18 PUSH1 0x24 DUP3 ADD MSTORE PUSH32 0x426964206475726174696F6E206E6F7420657870697265640000000000000000 PUSH1 0x44 DUP3 ADD MSTORE SWAP1 MLOAD SWAP1 DUP2 SWAP1 SUB PUSH1 0x64 ADD SWAP1 REVERT JUMPDEST PUSH1 0x0 JUMPDEST PUSH1 0x0 DUP5 DUP2 MSTORE PUSH1 0x1 PUSH1 0x20 MSTORE PUSH1 0x40 SWAP1 KECCAK256 PUSH1 0x6 ADD SLOAD DUP2 LT ISZERO PUSH2 0x2509 JUMPI PUSH1 0x0 DUP5 DUP2 MSTORE PUSH1 0xC PUSH1 0x20 SWAP1 DUP2 MSTORE PUSH1 0x40 DUP1 DUP4 KECCAK256 PUSH1 0x1 SWAP1 SWAP3 MSTORE DUP3 KECCAK256 PUSH1 0x6 ADD DUP1 SLOAD DUP4 SWAP2 SWAP1 DUP6 SWAP1 DUP2 LT PUSH2 0x24C4 JUMPI INVALID JUMPDEST PUSH1 0x0 SWAP2 DUP3 MSTORE PUSH1 0x20 DUP1 DUP4 KECCAK256 SWAP1 SWAP2 ADD SLOAD DUP4 MSTORE DUP3 DUP2 ADD SWAP4 SWAP1 SWAP4 MSTORE PUSH1 0x40 SWAP2 DUP3 ADD DUP2 KECCAK256 SLOAD DUP9 DUP3 MSTORE PUSH1 0x6 DUP5 MSTORE DUP3 DUP3 KECCAK256 PUSH1 0x1 PUSH1 0x1 PUSH1 0xA0 SHL SUB SWAP1 SWAP2 AND DUP3 MSTORE SWAP1 SWAP3 MSTORE DUP2 KECCAK256 SSTORE POP PUSH1 0x1 ADD PUSH2 0x2481 JUMP JUMPDEST POP PUSH1 0x40 MLOAD DUP4 SWAP1 PUSH32 0x7802CD593F5C917333E3EAA52E735224BA7D2AF514A30CC7B8CB8B768B49CDBF SWAP1 PUSH1 0x0 SWAP1 LOG2 POP POP POP JUMP JUMPDEST PUSH1 0x0 DUP2 DUP2 MSTORE PUSH1 0x1 PUSH1 0x20 MSTORE PUSH1 0x40 SWAP1 KECCAK256 PUSH1 0x7 ADD SLOAD TIMESTAMP LT PUSH2 0x120F JUMPI PUSH1 0x40 DUP1 MLOAD PUSH3 0x461BCD PUSH1 0xE5 SHL DUP2 MSTORE PUSH1 0x20 PUSH1 0x4 DUP3 ADD MSTORE PUSH1 0xF PUSH1 0x24 DUP3 ADD MSTORE PUSH15 0x29BA30B632903134B217B7B33332B9 PUSH1 0x89 SHL PUSH1 0x44 DUP3 ADD MSTORE SWAP1 MLOAD SWAP1 DUP2 SWAP1 SUB PUSH1 0x64 ADD SWAP1 REVERT JUMPDEST PUSH1 0x0 DUP3 DUP2 MSTORE PUSH1 0x1 PUSH1 0x20 DUP2 SWAP1 MSTORE PUSH1 0x40 SWAP1 SWAP2 KECCAK256 ADD SLOAD DUP3 SWAP1 PUSH1 0x1 PUSH1 0x1 PUSH1 0xA0 SHL SUB AND CALLER EQ PUSH2 0x25EC JUMPI PUSH1 0x40 MLOAD PUSH3 0x461BCD PUSH1 0xE5 SHL DUP2 MSTORE PUSH1 0x4 ADD DUP1 DUP1 PUSH1 0x20 ADD DUP3 DUP2 SUB DUP3 MSTORE PUSH1 0x36 DUP2 MSTORE PUSH1 0x20 ADD DUP1 PUSH2 0x2CC2 PUSH1 0x36 SWAP2 CODECOPY PUSH1 0x40 ADD SWAP2 POP POP PUSH1 0x40 MLOAD DUP1 SWAP2 SUB SWAP1 REVERT JUMPDEST PUSH1 0x0 DUP4 DUP2 MSTORE PUSH1 0x1 PUSH1 0x20 MSTORE PUSH1 0x40 SWAP1 KECCAK256 PUSH1 0x7 ADD SLOAD TIMESTAMP DUP2 GT PUSH2 0x263C JUMPI PUSH1 0x40 MLOAD PUSH3 0x461BCD PUSH1 0xE5 SHL DUP2 MSTORE PUSH1 0x4 ADD DUP1 DUP1 PUSH1 0x20 ADD DUP3 DUP2 SUB DUP3 MSTORE PUSH1 0x3A DUP2 MSTORE PUSH1 0x20 ADD DUP1 PUSH2 0x2C88 PUSH1 0x3A SWAP2 CODECOPY PUSH1 0x40 ADD SWAP2 POP POP PUSH1 0x40 MLOAD DUP1 SWAP2 SUB SWAP1 REVERT JUMPDEST PUSH1 0x1C DUP4 SWAP1 SSTORE PUSH1 0x40 DUP1 MLOAD DUP5 DUP2 MSTORE SWAP1 MLOAD DUP6 SWAP2 PUSH32 0x8A7A5C9C34210B39B0DD6C746E4824F7AF2A84C059D4DCBC168A2036D26DF990 SWAP2 SWAP1 DUP2 SWAP1 SUB PUSH1 0x20 ADD SWAP1 LOG2 POP POP POP POP JUMP JUMPDEST PUSH1 0x0 DUP3 DUP2 MSTORE PUSH1 0x1 PUSH1 0x20 DUP2 SWAP1 MSTORE PUSH1 0x40 SWAP1 SWAP2 KECCAK256 ADD SLOAD DUP3 SWAP1 PUSH1 0x1 PUSH1 0x1 PUSH1 0xA0 SHL SUB AND CALLER EQ PUSH2 0x26D8 JUMPI PUSH1 0x40 MLOAD PUSH3 0x461BCD PUSH1 0xE5 SHL DUP2 MSTORE PUSH1 0x4 ADD DUP1 DUP1 PUSH1 0x20 ADD DUP3 DUP2 SUB DUP3 MSTORE PUSH1 0x36 DUP2 MSTORE PUSH1 0x20 ADD DUP1 PUSH2 0x2CC2 PUSH1 0x36 SWAP2 CODECOPY PUSH1 0x40 ADD SWAP2 POP POP PUSH1 0x40 MLOAD DUP1 SWAP2 SUB SWAP1 REVERT JUMPDEST PUSH1 0x0 DUP4 DUP2 MSTORE PUSH1 0x1 PUSH1 0x20 MSTORE PUSH1 0x40 SWAP1 KECCAK256 PUSH1 0x7 ADD SLOAD TIMESTAMP DUP2 GT PUSH2 0x2728 JUMPI PUSH1 0x40 MLOAD PUSH3 0x461BCD PUSH1 0xE5 SHL DUP2 MSTORE PUSH1 0x4 ADD DUP1 DUP1 PUSH1 0x20 ADD DUP3 DUP2 SUB DUP3 MSTORE PUSH1 0x3A DUP2 MSTORE PUSH1 0x20 ADD DUP1 PUSH2 0x2C88 PUSH1 0x3A SWAP2 CODECOPY PUSH1 0x40 ADD SWAP2 POP POP PUSH1 0x40 MLOAD DUP1 SWAP2 SUB SWAP1 REVERT JUMPDEST PUSH1 0x22 DUP4 SWAP1 SSTORE PUSH1 0x40 DUP1 MLOAD DUP5 DUP2 MSTORE SWAP1 MLOAD DUP6 SWAP2 PUSH32 0x436DA186610BE724D1E56ABF3D34D2BAF7374F4BC9B7E38002969D08393CF547 SWAP2 SWAP1 DUP2 SWAP1 SUB PUSH1 0x20 ADD SWAP1 LOG2 POP POP POP POP JUMP JUMPDEST PUSH1 0x23 SLOAD DUP2 JUMP JUMPDEST PUSH1 0x0 CALLVALUE GT PUSH2 0x18FE JUMPI PUSH1 0x40 DUP1 MLOAD PUSH3 0x461BCD PUSH1 0xE5 SHL DUP2 MSTORE PUSH1 0x20 PUSH1 0x4 DUP3 ADD MSTORE PUSH1 0xE PUSH1 0x24 DUP3 ADD MSTORE PUSH14 0x125B9D985B1A5908185B5BDD5B9D PUSH1 0x92 SHL PUSH1 0x44 DUP3 ADD MSTORE SWAP1 MLOAD SWAP1 DUP2 SWAP1 SUB PUSH1 0x64 ADD SWAP1 REVERT JUMPDEST PUSH1 0x2 PUSH1 0x20 DUP2 DUP2 MSTORE PUSH1 0x0 SWAP4 DUP5 MSTORE PUSH1 0x40 DUP1 DUP6 KECCAK256 SWAP1 SWAP2 MSTORE SWAP2 DUP4 MSTORE SWAP2 KECCAK256 DUP1 SLOAD PUSH1 0x1 DUP3 ADD SLOAD SWAP3 DUP3 ADD SLOAD PUSH1 0x3 DUP4 ADD SLOAD PUSH1 0x5 DUP5 ADD SLOAD PUSH1 0x7 DUP6 ADD SLOAD PUSH1 0x8 SWAP1 SWAP6 ADD SLOAD PUSH1 0x1 PUSH1 0x1 PUSH1 0xA0 SHL SUB SWAP5 DUP6 AND SWAP7 DUP6 AND SWAP6 SWAP4 SWAP1 SWAP5 AND SWAP4 SWAP2 SWAP3 PUSH1 0xFF SWAP1 SWAP2 AND SWAP2 DUP8 JUMP JUMPDEST PUSH1 0xC PUSH1 0x20 SWAP1 DUP2 MSTORE PUSH1 0x0 SWAP3 DUP4 MSTORE PUSH1 0x40 DUP1 DUP5 KECCAK256 SWAP1 SWAP2 MSTORE SWAP1 DUP3 MSTORE SWAP1 KECCAK256 SLOAD PUSH1 0x1 PUSH1 0x1 PUSH1 0xA0 SHL SUB AND DUP2 JUMP JUMPDEST PUSH1 0x7 PUSH1 0x20 SWAP1 DUP2 MSTORE PUSH1 0x0 SWAP3 DUP4 MSTORE PUSH1 0x40 DUP1 DUP5 KECCAK256 SWAP1 SWAP2 MSTORE SWAP1 DUP3 MSTORE SWAP1 KECCAK256 SLOAD DUP2 JUMP JUMPDEST PUSH1 0x3 PUSH1 0x20 DUP2 DUP2 MSTORE PUSH1 0x0 SWAP4 DUP5 MSTORE PUSH1 0x40 DUP1 DUP6 KECCAK256 SWAP1 SWAP2 MSTORE SWAP2 DUP4 MSTORE SWAP2 KECCAK256 DUP1 SLOAD PUSH1 0x1 DUP3 ADD SLOAD PUSH1 0x2 DUP4 ADD SLOAD SWAP4 DUP4 ADD SLOAD PUSH1 0x5 DUP5 ADD SLOAD PUSH1 0x7 DUP6 ADD SLOAD PUSH1 0x8 SWAP1 SWAP6 ADD SLOAD PUSH1 0x1 PUSH1 0x1 PUSH1 0xA0 SHL SUB SWAP5 DUP6 AND SWAP7 SWAP4 DUP6 AND SWAP6 SWAP4 SWAP1 SWAP5 AND SWAP4 SWAP2 SWAP3 PUSH1 0xFF SWAP1 SWAP2 AND SWAP2 DUP8 JUMP JUMPDEST PUSH1 0x27 SLOAD PUSH1 0x1 PUSH1 0x1 PUSH1 0xA0 SHL SUB AND DUP2 JUMP JUMPDEST PUSH2 0x28C0 PUSH2 0x2C00 JUMP JUMPDEST PUSH1 0x1 PUSH1 0x1 PUSH1 0xA0 SHL SUB AND PUSH2 0x28D1 PUSH2 0x1FC5 JUMP JUMPDEST PUSH1 0x1 PUSH1 0x1 PUSH1 0xA0 SHL SUB AND EQ PUSH2 0x292C JUMPI PUSH1 0x40 DUP1 MLOAD PUSH3 0x461BCD PUSH1 0xE5 SHL DUP2 MSTORE PUSH1 0x20 PUSH1 0x4 DUP3 ADD DUP2 SWAP1 MSTORE PUSH1 0x24 DUP3 ADD MSTORE PUSH32 0x4F776E61626C653A2063616C6C6572206973206E6F7420746865206F776E6572 PUSH1 0x44 DUP3 ADD MSTORE SWAP1 MLOAD SWAP1 DUP2 SWAP1 SUB PUSH1 0x64 ADD SWAP1 REVERT JUMPDEST PUSH1 0x1 PUSH1 0x1 PUSH1 0xA0 SHL SUB DUP2 AND PUSH2 0x2971 JUMPI PUSH1 0x40 MLOAD PUSH3 0x461BCD PUSH1 0xE5 SHL DUP2 MSTORE PUSH1 0x4 ADD DUP1 DUP1 PUSH1 0x20 ADD DUP3 DUP2 SUB DUP3 MSTORE PUSH1 0x26 DUP2 MSTORE PUSH1 0x20 ADD DUP1 PUSH2 0x2C62 PUSH1 0x26 SWAP2 CODECOPY PUSH1 0x40 ADD SWAP2 POP POP PUSH1 0x40 MLOAD DUP1 SWAP2 SUB SWAP1 REVERT JUMPDEST PUSH1 0x0 DUP1 SLOAD PUSH1 0x40 MLOAD PUSH1 0x1 PUSH1 0x1 PUSH1 0xA0 SHL SUB DUP1 DUP6 AND SWAP4 SWAP3 AND SWAP2 PUSH32 0x8BE0079C531659141344CD1FD0A4F28419497F9722A3DAAFE3B4186F6B6457E0 SWAP2 LOG3 PUSH1 0x0 DUP1 SLOAD PUSH1 0x1 PUSH1 0x1 PUSH1 0xA0 SHL SUB NOT AND PUSH1 0x1 PUSH1 0x1 PUSH1 0xA0 SHL SUB SWAP3 SWAP1 SWAP3 AND SWAP2 SWAP1 SWAP2 OR SWAP1 SSTORE JUMP JUMPDEST PUSH1 0x28 SLOAD DUP2 JUMP JUMPDEST PUSH1 0x1A SLOAD DUP2 JUMP JUMPDEST PUSH1 0x0 DUP2 DUP2 MSTORE PUSH1 0x1 PUSH1 0x20 DUP2 SWAP1 MSTORE PUSH1 0x40 SWAP1 SWAP2 KECCAK256 ADD SLOAD DUP2 SWAP1 PUSH1 0x1 PUSH1 0x1 PUSH1 0xA0 SHL SUB AND CALLER EQ PUSH2 0x2A33 JUMPI PUSH1 0x40 MLOAD PUSH3 0x461BCD PUSH1 0xE5 SHL DUP2 MSTORE PUSH1 0x4 ADD DUP1 DUP1 PUSH1 0x20 ADD DUP3 DUP2 SUB DUP3 MSTORE PUSH1 0x36 DUP2 MSTORE PUSH1 0x20 ADD DUP1 PUSH2 0x2CC2 PUSH1 0x36 SWAP2 CODECOPY PUSH1 0x40 ADD SWAP2 POP POP PUSH1 0x40 MLOAD DUP1 SWAP2 SUB SWAP1 REVERT JUMPDEST PUSH1 0x40 MLOAD CALLER SWAP1 PUSH32 0x75CA8A47B85B0148770D016B113E0D6C397AAB1CFC57A8DFC04B1AFC46AFFB91 SWAP1 PUSH1 0x0 SWAP1 LOG2 POP POP JUMP JUMPDEST PUSH1 0x0 DUP1 DUP1 JUMPDEST PUSH1 0x0 DUP5 DUP2 MSTORE PUSH1 0x1 PUSH1 0x20 MSTORE PUSH1 0x40 SWAP1 KECCAK256 PUSH1 0x6 ADD SLOAD DUP2 LT ISZERO PUSH2 0x2AFD JUMPI PUSH1 0x0 DUP5 DUP2 MSTORE PUSH1 0xC PUSH1 0x20 SWAP1 DUP2 MSTORE PUSH1 0x40 DUP1 DUP4 KECCAK256 PUSH1 0x1 SWAP1 SWAP3 MSTORE DUP3 KECCAK256 PUSH1 0x6 ADD DUP1 SLOAD DUP4 SWAP2 SWAP1 DUP6 SWAP1 DUP2 LT PUSH2 0x2AAA JUMPI INVALID JUMPDEST PUSH1 0x0 SWAP2 DUP3 MSTORE PUSH1 0x20 DUP1 DUP4 KECCAK256 SWAP1 SWAP2 ADD SLOAD DUP4 MSTORE DUP3 DUP2 ADD SWAP4 SWAP1 SWAP4 MSTORE PUSH1 0x40 SWAP2 DUP3 ADD DUP2 KECCAK256 SLOAD DUP9 DUP3 MSTORE PUSH1 0x6 DUP5 MSTORE DUP3 DUP3 KECCAK256 PUSH1 0x1 PUSH1 0x1 PUSH1 0xA0 SHL SUB SWAP1 SWAP2 AND DUP1 DUP4 MSTORE SWAP4 MSTORE KECCAK256 SLOAD SWAP1 SWAP2 POP ISZERO PUSH2 0x2AF4 JUMPI PUSH1 0x1 SWAP1 SWAP3 ADD SWAP2 JUMPDEST POP PUSH1 0x1 ADD PUSH2 0x2A67 JUMP JUMPDEST POP SWAP3 SWAP2 POP POP JUMP JUMPDEST PUSH1 0x0 DUP1 DUP1 JUMPDEST PUSH1 0x0 DUP5 DUP2 MSTORE PUSH1 0x1 PUSH1 0x20 MSTORE PUSH1 0x40 SWAP1 KECCAK256 PUSH1 0x6 ADD SLOAD DUP2 LT ISZERO PUSH2 0x2AFD JUMPI PUSH1 0x0 DUP5 DUP2 MSTORE PUSH1 0xD PUSH1 0x20 SWAP1 DUP2 MSTORE PUSH1 0x40 DUP1 DUP4 KECCAK256 PUSH1 0x1 SWAP1 SWAP3 MSTORE DUP3 KECCAK256 PUSH1 0x6 ADD DUP1 SLOAD DUP4 SWAP2 SWAP1 DUP6 SWAP1 DUP2 LT PUSH2 0x2B4C JUMPI INVALID JUMPDEST PUSH1 0x0 SWAP2 DUP3 MSTORE PUSH1 0x20 DUP1 DUP4 KECCAK256 SWAP1 SWAP2 ADD SLOAD DUP4 MSTORE DUP3 DUP2 ADD SWAP4 SWAP1 SWAP4 MSTORE PUSH1 0x40 SWAP2 DUP3 ADD DUP2 KECCAK256 SLOAD DUP9 DUP3 MSTORE PUSH1 0x7 DUP5 MSTORE DUP3 DUP3 KECCAK256 PUSH1 0x1 PUSH1 0x1 PUSH1 0xA0 SHL SUB SWAP1 SWAP2 AND DUP1 DUP4 MSTORE SWAP4 MSTORE KECCAK256 SLOAD SWAP1 SWAP2 POP ISZERO PUSH2 0x2B96 JUMPI PUSH1 0x1 SWAP1 SWAP3 ADD SWAP2 JUMPDEST POP PUSH1 0x1 ADD PUSH2 0x2B09 JUMP JUMPDEST PUSH1 0x0 DUP3 DUP3 ADD DUP4 DUP2 LT ISZERO PUSH2 0x2BF9 JUMPI PUSH1 0x40 DUP1 MLOAD PUSH3 0x461BCD PUSH1 0xE5 SHL DUP2 MSTORE PUSH1 0x20 PUSH1 0x4 DUP3 ADD MSTORE PUSH1 0x1B PUSH1 0x24 DUP3 ADD MSTORE PUSH32 0x536166654D6174683A206164646974696F6E206F766572666C6F770000000000 PUSH1 0x44 DUP3 ADD MSTORE SWAP1 MLOAD SWAP1 DUP2 SWAP1 SUB PUSH1 0x64 ADD SWAP1 REVERT JUMPDEST SWAP4 SWAP3 POP POP POP JUMP JUMPDEST CALLER SWAP1 JUMP JUMPDEST PUSH1 0x0 DUP3 DUP3 GT ISZERO PUSH2 0x2C5B JUMPI PUSH1 0x40 DUP1 MLOAD PUSH3 0x461BCD PUSH1 0xE5 SHL DUP2 MSTORE PUSH1 0x20 PUSH1 0x4 DUP3 ADD MSTORE PUSH1 0x1E PUSH1 0x24 DUP3 ADD MSTORE PUSH32 0x536166654D6174683A207375627472616374696F6E206F766572666C6F770000 PUSH1 0x44 DUP3 ADD MSTORE SWAP1 MLOAD SWAP1 DUP2 SWAP1 SUB PUSH1 0x64 ADD SWAP1 REVERT JUMPDEST POP SWAP1 SUB SWAP1 JUMP INVALID 0x4F PUSH24 0x6E61626C653A206E6577206F776E65722069732074686520 PUSH27 0x65726F2061646472657373496E76616C69642074696D653A204F70 PUSH21 0x696F6E2065787069726174696F6E2074696D65206D PUSH22 0x737420626520696E2074686520667574757265556E61 PUSH22 0x74686F72697A65643A204F6E6C79206F7074696F6E20 PUSH16 0x776E65722063616E2063616C6C207468 PUSH10 0x732066756E6374696F6E SSTORE PUSH15 0x617574686F72697A65643A204F6E6C PUSH26 0x2063726561746F722063616E2063616C6C20746869732066756E PUSH4 0x74696F6E LOG2 PUSH5 0x6970667358 0x22 SLT KECCAK256 0xBE 0xAB PUSH11 0xE3B10C19209B49D142F92D 0x1E 0xDC 0xC9 DUP12 DUP7 0x2A 0xE2 0xA6 CALLDATALOAD 0xEE 0xE ADDMOD SWAP14 0xF7 0xB8 0x5F SLOAD MULMOD PUSH5 0x736F6C6343 STOP MOD ADDMOD STOP CALLER "},"methodIdentifiers":{"analyzeActivity(uint256)":"0c52f46d","baseExpiration()":"90de000b","bidDuration()":"f6b45eb7","bidResetFee()":"7987feba","bids(uint256,address)":"3f1ffcec","bufferTime()":"ba7b6703","chainlinkMock()":"a964f81f","chainlinkOracle()":"ef06e72c","checkOnlyIfNotActive(uint256)":"0f5eb055","checkOnlyIfNotStale(uint256)":"de91e753","collateralLimit(uint256)":"0afe2cad","collateralList(uint256)":"3024a912","config()":"79502c55","creatorList(address,uint256)":"e87b2b90","data()":"73d4a13a","executeOptionWithRandomness(bytes32)":"a87e49c5","expirationIncreaseFactor()":"a1dc29cd","functionExceedingGasLimit()":"3271bd60","functionWithEmptyArray(uint256[])":"0d5047c7","functionWithEvent(uint256)":"b5bf6b06","functionWithOnlyCreator()":"65110595","functionWithOverflow()":"42f3fec6","functionWithZeroAddress()":"40e5c7f3","functionWithZeroAmount()":"e82af8e3","functionWithonlyOptionOwner(uint256)":"f7c51f3c","gasLimit()":"f68016b7","getCreator()":"0ee2cb10","getTotalOptionsNum()":"17a5266c","gracePeriod()":"a06db7dc","instantiate()":"47f2ce83","latestPrice()":"a3e6ba94","marketList(uint256)":"232b956c","maxBidsPerUser()":"e6ea8d2e","minBidAmount()":"49751788","minBidDuration()":"86d65d02","minOfferDuration()":"c99e0ffc","offerDuration()":"bd62869a","offerResetFee()":"83534b95","offers(uint256,address)":"ebdfbce5","optionList(uint256)":"573489a9","owner()":"8da5cb5b","ownerList(address,uint256)":"eeea02bf","pause()":"8456cb59","paused()":"5c975abb","priceRequests(bytes32)":"bed40f6f","priceToBidder(uint256,uint256)":"ead8ccd1","priceToOfferer(uint256,uint256)":"a8896f50","renounceOwnership()":"715018a6","resetBids(uint256)":"d987f81e","resetOffers(uint256)":"67d6a23f","setBaseExpiration(uint256,uint256)":"218f852e","setBidResetFee(uint256,uint256)":"76f36155","setCreator(address)":"3f516018","setExpirationIncreaseFactor(uint256,uint256)":"0c6de672","setGracePeriod(uint256,uint256)":"e2576d4f","setMaxBidsPerUser(uint256,uint256)":"0a98eeb8","setMinBidAmount(uint256,uint256)":"2d6ff84c","setMinBidDuration(uint256,uint256)":"344ca8b4","setMinOfferDuration(uint256,uint256)":"942e15b4","setOfferResetFee(uint256,uint256)":"49050750","setOwner(address)":"13af4035","setStaleBidRemoveThreshold(uint256,uint256)":"e522600c","setTimeBuffer(uint256,uint256)":"3b647d01","staleBidRemoveThreshold()":"301bbc24","transferOwnership(address)":"f2fde38b","unpause()":"3f4ba83a","userBidCount(address)":"545b6727","userBids(address)":"851212d9"}}}}}