{"contracts/ChainlinkMock.sol":{"ChainlinkMock":{"abi":[{"inputs":[{"internalType":"address","name":"_vrfCoordinator","type":"address"},{"internalType":"bytes32","name":"_keyHash","type":"bytes32"},{"internalType":"uint256","name":"_fee","type":"uint256"},{"internalType":"address","name":"_link","type":"address"}],"stateMutability":"nonpayable","type":"constructor"},{"anonymous":false,"inputs":[{"indexed":true,"internalType":"bytes32","name":"requestId","type":"bytes32"},{"indexed":false,"internalType":"uint256","name":"randomness","type":"uint256"}],"name":"RandomNumberFulfilled","type":"event"},{"anonymous":false,"inputs":[{"indexed":true,"internalType":"bytes32","name":"requestId","type":"bytes32"}],"name":"RandomNumberRequested","type":"event"},{"inputs":[],"name":"latestRandomNumber","outputs":[{"internalType":"uint256","name":"","type":"uint256"}],"stateMutability":"view","type":"function"},{"inputs":[],"name":"latestRequestId","outputs":[{"internalType":"bytes32","name":"","type":"bytes32"}],"stateMutability":"view","type":"function"},{"inputs":[],"name":"mockRequestRandomNumber","outputs":[],"stateMutability":"nonpayable","type":"function"},{"inputs":[{"internalType":"bytes32","name":"requestId","type":"bytes32"},{"internalType":"uint256","name":"randomness","type":"uint256"}],"name":"rawFulfillRandomness","outputs":[],"stateMutability":"nonpayable","type":"function"},{"inputs":[],"name":"resetState","outputs":[],"stateMutability":"nonpayable","type":"function"}],"evm":{"bytecode":{"linkReferences":{},"object":"60c060405234801561001057600080fd5b5060405161060b38038061060b8339818101604052608081101561003357600080fd5b508051602082015160408301516060938401516001600160601b031984861b811660a0529481901b909416608052600191909155600255600580546001600160a01b0319166001600160a01b0392831690811790915591169061055d6100ae6000398061011352806101dc5250806101ad525061055d6000f3fe608060405234801561001057600080fd5b50600436106100575760003560e01c806316fe73ec1461005c5780631aa46f5914610076578063409f967c1461007e57806394985ddd14610088578063f9e19fa5146100ab575b600080fd5b6100646100b3565b60408051918252519081900360200190f35b6100646100b9565b6100866100bf565b005b6100866004803603604081101561009e57600080fd5b5080359060200135610108565b610086610193565b60035490565b60045490565b600480546001908101909155546002546100d991906101a9565b506004546040517f1f528edfe7e851f18127c23c0853d428822bcefe59219e6afb0c6f25ffe9d51090600090a2565b336001600160a01b037f00000000000000000000000000000000000000000000000000000000000000001614610185576040805162461bcd60e51b815260206004820152601f60248201527f4f6e6c7920565246436f6f7264696e61746f722063616e2066756c66696c6c00604482015290519081900360640190fd5b61018f828261036b565b5050565b6000600181905560028190556003819055600455565b60007f00000000000000000000000000000000000000000000000000000000000000006001600160a01b0316634000aea07f00000000000000000000000000000000000000000000000000000000000000008486600060405160200180838152602001828152602001925050506040516020818303038152906040526040518463ffffffff1660e01b815260040180846001600160a01b03166001600160a01b0316815260200183815260200180602001828103825283818151815260200191508051906020019080838360005b8381101561028f578181015183820152602001610277565b50505050905090810190601f1680156102bc5780820380516001836020036101000a031916815260200191505b50945050505050602060405180830381600087803b1580156102dd57600080fd5b505af11580156102f1573d6000803e3d6000fd5b505050506040513d602081101561030757600080fd5b505060008381526020819052604081205461032790859083903090610453565b60008581526020819052604090205490915061034a90600163ffffffff61049a16565b60008581526020819052604090205561036384826104fb565b949350505050565b6005546001600160a01b031633146103ca576040805162461bcd60e51b815260206004820181905260248201527f4f6e6c792056524620436f6f7264696e61746f722063616e2066756c66696c6c604482015290519081900360640190fd5b6004548214610414576040805162461bcd60e51b8152602060048201526011602482015270125b9d985b1a59081c995c5d595cdd1259607a1b604482015290519081900360640190fd5b600381905560408051828152905183917fc5098934039a51927e3f89b0a4388e6897b4069f847aa23cc0ce3a0b3311d41e919081900360200190a25050565b60408051602080820196909652808201949094526001600160a01b039290921660608401526080808401919091528151808403909101815260a09092019052805191012090565b6000828201838110156104f4576040805162461bcd60e51b815260206004820152601b60248201527f536166654d6174683a206164646974696f6e206f766572666c6f770000000000604482015290519081900360640190fd5b9392505050565b60408051602080820194909452808201929092528051808303820181526060909201905280519101209056fea264697066735822122049261128210e05213e482ee59d8c89a8a4a47084c8630a40fbd91c82282547f164736f6c63430006080033","opcodes":"PUSH1 0xC0 PUSH1 0x40 MSTORE CALLVALUE DUP1 ISZERO PUSH2 0x10 JUMPI PUSH1 0x0 DUP1 REVERT JUMPDEST POP PUSH1 0x40 MLOAD PUSH2 0x60B CODESIZE SUB DUP1 PUSH2 0x60B DUP4 CODECOPY DUP2 DUP2 ADD PUSH1 0x40 MSTORE PUSH1 0x80 DUP2 LT ISZERO PUSH2 0x33 JUMPI PUSH1 0x0 DUP1 REVERT JUMPDEST POP DUP1 MLOAD PUSH1 0x20 DUP3 ADD MLOAD PUSH1 0x40 DUP4 ADD MLOAD PUSH1 0x60 SWAP4 DUP5 ADD MLOAD PUSH1 0x1 PUSH1 0x1 PUSH1 0x60 SHL SUB NOT DUP5 DUP7 SHL DUP2 AND PUSH1 0xA0 MSTORE SWAP5 DUP2 SWAP1 SHL SWAP1 SWAP5 AND PUSH1 0x80 MSTORE PUSH1 0x1 SWAP2 SWAP1 SWAP2 SSTORE PUSH1 0x2 SSTORE PUSH1 0x5 DUP1 SLOAD PUSH1 0x1 PUSH1 0x1 PUSH1 0xA0 SHL SUB NOT AND PUSH1 0x1 PUSH1 0x1 PUSH1 0xA0 SHL SUB SWAP3 DUP4 AND SWAP1 DUP2 OR SWAP1 SWAP2 SSTORE SWAP2 AND SWAP1 PUSH2 0x55D PUSH2 0xAE PUSH1 0x0 CODECOPY DUP1 PUSH2 0x113 MSTORE DUP1 PUSH2 0x1DC MSTORE POP DUP1 PUSH2 0x1AD MSTORE POP PUSH2 0x55D PUSH1 0x0 RETURN INVALID PUSH1 0x80 PUSH1 0x40 MSTORE CALLVALUE DUP1 ISZERO PUSH2 0x10 JUMPI PUSH1 0x0 DUP1 REVERT JUMPDEST POP PUSH1 0x4 CALLDATASIZE LT PUSH2 0x57 JUMPI PUSH1 0x0 CALLDATALOAD PUSH1 0xE0 SHR DUP1 PUSH4 0x16FE73EC EQ PUSH2 0x5C JUMPI DUP1 PUSH4 0x1AA46F59 EQ PUSH2 0x76 JUMPI DUP1 PUSH4 0x409F967C EQ PUSH2 0x7E JUMPI DUP1 PUSH4 0x94985DDD EQ PUSH2 0x88 JUMPI DUP1 PUSH4 0xF9E19FA5 EQ PUSH2 0xAB JUMPI JUMPDEST PUSH1 0x0 DUP1 REVERT JUMPDEST PUSH2 0x64 PUSH2 0xB3 JUMP JUMPDEST PUSH1 0x40 DUP1 MLOAD SWAP2 DUP3 MSTORE MLOAD SWAP1 DUP2 SWAP1 SUB PUSH1 0x20 ADD SWAP1 RETURN JUMPDEST PUSH2 0x64 PUSH2 0xB9 JUMP JUMPDEST PUSH2 0x86 PUSH2 0xBF JUMP JUMPDEST STOP JUMPDEST PUSH2 0x86 PUSH1 0x4 DUP1 CALLDATASIZE SUB PUSH1 0x40 DUP2 LT ISZERO PUSH2 0x9E JUMPI PUSH1 0x0 DUP1 REVERT JUMPDEST POP DUP1 CALLDATALOAD SWAP1 PUSH1 0x20 ADD CALLDATALOAD PUSH2 0x108 JUMP JUMPDEST PUSH2 0x86 PUSH2 0x193 JUMP JUMPDEST PUSH1 0x3 SLOAD SWAP1 JUMP JUMPDEST PUSH1 0x4 SLOAD SWAP1 JUMP JUMPDEST PUSH1 0x4 DUP1 SLOAD PUSH1 0x1 SWAP1 DUP2 ADD SWAP1 SWAP2 SSTORE SLOAD PUSH1 0x2 SLOAD PUSH2 0xD9 SWAP2 SWAP1 PUSH2 0x1A9 JUMP JUMPDEST POP PUSH1 0x4 SLOAD PUSH1 0x40 MLOAD PUSH32 0x1F528EDFE7E851F18127C23C0853D428822BCEFE59219E6AFB0C6F25FFE9D510 SWAP1 PUSH1 0x0 SWAP1 LOG2 JUMP JUMPDEST CALLER PUSH1 0x1 PUSH1 0x1 PUSH1 0xA0 SHL SUB PUSH32 0x0 AND EQ PUSH2 0x185 JUMPI PUSH1 0x40 DUP1 MLOAD PUSH3 0x461BCD PUSH1 0xE5 SHL DUP2 MSTORE PUSH1 0x20 PUSH1 0x4 DUP3 ADD MSTORE PUSH1 0x1F PUSH1 0x24 DUP3 ADD MSTORE PUSH32 0x4F6E6C7920565246436F6F7264696E61746F722063616E2066756C66696C6C00 PUSH1 0x44 DUP3 ADD MSTORE SWAP1 MLOAD SWAP1 DUP2 SWAP1 SUB PUSH1 0x64 ADD SWAP1 REVERT JUMPDEST PUSH2 0x18F DUP3 DUP3 PUSH2 0x36B JUMP JUMPDEST POP POP JUMP JUMPDEST PUSH1 0x0 PUSH1 0x1 DUP2 SWAP1 SSTORE PUSH1 0x2 DUP2 SWAP1 SSTORE PUSH1 0x3 DUP2 SWAP1 SSTORE PUSH1 0x4 SSTORE JUMP JUMPDEST PUSH1 0x0 PUSH32 0x0 PUSH1 0x1 PUSH1 0x1 PUSH1 0xA0 SHL SUB AND PUSH4 0x4000AEA0 PUSH32 0x0 DUP5 DUP7 PUSH1 0x0 PUSH1 0x40 MLOAD PUSH1 0x20 ADD DUP1 DUP4 DUP2 MSTORE PUSH1 0x20 ADD DUP3 DUP2 MSTORE PUSH1 0x20 ADD SWAP3 POP POP POP PUSH1 0x40 MLOAD PUSH1 0x20 DUP2 DUP4 SUB SUB DUP2 MSTORE SWAP1 PUSH1 0x40 MSTORE PUSH1 0x40 MLOAD DUP5 PUSH4 0xFFFFFFFF AND PUSH1 0xE0 SHL DUP2 MSTORE PUSH1 0x4 ADD DUP1 DUP5 PUSH1 0x1 PUSH1 0x1 PUSH1 0xA0 SHL SUB AND PUSH1 0x1 PUSH1 0x1 PUSH1 0xA0 SHL SUB AND DUP2 MSTORE PUSH1 0x20 ADD DUP4 DUP2 MSTORE PUSH1 0x20 ADD DUP1 PUSH1 0x20 ADD DUP3 DUP2 SUB DUP3 MSTORE DUP4 DUP2 DUP2 MLOAD DUP2 MSTORE PUSH1 0x20 ADD SWAP2 POP DUP1 MLOAD SWAP1 PUSH1 0x20 ADD SWAP1 DUP1 DUP4 DUP4 PUSH1 0x0 JUMPDEST DUP4 DUP2 LT ISZERO PUSH2 0x28F JUMPI DUP2 DUP2 ADD MLOAD DUP4 DUP3 ADD MSTORE PUSH1 0x20 ADD PUSH2 0x277 JUMP JUMPDEST POP POP POP POP SWAP1 POP SWAP1 DUP2 ADD SWAP1 PUSH1 0x1F AND DUP1 ISZERO PUSH2 0x2BC JUMPI DUP1 DUP3 SUB DUP1 MLOAD PUSH1 0x1 DUP4 PUSH1 0x20 SUB PUSH2 0x100 EXP SUB NOT AND DUP2 MSTORE PUSH1 0x20 ADD SWAP2 POP JUMPDEST POP SWAP5 POP POP POP POP POP PUSH1 0x20 PUSH1 0x40 MLOAD DUP1 DUP4 SUB DUP2 PUSH1 0x0 DUP8 DUP1 EXTCODESIZE ISZERO DUP1 ISZERO PUSH2 0x2DD JUMPI PUSH1 0x0 DUP1 REVERT JUMPDEST POP GAS CALL ISZERO DUP1 ISZERO PUSH2 0x2F1 JUMPI RETURNDATASIZE PUSH1 0x0 DUP1 RETURNDATACOPY RETURNDATASIZE PUSH1 0x0 REVERT JUMPDEST POP POP POP POP PUSH1 0x40 MLOAD RETURNDATASIZE PUSH1 0x20 DUP2 LT ISZERO PUSH2 0x307 JUMPI PUSH1 0x0 DUP1 REVERT JUMPDEST POP POP PUSH1 0x0 DUP4 DUP2 MSTORE PUSH1 0x20 DUP2 SWAP1 MSTORE PUSH1 0x40 DUP2 KECCAK256 SLOAD PUSH2 0x327 SWAP1 DUP6 SWAP1 DUP4 SWAP1 ADDRESS SWAP1 PUSH2 0x453 JUMP JUMPDEST PUSH1 0x0 DUP6 DUP2 MSTORE PUSH1 0x20 DUP2 SWAP1 MSTORE PUSH1 0x40 SWAP1 KECCAK256 SLOAD SWAP1 SWAP2 POP PUSH2 0x34A SWAP1 PUSH1 0x1 PUSH4 0xFFFFFFFF PUSH2 0x49A AND JUMP JUMPDEST PUSH1 0x0 DUP6 DUP2 MSTORE PUSH1 0x20 DUP2 SWAP1 MSTORE PUSH1 0x40 SWAP1 KECCAK256 SSTORE PUSH2 0x363 DUP5 DUP3 PUSH2 0x4FB JUMP JUMPDEST SWAP5 SWAP4 POP POP POP POP JUMP JUMPDEST PUSH1 0x5 SLOAD PUSH1 0x1 PUSH1 0x1 PUSH1 0xA0 SHL SUB AND CALLER EQ PUSH2 0x3CA JUMPI PUSH1 0x40 DUP1 MLOAD PUSH3 0x461BCD PUSH1 0xE5 SHL DUP2 MSTORE PUSH1 0x20 PUSH1 0x4 DUP3 ADD DUP2 SWAP1 MSTORE PUSH1 0x24 DUP3 ADD MSTORE PUSH32 0x4F6E6C792056524620436F6F7264696E61746F722063616E2066756C66696C6C PUSH1 0x44 DUP3 ADD MSTORE SWAP1 MLOAD SWAP1 DUP2 SWAP1 SUB PUSH1 0x64 ADD SWAP1 REVERT JUMPDEST PUSH1 0x4 SLOAD DUP3 EQ PUSH2 0x414 JUMPI PUSH1 0x40 DUP1 MLOAD PUSH3 0x461BCD PUSH1 0xE5 SHL DUP2 MSTORE PUSH1 0x20 PUSH1 0x4 DUP3 ADD MSTORE PUSH1 0x11 PUSH1 0x24 DUP3 ADD MSTORE PUSH17 0x125B9D985B1A59081C995C5D595CDD1259 PUSH1 0x7A SHL PUSH1 0x44 DUP3 ADD MSTORE SWAP1 MLOAD SWAP1 DUP2 SWAP1 SUB PUSH1 0x64 ADD SWAP1 REVERT JUMPDEST PUSH1 0x3 DUP2 SWAP1 SSTORE PUSH1 0x40 DUP1 MLOAD DUP3 DUP2 MSTORE SWAP1 MLOAD DUP4 SWAP2 PUSH32 0xC5098934039A51927E3F89B0A4388E6897B4069F847AA23CC0CE3A0B3311D41E SWAP2 SWAP1 DUP2 SWAP1 SUB PUSH1 0x20 ADD SWAP1 LOG2 POP POP JUMP JUMPDEST PUSH1 0x40 DUP1 MLOAD PUSH1 0x20 DUP1 DUP3 ADD SWAP7 SWAP1 SWAP7 MSTORE DUP1 DUP3 ADD SWAP5 SWAP1 SWAP5 MSTORE PUSH1 0x1 PUSH1 0x1 PUSH1 0xA0 SHL SUB SWAP3 SWAP1 SWAP3 AND PUSH1 0x60 DUP5 ADD MSTORE PUSH1 0x80 DUP1 DUP5 ADD SWAP2 SWAP1 SWAP2 MSTORE DUP2 MLOAD DUP1 DUP5 SUB SWAP1 SWAP2 ADD DUP2 MSTORE PUSH1 0xA0 SWAP1 SWAP3 ADD SWAP1 MSTORE DUP1 MLOAD SWAP2 ADD KECCAK256 SWAP1 JUMP JUMPDEST PUSH1 0x0 DUP3 DUP3 ADD DUP4 DUP2 LT ISZERO PUSH2 0x4F4 JUMPI PUSH1 0x40 DUP1 MLOAD PUSH3 0x461BCD PUSH1 0xE5 SHL DUP2 MSTORE PUSH1 0x20 PUSH1 0x4 DUP3 ADD MSTORE PUSH1 0x1B PUSH1 0x24 DUP3 ADD MSTORE PUSH32 0x536166654D6174683A206164646974696F6E206F766572666C6F770000000000 PUSH1 0x44 DUP3 ADD MSTORE SWAP1 MLOAD SWAP1 DUP2 SWAP1 SUB PUSH1 0x64 ADD SWAP1 REVERT JUMPDEST SWAP4 SWAP3 POP POP POP JUMP JUMPDEST PUSH1 0x40 DUP1 MLOAD PUSH1 0x20 DUP1 DUP3 ADD SWAP5 SWAP1 SWAP5 MSTORE DUP1 DUP3 ADD SWAP3 SWAP1 SWAP3 MSTORE DUP1 MLOAD DUP1 DUP4 SUB DUP3 ADD DUP2 MSTORE PUSH1 0x60 SWAP1 SWAP3 ADD SWAP1 MSTORE DUP1 MLOAD SWAP2 ADD KECCAK256 SWAP1 JUMP INVALID LOG2 PUSH5 0x6970667358 0x22 SLT KECCAK256 0x49 0x26 GT 0x28 0x21 0xE SDIV 0x21 RETURNDATACOPY 0x48 0x2E 0xE5 SWAP14 DUP13 DUP10 0xA8 LOG4 LOG4 PUSH17 0x84C8630A40FBD91C82282547F164736F6C PUSH4 0x43000608 STOP CALLER "},"methodIdentifiers":{"latestRandomNumber()":"16fe73ec","latestRequestId()":"1aa46f59","mockRequestRandomNumber()":"409f967c","rawFulfillRandomness(bytes32,uint256)":"94985ddd","resetState()":"f9e19fa5"}}}}}