{
  "_format": "hh-sol-artifact-1",
  "contractName": "Counter",
  "sourceName": "contracts/Counter.sol",
  "abi": [
    {
      "inputs": [],
      "name": "increment",
      "outputs": [],
      "stateMutability": "nonpayable",
      "type": "function"
    },
    {
      "inputs": [],
      "name": "retrieve",
      "outputs": [
        {
          "internalType": "uint256",
          "name": "",
          "type": "uint256"
        }
      ],
      "stateMutability": "view",
      "type": "function"
    }
  ],
  "bytecode": "0x608060405260008055348015601357600080fd5b50609e806100226000396000f3fe6080604052348015600f57600080fd5b506004361060325760003560e01c80632e64cec1146037578063d09de08a14604f575b600080fd5b603d6057565b60408051918252519081900360200190f35b6055605d565b005b60005490565b60008054600101905556fea264697066735822122010fcaeb8e11bd5880f423f02cfb89ee7aea7fb933ebf248ae7965089558407ae64736f6c63430006080033",
  "linkReferences": {},
  "deployedLinkReferences": {}
}