{
  "_format": "hh-sol-artifact-1",
  "contractName": "Counter",
  "sourceName": "contracts/Counter.sol",
  "abi": [
    {
      "inputs": [],
      "name": "increment",
      "outputs": [],
      "stateMutability": "nonpayable",
      "type": "function"
    },
    {
      "inputs": [],
      "name": "retrieve",
      "outputs": [
        {
          "internalType": "uint256",
          "name": "",
          "type": "uint256"
        }
      ],
      "stateMutability": "view",
      "type": "function"
    }
  ],
  "bytecode": "0x60806040526000805534801561001457600080fd5b5060c0806100236000396000f3fe6080604052348015600f57600080fd5b506004361060325760003560e01c80632e64cec1146037578063d09de08a14604c575b600080fd5b60005460405190815260200160405180910390f35b60526054565b005b60005460609060016065565b600055565b60008219821115608557634e487b7160e01b600052601160045260246000fd5b50019056fea264697066735822122053c6caeb7fc5d278332ceb8f4ce41c876bbd83d98817b0a3593c70d2aa2edb2364736f6c63430008070033",
  "linkReferences": {},
  "deployedLinkReferences": {}
}