{
  "_format": "hh-sol-artifact-1",
  "contractName": "ConstellationMarket",
  "sourceName": "contracts/ConstellationMarket.sol",
  "abi": [
    {
      "inputs": [
        {
          "internalType": "address",
          "name": "coreAddress",
          "type": "address"
        }
      ],
      "stateMutability": "nonpayable",
      "type": "constructor"
    },
    {
      "inputs": [
        {
          "internalType": "uint256",
          "name": "id",
          "type": "uint256"
        }
      ],
      "name": "acceptBid",
      "outputs": [],
      "stateMutability": "nonpayable",
      "type": "function"
    },
    {
      "inputs": [
        {
          "internalType": "uint256",
          "name": "id",
          "type": "uint256"
        }
      ],
      "name": "acceptOffer",
      "outputs": [],
      "stateMutability": "nonpayable",
      "type": "function"
    },
    {
      "inputs": [
        {
          "internalType": "uint256",
          "name": "id",
          "type": "uint256"
        },
        {
          "internalType": "uint256[]",
          "name": "price",
          "type": "uint256[]"
        }
      ],
      "name": "addToMarket",
      "outputs": [],
      "stateMutability": "nonpayable",
      "type": "function"
    },
    {
      "inputs": [
        {
          "internalType": "uint256",
          "name": "id",
          "type": "uint256"
        },
        {
          "internalType": "uint256[]",
          "name": "nowBid",
          "type": "uint256[]"
        }
      ],
      "name": "bid",
      "outputs": [],
      "stateMutability": "payable",
      "type": "function"
    },
    {
      "inputs": [
        {
          "internalType": "uint256",
          "name": "id",
          "type": "uint256"
        }
      ],
      "name": "buyOption",
      "outputs": [],
      "stateMutability": "payable",
      "type": "function"
    },
    {
      "inputs": [
        {
          "internalType": "uint256",
          "name": "id",
          "type": "uint256"
        }
      ],
      "name": "checkOnlyIfNotActive",
      "outputs": [],
      "stateMutability": "view",
      "type": "function"
    },
    {
      "inputs": [],
      "name": "core",
      "outputs": [
        {
          "internalType": "contract IConstellationCore",
          "name": "",
          "type": "address"
        }
      ],
      "stateMutability": "view",
      "type": "function"
    },
    {
      "inputs": [
        {
          "internalType": "uint256[]",
          "name": "counterOffer",
          "type": "uint256[]"
        },
        {
          "internalType": "uint256",
          "name": "expires",
          "type": "uint256"
        },
        {
          "internalType": "address",
          "name": "collateralToken",
          "type": "address"
        },
        {
          "internalType": "uint256",
          "name": "collateralAmount",
          "type": "uint256"
        },
        {
          "internalType": "uint256",
          "name": "maxUnits",
          "type": "uint256"
        }
      ],
      "name": "createOption",
      "outputs": [
        {
          "internalType": "uint256",
          "name": "",
          "type": "uint256"
        }
      ],
      "stateMutability": "nonpayable",
      "type": "function"
    },
    {
      "inputs": [
        {
          "internalType": "uint256",
          "name": "id",
          "type": "uint256"
        }
      ],
      "name": "executeOption",
      "outputs": [],
      "stateMutability": "nonpayable",
      "type": "function"
    },
    {
      "inputs": [
        {
          "internalType": "uint256",
          "name": "id",
          "type": "uint256"
        },
        {
          "internalType": "uint256",
          "name": "additionalDuration",
          "type": "uint256"
        }
      ],
      "name": "extendBidDuration",
      "outputs": [],
      "stateMutability": "nonpayable",
      "type": "function"
    },
    {
      "inputs": [
        {
          "internalType": "uint256",
          "name": "id",
          "type": "uint256"
        },
        {
          "internalType": "uint256",
          "name": "additionalDuration",
          "type": "uint256"
        }
      ],
      "name": "extendOfferDuration",
      "outputs": [],
      "stateMutability": "nonpayable",
      "type": "function"
    },
    {
      "inputs": [],
      "name": "getConfig",
      "outputs": [
        {
          "internalType": "address",
          "name": "creator",
          "type": "address"
        },
        {
          "internalType": "uint256",
          "name": "totalOptionsNum",
          "type": "uint256"
        }
      ],
      "stateMutability": "view",
      "type": "function"
    },
    {
      "inputs": [
        {
          "internalType": "uint256",
          "name": "id",
          "type": "uint256"
        }
      ],
      "name": "getCounterOffer",
      "outputs": [
        {
          "internalType": "uint256[]",
          "name": "",
          "type": "uint256[]"
        }
      ],
      "stateMutability": "view",
      "type": "function"
    },
    {
      "inputs": [
        {
          "internalType": "uint256",
          "name": "id",
          "type": "uint256"
        }
      ],
      "name": "getExpiry",
      "outputs": [
        {
          "internalType": "uint256",
          "name": "expires",
          "type": "uint256"
        }
      ],
      "stateMutability": "view",
      "type": "function"
    },
    {
      "inputs": [
        {
          "internalType": "uint256",
          "name": "id",
          "type": "uint256"
        }
      ],
      "name": "getMarketListed",
      "outputs": [
        {
          "internalType": "bool",
          "name": "",
          "type": "bool"
        }
      ],
      "stateMutability": "view",
      "type": "function"
    },
    {
      "inputs": [
        {
          "internalType": "uint256",
          "name": "id",
          "type": "uint256"
        }
      ],
      "name": "getOption",
      "outputs": [
        {
          "components": [
            {
              "internalType": "address",
              "name": "creator",
              "type": "address"
            },
            {
              "internalType": "address",
              "name": "owner",
              "type": "address"
            },
            {
              "internalType": "address",
              "name": "collateralToken",
              "type": "address"
            },
            {
              "internalType": "uint256",
              "name": "collateralAmount",
              "type": "uint256"
            },
            {
              "internalType": "uint256[]",
              "name": "counterOffer",
              "type": "uint256[]"
            },
            {
              "internalType": "enum Constants.OptionStatus",
              "name": "status",
              "type": "uint8"
            },
            {
              "internalType": "uint256[]",
              "name": "price",
              "type": "uint256[]"
            },
            {
              "internalType": "uint256",
              "name": "expires",
              "type": "uint256"
            },
            {
              "internalType": "uint256",
              "name": "units",
              "type": "uint256"
            }
          ],
          "internalType": "struct Constants.Data",
          "name": "",
          "type": "tuple"
        }
      ],
      "stateMutability": "view",
      "type": "function"
    },
    {
      "inputs": [
        {
          "internalType": "uint256",
          "name": "id",
          "type": "uint256"
        }
      ],
      "name": "getPrice",
      "outputs": [
        {
          "internalType": "uint256[]",
          "name": "",
          "type": "uint256[]"
        }
      ],
      "stateMutability": "view",
      "type": "function"
    },
    {
      "inputs": [
        {
          "internalType": "uint256",
          "name": "id",
          "type": "uint256"
        }
      ],
      "name": "isListed",
      "outputs": [
        {
          "internalType": "bool",
          "name": "",
          "type": "bool"
        }
      ],
      "stateMutability": "view",
      "type": "function"
    },
    {
      "inputs": [
        {
          "internalType": "uint256",
          "name": "id",
          "type": "uint256"
        },
        {
          "internalType": "uint256[]",
          "name": "bidOffer",
          "type": "uint256[]"
        },
        {
          "internalType": "uint256[]",
          "name": "oracleData",
          "type": "uint256[]"
        }
      ],
      "name": "newBid",
      "outputs": [],
      "stateMutability": "nonpayable",
      "type": "function"
    },
    {
      "inputs": [
        {
          "internalType": "uint256",
          "name": "id",
          "type": "uint256"
        }
      ],
      "name": "newResetBids",
      "outputs": [],
      "stateMutability": "nonpayable",
      "type": "function"
    },
    {
      "inputs": [
        {
          "internalType": "uint256",
          "name": "id",
          "type": "uint256"
        },
        {
          "internalType": "uint256[]",
          "name": "offerPrice",
          "type": "uint256[]"
        }
      ],
      "name": "offer",
      "outputs": [],
      "stateMutability": "nonpayable",
      "type": "function"
    },
    {
      "inputs": [
        {
          "internalType": "uint256",
          "name": "id",
          "type": "uint256"
        },
        {
          "internalType": "uint256",
          "name": "amount",
          "type": "uint256"
        }
      ],
      "name": "offerAmt",
      "outputs": [],
      "stateMutability": "nonpayable",
      "type": "function"
    },
    {
      "inputs": [
        {
          "internalType": "uint256",
          "name": "id",
          "type": "uint256"
        }
      ],
      "name": "removeFromMarket",
      "outputs": [],
      "stateMutability": "nonpayable",
      "type": "function"
    },
    {
      "inputs": [
        {
          "internalType": "uint256",
          "name": "id",
          "type": "uint256"
        },
        {
          "internalType": "uint256",
          "name": "amount",
          "type": "uint256"
        }
      ],
      "name": "simpleBid",
      "outputs": [],
      "stateMutability": "payable",
      "type": "function"
    },
    {
      "inputs": [
        {
          "internalType": "uint256",
          "name": "id",
          "type": "uint256"
        }
      ],
      "name": "withdrawBid",
      "outputs": [],
      "stateMutability": "nonpayable",
      "type": "function"
    },
    {
      "inputs": [
        {
          "internalType": "uint256",
          "name": "id",
          "type": "uint256"
        }
      ],
      "name": "withdrawCollateral",
      "outputs": [],
      "stateMutability": "nonpayable",
      "type": "function"
    },
    {
      "inputs": [
        {
          "internalType": "uint256",
          "name": "id",
          "type": "uint256"
        }
      ],
      "name": "withdrawOffer",
      "outputs": [],
      "stateMutability": "nonpayable",
      "type": "function"
    },
    {
      "inputs": [
        {
          "internalType": "uint256",
          "name": "id",
          "type": "uint256"
        },
        {
          "internalType": "uint256",
          "name": "percent",
          "type": "uint256"
        }
      ],
      "name": "withdrawPartialBid",
      "outputs": [],
      "stateMutability": "nonpayable",
      "type": "function"
    }
  ],
  "bytecode": "0x60806040523480156200001157600080fd5b5060405162006c7b38038062006c7b83398101604081905262000034916200005a565b600080546001600160a01b0319166001600160a01b03929092169190911790556200008c565b6000602082840312156200006d57600080fd5b81516001600160a01b03811681146200008557600080fd5b9392505050565b616bdf806200009c6000396000f3fe6080604052600436106101b65760003560e01c80638610f045116100ec578063c3f909d41161008a578063f2467bd711610064578063f2467bd7146104f4578063f2f4eb2614610514578063fba225b91461054c578063fcce48831461055f57600080fd5b8063c3f909d414610480578063c815729d146104b4578063e7572230146104d457600080fd5b80639d6f563d116100c65780639d6f563d14610400578063a9c0c40114610420578063ab052d4d14610440578063bfaa97e41461046057600080fd5b80638610f045146103a057806387ad6f13146103c05780638f2fa71e146103e057600080fd5b806329feef881161015957806337fb409c1161013357806337fb409c146103135780633e2ad42d146103335780636112fe2e146103605780636457bd041461038057600080fd5b806329feef88146102b05780632b1fd58a146102c35780632f92e42c146102e357600080fd5b80631250b5ae116101955780631250b5ae1461021d57806313c726081461023d5780631a2ef3e0146102705780631ce5e9a61461028357600080fd5b806284ae96146101bb5780630eaaf4c8146101dd5780630f5eb055146101fd575b600080fd5b3480156101c757600080fd5b506101db6101d636600461665b565b61057f565b005b3480156101e957600080fd5b506101db6101f8366004616563565b6108fa565b34801561020957600080fd5b506101db610218366004616563565b610b92565b34801561022957600080fd5b506101db610238366004616595565b610bf1565b34801561024957600080fd5b5061025d610258366004616563565b610c5c565b6040519081526020015b60405180910390f35b6101db61027e36600461665b565b610cdf565b34801561028f57600080fd5b506102a361029e366004616563565b61108d565b6040516102679190616918565b6101db6102be366004616595565b61115b565b3480156102cf57600080fd5b506101db6102de366004616563565b611f95565b3480156102ef57600080fd5b506103036102fe366004616563565b61241e565b6040519015158152602001610267565b34801561031f57600080fd5b506101db61032e366004616563565b61249c565b34801561033f57600080fd5b5061035361034e366004616563565b6124f7565b604051610267919061676b565b34801561036c57600080fd5b506101db61037b366004616563565b612579565b34801561038c57600080fd5b506101db61039b366004616563565b6125aa565b3480156103ac57600080fd5b506101db6103bb366004616563565b6125db565b3480156103cc57600080fd5b5061025d6103db36600461645e565b612943565b3480156103ec57600080fd5b506101db6103fb3660046165e1565b6129db565b34801561040c57600080fd5b506101db61041b366004616595565b6130b5565b34801561042c57600080fd5b506101db61043b36600461665b565b61388e565b34801561044c57600080fd5b506101db61045b36600461665b565b613b90565b34801561046c57600080fd5b506101db61047b36600461665b565b613f0d565b34801561048c57600080fd5b50610495614357565b604080516001600160a01b039093168352602083019190915201610267565b3480156104c057600080fd5b506101db6104cf366004616563565b6143d8565b3480156104e057600080fd5b506103536104ef366004616563565b61477a565b34801561050057600080fd5b506101db61050f366004616563565b6147ac565b34801561052057600080fd5b50600054610534906001600160a01b031681565b6040516001600160a01b039091168152602001610267565b6101db61055a366004616563565b614930565b34801561056b57600080fd5b5061030361057a366004616563565b614993565b6000805460405163eba1b60b60e01b8152600481018590523360248201528492916001600160a01b03169063eba1b60b9060440160206040518083038186803b1580156105cb57600080fd5b505afa1580156105df573d6000803e3d6000fd5b505050506040513d601f19601f82011682018060405250810190610603919061657c565b116106555760405162461bcd60e51b815260206004820152601860248201527f4e6f2076616c69642062696420746f207769746864726177000000000000000060448201526064015b60405180910390fd5b600082118015610666575060648211155b6106b25760405162461bcd60e51b815260206004820152601260248201527f496e76616c69642070657263656e746167650000000000000000000000000000604482015260640161064c565b6000805460405163eba1b60b60e01b8152600481018690523360248201526001600160a01b039091169063eba1b60b9060440160206040518083038186803b1580156106fd57600080fd5b505afa158015610711573d6000803e3d6000fd5b505050506040513d601f19601f82011682018060405250810190610735919061657c565b9050600061074e606461074884876149c5565b906149d8565b905060008054906101000a90046001600160a01b03166001600160a01b031663de5490ff6040518163ffffffff1660e01b815260040160206040518083038186803b15801561079c57600080fd5b505afa1580156107b0573d6000803e3d6000fd5b505050506040513d601f19601f820116820180604052508101906107d4919061657c565b6107de83836149e4565b101561082c5760405162461bcd60e51b815260206004820152601b60248201527f52656d61696e696e67206269642062656c6f77206d696e696d756d0000000000604482015260640161064c565b6000546040516387cc098f60e01b81523360048201526001600160a01b03909116906387cc098f90602401600060405180830381600087803b15801561087157600080fd5b505af1158015610885573d6000803e3d6000fd5b505060405133925083156108fc02915083906000818181858888f193505050501580156108b6573d6000803e3d6000fd5b50604080518681526020810183905233917fd27c611a7685444d3c695d592cc9cc0c35e45402f9188162427685f68a09099191015b60405180910390a25050505050565b6000805460405163eba1b60b60e01b8152600481018490523360248201528392916001600160a01b03169063eba1b60b9060440160206040518083038186803b15801561094657600080fd5b505afa15801561095a573d6000803e3d6000fd5b505050506040513d601f19601f8201168201806040525081019061097e919061657c565b116109cb5760405162461bcd60e51b815260206004820152601860248201527f4e6f2076616c69642062696420746f2077697468647261770000000000000000604482015260640161064c565b6000805460405163eba1b60b60e01b8152600481018590523360248201526001600160a01b039091169063eba1b60b9060440160206040518083038186803b158015610a1657600080fd5b505afa158015610a2a573d6000803e3d6000fd5b505050506040513d601f19601f82011682018060405250810190610a4e919061657c565b6000546040516323ca219160e21b8152600481018690529192506001600160a01b031690638f2886449060240160206040518083038186803b158015610a9357600080fd5b505afa158015610aa7573d6000803e3d6000fd5b505050506040513d601f19601f82011682018060405250810190610acb919061657c565b8110610b195760405162461bcd60e51b815260206004820152601b60248201527f43616e6e6f742077697468647261772068696768657374206269640000000000604482015260640161064c565b610b2383336149f0565b604051339082156108fc029083906000818181858888f19350505050158015610b50573d6000803e3d6000fd5b50604080513381526020810183905284917f8f8619524e8d462cead34604bd2247ede24175801481e4d0b8059ac8aa41c30191015b60405180910390a2505050565b600054604051630f5eb05560e01b8152600481018390526001600160a01b0390911690630f5eb0559060240160006040518083038186803b158015610bd657600080fd5b505afa158015610bea573d6000803e3d6000fd5b5050505050565b6000546040516309285ad760e11b81526001600160a01b0390911690631250b5ae90610c25908690869086906004016169da565b600060405180830381600087803b158015610c3f57600080fd5b505af1158015610c53573d6000803e3d6000fd5b50505050505050565b60008054604051630278e4c160e31b8152600481018490526001600160a01b03909116906313c726089060240160206040518083038186803b158015610ca157600080fd5b505afa158015610cb5573d6000803e3d6000fd5b505050506040513d601f19601f82011682018060405250810190610cd9919061657c565b92915050565b8060008111610d005760405162461bcd60e51b815260040161064c906168bb565b600054604051630e72f4d360e11b8152600481018590526001600160a01b0390911690631ce5e9a69060240160006040518083038186803b158015610d4457600080fd5b505afa158015610d58573d6000803e3d6000fd5b505050506040513d6000823e601f3d908101601f19168201604052610d80919081019061652e565b60e00151804210610da35760405162461bcd60e51b815260040161064c9061677e565b60005460405163d9548e5360e01b81526004810186905285916001600160a01b03169063d9548e539060240160206040518083038186803b158015610de757600080fd5b505afa158015610dfb573d6000803e3d6000fd5b505050506040513d601f19601f82011682018060405250810190610e1f919061650c565b15610e565760405162461bcd60e51b8152602060048201526007602482015266115e1c1a5c995960ca1b604482015260640161064c565b600054604051630e72f4d360e11b8152600481018790526001600160a01b0390911690631ce5e9a69060240160006040518083038186803b158015610e9a57600080fd5b505afa158015610eae573d6000803e3d6000fd5b505050506040513d6000823e601f3d908101601f19168201604052610ed6919081019061652e565b602001516001600160a01b0316336001600160a01b03161415610f475760405162461bcd60e51b8152602060048201526024808201527f4f776e65722063616e6e6f7420626964206f6e207468656972206f776e206f706044820152633a34b7b760e11b606482015260840161064c565b6000805460405163eba1b60b60e01b8152600481018890523360248201526001600160a01b039091169063eba1b60b9060440160206040518083038186803b158015610f9257600080fd5b505afa158015610fa6573d6000803e3d6000fd5b505050506040513d601f19601f82011682018060405250810190610fca919061657c565b9050801561101a5760405162461bcd60e51b815260206004820152601e60248201527f596f7520616c7265616479206861766520616e20616374697665206269640000604482015260640161064c565b60005460405163d97fef0160e01b815260048101889052336024820152604481018790526001600160a01b039091169063d97fef0190606401600060405180830381600087803b15801561106d57600080fd5b505af1158015611081573d6000803e3d6000fd5b50505050505050505050565b6110db6040805161012081018252600080825260208201819052918101829052606080820183905260808201529060a082019081526020016060815260200160008152602001600081525090565b600054604051630e72f4d360e11b8152600481018490526001600160a01b0390911690631ce5e9a69060240160006040518083038186803b15801561111f57600080fd5b505afa158015611133573d6000803e3d6000fd5b505050506040513d6000823e601f3d908101601f19168201604052610cd9919081019061652e565b600054604051630e72f4d360e11b8152600481018590526001600160a01b0390911690631ce5e9a69060240160006040518083038186803b15801561119f57600080fd5b505afa1580156111b3573d6000803e3d6000fd5b505050506040513d6000823e601f3d908101601f191682016040526111db919081019061652e565b602001516001600160a01b0381166112455760405162461bcd60e51b815260206004820152602760248201527f496e76616c696420616464726573733a20416464726573732063616e6e6f74206044820152666265207a65726f60c81b606482015260840161064c565b600054604051630278e4c160e31b8152600481018690526001600160a01b03909116906313c726089060240160206040518083038186803b15801561128957600080fd5b505afa15801561129d573d6000803e3d6000fd5b505050506040513d601f19601f820116820180604052508101906112c1919061657c565b8042106112e05760405162461bcd60e51b815260040161064c9061677e565b60005460405163d9548e5360e01b81526004810187905286916001600160a01b03169063d9548e539060240160206040518083038186803b15801561132457600080fd5b505afa158015611338573d6000803e3d6000fd5b505050506040513d601f19601f8201168201806040525081019061135c919061650c565b156113935760405162461bcd60e51b8152602060048201526007602482015266115e1c1a5c995960ca1b604482015260640161064c565b848460008181106113a6576113a6616b65565b90506020020135600081116113cd5760405162461bcd60e51b815260040161064c906168bb565b60005460405163a624a1df60e01b81526004810189905288916001600160a01b03169063a624a1df9060240160206040518083038186803b15801561141157600080fd5b505afa158015611425573d6000803e3d6000fd5b505050506040513d601f19601f82011682018060405250810190611449919061650c565b156114885760405162461bcd60e51b815260206004820152600f60248201526e29ba30b632903134b217b7b33332b960891b604482015260640161064c565b8686600181811061149b5761149b616b65565b90506020020135600081116115185760405162461bcd60e51b815260206004820152603e60248201527f496e76616c696420636f756e746572206f666665723a20436f756e746572206f60448201527f66666572206d7573742062652067726561746572207468616e207a65726f0000606482015260840161064c565b8787600281811061152b5761152b616b65565b600054604051630e72f4d360e11b8152600481018e90526020929092029390930135926001600160a01b03169150631ce5e9a69060240160006040518083038186803b15801561157a57600080fd5b505afa15801561158e573d6000803e3d6000fd5b505050506040513d6000823e601f3d908101601f191682016040526115b6919081019061652e565b61010001516000821180156115cb5750808211155b6115e75760405162461bcd60e51b815260040161064c906167db565b62030d405a1161162e5760405162461bcd60e51b815260206004820152601260248201527111d85cc81b1a5b5a5d08195e18d95959195960721b604482015260640161064c565b60008054604051630e72f4d360e11b8152600481018e90526001600160a01b0390911690631ce5e9a69060240160006040518083038186803b15801561167357600080fd5b505afa158015611687573d6000803e3d6000fd5b505050506040513d6000823e601f3d908101601f191682016040526116af919081019061652e565b60a0015160028111156116c4576116c4616b4f565b146117115760405162461bcd60e51b815260206004820152601b60248201527f4f7074696f6e206e6f7420696e20637265617465642073746174650000000000604482015260640161064c565b60005460405163eba1b60b60e01b8152600481018d90523360248201526001600160a01b039091169063eba1b60b9060440160206040518083038186803b15801561175b57600080fd5b505afa15801561176f573d6000803e3d6000fd5b505050506040513d601f19601f82011682018060405250810190611793919061657c565b156117e05760405162461bcd60e51b815260206004820152601e60248201527f596f7520616c7265616479206861766520616e20616374697665206269640000604482015260640161064c565b60008054906101000a90046001600160a01b03166001600160a01b031663208ff02e6040518163ffffffff1660e01b815260040160206040518083038186803b15801561182c57600080fd5b505afa158015611840573d6000803e3d6000fd5b505050506040513d601f19601f82011682018060405250810190611864919061657c565b6000546040516337655b0f60e11b81523360048201526001600160a01b0390911690636ecab61e9060240160206040518083038186803b1580156118a757600080fd5b505afa1580156118bb573d6000803e3d6000fd5b505050506040513d601f19601f820116820180604052508101906118df919061657c565b1061192c5760405162461bcd60e51b815260206004820152601e60248201527f4d6178696d756d206e756d626572206f66206269647320726561636865640000604482015260640161064c565b60008060009054906101000a90046001600160a01b03166001600160a01b031663208ff02e6040518163ffffffff1660e01b815260040160206040518083038186803b15801561197b57600080fd5b505afa15801561198f573d6000803e3d6000fd5b505050506040513d601f19601f820116820180604052508101906119b3919061657c565b905060006119fc8c8c60018181106119cd576119cd616b65565b905060200201358d8d60008181106119e7576119e7616b65565b90506020020135614a4790919063ffffffff16565b905060008054906101000a90046001600160a01b03166001600160a01b03166350a8150b8e6040518263ffffffff1660e01b8152600401611a3f91815260200190565b60206040518083038186803b158015611a5757600080fd5b505afa158015611a6b573d6000803e3d6000fd5b505050506040513d601f19601f82011682018060405250810190611a8f919061657c565b811115611aed5760405162461bcd60e51b815260206004820152602660248201527f426964202b207072656d69756d206578636565647320636f6c6c61746572616c604482015265081b1a5b5a5d60d21b606482015260840161064c565b600054604051630e72f4d360e11b8152600481018f90526001600160a01b0390911690631ce5e9a69060240160006040518083038186803b158015611b3157600080fd5b505afa158015611b45573d6000803e3d6000fd5b505050506040513d6000823e601f3d908101601f19168201604052611b6d919081019061652e565b60409081015190516323b872dd60e01b8152336004820152306024820152604481018390526001600160a01b03909116906323b872dd90606401602060405180830381600087803b158015611bc157600080fd5b505af1158015611bd5573d6000803e3d6000fd5b505050506040513d601f19601f82011682018060405250810190611bf9919061650c565b611c575760405162461bcd60e51b815260206004820152602960248201527f4661696c656420746f207472616e7366657220636f6c6c61746572616c20616e60448201526864207072656d69756d60b81b606482015260840161064c565b60008060009054906101000a90046001600160a01b03166001600160a01b031663eba1b60b8f336040518363ffffffff1660e01b8152600401611cad9291909182526001600160a01b0316602082015260400190565b60206040518083038186803b158015611cc557600080fd5b505afa158015611cd9573d6000803e3d6000fd5b505050506040513d601f19601f82011682018060405250810190611cfd919061657c565b90508015611d4d5760405162461bcd60e51b815260206004820152601e60248201527f596f7520616c7265616479206861766520616e20616374697665206269640000604482015260640161064c565b60008054906101000a90046001600160a01b03166001600160a01b031663d97fef018f33856040518463ffffffff1660e01b8152600401611daa939291909283526001600160a01b03919091166020830152604082015260600190565b600060405180830381600087803b158015611dc457600080fd5b505af1158015611dd8573d6000803e3d6000fd5b50506000546040516337655b0f60e11b81523360048201528693506001600160a01b039091169150636ecab61e9060240160206040518083038186803b158015611e2157600080fd5b505afa158015611e35573d6000803e3d6000fd5b505050506040513d601f19601f82011682018060405250810190611e59919061657c565b10611ea65760405162461bcd60e51b815260206004820152601e60248201527f4d6178696d756d206e756d626572206f66206269647320726561636865640000604482015260640161064c565b6000546040516393e1b8a760e01b81523360048201526001600160a01b03909116906393e1b8a790602401600060405180830381600087803b158015611eeb57600080fd5b505af1158015611eff573d6000803e3d6000fd5b50505050611f408e8e8e80806020026020016040519081016040528093929190818152602001838360200280828437600092019190915250614a5392505050565b336001600160a01b03167f31f9a3ccd05dd54b3523cba1ae416ccf9842696d7295f62824dfacab1a957bf78f8f8f604051611f7d939291906169da565b60405180910390a25050505050505050505050505050565b6000546040516346fbf41f60e11b81526004810183905282916001600160a01b031690638df7e83e9060240160206040518083038186803b158015611fd957600080fd5b505afa158015611fed573d6000803e3d6000fd5b505050506040513d601f19601f82011682018060405250810190612011919061650c565b61202d5760405162461bcd60e51b815260040161064c9061685e565b60005460405163d9548e5360e01b81526004810184905283916001600160a01b03169063d9548e539060240160206040518083038186803b15801561207157600080fd5b505afa158015612085573d6000803e3d6000fd5b505050506040513d601f19601f820116820180604052508101906120a9919061650c565b156120e05760405162461bcd60e51b8152602060048201526007602482015266115e1c1a5c995960ca1b604482015260640161064c565b600054604051630e72f4d360e11b8152600481018590526001916001600160a01b031690631ce5e9a69060240160006040518083038186803b15801561212557600080fd5b505afa158015612139573d6000803e3d6000fd5b505050506040513d6000823e601f3d908101601f19168201604052612161919081019061652e565b60a00151600281111561217657612176616b4f565b146121bb5760405162461bcd60e51b81526020600482015260156024820152744f7074696f6e206973206e6f74206f6e2073616c6560581b604482015260640161064c565b6000806121c785614bc2565b915091506000811161220b5760405162461bcd60e51b815260206004820152600d60248201526c4e6f2076616c6964206269647360981b604482015260640161064c565b612216858383614e2e565b61221f8561522b565b60008054604051630e72f4d360e11b8152600481018890526001600160a01b0390911690631ce5e9a69060240160006040518083038186803b15801561226457600080fd5b505afa158015612278573d6000803e3d6000fd5b505050506040513d6000823e601f3d908101601f191682016040526122a0919081019061652e565b60a0019060028111156122b5576122b5616b4f565b908160028111156122c8576122c8616b4f565b905250600054604051630e72f4d360e11b8152600481018790526001600160a01b0390911690631ce5e9a69060240160006040518083038186803b15801561230f57600080fd5b505afa158015612323573d6000803e3d6000fd5b505050506040513d6000823e601f3d908101601f1916820160405261234b919081019061652e565b606060c09190910152600054604051630e72f4d360e11b81526004810187905233917f23ad4783d95ee2d3730fae4843757e102bd28a58ef48e2c6f8fe93aef120f5fb9188916124099186916001600160a01b031690631ce5e9a6906024015b60006040518083038186803b1580156123c357600080fd5b505afa1580156123d7573d6000803e3d6000fd5b505050506040513d6000823e601f3d908101601f191682016040526123ff919081019061652e565b6060015190614a47565b604080519283526020830191909152016108eb565b60008054604051630be4b90b60e21b8152600481018490526001600160a01b0390911690632f92e42c906024015b60206040518083038186803b15801561246457600080fd5b505afa158015612478573d6000803e3d6000fd5b505050506040513d601f19601f82011682018060405250810190610cd9919061650c565b600054604051630dfed02760e21b8152600481018390526001600160a01b03909116906337fb409c906024015b600060405180830381600087803b1580156124e357600080fd5b505af1158015610bea573d6000803e3d6000fd5b600054604051633e2ad42d60e01b8152600481018390526060916001600160a01b031690633e2ad42d906024015b60006040518083038186803b15801561253d57600080fd5b505afa158015612551573d6000803e3d6000fd5b505050506040513d6000823e601f3d908101601f19168201604052610cd991908101906164cf565b6000546040516330897f1760e11b8152600481018390526001600160a01b0390911690636112fe2e906024016124c9565b600054604051631915ef4160e21b8152600481018390526001600160a01b0390911690636457bd04906024016124c9565b60008054604051632e54833960e21b8152600481018490523360248201528392916001600160a01b03169063b9520ce49060440160206040518083038186803b15801561262757600080fd5b505afa15801561263b573d6000803e3d6000fd5b505050506040513d601f19601f8201168201806040525081019061265f919061657c565b116126ac5760405162461bcd60e51b815260206004820152601a60248201527f4e6f2076616c6964206f6666657220746f207769746864726177000000000000604482015260640161064c565b60008054604051632e54833960e21b8152600481018590523360248201526001600160a01b039091169063b9520ce49060440160206040518083038186803b1580156126f757600080fd5b505afa15801561270b573d6000803e3d6000fd5b505050506040513d601f19601f8201168201806040525081019061272f919061657c565b600054604051631d525f0f60e11b8152600481018690529192506001600160a01b031690633aa4be1e9060240160206040518083038186803b15801561277457600080fd5b505afa158015612788573d6000803e3d6000fd5b505050506040513d601f19601f820116820180604052508101906127ac919061657c565b81106127fa5760405162461bcd60e51b815260206004820152601c60248201527f43616e6e6f74207769746864726177206c6f77657374206f6666657200000000604482015260640161064c565b61280483336153fb565b600054604051630e72f4d360e11b8152600481018590526001600160a01b0390911690631ce5e9a69060240160006040518083038186803b15801561284857600080fd5b505afa15801561285c573d6000803e3d6000fd5b505050506040513d6000823e601f3d908101601f19168201604052612884919081019061652e565b604090810151905163a9059cbb60e01b8152336004820152602481018390526001600160a01b039091169063a9059cbb90604401602060405180830381600087803b1580156128d257600080fd5b505af11580156128e6573d6000803e3d6000fd5b505050506040513d601f19601f8201168201806040525081019061290a919061650c565b50604080513381526020810183905284917f60c7613a8b8ce872a461e88b0f376098063e67e4df6d0aa6a55790fe81acdb589101610b85565b600080546040516387ad6f1360e01b81526001600160a01b03909116906387ad6f139061297e908a908a908a908a908a908a90600401616729565b602060405180830381600087803b15801561299857600080fd5b505af11580156129ac573d6000803e3d6000fd5b505050506040513d601f19601f820116820180604052508101906129d0919061657c565b979650505050505050565b600054604051630e72f4d360e11b8152600481018790526001600160a01b0390911690631ce5e9a69060240160006040518083038186803b158015612a1f57600080fd5b505afa158015612a33573d6000803e3d6000fd5b505050506040513d6000823e601f3d908101601f19168201604052612a5b919081019061652e565b602001516001600160a01b038116612ac55760405162461bcd60e51b815260206004820152602760248201527f496e76616c696420616464726573733a20416464726573732063616e6e6f74206044820152666265207a65726f60c81b606482015260840161064c565b600054604051630278e4c160e31b8152600481018890526001600160a01b03909116906313c726089060240160206040518083038186803b158015612b0957600080fd5b505afa158015612b1d573d6000803e3d6000fd5b505050506040513d601f19601f82011682018060405250810190612b41919061657c565b804210612b605760405162461bcd60e51b815260040161064c9061677e565b60005460405163d9548e5360e01b81526004810189905288916001600160a01b03169063d9548e539060240160206040518083038186803b158015612ba457600080fd5b505afa158015612bb8573d6000803e3d6000fd5b505050506040513d601f19601f82011682018060405250810190612bdc919061650c565b15612c135760405162461bcd60e51b8152602060048201526007602482015266115e1c1a5c995960ca1b604482015260640161064c565b86866000818110612c2657612c26616b65565b9050602002013560008111612c4d5760405162461bcd60e51b815260040161064c906168bb565b60005460405163a624a1df60e01b8152600481018b90528a916001600160a01b03169063a624a1df9060240160206040518083038186803b158015612c9157600080fd5b505afa158015612ca5573d6000803e3d6000fd5b505050506040513d601f19601f82011682018060405250810190612cc9919061650c565b15612d085760405162461bcd60e51b815260206004820152600f60248201526e29ba30b632903134b217b7b33332b960891b604482015260640161064c565b88886001818110612d1b57612d1b616b65565b9050602002013560008111612d985760405162461bcd60e51b815260206004820152603e60248201527f496e76616c696420636f756e746572206f666665723a20436f756e746572206f60448201527f66666572206d7573742062652067726561746572207468616e207a65726f0000606482015260840161064c565b89896002818110612dab57612dab616b65565b600054604051630e72f4d360e11b815260209092029390930135926001600160a01b03169150631ce5e9a690612de9908f9060040190815260200190565b60006040518083038186803b158015612e0157600080fd5b505afa158015612e15573d6000803e3d6000fd5b505050506040513d6000823e601f3d908101601f19168201604052612e3d919081019061652e565b6101000151600082118015612e525750808211155b612e6e5760405162461bcd60e51b815260040161064c906167db565b62030d405a11612eb55760405162461bcd60e51b815260206004820152601260248201527111d85cc81b1a5b5a5d08195e18d95959195960721b604482015260640161064c565b6000808054906101000a90046001600160a01b03166001600160a01b0316631ce5e9a68f6040518263ffffffff1660e01b8152600401612ef791815260200190565b60006040518083038186803b158015612f0f57600080fd5b505afa158015612f23573d6000803e3d6000fd5b505050506040513d6000823e601f3d908101601f19168201604052612f4b919081019061652e565b60a001516002811115612f6057612f60616b4f565b14612fad5760405162461bcd60e51b815260206004820152601b60248201527f4f7074696f6e206e6f7420696e20637265617465642073746174650000000000604482015260640161064c565b6000612fdf8d8d6001818110612fc557612fc5616b65565b905060200201358e8e60008181106119e7576119e7616b65565b9050612feb8e8261543c565b612ff58e82615680565b6130748e8e8e80806020026020016040519081016040528093929190818152602001838360200280828437600081840152601f19601f820116905080830192505050505050508d8d8080602002602001604051908101604052809392919081815260200183836020028082843760009201919091525061597592505050565b336001600160a01b03167fc045e6c23ebb61636a29c745f7926eff2761be77456e1b2f2e49e4aea492ab448f8f8f8f8f604051611f7d9594939291906169fd565b600054604051630e72f4d360e11b8152600481018590526001600160a01b0390911690631ce5e9a69060240160006040518083038186803b1580156130f957600080fd5b505afa15801561310d573d6000803e3d6000fd5b505050506040513d6000823e601f3d908101601f19168201604052613135919081019061652e565b60e001518042106131585760405162461bcd60e51b815260040161064c9061677e565b60005460405163d9548e5360e01b81526004810186905285916001600160a01b03169063d9548e539060240160206040518083038186803b15801561319c57600080fd5b505afa1580156131b0573d6000803e3d6000fd5b505050506040513d601f19601f820116820180604052508101906131d4919061650c565b1561320b5760405162461bcd60e51b8152602060048201526007602482015266115e1c1a5c995960ca1b604482015260640161064c565b8383600081811061321e5761321e616b65565b90506020020135600081116132455760405162461bcd60e51b815260040161064c906168bb565b60005460405163a624a1df60e01b81526004810188905287916001600160a01b03169063a624a1df9060240160206040518083038186803b15801561328957600080fd5b505afa15801561329d573d6000803e3d6000fd5b505050506040513d601f19601f820116820180604052508101906132c1919061650c565b156133005760405162461bcd60e51b815260206004820152600f60248201526e29ba30b632903134b217b7b33332b960891b604482015260640161064c565b8585600181811061331357613313616b65565b90506020020135600081116133905760405162461bcd60e51b815260206004820152603e60248201527f496e76616c696420636f756e746572206f666665723a20436f756e746572206f60448201527f66666572206d7573742062652067726561746572207468616e207a65726f0000606482015260840161064c565b868660028181106133a3576133a3616b65565b600054604051630e72f4d360e11b8152600481018d90526020929092029390930135926001600160a01b03169150631ce5e9a69060240160006040518083038186803b1580156133f257600080fd5b505afa158015613406573d6000803e3d6000fd5b505050506040513d6000823e601f3d908101601f1916820160405261342e919081019061652e565b61010001516000821180156134435750808211155b61345f5760405162461bcd60e51b815260040161064c906167db565b62030d405a116134a65760405162461bcd60e51b815260206004820152601260248201527111d85cc81b1a5b5a5d08195e18d95959195960721b604482015260640161064c565b60008054604051630e72f4d360e11b8152600481018d90526001600160a01b0390911690631ce5e9a69060240160006040518083038186803b1580156134eb57600080fd5b505afa1580156134ff573d6000803e3d6000fd5b505050506040513d6000823e601f3d908101601f19168201604052613527919081019061652e565b60a00151600281111561353c5761353c616b4f565b146135895760405162461bcd60e51b815260206004820152601b60248201527f4f7074696f6e206e6f7420696e20637265617465642073746174650000000000604482015260640161064c565b60006135bb8a8a60018181106135a1576135a1616b65565b905060200201358b8b60008181106119e7576119e7616b65565b600054604051630e72f4d360e11b8152600481018e90529192506001600160a01b031690631ce5e9a69060240160006040518083038186803b15801561360057600080fd5b505afa158015613614573d6000803e3d6000fd5b505050506040513d6000823e601f3d908101601f1916820160405261363c919081019061652e565b60409081015190516323b872dd60e01b8152336004820152306024820152604481018390526001600160a01b03909116906323b872dd90606401602060405180830381600087803b15801561369057600080fd5b505af11580156136a4573d6000803e3d6000fd5b505050506040513d601f19601f820116820180604052508101906136c8919061650c565b6137265760405162461bcd60e51b815260206004820152602960248201527f4661696c656420746f207472616e7366657220636f6c6c61746572616c20616e60448201526864207072656d69756d60b81b606482015260840161064c565b600054604051630f36e6cf60e01b8152600481018d9052336024820152604481018390526001600160a01b0390911690630f36e6cf90606401600060405180830381600087803b15801561377957600080fd5b505af115801561378d573d6000803e3d6000fd5b50506000546001600160a01b03169150634d726edc90508c8c8c60038181106137b8576137b8616b65565b6040516001600160e01b031960e087901b1681526004810194909452602002919091013560248301525033604482015260640160206040518083038186803b15801561380357600080fd5b505afa158015613817573d6000803e3d6000fd5b505050506040513d601f19601f8201168201806040525081019061383b9190616413565b50336001600160a01b03167f86db197b0fed294a0788fddc051d1bdb1ec99dcfd155d9aecdd040a812a97ef28c8c8c604051613879939291906169da565b60405180910390a25050505050505050505050565b6000546040516346fbf41f60e11b81526004810184905283916001600160a01b031690638df7e83e9060240160206040518083038186803b1580156138d257600080fd5b505afa1580156138e6573d6000803e3d6000fd5b505050506040513d601f19601f8201168201806040525081019061390a919061650c565b6139265760405162461bcd60e51b815260040161064c9061685e565b60005460405163d9548e5360e01b81526004810185905284916001600160a01b03169063d9548e539060240160206040518083038186803b15801561396a57600080fd5b505afa15801561397e573d6000803e3d6000fd5b505050506040513d601f19601f820116820180604052508101906139a2919061650c565b156139d95760405162461bcd60e51b8152602060048201526007602482015266115e1c1a5c995960ca1b604482015260640161064c565b60008311613a3f5760405162461bcd60e51b815260206004820152602d60248201527f4164646974696f6e616c206475726174696f6e206d757374206265206772656160448201526c746572207468616e207a65726f60981b606482015260840161064c565b600054604051630e72f4d360e11b815260048101869052613ad09185916001600160a01b0390911690631ce5e9a6906024015b60006040518083038186803b158015613a8a57600080fd5b505afa158015613a9e573d6000803e3d6000fd5b505050506040513d6000823e601f3d908101601f19168201604052613ac6919081019061652e565b60e0015190614a47565b600054604051630e72f4d360e11b8152600481018790526001600160a01b0390911690631ce5e9a69060240160006040518083038186803b158015613b1457600080fd5b505afa158015613b28573d6000803e3d6000fd5b505050506040513d6000823e601f3d908101601f19168201604052613b50919081019061652e565b60e0015260405183815284907fa1d21773f74894dc4c73f0fdf0d1aa24c0b027821d41e2ed9942b4a46132ee5a906020015b60405180910390a250505050565b6000546040516346fbf41f60e11b81526004810184905283916001600160a01b031690638df7e83e9060240160206040518083038186803b158015613bd457600080fd5b505afa158015613be8573d6000803e3d6000fd5b505050506040513d601f19601f82011682018060405250810190613c0c919061650c565b613c285760405162461bcd60e51b815260040161064c9061685e565b60005460405163d9548e5360e01b81526004810185905284916001600160a01b03169063d9548e539060240160206040518083038186803b158015613c6c57600080fd5b505afa158015613c80573d6000803e3d6000fd5b505050506040513d601f19601f82011682018060405250810190613ca4919061650c565b15613cdb5760405162461bcd60e51b8152602060048201526007602482015266115e1c1a5c995960ca1b604482015260640161064c565b60008311613d415760405162461bcd60e51b815260206004820152602d60248201527f4164646974696f6e616c206475726174696f6e206d757374206265206772656160448201526c746572207468616e207a65726f60981b606482015260840161064c565b60008054604051630e72f4d360e11b815260048101879052613d799186916001600160a01b0390911690631ce5e9a690602401613a72565b600054604051630e72f4d360e11b8152600481018890529192506001600160a01b031690631ce5e9a69060240160006040518083038186803b158015613dbe57600080fd5b505afa158015613dd2573d6000803e3d6000fd5b505050506040513d6000823e601f3d908101601f19168201604052613dfa919081019061652e565b60e001518111613e575760405162461bcd60e51b815260206004820152602260248201527f4f766572666c6f7720696e2065787069726174696f6e2063616c63756c61746960448201526137b760f11b606482015260840161064c565b600054604051630e72f4d360e11b81526004810187905282916001600160a01b031690631ce5e9a69060240160006040518083038186803b158015613e9b57600080fd5b505afa158015613eaf573d6000803e3d6000fd5b505050506040513d6000823e601f3d908101601f19168201604052613ed7919081019061652e565b60e0015260405184815285907f85f8dc1c9620d5bfbc44ab7590babb99ca4e416de26d99b2610fe4179848ca36906020016108eb565b6000546040516346fbf41f60e11b81526004810184905283916001600160a01b031690638df7e83e9060240160206040518083038186803b158015613f5157600080fd5b505afa158015613f65573d6000803e3d6000fd5b505050506040513d601f19601f82011682018060405250810190613f89919061650c565b613fa55760405162461bcd60e51b815260040161064c9061685e565b8160008111613fc65760405162461bcd60e51b815260040161064c906168bb565b600054604051630e72f4d360e11b8152600481018690526001600160a01b0390911690631ce5e9a69060240160006040518083038186803b15801561400a57600080fd5b505afa15801561401e573d6000803e3d6000fd5b505050506040513d6000823e601f3d908101601f19168201604052614046919081019061652e565b60e001518042106140695760405162461bcd60e51b815260040161064c9061677e565b60005460405163d9548e5360e01b81526004810187905286916001600160a01b03169063d9548e539060240160206040518083038186803b1580156140ad57600080fd5b505afa1580156140c1573d6000803e3d6000fd5b505050506040513d601f19601f820116820180604052508101906140e5919061650c565b1561411c5760405162461bcd60e51b8152602060048201526007602482015266115e1c1a5c995960ca1b604482015260640161064c565b600054604051630e72f4d360e11b8152600481018890526001600160a01b0390911690631ce5e9a69060240160006040518083038186803b15801561416057600080fd5b505afa158015614174573d6000803e3d6000fd5b505050506040513d6000823e601f3d908101601f1916820160405261419c919081019061652e565b602001516001600160a01b0316336001600160a01b031614156142105760405162461bcd60e51b815260206004820152602660248201527f4f776e65722063616e6e6f74206f66666572206f6e207468656972206f776e2060448201526537b83a34b7b760d11b606482015260840161064c565b60008054604051632e54833960e21b8152600481018990523360248201526001600160a01b039091169063b9520ce49060440160206040518083038186803b15801561425b57600080fd5b505afa15801561426f573d6000803e3d6000fd5b505050506040513d601f19601f82011682018060405250810190614293919061657c565b905080156142e35760405162461bcd60e51b815260206004820181905260248201527f596f7520616c7265616479206861766520616e20616374697665206f66666572604482015260640161064c565b600054604051630f36e6cf60e01b815260048101899052336024820152604481018890526001600160a01b0390911690630f36e6cf90606401600060405180830381600087803b15801561433657600080fd5b505af115801561434a573d6000803e3d6000fd5b5050505050505050505050565b60008054604080516330fe427560e21b8152815184936001600160a01b03169263c3f909d49260048082019391829003018186803b15801561439857600080fd5b505afa1580156143ac573d6000803e3d6000fd5b505050506040513d601f19601f820116820180604052508101906143d09190616430565b915091509091565b6000546040516346fbf41f60e11b81526004810183905282916001600160a01b031690638df7e83e9060240160206040518083038186803b15801561441c57600080fd5b505afa158015614430573d6000803e3d6000fd5b505050506040513d601f19601f82011682018060405250810190614454919061650c565b6144705760405162461bcd60e51b815260040161064c9061685e565b60005460405163d9548e5360e01b81526004810184905283916001600160a01b03169063d9548e539060240160206040518083038186803b1580156144b457600080fd5b505afa1580156144c8573d6000803e3d6000fd5b505050506040513d601f19601f820116820180604052508101906144ec919061650c565b156145235760405162461bcd60e51b8152602060048201526007602482015266115e1c1a5c995960ca1b604482015260640161064c565b600054604051630e72f4d360e11b8152600481018590526001916001600160a01b031690631ce5e9a69060240160006040518083038186803b15801561456857600080fd5b505afa15801561457c573d6000803e3d6000fd5b505050506040513d6000823e601f3d908101601f191682016040526145a4919081019061652e565b60a0015160028111156145b9576145b9616b4f565b146145fe5760405162461bcd60e51b81526020600482015260156024820152744f7074696f6e206973206e6f74206f6e2073616c6560581b604482015260640161064c565b60008061460a85615ae6565b91509150600019811061465f5760405162461bcd60e51b815260206004820152600f60248201527f4e6f2076616c6964206f66666572730000000000000000000000000000000000604482015260640161064c565b61466a858383615d47565b61467385616067565b60008054604051630e72f4d360e11b8152600481018890526001600160a01b0390911690631ce5e9a69060240160006040518083038186803b1580156146b857600080fd5b505afa1580156146cc573d6000803e3d6000fd5b505050506040513d6000823e601f3d908101601f191682016040526146f4919081019061652e565b60a00190600281111561470957614709616b4f565b9081600281111561471c5761471c616b4f565b905250600054604051630e72f4d360e11b81526004810187905233917f23ad4783d95ee2d3730fae4843757e102bd28a58ef48e2c6f8fe93aef120f5fb9188916124099186916001600160a01b031690631ce5e9a6906024016123ab565b600054604051630e75722360e41b8152600481018390526060916001600160a01b03169063e757223090602401612525565b6000546040516346fbf41f60e11b81526004810183905282916001600160a01b031690638df7e83e9060240160206040518083038186803b1580156147f057600080fd5b505afa158015614804573d6000803e3d6000fd5b505050506040513d601f19601f82011682018060405250810190614828919061650c565b6148445760405162461bcd60e51b815260040161064c9061685e565b60005460405163d9548e5360e01b81526004810184905283916001600160a01b03169063d9548e539060240160206040518083038186803b15801561488857600080fd5b505afa15801561489c573d6000803e3d6000fd5b505050506040513d601f19601f820116820180604052508101906148c0919061650c565b156148f75760405162461bcd60e51b8152602060048201526007602482015266115e1c1a5c995960ca1b604482015260640161064c565b6149008361522b565b60405183907f91239f1b1c69a78900cc0b21af84007275a0bdcfad50186f9c47f0e11b03c10990600090a2505050565b60005460405163fba225b960e01b8152600481018390526001600160a01b039091169063fba225b99034906024016000604051808303818588803b15801561497757600080fd5b505af115801561498b573d6000803e3d6000fd5b505050505050565b6000805460405163fcce488360e01b8152600481018490526001600160a01b039091169063fcce48839060240161244c565b60006149d18284616ae8565b9392505050565b60006149d18284616ac6565b60006149d18284616b07565b6000805460405163d97fef0160e01b8152600481018590526001600160a01b038481166024830152604482019390935291169063d97fef01906064015b600060405180830381600087803b15801561497757600080fd5b60006149d18284616aae565b60008054604051637eb742cf60e11b8152600481018590526001600160a01b039091169063fd6e859e9060240160006040518083038186803b158015614a9857600080fd5b505afa158015614aac573d6000803e3d6000fd5b505050506040513d6000823e601f3d908101601f19168201604052614ad4919081019061652e565b6080810183905260005483519192506001600160a01b03169063839da08b90859085906003908110614b0857614b08616b65565b60200260200101516040518363ffffffff1660e01b8152600401614b36929190918252602082015260400190565b60206040518083038186803b158015614b4e57600080fd5b505afa158015614b62573d6000803e3d6000fd5b505050506040513d601f19601f82011682018060405250810190614b869190616413565b50336001600160a01b03167f31f9a3ccd05dd54b3523cba1ae416ccf9842696d7295f62824dfacab1a957bf78484604051610b85929190616a36565b60008060008060005b600054604051630e72f4d360e11b8152600481018890526001600160a01b0390911690631ce5e9a69060240160006040518083038186803b158015614c0f57600080fd5b505afa158015614c23573d6000803e3d6000fd5b505050506040513d6000823e601f3d908101601f19168201604052614c4b919081019061652e565b60c0015151811015614e235760008054604051630e72f4d360e11b8152600481018990526001600160a01b039091169063839da08b9089908390631ce5e9a69060240160006040518083038186803b158015614ca657600080fd5b505afa158015614cba573d6000803e3d6000fd5b505050506040513d6000823e601f3d908101601f19168201604052614ce2919081019061652e565b60c001518581518110614cf757614cf7616b65565b60200260200101516040518363ffffffff1660e01b8152600401614d25929190918252602082015260400190565b60206040518083038186803b158015614d3d57600080fd5b505afa158015614d51573d6000803e3d6000fd5b505050506040513d601f19601f82011682018060405250810190614d759190616413565b6000805460405163eba1b60b60e01b8152600481018b90526001600160a01b0380851660248301529394509192169063eba1b60b9060440160206040518083038186803b158015614dc557600080fd5b505afa158015614dd9573d6000803e3d6000fd5b505050506040513d601f19601f82011682018060405250810190614dfd919061657c565b905083811115614e0e578093508194505b50508080614e1b90616b1e565b915050614bcb565b509094909350915050565b60005460405163eba1b60b60e01b8152600481018590526001600160a01b0384811660248301528392169063eba1b60b9060440160206040518083038186803b158015614e7a57600080fd5b505afa158015614e8e573d6000803e3d6000fd5b505050506040513d601f19601f82011682018060405250810190614eb2919061657c565b1015614f005760405162461bcd60e51b815260206004820152601660248201527f4269646465722062616c616e636520746f6f206c6f7700000000000000000000604482015260640161064c565b600054604051630e72f4d360e11b8152600481018590526001600160a01b0390911690631ce5e9a69060240160006040518083038186803b158015614f4457600080fd5b505afa158015614f58573d6000803e3d6000fd5b505050506040513d6000823e601f3d908101601f19168201604052614f80919081019061652e565b6040908101516000549151630e72f4d360e11b8152600481018690526001600160a01b039182169263a9059cbb923392911690631ce5e9a69060240160006040518083038186803b158015614fd457600080fd5b505afa158015614fe8573d6000803e3d6000fd5b505050506040513d6000823e601f3d908101601f19168201604052615010919081019061652e565b606001516040516001600160e01b031960e085901b1681526001600160a01b0390921660048301526024820152604401602060405180830381600087803b15801561505a57600080fd5b505af115801561506e573d6000803e3d6000fd5b505050506040513d601f19601f82011682018060405250810190615092919061650c565b50600054604051630e72f4d360e11b8152600481018590526001600160a01b0390911690631ce5e9a69060240160006040518083038186803b1580156150d757600080fd5b505afa1580156150eb573d6000803e3d6000fd5b505050506040513d6000823e601f3d908101601f19168201604052615113919081019061652e565b6040908101516000549151630e72f4d360e11b8152600481018690526001600160a01b039182169263a9059cbb921690631ce5e9a69060240160006040518083038186803b15801561516457600080fd5b505afa158015615178573d6000803e3d6000fd5b505050506040513d6000823e601f3d908101601f191682016040526151a0919081019061652e565b602001516040516001600160e01b031960e084901b1681526001600160a01b039091166004820152602481018490526044015b602060405180830381600087803b1580156151ed57600080fd5b505af1158015615201573d6000803e3d6000fd5b505050506040513d601f19601f82011682018060405250810190615225919061650c565b50505050565b60005b600054604051630e72f4d360e11b8152600481018490526001600160a01b0390911690631ce5e9a69060240160006040518083038186803b15801561527257600080fd5b505afa158015615286573d6000803e3d6000fd5b505050506040513d6000823e601f3d908101601f191682016040526152ae919081019061652e565b60c00151518110156153f75760008054604051630e72f4d360e11b8152600481018590526001600160a01b039091169063839da08b9085908390631ce5e9a69060240160006040518083038186803b15801561530957600080fd5b505afa15801561531d573d6000803e3d6000fd5b505050506040513d6000823e601f3d908101601f19168201604052615345919081019061652e565b60c00151858151811061535a5761535a616b65565b60200260200101516040518363ffffffff1660e01b8152600401615388929190918252602082015260400190565b60206040518083038186803b1580156153a057600080fd5b505afa1580156153b4573d6000803e3d6000fd5b505050506040513d601f19601f820116820180604052508101906153d89190616413565b90506153e483826149f0565b50806153ef81616b1e565b91505061522e565b5050565b60008054604051630f36e6cf60e01b8152600481018590526001600160a01b0384811660248301526044820193909352911690630f36e6cf90606401614a2d565b6000546040516350a8150b60e01b8152600481018490526001600160a01b03909116906350a8150b9060240160206040518083038186803b15801561548057600080fd5b505afa158015615494573d6000803e3d6000fd5b505050506040513d601f19601f820116820180604052508101906154b8919061657c565b8111156155165760405162461bcd60e51b815260206004820152602660248201527f426964202b207072656d69756d206578636565647320636f6c6c61746572616c604482015265081b1a5b5a5d60d21b606482015260840161064c565b600054604051630e72f4d360e11b8152600481018490526001600160a01b0390911690631ce5e9a69060240160006040518083038186803b15801561555a57600080fd5b505afa15801561556e573d6000803e3d6000fd5b505050506040513d6000823e601f3d908101601f19168201604052615596919081019061652e565b60409081015190516323b872dd60e01b8152336004820152306024820152604481018390526001600160a01b03909116906323b872dd90606401602060405180830381600087803b1580156155ea57600080fd5b505af11580156155fe573d6000803e3d6000fd5b505050506040513d601f19601f82011682018060405250810190615622919061650c565b6153f75760405162461bcd60e51b815260206004820152602960248201527f4661696c656420746f207472616e7366657220636f6c6c61746572616c20616e60448201526864207072656d69756d60b81b606482015260840161064c565b6000805460405163eba1b60b60e01b8152600481018590523360248201526001600160a01b039091169063eba1b60b9060440160206040518083038186803b1580156156cb57600080fd5b505afa1580156156df573d6000803e3d6000fd5b505050506040513d601f19601f82011682018060405250810190615703919061657c565b905080156157535760405162461bcd60e51b815260206004820152601e60248201527f596f7520616c7265616479206861766520616e20616374697665206269640000604482015260640161064c565b60005460405163d97fef0160e01b815260048101859052336024820152604481018490526001600160a01b039091169063d97fef0190606401600060405180830381600087803b1580156157a657600080fd5b505af11580156157ba573d6000803e3d6000fd5b5050505060008060009054906101000a90046001600160a01b03166001600160a01b031663208ff02e6040518163ffffffff1660e01b815260040160206040518083038186803b15801561580d57600080fd5b505afa158015615821573d6000803e3d6000fd5b505050506040513d601f19601f82011682018060405250810190615845919061657c565b6000546040516337655b0f60e11b815233600482015291925082916001600160a01b0390911690636ecab61e9060240160206040518083038186803b15801561588d57600080fd5b505afa1580156158a1573d6000803e3d6000fd5b505050506040513d601f19601f820116820180604052508101906158c5919061657c565b106159125760405162461bcd60e51b815260206004820152601e60248201527f4d6178696d756d206e756d626572206f66206269647320726561636865640000604482015260640161064c565b6000546040516393e1b8a760e01b81523360048201526001600160a01b03909116906393e1b8a790602401600060405180830381600087803b15801561595757600080fd5b505af115801561596b573d6000803e3d6000fd5b5050505050505050565b60008054604051637eb742cf60e11b8152600481018690526001600160a01b039091169063fd6e859e9060240160006040518083038186803b1580156159ba57600080fd5b505afa1580156159ce573d6000803e3d6000fd5b505050506040513d6000823e601f3d908101601f191682016040526159f6919081019061652e565b6080810184905260005484519192506001600160a01b03169063839da08b90869086906003908110615a2a57615a2a616b65565b60200260200101516040518363ffffffff1660e01b8152600401615a58929190918252602082015260400190565b60206040518083038186803b158015615a7057600080fd5b505afa158015615a84573d6000803e3d6000fd5b505050506040513d601f19601f82011682018060405250810190615aa89190616413565b50336001600160a01b03167fc045e6c23ebb61636a29c745f7926eff2761be77456e1b2f2e49e4aea492ab44858585604051613b8293929190616a4f565b60008080600019815b600054604051630e72f4d360e11b8152600481018890526001600160a01b0390911690631ce5e9a69060240160006040518083038186803b158015615b3357600080fd5b505afa158015615b47573d6000803e3d6000fd5b505050506040513d6000823e601f3d908101601f19168201604052615b6f919081019061652e565b60c0015151811015614e235760008054604051630e72f4d360e11b8152600481018990526001600160a01b039091169063d88750b49089908390631ce5e9a69060240160006040518083038186803b158015615bca57600080fd5b505afa158015615bde573d6000803e3d6000fd5b505050506040513d6000823e601f3d908101601f19168201604052615c06919081019061652e565b60c001518581518110615c1b57615c1b616b65565b60200260200101516040518363ffffffff1660e01b8152600401615c49929190918252602082015260400190565b60206040518083038186803b158015615c6157600080fd5b505afa158015615c75573d6000803e3d6000fd5b505050506040513d601f19601f82011682018060405250810190615c999190616413565b60008054604051632e54833960e21b8152600481018b90526001600160a01b0380851660248301529394509192169063b9520ce49060440160206040518083038186803b158015615ce957600080fd5b505afa158015615cfd573d6000803e3d6000fd5b505050506040513d601f19601f82011682018060405250810190615d21919061657c565b905083811015615d32578093508194505b50508080615d3f90616b1e565b915050615aef565b600054604051632e54833960e21b8152600481018590526001600160a01b0384811660248301528392169063b9520ce49060440160206040518083038186803b158015615d9357600080fd5b505afa158015615da7573d6000803e3d6000fd5b505050506040513d601f19601f82011682018060405250810190615dcb919061657c565b1015615e195760405162461bcd60e51b815260206004820152601760248201527f4f6666657265722062616c616e636520746f6f206c6f77000000000000000000604482015260640161064c565b600054604051630e72f4d360e11b8152600481018590526001600160a01b0390911690631ce5e9a69060240160006040518083038186803b158015615e5d57600080fd5b505afa158015615e71573d6000803e3d6000fd5b505050506040513d6000823e601f3d908101601f19168201604052615e99919081019061652e565b6040908101516000549151630e72f4d360e11b8152600481018690526001600160a01b039182169263a9059cbb923392911690631ce5e9a69060240160006040518083038186803b158015615eed57600080fd5b505afa158015615f01573d6000803e3d6000fd5b505050506040513d6000823e601f3d908101601f19168201604052615f29919081019061652e565b606001516040516001600160e01b031960e085901b1681526001600160a01b0390921660048301526024820152604401602060405180830381600087803b158015615f7357600080fd5b505af1158015615f87573d6000803e3d6000fd5b505050506040513d601f19601f82011682018060405250810190615fab919061650c565b50600054604051630e72f4d360e11b8152600481018590526001600160a01b0390911690631ce5e9a69060240160006040518083038186803b158015615ff057600080fd5b505afa158015616004573d6000803e3d6000fd5b505050506040513d6000823e601f3d908101601f1916820160405261602c919081019061652e565b604090810151905163a9059cbb60e01b81526001600160a01b038481166004830152602482018490529091169063a9059cbb906044016151d3565b60005b600054604051630e72f4d360e11b8152600481018490526001600160a01b0390911690631ce5e9a69060240160006040518083038186803b1580156160ae57600080fd5b505afa1580156160c2573d6000803e3d6000fd5b505050506040513d6000823e601f3d908101601f191682016040526160ea919081019061652e565b60c00151518110156153f75760008054604051630e72f4d360e11b8152600481018590526001600160a01b039091169063d88750b49085908390631ce5e9a69060240160006040518083038186803b15801561614557600080fd5b505afa158015616159573d6000803e3d6000fd5b505050506040513d6000823e601f3d908101601f19168201604052616181919081019061652e565b60c00151858151811061619657616196616b65565b60200260200101516040518363ffffffff1660e01b81526004016161c4929190918252602082015260400190565b60206040518083038186803b1580156161dc57600080fd5b505afa1580156161f0573d6000803e3d6000fd5b505050506040513d601f19601f820116820180604052508101906162149190616413565b905061622083826153fb565b508061622b81616b1e565b91505061606a565b805161623e81616b91565b919050565b60008083601f84011261625557600080fd5b50813567ffffffffffffffff81111561626d57600080fd5b6020830191508360208260051b850101111561628857600080fd5b9250929050565b600082601f8301126162a057600080fd5b8151602067ffffffffffffffff808311156162bd576162bd616b7b565b8260051b604051601f19603f830116810181811084821117156162e2576162e2616b7b565b6040528481528381019250868401828801850189101561630157600080fd5b600092505b85831015616324578051845292840192600192909201918401616306565b50979650505050505050565b80516003811061623e57600080fd5b6000610120828403121561635257600080fd5b61635a616a84565b905061636582616233565b815261637360208301616233565b602082015261638460408301616233565b604082015260608201516060820152608082015167ffffffffffffffff808211156163ae57600080fd5b6163ba8583860161628f565b60808401526163cb60a08501616330565b60a084015260c08401519150808211156163e457600080fd5b506163f18482850161628f565b60c08301525060e082015160e082015261010080830151818301525092915050565b60006020828403121561642557600080fd5b81516149d181616b91565b6000806040838503121561644357600080fd5b825161644e81616b91565b6020939093015192949293505050565b60008060008060008060a0878903121561647757600080fd5b863567ffffffffffffffff81111561648e57600080fd5b61649a89828a01616243565b9097509550506020870135935060408701356164b581616b91565b959894975092956060810135946080909101359350915050565b6000602082840312156164e157600080fd5b815167ffffffffffffffff8111156164f857600080fd5b6165048482850161628f565b949350505050565b60006020828403121561651e57600080fd5b815180151581146149d157600080fd5b60006020828403121561654057600080fd5b815167ffffffffffffffff81111561655757600080fd5b6165048482850161633f565b60006020828403121561657557600080fd5b5035919050565b60006020828403121561658e57600080fd5b5051919050565b6000806000604084860312156165aa57600080fd5b83359250602084013567ffffffffffffffff8111156165c857600080fd5b6165d486828701616243565b9497909650939450505050565b6000806000806000606086880312156165f957600080fd5b85359450602086013567ffffffffffffffff8082111561661857600080fd5b61662489838a01616243565b9096509450604088013591508082111561663d57600080fd5b5061664a88828901616243565b969995985093965092949392505050565b6000806040838503121561666e57600080fd5b50508035926020909101359150565b81835260007f07ffffffffffffffffffffffffffffffffffffffffffffffffffffffffffffff8311156166af57600080fd5b8260051b8083602087013760009401602001938452509192915050565b600081518084526020808501945080840160005b838110156166fc578151875295820195908201906001016166e0565b509495945050505050565b6003811061672557634e487b7160e01b600052602160045260246000fd5b9052565b60a08152600061673d60a08301888a61667d565b90508560208301526001600160a01b0385166040830152836060830152826080830152979650505050505050565b6020815260006149d160208301846166cc565b6020808252603a908201527f496e76616c69642074696d653a204f7074696f6e2065787069726174696f6e2060408201527f74696d65206d75737420626520696e2074686520667574757265000000000000606082015260800190565b60208082526054908201527f496e76616c6964206672616374696f6e3a20556e697473206d7573742062652060408201527f67726561746572207468616e207a65726f20616e64206c657373207468616e2060608201527f6f7220657175616c20746f206d6178556e697473000000000000000000000000608082015260a00190565b60208082526036908201527f556e617574686f72697a65643a204f6e6c79206f7074696f6e206f776e65722060408201527f63616e2063616c6c20746869732066756e6374696f6e00000000000000000000606082015260800190565b60208082526030908201527f496e76616c696420616d6f756e743a20416d6f756e74206d757374206265206760408201527f726561746572207468616e207a65726f00000000000000000000000000000000606082015260800190565b602081526169326020820183516001600160a01b03169052565b6000602083015161694e60408401826001600160a01b03169052565b5060408301516001600160a01b0381166060840152506060830151608083015260808301516101208060a085015261698a6101408501836166cc565b915060a085015161699e60c0860182616707565b5060c0850151848303601f190160e08601526169ba83826166cc565b60e087015161010087810191909152909601519190940152509192915050565b8381526040602082015260006169f460408301848661667d565b95945050505050565b858152606060208201526000616a1760608301868861667d565b8281036040840152616a2a81858761667d565b98975050505050505050565b82815260406020820152600061650460408301846166cc565b838152606060208201526000616a6860608301856166cc565b8281036040840152616a7a81856166cc565b9695505050505050565b604051610120810167ffffffffffffffff81118282101715616aa857616aa8616b7b565b60405290565b60008219821115616ac157616ac1616b39565b500190565b600082616ae357634e487b7160e01b600052601260045260246000fd5b500490565b6000816000190483118215151615616b0257616b02616b39565b500290565b600082821015616b1957616b19616b39565b500390565b6000600019821415616b3257616b32616b39565b5060010190565b634e487b7160e01b600052601160045260246000fd5b634e487b7160e01b600052602160045260246000fd5b634e487b7160e01b600052603260045260246000fd5b634e487b7160e01b600052604160045260246000fd5b6001600160a01b0381168114616ba657600080fd5b5056fea264697066735822122008fc9e49bf41d5109863abfdb02b05db5672cd3f11fe765781942fa436ebfae364736f6c63430008070033",
  "linkReferences": {},
  "deployedLinkReferences": {}
}