{
  "_format": "hh-sol-artifact-1",
  "contractName": "ConstellationCore",
  "sourceName": "contracts/ConstellationCore.sol",
  "abi": [
    {
      "anonymous": false,
      "inputs": [
        {
          "indexed": false,
          "internalType": "uint256",
          "name": "id",
          "type": "uint256"
        },
        {
          "indexed": true,
          "internalType": "address",
          "name": "owner",
          "type": "address"
        },
        {
          "indexed": false,
          "internalType": "address",
          "name": "creator",
          "type": "address"
        },
        {
          "indexed": false,
          "internalType": "address",
          "name": "collateralToken",
          "type": "address"
        },
        {
          "indexed": false,
          "internalType": "uint256",
          "name": "collateralAmount",
          "type": "uint256"
        },
        {
          "indexed": false,
          "internalType": "uint256",
          "name": "counterOffer",
          "type": "uint256"
        },
        {
          "indexed": false,
          "internalType": "uint256",
          "name": "expires",
          "type": "uint256"
        },
        {
          "indexed": false,
          "internalType": "uint256",
          "name": "maxUnits",
          "type": "uint256"
        }
      ],
      "name": "OptionCreated",
      "type": "event"
    },
    {
      "anonymous": false,
      "inputs": [
        {
          "indexed": true,
          "internalType": "address",
          "name": "previousOwner",
          "type": "address"
        },
        {
          "indexed": true,
          "internalType": "address",
          "name": "newOwner",
          "type": "address"
        }
      ],
      "name": "OwnershipTransferred",
      "type": "event"
    },
    {
      "inputs": [
        {
          "internalType": "uint256",
          "name": "id",
          "type": "uint256"
        },
        {
          "internalType": "uint256[]",
          "name": "toAddPrice",
          "type": "uint256[]"
        }
      ],
      "name": "addToMarket",
      "outputs": [],
      "stateMutability": "nonpayable",
      "type": "function"
    },
    {
      "inputs": [
        {
          "internalType": "uint256",
          "name": "id",
          "type": "uint256"
        }
      ],
      "name": "analyzeActivity",
      "outputs": [],
      "stateMutability": "nonpayable",
      "type": "function"
    },
    {
      "inputs": [],
      "name": "baseExpiration",
      "outputs": [
        {
          "internalType": "uint256",
          "name": "",
          "type": "uint256"
        }
      ],
      "stateMutability": "view",
      "type": "function"
    },
    {
      "inputs": [],
      "name": "bidDuration",
      "outputs": [
        {
          "internalType": "uint256",
          "name": "",
          "type": "uint256"
        }
      ],
      "stateMutability": "view",
      "type": "function"
    },
    {
      "inputs": [],
      "name": "bidResetFee",
      "outputs": [
        {
          "internalType": "uint256",
          "name": "",
          "type": "uint256"
        }
      ],
      "stateMutability": "view",
      "type": "function"
    },
    {
      "inputs": [
        {
          "internalType": "uint256",
          "name": "",
          "type": "uint256"
        },
        {
          "internalType": "address",
          "name": "",
          "type": "address"
        }
      ],
      "name": "bids",
      "outputs": [
        {
          "internalType": "uint256",
          "name": "",
          "type": "uint256"
        }
      ],
      "stateMutability": "view",
      "type": "function"
    },
    {
      "inputs": [],
      "name": "bufferTime",
      "outputs": [
        {
          "internalType": "uint256",
          "name": "",
          "type": "uint256"
        }
      ],
      "stateMutability": "view",
      "type": "function"
    },
    {
      "inputs": [
        {
          "internalType": "uint256",
          "name": "id",
          "type": "uint256"
        }
      ],
      "name": "burnOption",
      "outputs": [],
      "stateMutability": "nonpayable",
      "type": "function"
    },
    {
      "inputs": [
        {
          "internalType": "uint256",
          "name": "id",
          "type": "uint256"
        }
      ],
      "name": "buyOption",
      "outputs": [],
      "stateMutability": "payable",
      "type": "function"
    },
    {
      "inputs": [
        {
          "internalType": "uint256",
          "name": "id",
          "type": "uint256"
        },
        {
          "internalType": "uint256",
          "name": "units",
          "type": "uint256"
        }
      ],
      "name": "buyOptionChainlink",
      "outputs": [],
      "stateMutability": "payable",
      "type": "function"
    },
    {
      "inputs": [
        {
          "internalType": "uint256",
          "name": "id",
          "type": "uint256"
        }
      ],
      "name": "cancelOption",
      "outputs": [],
      "stateMutability": "nonpayable",
      "type": "function"
    },
    {
      "inputs": [],
      "name": "chainlinkMock",
      "outputs": [
        {
          "internalType": "contract ChainlinkMock",
          "name": "",
          "type": "address"
        }
      ],
      "stateMutability": "view",
      "type": "function"
    },
    {
      "inputs": [],
      "name": "chainlinkOracle",
      "outputs": [
        {
          "internalType": "address",
          "name": "",
          "type": "address"
        }
      ],
      "stateMutability": "view",
      "type": "function"
    },
    {
      "inputs": [
        {
          "internalType": "uint256",
          "name": "id",
          "type": "uint256"
        }
      ],
      "name": "checkOnlyIfNotActive",
      "outputs": [],
      "stateMutability": "view",
      "type": "function"
    },
    {
      "inputs": [
        {
          "internalType": "uint256",
          "name": "id",
          "type": "uint256"
        }
      ],
      "name": "checkOnlyIfNotStale",
      "outputs": [],
      "stateMutability": "view",
      "type": "function"
    },
    {
      "inputs": [
        {
          "internalType": "uint256",
          "name": "id",
          "type": "uint256"
        }
      ],
      "name": "claimOption",
      "outputs": [],
      "stateMutability": "nonpayable",
      "type": "function"
    },
    {
      "inputs": [
        {
          "internalType": "uint256",
          "name": "",
          "type": "uint256"
        }
      ],
      "name": "collateralLimit",
      "outputs": [
        {
          "internalType": "uint256",
          "name": "",
          "type": "uint256"
        }
      ],
      "stateMutability": "view",
      "type": "function"
    },
    {
      "inputs": [
        {
          "internalType": "uint256",
          "name": "",
          "type": "uint256"
        }
      ],
      "name": "collateralList",
      "outputs": [
        {
          "internalType": "uint256",
          "name": "totalCollateral",
          "type": "uint256"
        },
        {
          "internalType": "uint256",
          "name": "totalPremium",
          "type": "uint256"
        },
        {
          "internalType": "uint256",
          "name": "units",
          "type": "uint256"
        }
      ],
      "stateMutability": "view",
      "type": "function"
    },
    {
      "inputs": [],
      "name": "config",
      "outputs": [
        {
          "internalType": "address",
          "name": "creator",
          "type": "address"
        },
        {
          "internalType": "uint256",
          "name": "totalOptionsNum",
          "type": "uint256"
        }
      ],
      "stateMutability": "view",
      "type": "function"
    },
    {
      "inputs": [
        {
          "internalType": "uint256[]",
          "name": "counterOffer",
          "type": "uint256[]"
        },
        {
          "internalType": "uint256",
          "name": "expires",
          "type": "uint256"
        },
        {
          "internalType": "address",
          "name": "collateralToken",
          "type": "address"
        },
        {
          "internalType": "uint256",
          "name": "collateralAmount",
          "type": "uint256"
        },
        {
          "internalType": "uint256",
          "name": "maxUnits",
          "type": "uint256"
        }
      ],
      "name": "createOption",
      "outputs": [
        {
          "internalType": "uint256",
          "name": "",
          "type": "uint256"
        }
      ],
      "stateMutability": "nonpayable",
      "type": "function"
    },
    {
      "inputs": [
        {
          "internalType": "address",
          "name": "",
          "type": "address"
        },
        {
          "internalType": "uint256",
          "name": "",
          "type": "uint256"
        }
      ],
      "name": "creatorList",
      "outputs": [
        {
          "internalType": "address",
          "name": "creator",
          "type": "address"
        },
        {
          "internalType": "address",
          "name": "owner",
          "type": "address"
        },
        {
          "internalType": "address",
          "name": "collateralToken",
          "type": "address"
        },
        {
          "internalType": "uint256",
          "name": "collateralAmount",
          "type": "uint256"
        },
        {
          "internalType": "enum Constants.OptionStatus",
          "name": "status",
          "type": "uint8"
        },
        {
          "internalType": "uint256",
          "name": "expires",
          "type": "uint256"
        },
        {
          "internalType": "uint256",
          "name": "units",
          "type": "uint256"
        }
      ],
      "stateMutability": "view",
      "type": "function"
    },
    {
      "inputs": [],
      "name": "data",
      "outputs": [
        {
          "internalType": "address",
          "name": "creator",
          "type": "address"
        },
        {
          "internalType": "address",
          "name": "owner",
          "type": "address"
        },
        {
          "internalType": "address",
          "name": "collateralToken",
          "type": "address"
        },
        {
          "internalType": "uint256",
          "name": "collateralAmount",
          "type": "uint256"
        },
        {
          "internalType": "enum Constants.OptionStatus",
          "name": "status",
          "type": "uint8"
        },
        {
          "internalType": "uint256",
          "name": "expires",
          "type": "uint256"
        },
        {
          "internalType": "uint256",
          "name": "units",
          "type": "uint256"
        }
      ],
      "stateMutability": "view",
      "type": "function"
    },
    {
      "inputs": [
        {
          "internalType": "address",
          "name": "bidder",
          "type": "address"
        }
      ],
      "name": "decrementUserBidCount",
      "outputs": [],
      "stateMutability": "nonpayable",
      "type": "function"
    },
    {
      "inputs": [
        {
          "internalType": "uint256",
          "name": "id",
          "type": "uint256"
        }
      ],
      "name": "executeOption",
      "outputs": [],
      "stateMutability": "nonpayable",
      "type": "function"
    },
    {
      "inputs": [
        {
          "internalType": "bytes32",
          "name": "requestId",
          "type": "bytes32"
        }
      ],
      "name": "executeOptionWithRandomness",
      "outputs": [],
      "stateMutability": "nonpayable",
      "type": "function"
    },
    {
      "inputs": [],
      "name": "expirationIncreaseFactor",
      "outputs": [
        {
          "internalType": "uint256",
          "name": "",
          "type": "uint256"
        }
      ],
      "stateMutability": "view",
      "type": "function"
    },
    {
      "inputs": [],
      "name": "functionExceedingGasLimit",
      "outputs": [],
      "stateMutability": "view",
      "type": "function"
    },
    {
      "inputs": [
        {
          "internalType": "uint256[]",
          "name": "functionData",
          "type": "uint256[]"
        }
      ],
      "name": "functionWithEmptyArray",
      "outputs": [],
      "stateMutability": "pure",
      "type": "function"
    },
    {
      "inputs": [
        {
          "internalType": "uint256",
          "name": "optionId",
          "type": "uint256"
        }
      ],
      "name": "functionWithEvent",
      "outputs": [],
      "stateMutability": "nonpayable",
      "type": "function"
    },
    {
      "inputs": [],
      "name": "functionWithOnlyCreator",
      "outputs": [],
      "stateMutability": "nonpayable",
      "type": "function"
    },
    {
      "inputs": [],
      "name": "functionWithOverflow",
      "outputs": [],
      "stateMutability": "payable",
      "type": "function"
    },
    {
      "inputs": [],
      "name": "functionWithZeroAddress",
      "outputs": [],
      "stateMutability": "view",
      "type": "function"
    },
    {
      "inputs": [],
      "name": "functionWithZeroAmount",
      "outputs": [],
      "stateMutability": "payable",
      "type": "function"
    },
    {
      "inputs": [
        {
          "internalType": "uint256",
          "name": "id",
          "type": "uint256"
        }
      ],
      "name": "functionWithonlyOptionOwner",
      "outputs": [],
      "stateMutability": "nonpayable",
      "type": "function"
    },
    {
      "inputs": [],
      "name": "gasLimit",
      "outputs": [
        {
          "internalType": "uint256",
          "name": "",
          "type": "uint256"
        }
      ],
      "stateMutability": "view",
      "type": "function"
    },
    {
      "inputs": [
        {
          "internalType": "uint256",
          "name": "id",
          "type": "uint256"
        },
        {
          "internalType": "address",
          "name": "bidder",
          "type": "address"
        }
      ],
      "name": "getBid",
      "outputs": [
        {
          "internalType": "uint256",
          "name": "",
          "type": "uint256"
        }
      ],
      "stateMutability": "view",
      "type": "function"
    },
    {
      "inputs": [
        {
          "internalType": "uint256",
          "name": "id",
          "type": "uint256"
        }
      ],
      "name": "getCollateralLimit",
      "outputs": [
        {
          "internalType": "uint256",
          "name": "",
          "type": "uint256"
        }
      ],
      "stateMutability": "view",
      "type": "function"
    },
    {
      "inputs": [],
      "name": "getConfig",
      "outputs": [
        {
          "internalType": "address",
          "name": "creator",
          "type": "address"
        },
        {
          "internalType": "uint256",
          "name": "totalOptionsNum",
          "type": "uint256"
        }
      ],
      "stateMutability": "view",
      "type": "function"
    },
    {
      "inputs": [],
      "name": "getCreator",
      "outputs": [
        {
          "internalType": "address",
          "name": "",
          "type": "address"
        }
      ],
      "stateMutability": "view",
      "type": "function"
    },
    {
      "inputs": [
        {
          "internalType": "uint256",
          "name": "id",
          "type": "uint256"
        }
      ],
      "name": "getHighestBid",
      "outputs": [
        {
          "internalType": "uint256",
          "name": "",
          "type": "uint256"
        }
      ],
      "stateMutability": "view",
      "type": "function"
    },
    {
      "inputs": [
        {
          "internalType": "uint256",
          "name": "id",
          "type": "uint256"
        }
      ],
      "name": "getLowestOffer",
      "outputs": [
        {
          "internalType": "uint256",
          "name": "",
          "type": "uint256"
        }
      ],
      "stateMutability": "view",
      "type": "function"
    },
    {
      "inputs": [
        {
          "internalType": "uint256",
          "name": "id",
          "type": "uint256"
        }
      ],
      "name": "getMarketList",
      "outputs": [
        {
          "components": [
            {
              "internalType": "address",
              "name": "creator",
              "type": "address"
            },
            {
              "internalType": "address",
              "name": "owner",
              "type": "address"
            },
            {
              "internalType": "address",
              "name": "collateralToken",
              "type": "address"
            },
            {
              "internalType": "uint256",
              "name": "collateralAmount",
              "type": "uint256"
            },
            {
              "internalType": "uint256[]",
              "name": "counterOffer",
              "type": "uint256[]"
            },
            {
              "internalType": "enum Constants.OptionStatus",
              "name": "status",
              "type": "uint8"
            },
            {
              "internalType": "uint256[]",
              "name": "price",
              "type": "uint256[]"
            },
            {
              "internalType": "uint256",
              "name": "expires",
              "type": "uint256"
            },
            {
              "internalType": "uint256",
              "name": "units",
              "type": "uint256"
            }
          ],
          "internalType": "struct ConstellationCore.Data",
          "name": "",
          "type": "tuple"
        }
      ],
      "stateMutability": "view",
      "type": "function"
    },
    {
      "inputs": [],
      "name": "getMaxBidCount",
      "outputs": [
        {
          "internalType": "uint256",
          "name": "",
          "type": "uint256"
        }
      ],
      "stateMutability": "view",
      "type": "function"
    },
    {
      "inputs": [],
      "name": "getMinBidAmount",
      "outputs": [
        {
          "internalType": "uint256",
          "name": "",
          "type": "uint256"
        }
      ],
      "stateMutability": "view",
      "type": "function"
    },
    {
      "inputs": [
        {
          "internalType": "uint256",
          "name": "id",
          "type": "uint256"
        },
        {
          "internalType": "address",
          "name": "offeror",
          "type": "address"
        }
      ],
      "name": "getOffer",
      "outputs": [
        {
          "internalType": "uint256",
          "name": "",
          "type": "uint256"
        }
      ],
      "stateMutability": "view",
      "type": "function"
    },
    {
      "inputs": [
        {
          "internalType": "uint256",
          "name": "id",
          "type": "uint256"
        }
      ],
      "name": "getOption",
      "outputs": [
        {
          "internalType": "address",
          "name": "creator",
          "type": "address"
        },
        {
          "internalType": "address",
          "name": "owner",
          "type": "address"
        },
        {
          "internalType": "address",
          "name": "collateralToken",
          "type": "address"
        },
        {
          "internalType": "uint256",
          "name": "collateralAmount",
          "type": "uint256"
        },
        {
          "internalType": "uint256[]",
          "name": "counterOffer",
          "type": "uint256[]"
        },
        {
          "internalType": "enum Constants.OptionStatus",
          "name": "status",
          "type": "uint8"
        },
        {
          "internalType": "uint256[]",
          "name": "price",
          "type": "uint256[]"
        },
        {
          "internalType": "uint256",
          "name": "expires",
          "type": "uint256"
        },
        {
          "internalType": "uint256",
          "name": "units",
          "type": "uint256"
        }
      ],
      "stateMutability": "view",
      "type": "function"
    },
    {
      "inputs": [
        {
          "internalType": "uint256",
          "name": "id",
          "type": "uint256"
        },
        {
          "internalType": "uint256",
          "name": "price",
          "type": "uint256"
        }
      ],
      "name": "getPriceToBidder",
      "outputs": [
        {
          "internalType": "address",
          "name": "",
          "type": "address"
        }
      ],
      "stateMutability": "view",
      "type": "function"
    },
    {
      "inputs": [
        {
          "internalType": "uint256",
          "name": "id",
          "type": "uint256"
        },
        {
          "internalType": "uint256",
          "name": "price",
          "type": "uint256"
        }
      ],
      "name": "getPriceToOfferer",
      "outputs": [
        {
          "internalType": "address",
          "name": "",
          "type": "address"
        }
      ],
      "stateMutability": "view",
      "type": "function"
    },
    {
      "inputs": [],
      "name": "getTotalOptionsNum",
      "outputs": [
        {
          "internalType": "uint256",
          "name": "",
          "type": "uint256"
        }
      ],
      "stateMutability": "view",
      "type": "function"
    },
    {
      "inputs": [
        {
          "internalType": "address",
          "name": "user",
          "type": "address"
        }
      ],
      "name": "getUserBidCount",
      "outputs": [
        {
          "internalType": "uint256",
          "name": "",
          "type": "uint256"
        }
      ],
      "stateMutability": "view",
      "type": "function"
    },
    {
      "inputs": [],
      "name": "gracePeriod",
      "outputs": [
        {
          "internalType": "uint256",
          "name": "",
          "type": "uint256"
        }
      ],
      "stateMutability": "view",
      "type": "function"
    },
    {
      "inputs": [
        {
          "internalType": "address",
          "name": "bidder",
          "type": "address"
        }
      ],
      "name": "incrementUserBidCount",
      "outputs": [],
      "stateMutability": "nonpayable",
      "type": "function"
    },
    {
      "inputs": [
        {
          "internalType": "uint256",
          "name": "id",
          "type": "uint256"
        }
      ],
      "name": "isExpired",
      "outputs": [
        {
          "internalType": "bool",
          "name": "",
          "type": "bool"
        }
      ],
      "stateMutability": "view",
      "type": "function"
    },
    {
      "inputs": [
        {
          "internalType": "uint256",
          "name": "id",
          "type": "uint256"
        }
      ],
      "name": "isOnSale",
      "outputs": [
        {
          "internalType": "bool",
          "name": "",
          "type": "bool"
        }
      ],
      "stateMutability": "view",
      "type": "function"
    },
    {
      "inputs": [
        {
          "internalType": "uint256",
          "name": "id",
          "type": "uint256"
        }
      ],
      "name": "isOptionOwner",
      "outputs": [
        {
          "internalType": "bool",
          "name": "",
          "type": "bool"
        }
      ],
      "stateMutability": "view",
      "type": "function"
    },
    {
      "inputs": [],
      "name": "isPaused",
      "outputs": [
        {
          "internalType": "bool",
          "name": "",
          "type": "bool"
        }
      ],
      "stateMutability": "view",
      "type": "function"
    },
    {
      "inputs": [
        {
          "internalType": "uint256",
          "name": "id",
          "type": "uint256"
        }
      ],
      "name": "isStale",
      "outputs": [
        {
          "internalType": "bool",
          "name": "",
          "type": "bool"
        }
      ],
      "stateMutability": "view",
      "type": "function"
    },
    {
      "inputs": [],
      "name": "latestPrice",
      "outputs": [
        {
          "internalType": "uint256",
          "name": "",
          "type": "uint256"
        }
      ],
      "stateMutability": "view",
      "type": "function"
    },
    {
      "inputs": [
        {
          "internalType": "uint256",
          "name": "",
          "type": "uint256"
        }
      ],
      "name": "marketList",
      "outputs": [
        {
          "internalType": "address",
          "name": "creator",
          "type": "address"
        },
        {
          "internalType": "address",
          "name": "owner",
          "type": "address"
        },
        {
          "internalType": "address",
          "name": "collateralToken",
          "type": "address"
        },
        {
          "internalType": "uint256",
          "name": "collateralAmount",
          "type": "uint256"
        },
        {
          "internalType": "enum Constants.OptionStatus",
          "name": "status",
          "type": "uint8"
        },
        {
          "internalType": "uint256",
          "name": "expires",
          "type": "uint256"
        },
        {
          "internalType": "uint256",
          "name": "units",
          "type": "uint256"
        }
      ],
      "stateMutability": "view",
      "type": "function"
    },
    {
      "inputs": [],
      "name": "maxBidsPerUser",
      "outputs": [
        {
          "internalType": "uint256",
          "name": "",
          "type": "uint256"
        }
      ],
      "stateMutability": "view",
      "type": "function"
    },
    {
      "inputs": [],
      "name": "minBidAmount",
      "outputs": [
        {
          "internalType": "uint256",
          "name": "",
          "type": "uint256"
        }
      ],
      "stateMutability": "view",
      "type": "function"
    },
    {
      "inputs": [],
      "name": "minBidDuration",
      "outputs": [
        {
          "internalType": "uint256",
          "name": "",
          "type": "uint256"
        }
      ],
      "stateMutability": "view",
      "type": "function"
    },
    {
      "inputs": [],
      "name": "minOfferDuration",
      "outputs": [
        {
          "internalType": "uint256",
          "name": "",
          "type": "uint256"
        }
      ],
      "stateMutability": "view",
      "type": "function"
    },
    {
      "inputs": [],
      "name": "offerDuration",
      "outputs": [
        {
          "internalType": "uint256",
          "name": "",
          "type": "uint256"
        }
      ],
      "stateMutability": "view",
      "type": "function"
    },
    {
      "inputs": [],
      "name": "offerResetFee",
      "outputs": [
        {
          "internalType": "uint256",
          "name": "",
          "type": "uint256"
        }
      ],
      "stateMutability": "view",
      "type": "function"
    },
    {
      "inputs": [
        {
          "internalType": "uint256",
          "name": "",
          "type": "uint256"
        },
        {
          "internalType": "address",
          "name": "",
          "type": "address"
        }
      ],
      "name": "offers",
      "outputs": [
        {
          "internalType": "uint256",
          "name": "",
          "type": "uint256"
        }
      ],
      "stateMutability": "view",
      "type": "function"
    },
    {
      "inputs": [
        {
          "internalType": "uint256",
          "name": "",
          "type": "uint256"
        }
      ],
      "name": "optionList",
      "outputs": [
        {
          "internalType": "address",
          "name": "creator",
          "type": "address"
        },
        {
          "internalType": "address",
          "name": "owner",
          "type": "address"
        },
        {
          "internalType": "address",
          "name": "collateralToken",
          "type": "address"
        },
        {
          "internalType": "uint256",
          "name": "collateralAmount",
          "type": "uint256"
        },
        {
          "internalType": "enum Constants.OptionStatus",
          "name": "status",
          "type": "uint8"
        },
        {
          "internalType": "uint256",
          "name": "expires",
          "type": "uint256"
        },
        {
          "internalType": "uint256",
          "name": "units",
          "type": "uint256"
        }
      ],
      "stateMutability": "view",
      "type": "function"
    },
    {
      "inputs": [],
      "name": "owner",
      "outputs": [
        {
          "internalType": "address",
          "name": "",
          "type": "address"
        }
      ],
      "stateMutability": "view",
      "type": "function"
    },
    {
      "inputs": [
        {
          "internalType": "address",
          "name": "",
          "type": "address"
        },
        {
          "internalType": "uint256",
          "name": "",
          "type": "uint256"
        }
      ],
      "name": "ownerList",
      "outputs": [
        {
          "internalType": "address",
          "name": "creator",
          "type": "address"
        },
        {
          "internalType": "address",
          "name": "owner",
          "type": "address"
        },
        {
          "internalType": "address",
          "name": "collateralToken",
          "type": "address"
        },
        {
          "internalType": "uint256",
          "name": "collateralAmount",
          "type": "uint256"
        },
        {
          "internalType": "enum Constants.OptionStatus",
          "name": "status",
          "type": "uint8"
        },
        {
          "internalType": "uint256",
          "name": "expires",
          "type": "uint256"
        },
        {
          "internalType": "uint256",
          "name": "units",
          "type": "uint256"
        }
      ],
      "stateMutability": "view",
      "type": "function"
    },
    {
      "inputs": [],
      "name": "pause",
      "outputs": [],
      "stateMutability": "nonpayable",
      "type": "function"
    },
    {
      "inputs": [],
      "name": "paused",
      "outputs": [
        {
          "internalType": "bool",
          "name": "",
          "type": "bool"
        }
      ],
      "stateMutability": "view",
      "type": "function"
    },
    {
      "inputs": [
        {
          "internalType": "bytes32",
          "name": "",
          "type": "bytes32"
        }
      ],
      "name": "priceRequests",
      "outputs": [
        {
          "internalType": "uint256",
          "name": "",
          "type": "uint256"
        }
      ],
      "stateMutability": "view",
      "type": "function"
    },
    {
      "inputs": [
        {
          "internalType": "uint256",
          "name": "",
          "type": "uint256"
        },
        {
          "internalType": "uint256",
          "name": "",
          "type": "uint256"
        }
      ],
      "name": "priceToBidder",
      "outputs": [
        {
          "internalType": "address",
          "name": "",
          "type": "address"
        }
      ],
      "stateMutability": "view",
      "type": "function"
    },
    {
      "inputs": [
        {
          "internalType": "uint256",
          "name": "",
          "type": "uint256"
        },
        {
          "internalType": "uint256",
          "name": "",
          "type": "uint256"
        }
      ],
      "name": "priceToOfferer",
      "outputs": [
        {
          "internalType": "address",
          "name": "",
          "type": "address"
        }
      ],
      "stateMutability": "view",
      "type": "function"
    },
    {
      "inputs": [
        {
          "internalType": "uint256",
          "name": "id",
          "type": "uint256"
        }
      ],
      "name": "removeFromMarket",
      "outputs": [],
      "stateMutability": "nonpayable",
      "type": "function"
    },
    {
      "inputs": [],
      "name": "renounceOwnership",
      "outputs": [],
      "stateMutability": "nonpayable",
      "type": "function"
    },
    {
      "inputs": [
        {
          "internalType": "uint256",
          "name": "id",
          "type": "uint256"
        },
        {
          "internalType": "string",
          "name": "denom",
          "type": "string"
        },
        {
          "internalType": "uint256",
          "name": "expirationTime",
          "type": "uint256"
        }
      ],
      "name": "requestPriceData",
      "outputs": [],
      "stateMutability": "nonpayable",
      "type": "function"
    },
    {
      "inputs": [
        {
          "internalType": "uint256",
          "name": "id",
          "type": "uint256"
        }
      ],
      "name": "resetBids",
      "outputs": [],
      "stateMutability": "nonpayable",
      "type": "function"
    },
    {
      "inputs": [
        {
          "internalType": "uint256",
          "name": "id",
          "type": "uint256"
        }
      ],
      "name": "resetOffers",
      "outputs": [],
      "stateMutability": "nonpayable",
      "type": "function"
    },
    {
      "inputs": [
        {
          "internalType": "uint256",
          "name": "id",
          "type": "uint256"
        },
        {
          "internalType": "uint256",
          "name": "duration",
          "type": "uint256"
        }
      ],
      "name": "setBaseExpiration",
      "outputs": [],
      "stateMutability": "nonpayable",
      "type": "function"
    },
    {
      "inputs": [
        {
          "internalType": "uint256",
          "name": "id",
          "type": "uint256"
        },
        {
          "internalType": "address",
          "name": "bidder",
          "type": "address"
        },
        {
          "internalType": "uint256",
          "name": "value",
          "type": "uint256"
        }
      ],
      "name": "setBid",
      "outputs": [],
      "stateMutability": "nonpayable",
      "type": "function"
    },
    {
      "inputs": [
        {
          "internalType": "uint256",
          "name": "id",
          "type": "uint256"
        },
        {
          "internalType": "uint256",
          "name": "fee",
          "type": "uint256"
        }
      ],
      "name": "setBidResetFee",
      "outputs": [],
      "stateMutability": "nonpayable",
      "type": "function"
    },
    {
      "inputs": [
        {
          "internalType": "address",
          "name": "_newCreator",
          "type": "address"
        }
      ],
      "name": "setCreator",
      "outputs": [],
      "stateMutability": "nonpayable",
      "type": "function"
    },
    {
      "inputs": [
        {
          "internalType": "uint256",
          "name": "id",
          "type": "uint256"
        },
        {
          "internalType": "uint256",
          "name": "factor",
          "type": "uint256"
        }
      ],
      "name": "setExpirationIncreaseFactor",
      "outputs": [],
      "stateMutability": "nonpayable",
      "type": "function"
    },
    {
      "inputs": [
        {
          "internalType": "uint256",
          "name": "id",
          "type": "uint256"
        },
        {
          "internalType": "uint256",
          "name": "period",
          "type": "uint256"
        }
      ],
      "name": "setGracePeriod",
      "outputs": [],
      "stateMutability": "nonpayable",
      "type": "function"
    },
    {
      "inputs": [
        {
          "internalType": "uint256",
          "name": "id",
          "type": "uint256"
        },
        {
          "internalType": "uint256",
          "name": "maxBids",
          "type": "uint256"
        }
      ],
      "name": "setMaxBidsPerUser",
      "outputs": [],
      "stateMutability": "nonpayable",
      "type": "function"
    },
    {
      "inputs": [
        {
          "internalType": "uint256",
          "name": "id",
          "type": "uint256"
        },
        {
          "internalType": "uint256",
          "name": "_minBidAmount",
          "type": "uint256"
        }
      ],
      "name": "setMinBidAmount",
      "outputs": [],
      "stateMutability": "nonpayable",
      "type": "function"
    },
    {
      "inputs": [
        {
          "internalType": "uint256",
          "name": "id",
          "type": "uint256"
        },
        {
          "internalType": "uint256",
          "name": "duration",
          "type": "uint256"
        }
      ],
      "name": "setMinBidDuration",
      "outputs": [],
      "stateMutability": "nonpayable",
      "type": "function"
    },
    {
      "inputs": [
        {
          "internalType": "uint256",
          "name": "id",
          "type": "uint256"
        },
        {
          "internalType": "uint256",
          "name": "duration",
          "type": "uint256"
        }
      ],
      "name": "setMinOfferDuration",
      "outputs": [],
      "stateMutability": "nonpayable",
      "type": "function"
    },
    {
      "inputs": [
        {
          "internalType": "uint256",
          "name": "id",
          "type": "uint256"
        },
        {
          "internalType": "address",
          "name": "offeror",
          "type": "address"
        },
        {
          "internalType": "uint256",
          "name": "value",
          "type": "uint256"
        }
      ],
      "name": "setOffer",
      "outputs": [],
      "stateMutability": "nonpayable",
      "type": "function"
    },
    {
      "inputs": [
        {
          "internalType": "uint256",
          "name": "id",
          "type": "uint256"
        },
        {
          "internalType": "uint256",
          "name": "fee",
          "type": "uint256"
        }
      ],
      "name": "setOfferResetFee",
      "outputs": [],
      "stateMutability": "nonpayable",
      "type": "function"
    },
    {
      "inputs": [
        {
          "internalType": "address",
          "name": "_newOwner",
          "type": "address"
        }
      ],
      "name": "setOwner",
      "outputs": [],
      "stateMutability": "nonpayable",
      "type": "function"
    },
    {
      "inputs": [
        {
          "internalType": "uint256",
          "name": "id",
          "type": "uint256"
        },
        {
          "internalType": "uint256",
          "name": "price",
          "type": "uint256"
        },
        {
          "internalType": "address",
          "name": "offerer",
          "type": "address"
        }
      ],
      "name": "setPriceToOfferer",
      "outputs": [],
      "stateMutability": "nonpayable",
      "type": "function"
    },
    {
      "inputs": [
        {
          "internalType": "uint256",
          "name": "id",
          "type": "uint256"
        },
        {
          "internalType": "uint256",
          "name": "threshold",
          "type": "uint256"
        }
      ],
      "name": "setStaleBidRemoveThreshold",
      "outputs": [],
      "stateMutability": "nonpayable",
      "type": "function"
    },
    {
      "inputs": [
        {
          "internalType": "uint256",
          "name": "id",
          "type": "uint256"
        },
        {
          "internalType": "uint256",
          "name": "buffer",
          "type": "uint256"
        }
      ],
      "name": "setTimeBuffer",
      "outputs": [],
      "stateMutability": "nonpayable",
      "type": "function"
    },
    {
      "inputs": [],
      "name": "staleBidRemoveThreshold",
      "outputs": [
        {
          "internalType": "uint256",
          "name": "",
          "type": "uint256"
        }
      ],
      "stateMutability": "view",
      "type": "function"
    },
    {
      "inputs": [
        {
          "internalType": "uint256",
          "name": "id",
          "type": "uint256"
        },
        {
          "internalType": "address",
          "name": "to",
          "type": "address"
        }
      ],
      "name": "transferOption",
      "outputs": [],
      "stateMutability": "nonpayable",
      "type": "function"
    },
    {
      "inputs": [
        {
          "internalType": "address",
          "name": "newOwner",
          "type": "address"
        }
      ],
      "name": "transferOwnership",
      "outputs": [],
      "stateMutability": "nonpayable",
      "type": "function"
    },
    {
      "inputs": [],
      "name": "unpause",
      "outputs": [],
      "stateMutability": "nonpayable",
      "type": "function"
    },
    {
      "inputs": [
        {
          "internalType": "address",
          "name": "",
          "type": "address"
        }
      ],
      "name": "userBidCount",
      "outputs": [
        {
          "internalType": "uint256",
          "name": "",
          "type": "uint256"
        }
      ],
      "stateMutability": "view",
      "type": "function"
    },
    {
      "inputs": [
        {
          "internalType": "address",
          "name": "",
          "type": "address"
        }
      ],
      "name": "userBids",
      "outputs": [
        {
          "internalType": "uint256",
          "name": "",
          "type": "uint256"
        }
      ],
      "stateMutability": "view",
      "type": "function"
    },
    {
      "inputs": [
        {
          "internalType": "uint256",
          "name": "id",
          "type": "uint256"
        }
      ],
      "name": "withdrawCollateral",
      "outputs": [],
      "stateMutability": "nonpayable",
      "type": "function"
    },
    {
      "stateMutability": "payable",
      "type": "receive"
    }
  ],
  "bytecode": "0x608060405262030d406028553480156200001857600080fd5b5060006200002e6001600160e01b036200007e16565b600080546001600160a01b0319166001600160a01b0383169081178255604051929350917f8be0079c531659141344cd1fd0a4f28419497f9722a3daafe3b4186f6b6457e0908290a35062000082565b3390565b616bb680620000926000396000f3fe6080604052600436106106695760003560e01c80638456cb5911610343578063c99e0ffc116101bb578063e87b2b90116100f7578063f0f2805f116100a0578063f6b45eb71161007a578063f6b45eb7146111c8578063f7c51f3c146111dd578063fba225b9146111fd578063fd6e859e14611210576106a9565b8063f0f2805f14611173578063f2fde38b14611193578063f68016b7146111b3576106a9565b8063ebdfbce5116100d1578063ebdfbce51461111e578063eeea02bf1461113e578063ef06e72c1461115e576106a9565b8063e87b2b90146110be578063ead8ccd1146110de578063eba1b60b146110fe576106a9565b8063de5490ff11610164578063e2576d4f1161013e578063e2576d4f14611061578063e522600c14611081578063e6ea8d2e146110a1578063e82af8e3146110b6576106a9565b8063de5490ff1461100c578063de6bf63514611021578063de91e75314611041576106a9565b8063d97fef0111610195578063d97fef0114610fac578063d987f81e14610fcc578063dc926afb14610fec576106a9565b8063c99e0ffc14610f57578063d88750b414610f6c578063d9548e5314610f8c576106a9565b8063a1dc29cd1161028a578063b187bd2611610233578063ba7b67031161020d578063ba7b670314610ef8578063bd62869a14610f0d578063bed40f6f14610f22578063c3f909d414610f42576106a9565b8063b187bd2614610ea3578063b5bf6b0614610eb8578063b9520ce414610ed8576106a9565b8063a87e49c511610264578063a87e49c514610e4e578063a8896f5014610e6e578063a964f81f14610e8e576106a9565b8063a1dc29cd14610e04578063a3e6ba9414610e19578063a624a1df14610e2e576106a9565b80638df7e83e116102ec57806393e1b8a7116102c657806393e1b8a714610daf578063942e15b414610dcf578063a06db7dc14610def576106a9565b80638df7e83e14610d5a5780638f28864414610d7a57806390de000b14610d9a576106a9565b806387ad6f131161031d57806387ad6f1314610d0557806387cc098f14610d255780638da5cb5b14610d45576106a9565b80638456cb5914610cbb578063851212d914610cd057806386d65d0214610cf0576106a9565b80633f4ba83a116104e15780636112fe2e1161041d57806373d4a13a116103c65780637987feba116103a05780637987feba14610c5157806381ae634d14610c6657806383534b9514610c86578063839da08b14610c9b576106a9565b806373d4a13a14610bf957806376f3615514610c0e57806379502c5514610c2e576106a9565b806367d6a23f116103f757806367d6a23f14610ba45780636ecab61e14610bc4578063715018a614610be4576106a9565b80636112fe2e14610b4f5780636457bd0414610b6f5780636511059514610b8f576106a9565b80634c685cc51161048a578063545b672711610464578063545b672714610acd578063573489a914610aed5780635c975abb14610b0d5780635dc5eafe14610b2f576106a9565b80634c685cc514610a7a5780634d726edc14610a8d57806350a8150b14610aad576106a9565b806342f3fec6116104bb57806342f3fec614610a3d5780634905075014610a455780634975178814610a65576106a9565b80633f4ba83a146109f35780633f51601814610a0857806340e5c7f314610a28576106a9565b80631ce5e9a6116105b05780633024a9121161055957806337fb409c1161053357806337fb409c146109735780633aa4be1e146109935780633b647d01146109b35780633f1ffcec146109d3576106a9565b80633024a9121461090f5780633271bd601461093e578063344ca8b414610953576106a9565b8063232b956c1161058a578063232b956c146108a75780632d6ff84c146108da578063301bbc24146108fa576106a9565b80631ce5e9a61461083d578063208ff02e14610872578063218f852e14610887576106a9565b80630f36e6cf1161061257806312a695ac116105ec57806312a695ac146107e857806313af40351461080857806317a5266c14610828576106a9565b80630f36e6cf146107885780630f5eb055146107a85780631250b5ae146107c8576106a9565b80630c6de672116106435780630c6de672146107265780630d5047c7146107465780630ee2cb1014610766576106a9565b80630a98eeb8146106ae5780630afe2cad146106d05780630c52f46d14610706576106a9565b366106a9577fa419615bc8fda4c87663805ee2a3597a6d71c1d476911d9892f340d965bc7bf1333460405161069f929190615e3d565b60405180910390a1005b600080fd5b3480156106ba57600080fd5b506106ce6106c9366004615d3d565b61123d565b005b3480156106dc57600080fd5b506106f06106eb366004615be6565b6112f7565b6040516106fd9190616a9b565b60405180910390f35b34801561071257600080fd5b506106ce610721366004615be6565b611309565b34801561073257600080fd5b506106ce610741366004615d3d565b6113b4565b34801561075257600080fd5b506106ce610761366004615b17565b611457565b34801561077257600080fd5b5061077b611478565b6040516106fd9190615e05565b34801561079457600080fd5b506106ce6107a3366004615c42565b611488565b3480156107b457600080fd5b506106ce6107c3366004615be6565b6114ae565b3480156107d457600080fd5b506106ce6107e3366004615c77565b6114f3565b3480156107f457600080fd5b506106ce610803366004615c16565b611812565b34801561081457600080fd5b506106ce610823366004615ad2565b611a75565b34801561083457600080fd5b506106f0611afc565b34801561084957600080fd5b5061085d610858366004615be6565b611b02565b6040516106fd99989796959493929190615e56565b34801561087e57600080fd5b506106f0611c29565b34801561089357600080fd5b506106ce6108a2366004615d3d565b611c2f565b3480156108b357600080fd5b506108c76108c2366004615be6565b611cd2565b6040516106fd9796959493929190615ece565b3480156108e657600080fd5b506106ce6108f5366004615d3d565b611d21565b34801561090657600080fd5b506106f0611d63565b34801561091b57600080fd5b5061092f61092a366004615be6565b611d69565b6040516106fd93929190616b47565b34801561094a57600080fd5b506106ce611d8a565b34801561095f57600080fd5b506106ce61096e366004615d3d565b611dc7565b34801561097f57600080fd5b506106ce61098e366004615be6565b611e6a565b34801561099f57600080fd5b506106f06109ae366004615be6565b612452565b3480156109bf57600080fd5b506106ce6109ce366004615d3d565b6124f7565b3480156109df57600080fd5b506106f06109ee366004615c16565b6125cc565b3480156109ff57600080fd5b506106ce6125e9565b348015610a1457600080fd5b506106ce610a23366004615ad2565b612641565b348015610a3457600080fd5b506106ce6126b3565b6106ce6126d2565b348015610a5157600080fd5b506106ce610a60366004615d3d565b6126da565b348015610a7157600080fd5b506106f061277d565b6106ce610a88366004615d3d565b612783565b348015610a9957600080fd5b506106ce610aa8366004615d5e565b612cc9565b348015610ab957600080fd5b506106f0610ac8366004615be6565b612d01565b348015610ad957600080fd5b506106f0610ae8366004615ad2565b612d13565b348015610af957600080fd5b506108c7610b08366004615be6565b612d25565b348015610b1957600080fd5b50610b22612d76565b6040516106fd9190615f17565b348015610b3b57600080fd5b506106ce610b4a366004615cc1565b612d7f565b348015610b5b57600080fd5b506106ce610b6a366004615be6565b612ef7565b348015610b7b57600080fd5b506106ce610b8a366004615be6565b613229565b348015610b9b57600080fd5b506106ce61339b565b348015610bb057600080fd5b506106ce610bbf366004615be6565b6133c5565b348015610bd057600080fd5b506106f0610bdf366004615ad2565b613530565b348015610bf057600080fd5b506106ce61354b565b348015610c0557600080fd5b506108c76135d4565b348015610c1a57600080fd5b506106ce610c29366004615d3d565b613606565b348015610c3a57600080fd5b50610c436136a9565b6040516106fd929190615e3d565b348015610c5d57600080fd5b506106f06136be565b348015610c7257600080fd5b506106ce610c81366004615be6565b6136c4565b348015610c9257600080fd5b506106f0613a5a565b348015610ca757600080fd5b5061077b610cb6366004615d3d565b613a60565b348015610cc757600080fd5b506106ce613a8a565b348015610cdc57600080fd5b506106f0610ceb366004615ad2565b613ae6565b348015610cfc57600080fd5b506106f0613af8565b348015610d1157600080fd5b506106f0610d20366004615b57565b613afe565b348015610d3157600080fd5b506106ce610d40366004615ad2565b613bc8565b348015610d5157600080fd5b5061077b613be9565b348015610d6657600080fd5b50610b22610d75366004615be6565b613bf8565b348015610d8657600080fd5b506106f0610d95366004615be6565b613c1a565b348015610da657600080fd5b506106f0613cb6565b348015610dbb57600080fd5b506106ce610dca366004615ad2565b613cbc565b348015610ddb57600080fd5b506106ce610dea366004615d3d565b613cdc565b348015610dfb57600080fd5b506106f0613d7f565b348015610e1057600080fd5b506106f0613d85565b348015610e2557600080fd5b506106f0613d8b565b348015610e3a57600080fd5b50610b22610e49366004615be6565b613d91565b348015610e5a57600080fd5b506106ce610e69366004615be6565b613da9565b348015610e7a57600080fd5b5061077b610e89366004615d3d565b613f7c565b348015610e9a57600080fd5b5061077b613fa2565b348015610eaf57600080fd5b50610b22613fb6565b348015610ec457600080fd5b506106ce610ed3366004615be6565b6114f0565b348015610ee457600080fd5b506106f0610ef3366004615c16565b613fbf565b348015610f0457600080fd5b506106f0613fe7565b348015610f1957600080fd5b506106f0613fed565b348015610f2e57600080fd5b506106f0610f3d366004615be6565b613ff3565b348015610f4e57600080fd5b50610c43614005565b348015610f6357600080fd5b506106f0614019565b348015610f7857600080fd5b5061077b610f87366004615d3d565b61401f565b348015610f9857600080fd5b50610b22610fa7366004615be6565b614045565b348015610fb857600080fd5b506106ce610fc7366004615c42565b61405c565b348015610fd857600080fd5b506106ce610fe7366004615be6565b614082565b348015610ff857600080fd5b506106ce611007366004615be6565b6141ed565b34801561101857600080fd5b506106f0614642565b34801561102d57600080fd5b506106ce61103c366004615be6565b614648565b34801561104d57600080fd5b506106ce61105c366004615be6565b61482a565b34801561106d57600080fd5b506106ce61107c366004615d3d565b61485a565b34801561108d57600080fd5b506106ce61109c366004615d3d565b6148fd565b3480156110ad57600080fd5b506106f06149a0565b6106ce6149a6565b3480156110ca57600080fd5b506108c76110d9366004615aed565b6149c6565b3480156110ea57600080fd5b5061077b6110f9366004615d3d565b614a20565b34801561110a57600080fd5b506106f0611119366004615c16565b614a46565b34801561112a57600080fd5b506106f0611139366004615c16565b614a6e565b34801561114a57600080fd5b506108c7611159366004615aed565b614a8b565b34801561116a57600080fd5b5061077b614ae2565b34801561117f57600080fd5b50610b2261118e366004615be6565b614af1565b34801561119f57600080fd5b506106ce6111ae366004615ad2565b614b1c565b3480156111bf57600080fd5b506106f0614bdc565b3480156111d457600080fd5b506106f0614be2565b3480156111e957600080fd5b506106ce6111f8366004615be6565b614be8565b6106ce61120b366004615be6565b614c23565b34801561121c57600080fd5b5061123061122b366004615be6565b6150d5565b6040516106fd91906169ea565b60008281526003602052604090206001015482906001600160a01b031633146112815760405162461bcd60e51b8152600401611278906164cb565b60405180910390fd5b6000838152600360205260409020600701544281116112b25760405162461bcd60e51b815260040161127890616244565b82602381905550837fc7f388abb2270b17eb176e822b294649a0309ac03d013b680c7d4a20c185e67d846040516112e99190616a9b565b60405180910390a250505050565b600c6020526000908152604090205481565b6000818152600360205260409020600701548190421061133b5760405162461bcd60e51b8152600401611278906167e8565b600061134683615218565b90506000611353846152b3565b90506000808311806113655750600082115b9050847f96b57ff66beeac6e8fd6b33b23f7d11be509931d1cd059f04036989848c6efe682611395576000611398565b60015b6040516113a59190616b5d565b60405180910390a25050505050565b60008281526003602052604090206001015482906001600160a01b031633146113ef5760405162461bcd60e51b8152600401611278906164cb565b6000838152600360205260409020600701544281116114205760405162461bcd60e51b815260040161127890616244565b82602181905550837fbe95b51fb29523640d8d589c9eba58d8b9b3100df6b28caeb5549273622dbb1f846040516112e99190616a9b565b806114745760405162461bcd60e51b815260040161127890615f6f565b5050565b6001546001600160a01b03165b90565b60009283526009602090815260408085206001600160a01b039094168552929052912055565b601c546000828152600360205260409020600701546114d29163ffffffff61534e16565b42106114f05760405162461bcd60e51b815260040161127890616754565b50565b60008381526003602052604090206001015483906001600160a01b0316331461152e5760405162461bcd60e51b8152600401611278906164cb565b60008481526003602052604090206007015442811161155f5760405162461bcd60e51b815260040161127890616244565b84600160008281526003602052604090206005015460ff16600281111561158257fe5b14156115a05760405162461bcd60e51b815260040161127890616131565b600086815260036020526040902060070154869042106115d25760405162461bcd60e51b8152600401611278906167e8565b8585808060200260200160405190810160405280939291908181526020018383602002808284376000920191909152505082511515915061162790505760405162461bcd60e51b815260040161127890615fcb565b62030d405a116116495760405162461bcd60e51b81526004016112789061607d565b600088815260036020526040902060058101805460ff19166001179055611674906006018888615908565b5060608667ffffffffffffffff8111801561168e57600080fd5b506040519080825280602002602001820160405280156116b8578160200160208202803683370190505b50905060005b878110156116f8578888828181106116d257fe5b905060200201358282815181106116e557fe5b60209081029190910101526001016116be565b5060008981526003602081815260408084206006909252909220825481546001600160a01b039182166001600160a01b03199182161783556001808601549084018054918416918316919091179055600280860154908401805491909316911617905582820154918101919091556004808301805461177a9284019190615953565b50600582810154908201805460ff9092169160ff1916600183600281111561179e57fe5b0217905550600682810180546117b79284019190615953565b50600782810154908201556008918201549101556040517f9d4b6dff4c87b3afacb569dc9e0e4d482bbc9d40b0f7ef1a71c79339db3c70ff906117ff908b9033908590616b16565b60405180910390a1505050505050505050565b60008281526003602052604090206001015482906001600160a01b0316331461184d5760405162461bcd60e51b8152600401611278906164cb565b60008381526003602052604090206007015442811161187e5760405162461bcd60e51b815260040161127890616244565b826001600160a01b0381166118a55760405162461bcd60e51b81526004016112789061630f565b62030d405a116118c75760405162461bcd60e51b81526004016112789061607d565b336000908152600560209081526040808320888452909152812080546001600160a01b03199081168255600182018054821690556002820180549091169055600381018290559061191b6004830182615993565b60058201805460ff19169055611935600683016000615993565b506000600782018190556008909101819055858152600360208181526040808420600180820180546001600160a01b03808d166001600160a01b0319928316811784558952600587528589208e8a5290965293909620825481548516908616178155955490860180548416918516919091179055600280820154908601805490931693169290921790558082015491830191909155600480820180549293926119e19284019190615953565b50600582810154908201805460ff9092169160ff19166001836002811115611a0557fe5b021790555060068281018054611a1e9284019190615953565b50600782810154908201556008918201549101556040517f570b9297ef9982646a5b51a09a56e2f1aad24a61c8daf045803c4569ddd2af1e90611a6690879033908890616abb565b60405180910390a15050505050565b611a7d61537a565b6001600160a01b0316611a8e613be9565b6001600160a01b031614611ab45760405162461bcd60e51b8152600401611278906166e8565b6001600160a01b038116611ada5760405162461bcd60e51b8152600401611278906165cb565b601180546001600160a01b0319166001600160a01b0392909216919091179055565b60025490565b6000818152600360208181526040808420805460018201546002830154958301546005840154600785015460088601546004870180548951818c0281018c01909a52808a528c9b8c9b8c9b60609b8d9b8d9b8d9b8c9b939a6001600160a01b039384169a92841699979093169790969560ff9094169460068c019490918791830182828015611bb057602002820191906000526020600020905b815481526020019060010190808311611b9c575b5050505050945082805480602002602001604051908101604052809291908181526020018280548015611c0257602002820191906000526020600020905b815481526020019060010190808311611bee575b50505050509250995099509950995099509950995099509950509193959799909294969850565b60235490565b60008281526003602052604090206001015482906001600160a01b03163314611c6a5760405162461bcd60e51b8152600401611278906164cb565b600083815260036020526040902060070154428111611c9b5760405162461bcd60e51b815260040161127890616244565b82602081905550837fd426195495073ec4a9d9805a3fa80f425c189f701de7c9426266b8c965acce31846040516112e99190616a9b565b60066020526000908152604090208054600182015460028301546003840154600585015460078601546008909601546001600160a01b03958616969486169590931693919260ff909116919087565b60008281526003602052604090206001015482906001600160a01b03163314611d5c5760405162461bcd60e51b8152600401611278906164cb565b50601e5550565b60225481565b60076020526000908152604090208054600182015460029092015490919083565b6001805b620186a08111611da45790810290600101611d8e565b50620186a05a116114f05760405162461bcd60e51b81526004016112789061607d565b60008281526003602052604090206001015482906001600160a01b03163314611e025760405162461bcd60e51b8152600401611278906164cb565b600083815260036020526040902060070154428111611e335760405162461bcd60e51b815260040161127890616244565b82601d81905550837fe16a6dd3c7a1a4a15a5d0e545e58617ec3b966456c5b63c9b2615cd01d677438846040516112e99190616a9b565b600081815260036020526040902060070154428111611e9b5760405162461bcd60e51b815260040161127890616244565b60008281526003602052604090206007015482904210611ecd5760405162461bcd60e51b8152600401611278906167e8565b60008381526003602052604090206007015483904210611eff5760405162461bcd60e51b81526004016112789061688b565b62030d405a11611f215760405162461bcd60e51b81526004016112789061607d565b600160008581526003602052604090206005015460ff166002811115611f4357fe5b14611f605760405162461bcd60e51b815260040161127890616639565b600060265411611f825760405162461bcd60e51b815260040161127890616528565b600080805b600087815260036020526040902060060154811015611fe65760008781526003602052604090206006018054611fdc919083908110611fc257fe5b90600052602060002001548461534e90919063ffffffff16565b9250600101611f87565b5060005b60008781526003602052604090206004015481101561207557600087815260036020526040902060088101546004909101805461206b9261205e92909161205291908690811061203657fe5b906000526020600020015460265461537e90919063ffffffff16565b9063ffffffff6153b816565b839063ffffffff61534e16565b9150600101611fea565b50818110156120965760405162461bcd60e51b8152600401611278906163da565b600086815260036020819052604091829020600281015460018201549190920154925163a9059cbb60e01b81526001600160a01b039283169363a9059cbb936120e3931691600401615e3d565b602060405180830381600087803b1580156120fd57600080fd5b505af1158015612111573d6000803e3d6000fd5b505050506040513d601f19601f820116820180604052508101906121359190615bc6565b6121515760405162461bcd60e51b815260040161127890616397565b60008681526003602090815260408083206002810154905460079093529281902060010154905163a9059cbb60e01b81526001600160a01b039384169363a9059cbb936121a393911691600401615e3d565b602060405180830381600087803b1580156121bd57600080fd5b505af11580156121d1573d6000803e3d6000fd5b505050506040513d601f19601f820116820180604052508101906121f59190615bc6565b6122115760405162461bcd60e51b815260040161127890616046565b336000908152600560209081526040808320898452909152812080546001600160a01b0319908116825560018201805482169055600282018054909116905560038101829055906122656004830182615993565b60058201805460ff1916905561227f600683016000615993565b5060006007820181905560089091018190553381526004602081815260408084208a8552909152822080546001600160a01b031990811682556001820180548216905560028201805490911690556003810183905591906122e290830182615993565b60058201805460ff191690556122fc600683016000615993565b506000600782018190556008909101819055868152600360208190526040822080546001600160a01b03199081168255600182018054821690556002820180549091169055908101829055906123556004830182615993565b60058201805460ff1916905561236f600683016000615993565b506000600782810182905560089092018190558781526020918252604080822082815560018082018490556002918201849055600690945290822080546001600160a01b031990811682559381018054851690559081018054909316909255600382018190556123e26004830182615993565b60058201805460ff191690556123fc600683016000615993565b5060006007820181905560089091015560405133907f72fc7139226e4349b3cf7baa2fd3aca128897923fea219a0d0d13ccec626f8319061244290899085908790616b47565b60405180910390a2505050505050565b6000600019815b6000848152600360205260409020600601548110156124f0576000848152600f602090815260408083206003909252822060060180548391908590811061249c57fe5b60009182526020808320909101548352828101939093526040918201812054888252600984528282206001600160a01b0390911680835293522054909150838110156124e6578093505b5050600101612459565b5092915050565b60008281526003602052604090206001015482906001600160a01b031633146125325760405162461bcd60e51b8152600401611278906164cb565b6000838152600360205260409020600701544281116125635760405162461bcd60e51b815260040161127890616244565b600084815260036020526040902060070154612585908463ffffffff61534e16565b60008581526003602052604090819020600701919091555184907f73693f148afc35383d1bc2d56ef315dfc19a9b9643aa2f3c1b5924cbab1ad08e906112e9908690616a9b565b600860209081526000928352604080842090915290825290205481565b6001546001600160a01b031633146126135760405162461bcd60e51b81526004016112789061698d565b60295460ff166126355760405162461bcd60e51b815260040161127890616602565b6029805460ff19169055565b6001546001600160a01b0316331461266b5760405162461bcd60e51b81526004016112789061698d565b6001600160a01b0381166126915760405162461bcd60e51b8152600401611278906161d6565b601080546001600160a01b0319166001600160a01b0392909216919091179055565b336126d05760405162461bcd60e51b81526004016112789061600f565b565b6000196114f0565b60008281526003602052604090206001015482906001600160a01b031633146127155760405162461bcd60e51b8152600401611278906164cb565b6000838152600360205260409020600701544281116127465760405162461bcd60e51b815260040161127890616244565b82602581905550837f739c545831ee1c004c8dc63dd2a25d90c684b3ad9b4e2b2a913d086cd8f95dde846040516112e99190616a9b565b601e5481565b34600081116127a45760405162461bcd60e51b81526004016112789061678b565b6000838152600360205260409020600701544281116127d55760405162461bcd60e51b815260040161127890616244565b62030d405a116127f75760405162461bcd60e51b81526004016112789061607d565b600084815260036020526040902060070154849042106128295760405162461bcd60e51b8152600401611278906167e8565b6000858152600760205260409020600201548490811580159061284c5750808211155b6128685760405162461bcd60e51b815260040161127890616411565b6000878152600760205260409020600201546026546128929190612052908963ffffffff61537e16565b34146128b05760405162461bcd60e51b81526004016112789061671d565b6000805b60008981526003602052604090206006015481101561291357600089815260036020526040902060060180546129099190839081106128ef57fe5b90600052602060002001548361534e90919063ffffffff16565b91506001016128b4565b508034146129335760405162461bcd60e51b81526004016112789061620d565b600088815260036020819052604091829020600281015460018201549190920154925163a9059cbb60e01b81526001600160a01b039283169363a9059cbb93612980931691600401615e3d565b602060405180830381600087803b15801561299a57600080fd5b505af11580156129ae573d6000803e3d6000fd5b505050506040513d601f19601f820116820180604052508101906129d29190615bc6565b6129ee5760405162461bcd60e51b815260040161127890616397565b60008881526003602090815260408083206002810154905460079093529281902060010154905163a9059cbb60e01b81526001600160a01b039384169363a9059cbb93612a4093911691600401615e3d565b602060405180830381600087803b158015612a5a57600080fd5b505af1158015612a6e573d6000803e3d6000fd5b505050506040513d601f19601f82011682018060405250810190612a929190615bc6565b612aae5760405162461bcd60e51b815260040161127890616046565b3360009081526005602090815260408083208b8452909152812080546001600160a01b031990811682556001820180548216905560028201805490911690556003810182905590612b026004830182615993565b60058201805460ff19169055612b1c600683016000615993565b506000600782018190556008909101819055888152600360208181526040808420338552600583528185208d8652909252909220825481546001600160a01b039182166001600160a01b031991821617835560018086015490840180549184169183169190911790556002808601549084018054919093169116179055828201549181019190915560048083018054612bb89284019190615953565b50600582810154908201805460ff9092169160ff19166001836002811115612bdc57fe5b021790555060068281018054612bf59284019190615953565b506007828101549082015560089182015491015560008881526003602052604090206001810180546001600160a01b03191633179055600501805460ff1916905534811015612c7c57336108fc612c52348463ffffffff6153ea16565b6040518115909202916000818181858888f19350505050158015612c7a573d6000803e3d6000fd5b505b336001600160a01b03167f23ad4783d95ee2d3730fae4843757e102bd28a58ef48e2c6f8fe93aef120f5fb8983604051612cb7929190615f22565b60405180910390a25050505050505050565b6000928352600f60209081526040808520938552929052912080546001600160a01b0319166001600160a01b03909216919091179055565b6000908152600c602052604090205490565b600d6020526000908152604090205481565b600360208190526000918252604090912080546001820154600283015493830154600584015460078501546008909501546001600160a01b0394851696938516959390941693919260ff9091169187565b60295460ff1681565b60008481526003602052604090206001015484906001600160a01b03163314612dba5760405162461bcd60e51b8152600401611278906164cb565b6027546001600160a01b0316612de25760405162461bcd60e51b81526004016112789061681f565b6027546040516000916001600160a01b0316906310835dbb90612e0d90899089908990602001615deb565b60405160208183030381529060405280519060200120670de0b6b3a76400006040518363ffffffff1660e01b8152600401612e49929190615f22565b602060405180830381600087803b158015612e6357600080fd5b505af1158015612e77573d6000803e3d6000fd5b505050506040513d601f19601f82011682018060405250810190612e9b9190615bfe565b9050612ead428463ffffffff61534e16565b6000828152600a602052604090819020919091555186907f45ca523dc8cc2788a2e6538f8b62e73851b5025a306ff66e3e587b081ca3153090612442908890889088908790615f30565b60008181526003602052604090206001015481906001600160a01b03163314612f325760405162461bcd60e51b8152600401611278906164cb565b60008281526003602052604090206007015482904210612f645760405162461bcd60e51b8152600401611278906167e8565b60008381526003602052604081206005015460ff166002811115612f8457fe5b14612fa15760405162461bcd60e51b8152600401611278906168f9565b600083815260036020819052604091829020600281015460018201549190920154925163a9059cbb60e01b81526001600160a01b039283169363a9059cbb93612fee931691600401615e3d565b602060405180830381600087803b15801561300857600080fd5b505af115801561301c573d6000803e3d6000fd5b505050506040513d601f19601f820116820180604052508101906130409190615bc6565b61305c5760405162461bcd60e51b815260040161127890616397565b336000908152600560209081526040808320868452909152812080546001600160a01b0319908116825560018201805482169055600282018054909116905560038101829055906130b06004830182615993565b60058201805460ff191690556130ca600683016000615993565b506000600782018190556008909101819055338152600460208181526040808420878552909152822080546001600160a01b0319908116825560018201805482169055600282018054909116905560038101839055919061312d90830182615993565b60058201805460ff19169055613147600683016000615993565b506000600782018190556008909101819055838152600360208190526040822080546001600160a01b03199081168255600182018054821690556002820180549091169055908101829055906131a06004830182615993565b60058201805460ff191690556131ba600683016000615993565b50600060078281018290556008909201819055848152602091909152604080822082815560018101839055600201919091555133907f2d428178e65c47bfb7d75b43e57e93851220995d8887d6826253c18d9b9fc99f9061321c908690616a9b565b60405180910390a2505050565b60008181526003602052604090206001015481906001600160a01b031633146132645760405162461bcd60e51b8152600401611278906164cb565b600082815260036020526040902060070154829042106132965760405162461bcd60e51b8152600401611278906167e8565b600160008481526003602052604090206005015460ff1660028111156132b857fe5b146132d55760405162461bcd60e51b815260040161127890616639565b6000838152600360208181526040808420600501805460ff191690556006909152822080546001600160a01b03199081168255600182018054821690556002820180549091169055908101829055906133316004830182615993565b60058201805460ff1916905561334b600683016000615993565b6007820160009055600882016000905550507f05226439292b7408157c7fb8a72a8ef4696205d78e3b985cee36978e1200f2df833360405161338e929190616aa4565b60405180910390a1505050565b6001546001600160a01b031633146126d05760405162461bcd60e51b81526004016112789061698d565b60008181526003602052604090206001015481906001600160a01b031633146134005760405162461bcd60e51b8152600401611278906164cb565b600082815260036020526040902060070154829042106134325760405162461bcd60e51b8152600401611278906167e8565b601f546000848152600360205260409020600701546134569163ffffffff61534e16565b42116134745760405162461bcd60e51b815260040161127890616854565b60005b6000848152600360205260409020600601548110156134ff576000848152600f60209081526040808320600390925282206006018054839190859081106134ba57fe5b60009182526020808320909101548352828101939093526040918201812054888252600984528282206001600160a01b03909116825290925281205550600101613477565b5060405183907f568aeda352153539d9813524dc5d57d37f459a2966a4092d7c00b12e8f23420d90600090a2505050565b6001600160a01b03166000908152600d602052604090205490565b61355361537a565b6001600160a01b0316613564613be9565b6001600160a01b03161461358a5760405162461bcd60e51b8152600401611278906166e8565b600080546040516001600160a01b03909116907f8be0079c531659141344cd1fd0a4f28419497f9722a3daafe3b4186f6b6457e0908390a3600080546001600160a01b0319169055565b6010546011546012546013546015546017546018546001600160a01b0396871696958616959094169360ff9092169187565b60008281526003602052604090206001015482906001600160a01b031633146136415760405162461bcd60e51b8152600401611278906164cb565b6000838152600360205260409020600701544281116136725760405162461bcd60e51b815260040161127890616244565b82602481905550837f7bfac94b8f45c93697445d23eac75f25203c65fe9d9455b378ec00a954678459846040516112e99190616a9b565b6001546002546001600160a01b039091169082565b60245481565b60008181526003602052604090206001015481906001600160a01b031633146136ff5760405162461bcd60e51b8152600401611278906164cb565b600082815260036020526040902060070154829042106137315760405162461bcd60e51b8152600401611278906167e8565b600160008481526003602052604090206005015460ff16600281111561375357fe5b14156137715760405162461bcd60e51b815260040161127890615f96565b600083815260036020819052604091829020600281015460018201549190920154925163a9059cbb60e01b81526001600160a01b039283169363a9059cbb936137be931691600401615e3d565b602060405180830381600087803b1580156137d857600080fd5b505af11580156137ec573d6000803e3d6000fd5b505050506040513d601f19601f820116820180604052508101906138109190615bc6565b61382c5760405162461bcd60e51b815260040161127890616397565b336000908152600560209081526040808320868452909152812080546001600160a01b0319908116825560018201805482169055600282018054909116905560038101829055906138806004830182615993565b60058201805460ff1916905561389a600683016000615993565b506000600782018190556008909101819055338152600460208181526040808420878552909152822080546001600160a01b031990811682556001820180548216905560028201805490911690556003810183905591906138fd90830182615993565b60058201805460ff19169055613917600683016000615993565b506000600782018190556008909101819055838152600360208190526040822080546001600160a01b03199081168255600182018054821690556002820180549091169055908101829055906139706004830182615993565b60058201805460ff1916905561398a600683016000615993565b506000600782810182905560089092018190558481526020918252604080822082815560018082018490556002918201849055600690945290822080546001600160a01b031990811682559381018054851690559081018054909316909255600382018190556139fd6004830182615993565b60058201805460ff19169055613a17600683016000615993565b6007820160009055600882016000905550507f5b5bdde384b3291bb09948b7b8e2fe72e964ad6835353f33165701f8d8b6311c833360405161338e929190616aa4565b60255481565b6000828152600e602090815260408083208484529091529020546001600160a01b03165b92915050565b6001546001600160a01b03163314613ab45760405162461bcd60e51b81526004016112789061698d565b60295460ff1615613ad75760405162461bcd60e51b815260040161127890616956565b6029805460ff19166001179055565b600b6020526000908152604090205481565b601d5481565b6000613b0b858585615412565b601954613b1f90869063ffffffff61534e16565b94506000613b658888808060200260200160405190810160405280939291908181526020018383602002808284376000920191909152508a925089915088905087615460565b90507faa32d33a6d7b7d1531fc41b3dfbc84e08fddba5db1ed6b86bd4c8e39d8efcdfe813387878c8c6000818110613b9957fe5b905060200201358b89604051613bb59796959493929190616ada565b60405180910390a1979650505050505050565b6001600160a01b03166000908152600d602052604090208054600019019055565b6000546001600160a01b031690565b6000818152600360205260409020600101546001600160a01b03163314919050565b600080805b6000848152600360205260409020600601548110156124f0576000848152600e6020908152604080832060039092528220600601805483919085908110613c6257fe5b60009182526020808320909101548352828101939093526040918201812054888252600884528282206001600160a01b039091168083529352205490915083811115613cac578093505b5050600101613c1f565b60205481565b6001600160a01b03166000908152600d6020526040902080546001019055565b60008281526003602052604090206001015482906001600160a01b03163314613d175760405162461bcd60e51b8152600401611278906164cb565b600083815260036020526040902060070154428111613d485760405162461bcd60e51b815260040161127890616244565b82601f81905550837ff5b670dfc12583e5b0164fca9fbbd0e6997013ca4b1a92457f1d3aead8dfd435846040516112e99190616a9b565b601c5481565b60215481565b60265481565b60009081526003602052604090206007015442101590565b6000602960019054906101000a90046001600160a01b03166001600160a01b03166316fe73ec6040518163ffffffff1660e01b815260040160206040518083038186803b158015613df957600080fd5b505afa158015613e0d573d6000803e3d6000fd5b505050506040513d601f19601f82011682018060405250810190613e319190615bfe565b11613e4e5760405162461bcd60e51b815260040161127890616494565b6000602960019054906101000a90046001600160a01b03166001600160a01b03166316fe73ec6040518163ffffffff1660e01b815260040160206040518083038186803b158015613e9e57600080fd5b505afa158015613eb2573d6000803e3d6000fd5b505050506040513d601f19601f82011682018060405250810190613ed69190615bfe565b9050817f1265ed0ee2224724954858bc12b94d9ec15e1a0f2f4b3aa8e2bba7079459020882604051613f089190616a9b565b60405180910390a2602960019054906101000a90046001600160a01b03166001600160a01b031663f9e19fa56040518163ffffffff1660e01b8152600401600060405180830381600087803b158015613f6057600080fd5b505af1158015613f74573d6000803e3d6000fd5b505050505050565b600f6020908152600092835260408084209091529082529020546001600160a01b031681565b60295461010090046001600160a01b031681565b60295460ff1690565b60009182526009602090815260408084206001600160a01b0393909316845291905290205490565b60195481565b601b5481565b600a6020526000908152604090205481565b6001546002546001600160a01b0390911691565b601f5481565b6000918252600f602090815260408084209284529190529020546001600160a01b031690565b600090815260036020526040902060070154421190565b60009283526008602090815260408085206001600160a01b039094168552929052912055565b60008181526003602052604090206001015481906001600160a01b031633146140bd5760405162461bcd60e51b8152600401611278906164cb565b600082815260036020526040902060070154829042106140ef5760405162461bcd60e51b8152600401611278906167e8565b601a546000848152600360205260409020600701546141139163ffffffff6153ea16565b42116141315760405162461bcd60e51b8152600401611278906168c2565b60005b6000848152600360205260409020600601548110156141bc576000848152600e602090815260408083206003909252822060060180548391908590811061417757fe5b60009182526020808320909101548352828101939093526040918201812054888252600884528282206001600160a01b03909116825290925281205550600101614134565b5060405183907f7802cd593f5c917333e3eaa52e735224ba7d2af514a30cc7b8cb8b768b49cdbf90600090a2505050565b60008181526003602052604090206001015481906001600160a01b031633146142285760405162461bcd60e51b8152600401611278906164cb565b6000828152600360205260409020600701548290421061425a5760405162461bcd60e51b8152600401611278906167e8565b600160008481526003602052604090206005015460ff16600281111561427c57fe5b141561429a5760405162461bcd60e51b815260040161127890616356565b600083815260036020819052604091829020600281015460018201549190920154925163a9059cbb60e01b81526001600160a01b039283169363a9059cbb936142e7931691600401615e3d565b602060405180830381600087803b15801561430157600080fd5b505af1158015614315573d6000803e3d6000fd5b505050506040513d601f19601f820116820180604052508101906143399190615bc6565b6143555760405162461bcd60e51b815260040161127890616397565b60008381526003602090815260408083206002810154905460079093529281902060010154905163a9059cbb60e01b81526001600160a01b039384169363a9059cbb936143a793911691600401615e3d565b602060405180830381600087803b1580156143c157600080fd5b505af11580156143d5573d6000803e3d6000fd5b505050506040513d601f19601f820116820180604052508101906143f99190615bc6565b6144155760405162461bcd60e51b815260040161127890616046565b336000908152600560209081526040808320868452909152812080546001600160a01b0319908116825560018201805482169055600282018054909116905560038101829055906144696004830182615993565b60058201805460ff19169055614483600683016000615993565b506000600782018190556008909101819055338152600460208181526040808420878552909152822080546001600160a01b031990811682556001820180548216905560028201805490911690556003810183905591906144e690830182615993565b60058201805460ff19169055614500600683016000615993565b506000600782018190556008909101819055838152600360208190526040822080546001600160a01b03199081168255600182018054821690556002820180549091169055908101829055906145596004830182615993565b60058201805460ff19169055614573600683016000615993565b506000600782810182905560089092018190558481526020918252604080822082815560018082018490556002918201849055600690945290822080546001600160a01b031990811682559381018054851690559081018054909316909255600382018190556145e66004830182615993565b60058201805460ff19169055614600600683016000615993565b5060006007820181905560089091015560405133907f99345787a609d8a93a34ac5c7c9c0a4b1691a4e49b40518f6d6e193c286432aa9061321c908690616a9b565b601e5490565b60008181526003602052604090206001015481906001600160a01b031633146146835760405162461bcd60e51b8152600401611278906164cb565b600082815260036020526040902060070154829042106146b55760405162461bcd60e51b8152600401611278906167e8565b600160008481526003602052604090206005015460ff1660028111156146d757fe5b146146f45760405162461bcd60e51b815260040161127890616639565b336000908152600560209081526040808320868452909152812080546001600160a01b0319908116825560018201805482169055600282018054909116905560038101829055906147486004830182615993565b60058201805460ff19169055614762600683016000615993565b506000600782018190556008909101819055838152600360208181526040808420600501805460ff191690556006909152822080546001600160a01b03199081168255600182018054821690556002820180549091169055908101829055906147ce6004830182615993565b60058201805460ff191690556147e8600683016000615993565b5060006007820181905560089091015560405133907f89a43fd47467ad079e1a3e484f558948a678189908ca1b2055c4c3b63222b1af9061321c908690616a9b565b60008181526003602052604090206007015442106114f05760405162461bcd60e51b81526004016112789061688b565b60008281526003602052604090206001015482906001600160a01b031633146148955760405162461bcd60e51b8152600401611278906164cb565b6000838152600360205260409020600701544281116148c65760405162461bcd60e51b815260040161127890616244565b82601c81905550837f8a7a5c9c34210b39b0dd6c746e4824f7af2a84c059d4dcbc168a2036d26df990846040516112e99190616a9b565b60008281526003602052604090206001015482906001600160a01b031633146149385760405162461bcd60e51b8152600401611278906164cb565b6000838152600360205260409020600701544281116149695760405162461bcd60e51b815260040161127890616244565b82602281905550837f436da186610be724d1e56abf3d34d2baf7374f4bc9b7e38002969d08393cf547846040516112e99190616a9b565b60235481565b600034116126d05760405162461bcd60e51b815260040161127890616168565b600460209081526000928352604080842090915290825290208054600182015460028301546003840154600585015460078601546008909601546001600160a01b03958616969486169590931693919260ff909116919087565b600e6020908152600092835260408084209091529082529020546001600160a01b031681565b60009182526008602090815260408084206001600160a01b0393909316845291905290205490565b600960209081526000928352604080842090915290825290205481565b6005602081815260009384526040808520909152918352912080546001820154600283015460038401549484015460078501546008909501546001600160a01b039485169693851695949092169360ff9091169187565b6027546001600160a01b031681565b6000600160008381526003602052604090206005015460ff166002811115614b1557fe5b1492915050565b614b2461537a565b6001600160a01b0316614b35613be9565b6001600160a01b031614614b5b5760405162461bcd60e51b8152600401611278906166e8565b6001600160a01b038116614b815760405162461bcd60e51b8152600401611278906160b4565b600080546040516001600160a01b03808516939216917f8be0079c531659141344cd1fd0a4f28419497f9722a3daafe3b4186f6b6457e091a3600080546001600160a01b0319166001600160a01b0392909216919091179055565b60285481565b601a5481565b60008181526003602052604090206001015481906001600160a01b031633146114745760405162461bcd60e51b8152600401611278906164cb565b60008181526003602052604090206007015481904210614c555760405162461bcd60e51b8152600401611278906167e8565b60008281526003602052604090206007015482904210614c875760405162461bcd60e51b81526004016112789061688b565b62030d405a11614ca95760405162461bcd60e51b81526004016112789061607d565b600160008481526003602052604090206005015460ff166002811115614ccb57fe5b14614ce85760405162461bcd60e51b815260040161127890616639565b6000805b600085815260036020526040902060060154811015614d315760008581526003602052604090206006018054614d279190839081106128ef57fe5b9150600101614cec565b50803414614d515760405162461bcd60e51b81526004016112789061620d565b600084815260036020819052604091829020600281015460018201549190920154925163a9059cbb60e01b81526001600160a01b039283169363a9059cbb93614d9e931691600401615e3d565b602060405180830381600087803b158015614db857600080fd5b505af1158015614dcc573d6000803e3d6000fd5b505050506040513d601f19601f82011682018060405250810190614df09190615bc6565b614e0c5760405162461bcd60e51b815260040161127890616397565b60008481526003602090815260408083206002810154905460079093529281902060010154905163a9059cbb60e01b81526001600160a01b039384169363a9059cbb93614e5e93911691600401615e3d565b602060405180830381600087803b158015614e7857600080fd5b505af1158015614e8c573d6000803e3d6000fd5b505050506040513d601f19601f82011682018060405250810190614eb09190615bc6565b614ecc5760405162461bcd60e51b815260040161127890616046565b336000908152600560209081526040808320878452909152812080546001600160a01b031990811682556001820180548216905560028201805490911690556003810182905590614f206004830182615993565b60058201805460ff19169055614f3a600683016000615993565b50600060078201819055600890910181905584815260036020818152604080842033855260058352818520898652909252909220825481546001600160a01b039182166001600160a01b031991821617835560018086015490840180549184169183169190911790556002808601549084018054919093169116179055828201549181019190915560048083018054614fd69284019190615953565b50600582810154908201805460ff9092169160ff19166001836002811115614ffa57fe5b0217905550600682810180546150139284019190615953565b506007828101549082015560089182015491015560008481526003602052604090206001810180546001600160a01b03191633179055600501805460ff191690553481101561509a57336108fc615070348463ffffffff6153ea16565b6040518115909202916000818181858888f19350505050158015615098573d6000803e3d6000fd5b505b336001600160a01b03167f23ad4783d95ee2d3730fae4843757e102bd28a58ef48e2c6f8fe93aef120f5fb85836040516112e9929190615f22565b6150dd6159b1565b60008281526006602090815260409182902082516101208101845281546001600160a01b03908116825260018301548116828501526002830154168185015260038201546060820152600482018054855181860281018601909652808652919492936080860193929083018282801561517557602002820191906000526020600020905b815481526020019060010190808311615161575b5050509183525050600582015460209091019060ff16600281111561519657fe5b60028111156151a157fe5b8152602001600682018054806020026020016040519081016040528092919081815260200182805480156151f457602002820191906000526020600020905b8154815260200190600101908083116151e0575b50505050508152602001600782015481526020016008820154815250509050919050565b600080805b6000848152600360205260409020600601548110156124f0576000848152600e602090815260408083206003909252822060060180548391908590811061526057fe5b60009182526020808320909101548352828101939093526040918201812054888252600884528282206001600160a01b0390911680835293522054909150156152aa576001909201915b5060010161521d565b600080805b6000848152600360205260409020600601548110156124f0576000848152600f60209081526040808320600390925282206006018054839190859081106152fb57fe5b60009182526020808320909101548352828101939093526040918201812054888252600984528282206001600160a01b039091168083529352205490915015615345576001909201915b506001016152b8565b6000828201838110156153735760405162461bcd60e51b81526004016112789061619f565b9392505050565b3390565b60008261538d57506000613a84565b8282028284828161539a57fe5b04146153735760405162461bcd60e51b815260040161127890616670565b60008082116153d95760405162461bcd60e51b8152600401611278906162d8565b8183816153e257fe5b049392505050565b60008282111561540c5760405162461bcd60e51b8152600401611278906162a1565b50900390565b8242106154315760405162461bcd60e51b815260040161127890616244565b600081116154515760405162461bcd60e51b81526004016112789061655f565b61545b82826157ce565b505050565b60025461546b6159b1565b60408051610120810182523380825260208201526001600160a01b03871691810191909152606081018590526080810188905260a081016000815260200160006040519080825280602002602001820160405280156154d4578160200160208202803683370190505b508152602080820189905260409182018690526000858152600380835290839020845181546001600160a01b03199081166001600160a01b039283161783558685015160018401805483169184169190911790559486015160028301805490961691161790935560608401519083015560808301518051939450849361556092600485019201906159fc565b5060a082015160058201805460ff1916600183600281111561557e57fe5b021790555060c0820151805161559e9160068401916020909101906159fc565b5060e0820151600782015561010090910151600890910155336000908152600460208181526040808420868552825292839020845181546001600160a01b03199081166001600160a01b0392831617835586840151600184018054831691841691909117905594860151600283018054909616911617909355606084015160038401556080840151805185949361563a939085019201906159fc565b5060a082015160058201805460ff1916600183600281111561565857fe5b021790555060c082015180516156789160068401916020909101906159fc565b5060e0820151600782015561010090910151600890910155336000908152600560209081526040808320858452825291829020835181546001600160a01b03199081166001600160a01b039283161783558584015160018401805483169184169190911790559385015160028301805490951691161790925560608301516003830155608083015180518493926157169260048501929101906159fc565b5060a082015160058201805460ff1916600183600281111561573457fe5b021790555060c082015180516157549160068401916020909101906159fc565b5060e0820151600782015561010090910151600890910155615774615a37565b505060408051606081018252848152600060208083018281528385019687528583526007825284832093518455516001808501919091559551600293840155600c9052919091209390935582549091019091559392505050565b6040516323b872dd60e01b81526001600160a01b038316906323b872dd906157fe90339030908690600401615e19565b602060405180830381600087803b15801561581857600080fd5b505af115801561582c573d6000803e3d6000fd5b505050506040513d601f19601f820116820180604052508101906158509190615bc6565b61586c5760405162461bcd60e51b8152600401611278906160fa565b60405163095ea7b360e01b81526001600160a01b0383169063095ea7b39061589a9030908590600401615e3d565b602060405180830381600087803b1580156158b457600080fd5b505af11580156158c8573d6000803e3d6000fd5b505050506040513d601f19601f820116820180604052508101906158ec9190615bc6565b6114745760405162461bcd60e51b8152600401611278906166b1565b828054828255906000526020600020908101928215615943579160200282015b82811115615943578235825591602001919060010190615928565b5061594f929150615a58565b5090565b8280548282559060005260206000209081019282156159435760005260206000209182015b82811115615943578254825591600101919060010190615978565b50805460008255906000526020600020908101906114f09190615a58565b6040805161012081018252600080825260208201819052918101829052606080820183905260808201529060a082019081526020016060815260200160008152602001600081525090565b828054828255906000526020600020908101928215615943579160200282015b82811115615943578251825591602001919060010190615a1c565b60405180606001604052806000815260200160008152602001600081525090565b61148591905b8082111561594f5760008155600101615a5e565b80356001600160a01b0381168114613a8457600080fd5b60008083601f840112615a9a578182fd5b50813567ffffffffffffffff811115615ab1578182fd5b6020830191508360208083028501011115615acb57600080fd5b9250929050565b600060208284031215615ae3578081fd5b6153738383615a72565b60008060408385031215615aff578081fd5b615b098484615a72565b946020939093013593505050565b60008060208385031215615b29578182fd5b823567ffffffffffffffff811115615b3f578283fd5b615b4b85828601615a89565b90969095509350505050565b60008060008060008060a08789031215615b6f578182fd5b863567ffffffffffffffff811115615b85578283fd5b615b9189828a01615a89565b909750955050602087013593506040870135615bac81616b6b565b959894975092956060810135946080909101359350915050565b600060208284031215615bd7578081fd5b81518015158114615373578182fd5b600060208284031215615bf7578081fd5b5035919050565b600060208284031215615c0f578081fd5b5051919050565b60008060408385031215615c28578182fd5b82359150615c398460208501615a72565b90509250929050565b600080600060608486031215615c56578283fd5b83359250615c678560208601615a72565b9150604084013590509250925092565b600080600060408486031215615c8b578283fd5b83359250602084013567ffffffffffffffff811115615ca8578283fd5b615cb486828701615a89565b9497909650939450505050565b60008060008060608587031215615cd6578384fd5b84359350602085013567ffffffffffffffff80821115615cf4578485fd5b81870188601f820112615d05578586fd5b8035925081831115615d15578586fd5b886020848301011115615d26578586fd5b959860209096019750909560400135949350505050565b60008060408385031215615d4f578182fd5b50508035926020909101359150565b600080600060608486031215615d72578081fd5b83359250602084013591506040840135615d8b81616b6b565b809150509250925092565b6001600160a01b03169052565b6000815180845260208085019450808401835b83811015615dd257815187529582019590820190600101615db6565b509495945050505050565b60038110615de757fe5b9052565b600084825282846020840137910160200190815292915050565b6001600160a01b0391909116815260200190565b6001600160a01b039384168152919092166020820152604081019190915260600190565b6001600160a01b03929092168252602082015260400190565b60006101206001600160a01b03808d168452808c166020850152808b16604085015250886060840152806080840152615e9181840189615da3565b60038810615e9b57fe5b8760a085015283810360c0850152615eb38188615da3565b60e08501969096525050506101000152979650505050505050565b6001600160a01b0388811682528781166020830152861660408201526060810185905260e08101615f026080830186615ddd565b60a082019390935260c0015295945050505050565b901515815260200190565b918252602082015260400190565b6000606082528460608301528486608084013780608086840101526080601f19601f870116830101905083602083015282604083015295945050505050565b6020808252600d908201526c496e76616c696420617272617960981b604082015260600190565b6020808252818101527f43616e6e6f74206275726e206f7074696f6e207768696c65206f6e2073616c65604082015260600190565b60208082526024908201527f496e76616c69642061727261793a2041727261792063616e6e6f7420626520656040820152636d70747960e01b606082015260800190565b6020808252600f908201527f496e76616c696420616464726573730000000000000000000000000000000000604082015260600190565b6020808252601a908201527f4661696c656420746f207472616e73666572207072656d69756d000000000000604082015260600190565b60208082526012908201527f476173206c696d69742065786365656465640000000000000000000000000000604082015260600190565b60208082526026908201527f4f776e61626c653a206e6577206f776e657220697320746865207a65726f206160408201526564647265737360d01b606082015260800190565b6020808252600f908201527f5472616e73666572206661696c65640000000000000000000000000000000000604082015260600190565b60208082526016908201527f4f7074696f6e20616c7265616479206f6e2073616c6500000000000000000000604082015260600190565b6020808252600e908201527f496e76616c696420616d6f756e74000000000000000000000000000000000000604082015260600190565b6020808252601b908201527f536166654d6174683a206164646974696f6e206f766572666c6f770000000000604082015260600190565b60208082526017908201527f496e76616c69642063726561746f722061646472657373000000000000000000604082015260600190565b60208082526018908201527f496e636f7272656374207061796d656e7420616d6f756e740000000000000000604082015260600190565b6020808252603a908201527f496e76616c69642074696d653a204f7074696f6e2065787069726174696f6e2060408201527f74696d65206d75737420626520696e2074686520667574757265000000000000606082015260800190565b6020808252601e908201527f536166654d6174683a207375627472616374696f6e206f766572666c6f770000604082015260600190565b6020808252601a908201527f536166654d6174683a206469766973696f6e206279207a65726f000000000000604082015260600190565b60208082526027908201527f496e76616c696420616464726573733a20416464726573732063616e6e6f74206040820152666265207a65726f60c81b606082015260800190565b60208082526021908201527f43616e6e6f7420636c61696d206f7074696f6e207768696c65206f6e2073616c6040820152606560f81b606082015260800190565b60208082526023908201527f4661696c656420746f207472616e7366657220455243323020636f6c6c6174656040820152621c985b60ea1b606082015260800190565b60208082526018908201527f4f7074696f6e206973206e6f742070726f66697461626c650000000000000000604082015260600190565b60208082526054908201527f496e76616c6964206672616374696f6e3a20556e697473206d7573742062652060408201527f67726561746572207468616e207a65726f20616e64206c657373207468616e2060608201527f6f7220657175616c20746f206d6178556e697473000000000000000000000000608082015260a00190565b6020808252601f908201527f52616e646f6d206e756d626572206e6f742066756c66696c6c65642079657400604082015260600190565b60208082526036908201527f556e617574686f72697a65643a204f6e6c79206f7074696f6e206f776e65722060408201527f63616e2063616c6c20746869732066756e6374696f6e00000000000000000000606082015260800190565b6020808252601a908201527f4c6174657374207072696365206e6f7420617661696c61626c65000000000000604082015260600190565b60208082526046908201527f496e76616c696420636f6c6c61746572616c20616d6f756e743a20436f6c6c6160408201527f746572616c20616d6f756e74206d7573742062652067726561746572207468616060820152656e207a65726f60d01b608082015260a00190565b60208082526015908201527f496e76616c6964206f776e657220616464726573730000000000000000000000604082015260600190565b60208082526016908201527f436f6e7472616374206973206e6f742070617573656400000000000000000000604082015260600190565b60208082526012908201527f4f7074696f6e206e6f74206f6e2073616c650000000000000000000000000000604082015260600190565b60208082526021908201527f536166654d6174683a206d756c7469706c69636174696f6e206f766572666c6f6040820152607760f81b606082015260800190565b6020808252600f908201527f417070726f76616c206661696c65640000000000000000000000000000000000604082015260600190565b6020808252818101527f4f776e61626c653a2063616c6c6572206973206e6f7420746865206f776e6572604082015260600190565b6020808252600e908201527f5072696365206d69736d61746368000000000000000000000000000000000000604082015260600190565b60208082526010908201527f416374697665206269642f6f6666657200000000000000000000000000000000604082015260600190565b60208082526030908201527f496e76616c696420616d6f756e743a20416d6f756e74206d757374206265206760408201527f726561746572207468616e207a65726f00000000000000000000000000000000606082015260800190565b6020808252600e908201527f4f7074696f6e2065787069726564000000000000000000000000000000000000604082015260600190565b6020808252818101527f436861696e6c696e6b206f7261636c652061646472657373206e6f7420736574604082015260600190565b6020808252601a908201527f4f66666572206475726174696f6e206e6f742065787069726564000000000000604082015260600190565b6020808252600f908201527f5374616c65206269642f6f666665720000000000000000000000000000000000604082015260600190565b60208082526018908201527f426964206475726174696f6e206e6f7420657870697265640000000000000000604082015260600190565b6020808252602f908201527f43616e6e6f7420776974686472617720636f6c6c61746572616c20666f72206160408201527f6e20616374697665206f7074696f6e0000000000000000000000000000000000606082015260800190565b60208082526012908201527f436f6e7472616374206973207061757365640000000000000000000000000000604082015260600190565b60208082526031908201527f556e617574686f72697a65643a204f6e6c792063726561746f722063616e206360408201527f616c6c20746869732066756e6374696f6e000000000000000000000000000000606082015260800190565b6000602082526169fe602083018451615d96565b6020830151616a106040840182615d96565b506040830151616a236060840182615d96565b506060830151608083015260808301516101208060a0850152616a4a610140850183615da3565b60a08601519250616a5e60c0860184615ddd565b60c0860151858203601f190160e08701529250616a7b8184615da3565b60e087015161010087810191909152909601519190940152509192915050565b90815260200190565b9182526001600160a01b0316602082015260400190565b9283526001600160a01b03918216602084015216604082015260600190565b9687526001600160a01b0395861660208801529390941660408601526060850191909152608084015260a083019190915260c082015260e00190565b60008482526001600160a01b038416602083015260606040830152616b3e6060830184615da3565b95945050505050565b9283526020830191909152604082015260600190565b60ff91909116815260200190565b6001600160a01b03811681146114f057600080fdfea2646970667358221220a4d093cf63dcc4bd0fb4654ca96832c4a52c7b5c0c773850de52419c99225a6864736f6c63430006080033",
  "linkReferences": {},
  "deployedLinkReferences": {}
}