{
  "_format": "hh-sol-artifact-1",
  "contractName": "ConstellationCore",
  "sourceName": "contracts/ConstellationCore.sol",
  "abi": [
    {
      "anonymous": false,
      "inputs": [
        {
          "indexed": false,
          "internalType": "uint256",
          "name": "id",
          "type": "uint256"
        },
        {
          "indexed": true,
          "internalType": "address",
          "name": "owner",
          "type": "address"
        },
        {
          "indexed": false,
          "internalType": "address",
          "name": "creator",
          "type": "address"
        },
        {
          "indexed": false,
          "internalType": "address",
          "name": "collateralToken",
          "type": "address"
        },
        {
          "indexed": false,
          "internalType": "uint256",
          "name": "collateralAmount",
          "type": "uint256"
        },
        {
          "indexed": false,
          "internalType": "uint256",
          "name": "counterOffer",
          "type": "uint256"
        },
        {
          "indexed": false,
          "internalType": "uint256",
          "name": "expires",
          "type": "uint256"
        },
        {
          "indexed": false,
          "internalType": "uint256",
          "name": "maxUnits",
          "type": "uint256"
        }
      ],
      "name": "OptionCreated",
      "type": "event"
    },
    {
      "inputs": [
        {
          "internalType": "uint256",
          "name": "id",
          "type": "uint256"
        },
        {
          "internalType": "uint256[]",
          "name": "toAddPrice",
          "type": "uint256[]"
        }
      ],
      "name": "addToMarket",
      "outputs": [],
      "stateMutability": "nonpayable",
      "type": "function"
    },
    {
      "inputs": [
        {
          "internalType": "uint256",
          "name": "id",
          "type": "uint256"
        }
      ],
      "name": "analyzeActivity",
      "outputs": [],
      "stateMutability": "nonpayable",
      "type": "function"
    },
    {
      "inputs": [],
      "name": "baseExpiration",
      "outputs": [
        {
          "internalType": "uint256",
          "name": "",
          "type": "uint256"
        }
      ],
      "stateMutability": "view",
      "type": "function"
    },
    {
      "inputs": [],
      "name": "bidDuration",
      "outputs": [
        {
          "internalType": "uint256",
          "name": "",
          "type": "uint256"
        }
      ],
      "stateMutability": "view",
      "type": "function"
    },
    {
      "inputs": [],
      "name": "bidResetFee",
      "outputs": [
        {
          "internalType": "uint256",
          "name": "",
          "type": "uint256"
        }
      ],
      "stateMutability": "view",
      "type": "function"
    },
    {
      "inputs": [
        {
          "internalType": "uint256",
          "name": "",
          "type": "uint256"
        },
        {
          "internalType": "address",
          "name": "",
          "type": "address"
        }
      ],
      "name": "bids",
      "outputs": [
        {
          "internalType": "uint256",
          "name": "",
          "type": "uint256"
        }
      ],
      "stateMutability": "view",
      "type": "function"
    },
    {
      "inputs": [],
      "name": "bufferTime",
      "outputs": [
        {
          "internalType": "uint256",
          "name": "",
          "type": "uint256"
        }
      ],
      "stateMutability": "view",
      "type": "function"
    },
    {
      "inputs": [
        {
          "internalType": "uint256",
          "name": "id",
          "type": "uint256"
        }
      ],
      "name": "burnOption",
      "outputs": [],
      "stateMutability": "nonpayable",
      "type": "function"
    },
    {
      "inputs": [
        {
          "internalType": "uint256",
          "name": "id",
          "type": "uint256"
        }
      ],
      "name": "buyOption",
      "outputs": [],
      "stateMutability": "payable",
      "type": "function"
    },
    {
      "inputs": [
        {
          "internalType": "uint256",
          "name": "id",
          "type": "uint256"
        },
        {
          "internalType": "uint256",
          "name": "units",
          "type": "uint256"
        }
      ],
      "name": "buyOptionChainlink",
      "outputs": [],
      "stateMutability": "payable",
      "type": "function"
    },
    {
      "inputs": [
        {
          "internalType": "uint256",
          "name": "id",
          "type": "uint256"
        }
      ],
      "name": "cancelOption",
      "outputs": [],
      "stateMutability": "nonpayable",
      "type": "function"
    },
    {
      "inputs": [],
      "name": "chainlinkMock",
      "outputs": [
        {
          "internalType": "contract ChainlinkMock",
          "name": "",
          "type": "address"
        }
      ],
      "stateMutability": "view",
      "type": "function"
    },
    {
      "inputs": [],
      "name": "chainlinkOracle",
      "outputs": [
        {
          "internalType": "address",
          "name": "",
          "type": "address"
        }
      ],
      "stateMutability": "view",
      "type": "function"
    },
    {
      "inputs": [
        {
          "internalType": "uint256",
          "name": "id",
          "type": "uint256"
        }
      ],
      "name": "checkOnlyIfNotActive",
      "outputs": [],
      "stateMutability": "view",
      "type": "function"
    },
    {
      "inputs": [
        {
          "internalType": "uint256",
          "name": "id",
          "type": "uint256"
        }
      ],
      "name": "checkOnlyIfNotStale",
      "outputs": [],
      "stateMutability": "view",
      "type": "function"
    },
    {
      "inputs": [
        {
          "internalType": "uint256",
          "name": "id",
          "type": "uint256"
        }
      ],
      "name": "claimOption",
      "outputs": [],
      "stateMutability": "nonpayable",
      "type": "function"
    },
    {
      "inputs": [
        {
          "internalType": "uint256",
          "name": "",
          "type": "uint256"
        }
      ],
      "name": "collateralLimit",
      "outputs": [
        {
          "internalType": "uint256",
          "name": "",
          "type": "uint256"
        }
      ],
      "stateMutability": "view",
      "type": "function"
    },
    {
      "inputs": [
        {
          "internalType": "uint256",
          "name": "",
          "type": "uint256"
        }
      ],
      "name": "collateralList",
      "outputs": [
        {
          "internalType": "uint256",
          "name": "totalCollateral",
          "type": "uint256"
        },
        {
          "internalType": "uint256",
          "name": "totalPremium",
          "type": "uint256"
        },
        {
          "internalType": "uint256",
          "name": "units",
          "type": "uint256"
        }
      ],
      "stateMutability": "view",
      "type": "function"
    },
    {
      "inputs": [],
      "name": "config",
      "outputs": [
        {
          "internalType": "address",
          "name": "creator",
          "type": "address"
        },
        {
          "internalType": "uint256",
          "name": "totalOptionsNum",
          "type": "uint256"
        }
      ],
      "stateMutability": "view",
      "type": "function"
    },
    {
      "inputs": [
        {
          "internalType": "uint256[]",
          "name": "counterOffer",
          "type": "uint256[]"
        },
        {
          "internalType": "uint256",
          "name": "expires",
          "type": "uint256"
        },
        {
          "internalType": "address",
          "name": "collateralToken",
          "type": "address"
        },
        {
          "internalType": "uint256",
          "name": "collateralAmount",
          "type": "uint256"
        },
        {
          "internalType": "uint256",
          "name": "maxUnits",
          "type": "uint256"
        }
      ],
      "name": "createOption",
      "outputs": [
        {
          "internalType": "uint256",
          "name": "",
          "type": "uint256"
        }
      ],
      "stateMutability": "nonpayable",
      "type": "function"
    },
    {
      "inputs": [
        {
          "internalType": "address",
          "name": "",
          "type": "address"
        },
        {
          "internalType": "uint256",
          "name": "",
          "type": "uint256"
        }
      ],
      "name": "creatorList",
      "outputs": [
        {
          "internalType": "address",
          "name": "creator",
          "type": "address"
        },
        {
          "internalType": "address",
          "name": "owner",
          "type": "address"
        },
        {
          "internalType": "address",
          "name": "collateralToken",
          "type": "address"
        },
        {
          "internalType": "uint256",
          "name": "collateralAmount",
          "type": "uint256"
        },
        {
          "internalType": "enum Constants.OptionStatus",
          "name": "status",
          "type": "uint8"
        },
        {
          "internalType": "uint256",
          "name": "expires",
          "type": "uint256"
        },
        {
          "internalType": "uint256",
          "name": "units",
          "type": "uint256"
        }
      ],
      "stateMutability": "view",
      "type": "function"
    },
    {
      "inputs": [],
      "name": "data",
      "outputs": [
        {
          "internalType": "address",
          "name": "creator",
          "type": "address"
        },
        {
          "internalType": "address",
          "name": "owner",
          "type": "address"
        },
        {
          "internalType": "address",
          "name": "collateralToken",
          "type": "address"
        },
        {
          "internalType": "uint256",
          "name": "collateralAmount",
          "type": "uint256"
        },
        {
          "internalType": "enum Constants.OptionStatus",
          "name": "status",
          "type": "uint8"
        },
        {
          "internalType": "uint256",
          "name": "expires",
          "type": "uint256"
        },
        {
          "internalType": "uint256",
          "name": "units",
          "type": "uint256"
        }
      ],
      "stateMutability": "view",
      "type": "function"
    },
    {
      "inputs": [
        {
          "internalType": "address",
          "name": "bidder",
          "type": "address"
        }
      ],
      "name": "decrementUserBidCount",
      "outputs": [],
      "stateMutability": "nonpayable",
      "type": "function"
    },
    {
      "inputs": [
        {
          "internalType": "uint256",
          "name": "id",
          "type": "uint256"
        }
      ],
      "name": "executeOption",
      "outputs": [],
      "stateMutability": "nonpayable",
      "type": "function"
    },
    {
      "inputs": [
        {
          "internalType": "bytes32",
          "name": "requestId",
          "type": "bytes32"
        }
      ],
      "name": "executeOptionWithRandomness",
      "outputs": [],
      "stateMutability": "nonpayable",
      "type": "function"
    },
    {
      "inputs": [],
      "name": "expirationIncreaseFactor",
      "outputs": [
        {
          "internalType": "uint256",
          "name": "",
          "type": "uint256"
        }
      ],
      "stateMutability": "view",
      "type": "function"
    },
    {
      "inputs": [],
      "name": "functionExceedingGasLimit",
      "outputs": [],
      "stateMutability": "view",
      "type": "function"
    },
    {
      "inputs": [
        {
          "internalType": "uint256[]",
          "name": "functionData",
          "type": "uint256[]"
        }
      ],
      "name": "functionWithEmptyArray",
      "outputs": [],
      "stateMutability": "pure",
      "type": "function"
    },
    {
      "inputs": [
        {
          "internalType": "uint256",
          "name": "optionId",
          "type": "uint256"
        }
      ],
      "name": "functionWithEvent",
      "outputs": [],
      "stateMutability": "nonpayable",
      "type": "function"
    },
    {
      "inputs": [],
      "name": "functionWithOnlyCreator",
      "outputs": [],
      "stateMutability": "nonpayable",
      "type": "function"
    },
    {
      "inputs": [],
      "name": "functionWithOverflow",
      "outputs": [],
      "stateMutability": "payable",
      "type": "function"
    },
    {
      "inputs": [],
      "name": "functionWithZeroAddress",
      "outputs": [],
      "stateMutability": "view",
      "type": "function"
    },
    {
      "inputs": [],
      "name": "functionWithZeroAmount",
      "outputs": [],
      "stateMutability": "payable",
      "type": "function"
    },
    {
      "inputs": [
        {
          "internalType": "uint256",
          "name": "id",
          "type": "uint256"
        }
      ],
      "name": "functionWithonlyOptionOwner",
      "outputs": [],
      "stateMutability": "nonpayable",
      "type": "function"
    },
    {
      "inputs": [],
      "name": "gasLimit",
      "outputs": [
        {
          "internalType": "uint256",
          "name": "",
          "type": "uint256"
        }
      ],
      "stateMutability": "view",
      "type": "function"
    },
    {
      "inputs": [
        {
          "internalType": "uint256",
          "name": "id",
          "type": "uint256"
        },
        {
          "internalType": "address",
          "name": "bidder",
          "type": "address"
        }
      ],
      "name": "getBid",
      "outputs": [
        {
          "internalType": "uint256",
          "name": "",
          "type": "uint256"
        }
      ],
      "stateMutability": "view",
      "type": "function"
    },
    {
      "inputs": [
        {
          "internalType": "uint256",
          "name": "id",
          "type": "uint256"
        }
      ],
      "name": "getCollateralLimit",
      "outputs": [
        {
          "internalType": "uint256",
          "name": "",
          "type": "uint256"
        }
      ],
      "stateMutability": "view",
      "type": "function"
    },
    {
      "inputs": [],
      "name": "getConfig",
      "outputs": [
        {
          "internalType": "address",
          "name": "creator",
          "type": "address"
        },
        {
          "internalType": "uint256",
          "name": "totalOptionsNum",
          "type": "uint256"
        }
      ],
      "stateMutability": "view",
      "type": "function"
    },
    {
      "inputs": [],
      "name": "getCreator",
      "outputs": [
        {
          "internalType": "address",
          "name": "",
          "type": "address"
        }
      ],
      "stateMutability": "view",
      "type": "function"
    },
    {
      "inputs": [
        {
          "internalType": "uint256",
          "name": "id",
          "type": "uint256"
        }
      ],
      "name": "getHighestBid",
      "outputs": [
        {
          "internalType": "uint256",
          "name": "",
          "type": "uint256"
        }
      ],
      "stateMutability": "view",
      "type": "function"
    },
    {
      "inputs": [
        {
          "internalType": "uint256",
          "name": "id",
          "type": "uint256"
        }
      ],
      "name": "getLowestOffer",
      "outputs": [
        {
          "internalType": "uint256",
          "name": "",
          "type": "uint256"
        }
      ],
      "stateMutability": "view",
      "type": "function"
    },
    {
      "inputs": [
        {
          "internalType": "uint256",
          "name": "id",
          "type": "uint256"
        }
      ],
      "name": "getMarketList",
      "outputs": [
        {
          "components": [
            {
              "internalType": "address",
              "name": "creator",
              "type": "address"
            },
            {
              "internalType": "address",
              "name": "owner",
              "type": "address"
            },
            {
              "internalType": "address",
              "name": "collateralToken",
              "type": "address"
            },
            {
              "internalType": "uint256",
              "name": "collateralAmount",
              "type": "uint256"
            },
            {
              "internalType": "uint256[]",
              "name": "counterOffer",
              "type": "uint256[]"
            },
            {
              "internalType": "enum Constants.OptionStatus",
              "name": "status",
              "type": "uint8"
            },
            {
              "internalType": "uint256[]",
              "name": "price",
              "type": "uint256[]"
            },
            {
              "internalType": "uint256",
              "name": "expires",
              "type": "uint256"
            },
            {
              "internalType": "uint256",
              "name": "units",
              "type": "uint256"
            }
          ],
          "internalType": "struct ConstellationCore.Data",
          "name": "",
          "type": "tuple"
        }
      ],
      "stateMutability": "view",
      "type": "function"
    },
    {
      "inputs": [],
      "name": "getMaxBidCount",
      "outputs": [
        {
          "internalType": "uint256",
          "name": "",
          "type": "uint256"
        }
      ],
      "stateMutability": "view",
      "type": "function"
    },
    {
      "inputs": [],
      "name": "getMinBidAmount",
      "outputs": [
        {
          "internalType": "uint256",
          "name": "",
          "type": "uint256"
        }
      ],
      "stateMutability": "view",
      "type": "function"
    },
    {
      "inputs": [
        {
          "internalType": "uint256",
          "name": "id",
          "type": "uint256"
        },
        {
          "internalType": "address",
          "name": "offeror",
          "type": "address"
        }
      ],
      "name": "getOffer",
      "outputs": [
        {
          "internalType": "uint256",
          "name": "",
          "type": "uint256"
        }
      ],
      "stateMutability": "view",
      "type": "function"
    },
    {
      "inputs": [
        {
          "internalType": "uint256",
          "name": "id",
          "type": "uint256"
        }
      ],
      "name": "getOption",
      "outputs": [
        {
          "internalType": "address",
          "name": "creator",
          "type": "address"
        },
        {
          "internalType": "address",
          "name": "owner",
          "type": "address"
        },
        {
          "internalType": "address",
          "name": "collateralToken",
          "type": "address"
        },
        {
          "internalType": "uint256",
          "name": "collateralAmount",
          "type": "uint256"
        },
        {
          "internalType": "uint256[]",
          "name": "counterOffer",
          "type": "uint256[]"
        },
        {
          "internalType": "enum Constants.OptionStatus",
          "name": "status",
          "type": "uint8"
        },
        {
          "internalType": "uint256[]",
          "name": "price",
          "type": "uint256[]"
        },
        {
          "internalType": "uint256",
          "name": "expires",
          "type": "uint256"
        },
        {
          "internalType": "uint256",
          "name": "units",
          "type": "uint256"
        }
      ],
      "stateMutability": "view",
      "type": "function"
    },
    {
      "inputs": [
        {
          "internalType": "uint256",
          "name": "id",
          "type": "uint256"
        },
        {
          "internalType": "uint256",
          "name": "price",
          "type": "uint256"
        }
      ],
      "name": "getPriceToBidder",
      "outputs": [
        {
          "internalType": "address",
          "name": "",
          "type": "address"
        }
      ],
      "stateMutability": "view",
      "type": "function"
    },
    {
      "inputs": [
        {
          "internalType": "uint256",
          "name": "id",
          "type": "uint256"
        },
        {
          "internalType": "uint256",
          "name": "price",
          "type": "uint256"
        }
      ],
      "name": "getPriceToOfferer",
      "outputs": [
        {
          "internalType": "address",
          "name": "",
          "type": "address"
        }
      ],
      "stateMutability": "view",
      "type": "function"
    },
    {
      "inputs": [],
      "name": "getTotalOptionsNum",
      "outputs": [
        {
          "internalType": "uint256",
          "name": "",
          "type": "uint256"
        }
      ],
      "stateMutability": "view",
      "type": "function"
    },
    {
      "inputs": [
        {
          "internalType": "address",
          "name": "user",
          "type": "address"
        }
      ],
      "name": "getUserBidCount",
      "outputs": [
        {
          "internalType": "uint256",
          "name": "",
          "type": "uint256"
        }
      ],
      "stateMutability": "view",
      "type": "function"
    },
    {
      "inputs": [],
      "name": "gracePeriod",
      "outputs": [
        {
          "internalType": "uint256",
          "name": "",
          "type": "uint256"
        }
      ],
      "stateMutability": "view",
      "type": "function"
    },
    {
      "inputs": [
        {
          "internalType": "address",
          "name": "bidder",
          "type": "address"
        }
      ],
      "name": "incrementUserBidCount",
      "outputs": [],
      "stateMutability": "nonpayable",
      "type": "function"
    },
    {
      "inputs": [
        {
          "internalType": "uint256",
          "name": "id",
          "type": "uint256"
        }
      ],
      "name": "isExpired",
      "outputs": [
        {
          "internalType": "bool",
          "name": "",
          "type": "bool"
        }
      ],
      "stateMutability": "view",
      "type": "function"
    },
    {
      "inputs": [
        {
          "internalType": "uint256",
          "name": "id",
          "type": "uint256"
        }
      ],
      "name": "isOnSale",
      "outputs": [
        {
          "internalType": "bool",
          "name": "",
          "type": "bool"
        }
      ],
      "stateMutability": "view",
      "type": "function"
    },
    {
      "inputs": [
        {
          "internalType": "uint256",
          "name": "id",
          "type": "uint256"
        }
      ],
      "name": "isOptionOwner",
      "outputs": [
        {
          "internalType": "bool",
          "name": "",
          "type": "bool"
        }
      ],
      "stateMutability": "view",
      "type": "function"
    },
    {
      "inputs": [],
      "name": "isPaused",
      "outputs": [
        {
          "internalType": "bool",
          "name": "",
          "type": "bool"
        }
      ],
      "stateMutability": "view",
      "type": "function"
    },
    {
      "inputs": [
        {
          "internalType": "uint256",
          "name": "id",
          "type": "uint256"
        }
      ],
      "name": "isStale",
      "outputs": [
        {
          "internalType": "bool",
          "name": "",
          "type": "bool"
        }
      ],
      "stateMutability": "view",
      "type": "function"
    },
    {
      "inputs": [],
      "name": "latestPrice",
      "outputs": [
        {
          "internalType": "uint256",
          "name": "",
          "type": "uint256"
        }
      ],
      "stateMutability": "view",
      "type": "function"
    },
    {
      "inputs": [
        {
          "internalType": "uint256",
          "name": "",
          "type": "uint256"
        }
      ],
      "name": "marketList",
      "outputs": [
        {
          "internalType": "address",
          "name": "creator",
          "type": "address"
        },
        {
          "internalType": "address",
          "name": "owner",
          "type": "address"
        },
        {
          "internalType": "address",
          "name": "collateralToken",
          "type": "address"
        },
        {
          "internalType": "uint256",
          "name": "collateralAmount",
          "type": "uint256"
        },
        {
          "internalType": "enum Constants.OptionStatus",
          "name": "status",
          "type": "uint8"
        },
        {
          "internalType": "uint256",
          "name": "expires",
          "type": "uint256"
        },
        {
          "internalType": "uint256",
          "name": "units",
          "type": "uint256"
        }
      ],
      "stateMutability": "view",
      "type": "function"
    },
    {
      "inputs": [],
      "name": "maxBidsPerUser",
      "outputs": [
        {
          "internalType": "uint256",
          "name": "",
          "type": "uint256"
        }
      ],
      "stateMutability": "view",
      "type": "function"
    },
    {
      "inputs": [],
      "name": "minBidAmount",
      "outputs": [
        {
          "internalType": "uint256",
          "name": "",
          "type": "uint256"
        }
      ],
      "stateMutability": "view",
      "type": "function"
    },
    {
      "inputs": [],
      "name": "minBidDuration",
      "outputs": [
        {
          "internalType": "uint256",
          "name": "",
          "type": "uint256"
        }
      ],
      "stateMutability": "view",
      "type": "function"
    },
    {
      "inputs": [],
      "name": "minOfferDuration",
      "outputs": [
        {
          "internalType": "uint256",
          "name": "",
          "type": "uint256"
        }
      ],
      "stateMutability": "view",
      "type": "function"
    },
    {
      "inputs": [],
      "name": "offerDuration",
      "outputs": [
        {
          "internalType": "uint256",
          "name": "",
          "type": "uint256"
        }
      ],
      "stateMutability": "view",
      "type": "function"
    },
    {
      "inputs": [],
      "name": "offerResetFee",
      "outputs": [
        {
          "internalType": "uint256",
          "name": "",
          "type": "uint256"
        }
      ],
      "stateMutability": "view",
      "type": "function"
    },
    {
      "inputs": [
        {
          "internalType": "uint256",
          "name": "",
          "type": "uint256"
        },
        {
          "internalType": "address",
          "name": "",
          "type": "address"
        }
      ],
      "name": "offers",
      "outputs": [
        {
          "internalType": "uint256",
          "name": "",
          "type": "uint256"
        }
      ],
      "stateMutability": "view",
      "type": "function"
    },
    {
      "inputs": [
        {
          "internalType": "uint256",
          "name": "",
          "type": "uint256"
        }
      ],
      "name": "optionList",
      "outputs": [
        {
          "internalType": "address",
          "name": "creator",
          "type": "address"
        },
        {
          "internalType": "address",
          "name": "owner",
          "type": "address"
        },
        {
          "internalType": "address",
          "name": "collateralToken",
          "type": "address"
        },
        {
          "internalType": "uint256",
          "name": "collateralAmount",
          "type": "uint256"
        },
        {
          "internalType": "enum Constants.OptionStatus",
          "name": "status",
          "type": "uint8"
        },
        {
          "internalType": "uint256",
          "name": "expires",
          "type": "uint256"
        },
        {
          "internalType": "uint256",
          "name": "units",
          "type": "uint256"
        }
      ],
      "stateMutability": "view",
      "type": "function"
    },
    {
      "inputs": [
        {
          "internalType": "address",
          "name": "",
          "type": "address"
        },
        {
          "internalType": "uint256",
          "name": "",
          "type": "uint256"
        }
      ],
      "name": "ownerList",
      "outputs": [
        {
          "internalType": "address",
          "name": "creator",
          "type": "address"
        },
        {
          "internalType": "address",
          "name": "owner",
          "type": "address"
        },
        {
          "internalType": "address",
          "name": "collateralToken",
          "type": "address"
        },
        {
          "internalType": "uint256",
          "name": "collateralAmount",
          "type": "uint256"
        },
        {
          "internalType": "enum Constants.OptionStatus",
          "name": "status",
          "type": "uint8"
        },
        {
          "internalType": "uint256",
          "name": "expires",
          "type": "uint256"
        },
        {
          "internalType": "uint256",
          "name": "units",
          "type": "uint256"
        }
      ],
      "stateMutability": "view",
      "type": "function"
    },
    {
      "inputs": [],
      "name": "pause",
      "outputs": [],
      "stateMutability": "nonpayable",
      "type": "function"
    },
    {
      "inputs": [],
      "name": "paused",
      "outputs": [
        {
          "internalType": "bool",
          "name": "",
          "type": "bool"
        }
      ],
      "stateMutability": "view",
      "type": "function"
    },
    {
      "inputs": [
        {
          "internalType": "bytes32",
          "name": "",
          "type": "bytes32"
        }
      ],
      "name": "priceRequests",
      "outputs": [
        {
          "internalType": "uint256",
          "name": "",
          "type": "uint256"
        }
      ],
      "stateMutability": "view",
      "type": "function"
    },
    {
      "inputs": [
        {
          "internalType": "uint256",
          "name": "",
          "type": "uint256"
        },
        {
          "internalType": "uint256",
          "name": "",
          "type": "uint256"
        }
      ],
      "name": "priceToBidder",
      "outputs": [
        {
          "internalType": "address",
          "name": "",
          "type": "address"
        }
      ],
      "stateMutability": "view",
      "type": "function"
    },
    {
      "inputs": [
        {
          "internalType": "uint256",
          "name": "",
          "type": "uint256"
        },
        {
          "internalType": "uint256",
          "name": "",
          "type": "uint256"
        }
      ],
      "name": "priceToOfferer",
      "outputs": [
        {
          "internalType": "address",
          "name": "",
          "type": "address"
        }
      ],
      "stateMutability": "view",
      "type": "function"
    },
    {
      "inputs": [
        {
          "internalType": "uint256",
          "name": "id",
          "type": "uint256"
        }
      ],
      "name": "removeFromMarket",
      "outputs": [],
      "stateMutability": "nonpayable",
      "type": "function"
    },
    {
      "inputs": [
        {
          "internalType": "uint256",
          "name": "id",
          "type": "uint256"
        },
        {
          "internalType": "string",
          "name": "denom",
          "type": "string"
        },
        {
          "internalType": "uint256",
          "name": "expirationTime",
          "type": "uint256"
        }
      ],
      "name": "requestPriceData",
      "outputs": [],
      "stateMutability": "nonpayable",
      "type": "function"
    },
    {
      "inputs": [
        {
          "internalType": "uint256",
          "name": "id",
          "type": "uint256"
        }
      ],
      "name": "resetBids",
      "outputs": [],
      "stateMutability": "nonpayable",
      "type": "function"
    },
    {
      "inputs": [
        {
          "internalType": "uint256",
          "name": "id",
          "type": "uint256"
        }
      ],
      "name": "resetOffers",
      "outputs": [],
      "stateMutability": "nonpayable",
      "type": "function"
    },
    {
      "inputs": [
        {
          "internalType": "uint256",
          "name": "id",
          "type": "uint256"
        },
        {
          "internalType": "uint256",
          "name": "duration",
          "type": "uint256"
        }
      ],
      "name": "setBaseExpiration",
      "outputs": [],
      "stateMutability": "nonpayable",
      "type": "function"
    },
    {
      "inputs": [
        {
          "internalType": "uint256",
          "name": "id",
          "type": "uint256"
        },
        {
          "internalType": "address",
          "name": "bidder",
          "type": "address"
        },
        {
          "internalType": "uint256",
          "name": "value",
          "type": "uint256"
        }
      ],
      "name": "setBid",
      "outputs": [],
      "stateMutability": "nonpayable",
      "type": "function"
    },
    {
      "inputs": [
        {
          "internalType": "uint256",
          "name": "id",
          "type": "uint256"
        },
        {
          "internalType": "uint256",
          "name": "fee",
          "type": "uint256"
        }
      ],
      "name": "setBidResetFee",
      "outputs": [],
      "stateMutability": "nonpayable",
      "type": "function"
    },
    {
      "inputs": [
        {
          "internalType": "address",
          "name": "_newCreator",
          "type": "address"
        }
      ],
      "name": "setCreator",
      "outputs": [],
      "stateMutability": "nonpayable",
      "type": "function"
    },
    {
      "inputs": [
        {
          "internalType": "uint256",
          "name": "id",
          "type": "uint256"
        },
        {
          "internalType": "uint256",
          "name": "factor",
          "type": "uint256"
        }
      ],
      "name": "setExpirationIncreaseFactor",
      "outputs": [],
      "stateMutability": "nonpayable",
      "type": "function"
    },
    {
      "inputs": [
        {
          "internalType": "uint256",
          "name": "id",
          "type": "uint256"
        },
        {
          "internalType": "uint256",
          "name": "period",
          "type": "uint256"
        }
      ],
      "name": "setGracePeriod",
      "outputs": [],
      "stateMutability": "nonpayable",
      "type": "function"
    },
    {
      "inputs": [
        {
          "internalType": "uint256",
          "name": "id",
          "type": "uint256"
        },
        {
          "internalType": "uint256",
          "name": "maxBids",
          "type": "uint256"
        }
      ],
      "name": "setMaxBidsPerUser",
      "outputs": [],
      "stateMutability": "nonpayable",
      "type": "function"
    },
    {
      "inputs": [
        {
          "internalType": "uint256",
          "name": "id",
          "type": "uint256"
        },
        {
          "internalType": "uint256",
          "name": "_minBidAmount",
          "type": "uint256"
        }
      ],
      "name": "setMinBidAmount",
      "outputs": [],
      "stateMutability": "nonpayable",
      "type": "function"
    },
    {
      "inputs": [
        {
          "internalType": "uint256",
          "name": "id",
          "type": "uint256"
        },
        {
          "internalType": "uint256",
          "name": "duration",
          "type": "uint256"
        }
      ],
      "name": "setMinBidDuration",
      "outputs": [],
      "stateMutability": "nonpayable",
      "type": "function"
    },
    {
      "inputs": [
        {
          "internalType": "uint256",
          "name": "id",
          "type": "uint256"
        },
        {
          "internalType": "uint256",
          "name": "duration",
          "type": "uint256"
        }
      ],
      "name": "setMinOfferDuration",
      "outputs": [],
      "stateMutability": "nonpayable",
      "type": "function"
    },
    {
      "inputs": [
        {
          "internalType": "uint256",
          "name": "id",
          "type": "uint256"
        },
        {
          "internalType": "address",
          "name": "offeror",
          "type": "address"
        },
        {
          "internalType": "uint256",
          "name": "value",
          "type": "uint256"
        }
      ],
      "name": "setOffer",
      "outputs": [],
      "stateMutability": "nonpayable",
      "type": "function"
    },
    {
      "inputs": [
        {
          "internalType": "uint256",
          "name": "id",
          "type": "uint256"
        },
        {
          "internalType": "uint256",
          "name": "fee",
          "type": "uint256"
        }
      ],
      "name": "setOfferResetFee",
      "outputs": [],
      "stateMutability": "nonpayable",
      "type": "function"
    },
    {
      "inputs": [
        {
          "internalType": "address",
          "name": "_newOwner",
          "type": "address"
        }
      ],
      "name": "setOwner",
      "outputs": [],
      "stateMutability": "nonpayable",
      "type": "function"
    },
    {
      "inputs": [
        {
          "internalType": "uint256",
          "name": "id",
          "type": "uint256"
        },
        {
          "internalType": "uint256",
          "name": "price",
          "type": "uint256"
        },
        {
          "internalType": "address",
          "name": "offerer",
          "type": "address"
        }
      ],
      "name": "setPriceToOfferer",
      "outputs": [],
      "stateMutability": "nonpayable",
      "type": "function"
    },
    {
      "inputs": [
        {
          "internalType": "uint256",
          "name": "id",
          "type": "uint256"
        },
        {
          "internalType": "uint256",
          "name": "threshold",
          "type": "uint256"
        }
      ],
      "name": "setStaleBidRemoveThreshold",
      "outputs": [],
      "stateMutability": "nonpayable",
      "type": "function"
    },
    {
      "inputs": [
        {
          "internalType": "uint256",
          "name": "id",
          "type": "uint256"
        },
        {
          "internalType": "uint256",
          "name": "buffer",
          "type": "uint256"
        }
      ],
      "name": "setTimeBuffer",
      "outputs": [],
      "stateMutability": "nonpayable",
      "type": "function"
    },
    {
      "inputs": [],
      "name": "staleBidRemoveThreshold",
      "outputs": [
        {
          "internalType": "uint256",
          "name": "",
          "type": "uint256"
        }
      ],
      "stateMutability": "view",
      "type": "function"
    },
    {
      "inputs": [
        {
          "internalType": "uint256",
          "name": "id",
          "type": "uint256"
        },
        {
          "internalType": "address",
          "name": "to",
          "type": "address"
        }
      ],
      "name": "transferOption",
      "outputs": [],
      "stateMutability": "nonpayable",
      "type": "function"
    },
    {
      "inputs": [],
      "name": "unpause",
      "outputs": [],
      "stateMutability": "nonpayable",
      "type": "function"
    },
    {
      "inputs": [
        {
          "internalType": "address",
          "name": "",
          "type": "address"
        }
      ],
      "name": "userBidCount",
      "outputs": [
        {
          "internalType": "uint256",
          "name": "",
          "type": "uint256"
        }
      ],
      "stateMutability": "view",
      "type": "function"
    },
    {
      "inputs": [
        {
          "internalType": "address",
          "name": "",
          "type": "address"
        }
      ],
      "name": "userBids",
      "outputs": [
        {
          "internalType": "uint256",
          "name": "",
          "type": "uint256"
        }
      ],
      "stateMutability": "view",
      "type": "function"
    },
    {
      "inputs": [
        {
          "internalType": "uint256",
          "name": "id",
          "type": "uint256"
        }
      ],
      "name": "withdrawCollateral",
      "outputs": [],
      "stateMutability": "nonpayable",
      "type": "function"
    },
    {
      "stateMutability": "payable",
      "type": "receive"
    }
  ],
  "bytecode": "0x608060405234801561001057600080fd5b50616b6380620000216000396000f3fe6080604052600436106106485760003560e01c8063839da08b11610338578063c99e0ffc116101b0578063e82af8e3116100f7578063ef06e72c116100a0578063f6b45eb71161007a578063f6b45eb714611559578063f7c51f3c1461156f578063fba225b91461158f578063fd6e859e146115a257600080fd5b8063ef06e72c14611503578063f0f2805f14611523578063f68016b71461154357600080fd5b8063eba1b60b116100d1578063eba1b60b14611413578063ebdfbce514611456578063eeea02bf1461148e57600080fd5b8063e82af8e314611356578063e87b2b901461135e578063ead8ccd1146113d257600080fd5b8063de5490ff11610159578063e2576d4f11610133578063e2576d4f14611300578063e522600c14611320578063e6ea8d2e1461134057600080fd5b8063de5490ff146112ab578063de6bf635146112c0578063de91e753146112e057600080fd5b8063d97fef011161018a578063d97fef011461122a578063d987f81e1461126b578063dc926afb1461128b57600080fd5b8063c99e0ffc146111a1578063d88750b4146111b7578063d9548e53146111f857600080fd5b8063a1dc29cd1161027f578063b187bd2611610228578063ba7b670311610202578063ba7b670314611124578063bd62869a1461113a578063bed40f6f14611150578063c3f909d41461117d57600080fd5b8063b187bd26146110ab578063b5bf6b06146110c3578063b9520ce4146110e157600080fd5b8063a87e49c511610259578063a87e49c514611025578063a8896f5014611045578063a964f81f1461108657600080fd5b8063a1dc29cd14610fc6578063a3e6ba9414610fdc578063a624a1df14610ff257600080fd5b80638df7e83e116102e157806393e1b8a7116102bb57806393e1b8a714610f70578063942e15b414610f90578063a06db7dc14610fb057600080fd5b80638df7e83e14610eff5780638f28864414610f3a57806390de000b14610f5a57600080fd5b806386d65d021161031257806386d65d0214610ea957806387ad6f1314610ebf57806387cc098f14610edf57600080fd5b8063839da08b14610e265780638456cb5914610e67578063851212d914610e7c57600080fd5b80633f1ffcec116104cb5780635c975abb116104125780636ecab61e116103bb57806379502c551161039557806379502c5514610d975780637987feba14610dda57806381ae634d14610df057806383534b9514610e1057600080fd5b80636ecab61e14610d0157806373d4a13a14610d3757806376f3615514610d7757600080fd5b80636457bd04116103ec5780636457bd0414610cac5780636511059514610ccc57806367d6a23f14610ce157600080fd5b80635c975abb14610c425780635dc5eafe14610c6c5780636112fe2e14610c8c57600080fd5b8063497517881161047457806350a8150b1161044e57806350a8150b14610b7d578063545b672714610baa578063573489a914610bd757600080fd5b80634975178814610b015780634c685cc514610b175780634d726edc14610b2a57600080fd5b806340e5c7f3116104a557806340e5c7f314610acc57806342f3fec6146106ac5780634905075014610ae157600080fd5b80633f1ffcec14610a5f5780633f4ba83a14610a975780633f51601814610aac57600080fd5b80631ce5e9a61161058f5780633024a9121161053857806337fb409c1161051257806337fb409c146109ff5780633aa4be1e14610a1f5780633b647d0114610a3f57600080fd5b80633024a912146109735780633271bd60146109ca578063344ca8b4146109df57600080fd5b8063232b956c11610569578063232b956c146108c05780632d6ff84c1461093d578063301bbc241461095d57600080fd5b80631ce5e9a614610856578063208ff02e1461088b578063218f852e146108a057600080fd5b80630f36e6cf116105f157806312a695ac116105cb57806312a695ac1461080157806313af40351461082157806317a5266c1461084157600080fd5b80630f36e6cf146107805780630f5eb055146107c15780631250b5ae146107e157600080fd5b80630c6de672116106225780630c6de6721461070e5780630d5047c71461072e5780630ee2cb101461074e57600080fd5b80630a98eeb81461068c5780630afe2cad146106ae5780630c52f46d146106ee57600080fd5b3661068757604080513381523460208201527fa419615bc8fda4c87663805ee2a3597a6d71c1d476911d9892f340d965bc7bf1910160405180910390a1005b600080fd5b34801561069857600080fd5b506106ac6106a7366004616676565b6115cf565b005b3480156106ba57600080fd5b506106db6106c9366004616515565b600b6020526000908152604090205481565b6040519081526020015b60405180910390f35b3480156106fa57600080fd5b506106ac610709366004616515565b611685565b34801561071a57600080fd5b506106ac610729366004616676565b611751565b34801561073a57600080fd5b506106ac610749366004616442565b6117f2565b34801561075a57600080fd5b506000546001600160a01b03165b6040516001600160a01b0390911681526020016106e5565b34801561078c57600080fd5b506106ac61079b366004616573565b60009283526008602090815260408085206001600160a01b039094168552929052912055565b3480156107cd57600080fd5b506106ac6107dc366004616515565b611833565b3480156107ed57600080fd5b506106ac6107fc3660046165a8565b61189f565b34801561080d57600080fd5b506106ac61081c366004616547565b611c96565b34801561082d57600080fd5b506106ac61083c3660046163fd565b611f6f565b34801561084d57600080fd5b506001546106db565b34801561086257600080fd5b50610876610871366004616515565b611fe7565b6040516106e599989796959493929190616744565b34801561089757600080fd5b506022546106db565b3480156108ac57600080fd5b506106ac6108bb366004616676565b61210f565b3480156108cc57600080fd5b5061092a6108db366004616515565b600560208190526000918252604090912080546001820154600283015460038401549484015460078501546008909501546001600160a01b039485169693851695949092169360ff9091169187565b6040516106e597969594939291906167ba565b34801561094957600080fd5b506106ac610958366004616676565b6121b2565b34801561096957600080fd5b506106db60215481565b34801561097f57600080fd5b506109af61098e366004616515565b60066020526000908152604090208054600182015460029092015490919083565b604080519384526020840192909252908201526060016106e5565b3480156109d657600080fd5b506106ac6121f4565b3480156109eb57600080fd5b506106ac6109fa366004616676565b612268565b348015610a0b57600080fd5b506106ac610a1a366004616515565b61230b565b348015610a2b57600080fd5b506106db610a3a366004616515565b612a39565b348015610a4b57600080fd5b506106ac610a5a366004616676565b612aef565b348015610a6b57600080fd5b506106db610a7a366004616547565b600760209081526000928352604080842090915290825290205481565b348015610aa357600080fd5b506106ac612bbe565b348015610ab857600080fd5b506106ac610ac73660046163fd565b612c90565b348015610ad857600080fd5b506106ac612d7c565b348015610aed57600080fd5b506106ac610afc366004616676565b612dcb565b348015610b0d57600080fd5b506106db601d5481565b6106ac610b25366004616676565b612e6e565b348015610b3657600080fd5b506106ac610b45366004616698565b6000928352600e60209081526040808520938552929052912080546001600160a01b0319166001600160a01b03909216919091179055565b348015610b8957600080fd5b506106db610b98366004616515565b6000908152600b602052604090205490565b348015610bb657600080fd5b506106db610bc53660046163fd565b600c6020526000908152604090205481565b348015610be357600080fd5b5061092a610bf2366004616515565b600260208190526000918252604090912080546001820154928201546003830154600584015460078501546008909501546001600160a01b03948516968516959390941693919260ff9091169187565b348015610c4e57600080fd5b50602854610c5c9060ff1681565b60405190151581526020016106e5565b348015610c7857600080fd5b506106ac610c873660046165f4565b613561565b348015610c9857600080fd5b506106ac610ca7366004616515565b61371f565b348015610cb857600080fd5b506106ac610cc7366004616515565b613ad2565b348015610cd857600080fd5b506106ac613c91565b348015610ced57600080fd5b506106ac610cfc366004616515565b613d05565b348015610d0d57600080fd5b506106db610d1c3660046163fd565b6001600160a01b03166000908152600c602052604090205490565b348015610d4357600080fd5b50600f5460105460115460125460145460165460175461092a966001600160a01b039081169681169516939260ff16919087565b348015610d8357600080fd5b506106ac610d92366004616676565b613ecb565b348015610da357600080fd5b50600054600154610dbb916001600160a01b03169082565b604080516001600160a01b0390931683526020830191909152016106e5565b348015610de657600080fd5b506106db60235481565b348015610dfc57600080fd5b506106ac610e0b366004616515565b613f6e565b348015610e1c57600080fd5b506106db60245481565b348015610e3257600080fd5b50610768610e41366004616676565b6000918252600d602090815260408084209284529190529020546001600160a01b031690565b348015610e7357600080fd5b506106ac614364565b348015610e8857600080fd5b506106db610e973660046163fd565b600a6020526000908152604090205481565b348015610eb557600080fd5b506106db601c5481565b348015610ecb57600080fd5b506106db610eda366004616484565b61443a565b348015610eeb57600080fd5b506106ac610efa3660046163fd565b61452d565b348015610f0b57600080fd5b50610c5c610f1a366004616515565b6000908152600260205260409020600101546001600160a01b0316331490565b348015610f4657600080fd5b506106db610f55366004616515565b614559565b348015610f6657600080fd5b506106db601f5481565b348015610f7c57600080fd5b506106ac610f8b3660046163fd565b614606565b348015610f9c57600080fd5b506106ac610fab366004616676565b61462a565b348015610fbc57600080fd5b506106db601b5481565b348015610fd257600080fd5b506106db60205481565b348015610fe857600080fd5b506106db60255481565b348015610ffe57600080fd5b50610c5c61100d366004616515565b60009081526002602052604090206007015442101590565b34801561103157600080fd5b506106ac611040366004616515565b6146cd565b34801561105157600080fd5b50610768611060366004616676565b600e6020908152600092835260408084209091529082529020546001600160a01b031681565b34801561109257600080fd5b506028546107689061010090046001600160a01b031681565b3480156110b757600080fd5b5060285460ff16610c5c565b3480156110cf57600080fd5b506106ac6110de366004616515565b50565b3480156110ed57600080fd5b506106db6110fc366004616547565b60009182526008602090815260408084206001600160a01b0393909316845291905290205490565b34801561113057600080fd5b506106db60185481565b34801561114657600080fd5b506106db601a5481565b34801561115c57600080fd5b506106db61116b366004616515565b60096020526000908152604090205481565b34801561118957600080fd5b50610dbb6000546001546001600160a01b0390911691565b3480156111ad57600080fd5b506106db601e5481565b3480156111c357600080fd5b506107686111d2366004616676565b6000918252600e602090815260408084209284529190529020546001600160a01b031690565b34801561120457600080fd5b50610c5c611213366004616515565b600090815260026020526040902060070154421190565b34801561123657600080fd5b506106ac611245366004616573565b60009283526007602090815260408085206001600160a01b039094168552929052912055565b34801561127757600080fd5b506106ac611286366004616515565b6148d2565b34801561129757600080fd5b506106ac6112a6366004616515565b614a98565b3480156112b757600080fd5b50601d546106db565b3480156112cc57600080fd5b506106ac6112db366004616515565b614f86565b3480156112ec57600080fd5b506106ac6112fb366004616515565b6151b7565b34801561130c57600080fd5b506106ac61131b366004616676565b615209565b34801561132c57600080fd5b506106ac61133b366004616676565b6152ac565b34801561134c57600080fd5b506106db60225481565b6106ac61534f565b34801561136a57600080fd5b5061092a611379366004616418565b6003602081815260009384526040808520909152918352912080546001820154600283015493830154600584015460078501546008909501546001600160a01b0394851696938516959390941693919260ff9091169187565b3480156113de57600080fd5b506107686113ed366004616676565b600d6020908152600092835260408084209091529082529020546001600160a01b031681565b34801561141f57600080fd5b506106db61142e366004616547565b60009182526007602090815260408084206001600160a01b0393909316845291905290205490565b34801561146257600080fd5b506106db611471366004616547565b600860209081526000928352604080842090915290825290205481565b34801561149a57600080fd5b5061092a6114a9366004616418565b600460209081526000928352604080842090915290825290208054600182015460028301546003840154600585015460078601546008909601546001600160a01b03958616969486169590931693919260ff909116919087565b34801561150f57600080fd5b50602654610768906001600160a01b031681565b34801561152f57600080fd5b50610c5c61153e366004616515565b61539f565b34801561154f57600080fd5b506106db60275481565b34801561156557600080fd5b506106db60195481565b34801561157b57600080fd5b506106ac61158a366004616515565b6153d2565b6106ac61159d366004616515565b61540d565b3480156115ae57600080fd5b506115c26115bd366004616515565b6159c4565b6040516106e59190616940565b60008281526002602052604090206001015482906001600160a01b031633146116135760405162461bcd60e51b815260040161160a906168e3565b60405180910390fd5b6000838152600260205260409020600701544281116116445760405162461bcd60e51b815260040161160a90616843565b602283905560405183815284907fc7f388abb2270b17eb176e822b294649a0309ac03d013b680c7d4a20c185e67d906020015b60405180910390a250505050565b600081815260026020526040902060070154819042106116d85760405162461bcd60e51b815260206004820152600e60248201526d13dc1d1a5bdb88195e1c1a5c995960921b604482015260640161160a565b60006116e383615b59565b905060006116f084615c0b565b90506000808311806117025750600082115b9050847f96b57ff66beeac6e8fd6b33b23f7d11be509931d1cd059f04036989848c6efe682611732576000611735565b60015b60405160ff909116815260200160405180910390a25050505050565b60008281526002602052604090206001015482906001600160a01b0316331461178c5760405162461bcd60e51b815260040161160a906168e3565b6000838152600260205260409020600701544281116117bd5760405162461bcd60e51b815260040161160a90616843565b602083815560405184815285917fbe95b51fb29523640d8d589c9eba58d8b9b3100df6b28caeb5549273622dbb1f9101611677565b8061182f5760405162461bcd60e51b815260206004820152600d60248201526c496e76616c696420617272617960981b604482015260640161160a565b5050565b601b5460008281526002602052604090206007015461185191615cbd565b42106110de5760405162461bcd60e51b815260206004820152601060248201527f416374697665206269642f6f6666657200000000000000000000000000000000604482015260640161160a565b60008381526002602052604090206001015483906001600160a01b031633146118da5760405162461bcd60e51b815260040161160a906168e3565b60008481526002602052604090206007015442811161190b5760405162461bcd60e51b815260040161160a90616843565b84600160008281526002602081905260409091206005015460ff169081111561193657611936616aeb565b14156119845760405162461bcd60e51b815260206004820152601660248201527f4f7074696f6e20616c7265616479206f6e2073616c6500000000000000000000604482015260640161160a565b600086815260026020526040902060070154869042106119d75760405162461bcd60e51b815260206004820152600e60248201526d13dc1d1a5bdb88195e1c1a5c995960921b604482015260640161160a565b85858080602002602001604051908101604052809392919081815260200183836020028082843760009201919091525050825115159150611a6890505760405162461bcd60e51b8152602060048201526024808201527f496e76616c69642061727261793a2041727261792063616e6e6f7420626520656044820152636d70747960e01b606482015260840161160a565b62030d405a11611aaf5760405162461bcd60e51b815260206004820152601260248201527111d85cc81b1a5b5a5d08195e18d95959195960721b604482015260640161160a565b600088815260026020526040902060058101805460ff19166001179055611ada90600601888861629c565b5060008667ffffffffffffffff811115611af657611af6616b17565b604051908082528060200260200182016040528015611b1f578160200160208202803683370190505b50905060005b87811015611b7557888882818110611b3f57611b3f616b01565b90506020020135828281518110611b5857611b58616b01565b602090810291909101015280611b6d81616aba565b915050611b25565b5060008981526002602081815260408084206005909252909220825481546001600160a01b03199081166001600160a01b039283161783556001808601549084018054831691841691909117905584840154938301805490911693909116929092179091556003808301549082015560048083018054611bf892840191906162e7565b50600582810154908201805460ff9092169160ff19166001836002811115611c2257611c22616aeb565b021790555060068281018054611c3b92840191906162e7565b50600782810154908201556008918201549101556040517f9d4b6dff4c87b3afacb569dc9e0e4d482bbc9d40b0f7ef1a71c79339db3c70ff90611c83908b9033908590616a02565b60405180910390a1505050505050505050565b60008281526002602052604090206001015482906001600160a01b03163314611cd15760405162461bcd60e51b815260040161160a906168e3565b600083815260026020526040902060070154428111611d025760405162461bcd60e51b815260040161160a90616843565b826001600160a01b038116611d695760405162461bcd60e51b815260206004820152602760248201527f496e76616c696420616464726573733a20416464726573732063616e6e6f74206044820152666265207a65726f60c81b606482015260840161160a565b62030d405a11611db05760405162461bcd60e51b815260206004820152601260248201527111d85cc81b1a5b5a5d08195e18d95959195960721b604482015260640161160a565b336000908152600460208181526040808420898552909152822080546001600160a01b03199081168255600182018054821690556002820180549091169055600381018390559190611e0490830182616327565b60058201805460ff19169055611e1e600683016000616327565b506000600782018190556008909101819055858152600260208181526040808420600180820180546001600160a01b03808d166001600160a01b03199283168117845589526004808852868a208f8b5290975294909720835481548916908616178155905491810180548816928516929092179091558185015494810180549096169490921693909317909355600380830154908401558082018054929392611eca92840191906162e7565b50600582810154908201805460ff9092169160ff19166001836002811115611ef457611ef4616aeb565b021790555060068281018054611f0d92840191906162e7565b5060078281015490820155600891820154910155604080518681523360208201526001600160a01b0386168183015290517f570b9297ef9982646a5b51a09a56e2f1aad24a61c8daf045803c4569ddd2af1e9181900360600190a15050505050565b6001600160a01b038116611fc55760405162461bcd60e51b815260206004820152601560248201527f496e76616c6964206f776e657220616464726573730000000000000000000000604482015260640161160a565b601080546001600160a01b0319166001600160a01b0392909216919091179055565b6000818152600260208181526040808420805460018201549482015460038301546005840154600785015460088601546004870180548951818c0281018c01909a52808a528c9b8c9b8c9b60609b8d9b8d9b8d9b8c9b939a6001600160a01b039384169a9784169992909316979096919560ff9094169460068c01949091879183018282801561209657602002820191906000526020600020905b815481526020019060010190808311612082575b50505050509450828054806020026020016040519081016040528092919081815260200182805480156120e857602002820191906000526020600020905b8154815260200190600101908083116120d4575b50505050509250995099509950995099509950995099509950509193959799909294969850565b60008281526002602052604090206001015482906001600160a01b0316331461214a5760405162461bcd60e51b815260040161160a906168e3565b60008381526002602052604090206007015442811161217b5760405162461bcd60e51b815260040161160a90616843565b601f83905560405183815284907fd426195495073ec4a9d9805a3fa80f425c189f701de7c9426266b8c965acce3190602001611677565b60008281526002602052604090206001015482906001600160a01b031633146121ed5760405162461bcd60e51b815260040161160a906168e3565b50601d5550565b6001805b620186a081116122205761220c8183616a6d565b91508061221881616aba565b9150506121f8565b50620186a05a116110de5760405162461bcd60e51b815260206004820152601260248201527111d85cc81b1a5b5a5d08195e18d95959195960721b604482015260640161160a565b60008281526002602052604090206001015482906001600160a01b031633146122a35760405162461bcd60e51b815260040161160a906168e3565b6000838152600260205260409020600701544281116122d45760405162461bcd60e51b815260040161160a90616843565b601c83905560405183815284907fe16a6dd3c7a1a4a15a5d0e545e58617ec3b966456c5b63c9b2615cd01d67743890602001611677565b60008181526002602052604090206007015442811161233c5760405162461bcd60e51b815260040161160a90616843565b6000828152600260205260409020600701548290421061238f5760405162461bcd60e51b815260206004820152600e60248201526d13dc1d1a5bdb88195e1c1a5c995960921b604482015260640161160a565b600083815260026020526040902060070154839042106123e35760405162461bcd60e51b815260206004820152600f60248201526e29ba30b632903134b217b7b33332b960891b604482015260640161160a565b62030d405a1161242a5760405162461bcd60e51b815260206004820152601260248201527111d85cc81b1a5b5a5d08195e18d95959195960721b604482015260640161160a565b600160008581526002602081905260409091206005015460ff169081111561245457612454616aeb565b146124965760405162461bcd60e51b81526020600482015260126024820152714f7074696f6e206e6f74206f6e2073616c6560701b604482015260640161160a565b6000602554116124e85760405162461bcd60e51b815260206004820152601a60248201527f4c6174657374207072696365206e6f7420617661696c61626c65000000000000604482015260640161160a565b60008060005b60008781526002602052604090206006015481101561255d576000878152600260205260409020600601805461254991908390811061252f5761252f616b01565b906000526020600020015484615cbd90919063ffffffff16565b92508061255581616aba565b9150506124ee565b5060005b6000878152600260205260409020600401548110156125f05760008781526002602052604090206008810154600490910180546125dc926125d59290916125cf9190869081106125b3576125b3616b01565b9060005260206000200154602554615cd090919063ffffffff16565b90615cdc565b8390615cbd565b9150806125e881616aba565b915050612561565b50818110156126415760405162461bcd60e51b815260206004820152601860248201527f4f7074696f6e206973206e6f742070726f66697461626c650000000000000000604482015260640161160a565b600086815260026020819052604091829020908101546001820154600390920154925163a9059cbb60e01b81526001600160a01b0392831660048201526024810193909352169063a9059cbb90604401602060405180830381600087803b1580156126ab57600080fd5b505af11580156126bf573d6000803e3d6000fd5b505050506040513d601f19601f820116820180604052508101906126e391906164f3565b6126ff5760405162461bcd60e51b815260040161160a906168a0565b600086815260026020818152604080842092830154925460069092529283902060010154925163a9059cbb60e01b81526001600160a01b0391821660048201526024810193909352169063a9059cbb90604401602060405180830381600087803b15801561276c57600080fd5b505af1158015612780573d6000803e3d6000fd5b505050506040513d601f19601f820116820180604052508101906127a491906164f3565b6127f05760405162461bcd60e51b815260206004820152601a60248201527f4661696c656420746f207472616e73666572207072656d69756d000000000000604482015260640161160a565b3360009081526004602081815260408084208a8552909152822080546001600160a01b0319908116825560018201805482169055600282018054909116905560038101839055919061284490830182616327565b60058201805460ff1916905561285e600683016000616327565b5060006007820181905560089091018190553381526003602081815260408084208a8552909152822080546001600160a01b03199081168255600182018054821690556002820180549091169055908101829055906128c06004830182616327565b60058201805460ff191690556128da600683016000616327565b506000600782018190556008909101819055868152600260208190526040822080546001600160a01b0319908116825560018201805482169055918101805490921690915560038101829055906129346004830182616327565b60058201805460ff1916905561294e600683016000616327565b50600060078201819055600890910181905586815260066020908152604080832083815560018082018590556002918201859055600590935290832080546001600160a01b03199081168255928101805484169055908101805490921690915560038101829055906129c36004830182616327565b60058201805460ff191690556129dd600683016000616327565b50600060078201819055600890910155604080518781526020810183905290810183905233907f72fc7139226e4349b3cf7baa2fd3aca128897923fea219a0d0d13ccec626f831906060015b60405180910390a2505050505050565b6000600019815b600084815260026020526040902060060154811015612ae8576000848152600e6020908152604080832060029092528220600601805483919085908110612a8957612a89616b01565b60009182526020808320909101548352828101939093526040918201812054888252600884528282206001600160a01b039091168083529352205490915083811015612ad3578093505b50508080612ae090616aba565b915050612a40565b5092915050565b60008281526002602052604090206001015482906001600160a01b03163314612b2a5760405162461bcd60e51b815260040161160a906168e3565b600083815260026020526040902060070154428111612b5b5760405162461bcd60e51b815260040161160a90616843565b600084815260026020526040902060070154612b779084615cbd565b600085815260026020908152604091829020600701929092555184815285917f73693f148afc35383d1bc2d56ef315dfc19a9b9643aa2f3c1b5924cbab1ad08e9101611677565b6000546001600160a01b03163314612c325760405162461bcd60e51b815260206004820152603160248201527f556e617574686f72697a65643a204f6e6c792063726561746f722063616e206360448201527030b636103a3434b990333ab731ba34b7b760791b606482015260840161160a565b60285460ff16612c845760405162461bcd60e51b815260206004820152601660248201527f436f6e7472616374206973206e6f742070617573656400000000000000000000604482015260640161160a565b6028805460ff19169055565b6000546001600160a01b03163314612d045760405162461bcd60e51b815260206004820152603160248201527f556e617574686f72697a65643a204f6e6c792063726561746f722063616e206360448201527030b636103a3434b990333ab731ba34b7b760791b606482015260840161160a565b6001600160a01b038116612d5a5760405162461bcd60e51b815260206004820152601760248201527f496e76616c69642063726561746f722061646472657373000000000000000000604482015260640161160a565b600f80546001600160a01b0319166001600160a01b0392909216919091179055565b33612dc95760405162461bcd60e51b815260206004820152600f60248201527f496e76616c696420616464726573730000000000000000000000000000000000604482015260640161160a565b565b60008281526002602052604090206001015482906001600160a01b03163314612e065760405162461bcd60e51b815260040161160a906168e3565b600083815260026020526040902060070154428111612e375760405162461bcd60e51b815260040161160a90616843565b602483905560405183815284907f739c545831ee1c004c8dc63dd2a25d90c684b3ad9b4e2b2a913d086cd8f95dde90602001611677565b3460008111612ee55760405162461bcd60e51b815260206004820152603060248201527f496e76616c696420616d6f756e743a20416d6f756e74206d757374206265206760448201527f726561746572207468616e207a65726f00000000000000000000000000000000606482015260840161160a565b600083815260026020526040902060070154428111612f165760405162461bcd60e51b815260040161160a90616843565b62030d405a11612f5d5760405162461bcd60e51b815260206004820152601260248201527111d85cc81b1a5b5a5d08195e18d95959195960721b604482015260640161160a565b60008481526002602052604090206007015484904210612fb05760405162461bcd60e51b815260206004820152600e60248201526d13dc1d1a5bdb88195e1c1a5c995960921b604482015260640161160a565b60008581526006602052604090206002015484908115801590612fd35750808211155b61306b5760405162461bcd60e51b815260206004820152605460248201527f496e76616c6964206672616374696f6e3a20556e697473206d7573742062652060448201527f67726561746572207468616e207a65726f20616e64206c657373207468616e2060648201527f6f7220657175616c20746f206d6178556e697473000000000000000000000000608482015260a40161160a565b60008781526006602052604090206002015460255461308f91906125cf9089615cd0565b34146130dd5760405162461bcd60e51b815260206004820152600e60248201527f5072696365206d69736d61746368000000000000000000000000000000000000604482015260640161160a565b6000805b600089815260026020526040902060060154811015613150576000898152600260205260409020600601805461313c91908390811061312257613122616b01565b906000526020600020015483615cbd90919063ffffffff16565b91508061314881616aba565b9150506130e1565b508034146131a05760405162461bcd60e51b815260206004820152601860248201527f496e636f7272656374207061796d656e7420616d6f756e740000000000000000604482015260640161160a565b600088815260026020819052604091829020908101546001820154600390920154925163a9059cbb60e01b81526001600160a01b0392831660048201526024810193909352169063a9059cbb90604401602060405180830381600087803b15801561320a57600080fd5b505af115801561321e573d6000803e3d6000fd5b505050506040513d601f19601f8201168201806040525081019061324291906164f3565b61325e5760405162461bcd60e51b815260040161160a906168a0565b600088815260026020818152604080842092830154925460069092529283902060010154925163a9059cbb60e01b81526001600160a01b0391821660048201526024810193909352169063a9059cbb90604401602060405180830381600087803b1580156132cb57600080fd5b505af11580156132df573d6000803e3d6000fd5b505050506040513d601f19601f8201168201806040525081019061330391906164f3565b61334f5760405162461bcd60e51b815260206004820152601a60248201527f4661696c656420746f207472616e73666572207072656d69756d000000000000604482015260640161160a565b3360009081526004602081815260408084208c8552909152822080546001600160a01b031990811682556001820180548216905560028201805490911690556003810183905591906133a390830182616327565b60058201805460ff191690556133bd600683016000616327565b50600060078201819055600890910181905588815260026020818152604080842033855260048084528286208e87529093529320835481546001600160a01b03199081166001600160a01b0392831617835560018087015490840180548316918416919091179055858501549483018054909116949091169390931790925560038084015490830155808301805461345892840191906162e7565b50600582810154908201805460ff9092169160ff1916600183600281111561348257613482616aeb565b02179055506006828101805461349b92840191906162e7565b506007828101549082015560089182015491015560008881526002602052604090206001810180546001600160a01b03191633179055600501805460ff191690553481101561351c57336108fc6134f23484615ce8565b6040518115909202916000818181858888f1935050505015801561351a573d6000803e3d6000fd5b505b604080518981526020810183905233917f23ad4783d95ee2d3730fae4843757e102bd28a58ef48e2c6f8fe93aef120f5fb910160405180910390a25050505050505050565b60008481526002602052604090206001015484906001600160a01b0316331461359c5760405162461bcd60e51b815260040161160a906168e3565b6026546001600160a01b03166135f45760405162461bcd60e51b815260206004820181905260248201527f436861696e6c696e6b206f7261636c652061646472657373206e6f7420736574604482015260640161160a565b6026546040516000916001600160a01b0316906310835dbb9061361f9089908990899060200161672a565b60408051601f198184030181529082905280516020909101207fffffffff0000000000000000000000000000000000000000000000000000000060e084901b1682526004820152670de0b6b3a76400006024820152604401602060405180830381600087803b15801561369157600080fd5b505af11580156136a5573d6000803e3d6000fd5b505050506040513d601f19601f820116820180604052508101906136c9919061652e565b90506136d54284615cbd565b60008281526009602052604090819020919091555186907f45ca523dc8cc2788a2e6538f8b62e73851b5025a306ff66e3e587b081ca3153090612a29908890889088908790616803565b60008181526002602052604090206001015481906001600160a01b0316331461375a5760405162461bcd60e51b815260040161160a906168e3565b600082815260026020526040902060070154829042106137ad5760405162461bcd60e51b815260206004820152600e60248201526d13dc1d1a5bdb88195e1c1a5c995960921b604482015260640161160a565b600083815260026020819052604082206005015460ff16908111156137d4576137d4616aeb565b146138475760405162461bcd60e51b815260206004820152602f60248201527f43616e6e6f7420776974686472617720636f6c6c61746572616c20666f72206160448201527f6e20616374697665206f7074696f6e0000000000000000000000000000000000606482015260840161160a565b600083815260026020819052604091829020908101546001820154600390920154925163a9059cbb60e01b81526001600160a01b0392831660048201526024810193909352169063a9059cbb90604401602060405180830381600087803b1580156138b157600080fd5b505af11580156138c5573d6000803e3d6000fd5b505050506040513d601f19601f820116820180604052508101906138e991906164f3565b6139055760405162461bcd60e51b815260040161160a906168a0565b336000908152600460208181526040808420878552909152822080546001600160a01b0319908116825560018201805482169055600282018054909116905560038101839055919061395990830182616327565b60058201805460ff19169055613973600683016000616327565b506000600782018190556008909101819055338152600360208181526040808420878552909152822080546001600160a01b03199081168255600182018054821690556002820180549091169055908101829055906139d56004830182616327565b60058201805460ff191690556139ef600683016000616327565b506000600782018190556008909101819055838152600260208190526040822080546001600160a01b031990811682556001820180548216905591810180549092169091556003810182905590613a496004830182616327565b60058201805460ff19169055613a63600683016000616327565b5060006007820181905560089091018190558381526006602052604080822082815560018101839055600201919091555133907f2d428178e65c47bfb7d75b43e57e93851220995d8887d6826253c18d9b9fc99f90613ac59086815260200190565b60405180910390a2505050565b60008181526002602052604090206001015481906001600160a01b03163314613b0d5760405162461bcd60e51b815260040161160a906168e3565b60008281526002602052604090206007015482904210613b605760405162461bcd60e51b815260206004820152600e60248201526d13dc1d1a5bdb88195e1c1a5c995960921b604482015260640161160a565b600160008481526002602081905260409091206005015460ff1690811115613b8a57613b8a616aeb565b14613bcc5760405162461bcd60e51b81526020600482015260126024820152714f7074696f6e206e6f74206f6e2073616c6560701b604482015260640161160a565b60008381526002602081815260408084206005908101805460ff19169055909152822080546001600160a01b031990811682556001820180548216905591810180549092169091556003810182905590613c296004830182616327565b60058201805460ff19169055613c43600683016000616327565b50600060078201819055600890910155604080518481523360208201527f05226439292b7408157c7fb8a72a8ef4696205d78e3b985cee36978e1200f2df91015b60405180910390a1505050565b6000546001600160a01b03163314612dc95760405162461bcd60e51b815260206004820152603160248201527f556e617574686f72697a65643a204f6e6c792063726561746f722063616e206360448201527030b636103a3434b990333ab731ba34b7b760791b606482015260840161160a565b60008181526002602052604090206001015481906001600160a01b03163314613d405760405162461bcd60e51b815260040161160a906168e3565b60008281526002602052604090206007015482904210613d935760405162461bcd60e51b815260206004820152600e60248201526d13dc1d1a5bdb88195e1c1a5c995960921b604482015260640161160a565b601e54600084815260026020526040902060070154613db191615cbd565b4211613dff5760405162461bcd60e51b815260206004820152601a60248201527f4f66666572206475726174696f6e206e6f742065787069726564000000000000604482015260640161160a565b60005b600084815260026020526040902060060154811015613e9a576000848152600e6020908152604080832060029092528220600601805483919085908110613e4b57613e4b616b01565b60009182526020808320909101548352828101939093526040918201812054888252600884528282206001600160a01b0390911682529092528120555080613e9281616aba565b915050613e02565b5060405183907f568aeda352153539d9813524dc5d57d37f459a2966a4092d7c00b12e8f23420d90600090a2505050565b60008281526002602052604090206001015482906001600160a01b03163314613f065760405162461bcd60e51b815260040161160a906168e3565b600083815260026020526040902060070154428111613f375760405162461bcd60e51b815260040161160a90616843565b602383905560405183815284907f7bfac94b8f45c93697445d23eac75f25203c65fe9d9455b378ec00a95467845990602001611677565b60008181526002602052604090206001015481906001600160a01b03163314613fa95760405162461bcd60e51b815260040161160a906168e3565b60008281526002602052604090206007015482904210613ffc5760405162461bcd60e51b815260206004820152600e60248201526d13dc1d1a5bdb88195e1c1a5c995960921b604482015260640161160a565b600160008481526002602081905260409091206005015460ff169081111561402657614026616aeb565b14156140745760405162461bcd60e51b815260206004820181905260248201527f43616e6e6f74206275726e206f7074696f6e207768696c65206f6e2073616c65604482015260640161160a565b600083815260026020819052604091829020908101546001820154600390920154925163a9059cbb60e01b81526001600160a01b0392831660048201526024810193909352169063a9059cbb90604401602060405180830381600087803b1580156140de57600080fd5b505af11580156140f2573d6000803e3d6000fd5b505050506040513d601f19601f8201168201806040525081019061411691906164f3565b6141325760405162461bcd60e51b815260040161160a906168a0565b336000908152600460208181526040808420878552909152822080546001600160a01b0319908116825560018201805482169055600282018054909116905560038101839055919061418690830182616327565b60058201805460ff191690556141a0600683016000616327565b506000600782018190556008909101819055338152600360208181526040808420878552909152822080546001600160a01b03199081168255600182018054821690556002820180549091169055908101829055906142026004830182616327565b60058201805460ff1916905561421c600683016000616327565b506000600782018190556008909101819055838152600260208190526040822080546001600160a01b0319908116825560018201805482169055918101805490921690915560038101829055906142766004830182616327565b60058201805460ff19169055614290600683016000616327565b50600060078201819055600890910181905583815260066020908152604080832083815560018082018590556002918201859055600590935290832080546001600160a01b03199081168255928101805484169055908101805490921690915560038101829055906143056004830182616327565b60058201805460ff1916905561431f600683016000616327565b50600060078201819055600890910155604080518481523360208201527f5b5bdde384b3291bb09948b7b8e2fe72e964ad6835353f33165701f8d8b6311c9101613c84565b6000546001600160a01b031633146143d85760405162461bcd60e51b815260206004820152603160248201527f556e617574686f72697a65643a204f6e6c792063726561746f722063616e206360448201527030b636103a3434b990333ab731ba34b7b760791b606482015260840161160a565b60285460ff161561442b5760405162461bcd60e51b815260206004820152601260248201527f436f6e7472616374206973207061757365640000000000000000000000000000604482015260640161160a565b6028805460ff19166001179055565b6000614447858585615cf4565b601854614455908690615cbd565b9450600061449b8888808060200260200160405190810160405280939291908181526020018383602002808284376000920191909152508a925089915088905087615da7565b90507faa32d33a6d7b7d1531fc41b3dfbc84e08fddba5db1ed6b86bd4c8e39d8efcdfe813387878c8c60008181106144d5576144d5616b01565b604080519788526001600160a01b039687166020808a0191909152959096168787015260608701939093525091020135608083015260a0820189905260c08201869052519081900360e00190a1979650505050505050565b6001600160a01b0381166000908152600c6020526040812080549161455183616aa3565b919050555050565b600080805b600084815260026020526040902060060154811015612ae8576000848152600d60209081526040808320600290925282206006018054839190859081106145a7576145a7616b01565b60009182526020808320909101548352828101939093526040918201812054888252600784528282206001600160a01b0390911680835293522054909150838111156145f1578093505b505080806145fe90616aba565b91505061455e565b6001600160a01b0381166000908152600c6020526040812080549161455183616aba565b60008281526002602052604090206001015482906001600160a01b031633146146655760405162461bcd60e51b815260040161160a906168e3565b6000838152600260205260409020600701544281116146965760405162461bcd60e51b815260040161160a90616843565b601e83905560405183815284907ff5b670dfc12583e5b0164fca9fbbd0e6997013ca4b1a92457f1d3aead8dfd43590602001611677565b6000602860019054906101000a90046001600160a01b03166001600160a01b03166316fe73ec6040518163ffffffff1660e01b815260040160206040518083038186803b15801561471d57600080fd5b505afa158015614731573d6000803e3d6000fd5b505050506040513d601f19601f82011682018060405250810190614755919061652e565b116147a25760405162461bcd60e51b815260206004820152601f60248201527f52616e646f6d206e756d626572206e6f742066756c66696c6c65642079657400604482015260640161160a565b6000602860019054906101000a90046001600160a01b03166001600160a01b03166316fe73ec6040518163ffffffff1660e01b815260040160206040518083038186803b1580156147f257600080fd5b505afa158015614806573d6000803e3d6000fd5b505050506040513d601f19601f8201168201806040525081019061482a919061652e565b9050817f1265ed0ee2224724954858bc12b94d9ec15e1a0f2f4b3aa8e2bba707945902088260405161485e91815260200190565b60405180910390a2602860019054906101000a90046001600160a01b03166001600160a01b031663f9e19fa56040518163ffffffff1660e01b8152600401600060405180830381600087803b1580156148b657600080fd5b505af11580156148ca573d6000803e3d6000fd5b505050505050565b60008181526002602052604090206001015481906001600160a01b0316331461490d5760405162461bcd60e51b815260040161160a906168e3565b600082815260026020526040902060070154829042106149605760405162461bcd60e51b815260206004820152600e60248201526d13dc1d1a5bdb88195e1c1a5c995960921b604482015260640161160a565b60195460008481526002602052604090206007015461497e91615ce8565b42116149cc5760405162461bcd60e51b815260206004820152601860248201527f426964206475726174696f6e206e6f7420657870697265640000000000000000604482015260640161160a565b60005b600084815260026020526040902060060154811015614a67576000848152600d6020908152604080832060029092528220600601805483919085908110614a1857614a18616b01565b60009182526020808320909101548352828101939093526040918201812054888252600784528282206001600160a01b0390911682529092528120555080614a5f81616aba565b9150506149cf565b5060405183907f7802cd593f5c917333e3eaa52e735224ba7d2af514a30cc7b8cb8b768b49cdbf90600090a2505050565b60008181526002602052604090206001015481906001600160a01b03163314614ad35760405162461bcd60e51b815260040161160a906168e3565b60008281526002602052604090206007015482904210614b265760405162461bcd60e51b815260206004820152600e60248201526d13dc1d1a5bdb88195e1c1a5c995960921b604482015260640161160a565b600160008481526002602081905260409091206005015460ff1690811115614b5057614b50616aeb565b1415614ba85760405162461bcd60e51b815260206004820152602160248201527f43616e6e6f7420636c61696d206f7074696f6e207768696c65206f6e2073616c6044820152606560f81b606482015260840161160a565b600083815260026020819052604091829020908101546001820154600390920154925163a9059cbb60e01b81526001600160a01b0392831660048201526024810193909352169063a9059cbb90604401602060405180830381600087803b158015614c1257600080fd5b505af1158015614c26573d6000803e3d6000fd5b505050506040513d601f19601f82011682018060405250810190614c4a91906164f3565b614c665760405162461bcd60e51b815260040161160a906168a0565b600083815260026020818152604080842092830154925460069092529283902060010154925163a9059cbb60e01b81526001600160a01b0391821660048201526024810193909352169063a9059cbb90604401602060405180830381600087803b158015614cd357600080fd5b505af1158015614ce7573d6000803e3d6000fd5b505050506040513d601f19601f82011682018060405250810190614d0b91906164f3565b614d575760405162461bcd60e51b815260206004820152601a60248201527f4661696c656420746f207472616e73666572207072656d69756d000000000000604482015260640161160a565b336000908152600460208181526040808420878552909152822080546001600160a01b03199081168255600182018054821690556002820180549091169055600381018390559190614dab90830182616327565b60058201805460ff19169055614dc5600683016000616327565b506000600782018190556008909101819055338152600360208181526040808420878552909152822080546001600160a01b0319908116825560018201805482169055600282018054909116905590810182905590614e276004830182616327565b60058201805460ff19169055614e41600683016000616327565b506000600782018190556008909101819055838152600260208190526040822080546001600160a01b031990811682556001820180548216905591810180549092169091556003810182905590614e9b6004830182616327565b60058201805460ff19169055614eb5600683016000616327565b50600060078201819055600890910181905583815260066020908152604080832083815560018082018590556002918201859055600590935290832080546001600160a01b0319908116825592810180548416905590810180549092169091556003810182905590614f2a6004830182616327565b60058201805460ff19169055614f44600683016000616327565b5060006007820181905560089091015560405183815233907f99345787a609d8a93a34ac5c7c9c0a4b1691a4e49b40518f6d6e193c286432aa90602001613ac5565b60008181526002602052604090206001015481906001600160a01b03163314614fc15760405162461bcd60e51b815260040161160a906168e3565b600082815260026020526040902060070154829042106150145760405162461bcd60e51b815260206004820152600e60248201526d13dc1d1a5bdb88195e1c1a5c995960921b604482015260640161160a565b600160008481526002602081905260409091206005015460ff169081111561503e5761503e616aeb565b146150805760405162461bcd60e51b81526020600482015260126024820152714f7074696f6e206e6f74206f6e2073616c6560701b604482015260640161160a565b336000908152600460208181526040808420878552909152822080546001600160a01b031990811682556001820180548216905560028201805490911690556003810183905591906150d490830182616327565b60058201805460ff191690556150ee600683016000616327565b5060006007820181905560089091018190558381526002602081815260408084206005908101805460ff19169055909152822080546001600160a01b03199081168255600182018054821690559181018054909216909155600381018290559061515b6004830182616327565b60058201805460ff19169055615175600683016000616327565b5060006007820181905560089091015560405183815233907f89a43fd47467ad079e1a3e484f558948a678189908ca1b2055c4c3b63222b1af90602001613ac5565b60008181526002602052604090206007015442106110de5760405162461bcd60e51b815260206004820152600f60248201526e29ba30b632903134b217b7b33332b960891b604482015260640161160a565b60008281526002602052604090206001015482906001600160a01b031633146152445760405162461bcd60e51b815260040161160a906168e3565b6000838152600260205260409020600701544281116152755760405162461bcd60e51b815260040161160a90616843565b601b83905560405183815284907f8a7a5c9c34210b39b0dd6c746e4824f7af2a84c059d4dcbc168a2036d26df99090602001611677565b60008281526002602052604090206001015482906001600160a01b031633146152e75760405162461bcd60e51b815260040161160a906168e3565b6000838152600260205260409020600701544281116153185760405162461bcd60e51b815260040161160a90616843565b602183905560405183815284907f436da186610be724d1e56abf3d34d2baf7374f4bc9b7e38002969d08393cf54790602001611677565b60003411612dc95760405162461bcd60e51b815260206004820152600e60248201527f496e76616c696420616d6f756e74000000000000000000000000000000000000604482015260640161160a565b6000600160008381526002602081905260409091206005015460ff16908111156153cb576153cb616aeb565b1492915050565b60008181526002602052604090206001015481906001600160a01b0316331461182f5760405162461bcd60e51b815260040161160a906168e3565b600081815260026020526040902060070154819042106154605760405162461bcd60e51b815260206004820152600e60248201526d13dc1d1a5bdb88195e1c1a5c995960921b604482015260640161160a565b600082815260026020526040902060070154829042106154b45760405162461bcd60e51b815260206004820152600f60248201526e29ba30b632903134b217b7b33332b960891b604482015260640161160a565b62030d405a116154fb5760405162461bcd60e51b815260206004820152601260248201527111d85cc81b1a5b5a5d08195e18d95959195960721b604482015260640161160a565b600160008481526002602081905260409091206005015460ff169081111561552557615525616aeb565b146155675760405162461bcd60e51b81526020600482015260126024820152714f7074696f6e206e6f74206f6e2073616c6560701b604482015260640161160a565b6000805b6000858152600260205260409020600601548110156155c057600085815260026020526040902060060180546155ac91908390811061312257613122616b01565b9150806155b881616aba565b91505061556b565b508034146156105760405162461bcd60e51b815260206004820152601860248201527f496e636f7272656374207061796d656e7420616d6f756e740000000000000000604482015260640161160a565b600084815260026020819052604091829020908101546001820154600390920154925163a9059cbb60e01b81526001600160a01b0392831660048201526024810193909352169063a9059cbb90604401602060405180830381600087803b15801561567a57600080fd5b505af115801561568e573d6000803e3d6000fd5b505050506040513d601f19601f820116820180604052508101906156b291906164f3565b6156ce5760405162461bcd60e51b815260040161160a906168a0565b600084815260026020818152604080842092830154925460069092529283902060010154925163a9059cbb60e01b81526001600160a01b0391821660048201526024810193909352169063a9059cbb90604401602060405180830381600087803b15801561573b57600080fd5b505af115801561574f573d6000803e3d6000fd5b505050506040513d601f19601f8201168201806040525081019061577391906164f3565b6157bf5760405162461bcd60e51b815260206004820152601a60248201527f4661696c656420746f207472616e73666572207072656d69756d000000000000604482015260640161160a565b336000908152600460208181526040808420888552909152822080546001600160a01b0319908116825560018201805482169055600282018054909116905560038101839055919061581390830182616327565b60058201805460ff1916905561582d600683016000616327565b50600060078201819055600890910181905584815260026020818152604080842033855260048084528286208a87529093529320835481546001600160a01b03199081166001600160a01b039283161783556001808701549084018054831691841691909117905585850154948301805490911694909116939093179092556003808401549083015580830180546158c892840191906162e7565b50600582810154908201805460ff9092169160ff191660018360028111156158f2576158f2616aeb565b02179055506006828101805461590b92840191906162e7565b506007828101549082015560089182015491015560008481526002602052604090206001810180546001600160a01b03191633179055600501805460ff191690553481101561598c57336108fc6159623484615ce8565b6040518115909202916000818181858888f1935050505015801561598a573d6000803e3d6000fd5b505b604080518581526020810183905233917f23ad4783d95ee2d3730fae4843757e102bd28a58ef48e2c6f8fe93aef120f5fb9101611677565b615a126040805161012081018252600080825260208201819052918101829052606080820183905260808201529060a082019081526020016060815260200160008152602001600081525090565b60008281526005602090815260409182902082516101208101845281546001600160a01b039081168252600183015481168285015260028301541681850152600382015460608201526004820180548551818602810186019096528086529194929360808601939290830182828015615aaa57602002820191906000526020600020905b815481526020019060010190808311615a96575b5050509183525050600582015460209091019060ff166002811115615ad157615ad1616aeb565b6002811115615ae257615ae2616aeb565b815260200160068201805480602002602001604051908101604052809291908181526020018280548015615b3557602002820191906000526020600020905b815481526020019060010190808311615b21575b50505050508152602001600782015481526020016008820154815250509050919050565b600080805b600084815260026020526040902060060154811015612ae8576000848152600d6020908152604080832060029092528220600601805483919085908110615ba757615ba7616b01565b60009182526020808320909101548352828101939093526040918201812054888252600784528282206001600160a01b039091168083529352205490915015615bf85782615bf481616aba565b9350505b5080615c0381616aba565b915050615b5e565b600080805b600084815260026020526040902060060154811015612ae8576000848152600e6020908152604080832060029092528220600601805483919085908110615c5957615c59616b01565b60009182526020808320909101548352828101939093526040918201812054888252600884528282206001600160a01b039091168083529352205490915015615caa5782615ca681616aba565b9350505b5080615cb581616aba565b915050615c10565b6000615cc98284616a33565b9392505050565b6000615cc98284616a6d565b6000615cc98284616a4b565b6000615cc98284616a8c565b824210615d135760405162461bcd60e51b815260040161160a90616843565b60008111615d985760405162461bcd60e51b815260206004820152604660248201527f496e76616c696420636f6c6c61746572616c20616d6f756e743a20436f6c6c6160448201527f746572616c20616d6f756e74206d7573742062652067726561746572207468616064820152656e207a65726f60d01b608482015260a40161160a565b615da282826160fe565b505050565b6001805460408051610120810182523380825260208083019182526001600160a01b03898116848601908152606085018a8152608086018e8152600060a0880181905288518181528087018a5260c089015260e088018f905261010088018c90528981526002808752989020875181549086166001600160a01b031991821617825596519a810180549b86169b88169b909b17909a559151968901805497909316969094169590951790559051600386015591518051939491938493615e74926004850192910190616345565b5060a082015160058201805460ff19166001836002811115615e9857615e98616aeb565b021790555060c08201518051615eb8916006840191602090910190616345565b5060e0820151600782015561010090910151600890910155336000908152600360208181526040808420868552825292839020845181546001600160a01b03199081166001600160a01b039283161783558684015160018401805483169184169190911790559486015160028301805490961691161790935560608401519183019190915560808301518051849392615f58926004850192910190616345565b5060a082015160058201805460ff19166001836002811115615f7c57615f7c616aeb565b021790555060c08201518051615f9c916006840191602090910190616345565b5060e0820151600782015561010090910151600890910155336000908152600460208181526040808420868552825292839020845181546001600160a01b03199081166001600160a01b0392831617835586840151600184018054831691841691909117905594860151600283018054909616911617909355606084015160038401556080840151805185949361603893908501920190616345565b5060a082015160058201805460ff1916600183600281111561605c5761605c616aeb565b021790555060c0820151805161607c916006840191602090910190616345565b5060e08201516007820155610100909101516008909101556040805160608101825285815260006020808301828152838501888152878452600683528584208551815591516001808401919091559051600290920191909155600b90915292812087905582549192906160ee83616aba565b9190505550505095945050505050565b6040516323b872dd60e01b8152336004820152306024820152604481018290526001600160a01b038316906323b872dd90606401602060405180830381600087803b15801561614c57600080fd5b505af1158015616160573d6000803e3d6000fd5b505050506040513d601f19601f8201168201806040525081019061618491906164f3565b6161d05760405162461bcd60e51b815260206004820152600f60248201527f5472616e73666572206661696c65640000000000000000000000000000000000604482015260640161160a565b60405163095ea7b360e01b8152306004820152602481018290526001600160a01b0383169063095ea7b390604401602060405180830381600087803b15801561621857600080fd5b505af115801561622c573d6000803e3d6000fd5b505050506040513d601f19601f8201168201806040525081019061625091906164f3565b61182f5760405162461bcd60e51b815260206004820152600f60248201527f417070726f76616c206661696c65640000000000000000000000000000000000604482015260640161160a565b8280548282559060005260206000209081019282156162d7579160200282015b828111156162d75782358255916020019190600101906162bc565b506162e3929150616380565b5090565b8280548282559060005260206000209081019282156162d75760005260206000209182015b828111156162d757825482559160010191906001019061630c565b50805460008255906000526020600020908101906110de9190616380565b8280548282559060005260206000209081019282156162d7579160200282015b828111156162d7578251825591602001919060010190616365565b5b808211156162e35760008155600101616381565b80356001600160a01b03811681146163ac57600080fd5b919050565b60008083601f8401126163c357600080fd5b50813567ffffffffffffffff8111156163db57600080fd5b6020830191508360208260051b85010111156163f657600080fd5b9250929050565b60006020828403121561640f57600080fd5b615cc982616395565b6000806040838503121561642b57600080fd5b61643483616395565b946020939093013593505050565b6000806020838503121561645557600080fd5b823567ffffffffffffffff81111561646c57600080fd5b616478858286016163b1565b90969095509350505050565b60008060008060008060a0878903121561649d57600080fd5b863567ffffffffffffffff8111156164b457600080fd5b6164c089828a016163b1565b909750955050602087013593506164d960408801616395565b925060608701359150608087013590509295509295509295565b60006020828403121561650557600080fd5b81518015158114615cc957600080fd5b60006020828403121561652757600080fd5b5035919050565b60006020828403121561654057600080fd5b5051919050565b6000806040838503121561655a57600080fd5b8235915061656a60208401616395565b90509250929050565b60008060006060848603121561658857600080fd5b8335925061659860208501616395565b9150604084013590509250925092565b6000806000604084860312156165bd57600080fd5b83359250602084013567ffffffffffffffff8111156165db57600080fd5b6165e7868287016163b1565b9497909650939450505050565b6000806000806060858703121561660a57600080fd5b84359350602085013567ffffffffffffffff8082111561662957600080fd5b818701915087601f83011261663d57600080fd5b81358181111561664c57600080fd5b88602082850101111561665e57600080fd5b95986020929092019750949560400135945092505050565b6000806040838503121561668957600080fd5b50508035926020909101359150565b6000806000606084860312156166ad57600080fd5b83359250602084013591506166c460408501616395565b90509250925092565b600081518084526020808501945080840160005b838110156166fd578151875295820195908201906001016166e1565b509495945050505050565b6003811061672657634e487b7160e01b600052602160045260246000fd5b9052565b838152818360208301376000910160200190815292915050565b60006101206001600160a01b03808d168452808c166020850152808b1660408501525088606084015280608084015261677f818401896166cd565b905061678e60a0840188616708565b82810360c08401526167a081876166cd565b60e084019590955250506101000152979650505050505050565b6001600160a01b0388811682528781166020830152861660408201526060810185905260e081016167ee6080830186616708565b60a082019390935260c0015295945050505050565b606081528360608201528385608083013760006080858301015260006080601f19601f870116830101905083602083015282604083015295945050505050565b6020808252603a908201527f496e76616c69642074696d653a204f7074696f6e2065787069726174696f6e2060408201527f74696d65206d75737420626520696e2074686520667574757265000000000000606082015260800190565b60208082526023908201527f4661696c656420746f207472616e7366657220455243323020636f6c6c6174656040820152621c985b60ea1b606082015260800190565b60208082526036908201527f556e617574686f72697a65643a204f6e6c79206f7074696f6e206f776e65722060408201527f63616e2063616c6c20746869732066756e6374696f6e00000000000000000000606082015260800190565b6020815261695a6020820183516001600160a01b03169052565b6000602083015161697660408401826001600160a01b03169052565b5060408301516001600160a01b0381166060840152506060830151608083015260808301516101208060a08501526169b26101408501836166cd565b915060a08501516169c660c0860182616708565b5060c0850151848303601f190160e08601526169e283826166cd565b60e087015161010087810191909152909601519190940152509192915050565b8381526001600160a01b0383166020820152606060408201526000616a2a60608301846166cd565b95945050505050565b60008219821115616a4657616a46616ad5565b500190565b600082616a6857634e487b7160e01b600052601260045260246000fd5b500490565b6000816000190483118215151615616a8757616a87616ad5565b500290565b600082821015616a9e57616a9e616ad5565b500390565b600081616ab257616ab2616ad5565b506000190190565b6000600019821415616ace57616ace616ad5565b5060010190565b634e487b7160e01b600052601160045260246000fd5b634e487b7160e01b600052602160045260246000fd5b634e487b7160e01b600052603260045260246000fd5b634e487b7160e01b600052604160045260246000fdfea26469706673582212202fd10fd03b2d579abac9bbb52f58e724eb7084cd8b1e9349cc0f3d210684b09764736f6c63430008070033",
  "linkReferences": {},
  "deployedLinkReferences": {}
}